{
  "_format": "hh-sol-artifact-1",
  "contractName": "RC3_721",
  "sourceName": "contracts/RC3_721.sol",
  "abi": [
    {
      "inputs": [
        {
          "internalType": "string",
          "name": "_name",
          "type": "string"
        },
        {
          "internalType": "string",
          "name": "_symbol",
          "type": "string"
        },
        {
          "internalType": "string",
          "name": "uri",
          "type": "string"
        },
        {
          "internalType": "address payable",
          "name": "_feeTaker",
          "type": "address"
        },
        {
          "internalType": "uint96",
          "name": "_royalty",
          "type": "uint96"
        }
      ],
      "stateMutability": "nonpayable",
      "type": "constructor"
    },
    {
      "anonymous": false,
      "inputs": [
        {
          "indexed": true,
          "internalType": "address",
          "name": "owner",
          "type": "address"
        },
        {
          "indexed": true,
          "internalType": "address",
          "name": "approved",
          "type": "address"
        },
        {
          "indexed": true,
          "internalType": "uint256",
          "name": "tokenId",
          "type": "uint256"
        }
      ],
      "name": "Approval",
      "type": "event"
    },
    {
      "anonymous": false,
      "inputs": [
        {
          "indexed": true,
          "internalType": "address",
          "name": "owner",
          "type": "address"
        },
        {
          "indexed": true,
          "internalType": "address",
          "name": "operator",
          "type": "address"
        },
        {
          "indexed": false,
          "internalType": "bool",
          "name": "approved",
          "type": "bool"
        }
      ],
      "name": "ApprovalForAll",
      "type": "event"
    },
    {
      "anonymous": false,
      "inputs": [
        {
          "indexed": true,
          "internalType": "address",
          "name": "admin",
          "type": "address"
        },
        {
          "indexed": true,
          "internalType": "address",
          "name": "market",
          "type": "address"
        },
        {
          "indexed": false,
          "internalType": "bool",
          "name": "ismarket",
          "type": "bool"
        }
      ],
      "name": "MarketUpdated",
      "type": "event"
    },
    {
      "anonymous": false,
      "inputs": [
        {
          "indexed": true,
          "internalType": "bytes32",
          "name": "role",
          "type": "bytes32"
        },
        {
          "indexed": true,
          "internalType": "bytes32",
          "name": "previousAdminRole",
          "type": "bytes32"
        },
        {
          "indexed": true,
          "internalType": "bytes32",
          "name": "newAdminRole",
          "type": "bytes32"
        }
      ],
      "name": "RoleAdminChanged",
      "type": "event"
    },
    {
      "anonymous": false,
      "inputs": [
        {
          "indexed": true,
          "internalType": "bytes32",
          "name": "role",
          "type": "bytes32"
        },
        {
          "indexed": true,
          "internalType": "address",
          "name": "account",
          "type": "address"
        },
        {
          "indexed": true,
          "internalType": "address",
          "name": "sender",
          "type": "address"
        }
      ],
      "name": "RoleGranted",
      "type": "event"
    },
    {
      "anonymous": false,
      "inputs": [
        {
          "indexed": true,
          "internalType": "bytes32",
          "name": "role",
          "type": "bytes32"
        },
        {
          "indexed": true,
          "internalType": "address",
          "name": "account",
          "type": "address"
        },
        {
          "indexed": true,
          "internalType": "address",
          "name": "sender",
          "type": "address"
        }
      ],
      "name": "RoleRevoked",
      "type": "event"
    },
    {
      "anonymous": false,
      "inputs": [
        {
          "indexed": true,
          "internalType": "address",
          "name": "caller",
          "type": "address"
        },
        {
          "indexed": true,
          "internalType": "address",
          "name": "receiver",
          "type": "address"
        }
      ],
      "name": "RoyaltyInfoUpdated",
      "type": "event"
    },
    {
      "anonymous": false,
      "inputs": [
        {
          "indexed": true,
          "internalType": "address",
          "name": "from",
          "type": "address"
        },
        {
          "indexed": true,
          "internalType": "address",
          "name": "to",
          "type": "address"
        },
        {
          "indexed": true,
          "internalType": "uint256",
          "name": "tokenId",
          "type": "uint256"
        }
      ],
      "name": "Transfer",
      "type": "event"
    },
    {
      "inputs": [],
      "name": "DEFAULT_ADMIN_ROLE",
      "outputs": [
        {
          "internalType": "bytes32",
          "name": "",
          "type": "bytes32"
        }
      ],
      "stateMutability": "view",
      "type": "function"
    },
    {
      "inputs": [
        {
          "internalType": "address",
          "name": "to",
          "type": "address"
        },
        {
          "internalType": "uint256",
          "name": "tokenId",
          "type": "uint256"
        }
      ],
      "name": "approve",
      "outputs": [],
      "stateMutability": "nonpayable",
      "type": "function"
    },
    {
      "inputs": [
        {
          "internalType": "address",
          "name": "owner",
          "type": "address"
        }
      ],
      "name": "balanceOf",
      "outputs": [
        {
          "internalType": "uint256",
          "name": "",
          "type": "uint256"
        }
      ],
      "stateMutability": "view",
      "type": "function"
    },
    {
      "inputs": [],
      "name": "baseURI",
      "outputs": [
        {
          "internalType": "string",
          "name": "",
          "type": "string"
        }
      ],
      "stateMutability": "view",
      "type": "function"
    },
    {
      "inputs": [
        {
          "internalType": "uint256",
          "name": "tokenId",
          "type": "uint256"
        }
      ],
      "name": "burn",
      "outputs": [],
      "stateMutability": "nonpayable",
      "type": "function"
    },
    {
      "inputs": [
        {
          "internalType": "uint256",
          "name": "price",
          "type": "uint256"
        }
      ],
      "name": "calculateRoyalty",
      "outputs": [
        {
          "internalType": "uint256",
          "name": "",
          "type": "uint256"
        }
      ],
      "stateMutability": "view",
      "type": "function"
    },
    {
      "inputs": [
        {
          "internalType": "uint256",
          "name": "tokenId",
          "type": "uint256"
        }
      ],
      "name": "getApproved",
      "outputs": [
        {
          "internalType": "address",
          "name": "",
          "type": "address"
        }
      ],
      "stateMutability": "view",
      "type": "function"
    },
    {
      "inputs": [
        {
          "internalType": "bytes32",
          "name": "role",
          "type": "bytes32"
        }
      ],
      "name": "getRoleAdmin",
      "outputs": [
        {
          "internalType": "bytes32",
          "name": "",
          "type": "bytes32"
        }
      ],
      "stateMutability": "view",
      "type": "function"
    },
    {
      "inputs": [
        {
          "internalType": "bytes32",
          "name": "role",
          "type": "bytes32"
        },
        {
          "internalType": "uint256",
          "name": "index",
          "type": "uint256"
        }
      ],
      "name": "getRoleMember",
      "outputs": [
        {
          "internalType": "address",
          "name": "",
          "type": "address"
        }
      ],
      "stateMutability": "view",
      "type": "function"
    },
    {
      "inputs": [
        {
          "internalType": "bytes32",
          "name": "role",
          "type": "bytes32"
        }
      ],
      "name": "getRoleMemberCount",
      "outputs": [
        {
          "internalType": "uint256",
          "name": "",
          "type": "uint256"
        }
      ],
      "stateMutability": "view",
      "type": "function"
    },
    {
      "inputs": [
        {
          "internalType": "bytes32",
          "name": "role",
          "type": "bytes32"
        },
        {
          "internalType": "address",
          "name": "account",
          "type": "address"
        }
      ],
      "name": "grantRole",
      "outputs": [],
      "stateMutability": "nonpayable",
      "type": "function"
    },
    {
      "inputs": [
        {
          "internalType": "bytes32",
          "name": "role",
          "type": "bytes32"
        },
        {
          "internalType": "address",
          "name": "account",
          "type": "address"
        }
      ],
      "name": "hasRole",
      "outputs": [
        {
          "internalType": "bool",
          "name": "",
          "type": "bool"
        }
      ],
      "stateMutability": "view",
      "type": "function"
    },
    {
      "inputs": [
        {
          "internalType": "address",
          "name": "owner",
          "type": "address"
        },
        {
          "internalType": "address",
          "name": "operator",
          "type": "address"
        }
      ],
      "name": "isApprovedForAll",
      "outputs": [
        {
          "internalType": "bool",
          "name": "isOperator",
          "type": "bool"
        }
      ],
      "stateMutability": "view",
      "type": "function"
    },
    {
      "inputs": [
        {
          "internalType": "address",
          "name": "",
          "type": "address"
        }
      ],
      "name": "isWhitelistedMarket",
      "outputs": [
        {
          "internalType": "bool",
          "name": "",
          "type": "bool"
        }
      ],
      "stateMutability": "view",
      "type": "function"
    },
    {
      "inputs": [
        {
          "internalType": "address",
          "name": "to",
          "type": "address"
        }
      ],
      "name": "mint",
      "outputs": [
        {
          "internalType": "uint256",
          "name": "newItemId",
          "type": "uint256"
        }
      ],
      "stateMutability": "nonpayable",
      "type": "function"
    },
    {
      "inputs": [],
      "name": "name",
      "outputs": [
        {
          "internalType": "string",
          "name": "",
          "type": "string"
        }
      ],
      "stateMutability": "view",
      "type": "function"
    },
    {
      "inputs": [
        {
          "internalType": "uint256",
          "name": "tokenId",
          "type": "uint256"
        }
      ],
      "name": "ownerOf",
      "outputs": [
        {
          "internalType": "address",
          "name": "",
          "type": "address"
        }
      ],
      "stateMutability": "view",
      "type": "function"
    },
    {
      "inputs": [
        {
          "internalType": "bytes32",
          "name": "role",
          "type": "bytes32"
        },
        {
          "internalType": "address",
          "name": "account",
          "type": "address"
        }
      ],
      "name": "renounceRole",
      "outputs": [],
      "stateMutability": "nonpayable",
      "type": "function"
    },
    {
      "inputs": [
        {
          "internalType": "bytes32",
          "name": "role",
          "type": "bytes32"
        },
        {
          "internalType": "address",
          "name": "account",
          "type": "address"
        }
      ],
      "name": "revokeRole",
      "outputs": [],
      "stateMutability": "nonpayable",
      "type": "function"
    },
    {
      "inputs": [],
      "name": "royalty",
      "outputs": [
        {
          "internalType": "uint96",
          "name": "",
          "type": "uint96"
        }
      ],
      "stateMutability": "view",
      "type": "function"
    },
    {
      "inputs": [
        {
          "internalType": "uint256",
          "name": "price",
          "type": "uint256"
        }
      ],
      "name": "royaltyInfo",
      "outputs": [
        {
          "internalType": "address",
          "name": "",
          "type": "address"
        },
        {
          "internalType": "uint256",
          "name": "",
          "type": "uint256"
        }
      ],
      "stateMutability": "view",
      "type": "function"
    },
    {
      "inputs": [
        {
          "internalType": "address",
          "name": "from",
          "type": "address"
        },
        {
          "internalType": "address",
          "name": "to",
          "type": "address"
        },
        {
          "internalType": "uint256",
          "name": "tokenId",
          "type": "uint256"
        }
      ],
      "name": "safeTransferFrom",
      "outputs": [],
      "stateMutability": "nonpayable",
      "type": "function"
    },
    {
      "inputs": [
        {
          "internalType": "address",
          "name": "from",
          "type": "address"
        },
        {
          "internalType": "address",
          "name": "to",
          "type": "address"
        },
        {
          "internalType": "uint256",
          "name": "tokenId",
          "type": "uint256"
        },
        {
          "internalType": "bytes",
          "name": "data",
          "type": "bytes"
        }
      ],
      "name": "safeTransferFrom",
      "outputs": [],
      "stateMutability": "nonpayable",
      "type": "function"
    },
    {
      "inputs": [
        {
          "internalType": "address",
          "name": "operator",
          "type": "address"
        },
        {
          "internalType": "bool",
          "name": "approved",
          "type": "bool"
        }
      ],
      "name": "setApprovalForAll",
      "outputs": [],
      "stateMutability": "nonpayable",
      "type": "function"
    },
    {
      "inputs": [
        {
          "internalType": "uint256",
          "name": "_tokenId",
          "type": "uint256"
        },
        {
          "internalType": "string",
          "name": "_newURI",
          "type": "string"
        }
      ],
      "name": "setCustomURI",
      "outputs": [],
      "stateMutability": "nonpayable",
      "type": "function"
    },
    {
      "inputs": [
        {
          "internalType": "address",
          "name": "market",
          "type": "address"
        },
        {
          "internalType": "bool",
          "name": "isMarket",
          "type": "bool"
        }
      ],
      "name": "setMarket",
      "outputs": [],
      "stateMutability": "nonpayable",
      "type": "function"
    },
    {
      "inputs": [
        {
          "internalType": "address payable",
          "name": "_receiver",
          "type": "address"
        }
      ],
      "name": "setRoyaltyInfo",
      "outputs": [],
      "stateMutability": "nonpayable",
      "type": "function"
    },
    {
      "inputs": [
        {
          "internalType": "bytes4",
          "name": "interfaceId",
          "type": "bytes4"
        }
      ],
      "name": "supportsInterface",
      "outputs": [
        {
          "internalType": "bool",
          "name": "itSupports",
          "type": "bool"
        }
      ],
      "stateMutability": "view",
      "type": "function"
    },
    {
      "inputs": [],
      "name": "symbol",
      "outputs": [
        {
          "internalType": "string",
          "name": "",
          "type": "string"
        }
      ],
      "stateMutability": "view",
      "type": "function"
    },
    {
      "inputs": [
        {
          "internalType": "uint256",
          "name": "index",
          "type": "uint256"
        }
      ],
      "name": "tokenByIndex",
      "outputs": [
        {
          "internalType": "uint256",
          "name": "",
          "type": "uint256"
        }
      ],
      "stateMutability": "view",
      "type": "function"
    },
    {
      "inputs": [
        {
          "internalType": "address",
          "name": "owner",
          "type": "address"
        },
        {
          "internalType": "uint256",
          "name": "index",
          "type": "uint256"
        }
      ],
      "name": "tokenOfOwnerByIndex",
      "outputs": [
        {
          "internalType": "uint256",
          "name": "",
          "type": "uint256"
        }
      ],
      "stateMutability": "view",
      "type": "function"
    },
    {
      "inputs": [
        {
          "internalType": "uint256",
          "name": "tokenId",
          "type": "uint256"
        }
      ],
      "name": "tokenURI",
      "outputs": [
        {
          "internalType": "string",
          "name": "URI",
          "type": "string"
        }
      ],
      "stateMutability": "view",
      "type": "function"
    },
    {
      "inputs": [],
      "name": "totalSupply",
      "outputs": [
        {
          "internalType": "uint256",
          "name": "",
          "type": "uint256"
        }
      ],
      "stateMutability": "view",
      "type": "function"
    },
    {
      "inputs": [
        {
          "internalType": "address",
          "name": "from",
          "type": "address"
        },
        {
          "internalType": "address",
          "name": "to",
          "type": "address"
        },
        {
          "internalType": "uint256",
          "name": "tokenId",
          "type": "uint256"
        }
      ],
      "name": "transferFrom",
      "outputs": [],
      "stateMutability": "nonpayable",
      "type": "function"
    }
  ],
  "bytecode": "0x60a06040523480156200001157600080fd5b5060405162002ba938038062002ba98339810160408190526200003491620003ca565b8451859085906200004d9060029060208501906200026d565b508051620000639060039060208401906200026d565b5050506001600160a01b038216620000b35760405162461bcd60e51b815260206004820152600f60248201526e496e76616c6964206164647265737360881b604482015260640160405180910390fd5b8251620000c890600f9060208601906200026d565b50600e80546001600160a01b03199081166001600160a01b0385161790915560a082901b16608052620000fd60003362000108565b5050505050620004f3565b62000114828262000118565b5050565b6200012f82826200015b60201b62000ce01760201c565b60008281526001602090815260409091206200015691839062000d64620001fb821b17901c565b505050565b6000828152602081815260408083206001600160a01b038516845290915290205460ff1662000114576000828152602081815260408083206001600160a01b03851684529091529020805460ff19166001179055620001b73390565b6001600160a01b0316816001600160a01b0316837f2f8788117e7eff1d82e926ec794901d17c78024a50270940304540a733656f0d60405160405180910390a45050565b600062000212836001600160a01b0384166200021b565b90505b92915050565b6000818152600183016020526040812054620002645750815460018181018455600084815260208082209093018490558454848252828601909352604090209190915562000215565b50600062000215565b8280546200027b90620004a0565b90600052602060002090601f0160209004810192826200029f5760008555620002ea565b82601f10620002ba57805160ff1916838001178555620002ea565b82800160010185558215620002ea579182015b82811115620002ea578251825591602001919060010190620002cd565b50620002f8929150620002fc565b5090565b5b80821115620002f85760008155600101620002fd565b600082601f8301126200032557600080fd5b81516001600160401b0380821115620003425762000342620004dd565b604051601f8301601f19908116603f011681019082821181831017156200036d576200036d620004dd565b816040528381526020925086838588010111156200038a57600080fd5b600091505b83821015620003ae57858201830151818301840152908201906200038f565b83821115620003c05760008385830101525b9695505050505050565b600080600080600060a08688031215620003e357600080fd5b85516001600160401b0380821115620003fb57600080fd5b6200040989838a0162000313565b965060208801519150808211156200042057600080fd5b6200042e89838a0162000313565b955060408801519150808211156200044557600080fd5b50620004548882890162000313565b606088015190945090506001600160a01b03811681146200047457600080fd5b60808701519092506001600160601b03811681146200049257600080fd5b809150509295509295909350565b600181811c90821680620004b557607f821691505b60208210811415620004d757634e487b7160e01b600052602260045260246000fd5b50919050565b634e487b7160e01b600052604160045260246000fd5b60805160a01c61269062000519600039600081816102680152610b2401526126906000f3fe608060405234801561001057600080fd5b50600436106101965760003560e01c806301ffc9a71461019b57806306fdde03146101c3578063081812fc146101d8578063095ea7b31461020357806315bcf9b71461021857806318160ddd1461022b57806323b872dd1461023d578063248a9ca31461025057806329ee566c146102635780632f2ff15d146102a25780632f745c59146102b557806336568abe146102c85780633adf80b4146102db57806342842e0e146102ee57806342966c68146103015780634f6ccce7146103145780636352211e146103275780636a6278421461033a5780636c0360eb1461034d57806370a08231146103555780639010d07c1461036857806391d148541461037b57806395d89b411461038e578063a217fddf14610396578063a22cb4651461039e578063a2e69613146103b1578063ac881080146103c4578063b88d4fde146103d7578063c87b56dd146103ea578063ca15c873146103fd578063cef6d36814610410578063d547741f14610442578063e80bc6e114610455578063e985e9c514610478575b600080fd5b6101ae6101a936600461223b565b61048b565b60405190151581526020015b60405180910390f35b6101cb6104d1565b6040516101ba91906123d6565b6101eb6101e63660046121db565b610563565b6040516001600160a01b0390911681526020016101ba565b6102166102113660046121af565b61058a565b005b61021661022636600461217c565b6106a5565b600b545b6040519081526020016101ba565b61021661024b3660046120bc565b610753565b61022f61025e3660046121db565b610785565b61028a7f000000000000000000000000000000000000000000000000000000000000000081565b6040516001600160601b0390911681526020016101ba565b6102166102b03660046121f4565b61079a565b61022f6102c33660046121af565b6107b6565b6102166102d63660046121f4565b61084c565b6102166102e9366004612275565b6108ca565b6102166102fc3660046120bc565b6108dc565b61021661030f3660046121db565b6108f7565b61022f6103223660046121db565b610928565b6101eb6103353660046121db565b6109bb565b61022f610348366004612066565b6109f0565b6101cb610a1b565b61022f610363366004612066565b610a2a565b6101eb610376366004612219565b610ab0565b6101ae6103893660046121f4565b610acf565b6101cb610af8565b61022f600081565b6102166103ac36600461217c565b610b07565b61022f6103bf3660046121db565b610b12565b6102166103d2366004612066565b610b54565b6102166103e53660046120fd565b610bf0565b6101cb6103f83660046121db565b610c28565b61022f61040b3660046121db565b610c33565b61042361041e3660046121db565b610c4a565b604080516001600160a01b0390931683526020830191909152016101ba565b6102166104503660046121f4565b610c6d565b6101ae610463366004612066565b60106020526000908152604090205460ff1681565b6101ae610486366004612083565b610c89565b60006319deda6d60e31b6001600160e01b0319831614806104bc575063152a902d60e11b6001600160e01b03198316145b806104cb57506104cb82610d79565b92915050565b6060600280546104e090612560565b80601f016020809104026020016040519081016040528092919081815260200182805461050c90612560565b80156105595780601f1061052e57610100808354040283529160200191610559565b820191906000526020600020905b81548152906001019060200180831161053c57829003601f168201915b5050505050905090565b600061056e82610d9e565b506000908152600660205260409020546001600160a01b031690565b6000610595826109bb565b9050806001600160a01b0316836001600160a01b031614156106085760405162461bcd60e51b815260206004820152602160248201527f4552433732313a20617070726f76616c20746f2063757272656e74206f776e656044820152603960f91b60648201526084015b60405180910390fd5b336001600160a01b038216148061062457506106248133610c89565b6106965760405162461bcd60e51b815260206004820152603e60248201527f4552433732313a20617070726f76652063616c6c6572206973206e6f7420746f60448201527f6b656e206f776e6572206e6f7220617070726f76656420666f7220616c6c000060648201526084016105ff565b6106a08383610dc3565b505050565b6106ad610e31565b6001600160a01b0382166106f25760405162461bcd60e51b815260206004820152600c60248201526b5a45524f5f4144445245535360a01b60448201526064016105ff565b6001600160a01b038216600081815260106020908152604091829020805460ff1916851515908117909155915191825233917f9e2bd848ed96e551d65a5248c15480b97b14b10a342c4194fe315d1e8a24fe84910160405180910390a35050565b61075e335b82610e80565b61077a5760405162461bcd60e51b81526004016105ff9061246d565b6106a0838383610edf565b60009081526020819052604090206001015490565b6107a382610785565b6107ac81611074565b6106a0838361107e565b60006107c183610a2a565b82106108235760405162461bcd60e51b815260206004820152602b60248201527f455243373231456e756d657261626c653a206f776e657220696e646578206f7560448201526a74206f6620626f756e647360a81b60648201526084016105ff565b506001600160a01b03919091166000908152600960209081526040808320938352929052205490565b6001600160a01b03811633146108bc5760405162461bcd60e51b815260206004820152602f60248201527f416363657373436f6e74726f6c3a2063616e206f6e6c792072656e6f756e636560448201526e103937b632b9903337b91039b2b63360891b60648201526084016105ff565b6108c682826110a0565b5050565b6108d2610e31565b6108c682826110c2565b6106a083838360405180602001604052806000815250610bf0565b61090033610758565b61091c5760405162461bcd60e51b81526004016105ff9061246d565b6109258161114d565b50565b6000610933600b5490565b82106109965760405162461bcd60e51b815260206004820152602c60248201527f455243373231456e756d657261626c653a20676c6f62616c20696e646578206f60448201526b7574206f6620626f756e647360a01b60648201526084016105ff565b600b82815481106109a9576109a961260c565b90600052602060002001549050919050565b6000818152600460205260408120546001600160a01b0316806104cb5760405162461bcd60e51b81526004016105ff9061243b565b60006109fa610e31565b610a08600d80546001019055565b50600d54610a168282611156565b919050565b6060610a25611170565b905090565b60006001600160a01b038216610a945760405162461bcd60e51b815260206004820152602960248201527f4552433732313a2061646472657373207a65726f206973206e6f7420612076616044820152683634b21037bbb732b960b91b60648201526084016105ff565b506001600160a01b031660009081526005602052604090205490565b6000828152600160205260408120610ac8908361117f565b9392505050565b6000918252602082815260408084206001600160a01b0393909316845291905290205460ff1690565b6060600380546104e090612560565b6108c633838361118b565b6000612710610b4a6001600160601b037f000000000000000000000000000000000000000000000000000000000000000016846124e7565b6104cb91906124d3565b610b5c610e31565b6001600160a01b038116610ba45760405162461bcd60e51b815260206004820152600f60248201526e494e56414c49445f4144445245535360881b60448201526064016105ff565b600e80546001600160a01b0319166001600160a01b03831690811790915560405133907fef8f0d5f16a5283d66ae7e12801103421d077cfa56a9afe9c2b066459e3a231690600090a350565b610bfa3383610e80565b610c165760405162461bcd60e51b81526004016105ff9061246d565b610c2284848484611256565b50505050565b60606104cb82611289565b60008181526001602052604081206104cb90611385565b600e5460009081906001600160a01b0316610c6484610b12565b91509150915091565b610c7682610785565b610c7f81611074565b6106a083836110a0565b6001600160a01b03811660009081526010602052604081205460ff1615610cb2575060016104cb565b6001600160a01b0380841660009081526007602090815260408083209386168352929052205460ff16610ac8565b610cea8282610acf565b6108c6576000828152602081815260408083206001600160a01b03851684529091529020805460ff19166001179055610d203390565b6001600160a01b0316816001600160a01b0316837f2f8788117e7eff1d82e926ec794901d17c78024a50270940304540a733656f0d60405160405180910390a45050565b6000610ac8836001600160a01b03841661138f565b60006001600160e01b0319821663780e9d6360e01b14806104cb57506104cb826113de565b610da78161141e565b6109255760405162461bcd60e51b81526004016105ff9061243b565b600081815260066020526040902080546001600160a01b0319166001600160a01b0384169081179091558190610df8826109bb565b6001600160a01b03167f8c5be1e5ebec7d5bd14f71427d1e84f3dd0314c0f7b2291e5b200ac8c7c3b92560405160405180910390a45050565b610e3c600033610acf565b610e7e5760405162461bcd60e51b81526020600482015260136024820152722aa720aaaa2427a924ad22a22fa1a0a62622a960691b60448201526064016105ff565b565b600080610e8c836109bb565b9050806001600160a01b0316846001600160a01b03161480610eb35750610eb38185610c89565b80610ed75750836001600160a01b0316610ecc84610563565b6001600160a01b0316145b949350505050565b826001600160a01b0316610ef2826109bb565b6001600160a01b031614610f565760405162461bcd60e51b815260206004820152602560248201527f4552433732313a207472616e736665722066726f6d20696e636f72726563742060448201526437bbb732b960d91b60648201526084016105ff565b6001600160a01b038216610fb85760405162461bcd60e51b8152602060048201526024808201527f4552433732313a207472616e7366657220746f20746865207a65726f206164646044820152637265737360e01b60648201526084016105ff565b610fc383838361143b565b610fce600082610dc3565b6001600160a01b0383166000908152600560205260408120805460019290610ff7908490612506565b90915550506001600160a01b03821660009081526005602052604081208054600192906110259084906124bb565b909155505060008181526004602052604080822080546001600160a01b0319166001600160a01b03868116918217909255915184939187169160008051602061266483398151915291a4505050565b6109258133611446565b6110888282610ce0565b60008281526001602052604090206106a09082610d64565b6110aa82826114aa565b60008281526001602052604090206106a0908261150f565b6110cb8261141e565b61112e5760405162461bcd60e51b815260206004820152602e60248201527f45524337323155524953746f726167653a2055524920736574206f66206e6f6e60448201526d32bc34b9ba32b73a103a37b5b2b760911b60648201526084016105ff565b600082815260086020908152604090912082516106a092840190611f22565b61092581611524565b6108c6828260405180602001604052806000815250611564565b6060600f80546104e090612560565b6000610ac88383611597565b816001600160a01b0316836001600160a01b031614156111e95760405162461bcd60e51b815260206004820152601960248201527822a9219b99189d1030b8383937bb32903a379031b0b63632b960391b60448201526064016105ff565b6001600160a01b03838116600081815260076020908152604080832094871680845294825291829020805460ff191686151590811790915591519182527f17307eab39ab6107e8899845ad3d59bd9653f200f220920489ca2b5937696c31910160405180910390a3505050565b611261848484610edf565b61126d848484846115c1565b610c225760405162461bcd60e51b81526004016105ff906123e9565b606061129482610d9e565b600082815260086020526040812080546112ad90612560565b80601f01602080910402602001604051908101604052809291908181526020018280546112d990612560565b80156113265780601f106112fb57610100808354040283529160200191611326565b820191906000526020600020905b81548152906001019060200180831161130957829003601f168201915b505050505090506000611337611170565b905080516000141561134a575092915050565b81511561137c5780826040516020016113649291906122fb565b60405160208183030381529060405292505050919050565b610ed7846116ce565b60006104cb825490565b60008181526001830160205260408120546113d6575081546001818101845560008481526020808220909301849055845484825282860190935260409020919091556104cb565b5060006104cb565b60006001600160e01b031982166380ac58cd60e01b148061140f57506001600160e01b03198216635b5e139f60e01b145b806104cb57506104cb82611734565b6000908152600460205260409020546001600160a01b0316151590565b6106a0838383611759565b6114508282610acf565b6108c657611468816001600160a01b03166014611811565b611473836020611811565b60405160200161148492919061232a565b60408051601f198184030181529082905262461bcd60e51b82526105ff916004016123d6565b6114b48282610acf565b156108c6576000828152602081815260408083206001600160a01b0385168085529252808320805460ff1916905551339285917ff6391f5c32d9c69d2a47ea670b442974b53935d1edc7fd64eb21e047a839171b9190a45050565b6000610ac8836001600160a01b0384166119ac565b61152d81611a9f565b6000818152600860205260409020805461154690612560565b15905061092557600081815260086020526040812061092591611fa6565b61156e8383611b34565b61157b60008484846115c1565b6106a05760405162461bcd60e51b81526004016105ff906123e9565b60008260000182815481106115ae576115ae61260c565b9060005260206000200154905092915050565b60006001600160a01b0384163b156116c357604051630a85bd0160e11b81526001600160a01b0385169063150b7a0290611605903390899088908890600401612399565b602060405180830381600087803b15801561161f57600080fd5b505af192505050801561164f575060408051601f3d908101601f1916820190925261164c91810190612258565b60015b6116a9573d80801561167d576040519150601f19603f3d011682016040523d82523d6000602084013e611682565b606091505b5080516116a15760405162461bcd60e51b81526004016105ff906123e9565b805181602001fd5b6001600160e01b031916630a85bd0160e11b149050610ed7565b506001949350505050565b60606116d982610d9e565b60006116e3611170565b905060008151116117035760405180602001604052806000815250610ac8565b8061170d84611c60565b60405160200161171e9291906122fb565b6040516020818303038152906040529392505050565b60006001600160e01b03198216635a05180f60e01b14806104cb57506104cb82611d5d565b6001600160a01b0383166117b4576117af81600b80546000838152600c60205260408120829055600182018355919091527f0175b7a638427703f0dbe7bb9bbf987a2551717b34e79f33b5b1008d1fa01db90155565b6117d7565b816001600160a01b0316836001600160a01b0316146117d7576117d78382611d92565b6001600160a01b0382166117ee576106a081611e2f565b826001600160a01b0316826001600160a01b0316146106a0576106a08282611ede565b606060006118208360026124e7565b61182b9060026124bb565b6001600160401b0381111561184257611842612622565b6040519080825280601f01601f19166020018201604052801561186c576020820181803683370190505b509050600360fc1b816000815181106118875761188761260c565b60200101906001600160f81b031916908160001a905350600f60fb1b816001815181106118b6576118b661260c565b60200101906001600160f81b031916908160001a90535060006118da8460026124e7565b6118e59060016124bb565b90505b600181111561195d576f181899199a1a9b1b9c1cb0b131b232b360811b85600f16601081106119195761191961260c565b1a60f81b82828151811061192f5761192f61260c565b60200101906001600160f81b031916908160001a90535060049490941c9361195681612549565b90506118e8565b508315610ac85760405162461bcd60e51b815260206004820181905260248201527f537472696e67733a20686578206c656e67746820696e73756666696369656e7460448201526064016105ff565b60008181526001830160205260408120548015611a955760006119d0600183612506565b85549091506000906119e490600190612506565b9050818114611a49576000866000018281548110611a0457611a0461260c565b9060005260206000200154905080876000018481548110611a2757611a2761260c565b6000918252602080832090910192909255918252600188019052604090208390555b8554869080611a5a57611a5a6125f6565b6001900381819060005260206000200160009055905585600101600086815260200190815260200160002060009055600193505050506104cb565b60009150506104cb565b6000611aaa826109bb565b9050611ab88160008461143b565b611ac3600083610dc3565b6001600160a01b0381166000908152600560205260408120805460019290611aec908490612506565b909155505060008281526004602052604080822080546001600160a01b0319169055518391906001600160a01b03841690600080516020612664833981519152908390a45050565b6001600160a01b038216611b8a5760405162461bcd60e51b815260206004820181905260248201527f4552433732313a206d696e7420746f20746865207a65726f206164647265737360448201526064016105ff565b611b938161141e565b15611bdf5760405162461bcd60e51b815260206004820152601c60248201527b115490cdcc8c4e881d1bdad95b88185b1c9958591e481b5a5b9d195960221b60448201526064016105ff565b611beb6000838361143b565b6001600160a01b0382166000908152600560205260408120805460019290611c149084906124bb565b909155505060008181526004602052604080822080546001600160a01b0319166001600160a01b0386169081179091559051839290600080516020612664833981519152908290a45050565b606081611c845750506040805180820190915260018152600360fc1b602082015290565b8160005b8115611cae5780611c988161259b565b9150611ca79050600a836124d3565b9150611c88565b6000816001600160401b03811115611cc857611cc8612622565b6040519080825280601f01601f191660200182016040528015611cf2576020820181803683370190505b5090505b8415610ed757611d07600183612506565b9150611d14600a866125b6565b611d1f9060306124bb565b60f81b818381518110611d3457611d3461260c565b60200101906001600160f81b031916908160001a905350611d56600a866124d3565b9450611cf6565b60006001600160e01b03198216637965db0b60e01b14806104cb57506301ffc9a760e01b6001600160e01b03198316146104cb565b60006001611d9f84610a2a565b611da99190612506565b6000838152600a6020526040902054909150808214611dfc576001600160a01b03841660009081526009602090815260408083208584528252808320548484528184208190558352600a90915290208190555b506000918252600a602090815260408084208490556001600160a01b039094168352600981528383209183525290812055565b600b54600090611e4190600190612506565b6000838152600c6020526040812054600b8054939450909284908110611e6957611e6961260c565b9060005260206000200154905080600b8381548110611e8a57611e8a61260c565b6000918252602080832090910192909255828152600c9091526040808220849055858252812055600b805480611ec257611ec26125f6565b6001900381819060005260206000200160009055905550505050565b6000611ee983610a2a565b6001600160a01b0390931660009081526009602090815260408083208684528252808320859055938252600a9052919091209190915550565b828054611f2e90612560565b90600052602060002090601f016020900481019282611f505760008555611f96565b82601f10611f6957805160ff1916838001178555611f96565b82800160010185558215611f96579182015b82811115611f96578251825591602001919060010190611f7b565b50611fa2929150611fdc565b5090565b508054611fb290612560565b6000825580601f10611fc2575050565b601f01602090049060005260206000209081019061092591905b5b80821115611fa25760008155600101611fdd565b60006001600160401b038084111561200b5761200b612622565b604051601f8501601f19908116603f0116810190828211818310171561203357612033612622565b8160405280935085815286868601111561204c57600080fd5b858560208301376000602087830101525050509392505050565b60006020828403121561207857600080fd5b8135610ac881612638565b6000806040838503121561209657600080fd5b82356120a181612638565b915060208301356120b181612638565b809150509250929050565b6000806000606084860312156120d157600080fd5b83356120dc81612638565b925060208401356120ec81612638565b929592945050506040919091013590565b6000806000806080858703121561211357600080fd5b843561211e81612638565b9350602085013561212e81612638565b92506040850135915060608501356001600160401b0381111561215057600080fd5b8501601f8101871361216157600080fd5b61217087823560208401611ff1565b91505092959194509250565b6000806040838503121561218f57600080fd5b823561219a81612638565b9150602083013580151581146120b157600080fd5b600080604083850312156121c257600080fd5b82356121cd81612638565b946020939093013593505050565b6000602082840312156121ed57600080fd5b5035919050565b6000806040838503121561220757600080fd5b8235915060208301356120b181612638565b6000806040838503121561222c57600080fd5b50508035926020909101359150565b60006020828403121561224d57600080fd5b8135610ac88161264d565b60006020828403121561226a57600080fd5b8151610ac88161264d565b6000806040838503121561228857600080fd5b8235915060208301356001600160401b038111156122a557600080fd5b8301601f810185136122b657600080fd5b6122c585823560208401611ff1565b9150509250929050565b600081518084526122e781602086016020860161251d565b601f01601f19169290920160200192915050565b6000835161230d81846020880161251d565b83519083019061232181836020880161251d565b01949350505050565b76020b1b1b2b9b9a1b7b73a3937b61d1030b1b1b7bab73a1604d1b81526000835161235c81601785016020880161251d565b7001034b99036b4b9b9b4b733903937b6329607d1b601791840191820152835161238d81602884016020880161251d565b01602801949350505050565b6001600160a01b03858116825284166020820152604081018390526080606082018190526000906123cc908301846122cf565b9695505050505050565b602081526000610ac860208301846122cf565b60208082526032908201527f4552433732313a207472616e7366657220746f206e6f6e20455243373231526560408201527131b2b4bb32b91034b6b83632b6b2b73a32b960711b606082015260800190565b602080825260189082015277115490cdcc8c4e881a5b9d985b1a59081d1bdad95b88125160421b604082015260600190565b6020808252602e908201527f4552433732313a2063616c6c6572206973206e6f7420746f6b656e206f776e6560408201526d1c881b9bdc88185c1c1c9bdd995960921b606082015260800190565b600082198211156124ce576124ce6125ca565b500190565b6000826124e2576124e26125e0565b500490565b6000816000190483118215151615612501576125016125ca565b500290565b600082821015612518576125186125ca565b500390565b60005b83811015612538578181015183820152602001612520565b83811115610c225750506000910152565b600081612558576125586125ca565b506000190190565b600181811c9082168061257457607f821691505b6020821081141561259557634e487b7160e01b600052602260045260246000fd5b50919050565b60006000198214156125af576125af6125ca565b5060010190565b6000826125c5576125c56125e0565b500690565b634e487b7160e01b600052601160045260246000fd5b634e487b7160e01b600052601260045260246000fd5b634e487b7160e01b600052603160045260246000fd5b634e487b7160e01b600052603260045260246000fd5b634e487b7160e01b600052604160045260246000fd5b6001600160a01b038116811461092557600080fd5b6001600160e01b03198116811461092557600080fdfeddf252ad1be2c89b69c2b068fc378daa952ba7f163c4a11628f55a4df523b3efa164736f6c6343000806000a",
  "linkReferences": {},
  "deployedLinkReferences": {}
}