{
  "_format": "hh-sol-artifact-1",
  "contractName": "RC3_721",
  "sourceName": "contracts/RC3_721.sol",
  "abi": [
    {
      "inputs": [
        {
          "internalType": "string",
          "name": "_name",
          "type": "string"
        },
        {
          "internalType": "string",
          "name": "_symbol",
          "type": "string"
        },
        {
          "internalType": "string",
          "name": "uri",
          "type": "string"
        },
        {
          "internalType": "address payable",
          "name": "_feeTaker",
          "type": "address"
        },
        {
          "internalType": "uint96",
          "name": "_royalty",
          "type": "uint96"
        }
      ],
      "stateMutability": "nonpayable",
      "type": "constructor"
    },
    {
      "anonymous": false,
      "inputs": [
        {
          "indexed": true,
          "internalType": "address",
          "name": "owner",
          "type": "address"
        },
        {
          "indexed": true,
          "internalType": "address",
          "name": "approved",
          "type": "address"
        },
        {
          "indexed": true,
          "internalType": "uint256",
          "name": "tokenId",
          "type": "uint256"
        }
      ],
      "name": "Approval",
      "type": "event"
    },
    {
      "anonymous": false,
      "inputs": [
        {
          "indexed": true,
          "internalType": "address",
          "name": "owner",
          "type": "address"
        },
        {
          "indexed": true,
          "internalType": "address",
          "name": "operator",
          "type": "address"
        },
        {
          "indexed": false,
          "internalType": "bool",
          "name": "approved",
          "type": "bool"
        }
      ],
      "name": "ApprovalForAll",
      "type": "event"
    },
    {
      "anonymous": false,
      "inputs": [
        {
          "indexed": true,
          "internalType": "address",
          "name": "admin",
          "type": "address"
        },
        {
          "indexed": true,
          "internalType": "address",
          "name": "market",
          "type": "address"
        },
        {
          "indexed": false,
          "internalType": "bool",
          "name": "ismarket",
          "type": "bool"
        }
      ],
      "name": "MarketUpdated",
      "type": "event"
    },
    {
      "anonymous": false,
      "inputs": [
        {
          "indexed": true,
          "internalType": "bytes32",
          "name": "role",
          "type": "bytes32"
        },
        {
          "indexed": true,
          "internalType": "bytes32",
          "name": "previousAdminRole",
          "type": "bytes32"
        },
        {
          "indexed": true,
          "internalType": "bytes32",
          "name": "newAdminRole",
          "type": "bytes32"
        }
      ],
      "name": "RoleAdminChanged",
      "type": "event"
    },
    {
      "anonymous": false,
      "inputs": [
        {
          "indexed": true,
          "internalType": "bytes32",
          "name": "role",
          "type": "bytes32"
        },
        {
          "indexed": true,
          "internalType": "address",
          "name": "account",
          "type": "address"
        },
        {
          "indexed": true,
          "internalType": "address",
          "name": "sender",
          "type": "address"
        }
      ],
      "name": "RoleGranted",
      "type": "event"
    },
    {
      "anonymous": false,
      "inputs": [
        {
          "indexed": true,
          "internalType": "bytes32",
          "name": "role",
          "type": "bytes32"
        },
        {
          "indexed": true,
          "internalType": "address",
          "name": "account",
          "type": "address"
        },
        {
          "indexed": true,
          "internalType": "address",
          "name": "sender",
          "type": "address"
        }
      ],
      "name": "RoleRevoked",
      "type": "event"
    },
    {
      "anonymous": false,
      "inputs": [
        {
          "indexed": true,
          "internalType": "address",
          "name": "caller",
          "type": "address"
        },
        {
          "indexed": true,
          "internalType": "address",
          "name": "receiver",
          "type": "address"
        }
      ],
      "name": "RoyaltyInfoUpdated",
      "type": "event"
    },
    {
      "anonymous": false,
      "inputs": [
        {
          "indexed": true,
          "internalType": "address",
          "name": "from",
          "type": "address"
        },
        {
          "indexed": true,
          "internalType": "address",
          "name": "to",
          "type": "address"
        },
        {
          "indexed": true,
          "internalType": "uint256",
          "name": "tokenId",
          "type": "uint256"
        }
      ],
      "name": "Transfer",
      "type": "event"
    },
    {
      "inputs": [],
      "name": "DEFAULT_ADMIN_ROLE",
      "outputs": [
        {
          "internalType": "bytes32",
          "name": "",
          "type": "bytes32"
        }
      ],
      "stateMutability": "view",
      "type": "function"
    },
    {
      "inputs": [
        {
          "internalType": "address",
          "name": "to",
          "type": "address"
        },
        {
          "internalType": "uint256",
          "name": "tokenId",
          "type": "uint256"
        }
      ],
      "name": "approve",
      "outputs": [],
      "stateMutability": "nonpayable",
      "type": "function"
    },
    {
      "inputs": [
        {
          "internalType": "address",
          "name": "owner",
          "type": "address"
        }
      ],
      "name": "balanceOf",
      "outputs": [
        {
          "internalType": "uint256",
          "name": "",
          "type": "uint256"
        }
      ],
      "stateMutability": "view",
      "type": "function"
    },
    {
      "inputs": [],
      "name": "baseURI",
      "outputs": [
        {
          "internalType": "string",
          "name": "",
          "type": "string"
        }
      ],
      "stateMutability": "view",
      "type": "function"
    },
    {
      "inputs": [
        {
          "internalType": "uint256",
          "name": "tokenId",
          "type": "uint256"
        }
      ],
      "name": "burn",
      "outputs": [],
      "stateMutability": "nonpayable",
      "type": "function"
    },
    {
      "inputs": [
        {
          "internalType": "uint256",
          "name": "price",
          "type": "uint256"
        }
      ],
      "name": "calculateRoyalty",
      "outputs": [
        {
          "internalType": "uint256",
          "name": "",
          "type": "uint256"
        }
      ],
      "stateMutability": "view",
      "type": "function"
    },
    {
      "inputs": [
        {
          "internalType": "uint256",
          "name": "tokenId",
          "type": "uint256"
        }
      ],
      "name": "getApproved",
      "outputs": [
        {
          "internalType": "address",
          "name": "",
          "type": "address"
        }
      ],
      "stateMutability": "view",
      "type": "function"
    },
    {
      "inputs": [
        {
          "internalType": "bytes32",
          "name": "role",
          "type": "bytes32"
        }
      ],
      "name": "getRoleAdmin",
      "outputs": [
        {
          "internalType": "bytes32",
          "name": "",
          "type": "bytes32"
        }
      ],
      "stateMutability": "view",
      "type": "function"
    },
    {
      "inputs": [
        {
          "internalType": "bytes32",
          "name": "role",
          "type": "bytes32"
        },
        {
          "internalType": "uint256",
          "name": "index",
          "type": "uint256"
        }
      ],
      "name": "getRoleMember",
      "outputs": [
        {
          "internalType": "address",
          "name": "",
          "type": "address"
        }
      ],
      "stateMutability": "view",
      "type": "function"
    },
    {
      "inputs": [
        {
          "internalType": "bytes32",
          "name": "role",
          "type": "bytes32"
        }
      ],
      "name": "getRoleMemberCount",
      "outputs": [
        {
          "internalType": "uint256",
          "name": "",
          "type": "uint256"
        }
      ],
      "stateMutability": "view",
      "type": "function"
    },
    {
      "inputs": [
        {
          "internalType": "bytes32",
          "name": "role",
          "type": "bytes32"
        },
        {
          "internalType": "address",
          "name": "account",
          "type": "address"
        }
      ],
      "name": "grantRole",
      "outputs": [],
      "stateMutability": "nonpayable",
      "type": "function"
    },
    {
      "inputs": [
        {
          "internalType": "bytes32",
          "name": "role",
          "type": "bytes32"
        },
        {
          "internalType": "address",
          "name": "account",
          "type": "address"
        }
      ],
      "name": "hasRole",
      "outputs": [
        {
          "internalType": "bool",
          "name": "",
          "type": "bool"
        }
      ],
      "stateMutability": "view",
      "type": "function"
    },
    {
      "inputs": [
        {
          "internalType": "address",
          "name": "owner",
          "type": "address"
        },
        {
          "internalType": "address",
          "name": "operator",
          "type": "address"
        }
      ],
      "name": "isApprovedForAll",
      "outputs": [
        {
          "internalType": "bool",
          "name": "isOperator",
          "type": "bool"
        }
      ],
      "stateMutability": "view",
      "type": "function"
    },
    {
      "inputs": [
        {
          "internalType": "address",
          "name": "",
          "type": "address"
        }
      ],
      "name": "isWhitelistedMarket",
      "outputs": [
        {
          "internalType": "bool",
          "name": "",
          "type": "bool"
        }
      ],
      "stateMutability": "view",
      "type": "function"
    },
    {
      "inputs": [
        {
          "internalType": "address",
          "name": "to",
          "type": "address"
        }
      ],
      "name": "mint",
      "outputs": [
        {
          "internalType": "uint256",
          "name": "newItemId",
          "type": "uint256"
        }
      ],
      "stateMutability": "nonpayable",
      "type": "function"
    },
    {
      "inputs": [],
      "name": "name",
      "outputs": [
        {
          "internalType": "string",
          "name": "",
          "type": "string"
        }
      ],
      "stateMutability": "view",
      "type": "function"
    },
    {
      "inputs": [
        {
          "internalType": "uint256",
          "name": "tokenId",
          "type": "uint256"
        }
      ],
      "name": "ownerOf",
      "outputs": [
        {
          "internalType": "address",
          "name": "",
          "type": "address"
        }
      ],
      "stateMutability": "view",
      "type": "function"
    },
    {
      "inputs": [
        {
          "internalType": "bytes32",
          "name": "role",
          "type": "bytes32"
        },
        {
          "internalType": "address",
          "name": "account",
          "type": "address"
        }
      ],
      "name": "renounceRole",
      "outputs": [],
      "stateMutability": "nonpayable",
      "type": "function"
    },
    {
      "inputs": [
        {
          "internalType": "bytes32",
          "name": "role",
          "type": "bytes32"
        },
        {
          "internalType": "address",
          "name": "account",
          "type": "address"
        }
      ],
      "name": "revokeRole",
      "outputs": [],
      "stateMutability": "nonpayable",
      "type": "function"
    },
    {
      "inputs": [],
      "name": "royalty",
      "outputs": [
        {
          "internalType": "uint96",
          "name": "",
          "type": "uint96"
        }
      ],
      "stateMutability": "view",
      "type": "function"
    },
    {
      "inputs": [
        {
          "internalType": "uint256",
          "name": "price",
          "type": "uint256"
        }
      ],
      "name": "royaltyInfo",
      "outputs": [
        {
          "internalType": "address",
          "name": "",
          "type": "address"
        },
        {
          "internalType": "uint256",
          "name": "",
          "type": "uint256"
        }
      ],
      "stateMutability": "view",
      "type": "function"
    },
    {
      "inputs": [
        {
          "internalType": "address",
          "name": "from",
          "type": "address"
        },
        {
          "internalType": "address",
          "name": "to",
          "type": "address"
        },
        {
          "internalType": "uint256",
          "name": "tokenId",
          "type": "uint256"
        }
      ],
      "name": "safeTransferFrom",
      "outputs": [],
      "stateMutability": "nonpayable",
      "type": "function"
    },
    {
      "inputs": [
        {
          "internalType": "address",
          "name": "from",
          "type": "address"
        },
        {
          "internalType": "address",
          "name": "to",
          "type": "address"
        },
        {
          "internalType": "uint256",
          "name": "tokenId",
          "type": "uint256"
        },
        {
          "internalType": "bytes",
          "name": "_data",
          "type": "bytes"
        }
      ],
      "name": "safeTransferFrom",
      "outputs": [],
      "stateMutability": "nonpayable",
      "type": "function"
    },
    {
      "inputs": [
        {
          "internalType": "address",
          "name": "operator",
          "type": "address"
        },
        {
          "internalType": "bool",
          "name": "approved",
          "type": "bool"
        }
      ],
      "name": "setApprovalForAll",
      "outputs": [],
      "stateMutability": "nonpayable",
      "type": "function"
    },
    {
      "inputs": [
        {
          "internalType": "uint256",
          "name": "_tokenId",
          "type": "uint256"
        },
        {
          "internalType": "string",
          "name": "_newURI",
          "type": "string"
        }
      ],
      "name": "setCustomURI",
      "outputs": [],
      "stateMutability": "nonpayable",
      "type": "function"
    },
    {
      "inputs": [
        {
          "internalType": "address",
          "name": "market",
          "type": "address"
        },
        {
          "internalType": "bool",
          "name": "isMarket",
          "type": "bool"
        }
      ],
      "name": "setMarket",
      "outputs": [],
      "stateMutability": "nonpayable",
      "type": "function"
    },
    {
      "inputs": [
        {
          "internalType": "address payable",
          "name": "_receiver",
          "type": "address"
        }
      ],
      "name": "setRoyaltyInfo",
      "outputs": [],
      "stateMutability": "nonpayable",
      "type": "function"
    },
    {
      "inputs": [
        {
          "internalType": "bytes4",
          "name": "interfaceId",
          "type": "bytes4"
        }
      ],
      "name": "supportsInterface",
      "outputs": [
        {
          "internalType": "bool",
          "name": "itSupports",
          "type": "bool"
        }
      ],
      "stateMutability": "view",
      "type": "function"
    },
    {
      "inputs": [],
      "name": "symbol",
      "outputs": [
        {
          "internalType": "string",
          "name": "",
          "type": "string"
        }
      ],
      "stateMutability": "view",
      "type": "function"
    },
    {
      "inputs": [
        {
          "internalType": "uint256",
          "name": "index",
          "type": "uint256"
        }
      ],
      "name": "tokenByIndex",
      "outputs": [
        {
          "internalType": "uint256",
          "name": "",
          "type": "uint256"
        }
      ],
      "stateMutability": "view",
      "type": "function"
    },
    {
      "inputs": [
        {
          "internalType": "address",
          "name": "owner",
          "type": "address"
        },
        {
          "internalType": "uint256",
          "name": "index",
          "type": "uint256"
        }
      ],
      "name": "tokenOfOwnerByIndex",
      "outputs": [
        {
          "internalType": "uint256",
          "name": "",
          "type": "uint256"
        }
      ],
      "stateMutability": "view",
      "type": "function"
    },
    {
      "inputs": [
        {
          "internalType": "uint256",
          "name": "tokenId",
          "type": "uint256"
        }
      ],
      "name": "tokenURI",
      "outputs": [
        {
          "internalType": "string",
          "name": "URI",
          "type": "string"
        }
      ],
      "stateMutability": "view",
      "type": "function"
    },
    {
      "inputs": [],
      "name": "totalSupply",
      "outputs": [
        {
          "internalType": "uint256",
          "name": "",
          "type": "uint256"
        }
      ],
      "stateMutability": "view",
      "type": "function"
    },
    {
      "inputs": [
        {
          "internalType": "address",
          "name": "from",
          "type": "address"
        },
        {
          "internalType": "address",
          "name": "to",
          "type": "address"
        },
        {
          "internalType": "uint256",
          "name": "tokenId",
          "type": "uint256"
        }
      ],
      "name": "transferFrom",
      "outputs": [],
      "stateMutability": "nonpayable",
      "type": "function"
    }
  ],
  "bytecode": "0x60a06040523480156200001157600080fd5b5060405162002d7238038062002d728339810160408190526200003491620003ca565b8451859085906200004d9060029060208501906200026d565b508051620000639060039060208401906200026d565b5050506001600160a01b038216620000b35760405162461bcd60e51b815260206004820152600f60248201526e496e76616c6964206164647265737360881b604482015260640160405180910390fd5b8251620000c890600f9060208601906200026d565b50600e80546001600160a01b03199081166001600160a01b0385161790915560a082901b16608052620000fd60003362000108565b5050505050620004f3565b62000114828262000118565b5050565b6200012f82826200015b60201b62000dc81760201c565b60008281526001602090815260409091206200015691839062000e4c620001fb821b17901c565b505050565b6000828152602081815260408083206001600160a01b038516845290915290205460ff1662000114576000828152602081815260408083206001600160a01b03851684529091529020805460ff19166001179055620001b73390565b6001600160a01b0316816001600160a01b0316837f2f8788117e7eff1d82e926ec794901d17c78024a50270940304540a733656f0d60405160405180910390a45050565b600062000212836001600160a01b0384166200021b565b90505b92915050565b6000818152600183016020526040812054620002645750815460018181018455600084815260208082209093018490558454848252828601909352604090209190915562000215565b50600062000215565b8280546200027b90620004a0565b90600052602060002090601f0160209004810192826200029f5760008555620002ea565b82601f10620002ba57805160ff1916838001178555620002ea565b82800160010185558215620002ea579182015b82811115620002ea578251825591602001919060010190620002cd565b50620002f8929150620002fc565b5090565b5b80821115620002f85760008155600101620002fd565b600082601f8301126200032557600080fd5b81516001600160401b0380821115620003425762000342620004dd565b604051601f8301601f19908116603f011681019082821181831017156200036d576200036d620004dd565b816040528381526020925086838588010111156200038a57600080fd5b600091505b83821015620003ae57858201830151818301840152908201906200038f565b83821115620003c05760008385830101525b9695505050505050565b600080600080600060a08688031215620003e357600080fd5b85516001600160401b0380821115620003fb57600080fd5b6200040989838a0162000313565b965060208801519150808211156200042057600080fd5b6200042e89838a0162000313565b955060408801519150808211156200044557600080fd5b50620004548882890162000313565b606088015190945090506001600160a01b03811681146200047457600080fd5b60808701519092506001600160601b03811681146200049257600080fd5b809150509295509295909350565b600181811c90821680620004b557607f821691505b60208210811415620004d757634e487b7160e01b600052602260045260246000fd5b50919050565b634e487b7160e01b600052604160045260246000fd5b60805160a01c61285962000519600039600081816102680152610c0c01526128596000f3fe608060405234801561001057600080fd5b50600436106101965760003560e01c806301ffc9a71461019b57806306fdde03146101c3578063081812fc146101d8578063095ea7b31461020357806315bcf9b71461021857806318160ddd1461022b57806323b872dd1461023d578063248a9ca31461025057806329ee566c146102635780632f2ff15d146102a25780632f745c59146102b557806336568abe146102c85780633adf80b4146102db57806342842e0e146102ee57806342966c68146103015780634f6ccce7146103145780636352211e146103275780636a6278421461033a5780636c0360eb1461034d57806370a08231146103555780639010d07c1461036857806391d148541461037b57806395d89b411461038e578063a217fddf14610396578063a22cb4651461039e578063a2e69613146103b1578063ac881080146103c4578063b88d4fde146103d7578063c87b56dd146103ea578063ca15c873146103fd578063cef6d36814610410578063d547741f14610442578063e80bc6e114610455578063e985e9c514610478575b600080fd5b6101ae6101a9366004612433565b61048b565b60405190151581526020015b60405180910390f35b6101cb6104d1565b6040516101ba91906125ce565b6101eb6101e63660046123d3565b610563565b6040516001600160a01b0390911681526020016101ba565b6102166102113660046123a7565b6105f0565b005b610216610226366004612374565b610701565b600b545b6040519081526020016101ba565b61021661024b3660046122b4565b6107af565b61022f61025e3660046123d3565b6107e1565b61028a7f000000000000000000000000000000000000000000000000000000000000000081565b6040516001600160601b0390911681526020016101ba565b6102166102b03660046123ec565b6107f6565b61022f6102c33660046123a7565b610812565b6102166102d63660046123ec565b6108a8565b6102166102e936600461246d565b610926565b6102166102fc3660046122b4565b610938565b61021661030f3660046123d3565b610953565b61022f6103223660046123d3565b6109cd565b6101eb6103353660046123d3565b610a60565b61022f61034836600461225e565b610ad7565b6101cb610b02565b61022f61036336600461225e565b610b11565b6101eb610376366004612411565b610b98565b6101ae6103893660046123ec565b610bb7565b6101cb610be0565b61022f600081565b6102166103ac366004612374565b610bef565b61022f6103bf3660046123d3565b610bfa565b6102166103d236600461225e565b610c3c565b6102166103e53660046122f5565b610cd8565b6101cb6103f83660046123d3565b610d10565b61022f61040b3660046123d3565b610d1b565b61042361041e3660046123d3565b610d32565b604080516001600160a01b0390931683526020830191909152016101ba565b6102166104503660046123ec565b610d55565b6101ae61046336600461225e565b60106020526000908152604090205460ff1681565b6101ae61048636600461227b565b610d71565b60006319deda6d60e31b6001600160e01b0319831614806104bc575063152a902d60e11b6001600160e01b03198316145b806104cb57506104cb82610e61565b92915050565b6060600280546104e090612729565b80601f016020809104026020016040519081016040528092919081815260200182805461050c90612729565b80156105595780601f1061052e57610100808354040283529160200191610559565b820191906000526020600020905b81548152906001019060200180831161053c57829003601f168201915b5050505050905090565b600061056e82610e86565b6105d45760405162461bcd60e51b815260206004820152602c60248201527f4552433732313a20617070726f76656420717565727920666f72206e6f6e657860448201526b34b9ba32b73a103a37b5b2b760a11b60648201526084015b60405180910390fd5b506000908152600660205260409020546001600160a01b031690565b60006105fb82610a60565b9050806001600160a01b0316836001600160a01b031614156106695760405162461bcd60e51b815260206004820152602160248201527f4552433732313a20617070726f76616c20746f2063757272656e74206f776e656044820152603960f91b60648201526084016105cb565b336001600160a01b038216148061068557506106858133610d71565b6106f25760405162461bcd60e51b815260206004820152603860248201527f4552433732313a20617070726f76652063616c6c6572206973206e6f74206f776044820152771b995c881b9bdc88185c1c1c9bdd995908199bdc88185b1b60421b60648201526084016105cb565b6106fc8383610ea3565b505050565b610709610f11565b6001600160a01b03821661074e5760405162461bcd60e51b815260206004820152600c60248201526b5a45524f5f4144445245535360a01b60448201526064016105cb565b6001600160a01b038216600081815260106020908152604091829020805460ff1916851515908117909155915191825233917f9e2bd848ed96e551d65a5248c15480b97b14b10a342c4194fe315d1e8a24fe84910160405180910390a35050565b6107ba335b82610f60565b6107d65760405162461bcd60e51b81526004016105cb90612633565b6106fc83838361102a565b60009081526020819052604090206001015490565b6107ff826107e1565b610808816111bf565b6106fc83836111c9565b600061081d83610b11565b821061087f5760405162461bcd60e51b815260206004820152602b60248201527f455243373231456e756d657261626c653a206f776e657220696e646578206f7560448201526a74206f6620626f756e647360a81b60648201526084016105cb565b506001600160a01b03919091166000908152600960209081526040808320938352929052205490565b6001600160a01b03811633146109185760405162461bcd60e51b815260206004820152602f60248201527f416363657373436f6e74726f6c3a2063616e206f6e6c792072656e6f756e636560448201526e103937b632b9903337b91039b2b63360891b60648201526084016105cb565b61092282826111eb565b5050565b61092e610f11565b610922828261120d565b6106fc83838360405180602001604052806000815250610cd8565b61095c336107b4565b6109c15760405162461bcd60e51b815260206004820152603060248201527f4552433732314275726e61626c653a2063616c6c6572206973206e6f74206f7760448201526f1b995c881b9bdc88185c1c1c9bdd995960821b60648201526084016105cb565b6109ca81611298565b50565b60006109d8600b5490565b8210610a3b5760405162461bcd60e51b815260206004820152602c60248201527f455243373231456e756d657261626c653a20676c6f62616c20696e646578206f60448201526b7574206f6620626f756e647360a01b60648201526084016105cb565b600b8281548110610a4e57610a4e6127d5565b90600052602060002001549050919050565b6000818152600460205260408120546001600160a01b0316806104cb5760405162461bcd60e51b815260206004820152602960248201527f4552433732313a206f776e657220717565727920666f72206e6f6e657869737460448201526832b73a103a37b5b2b760b91b60648201526084016105cb565b6000610ae1610f11565b610aef600d80546001019055565b50600d54610afd82826112a1565b919050565b6060610b0c6112bb565b905090565b60006001600160a01b038216610b7c5760405162461bcd60e51b815260206004820152602a60248201527f4552433732313a2062616c616e636520717565727920666f7220746865207a65604482015269726f206164647265737360b01b60648201526084016105cb565b506001600160a01b031660009081526005602052604090205490565b6000828152600160205260408120610bb090836112ca565b9392505050565b6000918252602082815260408084206001600160a01b0393909316845291905290205460ff1690565b6060600380546104e090612729565b6109223383836112d6565b6000612710610c326001600160601b037f000000000000000000000000000000000000000000000000000000000000000016846126b0565b6104cb919061269c565b610c44610f11565b6001600160a01b038116610c8c5760405162461bcd60e51b815260206004820152600f60248201526e494e56414c49445f4144445245535360881b60448201526064016105cb565b600e80546001600160a01b0319166001600160a01b03831690811790915560405133907fef8f0d5f16a5283d66ae7e12801103421d077cfa56a9afe9c2b066459e3a231690600090a350565b610ce23383610f60565b610cfe5760405162461bcd60e51b81526004016105cb90612633565b610d0a848484846113a1565b50505050565b60606104cb826113d4565b60008181526001602052604081206104cb90611536565b600e5460009081906001600160a01b0316610d4c84610bfa565b91509150915091565b610d5e826107e1565b610d67816111bf565b6106fc83836111eb565b6001600160a01b03811660009081526010602052604081205460ff1615610d9a575060016104cb565b6001600160a01b0380841660009081526007602090815260408083209386168352929052205460ff16610bb0565b610dd28282610bb7565b610922576000828152602081815260408083206001600160a01b03851684529091529020805460ff19166001179055610e083390565b6001600160a01b0316816001600160a01b0316837f2f8788117e7eff1d82e926ec794901d17c78024a50270940304540a733656f0d60405160405180910390a45050565b6000610bb0836001600160a01b038416611540565b60006001600160e01b0319821663780e9d6360e01b14806104cb57506104cb8261158f565b6000908152600460205260409020546001600160a01b0316151590565b600081815260066020526040902080546001600160a01b0319166001600160a01b0384169081179091558190610ed882610a60565b6001600160a01b03167f8c5be1e5ebec7d5bd14f71427d1e84f3dd0314c0f7b2291e5b200ac8c7c3b92560405160405180910390a45050565b610f1c600033610bb7565b610f5e5760405162461bcd60e51b81526020600482015260136024820152722aa720aaaa2427a924ad22a22fa1a0a62622a960691b60448201526064016105cb565b565b6000610f6b82610e86565b610fcc5760405162461bcd60e51b815260206004820152602c60248201527f4552433732313a206f70657261746f7220717565727920666f72206e6f6e657860448201526b34b9ba32b73a103a37b5b2b760a11b60648201526084016105cb565b6000610fd783610a60565b9050806001600160a01b0316846001600160a01b03161480610ffe5750610ffe8185610d71565b806110225750836001600160a01b031661101784610563565b6001600160a01b0316145b949350505050565b826001600160a01b031661103d82610a60565b6001600160a01b0316146110a15760405162461bcd60e51b815260206004820152602560248201527f4552433732313a207472616e736665722066726f6d20696e636f72726563742060448201526437bbb732b960d91b60648201526084016105cb565b6001600160a01b0382166111035760405162461bcd60e51b8152602060048201526024808201527f4552433732313a207472616e7366657220746f20746865207a65726f206164646044820152637265737360e01b60648201526084016105cb565b61110e8383836115cf565b611119600082610ea3565b6001600160a01b03831660009081526005602052604081208054600192906111429084906126cf565b90915550506001600160a01b0382166000908152600560205260408120805460019290611170908490612684565b909155505060008181526004602052604080822080546001600160a01b0319166001600160a01b03868116918217909255915184939187169160008051602061282d83398151915291a4505050565b6109ca81336115da565b6111d38282610dc8565b60008281526001602052604090206106fc9082610e4c565b6111f5828261163e565b60008281526001602052604090206106fc90826116a3565b61121682610e86565b6112795760405162461bcd60e51b815260206004820152602e60248201527f45524337323155524953746f726167653a2055524920736574206f66206e6f6e60448201526d32bc34b9ba32b73a103a37b5b2b760911b60648201526084016105cb565b600082815260086020908152604090912082516106fc9284019061211a565b6109ca816116b8565b6109228282604051806020016040528060008152506116f8565b6060600f80546104e090612729565b6000610bb0838361172b565b816001600160a01b0316836001600160a01b031614156113345760405162461bcd60e51b815260206004820152601960248201527822a9219b99189d1030b8383937bb32903a379031b0b63632b960391b60448201526064016105cb565b6001600160a01b03838116600081815260076020908152604080832094871680845294825291829020805460ff191686151590811790915591519182527f17307eab39ab6107e8899845ad3d59bd9653f200f220920489ca2b5937696c31910160405180910390a3505050565b6113ac84848461102a565b6113b884848484611755565b610d0a5760405162461bcd60e51b81526004016105cb906125e1565b60606113df82610e86565b6114455760405162461bcd60e51b815260206004820152603160248201527f45524337323155524953746f726167653a2055524920717565727920666f72206044820152703737b732bc34b9ba32b73a103a37b5b2b760791b60648201526084016105cb565b6000828152600860205260408120805461145e90612729565b80601f016020809104026020016040519081016040528092919081815260200182805461148a90612729565b80156114d75780601f106114ac576101008083540402835291602001916114d7565b820191906000526020600020905b8154815290600101906020018083116114ba57829003601f168201915b5050505050905060006114e86112bb565b90508051600014156114fb575092915050565b81511561152d5780826040516020016115159291906124f3565b60405160208183030381529060405292505050919050565b61102284611862565b60006104cb825490565b6000818152600183016020526040812054611587575081546001818101845560008481526020808220909301849055845484825282860190935260409020919091556104cb565b5060006104cb565b60006001600160e01b031982166380ac58cd60e01b14806115c057506001600160e01b03198216635b5e139f60e01b145b806104cb57506104cb8261192c565b6106fc838383611951565b6115e48282610bb7565b610922576115fc816001600160a01b03166014611a09565b611607836020611a09565b604051602001611618929190612522565b60408051601f198184030181529082905262461bcd60e51b82526105cb916004016125ce565b6116488282610bb7565b15610922576000828152602081815260408083206001600160a01b0385168085529252808320805460ff1916905551339285917ff6391f5c32d9c69d2a47ea670b442974b53935d1edc7fd64eb21e047a839171b9190a45050565b6000610bb0836001600160a01b038416611ba4565b6116c181611c97565b600081815260086020526040902080546116da90612729565b1590506109ca5760008181526008602052604081206109ca9161219e565b6117028383611d2c565b61170f6000848484611755565b6106fc5760405162461bcd60e51b81526004016105cb906125e1565b6000826000018281548110611742576117426127d5565b9060005260206000200154905092915050565b60006001600160a01b0384163b1561185757604051630a85bd0160e11b81526001600160a01b0385169063150b7a0290611799903390899088908890600401612591565b602060405180830381600087803b1580156117b357600080fd5b505af19250505080156117e3575060408051601f3d908101601f191682019092526117e091810190612450565b60015b61183d573d808015611811576040519150601f19603f3d011682016040523d82523d6000602084013e611816565b606091505b5080516118355760405162461bcd60e51b81526004016105cb906125e1565b805181602001fd5b6001600160e01b031916630a85bd0160e11b149050611022565b506001949350505050565b606061186d82610e86565b6118d15760405162461bcd60e51b815260206004820152602f60248201527f4552433732314d657461646174613a2055524920717565727920666f72206e6f60448201526e3732bc34b9ba32b73a103a37b5b2b760891b60648201526084016105cb565b60006118db6112bb565b905060008151116118fb5760405180602001604052806000815250610bb0565b8061190584611e58565b6040516020016119169291906124f3565b6040516020818303038152906040529392505050565b60006001600160e01b03198216635a05180f60e01b14806104cb57506104cb82611f55565b6001600160a01b0383166119ac576119a781600b80546000838152600c60205260408120829055600182018355919091527f0175b7a638427703f0dbe7bb9bbf987a2551717b34e79f33b5b1008d1fa01db90155565b6119cf565b816001600160a01b0316836001600160a01b0316146119cf576119cf8382611f8a565b6001600160a01b0382166119e6576106fc81612027565b826001600160a01b0316826001600160a01b0316146106fc576106fc82826120d6565b60606000611a188360026126b0565b611a23906002612684565b6001600160401b03811115611a3a57611a3a6127eb565b6040519080825280601f01601f191660200182016040528015611a64576020820181803683370190505b509050600360fc1b81600081518110611a7f57611a7f6127d5565b60200101906001600160f81b031916908160001a905350600f60fb1b81600181518110611aae57611aae6127d5565b60200101906001600160f81b031916908160001a9053506000611ad28460026126b0565b611add906001612684565b90505b6001811115611b55576f181899199a1a9b1b9c1cb0b131b232b360811b85600f1660108110611b1157611b116127d5565b1a60f81b828281518110611b2757611b276127d5565b60200101906001600160f81b031916908160001a90535060049490941c93611b4e81612712565b9050611ae0565b508315610bb05760405162461bcd60e51b815260206004820181905260248201527f537472696e67733a20686578206c656e67746820696e73756666696369656e7460448201526064016105cb565b60008181526001830160205260408120548015611c8d576000611bc86001836126cf565b8554909150600090611bdc906001906126cf565b9050818114611c41576000866000018281548110611bfc57611bfc6127d5565b9060005260206000200154905080876000018481548110611c1f57611c1f6127d5565b6000918252602080832090910192909255918252600188019052604090208390555b8554869080611c5257611c526127bf565b6001900381819060005260206000200160009055905585600101600086815260200190815260200160002060009055600193505050506104cb565b60009150506104cb565b6000611ca282610a60565b9050611cb0816000846115cf565b611cbb600083610ea3565b6001600160a01b0381166000908152600560205260408120805460019290611ce49084906126cf565b909155505060008281526004602052604080822080546001600160a01b0319169055518391906001600160a01b0384169060008051602061282d833981519152908390a45050565b6001600160a01b038216611d825760405162461bcd60e51b815260206004820181905260248201527f4552433732313a206d696e7420746f20746865207a65726f206164647265737360448201526064016105cb565b611d8b81610e86565b15611dd75760405162461bcd60e51b815260206004820152601c60248201527b115490cdcc8c4e881d1bdad95b88185b1c9958591e481b5a5b9d195960221b60448201526064016105cb565b611de3600083836115cf565b6001600160a01b0382166000908152600560205260408120805460019290611e0c908490612684565b909155505060008181526004602052604080822080546001600160a01b0319166001600160a01b038616908117909155905183929060008051602061282d833981519152908290a45050565b606081611e7c5750506040805180820190915260018152600360fc1b602082015290565b8160005b8115611ea65780611e9081612764565b9150611e9f9050600a8361269c565b9150611e80565b6000816001600160401b03811115611ec057611ec06127eb565b6040519080825280601f01601f191660200182016040528015611eea576020820181803683370190505b5090505b841561102257611eff6001836126cf565b9150611f0c600a8661277f565b611f17906030612684565b60f81b818381518110611f2c57611f2c6127d5565b60200101906001600160f81b031916908160001a905350611f4e600a8661269c565b9450611eee565b60006001600160e01b03198216637965db0b60e01b14806104cb57506301ffc9a760e01b6001600160e01b03198316146104cb565b60006001611f9784610b11565b611fa191906126cf565b6000838152600a6020526040902054909150808214611ff4576001600160a01b03841660009081526009602090815260408083208584528252808320548484528184208190558352600a90915290208190555b506000918252600a602090815260408084208490556001600160a01b039094168352600981528383209183525290812055565b600b54600090612039906001906126cf565b6000838152600c6020526040812054600b8054939450909284908110612061576120616127d5565b9060005260206000200154905080600b8381548110612082576120826127d5565b6000918252602080832090910192909255828152600c9091526040808220849055858252812055600b8054806120ba576120ba6127bf565b6001900381819060005260206000200160009055905550505050565b60006120e183610b11565b6001600160a01b0390931660009081526009602090815260408083208684528252808320859055938252600a9052919091209190915550565b82805461212690612729565b90600052602060002090601f016020900481019282612148576000855561218e565b82601f1061216157805160ff191683800117855561218e565b8280016001018555821561218e579182015b8281111561218e578251825591602001919060010190612173565b5061219a9291506121d4565b5090565b5080546121aa90612729565b6000825580601f106121ba575050565b601f0160209004906000526020600020908101906109ca91905b5b8082111561219a57600081556001016121d5565b60006001600160401b0380841115612203576122036127eb565b604051601f8501601f19908116603f0116810190828211818310171561222b5761222b6127eb565b8160405280935085815286868601111561224457600080fd5b858560208301376000602087830101525050509392505050565b60006020828403121561227057600080fd5b8135610bb081612801565b6000806040838503121561228e57600080fd5b823561229981612801565b915060208301356122a981612801565b809150509250929050565b6000806000606084860312156122c957600080fd5b83356122d481612801565b925060208401356122e481612801565b929592945050506040919091013590565b6000806000806080858703121561230b57600080fd5b843561231681612801565b9350602085013561232681612801565b92506040850135915060608501356001600160401b0381111561234857600080fd5b8501601f8101871361235957600080fd5b612368878235602084016121e9565b91505092959194509250565b6000806040838503121561238757600080fd5b823561239281612801565b9150602083013580151581146122a957600080fd5b600080604083850312156123ba57600080fd5b82356123c581612801565b946020939093013593505050565b6000602082840312156123e557600080fd5b5035919050565b600080604083850312156123ff57600080fd5b8235915060208301356122a981612801565b6000806040838503121561242457600080fd5b50508035926020909101359150565b60006020828403121561244557600080fd5b8135610bb081612816565b60006020828403121561246257600080fd5b8151610bb081612816565b6000806040838503121561248057600080fd5b8235915060208301356001600160401b0381111561249d57600080fd5b8301601f810185136124ae57600080fd5b6124bd858235602084016121e9565b9150509250929050565b600081518084526124df8160208601602086016126e6565b601f01601f19169290920160200192915050565b600083516125058184602088016126e6565b8351908301906125198183602088016126e6565b01949350505050565b76020b1b1b2b9b9a1b7b73a3937b61d1030b1b1b7bab73a1604d1b8152600083516125548160178501602088016126e6565b7001034b99036b4b9b9b4b733903937b6329607d1b60179184019182015283516125858160288401602088016126e6565b01602801949350505050565b6001600160a01b03858116825284166020820152604081018390526080606082018190526000906125c4908301846124c7565b9695505050505050565b602081526000610bb060208301846124c7565b60208082526032908201527f4552433732313a207472616e7366657220746f206e6f6e20455243373231526560408201527131b2b4bb32b91034b6b83632b6b2b73a32b960711b606082015260800190565b60208082526031908201527f4552433732313a207472616e736665722063616c6c6572206973206e6f74206f6040820152701ddb995c881b9bdc88185c1c1c9bdd9959607a1b606082015260800190565b6000821982111561269757612697612793565b500190565b6000826126ab576126ab6127a9565b500490565b60008160001904831182151516156126ca576126ca612793565b500290565b6000828210156126e1576126e1612793565b500390565b60005b838110156127015781810151838201526020016126e9565b83811115610d0a5750506000910152565b60008161272157612721612793565b506000190190565b600181811c9082168061273d57607f821691505b6020821081141561275e57634e487b7160e01b600052602260045260246000fd5b50919050565b600060001982141561277857612778612793565b5060010190565b60008261278e5761278e6127a9565b500690565b634e487b7160e01b600052601160045260246000fd5b634e487b7160e01b600052601260045260246000fd5b634e487b7160e01b600052603160045260246000fd5b634e487b7160e01b600052603260045260246000fd5b634e487b7160e01b600052604160045260246000fd5b6001600160a01b03811681146109ca57600080fd5b6001600160e01b0319811681146109ca57600080fdfeddf252ad1be2c89b69c2b068fc378daa952ba7f163c4a11628f55a4df523b3efa164736f6c6343000806000a",
  "linkReferences": {},
  "deployedLinkReferences": {}
}