{
  "_format": "hh-sol-artifact-1",
  "contractName": "RC3_721",
  "sourceName": "contracts/RC3_721.sol",
  "abi": [
    {
      "inputs": [
        {
          "internalType": "string",
          "name": "_name",
          "type": "string"
        },
        {
          "internalType": "string",
          "name": "_symbol",
          "type": "string"
        },
        {
          "internalType": "string",
          "name": "uri",
          "type": "string"
        },
        {
          "internalType": "address payable",
          "name": "_feeTaker",
          "type": "address"
        },
        {
          "internalType": "uint96",
          "name": "_royalty",
          "type": "uint96"
        }
      ],
      "stateMutability": "nonpayable",
      "type": "constructor"
    },
    {
      "anonymous": false,
      "inputs": [
        {
          "indexed": true,
          "internalType": "address",
          "name": "owner",
          "type": "address"
        },
        {
          "indexed": true,
          "internalType": "address",
          "name": "approved",
          "type": "address"
        },
        {
          "indexed": true,
          "internalType": "uint256",
          "name": "tokenId",
          "type": "uint256"
        }
      ],
      "name": "Approval",
      "type": "event"
    },
    {
      "anonymous": false,
      "inputs": [
        {
          "indexed": true,
          "internalType": "address",
          "name": "owner",
          "type": "address"
        },
        {
          "indexed": true,
          "internalType": "address",
          "name": "operator",
          "type": "address"
        },
        {
          "indexed": false,
          "internalType": "bool",
          "name": "approved",
          "type": "bool"
        }
      ],
      "name": "ApprovalForAll",
      "type": "event"
    },
    {
      "anonymous": false,
      "inputs": [
        {
          "indexed": false,
          "internalType": "address",
          "name": "admin",
          "type": "address"
        },
        {
          "indexed": true,
          "internalType": "address",
          "name": "market",
          "type": "address"
        },
        {
          "indexed": false,
          "internalType": "bool",
          "name": "ismarket",
          "type": "bool"
        }
      ],
      "name": "MarketUpdated",
      "type": "event"
    },
    {
      "anonymous": false,
      "inputs": [
        {
          "indexed": true,
          "internalType": "bytes32",
          "name": "role",
          "type": "bytes32"
        },
        {
          "indexed": true,
          "internalType": "bytes32",
          "name": "previousAdminRole",
          "type": "bytes32"
        },
        {
          "indexed": true,
          "internalType": "bytes32",
          "name": "newAdminRole",
          "type": "bytes32"
        }
      ],
      "name": "RoleAdminChanged",
      "type": "event"
    },
    {
      "anonymous": false,
      "inputs": [
        {
          "indexed": true,
          "internalType": "bytes32",
          "name": "role",
          "type": "bytes32"
        },
        {
          "indexed": true,
          "internalType": "address",
          "name": "account",
          "type": "address"
        },
        {
          "indexed": true,
          "internalType": "address",
          "name": "sender",
          "type": "address"
        }
      ],
      "name": "RoleGranted",
      "type": "event"
    },
    {
      "anonymous": false,
      "inputs": [
        {
          "indexed": true,
          "internalType": "bytes32",
          "name": "role",
          "type": "bytes32"
        },
        {
          "indexed": true,
          "internalType": "address",
          "name": "account",
          "type": "address"
        },
        {
          "indexed": true,
          "internalType": "address",
          "name": "sender",
          "type": "address"
        }
      ],
      "name": "RoleRevoked",
      "type": "event"
    },
    {
      "anonymous": false,
      "inputs": [
        {
          "indexed": true,
          "internalType": "address",
          "name": "from",
          "type": "address"
        },
        {
          "indexed": true,
          "internalType": "address",
          "name": "to",
          "type": "address"
        },
        {
          "indexed": true,
          "internalType": "uint256",
          "name": "tokenId",
          "type": "uint256"
        }
      ],
      "name": "Transfer",
      "type": "event"
    },
    {
      "inputs": [],
      "name": "DEFAULT_ADMIN_ROLE",
      "outputs": [
        {
          "internalType": "bytes32",
          "name": "",
          "type": "bytes32"
        }
      ],
      "stateMutability": "view",
      "type": "function"
    },
    {
      "inputs": [
        {
          "internalType": "address",
          "name": "to",
          "type": "address"
        },
        {
          "internalType": "uint256",
          "name": "tokenId",
          "type": "uint256"
        }
      ],
      "name": "approve",
      "outputs": [],
      "stateMutability": "nonpayable",
      "type": "function"
    },
    {
      "inputs": [
        {
          "internalType": "address",
          "name": "owner",
          "type": "address"
        }
      ],
      "name": "balanceOf",
      "outputs": [
        {
          "internalType": "uint256",
          "name": "",
          "type": "uint256"
        }
      ],
      "stateMutability": "view",
      "type": "function"
    },
    {
      "inputs": [],
      "name": "baseTokenURI",
      "outputs": [
        {
          "internalType": "string",
          "name": "",
          "type": "string"
        }
      ],
      "stateMutability": "view",
      "type": "function"
    },
    {
      "inputs": [
        {
          "internalType": "uint256",
          "name": "tokenId",
          "type": "uint256"
        }
      ],
      "name": "burn",
      "outputs": [],
      "stateMutability": "nonpayable",
      "type": "function"
    },
    {
      "inputs": [
        {
          "internalType": "uint256",
          "name": "price",
          "type": "uint256"
        }
      ],
      "name": "calculateRoyalty",
      "outputs": [
        {
          "internalType": "uint256",
          "name": "",
          "type": "uint256"
        }
      ],
      "stateMutability": "view",
      "type": "function"
    },
    {
      "inputs": [
        {
          "internalType": "uint256",
          "name": "tokenId",
          "type": "uint256"
        }
      ],
      "name": "getApproved",
      "outputs": [
        {
          "internalType": "address",
          "name": "",
          "type": "address"
        }
      ],
      "stateMutability": "view",
      "type": "function"
    },
    {
      "inputs": [
        {
          "internalType": "bytes32",
          "name": "role",
          "type": "bytes32"
        }
      ],
      "name": "getRoleAdmin",
      "outputs": [
        {
          "internalType": "bytes32",
          "name": "",
          "type": "bytes32"
        }
      ],
      "stateMutability": "view",
      "type": "function"
    },
    {
      "inputs": [
        {
          "internalType": "bytes32",
          "name": "role",
          "type": "bytes32"
        },
        {
          "internalType": "uint256",
          "name": "index",
          "type": "uint256"
        }
      ],
      "name": "getRoleMember",
      "outputs": [
        {
          "internalType": "address",
          "name": "",
          "type": "address"
        }
      ],
      "stateMutability": "view",
      "type": "function"
    },
    {
      "inputs": [
        {
          "internalType": "bytes32",
          "name": "role",
          "type": "bytes32"
        }
      ],
      "name": "getRoleMemberCount",
      "outputs": [
        {
          "internalType": "uint256",
          "name": "",
          "type": "uint256"
        }
      ],
      "stateMutability": "view",
      "type": "function"
    },
    {
      "inputs": [
        {
          "internalType": "bytes32",
          "name": "role",
          "type": "bytes32"
        },
        {
          "internalType": "address",
          "name": "account",
          "type": "address"
        }
      ],
      "name": "grantRole",
      "outputs": [],
      "stateMutability": "nonpayable",
      "type": "function"
    },
    {
      "inputs": [
        {
          "internalType": "bytes32",
          "name": "role",
          "type": "bytes32"
        },
        {
          "internalType": "address",
          "name": "account",
          "type": "address"
        }
      ],
      "name": "hasRole",
      "outputs": [
        {
          "internalType": "bool",
          "name": "",
          "type": "bool"
        }
      ],
      "stateMutability": "view",
      "type": "function"
    },
    {
      "inputs": [
        {
          "internalType": "address",
          "name": "owner",
          "type": "address"
        },
        {
          "internalType": "address",
          "name": "operator",
          "type": "address"
        }
      ],
      "name": "isApprovedForAll",
      "outputs": [
        {
          "internalType": "bool",
          "name": "isOperator",
          "type": "bool"
        }
      ],
      "stateMutability": "view",
      "type": "function"
    },
    {
      "inputs": [
        {
          "internalType": "address",
          "name": "to",
          "type": "address"
        },
        {
          "internalType": "uint256",
          "name": "id",
          "type": "uint256"
        }
      ],
      "name": "mint",
      "outputs": [],
      "stateMutability": "nonpayable",
      "type": "function"
    },
    {
      "inputs": [],
      "name": "name",
      "outputs": [
        {
          "internalType": "string",
          "name": "",
          "type": "string"
        }
      ],
      "stateMutability": "view",
      "type": "function"
    },
    {
      "inputs": [
        {
          "internalType": "uint256",
          "name": "tokenId",
          "type": "uint256"
        }
      ],
      "name": "ownerOf",
      "outputs": [
        {
          "internalType": "address",
          "name": "",
          "type": "address"
        }
      ],
      "stateMutability": "view",
      "type": "function"
    },
    {
      "inputs": [
        {
          "internalType": "bytes32",
          "name": "role",
          "type": "bytes32"
        },
        {
          "internalType": "address",
          "name": "account",
          "type": "address"
        }
      ],
      "name": "renounceRole",
      "outputs": [],
      "stateMutability": "nonpayable",
      "type": "function"
    },
    {
      "inputs": [
        {
          "internalType": "bytes32",
          "name": "role",
          "type": "bytes32"
        },
        {
          "internalType": "address",
          "name": "account",
          "type": "address"
        }
      ],
      "name": "revokeRole",
      "outputs": [],
      "stateMutability": "nonpayable",
      "type": "function"
    },
    {
      "inputs": [],
      "name": "royalty",
      "outputs": [
        {
          "internalType": "uint96",
          "name": "",
          "type": "uint96"
        }
      ],
      "stateMutability": "view",
      "type": "function"
    },
    {
      "inputs": [
        {
          "internalType": "uint256",
          "name": "price",
          "type": "uint256"
        }
      ],
      "name": "royaltyInfo",
      "outputs": [
        {
          "internalType": "address",
          "name": "",
          "type": "address"
        },
        {
          "internalType": "uint256",
          "name": "",
          "type": "uint256"
        }
      ],
      "stateMutability": "view",
      "type": "function"
    },
    {
      "inputs": [
        {
          "internalType": "address",
          "name": "from",
          "type": "address"
        },
        {
          "internalType": "address",
          "name": "to",
          "type": "address"
        },
        {
          "internalType": "uint256",
          "name": "tokenId",
          "type": "uint256"
        }
      ],
      "name": "safeTransferFrom",
      "outputs": [],
      "stateMutability": "nonpayable",
      "type": "function"
    },
    {
      "inputs": [
        {
          "internalType": "address",
          "name": "from",
          "type": "address"
        },
        {
          "internalType": "address",
          "name": "to",
          "type": "address"
        },
        {
          "internalType": "uint256",
          "name": "tokenId",
          "type": "uint256"
        },
        {
          "internalType": "bytes",
          "name": "_data",
          "type": "bytes"
        }
      ],
      "name": "safeTransferFrom",
      "outputs": [],
      "stateMutability": "nonpayable",
      "type": "function"
    },
    {
      "inputs": [
        {
          "internalType": "address",
          "name": "operator",
          "type": "address"
        },
        {
          "internalType": "bool",
          "name": "approved",
          "type": "bool"
        }
      ],
      "name": "setApprovalForAll",
      "outputs": [],
      "stateMutability": "nonpayable",
      "type": "function"
    },
    {
      "inputs": [
        {
          "internalType": "uint256",
          "name": "_tokenId",
          "type": "uint256"
        },
        {
          "internalType": "string",
          "name": "_newURI",
          "type": "string"
        }
      ],
      "name": "setCustomURI",
      "outputs": [],
      "stateMutability": "nonpayable",
      "type": "function"
    },
    {
      "inputs": [
        {
          "internalType": "address payable",
          "name": "_feeTaker",
          "type": "address"
        }
      ],
      "name": "setFeeTaker",
      "outputs": [],
      "stateMutability": "nonpayable",
      "type": "function"
    },
    {
      "inputs": [
        {
          "internalType": "address payable",
          "name": "_feeTaker",
          "type": "address"
        }
      ],
      "name": "setRoyaltyInfo",
      "outputs": [],
      "stateMutability": "nonpayable",
      "type": "function"
    },
    {
      "inputs": [
        {
          "internalType": "bytes4",
          "name": "interfaceId",
          "type": "bytes4"
        }
      ],
      "name": "supportsInterface",
      "outputs": [
        {
          "internalType": "bool",
          "name": "itSupports",
          "type": "bool"
        }
      ],
      "stateMutability": "view",
      "type": "function"
    },
    {
      "inputs": [],
      "name": "symbol",
      "outputs": [
        {
          "internalType": "string",
          "name": "",
          "type": "string"
        }
      ],
      "stateMutability": "view",
      "type": "function"
    },
    {
      "inputs": [
        {
          "internalType": "uint256",
          "name": "index",
          "type": "uint256"
        }
      ],
      "name": "tokenByIndex",
      "outputs": [
        {
          "internalType": "uint256",
          "name": "",
          "type": "uint256"
        }
      ],
      "stateMutability": "view",
      "type": "function"
    },
    {
      "inputs": [
        {
          "internalType": "address",
          "name": "owner",
          "type": "address"
        },
        {
          "internalType": "uint256",
          "name": "index",
          "type": "uint256"
        }
      ],
      "name": "tokenOfOwnerByIndex",
      "outputs": [
        {
          "internalType": "uint256",
          "name": "",
          "type": "uint256"
        }
      ],
      "stateMutability": "view",
      "type": "function"
    },
    {
      "inputs": [
        {
          "internalType": "uint256",
          "name": "tokenId",
          "type": "uint256"
        }
      ],
      "name": "tokenURI",
      "outputs": [
        {
          "internalType": "string",
          "name": "URI",
          "type": "string"
        }
      ],
      "stateMutability": "view",
      "type": "function"
    },
    {
      "inputs": [],
      "name": "totalSupply",
      "outputs": [
        {
          "internalType": "uint256",
          "name": "",
          "type": "uint256"
        }
      ],
      "stateMutability": "view",
      "type": "function"
    },
    {
      "inputs": [
        {
          "internalType": "address",
          "name": "from",
          "type": "address"
        },
        {
          "internalType": "address",
          "name": "to",
          "type": "address"
        },
        {
          "internalType": "uint256",
          "name": "tokenId",
          "type": "uint256"
        }
      ],
      "name": "transferFrom",
      "outputs": [],
      "stateMutability": "nonpayable",
      "type": "function"
    },
    {
      "inputs": [
        {
          "internalType": "address",
          "name": "market",
          "type": "address"
        },
        {
          "internalType": "bool",
          "name": "isMarket",
          "type": "bool"
        }
      ],
      "name": "updateMarket",
      "outputs": [],
      "stateMutability": "nonpayable",
      "type": "function"
    }
  ],
  "bytecode": "0x60806040523480156200001157600080fd5b5060405162002ccb38038062002ccb833981016040819052620000349162000393565b8451859085906200004d90600290602085019062000236565b5080516200006390600390602084019062000236565b505083516200007b9150600f90602086019062000236565b50601080546001600160a01b0319166001600160a01b038416179055600e80546001600160601b0319166001600160601b038316179055620000c66000620000c03390565b620000d1565b5050505050620004bc565b620000dd8282620000e1565b5050565b620000f882826200012460201b62000d961760201c565b60008281526001602090815260409091206200011f91839062000e1a620001c4821b17901c565b505050565b6000828152602081815260408083206001600160a01b038516845290915290205460ff16620000dd576000828152602081815260408083206001600160a01b03851684529091529020805460ff19166001179055620001803390565b6001600160a01b0316816001600160a01b0316837f2f8788117e7eff1d82e926ec794901d17c78024a50270940304540a733656f0d60405160405180910390a45050565b6000620001db836001600160a01b038416620001e4565b90505b92915050565b60008181526001830160205260408120546200022d57508154600181810184556000848152602080822090930184905584548482528286019093526040902091909155620001de565b506000620001de565b828054620002449062000469565b90600052602060002090601f016020900481019282620002685760008555620002b3565b82601f106200028357805160ff1916838001178555620002b3565b82800160010185558215620002b3579182015b82811115620002b357825182559160200191906001019062000296565b50620002c1929150620002c5565b5090565b5b80821115620002c15760008155600101620002c6565b600082601f830112620002ee57600080fd5b81516001600160401b03808211156200030b576200030b620004a6565b604051601f8301601f19908116603f01168101908282118183101715620003365762000336620004a6565b816040528381526020925086838588010111156200035357600080fd5b600091505b8382101562000377578582018301518183018401529082019062000358565b83821115620003895760008385830101525b9695505050505050565b600080600080600060a08688031215620003ac57600080fd5b85516001600160401b0380821115620003c457600080fd5b620003d289838a01620002dc565b96506020880151915080821115620003e957600080fd5b620003f789838a01620002dc565b955060408801519150808211156200040e57600080fd5b506200041d88828901620002dc565b606088015190945090506001600160a01b03811681146200043d57600080fd5b60808701519092506001600160601b03811681146200045b57600080fd5b809150509295509295909350565b600181811c908216806200047e57607f821691505b60208210811415620004a057634e487b7160e01b600052602260045260246000fd5b50919050565b634e487b7160e01b600052604160045260246000fd5b6127ff80620004cc6000396000f3fe608060405234801561001057600080fd5b50600436106101965760003560e01c806301ffc9a71461019b57806306fdde03146101c3578063081812fc146101d8578063095ea7b31461020357806318160ddd1461021857806323b872dd1461022a578063248a9ca31461023d57806329ee566c146102505780632f2ff15d1461027b5780632f745c591461028e57806336568abe146102a15780633adf80b4146102b457806340c10f19146102c757806342842e0e146102da57806342966c68146102ed5780634ec5908d146103005780634f6ccce7146103135780636352211e1461032657806370a08231146103395780639010d07c1461034c57806391d148541461035f57806395d89b4114610372578063a217fddf1461037a578063a22cb46514610382578063a28cf93c14610395578063a2e69613146103a8578063ac88108014610300578063b88d4fde146103bb578063c87b56dd146103ce578063ca15c873146103e1578063cef6d368146103f4578063d547741f14610426578063d547cfb714610439578063e985e9c514610441575b600080fd5b6101ae6101a93660046123ac565b610454565b60405190151581526020015b60405180910390f35b6101cb61047f565b6040516101ba9190612547565b6101eb6101e636600461234c565b610511565b6040516001600160a01b0390911681526020016101ba565b610216610211366004612320565b61059e565b005b600b545b6040519081526020016101ba565b61021661023836600461222d565b6106af565b61021c61024b36600461234c565b6106e1565b600e54610263906001600160601b031681565b6040516001600160601b0390911681526020016101ba565b610216610289366004612365565b6106f6565b61021c61029c366004612320565b610713565b6102166102af366004612365565b6107a9565b6102166102c23660046123e6565b610827565b6102166102d5366004612320565b610858565b6102166102e836600461222d565b610889565b6102166102fb36600461234c565b6108a4565b61021661030e3660046121d7565b61091e565b61021c61032136600461234c565b6109af565b6101eb61033436600461234c565b610a42565b61021c6103473660046121d7565b610ab9565b6101eb61035a36600461238a565b610b40565b6101ae61036d366004612365565b610b5f565b6101cb610b88565b61021c600081565b6102166103903660046122ed565b610b97565b6102166103a33660046122ed565b610ba2565b61021c6103b636600461234c565b610c71565b6102166103c936600461226e565b610c96565b6101cb6103dc36600461234c565b610cce565b61021c6103ef36600461234c565b610cd9565b61040761040236600461234c565b610cf0565b604080516001600160a01b0390931683526020830191909152016101ba565b610216610434366004612365565b610d13565b6101cb610d30565b6101ae61044f3660046121f4565b610d3f565b600063152a902d60e11b6001600160e01b031983161480610479575061047982610e2f565b92915050565b60606002805461048e906126cf565b80601f01602080910402602001604051908101604052809291908181526020018280546104ba906126cf565b80156105075780601f106104dc57610100808354040283529160200191610507565b820191906000526020600020905b8154815290600101906020018083116104ea57829003601f168201915b5050505050905090565b600061051c82610e54565b6105825760405162461bcd60e51b815260206004820152602c60248201527f4552433732313a20617070726f76656420717565727920666f72206e6f6e657860448201526b34b9ba32b73a103a37b5b2b760a11b60648201526084015b60405180910390fd5b506000908152600660205260409020546001600160a01b031690565b60006105a982610a42565b9050806001600160a01b0316836001600160a01b031614156106175760405162461bcd60e51b815260206004820152602160248201527f4552433732313a20617070726f76616c20746f2063757272656e74206f776e656044820152603960f91b6064820152608401610579565b336001600160a01b038216148061063357506106338133610d3f565b6106a05760405162461bcd60e51b815260206004820152603860248201527f4552433732313a20617070726f76652063616c6c6572206973206e6f74206f776044820152771b995c881b9bdc88185c1c1c9bdd995908199bdc88185b1b60421b6064820152608401610579565b6106aa8383610e71565b505050565b6106ba335b82610edf565b6106d65760405162461bcd60e51b8152600401610579906125ac565b6106aa838383610fa9565b60009081526020819052604090206001015490565b6106ff826106e1565b6107098133611142565b6106aa83836111a6565b600061071e83610ab9565b82106107805760405162461bcd60e51b815260206004820152602b60248201527f455243373231456e756d657261626c653a206f776e657220696e646578206f7560448201526a74206f6620626f756e647360a81b6064820152608401610579565b506001600160a01b03919091166000908152600960209081526040808320938352929052205490565b6001600160a01b03811633146108195760405162461bcd60e51b815260206004820152602f60248201527f416363657373436f6e74726f6c3a2063616e206f6e6c792072656e6f756e636560448201526e103937b632b9903337b91039b2b63360891b6064820152608401610579565b61082382826111c8565b5050565b610832600033610b5f565b61084e5760405162461bcd60e51b8152600401610579906125fd565b61082382826111ea565b610863600033610b5f565b61087f5760405162461bcd60e51b8152600401610579906125fd565b6108238282611275565b6106aa83838360405180602001604052806000815250610c96565b6108ad336106b4565b6109125760405162461bcd60e51b815260206004820152603060248201527f4552433732314275726e61626c653a2063616c6c6572206973206e6f74206f7760448201526f1b995c881b9bdc88185c1c1c9bdd995960821b6064820152608401610579565b61091b8161128f565b50565b610929600033610b5f565b6109455760405162461bcd60e51b8152600401610579906125fd565b6001600160a01b03811661098d5760405162461bcd60e51b815260206004820152600f60248201526e494e56414c49445f4144445245535360881b6044820152606401610579565b601080546001600160a01b0319166001600160a01b0392909216919091179055565b60006109ba600b5490565b8210610a1d5760405162461bcd60e51b815260206004820152602c60248201527f455243373231456e756d657261626c653a20676c6f62616c20696e646578206f60448201526b7574206f6620626f756e647360a01b6064820152608401610579565b600b8281548110610a3057610a3061277b565b90600052602060002001549050919050565b6000818152600460205260408120546001600160a01b0316806104795760405162461bcd60e51b815260206004820152602960248201527f4552433732313a206f776e657220717565727920666f72206e6f6e657869737460448201526832b73a103a37b5b2b760b91b6064820152608401610579565b60006001600160a01b038216610b245760405162461bcd60e51b815260206004820152602a60248201527f4552433732313a2062616c616e636520717565727920666f7220746865207a65604482015269726f206164647265737360b01b6064820152608401610579565b506001600160a01b031660009081526005602052604090205490565b6000828152600160205260408120610b589083611298565b9392505050565b6000918252602082815260408084206001600160a01b0393909316845291905290205460ff1690565b60606003805461048e906126cf565b6108233383836112a4565b610bad600033610b5f565b610bc95760405162461bcd60e51b8152600401610579906125fd565b6001600160a01b038216610c0e5760405162461bcd60e51b815260206004820152600c60248201526b5a45524f5f4144445245535360a01b6044820152606401610579565b6001600160a01b038216600081815260116020908152604091829020805460ff19168515159081179091558251338152918201527f9e2bd848ed96e551d65a5248c15480b97b14b10a342c4194fe315d1e8a24fe84910160405180910390a25050565b600e546000906001600160601b0316610c8c61271084612642565b6104799190612656565b610ca03383610edf565b610cbc5760405162461bcd60e51b8152600401610579906125ac565b610cc88484848461136f565b50505050565b6060610479826113a2565b600081815260016020526040812061047990611504565b60105460009081906001600160a01b0316610d0a84610c71565b91509150915091565b610d1c826106e1565b610d268133611142565b6106aa83836111c8565b6060610d3a61150e565b905090565b6001600160a01b03811660009081526011602052604081205460ff1615610d6857506001610479565b6001600160a01b0380841660009081526007602090815260408083209386168352929052205460ff16610b58565b610da08282610b5f565b610823576000828152602081815260408083206001600160a01b03851684529091529020805460ff19166001179055610dd63390565b6001600160a01b0316816001600160a01b0316837f2f8788117e7eff1d82e926ec794901d17c78024a50270940304540a733656f0d60405160405180910390a45050565b6000610b58836001600160a01b03841661151d565b60006001600160e01b0319821663780e9d6360e01b148061047957506104798261156c565b6000908152600460205260409020546001600160a01b0316151590565b600081815260066020526040902080546001600160a01b0319166001600160a01b0384169081179091558190610ea682610a42565b6001600160a01b03167f8c5be1e5ebec7d5bd14f71427d1e84f3dd0314c0f7b2291e5b200ac8c7c3b92560405160405180910390a45050565b6000610eea82610e54565b610f4b5760405162461bcd60e51b815260206004820152602c60248201527f4552433732313a206f70657261746f7220717565727920666f72206e6f6e657860448201526b34b9ba32b73a103a37b5b2b760a11b6064820152608401610579565b6000610f5683610a42565b9050806001600160a01b0316846001600160a01b03161480610f915750836001600160a01b0316610f8684610511565b6001600160a01b0316145b80610fa15750610fa18185610d3f565b949350505050565b826001600160a01b0316610fbc82610a42565b6001600160a01b0316146110245760405162461bcd60e51b815260206004820152602960248201527f4552433732313a207472616e73666572206f6620746f6b656e2074686174206960448201526839903737ba1037bbb760b91b6064820152608401610579565b6001600160a01b0382166110865760405162461bcd60e51b8152602060048201526024808201527f4552433732313a207472616e7366657220746f20746865207a65726f206164646044820152637265737360e01b6064820152608401610579565b6110918383836115ac565b61109c600082610e71565b6001600160a01b03831660009081526005602052604081208054600192906110c5908490612675565b90915550506001600160a01b03821660009081526005602052604081208054600192906110f390849061262a565b909155505060008181526004602052604080822080546001600160a01b0319166001600160a01b0386811691821790925591518493918716916000805160206127d383398151915291a4505050565b61114c8282610b5f565b61082357611164816001600160a01b031660146115b7565b61116f8360206115b7565b60405160200161118092919061249b565b60408051601f198184030181529082905262461bcd60e51b825261057991600401612547565b6111b08282610d96565b60008281526001602052604090206106aa9082610e1a565b6111d28282611752565b60008281526001602052604090206106aa90826117b7565b6111f382610e54565b6112565760405162461bcd60e51b815260206004820152602e60248201527f45524337323155524953746f726167653a2055524920736574206f66206e6f6e60448201526d32bc34b9ba32b73a103a37b5b2b760911b6064820152608401610579565b600082815260086020908152604090912082516106aa92840190612093565b6108238282604051806020016040528060008152506117cc565b61091b816117ff565b6000610b58838361183f565b816001600160a01b0316836001600160a01b031614156113025760405162461bcd60e51b815260206004820152601960248201527822a9219b99189d1030b8383937bb32903a379031b0b63632b960391b6044820152606401610579565b6001600160a01b03838116600081815260076020908152604080832094871680845294825291829020805460ff191686151590811790915591519182527f17307eab39ab6107e8899845ad3d59bd9653f200f220920489ca2b5937696c31910160405180910390a3505050565b61137a848484610fa9565b61138684848484611869565b610cc85760405162461bcd60e51b81526004016105799061255a565b60606113ad82610e54565b6114135760405162461bcd60e51b815260206004820152603160248201527f45524337323155524953746f726167653a2055524920717565727920666f72206044820152703737b732bc34b9ba32b73a103a37b5b2b760791b6064820152608401610579565b6000828152600860205260408120805461142c906126cf565b80601f0160208091040260200160405190810160405280929190818152602001828054611458906126cf565b80156114a55780601f1061147a576101008083540402835291602001916114a5565b820191906000526020600020905b81548152906001019060200180831161148857829003601f168201915b5050505050905060006114b661150e565b90508051600014156114c9575092915050565b8151156114fb5780826040516020016114e392919061246c565b60405160208183030381529060405292505050919050565b610fa184611976565b6000610479825490565b6060600f805461048e906126cf565b600081815260018301602052604081205461156457508154600181810184556000848152602080822090930184905584548482528286019093526040902091909155610479565b506000610479565b60006001600160e01b031982166380ac58cd60e01b148061159d57506001600160e01b03198216635b5e139f60e01b145b80610479575061047982611a40565b6106aa838383611a65565b606060006115c6836002612656565b6115d190600261262a565b6001600160401b038111156115e8576115e8612791565b6040519080825280601f01601f191660200182016040528015611612576020820181803683370190505b509050600360fc1b8160008151811061162d5761162d61277b565b60200101906001600160f81b031916908160001a905350600f60fb1b8160018151811061165c5761165c61277b565b60200101906001600160f81b031916908160001a9053506000611680846002612656565b61168b90600161262a565b90505b6001811115611703576f181899199a1a9b1b9c1cb0b131b232b360811b85600f16601081106116bf576116bf61277b565b1a60f81b8282815181106116d5576116d561277b565b60200101906001600160f81b031916908160001a90535060049490941c936116fc816126b8565b905061168e565b508315610b585760405162461bcd60e51b815260206004820181905260248201527f537472696e67733a20686578206c656e67746820696e73756666696369656e746044820152606401610579565b61175c8282610b5f565b15610823576000828152602081815260408083206001600160a01b0385168085529252808320805460ff1916905551339285917ff6391f5c32d9c69d2a47ea670b442974b53935d1edc7fd64eb21e047a839171b9190a45050565b6000610b58836001600160a01b038416611b1d565b6117d68383611c10565b6117e36000848484611869565b6106aa5760405162461bcd60e51b81526004016105799061255a565b61180881611d3c565b60008181526008602052604090208054611821906126cf565b15905061091b57600081815260086020526040812061091b91612117565b60008260000182815481106118565761185661277b565b9060005260206000200154905092915050565b60006001600160a01b0384163b1561196b57604051630a85bd0160e11b81526001600160a01b0385169063150b7a02906118ad90339089908890889060040161250a565b602060405180830381600087803b1580156118c757600080fd5b505af19250505080156118f7575060408051601f3d908101601f191682019092526118f4918101906123c9565b60015b611951573d808015611925576040519150601f19603f3d011682016040523d82523d6000602084013e61192a565b606091505b5080516119495760405162461bcd60e51b81526004016105799061255a565b805181602001fd5b6001600160e01b031916630a85bd0160e11b149050610fa1565b506001949350505050565b606061198182610e54565b6119e55760405162461bcd60e51b815260206004820152602f60248201527f4552433732314d657461646174613a2055524920717565727920666f72206e6f60448201526e3732bc34b9ba32b73a103a37b5b2b760891b6064820152608401610579565b60006119ef61150e565b90506000815111611a0f5760405180602001604052806000815250610b58565b80611a1984611dd1565b604051602001611a2a92919061246c565b6040516020818303038152906040529392505050565b60006001600160e01b03198216635a05180f60e01b1480610479575061047982611ece565b6001600160a01b038316611ac057611abb81600b80546000838152600c60205260408120829055600182018355919091527f0175b7a638427703f0dbe7bb9bbf987a2551717b34e79f33b5b1008d1fa01db90155565b611ae3565b816001600160a01b0316836001600160a01b031614611ae357611ae38382611f03565b6001600160a01b038216611afa576106aa81611fa0565b826001600160a01b0316826001600160a01b0316146106aa576106aa828261204f565b60008181526001830160205260408120548015611c06576000611b41600183612675565b8554909150600090611b5590600190612675565b9050818114611bba576000866000018281548110611b7557611b7561277b565b9060005260206000200154905080876000018481548110611b9857611b9861277b565b6000918252602080832090910192909255918252600188019052604090208390555b8554869080611bcb57611bcb612765565b600190038181906000526020600020016000905590558560010160008681526020019081526020016000206000905560019350505050610479565b6000915050610479565b6001600160a01b038216611c665760405162461bcd60e51b815260206004820181905260248201527f4552433732313a206d696e7420746f20746865207a65726f20616464726573736044820152606401610579565b611c6f81610e54565b15611cbb5760405162461bcd60e51b815260206004820152601c60248201527b115490cdcc8c4e881d1bdad95b88185b1c9958591e481b5a5b9d195960221b6044820152606401610579565b611cc7600083836115ac565b6001600160a01b0382166000908152600560205260408120805460019290611cf090849061262a565b909155505060008181526004602052604080822080546001600160a01b0319166001600160a01b03861690811790915590518392906000805160206127d3833981519152908290a45050565b6000611d4782610a42565b9050611d55816000846115ac565b611d60600083610e71565b6001600160a01b0381166000908152600560205260408120805460019290611d89908490612675565b909155505060008281526004602052604080822080546001600160a01b0319169055518391906001600160a01b038416906000805160206127d3833981519152908390a45050565b606081611df55750506040805180820190915260018152600360fc1b602082015290565b8160005b8115611e1f5780611e098161270a565b9150611e189050600a83612642565b9150611df9565b6000816001600160401b03811115611e3957611e39612791565b6040519080825280601f01601f191660200182016040528015611e63576020820181803683370190505b5090505b8415610fa157611e78600183612675565b9150611e85600a86612725565b611e9090603061262a565b60f81b818381518110611ea557611ea561277b565b60200101906001600160f81b031916908160001a905350611ec7600a86612642565b9450611e67565b60006001600160e01b03198216637965db0b60e01b148061047957506301ffc9a760e01b6001600160e01b0319831614610479565b60006001611f1084610ab9565b611f1a9190612675565b6000838152600a6020526040902054909150808214611f6d576001600160a01b03841660009081526009602090815260408083208584528252808320548484528184208190558352600a90915290208190555b506000918252600a602090815260408084208490556001600160a01b039094168352600981528383209183525290812055565b600b54600090611fb290600190612675565b6000838152600c6020526040812054600b8054939450909284908110611fda57611fda61277b565b9060005260206000200154905080600b8381548110611ffb57611ffb61277b565b6000918252602080832090910192909255828152600c9091526040808220849055858252812055600b80548061203357612033612765565b6001900381819060005260206000200160009055905550505050565b600061205a83610ab9565b6001600160a01b0390931660009081526009602090815260408083208684528252808320859055938252600a9052919091209190915550565b82805461209f906126cf565b90600052602060002090601f0160209004810192826120c15760008555612107565b82601f106120da57805160ff1916838001178555612107565b82800160010185558215612107579182015b828111156121075782518255916020019190600101906120ec565b5061211392915061214d565b5090565b508054612123906126cf565b6000825580601f10612133575050565b601f01602090049060005260206000209081019061091b91905b5b80821115612113576000815560010161214e565b60006001600160401b038084111561217c5761217c612791565b604051601f8501601f19908116603f011681019082821181831017156121a4576121a4612791565b816040528093508581528686860111156121bd57600080fd5b858560208301376000602087830101525050509392505050565b6000602082840312156121e957600080fd5b8135610b58816127a7565b6000806040838503121561220757600080fd5b8235612212816127a7565b91506020830135612222816127a7565b809150509250929050565b60008060006060848603121561224257600080fd5b833561224d816127a7565b9250602084013561225d816127a7565b929592945050506040919091013590565b6000806000806080858703121561228457600080fd5b843561228f816127a7565b9350602085013561229f816127a7565b92506040850135915060608501356001600160401b038111156122c157600080fd5b8501601f810187136122d257600080fd5b6122e187823560208401612162565b91505092959194509250565b6000806040838503121561230057600080fd5b823561230b816127a7565b91506020830135801515811461222257600080fd5b6000806040838503121561233357600080fd5b823561233e816127a7565b946020939093013593505050565b60006020828403121561235e57600080fd5b5035919050565b6000806040838503121561237857600080fd5b823591506020830135612222816127a7565b6000806040838503121561239d57600080fd5b50508035926020909101359150565b6000602082840312156123be57600080fd5b8135610b58816127bc565b6000602082840312156123db57600080fd5b8151610b58816127bc565b600080604083850312156123f957600080fd5b8235915060208301356001600160401b0381111561241657600080fd5b8301601f8101851361242757600080fd5b61243685823560208401612162565b9150509250929050565b6000815180845261245881602086016020860161268c565b601f01601f19169290920160200192915050565b6000835161247e81846020880161268c565b83519083019061249281836020880161268c565b01949350505050565b76020b1b1b2b9b9a1b7b73a3937b61d1030b1b1b7bab73a1604d1b8152600083516124cd81601785016020880161268c565b7001034b99036b4b9b9b4b733903937b6329607d1b60179184019182015283516124fe81602884016020880161268c565b01602801949350505050565b6001600160a01b038581168252841660208201526040810183905260806060820181905260009061253d90830184612440565b9695505050505050565b602081526000610b586020830184612440565b60208082526032908201527f4552433732313a207472616e7366657220746f206e6f6e20455243373231526560408201527131b2b4bb32b91034b6b83632b6b2b73a32b960711b606082015260800190565b60208082526031908201527f4552433732313a207472616e736665722063616c6c6572206973206e6f74206f6040820152701ddb995c881b9bdc88185c1c1c9bdd9959607a1b606082015260800190565b6020808252601390820152722aa720aaaa2427a924ad22a22fa1a0a62622a960691b604082015260600190565b6000821982111561263d5761263d612739565b500190565b6000826126515761265161274f565b500490565b600081600019048311821515161561267057612670612739565b500290565b60008282101561268757612687612739565b500390565b60005b838110156126a757818101518382015260200161268f565b83811115610cc85750506000910152565b6000816126c7576126c7612739565b506000190190565b600181811c908216806126e357607f821691505b6020821081141561270457634e487b7160e01b600052602260045260246000fd5b50919050565b600060001982141561271e5761271e612739565b5060010190565b6000826127345761273461274f565b500690565b634e487b7160e01b600052601160045260246000fd5b634e487b7160e01b600052601260045260246000fd5b634e487b7160e01b600052603160045260246000fd5b634e487b7160e01b600052603260045260246000fd5b634e487b7160e01b600052604160045260246000fd5b6001600160a01b038116811461091b57600080fd5b6001600160e01b03198116811461091b57600080fdfeddf252ad1be2c89b69c2b068fc378daa952ba7f163c4a11628f55a4df523b3efa164736f6c6343000806000a",
  "linkReferences": {},
  "deployedLinkReferences": {}
}