{
  "_format": "hh-sol-artifact-1",
  "contractName": "RC3",
  "sourceName": "contracts/RC3.sol",
  "abi": [
    {
      "inputs": [],
      "stateMutability": "nonpayable",
      "type": "constructor"
    },
    {
      "anonymous": false,
      "inputs": [
        {
          "indexed": true,
          "internalType": "address",
          "name": "owner",
          "type": "address"
        },
        {
          "indexed": true,
          "internalType": "address",
          "name": "approved",
          "type": "address"
        },
        {
          "indexed": true,
          "internalType": "uint256",
          "name": "tokenId",
          "type": "uint256"
        }
      ],
      "name": "Approval",
      "type": "event"
    },
    {
      "anonymous": false,
      "inputs": [
        {
          "indexed": true,
          "internalType": "address",
          "name": "owner",
          "type": "address"
        },
        {
          "indexed": true,
          "internalType": "address",
          "name": "operator",
          "type": "address"
        },
        {
          "indexed": false,
          "internalType": "bool",
          "name": "approved",
          "type": "bool"
        }
      ],
      "name": "ApprovalForAll",
      "type": "event"
    },
    {
      "anonymous": false,
      "inputs": [
        {
          "indexed": true,
          "internalType": "address",
          "name": "admin",
          "type": "address"
        },
        {
          "indexed": true,
          "internalType": "uint256",
          "name": "tokenId",
          "type": "uint256"
        }
      ],
      "name": "Mint",
      "type": "event"
    },
    {
      "anonymous": false,
      "inputs": [
        {
          "indexed": true,
          "internalType": "address",
          "name": "previousOwner",
          "type": "address"
        },
        {
          "indexed": true,
          "internalType": "address",
          "name": "newOwner",
          "type": "address"
        }
      ],
      "name": "OwnershipTransferred",
      "type": "event"
    },
    {
      "anonymous": false,
      "inputs": [
        {
          "indexed": true,
          "internalType": "address",
          "name": "from",
          "type": "address"
        },
        {
          "indexed": true,
          "internalType": "address",
          "name": "to",
          "type": "address"
        },
        {
          "indexed": true,
          "internalType": "uint256",
          "name": "tokenId",
          "type": "uint256"
        }
      ],
      "name": "Transfer",
      "type": "event"
    },
    {
      "inputs": [
        {
          "internalType": "address",
          "name": "to",
          "type": "address"
        },
        {
          "internalType": "uint256",
          "name": "tokenId",
          "type": "uint256"
        }
      ],
      "name": "approve",
      "outputs": [],
      "stateMutability": "nonpayable",
      "type": "function"
    },
    {
      "inputs": [
        {
          "internalType": "address",
          "name": "owner",
          "type": "address"
        }
      ],
      "name": "balanceOf",
      "outputs": [
        {
          "internalType": "uint256",
          "name": "",
          "type": "uint256"
        }
      ],
      "stateMutability": "view",
      "type": "function"
    },
    {
      "inputs": [],
      "name": "baseURI",
      "outputs": [
        {
          "internalType": "string",
          "name": "",
          "type": "string"
        }
      ],
      "stateMutability": "view",
      "type": "function"
    },
    {
      "inputs": [
        {
          "internalType": "address",
          "name": "to",
          "type": "address"
        },
        {
          "internalType": "uint256",
          "name": "amount",
          "type": "uint256"
        }
      ],
      "name": "batchMintNFT",
      "outputs": [
        {
          "internalType": "bool",
          "name": "success",
          "type": "bool"
        }
      ],
      "stateMutability": "nonpayable",
      "type": "function"
    },
    {
      "inputs": [
        {
          "internalType": "uint256",
          "name": "tokenId",
          "type": "uint256"
        }
      ],
      "name": "burn",
      "outputs": [],
      "stateMutability": "nonpayable",
      "type": "function"
    },
    {
      "inputs": [
        {
          "internalType": "uint256",
          "name": "tokenId",
          "type": "uint256"
        }
      ],
      "name": "getApproved",
      "outputs": [
        {
          "internalType": "address",
          "name": "",
          "type": "address"
        }
      ],
      "stateMutability": "view",
      "type": "function"
    },
    {
      "inputs": [
        {
          "internalType": "address",
          "name": "owner",
          "type": "address"
        },
        {
          "internalType": "address",
          "name": "operator",
          "type": "address"
        }
      ],
      "name": "isApprovedForAll",
      "outputs": [
        {
          "internalType": "bool",
          "name": "",
          "type": "bool"
        }
      ],
      "stateMutability": "view",
      "type": "function"
    },
    {
      "inputs": [
        {
          "internalType": "address",
          "name": "to",
          "type": "address"
        }
      ],
      "name": "mintNFT",
      "outputs": [
        {
          "internalType": "uint256",
          "name": "newItemId",
          "type": "uint256"
        }
      ],
      "stateMutability": "nonpayable",
      "type": "function"
    },
    {
      "inputs": [],
      "name": "name",
      "outputs": [
        {
          "internalType": "string",
          "name": "",
          "type": "string"
        }
      ],
      "stateMutability": "view",
      "type": "function"
    },
    {
      "inputs": [],
      "name": "owner",
      "outputs": [
        {
          "internalType": "address",
          "name": "",
          "type": "address"
        }
      ],
      "stateMutability": "view",
      "type": "function"
    },
    {
      "inputs": [
        {
          "internalType": "uint256",
          "name": "tokenId",
          "type": "uint256"
        }
      ],
      "name": "ownerOf",
      "outputs": [
        {
          "internalType": "address",
          "name": "",
          "type": "address"
        }
      ],
      "stateMutability": "view",
      "type": "function"
    },
    {
      "inputs": [],
      "name": "renounceOwnership",
      "outputs": [],
      "stateMutability": "nonpayable",
      "type": "function"
    },
    {
      "inputs": [
        {
          "internalType": "address",
          "name": "from",
          "type": "address"
        },
        {
          "internalType": "address",
          "name": "to",
          "type": "address"
        },
        {
          "internalType": "uint256",
          "name": "tokenId",
          "type": "uint256"
        }
      ],
      "name": "safeTransferFrom",
      "outputs": [],
      "stateMutability": "nonpayable",
      "type": "function"
    },
    {
      "inputs": [
        {
          "internalType": "address",
          "name": "from",
          "type": "address"
        },
        {
          "internalType": "address",
          "name": "to",
          "type": "address"
        },
        {
          "internalType": "uint256",
          "name": "tokenId",
          "type": "uint256"
        },
        {
          "internalType": "bytes",
          "name": "_data",
          "type": "bytes"
        }
      ],
      "name": "safeTransferFrom",
      "outputs": [],
      "stateMutability": "nonpayable",
      "type": "function"
    },
    {
      "inputs": [
        {
          "internalType": "address",
          "name": "operator",
          "type": "address"
        },
        {
          "internalType": "bool",
          "name": "approved",
          "type": "bool"
        }
      ],
      "name": "setApprovalForAll",
      "outputs": [],
      "stateMutability": "nonpayable",
      "type": "function"
    },
    {
      "inputs": [
        {
          "internalType": "string",
          "name": "uri",
          "type": "string"
        }
      ],
      "name": "setBaseURI",
      "outputs": [],
      "stateMutability": "nonpayable",
      "type": "function"
    },
    {
      "inputs": [
        {
          "internalType": "bytes4",
          "name": "interfaceId",
          "type": "bytes4"
        }
      ],
      "name": "supportsInterface",
      "outputs": [
        {
          "internalType": "bool",
          "name": "itSupports",
          "type": "bool"
        }
      ],
      "stateMutability": "view",
      "type": "function"
    },
    {
      "inputs": [],
      "name": "symbol",
      "outputs": [
        {
          "internalType": "string",
          "name": "",
          "type": "string"
        }
      ],
      "stateMutability": "view",
      "type": "function"
    },
    {
      "inputs": [
        {
          "internalType": "uint256",
          "name": "index",
          "type": "uint256"
        }
      ],
      "name": "tokenByIndex",
      "outputs": [
        {
          "internalType": "uint256",
          "name": "",
          "type": "uint256"
        }
      ],
      "stateMutability": "view",
      "type": "function"
    },
    {
      "inputs": [
        {
          "internalType": "address",
          "name": "owner",
          "type": "address"
        },
        {
          "internalType": "uint256",
          "name": "index",
          "type": "uint256"
        }
      ],
      "name": "tokenOfOwnerByIndex",
      "outputs": [
        {
          "internalType": "uint256",
          "name": "",
          "type": "uint256"
        }
      ],
      "stateMutability": "view",
      "type": "function"
    },
    {
      "inputs": [
        {
          "internalType": "uint256",
          "name": "tokenId",
          "type": "uint256"
        }
      ],
      "name": "tokenURI",
      "outputs": [
        {
          "internalType": "string",
          "name": "URI",
          "type": "string"
        }
      ],
      "stateMutability": "view",
      "type": "function"
    },
    {
      "inputs": [],
      "name": "totalSupply",
      "outputs": [
        {
          "internalType": "uint256",
          "name": "",
          "type": "uint256"
        }
      ],
      "stateMutability": "view",
      "type": "function"
    },
    {
      "inputs": [
        {
          "internalType": "address",
          "name": "from",
          "type": "address"
        },
        {
          "internalType": "address",
          "name": "to",
          "type": "address"
        },
        {
          "internalType": "uint256",
          "name": "tokenId",
          "type": "uint256"
        }
      ],
      "name": "transferFrom",
      "outputs": [],
      "stateMutability": "nonpayable",
      "type": "function"
    },
    {
      "inputs": [
        {
          "internalType": "address",
          "name": "newOwner",
          "type": "address"
        }
      ],
      "name": "transferOwnership",
      "outputs": [],
      "stateMutability": "nonpayable",
      "type": "function"
    }
  ],
  "bytecode": "0x60a06040819052600060808190526200001b91600d91620001f3565b503480156200002957600080fd5b506040518060400160405280600c81526020016b14985c9958d85b991e480cd160a21b8152506040518060400160405280600381526020016252433360e81b815250620000856200007f620000ca60201b60201c565b620000ce565b81516200009a906001906020850190620001f3565b508051620000b0906002906020840190620001f3565b505050620000c4336200011e60201b60201c565b620002d6565b3390565b600080546001600160a01b038381166001600160a01b0319831681178455604051919092169283917f8be0079c531659141344cd1fd0a4f28419497f9722a3daafe3b4186f6b6457e09190a35050565b6000546001600160a01b031633146200017e5760405162461bcd60e51b815260206004820181905260248201527f4f776e61626c653a2063616c6c6572206973206e6f7420746865206f776e657260448201526064015b60405180910390fd5b6001600160a01b038116620001e55760405162461bcd60e51b815260206004820152602660248201527f4f776e61626c653a206e6577206f776e657220697320746865207a65726f206160448201526564647265737360d01b606482015260840162000175565b620001f081620000ce565b50565b828054620002019062000299565b90600052602060002090601f01602090048101928262000225576000855562000270565b82601f106200024057805160ff191683800117855562000270565b8280016001018555821562000270579182015b828111156200027057825182559160200191906001019062000253565b506200027e92915062000282565b5090565b5b808211156200027e576000815560010162000283565b600181811c90821680620002ae57607f821691505b60208210811415620002d057634e487b7160e01b600052602260045260246000fd5b50919050565b61232780620002e66000396000f3fe608060405234801561001057600080fd5b50600436106101985760003560e01c80636352211e116100e3578063a22cb4651161008c578063c87b56dd11610066578063c87b56dd14610339578063e985e9c51461034c578063f2fde38b1461038857600080fd5b8063a22cb46514610300578063b33ea9ac14610313578063b88d4fde1461032657600080fd5b8063715018a6116100bd578063715018a6146102df5780638da5cb5b146102e757806395d89b41146102f857600080fd5b80636352211e146102b15780636c0360eb146102c457806370a08231146102cc57600080fd5b80632f745c59116101455780634f6ccce71161011f5780634f6ccce71461027857806354ba0f271461028b57806355f804b31461029e57600080fd5b80632f745c591461023f57806342842e0e1461025257806342966c681461026557600080fd5b8063095ea7b311610176578063095ea7b31461020557806318160ddd1461021a57806323b872dd1461022c57600080fd5b806301ffc9a71461019d57806306fdde03146101c5578063081812fc146101da575b600080fd5b6101b06101ab366004612077565b61039b565b60405190151581526020015b60405180910390f35b6101cd6103ac565b6040516101bc91906121aa565b6101ed6101e83660046120fa565b61043e565b6040516001600160a01b0390911681526020016101bc565b61021861021336600461204d565b6104d8565b005b600a545b6040519081526020016101bc565b61021861023a366004611f59565b61060a565b61021e61024d36600461204d565b610692565b610218610260366004611f59565b61073a565b6102186102733660046120fa565b610755565b61021e6102863660046120fa565b610761565b61021e610299366004611f0b565b610805565b6102186102ac3660046120b1565b6108ae565b6101ed6102bf3660046120fa565b61091f565b6101cd6109aa565b61021e6102da366004611f0b565b610a38565b610218610ad2565b6000546001600160a01b03166101ed565b6101cd610b38565b61021861030e366004612011565b610b47565b6101b061032136600461204d565b610b52565b610218610334366004611f95565b610c54565b6101cd6103473660046120fa565b610ce2565b6101b061035a366004611f26565b6001600160a01b03918216600090815260066020908152604080832093909416825291909152205460ff1690565b610218610396366004611f0b565b610ced565b60006103a682610dcc565b92915050565b6060600180546103bb9061222c565b80601f01602080910402602001604051908101604052809291908181526020018280546103e79061222c565b80156104345780601f1061040957610100808354040283529160200191610434565b820191906000526020600020905b81548152906001019060200180831161041757829003601f168201915b5050505050905090565b6000818152600360205260408120546001600160a01b03166104bc5760405162461bcd60e51b815260206004820152602c60248201527f4552433732313a20617070726f76656420717565727920666f72206e6f6e657860448201526b34b9ba32b73a103a37b5b2b760a11b60648201526084015b60405180910390fd5b506000908152600560205260409020546001600160a01b031690565b60006104e38261091f565b9050806001600160a01b0316836001600160a01b0316141561056d5760405162461bcd60e51b815260206004820152602160248201527f4552433732313a20617070726f76616c20746f2063757272656e74206f776e6560448201527f720000000000000000000000000000000000000000000000000000000000000060648201526084016104b3565b336001600160a01b03821614806105895750610589813361035a565b6105fb5760405162461bcd60e51b815260206004820152603860248201527f4552433732313a20617070726f76652063616c6c6572206973206e6f74206f7760448201527f6e6572206e6f7220617070726f76656420666f7220616c6c000000000000000060648201526084016104b3565b6106058383610e0a565b505050565b610615335b82610e78565b6106875760405162461bcd60e51b815260206004820152603160248201527f4552433732313a207472616e736665722063616c6c6572206973206e6f74206f60448201527f776e6572206e6f7220617070726f76656400000000000000000000000000000060648201526084016104b3565b610605838383610f6f565b600061069d83610a38565b82106107115760405162461bcd60e51b815260206004820152602b60248201527f455243373231456e756d657261626c653a206f776e657220696e646578206f7560448201527f74206f6620626f756e647300000000000000000000000000000000000000000060648201526084016104b3565b506001600160a01b03919091166000908152600860209081526040808320938352929052205490565b61060583838360405180602001604052806000815250610c54565b61075e81611147565b50565b600061076c600a5490565b82106107e05760405162461bcd60e51b815260206004820152602c60248201527f455243373231456e756d657261626c653a20676c6f62616c20696e646578206f60448201527f7574206f6620626f756e6473000000000000000000000000000000000000000060648201526084016104b3565b600a82815481106107f3576107f36122d8565b90600052602060002001549050919050565b600080546001600160a01b031633146108605760405162461bcd60e51b815260206004820181905260248201527f4f776e61626c653a2063616c6c6572206973206e6f7420746865206f776e657260448201526064016104b3565b61086e600c80546001019055565b50600c5461087c82826111cb565b604051819033907f0f6798a560793a54c3bcfe86a93cde1e73087d944c0ea20544137d412139688590600090a3919050565b6000546001600160a01b031633146109085760405162461bcd60e51b815260206004820181905260248201527f4f776e61626c653a2063616c6c6572206973206e6f7420746865206f776e657260448201526064016104b3565b805161091b90600d906020840190611daa565b5050565b6000818152600360205260408120546001600160a01b0316806103a65760405162461bcd60e51b815260206004820152602960248201527f4552433732313a206f776e657220717565727920666f72206e6f6e657869737460448201527f656e7420746f6b656e000000000000000000000000000000000000000000000060648201526084016104b3565b600d80546109b79061222c565b80601f01602080910402602001604051908101604052809291908181526020018280546109e39061222c565b8015610a305780601f10610a0557610100808354040283529160200191610a30565b820191906000526020600020905b815481529060010190602001808311610a1357829003601f168201915b505050505081565b60006001600160a01b038216610ab65760405162461bcd60e51b815260206004820152602a60248201527f4552433732313a2062616c616e636520717565727920666f7220746865207a6560448201527f726f20616464726573730000000000000000000000000000000000000000000060648201526084016104b3565b506001600160a01b031660009081526004602052604090205490565b6000546001600160a01b03163314610b2c5760405162461bcd60e51b815260206004820181905260248201527f4f776e61626c653a2063616c6c6572206973206e6f7420746865206f776e657260448201526064016104b3565b610b366000611319565b565b6060600280546103bb9061222c565b61091b338383611369565b600080546001600160a01b03163314610bad5760405162461bcd60e51b815260206004820181905260248201527f4f776e61626c653a2063616c6c6572206973206e6f7420746865206f776e657260448201526064016104b3565b60018211610c235760405162461bcd60e51b815260206004820152602860248201527f46756e6374696f6e20776f726b73206f6e6c7920666f72206d756c7469706c6560448201527f206d696e74696e6700000000000000000000000000000000000000000000000060648201526084016104b3565b60005b82811015610c4a57610c3784610805565b5080610c4281612267565b915050610c26565b5060019392505050565b610c5e3383610e78565b610cd05760405162461bcd60e51b815260206004820152603160248201527f4552433732313a207472616e736665722063616c6c6572206973206e6f74206f60448201527f776e6572206e6f7220617070726f76656400000000000000000000000000000060648201526084016104b3565b610cdc84848484611438565b50505050565b60606103a6826114c1565b6000546001600160a01b03163314610d475760405162461bcd60e51b815260206004820181905260248201527f4f776e61626c653a2063616c6c6572206973206e6f7420746865206f776e657260448201526064016104b3565b6001600160a01b038116610dc35760405162461bcd60e51b815260206004820152602660248201527f4f776e61626c653a206e6577206f776e657220697320746865207a65726f206160448201527f646472657373000000000000000000000000000000000000000000000000000060648201526084016104b3565b61075e81611319565b60006001600160e01b031982167f780e9d630000000000000000000000000000000000000000000000000000000014806103a657506103a68261163f565b600081815260056020526040902080546001600160a01b0319166001600160a01b0384169081179091558190610e3f8261091f565b6001600160a01b03167f8c5be1e5ebec7d5bd14f71427d1e84f3dd0314c0f7b2291e5b200ac8c7c3b92560405160405180910390a45050565b6000818152600360205260408120546001600160a01b0316610ef15760405162461bcd60e51b815260206004820152602c60248201527f4552433732313a206f70657261746f7220717565727920666f72206e6f6e657860448201526b34b9ba32b73a103a37b5b2b760a11b60648201526084016104b3565b6000610efc8361091f565b9050806001600160a01b0316846001600160a01b03161480610f375750836001600160a01b0316610f2c8461043e565b6001600160a01b0316145b80610f6757506001600160a01b0380821660009081526006602090815260408083209388168352929052205460ff165b949350505050565b826001600160a01b0316610f828261091f565b6001600160a01b031614610ffe5760405162461bcd60e51b815260206004820152602960248201527f4552433732313a207472616e73666572206f6620746f6b656e2074686174206960448201527f73206e6f74206f776e000000000000000000000000000000000000000000000060648201526084016104b3565b6001600160a01b0382166110795760405162461bcd60e51b8152602060048201526024808201527f4552433732313a207472616e7366657220746f20746865207a65726f2061646460448201527f726573730000000000000000000000000000000000000000000000000000000060648201526084016104b3565b6110848383836116da565b61108f600082610e0a565b6001600160a01b03831660009081526004602052604081208054600192906110b89084906121e9565b90915550506001600160a01b03821660009081526004602052604081208054600192906110e69084906121bd565b909155505060008181526003602052604080822080546001600160a01b0319166001600160a01b0386811691821790925591518493918716917fddf252ad1be2c89b69c2b068fc378daa952ba7f163c4a11628f55a4df523b3ef91a4505050565b6111503361060f565b6111c25760405162461bcd60e51b815260206004820152603060248201527f4552433732314275726e61626c653a2063616c6c6572206973206e6f74206f7760448201527f6e6572206e6f7220617070726f7665640000000000000000000000000000000060648201526084016104b3565b61075e816116e5565b6001600160a01b0382166112215760405162461bcd60e51b815260206004820181905260248201527f4552433732313a206d696e7420746f20746865207a65726f206164647265737360448201526064016104b3565b6000818152600360205260409020546001600160a01b0316156112865760405162461bcd60e51b815260206004820152601c60248201527f4552433732313a20746f6b656e20616c7265616479206d696e7465640000000060448201526064016104b3565b611292600083836116da565b6001600160a01b03821660009081526004602052604081208054600192906112bb9084906121bd565b909155505060008181526003602052604080822080546001600160a01b0319166001600160a01b03861690811790915590518392907fddf252ad1be2c89b69c2b068fc378daa952ba7f163c4a11628f55a4df523b3ef908290a45050565b600080546001600160a01b038381166001600160a01b0319831681178455604051919092169283917f8be0079c531659141344cd1fd0a4f28419497f9722a3daafe3b4186f6b6457e09190a35050565b816001600160a01b0316836001600160a01b031614156113cb5760405162461bcd60e51b815260206004820152601960248201527f4552433732313a20617070726f766520746f2063616c6c65720000000000000060448201526064016104b3565b6001600160a01b03838116600081815260066020908152604080832094871680845294825291829020805460ff191686151590811790915591519182527f17307eab39ab6107e8899845ad3d59bd9653f200f220920489ca2b5937696c31910160405180910390a3505050565b611443848484610f6f565b61144f848484846116ee565b610cdc5760405162461bcd60e51b815260206004820152603260248201527f4552433732313a207472616e7366657220746f206e6f6e20455243373231526560448201527f63656976657220696d706c656d656e746572000000000000000000000000000060648201526084016104b3565b6000818152600360205260409020546060906001600160a01b031661154e5760405162461bcd60e51b815260206004820152603160248201527f45524337323155524953746f726167653a2055524920717565727920666f722060448201527f6e6f6e6578697374656e7420746f6b656e00000000000000000000000000000060648201526084016104b3565b600082815260076020526040812080546115679061222c565b80601f01602080910402602001604051908101604052809291908181526020018280546115939061222c565b80156115e05780601f106115b5576101008083540402835291602001916115e0565b820191906000526020600020905b8154815290600101906020018083116115c357829003601f168201915b5050505050905060006115f1611851565b9050805160001415611604575092915050565b81511561163657808260405160200161161e92919061213f565b60405160208183030381529060405292505050919050565b610f6784611860565b60006001600160e01b031982167f80ac58cd0000000000000000000000000000000000000000000000000000000014806116a257506001600160e01b031982167f5b5e139f00000000000000000000000000000000000000000000000000000000145b806103a657507f01ffc9a7000000000000000000000000000000000000000000000000000000006001600160e01b03198316146103a6565b610605838383611949565b61075e81611a01565b60006001600160a01b0384163b1561184657604051630a85bd0160e11b81526001600160a01b0385169063150b7a029061173290339089908890889060040161216e565b602060405180830381600087803b15801561174c57600080fd5b505af192505050801561177c575060408051601f3d908101601f1916820190925261177991810190612094565b60015b61182c573d8080156117aa576040519150601f19603f3d011682016040523d82523d6000602084013e6117af565b606091505b5080516118245760405162461bcd60e51b815260206004820152603260248201527f4552433732313a207472616e7366657220746f206e6f6e20455243373231526560448201527f63656976657220696d706c656d656e746572000000000000000000000000000060648201526084016104b3565b805181602001fd5b6001600160e01b031916630a85bd0160e11b149050610f67565b506001949350505050565b6060600d80546103bb9061222c565b6000818152600360205260409020546060906001600160a01b03166118ed5760405162461bcd60e51b815260206004820152602f60248201527f4552433732314d657461646174613a2055524920717565727920666f72206e6f60448201527f6e6578697374656e7420746f6b656e000000000000000000000000000000000060648201526084016104b3565b60006118f7611851565b905060008151116119175760405180602001604052806000815250611942565b8061192184611a41565b60405160200161193292919061213f565b6040516020818303038152906040525b9392505050565b6001600160a01b0383166119a45761199f81600a80546000838152600b60205260408120829055600182018355919091527fc65a7bb8d6351c1cf70c95a316cc6a92839c986682d98bc35f958f4883f9d2a80155565b6119c7565b816001600160a01b0316836001600160a01b0316146119c7576119c78382611b73565b6001600160a01b0382166119de5761060581611c10565b826001600160a01b0316826001600160a01b031614610605576106058282611cbf565b611a0a81611d03565b60008181526007602052604090208054611a239061222c565b15905061075e57600081815260076020526040812061075e91611e2e565b606081611a8157505060408051808201909152600181527f3000000000000000000000000000000000000000000000000000000000000000602082015290565b8160005b8115611aab5780611a9581612267565b9150611aa49050600a836121d5565b9150611a85565b60008167ffffffffffffffff811115611ac657611ac66122ee565b6040519080825280601f01601f191660200182016040528015611af0576020820181803683370190505b5090505b8415610f6757611b056001836121e9565b9150611b12600a86612282565b611b1d9060306121bd565b60f81b818381518110611b3257611b326122d8565b60200101907effffffffffffffffffffffffffffffffffffffffffffffffffffffffffffff1916908160001a905350611b6c600a866121d5565b9450611af4565b60006001611b8084610a38565b611b8a91906121e9565b600083815260096020526040902054909150808214611bdd576001600160a01b03841660009081526008602090815260408083208584528252808320548484528184208190558352600990915290208190555b5060009182526009602090815260408084208490556001600160a01b039094168352600881528383209183525290812055565b600a54600090611c22906001906121e9565b6000838152600b6020526040812054600a8054939450909284908110611c4a57611c4a6122d8565b9060005260206000200154905080600a8381548110611c6b57611c6b6122d8565b6000918252602080832090910192909255828152600b9091526040808220849055858252812055600a805480611ca357611ca36122c2565b6001900381819060005260206000200160009055905550505050565b6000611cca83610a38565b6001600160a01b039093166000908152600860209081526040808320868452825280832085905593825260099052919091209190915550565b6000611d0e8261091f565b9050611d1c816000846116da565b611d27600083610e0a565b6001600160a01b0381166000908152600460205260408120805460019290611d509084906121e9565b909155505060008281526003602052604080822080546001600160a01b0319169055518391906001600160a01b038416907fddf252ad1be2c89b69c2b068fc378daa952ba7f163c4a11628f55a4df523b3ef908390a45050565b828054611db69061222c565b90600052602060002090601f016020900481019282611dd85760008555611e1e565b82601f10611df157805160ff1916838001178555611e1e565b82800160010185558215611e1e579182015b82811115611e1e578251825591602001919060010190611e03565b50611e2a929150611e64565b5090565b508054611e3a9061222c565b6000825580601f10611e4a575050565b601f01602090049060005260206000209081019061075e91905b5b80821115611e2a5760008155600101611e65565b600067ffffffffffffffff80841115611e9457611e946122ee565b604051601f8501601f19908116603f01168101908282118183101715611ebc57611ebc6122ee565b81604052809350858152868686011115611ed557600080fd5b858560208301376000602087830101525050509392505050565b80356001600160a01b0381168114611f0657600080fd5b919050565b600060208284031215611f1d57600080fd5b61194282611eef565b60008060408385031215611f3957600080fd5b611f4283611eef565b9150611f5060208401611eef565b90509250929050565b600080600060608486031215611f6e57600080fd5b611f7784611eef565b9250611f8560208501611eef565b9150604084013590509250925092565b60008060008060808587031215611fab57600080fd5b611fb485611eef565b9350611fc260208601611eef565b925060408501359150606085013567ffffffffffffffff811115611fe557600080fd5b8501601f81018713611ff657600080fd5b61200587823560208401611e79565b91505092959194509250565b6000806040838503121561202457600080fd5b61202d83611eef565b91506020830135801515811461204257600080fd5b809150509250929050565b6000806040838503121561206057600080fd5b61206983611eef565b946020939093013593505050565b60006020828403121561208957600080fd5b813561194281612304565b6000602082840312156120a657600080fd5b815161194281612304565b6000602082840312156120c357600080fd5b813567ffffffffffffffff8111156120da57600080fd5b8201601f810184136120eb57600080fd5b610f6784823560208401611e79565b60006020828403121561210c57600080fd5b5035919050565b6000815180845261212b816020860160208601612200565b601f01601f19169290920160200192915050565b60008351612151818460208801612200565b835190830190612165818360208801612200565b01949350505050565b60006001600160a01b038087168352808616602084015250836040830152608060608301526121a06080830184612113565b9695505050505050565b6020815260006119426020830184612113565b600082198211156121d0576121d0612296565b500190565b6000826121e4576121e46122ac565b500490565b6000828210156121fb576121fb612296565b500390565b60005b8381101561221b578181015183820152602001612203565b83811115610cdc5750506000910152565b600181811c9082168061224057607f821691505b6020821081141561226157634e487b7160e01b600052602260045260246000fd5b50919050565b600060001982141561227b5761227b612296565b5060010190565b600082612291576122916122ac565b500690565b634e487b7160e01b600052601160045260246000fd5b634e487b7160e01b600052601260045260246000fd5b634e487b7160e01b600052603160045260246000fd5b634e487b7160e01b600052603260045260246000fd5b634e487b7160e01b600052604160045260246000fd5b6001600160e01b03198116811461075e57600080fdfea164736f6c6343000806000a",
  "linkReferences": {},
  "deployedLinkReferences": {}
}