{
  "_format": "hh-sol-artifact-1",
  "contractName": "RCDY_Router",
  "sourceName": "contracts/RCDY_Router.sol",
  "abi": [
    {
      "inputs": [
        {
          "internalType": "address",
          "name": "_uniswapV2RouterAddress",
          "type": "address"
        },
        {
          "internalType": "address",
          "name": "_rcdy",
          "type": "address"
        },
        {
          "internalType": "uint256",
          "name": "_swapfee",
          "type": "uint256"
        }
      ],
      "stateMutability": "nonpayable",
      "type": "constructor"
    },
    {
      "anonymous": false,
      "inputs": [
        {
          "indexed": true,
          "internalType": "address",
          "name": "receiver",
          "type": "address"
        },
        {
          "indexed": false,
          "internalType": "uint256",
          "name": "amount",
          "type": "uint256"
        }
      ],
      "name": "ClaimedFee",
      "type": "event"
    },
    {
      "anonymous": false,
      "inputs": [
        {
          "indexed": true,
          "internalType": "address",
          "name": "user",
          "type": "address"
        },
        {
          "indexed": false,
          "internalType": "uint256",
          "name": "ethSpent",
          "type": "uint256"
        },
        {
          "indexed": false,
          "internalType": "uint256",
          "name": "tokenReceived",
          "type": "uint256"
        }
      ],
      "name": "EthToTokenSwap",
      "type": "event"
    },
    {
      "anonymous": false,
      "inputs": [
        {
          "indexed": true,
          "internalType": "address",
          "name": "previousOwner",
          "type": "address"
        },
        {
          "indexed": true,
          "internalType": "address",
          "name": "newOwner",
          "type": "address"
        }
      ],
      "name": "OwnershipTransferred",
      "type": "event"
    },
    {
      "anonymous": false,
      "inputs": [
        {
          "indexed": true,
          "internalType": "address",
          "name": "user",
          "type": "address"
        },
        {
          "indexed": false,
          "internalType": "address",
          "name": "tokenA",
          "type": "address"
        },
        {
          "indexed": false,
          "internalType": "address",
          "name": "tokenB",
          "type": "address"
        },
        {
          "indexed": false,
          "internalType": "uint256",
          "name": "tokenSpent",
          "type": "uint256"
        },
        {
          "indexed": false,
          "internalType": "uint256",
          "name": "tokenReceived",
          "type": "uint256"
        }
      ],
      "name": "TokenToTokenSwap",
      "type": "event"
    },
    {
      "inputs": [
        {
          "internalType": "address",
          "name": "_user",
          "type": "address"
        }
      ],
      "name": "checkEthBalance",
      "outputs": [
        {
          "internalType": "uint256",
          "name": "balance",
          "type": "uint256"
        }
      ],
      "stateMutability": "view",
      "type": "function"
    },
    {
      "inputs": [
        {
          "internalType": "address",
          "name": "_token",
          "type": "address"
        },
        {
          "internalType": "address",
          "name": "_user",
          "type": "address"
        }
      ],
      "name": "checkTokenBalance",
      "outputs": [
        {
          "internalType": "uint256",
          "name": "balance",
          "type": "uint256"
        }
      ],
      "stateMutability": "view",
      "type": "function"
    },
    {
      "inputs": [
        {
          "internalType": "address",
          "name": "_receiver",
          "type": "address"
        },
        {
          "internalType": "uint256",
          "name": "_amount",
          "type": "uint256"
        }
      ],
      "name": "claimFee",
      "outputs": [
        {
          "internalType": "bool",
          "name": "success",
          "type": "bool"
        }
      ],
      "stateMutability": "nonpayable",
      "type": "function"
    },
    {
      "inputs": [],
      "name": "claimableFee",
      "outputs": [
        {
          "internalType": "uint256",
          "name": "",
          "type": "uint256"
        }
      ],
      "stateMutability": "view",
      "type": "function"
    },
    {
      "inputs": [],
      "name": "owner",
      "outputs": [
        {
          "internalType": "address",
          "name": "",
          "type": "address"
        }
      ],
      "stateMutability": "view",
      "type": "function"
    },
    {
      "inputs": [],
      "name": "renounceOwnership",
      "outputs": [],
      "stateMutability": "nonpayable",
      "type": "function"
    },
    {
      "inputs": [],
      "name": "swapETHForRCDY",
      "outputs": [],
      "stateMutability": "payable",
      "type": "function"
    },
    {
      "inputs": [],
      "name": "swapFee",
      "outputs": [
        {
          "internalType": "uint256",
          "name": "",
          "type": "uint256"
        }
      ],
      "stateMutability": "view",
      "type": "function"
    },
    {
      "inputs": [
        {
          "internalType": "address",
          "name": "_tokenIn",
          "type": "address"
        },
        {
          "internalType": "uint256",
          "name": "_amountIn",
          "type": "uint256"
        },
        {
          "internalType": "uint256",
          "name": "_amountOutMin",
          "type": "uint256"
        }
      ],
      "name": "swapTokensForRCDY",
      "outputs": [],
      "stateMutability": "nonpayable",
      "type": "function"
    },
    {
      "inputs": [
        {
          "internalType": "address",
          "name": "newOwner",
          "type": "address"
        }
      ],
      "name": "transferOwnership",
      "outputs": [],
      "stateMutability": "nonpayable",
      "type": "function"
    }
  ],
  "bytecode": "0x608060405234801561001057600080fd5b50604051620013ee380380620013ee833981016040819052610031916100de565b61003a33610072565b600280546001600160a01b039485166001600160a01b031991821617909155600180549390941692169190911790915560035561011a565b600080546001600160a01b038381166001600160a01b0319831681178455604051919092169283917f8be0079c531659141344cd1fd0a4f28419497f9722a3daafe3b4186f6b6457e09190a35050565b80516001600160a01b03811681146100d957600080fd5b919050565b6000806000606084860312156100f357600080fd5b6100fc846100c2565b925061010a602085016100c2565b9150604084015190509250925092565b6112c4806200012a6000396000f3fe6080604052600436106100b15760003560e01c80638da5cb5b11610069578063dda407971161004e578063dda4079714610184578063deadd1fb146101b4578063f2fde38b146101d457600080fd5b80638da5cb5b146101345780639a9a5cdb1461015c57600080fd5b80636cc2dae61161009a5780636cc2dae6146100ff578063715018a614610109578063719d41f41461011e57600080fd5b806334f91499146100b657806354cf2aeb146100e9575b600080fd5b3480156100c257600080fd5b506100d66100d1366004610f26565b6101f4565b6040519081526020015b60405180910390f35b3480156100f557600080fd5b506100d660035481565b610107610291565b005b34801561011557600080fd5b506101076105b4565b34801561012a57600080fd5b506100d660045481565b34801561014057600080fd5b506000546040516001600160a01b0390911681526020016100e0565b34801561016857600080fd5b506100d6610177366004610eec565b6001600160a01b03163190565b34801561019057600080fd5b506101a461019f366004610f5f565b61061a565b60405190151581526020016100e0565b3480156101c057600080fd5b506101076101cf366004610f8b565b610741565b3480156101e057600080fd5b506101076101ef366004610eec565b610a29565b6040517f70a082310000000000000000000000000000000000000000000000000000000081526001600160a01b038281166004830152600091908416906370a082319060240160206040518083038186803b15801561025257600080fd5b505afa158015610266573d6000803e3d6000fd5b505050506040513d601f19601f8201168201806040525081019061028a91906110a7565b9392505050565b600034116102e65760405162461bcd60e51b815260206004820152601460248201527f496e73756666696369656e742042616c616e636500000000000000000000000060448201526064015b60405180910390fd5b6040805160028082526060820183526000926020830190803683375050600254604080517fad5c464800000000000000000000000000000000000000000000000000000000815290519394506001600160a01b039091169263ad5c464892506004808301926020929190829003018186803b15801561036457600080fd5b505afa158015610378573d6000803e3d6000fd5b505050506040513d601f19601f8201168201806040525081019061039c9190610f09565b816000815181106103af576103af611276565b6001600160a01b03928316602091820292909201015260018054835192169183919081106103df576103df611276565b6001600160a01b0392831660209182029290920101526002546040517f7ff36ab50000000000000000000000000000000000000000000000000000000081526000929190911690637ff36ab590349061044390600190879030904290600401611120565b6000604051808303818588803b15801561045c57600080fd5b505af1158015610470573d6000803e3d6000fd5b50505050506040513d6000823e601f3d908101601f191682016040526104999190810190610fc0565b90506000620186a0826001815181106104b4576104b4611276565b60200260200101516003546104c991906111fe565b6104d391906111dc565b90506105123382846001815181106104ed576104ed611276565b60200260200101516104ff919061121d565b6001546001600160a01b03169190610b0b565b806004600082825461052491906111c4565b92505081905550336001600160a01b03167f6d4870e9281c01ea54a4420c8684ac713b77f0c590b40c4b1fbf4c6ba892ccea8360008151811061056957610569611276565b6020026020010151838560018151811061058557610585611276565b6020026020010151610597919061121d565b6040805192835260208301919091520160405180910390a2505050565b6000546001600160a01b0316331461060e5760405162461bcd60e51b815260206004820181905260248201527f4f776e61626c653a2063616c6c6572206973206e6f7420746865206f776e657260448201526064016102dd565b6106186000610bb9565b565b600080546001600160a01b031633146106755760405162461bcd60e51b815260206004820181905260248201527f4f776e61626c653a2063616c6c6572206973206e6f7420746865206f776e657260448201526064016102dd565b6004548211156106c75760405162461bcd60e51b815260206004820152601460248201527f4e6f7420656e6f75676820617661696c61626c6500000000000000000000000060448201526064016102dd565b81600460008282546106d9919061121d565b90915550506001546106f5906001600160a01b03168484610b0b565b826001600160a01b03167f09ee811ed78195b9f7dde27d29bdfb9fc6f9eba3032a585b0f20dbf927ba032a8360405161073091815260200190565b60405180910390a250600192915050565b6107566001600160a01b038416333085610c21565b6002546040517f095ea7b30000000000000000000000000000000000000000000000000000000081526001600160a01b039182166004820152602481018490529084169063095ea7b390604401602060405180830381600087803b1580156107bd57600080fd5b505af11580156107d1573d6000803e3d6000fd5b505050506040513d601f19601f820116820180604052508101906107f59190611085565b50604080516002808252606082018352600092602083019080368337019050509050838160008151811061082b5761082b611276565b6001600160a01b039283166020918202929092010152600180548351921691839190811061085b5761085b611276565b6001600160a01b0392831660209182029290920101526002546040517f38ed173900000000000000000000000000000000000000000000000000000000815260009291909116906338ed1739906108be9087908790879030904290600401611188565b600060405180830381600087803b1580156108d857600080fd5b505af11580156108ec573d6000803e3d6000fd5b505050506040513d6000823e601f3d908101601f191682016040526109149190810190610fc0565b90506000620186a08260018151811061092f5761092f611276565b602002602001015160035461094491906111fe565b61094e91906111dc565b90506109683382846001815181106104ed576104ed611276565b806004600082825461097a91906111c4565b9091555050600154825133917f15c82f4e673e9ecb8026aa0a314ff3ea2ca394b291a9f3960edf9e4fa06c17a79189916001600160a01b03169086906000906109c5576109c5611276565b602002602001015185876001815181106109e1576109e1611276565b60200260200101516109f3919061121d565b604080516001600160a01b03958616815294909316602085015291830152606082015260800160405180910390a2505050505050565b6000546001600160a01b03163314610a835760405162461bcd60e51b815260206004820181905260248201527f4f776e61626c653a2063616c6c6572206973206e6f7420746865206f776e657260448201526064016102dd565b6001600160a01b038116610aff5760405162461bcd60e51b815260206004820152602660248201527f4f776e61626c653a206e6577206f776e657220697320746865207a65726f206160448201527f646472657373000000000000000000000000000000000000000000000000000060648201526084016102dd565b610b0881610bb9565b50565b6040516001600160a01b038316602482015260448101829052610bb49084907fa9059cbb00000000000000000000000000000000000000000000000000000000906064015b60408051601f198184030181529190526020810180517bffffffffffffffffffffffffffffffffffffffffffffffffffffffff167fffffffff0000000000000000000000000000000000000000000000000000000090931692909217909152610c78565b505050565b600080546001600160a01b038381167fffffffffffffffffffffffff0000000000000000000000000000000000000000831681178455604051919092169283917f8be0079c531659141344cd1fd0a4f28419497f9722a3daafe3b4186f6b6457e09190a35050565b6040516001600160a01b0380851660248301528316604482015260648101829052610c729085907f23b872dd0000000000000000000000000000000000000000000000000000000090608401610b50565b50505050565b6000610ccd826040518060400160405280602081526020017f5361666545524332303a206c6f772d6c6576656c2063616c6c206661696c6564815250856001600160a01b0316610d5d9092919063ffffffff16565b805190915015610bb45780806020019051810190610ceb9190611085565b610bb45760405162461bcd60e51b815260206004820152602a60248201527f5361666545524332303a204552433230206f7065726174696f6e20646964206e60448201527f6f7420737563636565640000000000000000000000000000000000000000000060648201526084016102dd565b6060610d6c8484600085610d74565b949350505050565b606082471015610dec5760405162461bcd60e51b815260206004820152602660248201527f416464726573733a20696e73756666696369656e742062616c616e636520666f60448201527f722063616c6c000000000000000000000000000000000000000000000000000060648201526084016102dd565b843b610e3a5760405162461bcd60e51b815260206004820152601d60248201527f416464726573733a2063616c6c20746f206e6f6e2d636f6e747261637400000060448201526064016102dd565b600080866001600160a01b03168587604051610e569190611104565b60006040518083038185875af1925050503d8060008114610e93576040519150601f19603f3d011682016040523d82523d6000602084013e610e98565b606091505b5091509150610ea8828286610eb3565b979650505050505050565b60608315610ec257508161028a565b825115610ed25782518084602001fd5b8160405162461bcd60e51b81526004016102dd9190611155565b600060208284031215610efe57600080fd5b813561028a816112a2565b600060208284031215610f1b57600080fd5b815161028a816112a2565b60008060408385031215610f3957600080fd5b8235610f44816112a2565b91506020830135610f54816112a2565b809150509250929050565b60008060408385031215610f7257600080fd5b8235610f7d816112a2565b946020939093013593505050565b600080600060608486031215610fa057600080fd5b8335610fab816112a2565b95602085013595506040909401359392505050565b60006020808385031215610fd357600080fd5b825167ffffffffffffffff80821115610feb57600080fd5b818501915085601f830112610fff57600080fd5b8151818111156110115761101161128c565b8060051b604051601f19603f830116810181811085821117156110365761103661128c565b604052828152858101935084860182860187018a101561105557600080fd5b600095505b8386101561107857805185526001959095019493860193860161105a565b5098975050505050505050565b60006020828403121561109757600080fd5b8151801515811461028a57600080fd5b6000602082840312156110b957600080fd5b5051919050565b600081518084526020808501945080840160005b838110156110f95781516001600160a01b0316875295820195908201906001016110d4565b509495945050505050565b60008251611116818460208701611234565b9190910192915050565b84815260806020820152600061113960808301866110c0565b6001600160a01b03949094166040830152506060015292915050565b6020815260008251806020840152611174816040850160208701611234565b601f01601f19169190910160400192915050565b85815284602082015260a0604082015260006111a760a08301866110c0565b6001600160a01b0394909416606083015250608001529392505050565b600082198211156111d7576111d7611260565b500190565b6000826111f957634e487b7160e01b600052601260045260246000fd5b500490565b600081600019048311821515161561121857611218611260565b500290565b60008282101561122f5761122f611260565b500390565b60005b8381101561124f578181015183820152602001611237565b83811115610c725750506000910152565b634e487b7160e01b600052601160045260246000fd5b634e487b7160e01b600052603260045260246000fd5b634e487b7160e01b600052604160045260246000fd5b6001600160a01b0381168114610b0857600080fdfea164736f6c6343000806000a",
  "linkReferences": {},
  "deployedLinkReferences": {}
}