{
  "_format": "hh-sol-artifact-1",
  "contractName": "RCDY_Router",
  "sourceName": "contracts/RCDY_Router.sol",
  "abi": [
    {
      "inputs": [
        {
          "internalType": "address",
          "name": "_uniswapV2RouterAddress",
          "type": "address"
        },
        {
          "internalType": "address",
          "name": "_rcdy",
          "type": "address"
        },
        {
          "internalType": "uint256",
          "name": "_swapfee",
          "type": "uint256"
        }
      ],
      "stateMutability": "nonpayable",
      "type": "constructor"
    },
    {
      "anonymous": false,
      "inputs": [
        {
          "indexed": true,
          "internalType": "address",
          "name": "receiver",
          "type": "address"
        },
        {
          "indexed": false,
          "internalType": "uint256",
          "name": "amount",
          "type": "uint256"
        }
      ],
      "name": "ClaimedFee",
      "type": "event"
    },
    {
      "anonymous": false,
      "inputs": [
        {
          "indexed": true,
          "internalType": "address",
          "name": "user",
          "type": "address"
        },
        {
          "indexed": false,
          "internalType": "uint256",
          "name": "ethSpent",
          "type": "uint256"
        },
        {
          "indexed": false,
          "internalType": "uint256",
          "name": "tokenReceived",
          "type": "uint256"
        }
      ],
      "name": "EthToTokenSwap",
      "type": "event"
    },
    {
      "anonymous": false,
      "inputs": [
        {
          "indexed": true,
          "internalType": "address",
          "name": "previousOwner",
          "type": "address"
        },
        {
          "indexed": true,
          "internalType": "address",
          "name": "newOwner",
          "type": "address"
        }
      ],
      "name": "OwnershipTransferred",
      "type": "event"
    },
    {
      "anonymous": false,
      "inputs": [
        {
          "indexed": true,
          "internalType": "address",
          "name": "user",
          "type": "address"
        },
        {
          "indexed": false,
          "internalType": "address",
          "name": "tokenA",
          "type": "address"
        },
        {
          "indexed": false,
          "internalType": "address",
          "name": "tokenB",
          "type": "address"
        },
        {
          "indexed": false,
          "internalType": "uint256",
          "name": "tokenSpent",
          "type": "uint256"
        },
        {
          "indexed": false,
          "internalType": "uint256",
          "name": "tokenReceived",
          "type": "uint256"
        }
      ],
      "name": "TokenToTokenSwap",
      "type": "event"
    },
    {
      "inputs": [
        {
          "internalType": "address",
          "name": "_user",
          "type": "address"
        }
      ],
      "name": "checkEthBalance",
      "outputs": [
        {
          "internalType": "uint256",
          "name": "balance",
          "type": "uint256"
        }
      ],
      "stateMutability": "view",
      "type": "function"
    },
    {
      "inputs": [
        {
          "internalType": "address",
          "name": "_token",
          "type": "address"
        },
        {
          "internalType": "address",
          "name": "_user",
          "type": "address"
        }
      ],
      "name": "checkTokenBalance",
      "outputs": [
        {
          "internalType": "uint256",
          "name": "balance",
          "type": "uint256"
        }
      ],
      "stateMutability": "view",
      "type": "function"
    },
    {
      "inputs": [
        {
          "internalType": "address",
          "name": "_receiver",
          "type": "address"
        },
        {
          "internalType": "uint256",
          "name": "_amount",
          "type": "uint256"
        }
      ],
      "name": "claimFee",
      "outputs": [
        {
          "internalType": "bool",
          "name": "success",
          "type": "bool"
        }
      ],
      "stateMutability": "nonpayable",
      "type": "function"
    },
    {
      "inputs": [],
      "name": "claimableFee",
      "outputs": [
        {
          "internalType": "uint256",
          "name": "",
          "type": "uint256"
        }
      ],
      "stateMutability": "view",
      "type": "function"
    },
    {
      "inputs": [],
      "name": "owner",
      "outputs": [
        {
          "internalType": "address",
          "name": "",
          "type": "address"
        }
      ],
      "stateMutability": "view",
      "type": "function"
    },
    {
      "inputs": [],
      "name": "renounceOwnership",
      "outputs": [],
      "stateMutability": "nonpayable",
      "type": "function"
    },
    {
      "inputs": [],
      "name": "swapETHForRCDY",
      "outputs": [],
      "stateMutability": "payable",
      "type": "function"
    },
    {
      "inputs": [],
      "name": "swapFee",
      "outputs": [
        {
          "internalType": "uint256",
          "name": "",
          "type": "uint256"
        }
      ],
      "stateMutability": "view",
      "type": "function"
    },
    {
      "inputs": [
        {
          "internalType": "address",
          "name": "_tokenIn",
          "type": "address"
        },
        {
          "internalType": "uint256",
          "name": "_amountIn",
          "type": "uint256"
        },
        {
          "internalType": "uint256",
          "name": "_amountOutMin",
          "type": "uint256"
        }
      ],
      "name": "swapTokensForRCDY",
      "outputs": [],
      "stateMutability": "nonpayable",
      "type": "function"
    },
    {
      "inputs": [
        {
          "internalType": "address",
          "name": "newOwner",
          "type": "address"
        }
      ],
      "name": "transferOwnership",
      "outputs": [],
      "stateMutability": "nonpayable",
      "type": "function"
    }
  ],
  "bytecode": "0x608060405234801561001057600080fd5b5060405161121138038061121183398101604081905261002f916100dc565b61003833610070565b600280546001600160a01b039485166001600160a01b0319918216179091556001805493909416921691909117909155600355610118565b600080546001600160a01b038381166001600160a01b0319831681178455604051919092169283917f8be0079c531659141344cd1fd0a4f28419497f9722a3daafe3b4186f6b6457e09190a35050565b80516001600160a01b03811681146100d757600080fd5b919050565b6000806000606084860312156100f157600080fd5b6100fa846100c0565b9250610108602085016100c0565b9150604084015190509250925092565b6110ea806101276000396000f3fe6080604052600436106100815760003560e01c806334f914991461008657806354cf2aeb146100b95780636cc2dae6146100cf578063715018a6146100d9578063719d41f4146100ee5780638da5cb5b146101045780639a9a5cdb14610126578063dda407971461014e578063deadd1fb1461017e578063f2fde38b1461019e575b600080fd5b34801561009257600080fd5b506100a66100a1366004610d20565b6101be565b6040519081526020015b60405180910390f35b3480156100c557600080fd5b506100a660035481565b6100d7610244565b005b3480156100e557600080fd5b506100d761052c565b3480156100fa57600080fd5b506100a660045481565b34801561011057600080fd5b50610119610540565b6040516100b09190610f19565b34801561013257600080fd5b506100a6610141366004610ce6565b6001600160a01b03163190565b34801561015a57600080fd5b5061016e610169366004610d59565b61054f565b60405190151581526020016100b0565b34801561018a57600080fd5b506100d7610199366004610d85565b61061c565b3480156101aa57600080fd5b506100d76101b9366004610ce6565b6108d2565b6040516370a0823160e01b81526000906001600160a01b038416906370a08231906101ed908590600401610f19565b60206040518083038186803b15801561020557600080fd5b505afa158015610219573d6000803e3d6000fd5b505050506040513d601f19601f8201168201806040525081019061023d9190610ea0565b9392505050565b600034116102905760405162461bcd60e51b8152602060048201526014602482015273496e73756666696369656e742042616c616e636560601b60448201526064015b60405180910390fd5b6040805160028082526060820183526000926020830190803683375050600254604080516315ab88c960e31b815290519394506001600160a01b039091169263ad5c464892506004808301926020929190829003018186803b1580156102f557600080fd5b505afa158015610309573d6000803e3d6000fd5b505050506040513d601f19601f8201168201806040525081019061032d9190610d03565b816000815181106103405761034061109c565b6001600160a01b03928316602091820292909201015260018054835192169183919081106103705761037061109c565b6001600160a01b039283166020918202929092010152600254604051637ff36ab560e01b81526000929190911690637ff36ab59034906103bb90600190879030904290600401610f46565b6000604051808303818588803b1580156103d457600080fd5b505af11580156103e8573d6000803e3d6000fd5b50505050506040513d6000823e601f3d908101601f191682016040526104119190810190610dba565b90506000620186a08260018151811061042c5761042c61109c565b60200260200101516003546104419190611024565b61044b9190611002565b905061048a3382846001815181106104655761046561109c565b60200260200101516104779190611043565b6001546001600160a01b0316919061094b565b806004600082825461049c9190610fea565b92505081905550336001600160a01b03167f6d4870e9281c01ea54a4420c8684ac713b77f0c590b40c4b1fbf4c6ba892ccea836000815181106104e1576104e161109c565b602002602001015183856001815181106104fd576104fd61109c565b602002602001015161050f9190611043565b6040805192835260208301919091520160405180910390a2505050565b6105346109a6565b61053e6000610a05565b565b6000546001600160a01b031690565b60006105596109a6565b6004548211156105a25760405162461bcd60e51b81526020600482015260146024820152734e6f7420656e6f75676820617661696c61626c6560601b6044820152606401610287565b81600460008282546105b49190611043565b90915550506001546105d0906001600160a01b0316848461094b565b826001600160a01b03167f09ee811ed78195b9f7dde27d29bdfb9fc6f9eba3032a585b0f20dbf927ba032a8360405161060b91815260200190565b60405180910390a250600192915050565b6106316001600160a01b038416333085610a55565b60025460405163095ea7b360e01b81526001600160a01b038581169263095ea7b39261066592909116908690600401610f2d565b602060405180830381600087803b15801561067f57600080fd5b505af1158015610693573d6000803e3d6000fd5b505050506040513d601f19601f820116820180604052508101906106b79190610e7e565b5060408051600280825260608201835260009260208301908036833701905050905083816000815181106106ed576106ed61109c565b6001600160a01b039283166020918202929092010152600180548351921691839190811061071d5761071d61109c565b6001600160a01b0392831660209182029290920101526002546040516338ed173960e01b815260009291909116906338ed1739906107679087908790879030904290600401610fae565b600060405180830381600087803b15801561078157600080fd5b505af1158015610795573d6000803e3d6000fd5b505050506040513d6000823e601f3d908101601f191682016040526107bd9190810190610dba565b90506000620186a0826001815181106107d8576107d861109c565b60200260200101516003546107ed9190611024565b6107f79190611002565b90506108113382846001815181106104655761046561109c565b80600460008282546108239190610fea565b9091555050600154825133917f15c82f4e673e9ecb8026aa0a314ff3ea2ca394b291a9f3960edf9e4fa06c17a79189916001600160a01b031690869060009061086e5761086e61109c565b6020026020010151858760018151811061088a5761088a61109c565b602002602001015161089c9190611043565b604080516001600160a01b03958616815294909316602085015291830152606082015260800160405180910390a2505050505050565b6108da6109a6565b6001600160a01b03811661093f5760405162461bcd60e51b815260206004820152602660248201527f4f776e61626c653a206e6577206f776e657220697320746865207a65726f206160448201526564647265737360d01b6064820152608401610287565b61094881610a05565b50565b6109a18363a9059cbb60e01b848460405160240161096a929190610f2d565b60408051601f198184030181529190526020810180516001600160e01b03166001600160e01b031990931692909217909152610a93565b505050565b336109af610540565b6001600160a01b03161461053e5760405162461bcd60e51b815260206004820181905260248201527f4f776e61626c653a2063616c6c6572206973206e6f7420746865206f776e65726044820152606401610287565b600080546001600160a01b038381166001600160a01b0319831681178455604051919092169283917f8be0079c531659141344cd1fd0a4f28419497f9722a3daafe3b4186f6b6457e09190a35050565b6040516001600160a01b0380851660248301528316604482015260648101829052610a8d9085906323b872dd60e01b9060840161096a565b50505050565b6000610ae8826040518060400160405280602081526020017f5361666545524332303a206c6f772d6c6576656c2063616c6c206661696c6564815250856001600160a01b0316610b659092919063ffffffff16565b8051909150156109a15780806020019051810190610b069190610e7e565b6109a15760405162461bcd60e51b815260206004820152602a60248201527f5361666545524332303a204552433230206f7065726174696f6e20646964206e6044820152691bdd081cdd58d8d9595960b21b6064820152608401610287565b6060610b748484600085610b7c565b949350505050565b606082471015610bdd5760405162461bcd60e51b815260206004820152602660248201527f416464726573733a20696e73756666696369656e742062616c616e636520666f6044820152651c8818d85b1b60d21b6064820152608401610287565b6001600160a01b0385163b610c345760405162461bcd60e51b815260206004820152601d60248201527f416464726573733a2063616c6c20746f206e6f6e2d636f6e74726163740000006044820152606401610287565b600080866001600160a01b03168587604051610c509190610efd565b60006040518083038185875af1925050503d8060008114610c8d576040519150601f19603f3d011682016040523d82523d6000602084013e610c92565b606091505b5091509150610ca2828286610cad565b979650505050505050565b60608315610cbc57508161023d565b825115610ccc5782518084602001fd5b8160405162461bcd60e51b81526004016102879190610f7b565b600060208284031215610cf857600080fd5b813561023d816110c8565b600060208284031215610d1557600080fd5b815161023d816110c8565b60008060408385031215610d3357600080fd5b8235610d3e816110c8565b91506020830135610d4e816110c8565b809150509250929050565b60008060408385031215610d6c57600080fd5b8235610d77816110c8565b946020939093013593505050565b600080600060608486031215610d9a57600080fd5b8335610da5816110c8565b95602085013595506040909401359392505050565b60006020808385031215610dcd57600080fd5b82516001600160401b0380821115610de457600080fd5b818501915085601f830112610df857600080fd5b815181811115610e0a57610e0a6110b2565b8060051b604051601f19603f83011681018181108582111715610e2f57610e2f6110b2565b604052828152858101935084860182860187018a1015610e4e57600080fd5b600095505b83861015610e71578051855260019590950194938601938601610e53565b5098975050505050505050565b600060208284031215610e9057600080fd5b8151801515811461023d57600080fd5b600060208284031215610eb257600080fd5b5051919050565b600081518084526020808501945080840160005b83811015610ef25781516001600160a01b031687529582019590820190600101610ecd565b509495945050505050565b60008251610f0f81846020870161105a565b9190910192915050565b6001600160a01b0391909116815260200190565b6001600160a01b03929092168252602082015260400190565b848152608060208201526000610f5f6080830186610eb9565b6001600160a01b03949094166040830152506060015292915050565b6020815260008251806020840152610f9a81604085016020870161105a565b601f01601f19169190910160400192915050565b85815284602082015260a060408201526000610fcd60a0830186610eb9565b6001600160a01b0394909416606083015250608001529392505050565b60008219821115610ffd57610ffd611086565b500190565b60008261101f57634e487b7160e01b600052601260045260246000fd5b500490565b600081600019048311821515161561103e5761103e611086565b500290565b60008282101561105557611055611086565b500390565b60005b8381101561107557818101518382015260200161105d565b83811115610a8d5750506000910152565b634e487b7160e01b600052601160045260246000fd5b634e487b7160e01b600052603260045260246000fd5b634e487b7160e01b600052604160045260246000fd5b6001600160a01b038116811461094857600080fdfea164736f6c6343000806000a",
  "linkReferences": {},
  "deployedLinkReferences": {}
}