{
  "_format": "hh-sol-artifact-1",
  "contractName": "Mock_RC3",
  "sourceName": "contracts/Mock_RC3.sol",
  "abi": [
    {
      "inputs": [],
      "stateMutability": "nonpayable",
      "type": "constructor"
    },
    {
      "anonymous": false,
      "inputs": [
        {
          "indexed": true,
          "internalType": "address",
          "name": "owner",
          "type": "address"
        },
        {
          "indexed": true,
          "internalType": "address",
          "name": "approved",
          "type": "address"
        },
        {
          "indexed": true,
          "internalType": "uint256",
          "name": "tokenId",
          "type": "uint256"
        }
      ],
      "name": "Approval",
      "type": "event"
    },
    {
      "anonymous": false,
      "inputs": [
        {
          "indexed": true,
          "internalType": "address",
          "name": "owner",
          "type": "address"
        },
        {
          "indexed": true,
          "internalType": "address",
          "name": "operator",
          "type": "address"
        },
        {
          "indexed": false,
          "internalType": "bool",
          "name": "approved",
          "type": "bool"
        }
      ],
      "name": "ApprovalForAll",
      "type": "event"
    },
    {
      "anonymous": false,
      "inputs": [
        {
          "indexed": true,
          "internalType": "address",
          "name": "admin",
          "type": "address"
        },
        {
          "indexed": true,
          "internalType": "uint256",
          "name": "tokenId",
          "type": "uint256"
        }
      ],
      "name": "Mint",
      "type": "event"
    },
    {
      "anonymous": false,
      "inputs": [
        {
          "indexed": true,
          "internalType": "address",
          "name": "previousOwner",
          "type": "address"
        },
        {
          "indexed": true,
          "internalType": "address",
          "name": "newOwner",
          "type": "address"
        }
      ],
      "name": "OwnershipTransferred",
      "type": "event"
    },
    {
      "anonymous": false,
      "inputs": [
        {
          "indexed": true,
          "internalType": "address",
          "name": "from",
          "type": "address"
        },
        {
          "indexed": true,
          "internalType": "address",
          "name": "to",
          "type": "address"
        },
        {
          "indexed": true,
          "internalType": "uint256",
          "name": "tokenId",
          "type": "uint256"
        }
      ],
      "name": "Transfer",
      "type": "event"
    },
    {
      "inputs": [
        {
          "internalType": "address",
          "name": "to",
          "type": "address"
        },
        {
          "internalType": "uint256",
          "name": "tokenId",
          "type": "uint256"
        }
      ],
      "name": "approve",
      "outputs": [],
      "stateMutability": "nonpayable",
      "type": "function"
    },
    {
      "inputs": [
        {
          "internalType": "address",
          "name": "owner",
          "type": "address"
        }
      ],
      "name": "balanceOf",
      "outputs": [
        {
          "internalType": "uint256",
          "name": "",
          "type": "uint256"
        }
      ],
      "stateMutability": "view",
      "type": "function"
    },
    {
      "inputs": [],
      "name": "baseURI",
      "outputs": [
        {
          "internalType": "string",
          "name": "",
          "type": "string"
        }
      ],
      "stateMutability": "view",
      "type": "function"
    },
    {
      "inputs": [
        {
          "internalType": "address",
          "name": "to",
          "type": "address"
        },
        {
          "internalType": "uint256",
          "name": "amount",
          "type": "uint256"
        }
      ],
      "name": "batchMintNFT",
      "outputs": [
        {
          "internalType": "bool",
          "name": "success",
          "type": "bool"
        }
      ],
      "stateMutability": "nonpayable",
      "type": "function"
    },
    {
      "inputs": [
        {
          "internalType": "uint256",
          "name": "tokenId",
          "type": "uint256"
        }
      ],
      "name": "burn",
      "outputs": [],
      "stateMutability": "nonpayable",
      "type": "function"
    },
    {
      "inputs": [
        {
          "internalType": "uint256",
          "name": "tokenId",
          "type": "uint256"
        }
      ],
      "name": "getApproved",
      "outputs": [
        {
          "internalType": "address",
          "name": "",
          "type": "address"
        }
      ],
      "stateMutability": "view",
      "type": "function"
    },
    {
      "inputs": [
        {
          "internalType": "address",
          "name": "owner",
          "type": "address"
        },
        {
          "internalType": "address",
          "name": "operator",
          "type": "address"
        }
      ],
      "name": "isApprovedForAll",
      "outputs": [
        {
          "internalType": "bool",
          "name": "",
          "type": "bool"
        }
      ],
      "stateMutability": "view",
      "type": "function"
    },
    {
      "inputs": [
        {
          "internalType": "address",
          "name": "to",
          "type": "address"
        }
      ],
      "name": "mintNFT",
      "outputs": [
        {
          "internalType": "uint256",
          "name": "newItemId",
          "type": "uint256"
        }
      ],
      "stateMutability": "nonpayable",
      "type": "function"
    },
    {
      "inputs": [],
      "name": "name",
      "outputs": [
        {
          "internalType": "string",
          "name": "",
          "type": "string"
        }
      ],
      "stateMutability": "view",
      "type": "function"
    },
    {
      "inputs": [],
      "name": "owner",
      "outputs": [
        {
          "internalType": "address",
          "name": "",
          "type": "address"
        }
      ],
      "stateMutability": "view",
      "type": "function"
    },
    {
      "inputs": [
        {
          "internalType": "uint256",
          "name": "tokenId",
          "type": "uint256"
        }
      ],
      "name": "ownerOf",
      "outputs": [
        {
          "internalType": "address",
          "name": "",
          "type": "address"
        }
      ],
      "stateMutability": "view",
      "type": "function"
    },
    {
      "inputs": [],
      "name": "renounceOwnership",
      "outputs": [],
      "stateMutability": "nonpayable",
      "type": "function"
    },
    {
      "inputs": [
        {
          "internalType": "address",
          "name": "from",
          "type": "address"
        },
        {
          "internalType": "address",
          "name": "to",
          "type": "address"
        },
        {
          "internalType": "uint256",
          "name": "tokenId",
          "type": "uint256"
        }
      ],
      "name": "safeTransferFrom",
      "outputs": [],
      "stateMutability": "nonpayable",
      "type": "function"
    },
    {
      "inputs": [
        {
          "internalType": "address",
          "name": "from",
          "type": "address"
        },
        {
          "internalType": "address",
          "name": "to",
          "type": "address"
        },
        {
          "internalType": "uint256",
          "name": "tokenId",
          "type": "uint256"
        },
        {
          "internalType": "bytes",
          "name": "_data",
          "type": "bytes"
        }
      ],
      "name": "safeTransferFrom",
      "outputs": [],
      "stateMutability": "nonpayable",
      "type": "function"
    },
    {
      "inputs": [
        {
          "internalType": "address",
          "name": "operator",
          "type": "address"
        },
        {
          "internalType": "bool",
          "name": "approved",
          "type": "bool"
        }
      ],
      "name": "setApprovalForAll",
      "outputs": [],
      "stateMutability": "nonpayable",
      "type": "function"
    },
    {
      "inputs": [
        {
          "internalType": "string",
          "name": "uri",
          "type": "string"
        }
      ],
      "name": "setBaseURI",
      "outputs": [],
      "stateMutability": "nonpayable",
      "type": "function"
    },
    {
      "inputs": [
        {
          "internalType": "bytes4",
          "name": "interfaceId",
          "type": "bytes4"
        }
      ],
      "name": "supportsInterface",
      "outputs": [
        {
          "internalType": "bool",
          "name": "itSupports",
          "type": "bool"
        }
      ],
      "stateMutability": "view",
      "type": "function"
    },
    {
      "inputs": [],
      "name": "symbol",
      "outputs": [
        {
          "internalType": "string",
          "name": "",
          "type": "string"
        }
      ],
      "stateMutability": "view",
      "type": "function"
    },
    {
      "inputs": [
        {
          "internalType": "uint256",
          "name": "index",
          "type": "uint256"
        }
      ],
      "name": "tokenByIndex",
      "outputs": [
        {
          "internalType": "uint256",
          "name": "",
          "type": "uint256"
        }
      ],
      "stateMutability": "view",
      "type": "function"
    },
    {
      "inputs": [
        {
          "internalType": "address",
          "name": "owner",
          "type": "address"
        },
        {
          "internalType": "uint256",
          "name": "index",
          "type": "uint256"
        }
      ],
      "name": "tokenOfOwnerByIndex",
      "outputs": [
        {
          "internalType": "uint256",
          "name": "",
          "type": "uint256"
        }
      ],
      "stateMutability": "view",
      "type": "function"
    },
    {
      "inputs": [
        {
          "internalType": "uint256",
          "name": "tokenId",
          "type": "uint256"
        }
      ],
      "name": "tokenURI",
      "outputs": [
        {
          "internalType": "string",
          "name": "URI",
          "type": "string"
        }
      ],
      "stateMutability": "view",
      "type": "function"
    },
    {
      "inputs": [],
      "name": "totalSupply",
      "outputs": [
        {
          "internalType": "uint256",
          "name": "",
          "type": "uint256"
        }
      ],
      "stateMutability": "view",
      "type": "function"
    },
    {
      "inputs": [
        {
          "internalType": "address",
          "name": "from",
          "type": "address"
        },
        {
          "internalType": "address",
          "name": "to",
          "type": "address"
        },
        {
          "internalType": "uint256",
          "name": "tokenId",
          "type": "uint256"
        }
      ],
      "name": "transferFrom",
      "outputs": [],
      "stateMutability": "nonpayable",
      "type": "function"
    },
    {
      "inputs": [
        {
          "internalType": "address",
          "name": "newOwner",
          "type": "address"
        }
      ],
      "name": "transferOwnership",
      "outputs": [],
      "stateMutability": "nonpayable",
      "type": "function"
    }
  ],
  "bytecode": "0x608060405260405180602001604052806000815250600d90805190602001906200002b9291906200031c565b503480156200003957600080fd5b506040518060400160405280601381526020017f50657267616d696e6f2044696d656e73696f6e000000000000000000000000008152506040518060400160405280600381526020017f504d440000000000000000000000000000000000000000000000000000000000815250620000c6620000ba6200011160201b60201c565b6200011960201b60201c565b8160019080519060200190620000de9291906200031c565b508060029080519060200190620000f79291906200031c565b5050506200010b33620001dd60201b60201c565b6200054c565b600033905090565b60008060009054906101000a900473ffffffffffffffffffffffffffffffffffffffff169050816000806101000a81548173ffffffffffffffffffffffffffffffffffffffff021916908373ffffffffffffffffffffffffffffffffffffffff1602179055508173ffffffffffffffffffffffffffffffffffffffff168173ffffffffffffffffffffffffffffffffffffffff167f8be0079c531659141344cd1fd0a4f28419497f9722a3daafe3b4186f6b6457e060405160405180910390a35050565b620001ed6200011160201b60201c565b73ffffffffffffffffffffffffffffffffffffffff1662000213620002f360201b60201c565b73ffffffffffffffffffffffffffffffffffffffff16146200026c576040517f08c379a000000000000000000000000000000000000000000000000000000000815260040162000263906200043c565b60405180910390fd5b600073ffffffffffffffffffffffffffffffffffffffff168173ffffffffffffffffffffffffffffffffffffffff161415620002df576040517f08c379a0000000000000000000000000000000000000000000000000000000008152600401620002d6906200041a565b60405180910390fd5b620002f0816200011960201b60201c565b50565b60008060009054906101000a900473ffffffffffffffffffffffffffffffffffffffff16905090565b8280546200032a906200046f565b90600052602060002090601f0160209004810192826200034e57600085556200039a565b82601f106200036957805160ff19168380011785556200039a565b828001600101855582156200039a579182015b82811115620003995782518255916020019190600101906200037c565b5b509050620003a99190620003ad565b5090565b5b80821115620003c8576000816000905550600101620003ae565b5090565b6000620003db6026836200045e565b9150620003e882620004d4565b604082019050919050565b6000620004026020836200045e565b91506200040f8262000523565b602082019050919050565b600060208201905081810360008301526200043581620003cc565b9050919050565b600060208201905081810360008301526200045781620003f3565b9050919050565b600082825260208201905092915050565b600060028204905060018216806200048857607f821691505b602082108114156200049f576200049e620004a5565b5b50919050565b7f4e487b7100000000000000000000000000000000000000000000000000000000600052602260045260246000fd5b7f4f776e61626c653a206e6577206f776e657220697320746865207a65726f206160008201527f6464726573730000000000000000000000000000000000000000000000000000602082015250565b7f4f776e61626c653a2063616c6c6572206973206e6f7420746865206f776e6572600082015250565b613d70806200055c6000396000f3fe608060405234801561001057600080fd5b50600436106101585760003560e01c80636352211e116100c3578063a22cb4651161007c578063a22cb465146103d9578063b33ea9ac146103f5578063b88d4fde14610425578063c87b56dd14610441578063e985e9c514610471578063f2fde38b146104a157610158565b80636352211e146103155780636c0360eb1461034557806370a0823114610363578063715018a6146103935780638da5cb5b1461039d57806395d89b41146103bb57610158565b80632f745c59116101155780632f745c591461023157806342842e0e1461026157806342966c681461027d5780634f6ccce71461029957806354ba0f27146102c957806355f804b3146102f957610158565b806301ffc9a71461015d57806306fdde031461018d578063081812fc146101ab578063095ea7b3146101db57806318160ddd146101f757806323b872dd14610215575b600080fd5b61017760048036038101906101729190612aa2565b6104bd565b6040516101849190612fac565b60405180910390f35b6101956104cf565b6040516101a29190612fc7565b60405180910390f35b6101c560048036038101906101c09190612b45565b610561565b6040516101d29190612f45565b60405180910390f35b6101f560048036038101906101f09190612a62565b6105e6565b005b6101ff6106fe565b60405161020c9190613289565b60405180910390f35b61022f600480360381019061022a919061294c565b61070b565b005b61024b60048036038101906102469190612a62565b61076b565b6040516102589190613289565b60405180910390f35b61027b6004803603810190610276919061294c565b610810565b005b61029760048036038101906102929190612b45565b610830565b005b6102b360048036038101906102ae9190612b45565b61083c565b6040516102c09190613289565b60405180910390f35b6102e360048036038101906102de91906128df565b6108ad565b6040516102f09190613289565b60405180910390f35b610313600480360381019061030e9190612afc565b61099b565b005b61032f600480360381019061032a9190612b45565b610a31565b60405161033c9190612f45565b60405180910390f35b61034d610ae3565b60405161035a9190612fc7565b60405180910390f35b61037d600480360381019061037891906128df565b610b71565b60405161038a9190613289565b60405180910390f35b61039b610c29565b005b6103a5610cb1565b6040516103b29190612f45565b60405180910390f35b6103c3610cda565b6040516103d09190612fc7565b60405180910390f35b6103f360048036038101906103ee9190612a22565b610d6c565b005b61040f600480360381019061040a9190612a62565b610d82565b60405161041c9190612fac565b60405180910390f35b61043f600480360381019061043a919061299f565b610e76565b005b61045b60048036038101906104569190612b45565b610ed8565b6040516104689190612fc7565b60405180910390f35b61048b6004803603810190610486919061290c565b610eea565b6040516104989190612fac565b60405180910390f35b6104bb60048036038101906104b691906128df565b610f7e565b005b60006104c882611076565b9050919050565b6060600180546104de906134df565b80601f016020809104026020016040519081016040528092919081815260200182805461050a906134df565b80156105575780601f1061052c57610100808354040283529160200191610557565b820191906000526020600020905b81548152906001019060200180831161053a57829003601f168201915b5050505050905090565b600061056c826110f0565b6105ab576040517f08c379a00000000000000000000000000000000000000000000000000000000081526004016105a290613189565b60405180910390fd5b6005600083815260200190815260200160002060009054906101000a900473ffffffffffffffffffffffffffffffffffffffff169050919050565b60006105f182610a31565b90508073ffffffffffffffffffffffffffffffffffffffff168373ffffffffffffffffffffffffffffffffffffffff161415610662576040517f08c379a000000000000000000000000000000000000000000000000000000000815260040161065990613209565b60405180910390fd5b8073ffffffffffffffffffffffffffffffffffffffff1661068161115c565b73ffffffffffffffffffffffffffffffffffffffff1614806106b057506106af816106aa61115c565b610eea565b5b6106ef576040517f08c379a00000000000000000000000000000000000000000000000000000000081526004016106e6906130e9565b60405180910390fd5b6106f98383611164565b505050565b6000600a80549050905090565b61071c61071661115c565b8261121d565b61075b576040517f08c379a000000000000000000000000000000000000000000000000000000000815260040161075290613229565b60405180910390fd5b6107668383836112fb565b505050565b600061077683610b71565b82106107b7576040517f08c379a00000000000000000000000000000000000000000000000000000000081526004016107ae90612fe9565b60405180910390fd5b600860008473ffffffffffffffffffffffffffffffffffffffff1673ffffffffffffffffffffffffffffffffffffffff168152602001908152602001600020600083815260200190815260200160002054905092915050565b61082b83838360405180602001604052806000815250610e76565b505050565b61083981611557565b50565b60006108466106fe565b8210610887576040517f08c379a000000000000000000000000000000000000000000000000000000000815260040161087e90613249565b60405180910390fd5b600a828154811061089b5761089a613678565b5b90600052602060002001549050919050565b60006108b761115c565b73ffffffffffffffffffffffffffffffffffffffff166108d5610cb1565b73ffffffffffffffffffffffffffffffffffffffff161461092b576040517f08c379a0000000000000000000000000000000000000000000000000000000008152600401610922906131a9565b60405180910390fd5b610935600c6115b3565b61093f600c6115c9565b905061094b82826115d7565b8061095461115c565b73ffffffffffffffffffffffffffffffffffffffff167f0f6798a560793a54c3bcfe86a93cde1e73087d944c0ea20544137d412139688560405160405180910390a3919050565b6109a361115c565b73ffffffffffffffffffffffffffffffffffffffff166109c1610cb1565b73ffffffffffffffffffffffffffffffffffffffff1614610a17576040517f08c379a0000000000000000000000000000000000000000000000000000000008152600401610a0e906131a9565b60405180910390fd5b80600d9080519060200190610a2d9291906126b3565b5050565b6000806003600084815260200190815260200160002060009054906101000a900473ffffffffffffffffffffffffffffffffffffffff169050600073ffffffffffffffffffffffffffffffffffffffff168173ffffffffffffffffffffffffffffffffffffffff161415610ada576040517f08c379a0000000000000000000000000000000000000000000000000000000008152600401610ad190613129565b60405180910390fd5b80915050919050565b600d8054610af0906134df565b80601f0160208091040260200160405190810160405280929190818152602001828054610b1c906134df565b8015610b695780601f10610b3e57610100808354040283529160200191610b69565b820191906000526020600020905b815481529060010190602001808311610b4c57829003601f168201915b505050505081565b60008073ffffffffffffffffffffffffffffffffffffffff168273ffffffffffffffffffffffffffffffffffffffff161415610be2576040517f08c379a0000000000000000000000000000000000000000000000000000000008152600401610bd990613109565b60405180910390fd5b600460008373ffffffffffffffffffffffffffffffffffffffff1673ffffffffffffffffffffffffffffffffffffffff168152602001908152602001600020549050919050565b610c3161115c565b73ffffffffffffffffffffffffffffffffffffffff16610c4f610cb1565b73ffffffffffffffffffffffffffffffffffffffff1614610ca5576040517f08c379a0000000000000000000000000000000000000000000000000000000008152600401610c9c906131a9565b60405180910390fd5b610caf60006117a5565b565b60008060009054906101000a900473ffffffffffffffffffffffffffffffffffffffff16905090565b606060028054610ce9906134df565b80601f0160208091040260200160405190810160405280929190818152602001828054610d15906134df565b8015610d625780601f10610d3757610100808354040283529160200191610d62565b820191906000526020600020905b815481529060010190602001808311610d4557829003601f168201915b5050505050905090565b610d7e610d7761115c565b8383611869565b5050565b6000610d8c61115c565b73ffffffffffffffffffffffffffffffffffffffff16610daa610cb1565b73ffffffffffffffffffffffffffffffffffffffff1614610e00576040517f08c379a0000000000000000000000000000000000000000000000000000000008152600401610df7906131a9565b60405180910390fd5b60018211610e43576040517f08c379a0000000000000000000000000000000000000000000000000000000008152600401610e3a906130a9565b60405180910390fd5b60005b82811015610e6b57610e57846108ad565b508080610e6390613542565b915050610e46565b506001905092915050565b610e87610e8161115c565b8361121d565b610ec6576040517f08c379a0000000000000000000000000000000000000000000000000000000008152600401610ebd90613229565b60405180910390fd5b610ed2848484846119d6565b50505050565b6060610ee382611a32565b9050919050565b6000600660008473ffffffffffffffffffffffffffffffffffffffff1673ffffffffffffffffffffffffffffffffffffffff16815260200190815260200160002060008373ffffffffffffffffffffffffffffffffffffffff1673ffffffffffffffffffffffffffffffffffffffff16815260200190815260200160002060009054906101000a900460ff16905092915050565b610f8661115c565b73ffffffffffffffffffffffffffffffffffffffff16610fa4610cb1565b73ffffffffffffffffffffffffffffffffffffffff1614610ffa576040517f08c379a0000000000000000000000000000000000000000000000000000000008152600401610ff1906131a9565b60405180910390fd5b600073ffffffffffffffffffffffffffffffffffffffff168173ffffffffffffffffffffffffffffffffffffffff16141561106a576040517f08c379a000000000000000000000000000000000000000000000000000000000815260040161106190613029565b60405180910390fd5b611073816117a5565b50565b60007f780e9d63000000000000000000000000000000000000000000000000000000007bffffffffffffffffffffffffffffffffffffffffffffffffffffffff1916827bffffffffffffffffffffffffffffffffffffffffffffffffffffffff191614806110e957506110e882611b84565b5b9050919050565b60008073ffffffffffffffffffffffffffffffffffffffff166003600084815260200190815260200160002060009054906101000a900473ffffffffffffffffffffffffffffffffffffffff1673ffffffffffffffffffffffffffffffffffffffff1614159050919050565b600033905090565b816005600083815260200190815260200160002060006101000a81548173ffffffffffffffffffffffffffffffffffffffff021916908373ffffffffffffffffffffffffffffffffffffffff160217905550808273ffffffffffffffffffffffffffffffffffffffff166111d783610a31565b73ffffffffffffffffffffffffffffffffffffffff167f8c5be1e5ebec7d5bd14f71427d1e84f3dd0314c0f7b2291e5b200ac8c7c3b92560405160405180910390a45050565b6000611228826110f0565b611267576040517f08c379a000000000000000000000000000000000000000000000000000000000815260040161125e906130c9565b60405180910390fd5b600061127283610a31565b90508073ffffffffffffffffffffffffffffffffffffffff168473ffffffffffffffffffffffffffffffffffffffff1614806112e157508373ffffffffffffffffffffffffffffffffffffffff166112c984610561565b73ffffffffffffffffffffffffffffffffffffffff16145b806112f257506112f18185610eea565b5b91505092915050565b8273ffffffffffffffffffffffffffffffffffffffff1661131b82610a31565b73ffffffffffffffffffffffffffffffffffffffff1614611371576040517f08c379a0000000000000000000000000000000000000000000000000000000008152600401611368906131c9565b60405180910390fd5b600073ffffffffffffffffffffffffffffffffffffffff168273ffffffffffffffffffffffffffffffffffffffff1614156113e1576040517f08c379a00000000000000000000000000000000000000000000000000000000081526004016113d890613069565b60405180910390fd5b6113ec838383611c66565b6113f7600082611164565b6001600460008573ffffffffffffffffffffffffffffffffffffffff1673ffffffffffffffffffffffffffffffffffffffff168152602001908152602001600020600082825461144791906133f5565b925050819055506001600460008473ffffffffffffffffffffffffffffffffffffffff1673ffffffffffffffffffffffffffffffffffffffff168152602001908152602001600020600082825461149e919061336e565b92505081905550816003600083815260200190815260200160002060006101000a81548173ffffffffffffffffffffffffffffffffffffffff021916908373ffffffffffffffffffffffffffffffffffffffff160217905550808273ffffffffffffffffffffffffffffffffffffffff168473ffffffffffffffffffffffffffffffffffffffff167fddf252ad1be2c89b69c2b068fc378daa952ba7f163c4a11628f55a4df523b3ef60405160405180910390a4505050565b61156861156261115c565b8261121d565b6115a7576040517f08c379a000000000000000000000000000000000000000000000000000000000815260040161159e90613269565b60405180910390fd5b6115b081611c76565b50565b6001816000016000828254019250508190555050565b600081600001549050919050565b600073ffffffffffffffffffffffffffffffffffffffff168273ffffffffffffffffffffffffffffffffffffffff161415611647576040517f08c379a000000000000000000000000000000000000000000000000000000000815260040161163e90613149565b60405180910390fd5b611650816110f0565b15611690576040517f08c379a000000000000000000000000000000000000000000000000000000000815260040161168790613049565b60405180910390fd5b61169c60008383611c66565b6001600460008473ffffffffffffffffffffffffffffffffffffffff1673ffffffffffffffffffffffffffffffffffffffff16815260200190815260200160002060008282546116ec919061336e565b92505081905550816003600083815260200190815260200160002060006101000a81548173ffffffffffffffffffffffffffffffffffffffff021916908373ffffffffffffffffffffffffffffffffffffffff160217905550808273ffffffffffffffffffffffffffffffffffffffff16600073ffffffffffffffffffffffffffffffffffffffff167fddf252ad1be2c89b69c2b068fc378daa952ba7f163c4a11628f55a4df523b3ef60405160405180910390a45050565b60008060009054906101000a900473ffffffffffffffffffffffffffffffffffffffff169050816000806101000a81548173ffffffffffffffffffffffffffffffffffffffff021916908373ffffffffffffffffffffffffffffffffffffffff1602179055508173ffffffffffffffffffffffffffffffffffffffff168173ffffffffffffffffffffffffffffffffffffffff167f8be0079c531659141344cd1fd0a4f28419497f9722a3daafe3b4186f6b6457e060405160405180910390a35050565b8173ffffffffffffffffffffffffffffffffffffffff168373ffffffffffffffffffffffffffffffffffffffff1614156118d8576040517f08c379a00000000000000000000000000000000000000000000000000000000081526004016118cf90613089565b60405180910390fd5b80600660008573ffffffffffffffffffffffffffffffffffffffff1673ffffffffffffffffffffffffffffffffffffffff16815260200190815260200160002060008473ffffffffffffffffffffffffffffffffffffffff1673ffffffffffffffffffffffffffffffffffffffff16815260200190815260200160002060006101000a81548160ff0219169083151502179055508173ffffffffffffffffffffffffffffffffffffffff168373ffffffffffffffffffffffffffffffffffffffff167f17307eab39ab6107e8899845ad3d59bd9653f200f220920489ca2b5937696c31836040516119c99190612fac565b60405180910390a3505050565b6119e18484846112fb565b6119ed84848484611c82565b611a2c576040517f08c379a0000000000000000000000000000000000000000000000000000000008152600401611a2390613009565b60405180910390fd5b50505050565b6060611a3d826110f0565b611a7c576040517f08c379a0000000000000000000000000000000000000000000000000000000008152600401611a7390613169565b60405180910390fd5b6000600760008481526020019081526020016000208054611a9c906134df565b80601f0160208091040260200160405190810160405280929190818152602001828054611ac8906134df565b8015611b155780601f10611aea57610100808354040283529160200191611b15565b820191906000526020600020905b815481529060010190602001808311611af857829003601f168201915b505050505090506000611b26611e19565b9050600081511415611b3c578192505050611b7f565b600082511115611b71578082604051602001611b59929190612f21565b60405160208183030381529060405292505050611b7f565b611b7a84611eab565b925050505b919050565b60007f80ac58cd000000000000000000000000000000000000000000000000000000007bffffffffffffffffffffffffffffffffffffffffffffffffffffffff1916827bffffffffffffffffffffffffffffffffffffffffffffffffffffffff19161480611c4f57507f5b5e139f000000000000000000000000000000000000000000000000000000007bffffffffffffffffffffffffffffffffffffffffffffffffffffffff1916827bffffffffffffffffffffffffffffffffffffffffffffffffffffffff1916145b80611c5f5750611c5e82611f52565b5b9050919050565b611c71838383611fbc565b505050565b611c7f816120d0565b50565b6000611ca38473ffffffffffffffffffffffffffffffffffffffff16612123565b15611e0c578373ffffffffffffffffffffffffffffffffffffffff1663150b7a02611ccc61115c565b8786866040518563ffffffff1660e01b8152600401611cee9493929190612f60565b602060405180830381600087803b158015611d0857600080fd5b505af1925050508015611d3957506040513d601f19601f82011682018060405250810190611d369190612acf565b60015b611dbc573d8060008114611d69576040519150601f19603f3d011682016040523d82523d6000602084013e611d6e565b606091505b50600081511415611db4576040517f08c379a0000000000000000000000000000000000000000000000000000000008152600401611dab90613009565b60405180910390fd5b805181602001fd5b63150b7a0260e01b7bffffffffffffffffffffffffffffffffffffffffffffffffffffffff1916817bffffffffffffffffffffffffffffffffffffffffffffffffffffffff191614915050611e11565b600190505b949350505050565b6060600d8054611e28906134df565b80601f0160208091040260200160405190810160405280929190818152602001828054611e54906134df565b8015611ea15780601f10611e7657610100808354040283529160200191611ea1565b820191906000526020600020905b815481529060010190602001808311611e8457829003601f168201915b5050505050905090565b6060611eb6826110f0565b611ef5576040517f08c379a0000000000000000000000000000000000000000000000000000000008152600401611eec906131e9565b60405180910390fd5b6000611eff611e19565b90506000815111611f1f5760405180602001604052806000815250611f4a565b80611f2984612136565b604051602001611f3a929190612f21565b6040516020818303038152906040525b915050919050565b60007f01ffc9a7000000000000000000000000000000000000000000000000000000007bffffffffffffffffffffffffffffffffffffffffffffffffffffffff1916827bffffffffffffffffffffffffffffffffffffffffffffffffffffffff1916149050919050565b611fc7838383612297565b600073ffffffffffffffffffffffffffffffffffffffff168373ffffffffffffffffffffffffffffffffffffffff16141561200a576120058161229c565b612049565b8173ffffffffffffffffffffffffffffffffffffffff168373ffffffffffffffffffffffffffffffffffffffff16146120485761204783826122e5565b5b5b600073ffffffffffffffffffffffffffffffffffffffff168273ffffffffffffffffffffffffffffffffffffffff16141561208c5761208781612452565b6120cb565b8273ffffffffffffffffffffffffffffffffffffffff168273ffffffffffffffffffffffffffffffffffffffff16146120ca576120c98282612523565b5b5b505050565b6120d9816125a2565b60006007600083815260200190815260200160002080546120f9906134df565b9050146121205760076000828152602001908152602001600020600061211f9190612739565b5b50565b600080823b905060008111915050919050565b6060600082141561217e576040518060400160405280600181526020017f30000000000000000000000000000000000000000000000000000000000000008152509050612292565b600082905060005b600082146121b057808061219990613542565b915050600a826121a991906133c4565b9150612186565b60008167ffffffffffffffff8111156121cc576121cb6136a7565b5b6040519080825280601f01601f1916602001820160405280156121fe5781602001600182028036833780820191505090505b5090505b6000851461228b5760018261221791906133f5565b9150600a85612226919061358b565b6030612232919061336e565b60f81b81838151811061224857612247613678565b5b60200101907effffffffffffffffffffffffffffffffffffffffffffffffffffffffffffff1916908160001a905350600a8561228491906133c4565b9450612202565b8093505050505b919050565b505050565b600a80549050600b600083815260200190815260200160002081905550600a81908060018154018082558091505060019003906000526020600020016000909190919091505550565b600060016122f284610b71565b6122fc91906133f5565b90506000600960008481526020019081526020016000205490508181146123e1576000600860008673ffffffffffffffffffffffffffffffffffffffff1673ffffffffffffffffffffffffffffffffffffffff168152602001908152602001600020600084815260200190815260200160002054905080600860008773ffffffffffffffffffffffffffffffffffffffff1673ffffffffffffffffffffffffffffffffffffffff168152602001908152602001600020600084815260200190815260200160002081905550816009600083815260200190815260200160002081905550505b6009600084815260200190815260200160002060009055600860008573ffffffffffffffffffffffffffffffffffffffff1673ffffffffffffffffffffffffffffffffffffffff16815260200190815260200160002060008381526020019081526020016000206000905550505050565b60006001600a8054905061246691906133f5565b90506000600b60008481526020019081526020016000205490506000600a838154811061249657612495613678565b5b9060005260206000200154905080600a83815481106124b8576124b7613678565b5b906000526020600020018190555081600b600083815260200190815260200160002081905550600b600085815260200190815260200160002060009055600a80548061250757612506613649565b5b6001900381819060005260206000200160009055905550505050565b600061252e83610b71565b905081600860008573ffffffffffffffffffffffffffffffffffffffff1673ffffffffffffffffffffffffffffffffffffffff168152602001908152602001600020600083815260200190815260200160002081905550806009600084815260200190815260200160002081905550505050565b60006125ad82610a31565b90506125bb81600084611c66565b6125c6600083611164565b6001600460008373ffffffffffffffffffffffffffffffffffffffff1673ffffffffffffffffffffffffffffffffffffffff168152602001908152602001600020600082825461261691906133f5565b925050819055506003600083815260200190815260200160002060006101000a81549073ffffffffffffffffffffffffffffffffffffffff021916905581600073ffffffffffffffffffffffffffffffffffffffff168273ffffffffffffffffffffffffffffffffffffffff167fddf252ad1be2c89b69c2b068fc378daa952ba7f163c4a11628f55a4df523b3ef60405160405180910390a45050565b8280546126bf906134df565b90600052602060002090601f0160209004810192826126e15760008555612728565b82601f106126fa57805160ff1916838001178555612728565b82800160010185558215612728579182015b8281111561272757825182559160200191906001019061270c565b5b5090506127359190612779565b5090565b508054612745906134df565b6000825580601f106127575750612776565b601f0160209004906000526020600020908101906127759190612779565b5b50565b5b8082111561279257600081600090555060010161277a565b5090565b60006127a96127a4846132c9565b6132a4565b9050828152602081018484840111156127c5576127c46136db565b5b6127d084828561349d565b509392505050565b60006127eb6127e6846132fa565b6132a4565b905082815260208101848484011115612807576128066136db565b5b61281284828561349d565b509392505050565b60008135905061282981613cde565b92915050565b60008135905061283e81613cf5565b92915050565b60008135905061285381613d0c565b92915050565b60008151905061286881613d0c565b92915050565b600082601f830112612883576128826136d6565b5b8135612893848260208601612796565b91505092915050565b600082601f8301126128b1576128b06136d6565b5b81356128c18482602086016127d8565b91505092915050565b6000813590506128d981613d23565b92915050565b6000602082840312156128f5576128f46136e5565b5b60006129038482850161281a565b91505092915050565b60008060408385031215612923576129226136e5565b5b60006129318582860161281a565b92505060206129428582860161281a565b9150509250929050565b600080600060608486031215612965576129646136e5565b5b60006129738682870161281a565b93505060206129848682870161281a565b9250506040612995868287016128ca565b9150509250925092565b600080600080608085870312156129b9576129b86136e5565b5b60006129c78782880161281a565b94505060206129d88782880161281a565b93505060406129e9878288016128ca565b925050606085013567ffffffffffffffff811115612a0a57612a096136e0565b5b612a168782880161286e565b91505092959194509250565b60008060408385031215612a3957612a386136e5565b5b6000612a478582860161281a565b9250506020612a588582860161282f565b9150509250929050565b60008060408385031215612a7957612a786136e5565b5b6000612a878582860161281a565b9250506020612a98858286016128ca565b9150509250929050565b600060208284031215612ab857612ab76136e5565b5b6000612ac684828501612844565b91505092915050565b600060208284031215612ae557612ae46136e5565b5b6000612af384828501612859565b91505092915050565b600060208284031215612b1257612b116136e5565b5b600082013567ffffffffffffffff811115612b3057612b2f6136e0565b5b612b3c8482850161289c565b91505092915050565b600060208284031215612b5b57612b5a6136e5565b5b6000612b69848285016128ca565b91505092915050565b612b7b81613429565b82525050565b612b8a8161343b565b82525050565b6000612b9b8261332b565b612ba58185613341565b9350612bb58185602086016134ac565b612bbe816136ea565b840191505092915050565b6000612bd482613336565b612bde8185613352565b9350612bee8185602086016134ac565b612bf7816136ea565b840191505092915050565b6000612c0d82613336565b612c178185613363565b9350612c278185602086016134ac565b80840191505092915050565b6000612c40602b83613352565b9150612c4b826136fb565b604082019050919050565b6000612c63603283613352565b9150612c6e8261374a565b604082019050919050565b6000612c86602683613352565b9150612c9182613799565b604082019050919050565b6000612ca9601c83613352565b9150612cb4826137e8565b602082019050919050565b6000612ccc602483613352565b9150612cd782613811565b604082019050919050565b6000612cef601983613352565b9150612cfa82613860565b602082019050919050565b6000612d12602883613352565b9150612d1d82613889565b604082019050919050565b6000612d35602c83613352565b9150612d40826138d8565b604082019050919050565b6000612d58603883613352565b9150612d6382613927565b604082019050919050565b6000612d7b602a83613352565b9150612d8682613976565b604082019050919050565b6000612d9e602983613352565b9150612da9826139c5565b604082019050919050565b6000612dc1602083613352565b9150612dcc82613a14565b602082019050919050565b6000612de4603183613352565b9150612def82613a3d565b604082019050919050565b6000612e07602c83613352565b9150612e1282613a8c565b604082019050919050565b6000612e2a602083613352565b9150612e3582613adb565b602082019050919050565b6000612e4d602983613352565b9150612e5882613b04565b604082019050919050565b6000612e70602f83613352565b9150612e7b82613b53565b604082019050919050565b6000612e93602183613352565b9150612e9e82613ba2565b604082019050919050565b6000612eb6603183613352565b9150612ec182613bf1565b604082019050919050565b6000612ed9602c83613352565b9150612ee482613c40565b604082019050919050565b6000612efc603083613352565b9150612f0782613c8f565b604082019050919050565b612f1b81613493565b82525050565b6000612f2d8285612c02565b9150612f398284612c02565b91508190509392505050565b6000602082019050612f5a6000830184612b72565b92915050565b6000608082019050612f756000830187612b72565b612f826020830186612b72565b612f8f6040830185612f12565b8181036060830152612fa18184612b90565b905095945050505050565b6000602082019050612fc16000830184612b81565b92915050565b60006020820190508181036000830152612fe18184612bc9565b905092915050565b6000602082019050818103600083015261300281612c33565b9050919050565b6000602082019050818103600083015261302281612c56565b9050919050565b6000602082019050818103600083015261304281612c79565b9050919050565b6000602082019050818103600083015261306281612c9c565b9050919050565b6000602082019050818103600083015261308281612cbf565b9050919050565b600060208201905081810360008301526130a281612ce2565b9050919050565b600060208201905081810360008301526130c281612d05565b9050919050565b600060208201905081810360008301526130e281612d28565b9050919050565b6000602082019050818103600083015261310281612d4b565b9050919050565b6000602082019050818103600083015261312281612d6e565b9050919050565b6000602082019050818103600083015261314281612d91565b9050919050565b6000602082019050818103600083015261316281612db4565b9050919050565b6000602082019050818103600083015261318281612dd7565b9050919050565b600060208201905081810360008301526131a281612dfa565b9050919050565b600060208201905081810360008301526131c281612e1d565b9050919050565b600060208201905081810360008301526131e281612e40565b9050919050565b6000602082019050818103600083015261320281612e63565b9050919050565b6000602082019050818103600083015261322281612e86565b9050919050565b6000602082019050818103600083015261324281612ea9565b9050919050565b6000602082019050818103600083015261326281612ecc565b9050919050565b6000602082019050818103600083015261328281612eef565b9050919050565b600060208201905061329e6000830184612f12565b92915050565b60006132ae6132bf565b90506132ba8282613511565b919050565b6000604051905090565b600067ffffffffffffffff8211156132e4576132e36136a7565b5b6132ed826136ea565b9050602081019050919050565b600067ffffffffffffffff821115613315576133146136a7565b5b61331e826136ea565b9050602081019050919050565b600081519050919050565b600081519050919050565b600082825260208201905092915050565b600082825260208201905092915050565b600081905092915050565b600061337982613493565b915061338483613493565b9250827fffffffffffffffffffffffffffffffffffffffffffffffffffffffffffffffff038211156133b9576133b86135bc565b5b828201905092915050565b60006133cf82613493565b91506133da83613493565b9250826133ea576133e96135eb565b5b828204905092915050565b600061340082613493565b915061340b83613493565b92508282101561341e5761341d6135bc565b5b828203905092915050565b600061343482613473565b9050919050565b60008115159050919050565b60007fffffffff0000000000000000000000000000000000000000000000000000000082169050919050565b600073ffffffffffffffffffffffffffffffffffffffff82169050919050565b6000819050919050565b82818337600083830152505050565b60005b838110156134ca5780820151818401526020810190506134af565b838111156134d9576000848401525b50505050565b600060028204905060018216806134f757607f821691505b6020821081141561350b5761350a61361a565b5b50919050565b61351a826136ea565b810181811067ffffffffffffffff82111715613539576135386136a7565b5b80604052505050565b600061354d82613493565b91507fffffffffffffffffffffffffffffffffffffffffffffffffffffffffffffffff8214156135805761357f6135bc565b5b600182019050919050565b600061359682613493565b91506135a183613493565b9250826135b1576135b06135eb565b5b828206905092915050565b7f4e487b7100000000000000000000000000000000000000000000000000000000600052601160045260246000fd5b7f4e487b7100000000000000000000000000000000000000000000000000000000600052601260045260246000fd5b7f4e487b7100000000000000000000000000000000000000000000000000000000600052602260045260246000fd5b7f4e487b7100000000000000000000000000000000000000000000000000000000600052603160045260246000fd5b7f4e487b7100000000000000000000000000000000000000000000000000000000600052603260045260246000fd5b7f4e487b7100000000000000000000000000000000000000000000000000000000600052604160045260246000fd5b600080fd5b600080fd5b600080fd5b600080fd5b6000601f19601f8301169050919050565b7f455243373231456e756d657261626c653a206f776e657220696e646578206f7560008201527f74206f6620626f756e6473000000000000000000000000000000000000000000602082015250565b7f4552433732313a207472616e7366657220746f206e6f6e20455243373231526560008201527f63656976657220696d706c656d656e7465720000000000000000000000000000602082015250565b7f4f776e61626c653a206e6577206f776e657220697320746865207a65726f206160008201527f6464726573730000000000000000000000000000000000000000000000000000602082015250565b7f4552433732313a20746f6b656e20616c7265616479206d696e74656400000000600082015250565b7f4552433732313a207472616e7366657220746f20746865207a65726f2061646460008201527f7265737300000000000000000000000000000000000000000000000000000000602082015250565b7f4552433732313a20617070726f766520746f2063616c6c657200000000000000600082015250565b7f46756e6374696f6e20776f726b73206f6e6c7920666f72206d756c7469706c6560008201527f206d696e74696e67000000000000000000000000000000000000000000000000602082015250565b7f4552433732313a206f70657261746f7220717565727920666f72206e6f6e657860008201527f697374656e7420746f6b656e0000000000000000000000000000000000000000602082015250565b7f4552433732313a20617070726f76652063616c6c6572206973206e6f74206f7760008201527f6e6572206e6f7220617070726f76656420666f7220616c6c0000000000000000602082015250565b7f4552433732313a2062616c616e636520717565727920666f7220746865207a6560008201527f726f206164647265737300000000000000000000000000000000000000000000602082015250565b7f4552433732313a206f776e657220717565727920666f72206e6f6e657869737460008201527f656e7420746f6b656e0000000000000000000000000000000000000000000000602082015250565b7f4552433732313a206d696e7420746f20746865207a65726f2061646472657373600082015250565b7f45524337323155524953746f726167653a2055524920717565727920666f722060008201527f6e6f6e6578697374656e7420746f6b656e000000000000000000000000000000602082015250565b7f4552433732313a20617070726f76656420717565727920666f72206e6f6e657860008201527f697374656e7420746f6b656e0000000000000000000000000000000000000000602082015250565b7f4f776e61626c653a2063616c6c6572206973206e6f7420746865206f776e6572600082015250565b7f4552433732313a207472616e73666572206f6620746f6b656e2074686174206960008201527f73206e6f74206f776e0000000000000000000000000000000000000000000000602082015250565b7f4552433732314d657461646174613a2055524920717565727920666f72206e6f60008201527f6e6578697374656e7420746f6b656e0000000000000000000000000000000000602082015250565b7f4552433732313a20617070726f76616c20746f2063757272656e74206f776e6560008201527f7200000000000000000000000000000000000000000000000000000000000000602082015250565b7f4552433732313a207472616e736665722063616c6c6572206973206e6f74206f60008201527f776e6572206e6f7220617070726f766564000000000000000000000000000000602082015250565b7f455243373231456e756d657261626c653a20676c6f62616c20696e646578206f60008201527f7574206f6620626f756e64730000000000000000000000000000000000000000602082015250565b7f4552433732314275726e61626c653a2063616c6c6572206973206e6f74206f7760008201527f6e6572206e6f7220617070726f76656400000000000000000000000000000000602082015250565b613ce781613429565b8114613cf257600080fd5b50565b613cfe8161343b565b8114613d0957600080fd5b50565b613d1581613447565b8114613d2057600080fd5b50565b613d2c81613493565b8114613d3757600080fd5b5056fea2646970667358221220bee8782293e55ee4b48b8da80356affc5209f89e372348dbfc8c677ce921061e64736f6c63430008060033",
  "linkReferences": {},
  "deployedLinkReferences": {}
}