{
  "_format": "hh-sol-artifact-1",
  "contractName": "RC3_721_Factory",
  "sourceName": "contracts/RC3_721_Factory.sol",
  "abi": [
    {
      "inputs": [
        {
          "internalType": "uint256",
          "name": "_fee",
          "type": "uint256"
        },
        {
          "internalType": "address payable",
          "name": "wallet",
          "type": "address"
        }
      ],
      "stateMutability": "nonpayable",
      "type": "constructor"
    },
    {
      "anonymous": false,
      "inputs": [
        {
          "indexed": true,
          "internalType": "address",
          "name": "creator",
          "type": "address"
        },
        {
          "indexed": true,
          "internalType": "address",
          "name": "token",
          "type": "address"
        }
      ],
      "name": "Created",
      "type": "event"
    },
    {
      "inputs": [
        {
          "internalType": "string",
          "name": "_name",
          "type": "string"
        },
        {
          "internalType": "string",
          "name": "_symbol",
          "type": "string"
        },
        {
          "internalType": "string",
          "name": "_uri",
          "type": "string"
        },
        {
          "internalType": "uint96",
          "name": "_royalty",
          "type": "uint96"
        }
      ],
      "name": "create721NFT",
      "outputs": [
        {
          "internalType": "address",
          "name": "createdAddr",
          "type": "address"
        }
      ],
      "stateMutability": "payable",
      "type": "function"
    },
    {
      "inputs": [],
      "name": "fee",
      "outputs": [
        {
          "internalType": "uint256",
          "name": "",
          "type": "uint256"
        }
      ],
      "stateMutability": "view",
      "type": "function"
    },
    {
      "inputs": [],
      "name": "feeWallet",
      "outputs": [
        {
          "internalType": "address payable",
          "name": "",
          "type": "address"
        }
      ],
      "stateMutability": "view",
      "type": "function"
    },
    {
      "inputs": [],
      "name": "get721List",
      "outputs": [
        {
          "internalType": "address[]",
          "name": "",
          "type": "address[]"
        },
        {
          "internalType": "uint256",
          "name": "length",
          "type": "uint256"
        }
      ],
      "stateMutability": "view",
      "type": "function"
    }
  ],
  "bytecode": "0x60c060405234801561001057600080fd5b506040516133ca3803806133ca83398101604081905261002f9161004a565b60a09190915260601b6001600160601b031916608052610087565b6000806040838503121561005d57600080fd5b825160208401519092506001600160a01b038116811461007c57600080fd5b809150509250929050565b60805160601c60a05161330e6100bc60003960008181608e015261019a015260008181610103015261021a015261330e6000f3fe608060405260043610620000445760003560e01c8063a7a71ad11462000049578063ddca3f43146200007a578063e682e0c514620000bf578063f25f4b5614620000ef575b600080fd5b3480156200005657600080fd5b506200006162000125565b60405162000071929190620004d6565b60405180910390f35b3480156200008757600080fd5b50620000b07f000000000000000000000000000000000000000000000000000000000000000081565b60405190815260200162000071565b620000d6620000d0366004620003d5565b62000196565b6040516001600160a01b03909116815260200162000071565b348015620000fc57600080fd5b50620000d67f000000000000000000000000000000000000000000000000000000000000000081565b6060600080600080549050818054806020026020016040519081016040528092919081815260200182805480156200018757602002820191906000526020600020905b81546001600160a01b0316815260019091019060200180831162000168575b50505050509150915091509091565b60007f00000000000000000000000000000000000000000000000000000000000000003414620001fc5760405162461bcd60e51b815260206004820152600d60248201526c4d7573742073656e642066656560981b604482015260640160405180910390fd5b6200020a858585856200026c565b6040519091506001600160a01b037f000000000000000000000000000000000000000000000000000000000000000016903480156108fc02916000818181858888f1935050505015801562000263573d6000803e3d6000fd5b50949350505050565b6000808585853386604051620002829062000333565b6200029295949392919062000529565b604051809103906000f080158015620002af573d6000803e3d6000fd5b50600080546001810182558180527f290decd9548b62a8d60345a988386fc84ba6bc95484008f6362f93160ef3e5630180546001600160a01b0319166001600160a01b0384169081179091556040519294508493509133917f587ece4cd19692c5be1a4184503d607d45542d2aca0698c0068f52e09ccb541c91a350949350505050565b612d5780620005ab83390190565b600082601f8301126200035357600080fd5b81356001600160401b038082111562000370576200037062000594565b604051601f8301601f19908116603f011681019082821181831017156200039b576200039b62000594565b81604052838152866020858801011115620003b557600080fd5b836020870160208301376000602085830101528094505050505092915050565b60008060008060808587031215620003ec57600080fd5b84356001600160401b03808211156200040457600080fd5b620004128883890162000341565b955060208701359150808211156200042957600080fd5b620004378883890162000341565b945060408701359150808211156200044e57600080fd5b506200045d8782880162000341565b92505060608501356001600160601b03811681146200047b57600080fd5b939692955090935050565b6000815180845260005b81811015620004ae5760208185018101518683018201520162000490565b81811115620004c1576000602083870101525b50601f01601f19169290920160200192915050565b604080825283519082018190526000906020906060840190828701845b828110156200051a5781516001600160a01b031684529284019290840190600101620004f3565b50505092019290925292915050565b60a0815260006200053e60a083018862000486565b828103602084015262000552818862000486565b9050828103604084015262000568818762000486565b6001600160a01b0395909516606084015250506001600160601b03919091166080909101529392505050565b634e487b7160e01b600052604160045260246000fdfe60a06040523480156200001157600080fd5b5060405162002d5738038062002d578339810160408190526200003491620003ca565b8451859085906200004d9060029060208501906200026d565b508051620000639060039060208401906200026d565b5050506001600160a01b038216620000b35760405162461bcd60e51b815260206004820152600f60248201526e496e76616c6964206164647265737360881b604482015260640160405180910390fd5b8251620000c890600f9060208601906200026d565b50600e80546001600160a01b03199081166001600160a01b0385161790915560a082901b16608052620000fd60003362000108565b5050505050620004f3565b62000114828262000118565b5050565b6200012f82826200015b60201b62000dad1760201c565b60008281526001602090815260409091206200015691839062000e31620001fb821b17901c565b505050565b6000828152602081815260408083206001600160a01b038516845290915290205460ff1662000114576000828152602081815260408083206001600160a01b03851684529091529020805460ff19166001179055620001b73390565b6001600160a01b0316816001600160a01b0316837f2f8788117e7eff1d82e926ec794901d17c78024a50270940304540a733656f0d60405160405180910390a45050565b600062000212836001600160a01b0384166200021b565b90505b92915050565b6000818152600183016020526040812054620002645750815460018181018455600084815260208082209093018490558454848252828601909352604090209190915562000215565b50600062000215565b8280546200027b90620004a0565b90600052602060002090601f0160209004810192826200029f5760008555620002ea565b82601f10620002ba57805160ff1916838001178555620002ea565b82800160010185558215620002ea579182015b82811115620002ea578251825591602001919060010190620002cd565b50620002f8929150620002fc565b5090565b5b80821115620002f85760008155600101620002fd565b600082601f8301126200032557600080fd5b81516001600160401b0380821115620003425762000342620004dd565b604051601f8301601f19908116603f011681019082821181831017156200036d576200036d620004dd565b816040528381526020925086838588010111156200038a57600080fd5b600091505b83821015620003ae57858201830151818301840152908201906200038f565b83821115620003c05760008385830101525b9695505050505050565b600080600080600060a08688031215620003e357600080fd5b85516001600160401b0380821115620003fb57600080fd5b6200040989838a0162000313565b965060208801519150808211156200042057600080fd5b6200042e89838a0162000313565b955060408801519150808211156200044557600080fd5b50620004548882890162000313565b606088015190945090506001600160a01b03811681146200047457600080fd5b60808701519092506001600160601b03811681146200049257600080fd5b809150509295509295909350565b600181811c90821680620004b557607f821691505b60208210811415620004d757634e487b7160e01b600052602260045260246000fd5b50919050565b634e487b7160e01b600052604160045260246000fd5b60805160a01c61283e62000519600039600081816102680152610bf1015261283e6000f3fe608060405234801561001057600080fd5b50600436106101965760003560e01c806301ffc9a71461019b57806306fdde03146101c3578063081812fc146101d8578063095ea7b31461020357806315bcf9b71461021857806318160ddd1461022b57806323b872dd1461023d578063248a9ca31461025057806329ee566c146102635780632f2ff15d146102a25780632f745c59146102b557806336568abe146102c85780633adf80b4146102db57806342842e0e146102ee57806342966c68146103015780634f6ccce7146103145780636352211e146103275780636a6278421461033a5780636c0360eb1461034d57806370a08231146103555780639010d07c1461036857806391d148541461037b57806395d89b411461038e578063a217fddf14610396578063a22cb4651461039e578063a2e69613146103b1578063ac881080146103c4578063b88d4fde146103d7578063c87b56dd146103ea578063ca15c873146103fd578063cef6d36814610410578063d547741f14610442578063e80bc6e114610455578063e985e9c514610478575b600080fd5b6101ae6101a9366004612418565b61048b565b60405190151581526020015b60405180910390f35b6101cb6104b6565b6040516101ba91906125b3565b6101eb6101e63660046123b8565b610548565b6040516001600160a01b0390911681526020016101ba565b61021661021136600461238c565b6105d5565b005b610216610226366004612359565b6106e6565b600b545b6040519081526020016101ba565b61021661024b366004612299565b610794565b61022f61025e3660046123b8565b6107c6565b61028a7f000000000000000000000000000000000000000000000000000000000000000081565b6040516001600160601b0390911681526020016101ba565b6102166102b03660046123d1565b6107db565b61022f6102c336600461238c565b6107f7565b6102166102d63660046123d1565b61088d565b6102166102e9366004612452565b61090b565b6102166102fc366004612299565b61091d565b61021661030f3660046123b8565b610938565b61022f6103223660046123b8565b6109b2565b6101eb6103353660046123b8565b610a45565b61022f610348366004612243565b610abc565b6101cb610ae7565b61022f610363366004612243565b610af6565b6101eb6103763660046123f6565b610b7d565b6101ae6103893660046123d1565b610b9c565b6101cb610bc5565b61022f600081565b6102166103ac366004612359565b610bd4565b61022f6103bf3660046123b8565b610bdf565b6102166103d2366004612243565b610c21565b6102166103e53660046122da565b610cbd565b6101cb6103f83660046123b8565b610cf5565b61022f61040b3660046123b8565b610d00565b61042361041e3660046123b8565b610d17565b604080516001600160a01b0390931683526020830191909152016101ba565b6102166104503660046123d1565b610d3a565b6101ae610463366004612243565b60106020526000908152604090205460ff1681565b6101ae610486366004612260565b610d56565b60006319deda6d60e31b6001600160e01b0319831614806104b057506104b082610e46565b92915050565b6060600280546104c59061270e565b80601f01602080910402602001604051908101604052809291908181526020018280546104f19061270e565b801561053e5780601f106105135761010080835404028352916020019161053e565b820191906000526020600020905b81548152906001019060200180831161052157829003601f168201915b5050505050905090565b600061055382610e6b565b6105b95760405162461bcd60e51b815260206004820152602c60248201527f4552433732313a20617070726f76656420717565727920666f72206e6f6e657860448201526b34b9ba32b73a103a37b5b2b760a11b60648201526084015b60405180910390fd5b506000908152600660205260409020546001600160a01b031690565b60006105e082610a45565b9050806001600160a01b0316836001600160a01b0316141561064e5760405162461bcd60e51b815260206004820152602160248201527f4552433732313a20617070726f76616c20746f2063757272656e74206f776e656044820152603960f91b60648201526084016105b0565b336001600160a01b038216148061066a575061066a8133610d56565b6106d75760405162461bcd60e51b815260206004820152603860248201527f4552433732313a20617070726f76652063616c6c6572206973206e6f74206f776044820152771b995c881b9bdc88185c1c1c9bdd995908199bdc88185b1b60421b60648201526084016105b0565b6106e18383610e88565b505050565b6106ee610ef6565b6001600160a01b0382166107335760405162461bcd60e51b815260206004820152600c60248201526b5a45524f5f4144445245535360a01b60448201526064016105b0565b6001600160a01b038216600081815260106020908152604091829020805460ff1916851515908117909155915191825233917f9e2bd848ed96e551d65a5248c15480b97b14b10a342c4194fe315d1e8a24fe84910160405180910390a35050565b61079f335b82610f45565b6107bb5760405162461bcd60e51b81526004016105b090612618565b6106e183838361100f565b60009081526020819052604090206001015490565b6107e4826107c6565b6107ed816111a4565b6106e183836111ae565b600061080283610af6565b82106108645760405162461bcd60e51b815260206004820152602b60248201527f455243373231456e756d657261626c653a206f776e657220696e646578206f7560448201526a74206f6620626f756e647360a81b60648201526084016105b0565b506001600160a01b03919091166000908152600960209081526040808320938352929052205490565b6001600160a01b03811633146108fd5760405162461bcd60e51b815260206004820152602f60248201527f416363657373436f6e74726f6c3a2063616e206f6e6c792072656e6f756e636560448201526e103937b632b9903337b91039b2b63360891b60648201526084016105b0565b61090782826111d0565b5050565b610913610ef6565b61090782826111f2565b6106e183838360405180602001604052806000815250610cbd565b61094133610799565b6109a65760405162461bcd60e51b815260206004820152603060248201527f4552433732314275726e61626c653a2063616c6c6572206973206e6f74206f7760448201526f1b995c881b9bdc88185c1c1c9bdd995960821b60648201526084016105b0565b6109af8161127d565b50565b60006109bd600b5490565b8210610a205760405162461bcd60e51b815260206004820152602c60248201527f455243373231456e756d657261626c653a20676c6f62616c20696e646578206f60448201526b7574206f6620626f756e647360a01b60648201526084016105b0565b600b8281548110610a3357610a336127ba565b90600052602060002001549050919050565b6000818152600460205260408120546001600160a01b0316806104b05760405162461bcd60e51b815260206004820152602960248201527f4552433732313a206f776e657220717565727920666f72206e6f6e657869737460448201526832b73a103a37b5b2b760b91b60648201526084016105b0565b6000610ac6610ef6565b610ad4600d80546001019055565b50600d54610ae28282611286565b919050565b6060610af16112a0565b905090565b60006001600160a01b038216610b615760405162461bcd60e51b815260206004820152602a60248201527f4552433732313a2062616c616e636520717565727920666f7220746865207a65604482015269726f206164647265737360b01b60648201526084016105b0565b506001600160a01b031660009081526005602052604090205490565b6000828152600160205260408120610b9590836112af565b9392505050565b6000918252602082815260408084206001600160a01b0393909316845291905290205460ff1690565b6060600380546104c59061270e565b6109073383836112bb565b6000612710610c176001600160601b037f00000000000000000000000000000000000000000000000000000000000000001684612695565b6104b09190612681565b610c29610ef6565b6001600160a01b038116610c715760405162461bcd60e51b815260206004820152600f60248201526e494e56414c49445f4144445245535360881b60448201526064016105b0565b600e80546001600160a01b0319166001600160a01b03831690811790915560405133907fef8f0d5f16a5283d66ae7e12801103421d077cfa56a9afe9c2b066459e3a231690600090a350565b610cc73383610f45565b610ce35760405162461bcd60e51b81526004016105b090612618565b610cef84848484611386565b50505050565b60606104b0826113b9565b60008181526001602052604081206104b09061151b565b600e5460009081906001600160a01b0316610d3184610bdf565b91509150915091565b610d43826107c6565b610d4c816111a4565b6106e183836111d0565b6001600160a01b03811660009081526010602052604081205460ff1615610d7f575060016104b0565b6001600160a01b0380841660009081526007602090815260408083209386168352929052205460ff16610b95565b610db78282610b9c565b610907576000828152602081815260408083206001600160a01b03851684529091529020805460ff19166001179055610ded3390565b6001600160a01b0316816001600160a01b0316837f2f8788117e7eff1d82e926ec794901d17c78024a50270940304540a733656f0d60405160405180910390a45050565b6000610b95836001600160a01b038416611525565b60006001600160e01b0319821663780e9d6360e01b14806104b057506104b082611574565b6000908152600460205260409020546001600160a01b0316151590565b600081815260066020526040902080546001600160a01b0319166001600160a01b0384169081179091558190610ebd82610a45565b6001600160a01b03167f8c5be1e5ebec7d5bd14f71427d1e84f3dd0314c0f7b2291e5b200ac8c7c3b92560405160405180910390a45050565b610f01600033610b9c565b610f435760405162461bcd60e51b81526020600482015260136024820152722aa720aaaa2427a924ad22a22fa1a0a62622a960691b60448201526064016105b0565b565b6000610f5082610e6b565b610fb15760405162461bcd60e51b815260206004820152602c60248201527f4552433732313a206f70657261746f7220717565727920666f72206e6f6e657860448201526b34b9ba32b73a103a37b5b2b760a11b60648201526084016105b0565b6000610fbc83610a45565b9050806001600160a01b0316846001600160a01b03161480610fe35750610fe38185610d56565b806110075750836001600160a01b0316610ffc84610548565b6001600160a01b0316145b949350505050565b826001600160a01b031661102282610a45565b6001600160a01b0316146110865760405162461bcd60e51b815260206004820152602560248201527f4552433732313a207472616e736665722066726f6d20696e636f72726563742060448201526437bbb732b960d91b60648201526084016105b0565b6001600160a01b0382166110e85760405162461bcd60e51b8152602060048201526024808201527f4552433732313a207472616e7366657220746f20746865207a65726f206164646044820152637265737360e01b60648201526084016105b0565b6110f38383836115b4565b6110fe600082610e88565b6001600160a01b03831660009081526005602052604081208054600192906111279084906126b4565b90915550506001600160a01b0382166000908152600560205260408120805460019290611155908490612669565b909155505060008181526004602052604080822080546001600160a01b0319166001600160a01b03868116918217909255915184939187169160008051602061281283398151915291a4505050565b6109af81336115bf565b6111b88282610dad565b60008281526001602052604090206106e19082610e31565b6111da8282611623565b60008281526001602052604090206106e19082611688565b6111fb82610e6b565b61125e5760405162461bcd60e51b815260206004820152602e60248201527f45524337323155524953746f726167653a2055524920736574206f66206e6f6e60448201526d32bc34b9ba32b73a103a37b5b2b760911b60648201526084016105b0565b600082815260086020908152604090912082516106e1928401906120ff565b6109af8161169d565b6109078282604051806020016040528060008152506116dd565b6060600f80546104c59061270e565b6000610b958383611710565b816001600160a01b0316836001600160a01b031614156113195760405162461bcd60e51b815260206004820152601960248201527822a9219b99189d1030b8383937bb32903a379031b0b63632b960391b60448201526064016105b0565b6001600160a01b03838116600081815260076020908152604080832094871680845294825291829020805460ff191686151590811790915591519182527f17307eab39ab6107e8899845ad3d59bd9653f200f220920489ca2b5937696c31910160405180910390a3505050565b61139184848461100f565b61139d8484848461173a565b610cef5760405162461bcd60e51b81526004016105b0906125c6565b60606113c482610e6b565b61142a5760405162461bcd60e51b815260206004820152603160248201527f45524337323155524953746f726167653a2055524920717565727920666f72206044820152703737b732bc34b9ba32b73a103a37b5b2b760791b60648201526084016105b0565b600082815260086020526040812080546114439061270e565b80601f016020809104026020016040519081016040528092919081815260200182805461146f9061270e565b80156114bc5780601f10611491576101008083540402835291602001916114bc565b820191906000526020600020905b81548152906001019060200180831161149f57829003601f168201915b5050505050905060006114cd6112a0565b90508051600014156114e0575092915050565b8151156115125780826040516020016114fa9291906124d8565b60405160208183030381529060405292505050919050565b61100784611847565b60006104b0825490565b600081815260018301602052604081205461156c575081546001818101845560008481526020808220909301849055845484825282860190935260409020919091556104b0565b5060006104b0565b60006001600160e01b031982166380ac58cd60e01b14806115a557506001600160e01b03198216635b5e139f60e01b145b806104b057506104b082611911565b6106e1838383611936565b6115c98282610b9c565b610907576115e1816001600160a01b031660146119ee565b6115ec8360206119ee565b6040516020016115fd929190612507565b60408051601f198184030181529082905262461bcd60e51b82526105b0916004016125b3565b61162d8282610b9c565b15610907576000828152602081815260408083206001600160a01b0385168085529252808320805460ff1916905551339285917ff6391f5c32d9c69d2a47ea670b442974b53935d1edc7fd64eb21e047a839171b9190a45050565b6000610b95836001600160a01b038416611b89565b6116a681611c7c565b600081815260086020526040902080546116bf9061270e565b1590506109af5760008181526008602052604081206109af91612183565b6116e78383611d11565b6116f4600084848461173a565b6106e15760405162461bcd60e51b81526004016105b0906125c6565b6000826000018281548110611727576117276127ba565b9060005260206000200154905092915050565b60006001600160a01b0384163b1561183c57604051630a85bd0160e11b81526001600160a01b0385169063150b7a029061177e903390899088908890600401612576565b602060405180830381600087803b15801561179857600080fd5b505af19250505080156117c8575060408051601f3d908101601f191682019092526117c591810190612435565b60015b611822573d8080156117f6576040519150601f19603f3d011682016040523d82523d6000602084013e6117fb565b606091505b50805161181a5760405162461bcd60e51b81526004016105b0906125c6565b805181602001fd5b6001600160e01b031916630a85bd0160e11b149050611007565b506001949350505050565b606061185282610e6b565b6118b65760405162461bcd60e51b815260206004820152602f60248201527f4552433732314d657461646174613a2055524920717565727920666f72206e6f60448201526e3732bc34b9ba32b73a103a37b5b2b760891b60648201526084016105b0565b60006118c06112a0565b905060008151116118e05760405180602001604052806000815250610b95565b806118ea84611e3d565b6040516020016118fb9291906124d8565b6040516020818303038152906040529392505050565b60006001600160e01b03198216635a05180f60e01b14806104b057506104b082611f3a565b6001600160a01b0383166119915761198c81600b80546000838152600c60205260408120829055600182018355919091527f0175b7a638427703f0dbe7bb9bbf987a2551717b34e79f33b5b1008d1fa01db90155565b6119b4565b816001600160a01b0316836001600160a01b0316146119b4576119b48382611f6f565b6001600160a01b0382166119cb576106e18161200c565b826001600160a01b0316826001600160a01b0316146106e1576106e182826120bb565b606060006119fd836002612695565b611a08906002612669565b6001600160401b03811115611a1f57611a1f6127d0565b6040519080825280601f01601f191660200182016040528015611a49576020820181803683370190505b509050600360fc1b81600081518110611a6457611a646127ba565b60200101906001600160f81b031916908160001a905350600f60fb1b81600181518110611a9357611a936127ba565b60200101906001600160f81b031916908160001a9053506000611ab7846002612695565b611ac2906001612669565b90505b6001811115611b3a576f181899199a1a9b1b9c1cb0b131b232b360811b85600f1660108110611af657611af66127ba565b1a60f81b828281518110611b0c57611b0c6127ba565b60200101906001600160f81b031916908160001a90535060049490941c93611b33816126f7565b9050611ac5565b508315610b955760405162461bcd60e51b815260206004820181905260248201527f537472696e67733a20686578206c656e67746820696e73756666696369656e7460448201526064016105b0565b60008181526001830160205260408120548015611c72576000611bad6001836126b4565b8554909150600090611bc1906001906126b4565b9050818114611c26576000866000018281548110611be157611be16127ba565b9060005260206000200154905080876000018481548110611c0457611c046127ba565b6000918252602080832090910192909255918252600188019052604090208390555b8554869080611c3757611c376127a4565b6001900381819060005260206000200160009055905585600101600086815260200190815260200160002060009055600193505050506104b0565b60009150506104b0565b6000611c8782610a45565b9050611c95816000846115b4565b611ca0600083610e88565b6001600160a01b0381166000908152600560205260408120805460019290611cc99084906126b4565b909155505060008281526004602052604080822080546001600160a01b0319169055518391906001600160a01b03841690600080516020612812833981519152908390a45050565b6001600160a01b038216611d675760405162461bcd60e51b815260206004820181905260248201527f4552433732313a206d696e7420746f20746865207a65726f206164647265737360448201526064016105b0565b611d7081610e6b565b15611dbc5760405162461bcd60e51b815260206004820152601c60248201527b115490cdcc8c4e881d1bdad95b88185b1c9958591e481b5a5b9d195960221b60448201526064016105b0565b611dc8600083836115b4565b6001600160a01b0382166000908152600560205260408120805460019290611df1908490612669565b909155505060008181526004602052604080822080546001600160a01b0319166001600160a01b0386169081179091559051839290600080516020612812833981519152908290a45050565b606081611e615750506040805180820190915260018152600360fc1b602082015290565b8160005b8115611e8b5780611e7581612749565b9150611e849050600a83612681565b9150611e65565b6000816001600160401b03811115611ea557611ea56127d0565b6040519080825280601f01601f191660200182016040528015611ecf576020820181803683370190505b5090505b841561100757611ee46001836126b4565b9150611ef1600a86612764565b611efc906030612669565b60f81b818381518110611f1157611f116127ba565b60200101906001600160f81b031916908160001a905350611f33600a86612681565b9450611ed3565b60006001600160e01b03198216637965db0b60e01b14806104b057506301ffc9a760e01b6001600160e01b03198316146104b0565b60006001611f7c84610af6565b611f8691906126b4565b6000838152600a6020526040902054909150808214611fd9576001600160a01b03841660009081526009602090815260408083208584528252808320548484528184208190558352600a90915290208190555b506000918252600a602090815260408084208490556001600160a01b039094168352600981528383209183525290812055565b600b5460009061201e906001906126b4565b6000838152600c6020526040812054600b8054939450909284908110612046576120466127ba565b9060005260206000200154905080600b8381548110612067576120676127ba565b6000918252602080832090910192909255828152600c9091526040808220849055858252812055600b80548061209f5761209f6127a4565b6001900381819060005260206000200160009055905550505050565b60006120c683610af6565b6001600160a01b0390931660009081526009602090815260408083208684528252808320859055938252600a9052919091209190915550565b82805461210b9061270e565b90600052602060002090601f01602090048101928261212d5760008555612173565b82601f1061214657805160ff1916838001178555612173565b82800160010185558215612173579182015b82811115612173578251825591602001919060010190612158565b5061217f9291506121b9565b5090565b50805461218f9061270e565b6000825580601f1061219f575050565b601f0160209004906000526020600020908101906109af91905b5b8082111561217f57600081556001016121ba565b60006001600160401b03808411156121e8576121e86127d0565b604051601f8501601f19908116603f01168101908282118183101715612210576122106127d0565b8160405280935085815286868601111561222957600080fd5b858560208301376000602087830101525050509392505050565b60006020828403121561225557600080fd5b8135610b95816127e6565b6000806040838503121561227357600080fd5b823561227e816127e6565b9150602083013561228e816127e6565b809150509250929050565b6000806000606084860312156122ae57600080fd5b83356122b9816127e6565b925060208401356122c9816127e6565b929592945050506040919091013590565b600080600080608085870312156122f057600080fd5b84356122fb816127e6565b9350602085013561230b816127e6565b92506040850135915060608501356001600160401b0381111561232d57600080fd5b8501601f8101871361233e57600080fd5b61234d878235602084016121ce565b91505092959194509250565b6000806040838503121561236c57600080fd5b8235612377816127e6565b91506020830135801515811461228e57600080fd5b6000806040838503121561239f57600080fd5b82356123aa816127e6565b946020939093013593505050565b6000602082840312156123ca57600080fd5b5035919050565b600080604083850312156123e457600080fd5b82359150602083013561228e816127e6565b6000806040838503121561240957600080fd5b50508035926020909101359150565b60006020828403121561242a57600080fd5b8135610b95816127fb565b60006020828403121561244757600080fd5b8151610b95816127fb565b6000806040838503121561246557600080fd5b8235915060208301356001600160401b0381111561248257600080fd5b8301601f8101851361249357600080fd5b6124a2858235602084016121ce565b9150509250929050565b600081518084526124c48160208601602086016126cb565b601f01601f19169290920160200192915050565b600083516124ea8184602088016126cb565b8351908301906124fe8183602088016126cb565b01949350505050565b76020b1b1b2b9b9a1b7b73a3937b61d1030b1b1b7bab73a1604d1b8152600083516125398160178501602088016126cb565b7001034b99036b4b9b9b4b733903937b6329607d1b601791840191820152835161256a8160288401602088016126cb565b01602801949350505050565b6001600160a01b03858116825284166020820152604081018390526080606082018190526000906125a9908301846124ac565b9695505050505050565b602081526000610b9560208301846124ac565b60208082526032908201527f4552433732313a207472616e7366657220746f206e6f6e20455243373231526560408201527131b2b4bb32b91034b6b83632b6b2b73a32b960711b606082015260800190565b60208082526031908201527f4552433732313a207472616e736665722063616c6c6572206973206e6f74206f6040820152701ddb995c881b9bdc88185c1c1c9bdd9959607a1b606082015260800190565b6000821982111561267c5761267c612778565b500190565b6000826126905761269061278e565b500490565b60008160001904831182151516156126af576126af612778565b500290565b6000828210156126c6576126c6612778565b500390565b60005b838110156126e65781810151838201526020016126ce565b83811115610cef5750506000910152565b60008161270657612706612778565b506000190190565b600181811c9082168061272257607f821691505b6020821081141561274357634e487b7160e01b600052602260045260246000fd5b50919050565b600060001982141561275d5761275d612778565b5060010190565b6000826127735761277361278e565b500690565b634e487b7160e01b600052601160045260246000fd5b634e487b7160e01b600052601260045260246000fd5b634e487b7160e01b600052603160045260246000fd5b634e487b7160e01b600052603260045260246000fd5b634e487b7160e01b600052604160045260246000fd5b6001600160a01b03811681146109af57600080fd5b6001600160e01b0319811681146109af57600080fdfeddf252ad1be2c89b69c2b068fc378daa952ba7f163c4a11628f55a4df523b3efa164736f6c6343000806000aa164736f6c6343000806000a",
  "linkReferences": {},
  "deployedLinkReferences": {}
}