{
  "_format": "hh-sol-artifact-1",
  "contractName": "RC3_721_Factory",
  "sourceName": "contracts/RC3_721_Factory.sol",
  "abi": [
    {
      "anonymous": false,
      "inputs": [
        {
          "indexed": true,
          "internalType": "address",
          "name": "creator",
          "type": "address"
        },
        {
          "indexed": true,
          "internalType": "address",
          "name": "token",
          "type": "address"
        }
      ],
      "name": "Created",
      "type": "event"
    },
    {
      "inputs": [
        {
          "internalType": "string",
          "name": "_name",
          "type": "string"
        },
        {
          "internalType": "string",
          "name": "_symbol",
          "type": "string"
        },
        {
          "internalType": "string",
          "name": "_uri",
          "type": "string"
        },
        {
          "internalType": "uint96",
          "name": "_royalty",
          "type": "uint96"
        }
      ],
      "name": "create721NFT",
      "outputs": [
        {
          "internalType": "address",
          "name": "createdAddr",
          "type": "address"
        }
      ],
      "stateMutability": "nonpayable",
      "type": "function"
    },
    {
      "inputs": [],
      "name": "get721Lists",
      "outputs": [
        {
          "internalType": "address[]",
          "name": "",
          "type": "address[]"
        },
        {
          "internalType": "uint256",
          "name": "length",
          "type": "uint256"
        }
      ],
      "stateMutability": "view",
      "type": "function"
    }
  ],
  "bytecode": "0x608060405234801561001057600080fd5b506130ed806100206000396000f3fe608060405234801561001057600080fd5b50600436106100365760003560e01c80635ca184a01461003b578063e682e0c51461005a575b600080fd5b610043610085565b60405161005192919061035a565b60405180910390f35b61006d610068366004610267565b6100f4565b6040516001600160a01b039091168152602001610051565b6060600080600080549050818054806020026020016040519081016040528092919081815260200182805480156100e557602002820191906000526020600020905b81546001600160a01b031681526001909101906020018083116100c7575b50505050509150915091509091565b60006101028585858561010b565b95945050505050565b600080858585338660405161011f906101cd565b61012d9594939291906103ab565b604051809103906000f080158015610149573d6000803e3d6000fd5b50600080546001810182558180527f290decd9548b62a8d60345a988386fc84ba6bc95484008f6362f93160ef3e5630180546001600160a01b0319166001600160a01b0384169081179091556040519294508493509133917f587ece4cd19692c5be1a4184503d607d45542d2aca0698c0068f52e09ccb541c91a350949350505050565b612cba806200042783390190565b600082601f8301126101ec57600080fd5b81356001600160401b038082111561020657610206610410565b604051601f8301601f19908116603f0116810190828211818310171561022e5761022e610410565b8160405283815286602085880101111561024757600080fd5b836020870160208301376000602085830101528094505050505092915050565b6000806000806080858703121561027d57600080fd5b84356001600160401b038082111561029457600080fd5b6102a0888389016101db565b955060208701359150808211156102b657600080fd5b6102c2888389016101db565b945060408701359150808211156102d857600080fd5b506102e5878288016101db565b92505060608501356001600160601b038116811461030257600080fd5b939692955090935050565b6000815180845260005b8181101561033357602081850181015186830182015201610317565b81811115610345576000602083870101525b50601f01601f19169290920160200192915050565b604080825283519082018190526000906020906060840190828701845b8281101561039c5781516001600160a01b031684529284019290840190600101610377565b50505092019290925292915050565b60a0815260006103be60a083018861030d565b82810360208401526103d0818861030d565b905082810360408401526103e4818761030d565b6001600160a01b0395909516606084015250506001600160601b03919091166080909101529392505050565b634e487b7160e01b600052604160045260246000fdfe60806040523480156200001157600080fd5b5060405162002cba38038062002cba833981016040819052620000349162000393565b8451859085906200004d90600290602085019062000236565b5080516200006390600390602084019062000236565b505083516200007b9150600f90602086019062000236565b50601080546001600160a01b0319166001600160a01b038416179055600e80546001600160601b0319166001600160601b038316179055620000c66000620000c03390565b620000d1565b5050505050620004bc565b620000dd8282620000e1565b5050565b620000f882826200012460201b62000d631760201c565b60008281526001602090815260409091206200011f91839062000de7620001c4821b17901c565b505050565b6000828152602081815260408083206001600160a01b038516845290915290205460ff16620000dd576000828152602081815260408083206001600160a01b03851684529091529020805460ff19166001179055620001803390565b6001600160a01b0316816001600160a01b0316837f2f8788117e7eff1d82e926ec794901d17c78024a50270940304540a733656f0d60405160405180910390a45050565b6000620001db836001600160a01b038416620001e4565b90505b92915050565b60008181526001830160205260408120546200022d57508154600181810184556000848152602080822090930184905584548482528286019093526040902091909155620001de565b506000620001de565b828054620002449062000469565b90600052602060002090601f016020900481019282620002685760008555620002b3565b82601f106200028357805160ff1916838001178555620002b3565b82800160010185558215620002b3579182015b82811115620002b357825182559160200191906001019062000296565b50620002c1929150620002c5565b5090565b5b80821115620002c15760008155600101620002c6565b600082601f830112620002ee57600080fd5b81516001600160401b03808211156200030b576200030b620004a6565b604051601f8301601f19908116603f01168101908282118183101715620003365762000336620004a6565b816040528381526020925086838588010111156200035357600080fd5b600091505b8382101562000377578582018301518183018401529082019062000358565b83821115620003895760008385830101525b9695505050505050565b600080600080600060a08688031215620003ac57600080fd5b85516001600160401b0380821115620003c457600080fd5b620003d289838a01620002dc565b96506020880151915080821115620003e957600080fd5b620003f789838a01620002dc565b955060408801519150808211156200040e57600080fd5b506200041d88828901620002dc565b606088015190945090506001600160a01b03811681146200043d57600080fd5b60808701519092506001600160601b03811681146200045b57600080fd5b809150509295509295909350565b600181811c908216806200047e57607f821691505b60208210811415620004a057634e487b7160e01b600052602260045260246000fd5b50919050565b634e487b7160e01b600052604160045260246000fd5b6127ee80620004cc6000396000f3fe608060405234801561001057600080fd5b50600436106101a15760003560e01c806301ffc9a7146101a657806306fdde03146101ce578063081812fc146101e3578063095ea7b31461020e57806315bcf9b71461022357806318160ddd1461023657806323b872dd14610248578063248a9ca31461025b57806329ee566c1461026e5780632f2ff15d146102995780632f745c59146102ac57806336568abe146102bf5780633adf80b4146102d257806342842e0e146102e557806342966c68146102f85780634ec5908d1461030b5780634f6ccce71461031e5780636352211e146103315780636a627842146103445780636c0360eb1461035757806370a082311461035f5780639010d07c1461037257806391d148541461038557806395d89b4114610398578063a217fddf146103a0578063a22cb465146103a8578063a2e69613146103bb578063ac8810801461030b578063b88d4fde146103ce578063c87b56dd146103e1578063ca15c873146103f4578063cef6d36814610407578063d547741f14610439578063e80bc6e11461044c578063e985e9c51461046f575b600080fd5b6101b96101b43660046123c8565b610482565b60405190151581526020015b60405180910390f35b6101d66104ad565b6040516101c59190612563565b6101f66101f1366004612368565b61053f565b6040516001600160a01b0390911681526020016101c5565b61022161021c36600461233c565b6105cc565b005b610221610231366004612309565b6106dd565b600b545b6040519081526020016101c5565b610221610256366004612249565b61078d565b61023a610269366004612368565b6107bf565b600e54610281906001600160601b031681565b6040516001600160601b0390911681526020016101c5565b6102216102a7366004612381565b6107d4565b61023a6102ba36600461233c565b6107f1565b6102216102cd366004612381565b610887565b6102216102e0366004612402565b610905565b6102216102f3366004612249565b610917565b610221610306366004612368565b610932565b6102216103193660046121f3565b6109ac565b61023a61032c366004612368565b610a1e565b6101f661033f366004612368565b610ab1565b61023a6103523660046121f3565b610b28565b6101d6610b53565b61023a61036d3660046121f3565b610b62565b6101f66103803660046123a6565b610be9565b6101b9610393366004612381565b610c08565b6101d6610c31565b61023a600081565b6102216103b6366004612309565b610c40565b61023a6103c9366004612368565b610c4b565b6102216103dc36600461228a565b610c72565b6101d66103ef366004612368565b610caa565b61023a610402366004612368565b610cb5565b61041a610415366004612368565b610ccc565b604080516001600160a01b0390931683526020830191909152016101c5565b610221610447366004612381565b610cef565b6101b961045a3660046121f3565b60116020526000908152604090205460ff1681565b6101b961047d366004612210565b610d0c565b600063152a902d60e11b6001600160e01b0319831614806104a757506104a782610dfc565b92915050565b6060600280546104bc906126be565b80601f01602080910402602001604051908101604052809291908181526020018280546104e8906126be565b80156105355780601f1061050a57610100808354040283529160200191610535565b820191906000526020600020905b81548152906001019060200180831161051857829003601f168201915b5050505050905090565b600061054a82610e21565b6105b05760405162461bcd60e51b815260206004820152602c60248201527f4552433732313a20617070726f76656420717565727920666f72206e6f6e657860448201526b34b9ba32b73a103a37b5b2b760a11b60648201526084015b60405180910390fd5b506000908152600660205260409020546001600160a01b031690565b60006105d782610ab1565b9050806001600160a01b0316836001600160a01b031614156106455760405162461bcd60e51b815260206004820152602160248201527f4552433732313a20617070726f76616c20746f2063757272656e74206f776e656044820152603960f91b60648201526084016105a7565b336001600160a01b038216148061066157506106618133610d0c565b6106ce5760405162461bcd60e51b815260206004820152603860248201527f4552433732313a20617070726f76652063616c6c6572206973206e6f74206f776044820152771b995c881b9bdc88185c1c1c9bdd995908199bdc88185b1b60421b60648201526084016105a7565b6106d88383610e3e565b505050565b6106e5610eac565b6001600160a01b03821661072a5760405162461bcd60e51b815260206004820152600c60248201526b5a45524f5f4144445245535360a01b60448201526064016105a7565b6001600160a01b038216600081815260116020908152604091829020805460ff19168515159081179091558251338152918201527f9e2bd848ed96e551d65a5248c15480b97b14b10a342c4194fe315d1e8a24fe84910160405180910390a25050565b610798335b82610efb565b6107b45760405162461bcd60e51b81526004016105a7906125c8565b6106d8838383610fc5565b60009081526020819052604090206001015490565b6107dd826107bf565b6107e7813361115e565b6106d883836111c2565b60006107fc83610b62565b821061085e5760405162461bcd60e51b815260206004820152602b60248201527f455243373231456e756d657261626c653a206f776e657220696e646578206f7560448201526a74206f6620626f756e647360a81b60648201526084016105a7565b506001600160a01b03919091166000908152600960209081526040808320938352929052205490565b6001600160a01b03811633146108f75760405162461bcd60e51b815260206004820152602f60248201527f416363657373436f6e74726f6c3a2063616e206f6e6c792072656e6f756e636560448201526e103937b632b9903337b91039b2b63360891b60648201526084016105a7565b61090182826111e4565b5050565b61090d610eac565b6109018282611206565b6106d883838360405180602001604052806000815250610c72565b61093b33610792565b6109a05760405162461bcd60e51b815260206004820152603060248201527f4552433732314275726e61626c653a2063616c6c6572206973206e6f74206f7760448201526f1b995c881b9bdc88185c1c1c9bdd995960821b60648201526084016105a7565b6109a981611291565b50565b6109b4610eac565b6001600160a01b0381166109fc5760405162461bcd60e51b815260206004820152600f60248201526e494e56414c49445f4144445245535360881b60448201526064016105a7565b601080546001600160a01b0319166001600160a01b0392909216919091179055565b6000610a29600b5490565b8210610a8c5760405162461bcd60e51b815260206004820152602c60248201527f455243373231456e756d657261626c653a20676c6f62616c20696e646578206f60448201526b7574206f6620626f756e647360a01b60648201526084016105a7565b600b8281548110610a9f57610a9f61276a565b90600052602060002001549050919050565b6000818152600460205260408120546001600160a01b0316806104a75760405162461bcd60e51b815260206004820152602960248201527f4552433732313a206f776e657220717565727920666f72206e6f6e657869737460448201526832b73a103a37b5b2b760b91b60648201526084016105a7565b6000610b32610eac565b610b40600d80546001019055565b50600d54610b4e828261129a565b919050565b6060610b5d6112b4565b905090565b60006001600160a01b038216610bcd5760405162461bcd60e51b815260206004820152602a60248201527f4552433732313a2062616c616e636520717565727920666f7220746865207a65604482015269726f206164647265737360b01b60648201526084016105a7565b506001600160a01b031660009081526005602052604090205490565b6000828152600160205260408120610c0190836112c3565b9392505050565b6000918252602082815260408084206001600160a01b0393909316845291905290205460ff1690565b6060600380546104bc906126be565b6109013383836112cf565b600e5460009061271090610c68906001600160601b031684612645565b6104a79190612631565b610c7c3383610efb565b610c985760405162461bcd60e51b81526004016105a7906125c8565b610ca48484848461139a565b50505050565b60606104a7826113cd565b60008181526001602052604081206104a79061152f565b60105460009081906001600160a01b0316610ce684610c4b565b91509150915091565b610cf8826107bf565b610d02813361115e565b6106d883836111e4565b6001600160a01b03811660009081526011602052604081205460ff1615610d35575060016104a7565b6001600160a01b0380841660009081526007602090815260408083209386168352929052205460ff16610c01565b610d6d8282610c08565b610901576000828152602081815260408083206001600160a01b03851684529091529020805460ff19166001179055610da33390565b6001600160a01b0316816001600160a01b0316837f2f8788117e7eff1d82e926ec794901d17c78024a50270940304540a733656f0d60405160405180910390a45050565b6000610c01836001600160a01b038416611539565b60006001600160e01b0319821663780e9d6360e01b14806104a757506104a782611588565b6000908152600460205260409020546001600160a01b0316151590565b600081815260066020526040902080546001600160a01b0319166001600160a01b0384169081179091558190610e7382610ab1565b6001600160a01b03167f8c5be1e5ebec7d5bd14f71427d1e84f3dd0314c0f7b2291e5b200ac8c7c3b92560405160405180910390a45050565b610eb7600033610c08565b610ef95760405162461bcd60e51b81526020600482015260136024820152722aa720aaaa2427a924ad22a22fa1a0a62622a960691b60448201526064016105a7565b565b6000610f0682610e21565b610f675760405162461bcd60e51b815260206004820152602c60248201527f4552433732313a206f70657261746f7220717565727920666f72206e6f6e657860448201526b34b9ba32b73a103a37b5b2b760a11b60648201526084016105a7565b6000610f7283610ab1565b9050806001600160a01b0316846001600160a01b03161480610fad5750836001600160a01b0316610fa28461053f565b6001600160a01b0316145b80610fbd5750610fbd8185610d0c565b949350505050565b826001600160a01b0316610fd882610ab1565b6001600160a01b0316146110405760405162461bcd60e51b815260206004820152602960248201527f4552433732313a207472616e73666572206f6620746f6b656e2074686174206960448201526839903737ba1037bbb760b91b60648201526084016105a7565b6001600160a01b0382166110a25760405162461bcd60e51b8152602060048201526024808201527f4552433732313a207472616e7366657220746f20746865207a65726f206164646044820152637265737360e01b60648201526084016105a7565b6110ad8383836115c8565b6110b8600082610e3e565b6001600160a01b03831660009081526005602052604081208054600192906110e1908490612664565b90915550506001600160a01b038216600090815260056020526040812080546001929061110f908490612619565b909155505060008181526004602052604080822080546001600160a01b0319166001600160a01b0386811691821790925591518493918716916000805160206127c283398151915291a4505050565b6111688282610c08565b61090157611180816001600160a01b031660146115d3565b61118b8360206115d3565b60405160200161119c9291906124b7565b60408051601f198184030181529082905262461bcd60e51b82526105a791600401612563565b6111cc8282610d63565b60008281526001602052604090206106d89082610de7565b6111ee828261176e565b60008281526001602052604090206106d890826117d3565b61120f82610e21565b6112725760405162461bcd60e51b815260206004820152602e60248201527f45524337323155524953746f726167653a2055524920736574206f66206e6f6e60448201526d32bc34b9ba32b73a103a37b5b2b760911b60648201526084016105a7565b600082815260086020908152604090912082516106d8928401906120af565b6109a9816117e8565b610901828260405180602001604052806000815250611828565b6060600f80546104bc906126be565b6000610c01838361185b565b816001600160a01b0316836001600160a01b0316141561132d5760405162461bcd60e51b815260206004820152601960248201527822a9219b99189d1030b8383937bb32903a379031b0b63632b960391b60448201526064016105a7565b6001600160a01b03838116600081815260076020908152604080832094871680845294825291829020805460ff191686151590811790915591519182527f17307eab39ab6107e8899845ad3d59bd9653f200f220920489ca2b5937696c31910160405180910390a3505050565b6113a5848484610fc5565b6113b184848484611885565b610ca45760405162461bcd60e51b81526004016105a790612576565b60606113d882610e21565b61143e5760405162461bcd60e51b815260206004820152603160248201527f45524337323155524953746f726167653a2055524920717565727920666f72206044820152703737b732bc34b9ba32b73a103a37b5b2b760791b60648201526084016105a7565b60008281526008602052604081208054611457906126be565b80601f0160208091040260200160405190810160405280929190818152602001828054611483906126be565b80156114d05780601f106114a5576101008083540402835291602001916114d0565b820191906000526020600020905b8154815290600101906020018083116114b357829003601f168201915b5050505050905060006114e16112b4565b90508051600014156114f4575092915050565b81511561152657808260405160200161150e929190612488565b60405160208183030381529060405292505050919050565b610fbd84611992565b60006104a7825490565b6000818152600183016020526040812054611580575081546001818101845560008481526020808220909301849055845484825282860190935260409020919091556104a7565b5060006104a7565b60006001600160e01b031982166380ac58cd60e01b14806115b957506001600160e01b03198216635b5e139f60e01b145b806104a757506104a782611a5c565b6106d8838383611a81565b606060006115e2836002612645565b6115ed906002612619565b6001600160401b0381111561160457611604612780565b6040519080825280601f01601f19166020018201604052801561162e576020820181803683370190505b509050600360fc1b816000815181106116495761164961276a565b60200101906001600160f81b031916908160001a905350600f60fb1b816001815181106116785761167861276a565b60200101906001600160f81b031916908160001a905350600061169c846002612645565b6116a7906001612619565b90505b600181111561171f576f181899199a1a9b1b9c1cb0b131b232b360811b85600f16601081106116db576116db61276a565b1a60f81b8282815181106116f1576116f161276a565b60200101906001600160f81b031916908160001a90535060049490941c93611718816126a7565b90506116aa565b508315610c015760405162461bcd60e51b815260206004820181905260248201527f537472696e67733a20686578206c656e67746820696e73756666696369656e7460448201526064016105a7565b6117788282610c08565b15610901576000828152602081815260408083206001600160a01b0385168085529252808320805460ff1916905551339285917ff6391f5c32d9c69d2a47ea670b442974b53935d1edc7fd64eb21e047a839171b9190a45050565b6000610c01836001600160a01b038416611b39565b6117f181611c2c565b6000818152600860205260409020805461180a906126be565b1590506109a95760008181526008602052604081206109a991612133565b6118328383611cc1565b61183f6000848484611885565b6106d85760405162461bcd60e51b81526004016105a790612576565b60008260000182815481106118725761187261276a565b9060005260206000200154905092915050565b60006001600160a01b0384163b1561198757604051630a85bd0160e11b81526001600160a01b0385169063150b7a02906118c9903390899088908890600401612526565b602060405180830381600087803b1580156118e357600080fd5b505af1925050508015611913575060408051601f3d908101601f19168201909252611910918101906123e5565b60015b61196d573d808015611941576040519150601f19603f3d011682016040523d82523d6000602084013e611946565b606091505b5080516119655760405162461bcd60e51b81526004016105a790612576565b805181602001fd5b6001600160e01b031916630a85bd0160e11b149050610fbd565b506001949350505050565b606061199d82610e21565b611a015760405162461bcd60e51b815260206004820152602f60248201527f4552433732314d657461646174613a2055524920717565727920666f72206e6f60448201526e3732bc34b9ba32b73a103a37b5b2b760891b60648201526084016105a7565b6000611a0b6112b4565b90506000815111611a2b5760405180602001604052806000815250610c01565b80611a3584611ded565b604051602001611a46929190612488565b6040516020818303038152906040529392505050565b60006001600160e01b03198216635a05180f60e01b14806104a757506104a782611eea565b6001600160a01b038316611adc57611ad781600b80546000838152600c60205260408120829055600182018355919091527f0175b7a638427703f0dbe7bb9bbf987a2551717b34e79f33b5b1008d1fa01db90155565b611aff565b816001600160a01b0316836001600160a01b031614611aff57611aff8382611f1f565b6001600160a01b038216611b16576106d881611fbc565b826001600160a01b0316826001600160a01b0316146106d8576106d8828261206b565b60008181526001830160205260408120548015611c22576000611b5d600183612664565b8554909150600090611b7190600190612664565b9050818114611bd6576000866000018281548110611b9157611b9161276a565b9060005260206000200154905080876000018481548110611bb457611bb461276a565b6000918252602080832090910192909255918252600188019052604090208390555b8554869080611be757611be7612754565b6001900381819060005260206000200160009055905585600101600086815260200190815260200160002060009055600193505050506104a7565b60009150506104a7565b6000611c3782610ab1565b9050611c45816000846115c8565b611c50600083610e3e565b6001600160a01b0381166000908152600560205260408120805460019290611c79908490612664565b909155505060008281526004602052604080822080546001600160a01b0319169055518391906001600160a01b038416906000805160206127c2833981519152908390a45050565b6001600160a01b038216611d175760405162461bcd60e51b815260206004820181905260248201527f4552433732313a206d696e7420746f20746865207a65726f206164647265737360448201526064016105a7565b611d2081610e21565b15611d6c5760405162461bcd60e51b815260206004820152601c60248201527b115490cdcc8c4e881d1bdad95b88185b1c9958591e481b5a5b9d195960221b60448201526064016105a7565b611d78600083836115c8565b6001600160a01b0382166000908152600560205260408120805460019290611da1908490612619565b909155505060008181526004602052604080822080546001600160a01b0319166001600160a01b03861690811790915590518392906000805160206127c2833981519152908290a45050565b606081611e115750506040805180820190915260018152600360fc1b602082015290565b8160005b8115611e3b5780611e25816126f9565b9150611e349050600a83612631565b9150611e15565b6000816001600160401b03811115611e5557611e55612780565b6040519080825280601f01601f191660200182016040528015611e7f576020820181803683370190505b5090505b8415610fbd57611e94600183612664565b9150611ea1600a86612714565b611eac906030612619565b60f81b818381518110611ec157611ec161276a565b60200101906001600160f81b031916908160001a905350611ee3600a86612631565b9450611e83565b60006001600160e01b03198216637965db0b60e01b14806104a757506301ffc9a760e01b6001600160e01b03198316146104a7565b60006001611f2c84610b62565b611f369190612664565b6000838152600a6020526040902054909150808214611f89576001600160a01b03841660009081526009602090815260408083208584528252808320548484528184208190558352600a90915290208190555b506000918252600a602090815260408084208490556001600160a01b039094168352600981528383209183525290812055565b600b54600090611fce90600190612664565b6000838152600c6020526040812054600b8054939450909284908110611ff657611ff661276a565b9060005260206000200154905080600b83815481106120175761201761276a565b6000918252602080832090910192909255828152600c9091526040808220849055858252812055600b80548061204f5761204f612754565b6001900381819060005260206000200160009055905550505050565b600061207683610b62565b6001600160a01b0390931660009081526009602090815260408083208684528252808320859055938252600a9052919091209190915550565b8280546120bb906126be565b90600052602060002090601f0160209004810192826120dd5760008555612123565b82601f106120f657805160ff1916838001178555612123565b82800160010185558215612123579182015b82811115612123578251825591602001919060010190612108565b5061212f929150612169565b5090565b50805461213f906126be565b6000825580601f1061214f575050565b601f0160209004906000526020600020908101906109a991905b5b8082111561212f576000815560010161216a565b60006001600160401b038084111561219857612198612780565b604051601f8501601f19908116603f011681019082821181831017156121c0576121c0612780565b816040528093508581528686860111156121d957600080fd5b858560208301376000602087830101525050509392505050565b60006020828403121561220557600080fd5b8135610c0181612796565b6000806040838503121561222357600080fd5b823561222e81612796565b9150602083013561223e81612796565b809150509250929050565b60008060006060848603121561225e57600080fd5b833561226981612796565b9250602084013561227981612796565b929592945050506040919091013590565b600080600080608085870312156122a057600080fd5b84356122ab81612796565b935060208501356122bb81612796565b92506040850135915060608501356001600160401b038111156122dd57600080fd5b8501601f810187136122ee57600080fd5b6122fd8782356020840161217e565b91505092959194509250565b6000806040838503121561231c57600080fd5b823561232781612796565b91506020830135801515811461223e57600080fd5b6000806040838503121561234f57600080fd5b823561235a81612796565b946020939093013593505050565b60006020828403121561237a57600080fd5b5035919050565b6000806040838503121561239457600080fd5b82359150602083013561223e81612796565b600080604083850312156123b957600080fd5b50508035926020909101359150565b6000602082840312156123da57600080fd5b8135610c01816127ab565b6000602082840312156123f757600080fd5b8151610c01816127ab565b6000806040838503121561241557600080fd5b8235915060208301356001600160401b0381111561243257600080fd5b8301601f8101851361244357600080fd5b6124528582356020840161217e565b9150509250929050565b6000815180845261247481602086016020860161267b565b601f01601f19169290920160200192915050565b6000835161249a81846020880161267b565b8351908301906124ae81836020880161267b565b01949350505050565b76020b1b1b2b9b9a1b7b73a3937b61d1030b1b1b7bab73a1604d1b8152600083516124e981601785016020880161267b565b7001034b99036b4b9b9b4b733903937b6329607d1b601791840191820152835161251a81602884016020880161267b565b01602801949350505050565b6001600160a01b03858116825284166020820152604081018390526080606082018190526000906125599083018461245c565b9695505050505050565b602081526000610c01602083018461245c565b60208082526032908201527f4552433732313a207472616e7366657220746f206e6f6e20455243373231526560408201527131b2b4bb32b91034b6b83632b6b2b73a32b960711b606082015260800190565b60208082526031908201527f4552433732313a207472616e736665722063616c6c6572206973206e6f74206f6040820152701ddb995c881b9bdc88185c1c1c9bdd9959607a1b606082015260800190565b6000821982111561262c5761262c612728565b500190565b6000826126405761264061273e565b500490565b600081600019048311821515161561265f5761265f612728565b500290565b60008282101561267657612676612728565b500390565b60005b8381101561269657818101518382015260200161267e565b83811115610ca45750506000910152565b6000816126b6576126b6612728565b506000190190565b600181811c908216806126d257607f821691505b602082108114156126f357634e487b7160e01b600052602260045260246000fd5b50919050565b600060001982141561270d5761270d612728565b5060010190565b6000826127235761272361273e565b500690565b634e487b7160e01b600052601160045260246000fd5b634e487b7160e01b600052601260045260246000fd5b634e487b7160e01b600052603160045260246000fd5b634e487b7160e01b600052603260045260246000fd5b634e487b7160e01b600052604160045260246000fd5b6001600160a01b03811681146109a957600080fd5b6001600160e01b0319811681146109a957600080fdfeddf252ad1be2c89b69c2b068fc378daa952ba7f163c4a11628f55a4df523b3efa164736f6c6343000806000aa164736f6c6343000806000a",
  "linkReferences": {},
  "deployedLinkReferences": {}
}