{
  "_format": "hh-sol-artifact-1",
  "contractName": "RC3_721_Factory",
  "sourceName": "contracts/RC3_721_Factory.sol",
  "abi": [
    {
      "anonymous": false,
      "inputs": [
        {
          "indexed": true,
          "internalType": "address",
          "name": "creator",
          "type": "address"
        },
        {
          "indexed": true,
          "internalType": "address",
          "name": "token",
          "type": "address"
        }
      ],
      "name": "Created",
      "type": "event"
    },
    {
      "inputs": [
        {
          "internalType": "string",
          "name": "_name",
          "type": "string"
        },
        {
          "internalType": "string",
          "name": "_symbol",
          "type": "string"
        },
        {
          "internalType": "string",
          "name": "_uri",
          "type": "string"
        },
        {
          "internalType": "uint96",
          "name": "_royalty",
          "type": "uint96"
        }
      ],
      "name": "create721NFT",
      "outputs": [
        {
          "internalType": "address",
          "name": "createdAddr",
          "type": "address"
        }
      ],
      "stateMutability": "nonpayable",
      "type": "function"
    },
    {
      "inputs": [],
      "name": "get721List",
      "outputs": [
        {
          "internalType": "address[]",
          "name": "",
          "type": "address[]"
        },
        {
          "internalType": "uint256",
          "name": "length",
          "type": "uint256"
        }
      ],
      "stateMutability": "view",
      "type": "function"
    }
  ],
  "bytecode": "0x608060405234801561001057600080fd5b506131ba806100206000396000f3fe60806040523480156200001157600080fd5b50600436106200003a5760003560e01c8063a7a71ad1146200003f578063e682e0c51462000062575b600080fd5b6200004962000092565b6040516200005992919062000386565b60405180910390f35b620000796200007336600462000285565b62000103565b6040516001600160a01b03909116815260200162000059565b606060008060008054905081805480602002602001604051908101604052809291908181526020018280548015620000f457602002820191906000526020600020905b81546001600160a01b03168152600190910190602001808311620000d5575b50505050509150915091509091565b600062000113858585856200011c565b95945050505050565b60008085858533866040516200013290620001e3565b62000142959493929190620003d9565b604051809103906000f0801580156200015f573d6000803e3d6000fd5b50600080546001810182558180527f290decd9548b62a8d60345a988386fc84ba6bc95484008f6362f93160ef3e5630180546001600160a01b0319166001600160a01b0384169081179091556040519294508493509133917f587ece4cd19692c5be1a4184503d607d45542d2aca0698c0068f52e09ccb541c91a350949350505050565b612d53806200045b83390190565b600082601f8301126200020357600080fd5b81356001600160401b038082111562000220576200022062000444565b604051601f8301601f19908116603f011681019082821181831017156200024b576200024b62000444565b816040528381528660208588010111156200026557600080fd5b836020870160208301376000602085830101528094505050505092915050565b600080600080608085870312156200029c57600080fd5b84356001600160401b0380821115620002b457600080fd5b620002c288838901620001f1565b95506020870135915080821115620002d957600080fd5b620002e788838901620001f1565b94506040870135915080821115620002fe57600080fd5b506200030d87828801620001f1565b92505060608501356001600160601b03811681146200032b57600080fd5b939692955090935050565b6000815180845260005b818110156200035e5760208185018101518683018201520162000340565b8181111562000371576000602083870101525b50601f01601f19169290920160200192915050565b604080825283519082018190526000906020906060840190828701845b82811015620003ca5781516001600160a01b031684529284019290840190600101620003a3565b50505092019290925292915050565b60a081526000620003ee60a083018862000336565b828103602084015262000402818862000336565b9050828103604084015262000418818762000336565b6001600160a01b0395909516606084015250506001600160601b03919091166080909101529392505050565b634e487b7160e01b600052604160045260246000fdfe60a06040523480156200001157600080fd5b5060405162002d5338038062002d538339810160408190526200003491620003ca565b8451859085906200004d9060029060208501906200026d565b508051620000639060039060208401906200026d565b5050506001600160a01b038216620000b35760405162461bcd60e51b815260206004820152600f60248201526e496e76616c6964206164647265737360881b604482015260640160405180910390fd5b8251620000c890600f9060208601906200026d565b50600e80546001600160a01b03199081166001600160a01b0385161790915560a082901b16608052620000fd60003362000108565b5050505050620004f3565b62000114828262000118565b5050565b6200012f82826200015b60201b62000daf1760201c565b60008281526001602090815260409091206200015691839062000e33620001fb821b17901c565b505050565b6000828152602081815260408083206001600160a01b038516845290915290205460ff1662000114576000828152602081815260408083206001600160a01b03851684529091529020805460ff19166001179055620001b73390565b6001600160a01b0316816001600160a01b0316837f2f8788117e7eff1d82e926ec794901d17c78024a50270940304540a733656f0d60405160405180910390a45050565b600062000212836001600160a01b0384166200021b565b90505b92915050565b6000818152600183016020526040812054620002645750815460018181018455600084815260208082209093018490558454848252828601909352604090209190915562000215565b50600062000215565b8280546200027b90620004a0565b90600052602060002090601f0160209004810192826200029f5760008555620002ea565b82601f10620002ba57805160ff1916838001178555620002ea565b82800160010185558215620002ea579182015b82811115620002ea578251825591602001919060010190620002cd565b50620002f8929150620002fc565b5090565b5b80821115620002f85760008155600101620002fd565b600082601f8301126200032557600080fd5b81516001600160401b0380821115620003425762000342620004dd565b604051601f8301601f19908116603f011681019082821181831017156200036d576200036d620004dd565b816040528381526020925086838588010111156200038a57600080fd5b600091505b83821015620003ae57858201830151818301840152908201906200038f565b83821115620003c05760008385830101525b9695505050505050565b600080600080600060a08688031215620003e357600080fd5b85516001600160401b0380821115620003fb57600080fd5b6200040989838a0162000313565b965060208801519150808211156200042057600080fd5b6200042e89838a0162000313565b955060408801519150808211156200044557600080fd5b50620004548882890162000313565b606088015190945090506001600160a01b03811681146200047457600080fd5b60808701519092506001600160601b03811681146200049257600080fd5b809150509295509295909350565b600181811c90821680620004b557607f821691505b60208210811415620004d757634e487b7160e01b600052602260045260246000fd5b50919050565b634e487b7160e01b600052604160045260246000fd5b60805160a01c61283a62000519600039600081816102680152610bf2015261283a6000f3fe608060405234801561001057600080fd5b50600436106101965760003560e01c806301ffc9a71461019b57806306fdde03146101c3578063081812fc146101d8578063095ea7b31461020357806315bcf9b71461021857806318160ddd1461022b57806323b872dd1461023d578063248a9ca31461025057806329ee566c146102635780632f2ff15d146102a25780632f745c59146102b557806336568abe146102c85780633adf80b4146102db57806342842e0e146102ee57806342966c68146103015780634f6ccce7146103145780636352211e146103275780636a6278421461033a5780636c0360eb1461034d57806370a08231146103555780639010d07c1461036857806391d148541461037b57806395d89b411461038e578063a217fddf14610396578063a22cb4651461039e578063a2e69613146103b1578063ac881080146103c4578063b88d4fde146103d7578063c87b56dd146103ea578063ca15c873146103fd578063cef6d36814610410578063d547741f14610442578063e80bc6e114610455578063e985e9c514610478575b600080fd5b6101ae6101a9366004612414565b61048b565b60405190151581526020015b60405180910390f35b6101cb6104b6565b6040516101ba91906125af565b6101eb6101e63660046123b4565b610548565b6040516001600160a01b0390911681526020016101ba565b610216610211366004612388565b6105d5565b005b610216610226366004612355565b6106e6565b600b545b6040519081526020016101ba565b61021661024b366004612295565b610794565b61022f61025e3660046123b4565b6107c6565b61028a7f000000000000000000000000000000000000000000000000000000000000000081565b6040516001600160601b0390911681526020016101ba565b6102166102b03660046123cd565b6107db565b61022f6102c3366004612388565b6107f8565b6102166102d63660046123cd565b61088e565b6102166102e936600461244e565b61090c565b6102166102fc366004612295565b61091e565b61021661030f3660046123b4565b610939565b61022f6103223660046123b4565b6109b3565b6101eb6103353660046123b4565b610a46565b61022f61034836600461223f565b610abd565b6101cb610ae8565b61022f61036336600461223f565b610af7565b6101eb6103763660046123f2565b610b7e565b6101ae6103893660046123cd565b610b9d565b6101cb610bc6565b61022f600081565b6102166103ac366004612355565b610bd5565b61022f6103bf3660046123b4565b610be0565b6102166103d236600461223f565b610c22565b6102166103e53660046122d6565b610cbe565b6101cb6103f83660046123b4565b610cf6565b61022f61040b3660046123b4565b610d01565b61042361041e3660046123b4565b610d18565b604080516001600160a01b0390931683526020830191909152016101ba565b6102166104503660046123cd565b610d3b565b6101ae61046336600461223f565b60106020526000908152604090205460ff1681565b6101ae61048636600461225c565b610d58565b60006319deda6d60e31b6001600160e01b0319831614806104b057506104b082610e48565b92915050565b6060600280546104c59061270a565b80601f01602080910402602001604051908101604052809291908181526020018280546104f19061270a565b801561053e5780601f106105135761010080835404028352916020019161053e565b820191906000526020600020905b81548152906001019060200180831161052157829003601f168201915b5050505050905090565b600061055382610e6d565b6105b95760405162461bcd60e51b815260206004820152602c60248201527f4552433732313a20617070726f76656420717565727920666f72206e6f6e657860448201526b34b9ba32b73a103a37b5b2b760a11b60648201526084015b60405180910390fd5b506000908152600660205260409020546001600160a01b031690565b60006105e082610a46565b9050806001600160a01b0316836001600160a01b0316141561064e5760405162461bcd60e51b815260206004820152602160248201527f4552433732313a20617070726f76616c20746f2063757272656e74206f776e656044820152603960f91b60648201526084016105b0565b336001600160a01b038216148061066a575061066a8133610d58565b6106d75760405162461bcd60e51b815260206004820152603860248201527f4552433732313a20617070726f76652063616c6c6572206973206e6f74206f776044820152771b995c881b9bdc88185c1c1c9bdd995908199bdc88185b1b60421b60648201526084016105b0565b6106e18383610e8a565b505050565b6106ee610ef8565b6001600160a01b0382166107335760405162461bcd60e51b815260206004820152600c60248201526b5a45524f5f4144445245535360a01b60448201526064016105b0565b6001600160a01b038216600081815260106020908152604091829020805460ff1916851515908117909155915191825233917f9e2bd848ed96e551d65a5248c15480b97b14b10a342c4194fe315d1e8a24fe84910160405180910390a35050565b61079f335b82610f47565b6107bb5760405162461bcd60e51b81526004016105b090612614565b6106e1838383611011565b60009081526020819052604090206001015490565b6107e4826107c6565b6107ee81336111aa565b6106e1838361120e565b600061080383610af7565b82106108655760405162461bcd60e51b815260206004820152602b60248201527f455243373231456e756d657261626c653a206f776e657220696e646578206f7560448201526a74206f6620626f756e647360a81b60648201526084016105b0565b506001600160a01b03919091166000908152600960209081526040808320938352929052205490565b6001600160a01b03811633146108fe5760405162461bcd60e51b815260206004820152602f60248201527f416363657373436f6e74726f6c3a2063616e206f6e6c792072656e6f756e636560448201526e103937b632b9903337b91039b2b63360891b60648201526084016105b0565b6109088282611230565b5050565b610914610ef8565b6109088282611252565b6106e183838360405180602001604052806000815250610cbe565b61094233610799565b6109a75760405162461bcd60e51b815260206004820152603060248201527f4552433732314275726e61626c653a2063616c6c6572206973206e6f74206f7760448201526f1b995c881b9bdc88185c1c1c9bdd995960821b60648201526084016105b0565b6109b0816112dd565b50565b60006109be600b5490565b8210610a215760405162461bcd60e51b815260206004820152602c60248201527f455243373231456e756d657261626c653a20676c6f62616c20696e646578206f60448201526b7574206f6620626f756e647360a01b60648201526084016105b0565b600b8281548110610a3457610a346127b6565b90600052602060002001549050919050565b6000818152600460205260408120546001600160a01b0316806104b05760405162461bcd60e51b815260206004820152602960248201527f4552433732313a206f776e657220717565727920666f72206e6f6e657869737460448201526832b73a103a37b5b2b760b91b60648201526084016105b0565b6000610ac7610ef8565b610ad5600d80546001019055565b50600d54610ae382826112e6565b919050565b6060610af2611300565b905090565b60006001600160a01b038216610b625760405162461bcd60e51b815260206004820152602a60248201527f4552433732313a2062616c616e636520717565727920666f7220746865207a65604482015269726f206164647265737360b01b60648201526084016105b0565b506001600160a01b031660009081526005602052604090205490565b6000828152600160205260408120610b96908361130f565b9392505050565b6000918252602082815260408084206001600160a01b0393909316845291905290205460ff1690565b6060600380546104c59061270a565b61090833838361131b565b6000612710610c186001600160601b037f00000000000000000000000000000000000000000000000000000000000000001684612691565b6104b0919061267d565b610c2a610ef8565b6001600160a01b038116610c725760405162461bcd60e51b815260206004820152600f60248201526e494e56414c49445f4144445245535360881b60448201526064016105b0565b600e80546001600160a01b0319166001600160a01b03831690811790915560405133907fef8f0d5f16a5283d66ae7e12801103421d077cfa56a9afe9c2b066459e3a231690600090a350565b610cc83383610f47565b610ce45760405162461bcd60e51b81526004016105b090612614565b610cf0848484846113e6565b50505050565b60606104b082611419565b60008181526001602052604081206104b09061157b565b600e5460009081906001600160a01b0316610d3284610be0565b91509150915091565b610d44826107c6565b610d4e81336111aa565b6106e18383611230565b6001600160a01b03811660009081526010602052604081205460ff1615610d81575060016104b0565b6001600160a01b0380841660009081526007602090815260408083209386168352929052205460ff16610b96565b610db98282610b9d565b610908576000828152602081815260408083206001600160a01b03851684529091529020805460ff19166001179055610def3390565b6001600160a01b0316816001600160a01b0316837f2f8788117e7eff1d82e926ec794901d17c78024a50270940304540a733656f0d60405160405180910390a45050565b6000610b96836001600160a01b038416611585565b60006001600160e01b0319821663780e9d6360e01b14806104b057506104b0826115d4565b6000908152600460205260409020546001600160a01b0316151590565b600081815260066020526040902080546001600160a01b0319166001600160a01b0384169081179091558190610ebf82610a46565b6001600160a01b03167f8c5be1e5ebec7d5bd14f71427d1e84f3dd0314c0f7b2291e5b200ac8c7c3b92560405160405180910390a45050565b610f03600033610b9d565b610f455760405162461bcd60e51b81526020600482015260136024820152722aa720aaaa2427a924ad22a22fa1a0a62622a960691b60448201526064016105b0565b565b6000610f5282610e6d565b610fb35760405162461bcd60e51b815260206004820152602c60248201527f4552433732313a206f70657261746f7220717565727920666f72206e6f6e657860448201526b34b9ba32b73a103a37b5b2b760a11b60648201526084016105b0565b6000610fbe83610a46565b9050806001600160a01b0316846001600160a01b03161480610ff95750836001600160a01b0316610fee84610548565b6001600160a01b0316145b8061100957506110098185610d58565b949350505050565b826001600160a01b031661102482610a46565b6001600160a01b03161461108c5760405162461bcd60e51b815260206004820152602960248201527f4552433732313a207472616e73666572206f6620746f6b656e2074686174206960448201526839903737ba1037bbb760b91b60648201526084016105b0565b6001600160a01b0382166110ee5760405162461bcd60e51b8152602060048201526024808201527f4552433732313a207472616e7366657220746f20746865207a65726f206164646044820152637265737360e01b60648201526084016105b0565b6110f9838383611614565b611104600082610e8a565b6001600160a01b038316600090815260056020526040812080546001929061112d9084906126b0565b90915550506001600160a01b038216600090815260056020526040812080546001929061115b908490612665565b909155505060008181526004602052604080822080546001600160a01b0319166001600160a01b03868116918217909255915184939187169160008051602061280e83398151915291a4505050565b6111b48282610b9d565b610908576111cc816001600160a01b0316601461161f565b6111d783602061161f565b6040516020016111e8929190612503565b60408051601f198184030181529082905262461bcd60e51b82526105b0916004016125af565b6112188282610daf565b60008281526001602052604090206106e19082610e33565b61123a82826117ba565b60008281526001602052604090206106e1908261181f565b61125b82610e6d565b6112be5760405162461bcd60e51b815260206004820152602e60248201527f45524337323155524953746f726167653a2055524920736574206f66206e6f6e60448201526d32bc34b9ba32b73a103a37b5b2b760911b60648201526084016105b0565b600082815260086020908152604090912082516106e1928401906120fb565b6109b081611834565b610908828260405180602001604052806000815250611874565b6060600f80546104c59061270a565b6000610b9683836118a7565b816001600160a01b0316836001600160a01b031614156113795760405162461bcd60e51b815260206004820152601960248201527822a9219b99189d1030b8383937bb32903a379031b0b63632b960391b60448201526064016105b0565b6001600160a01b03838116600081815260076020908152604080832094871680845294825291829020805460ff191686151590811790915591519182527f17307eab39ab6107e8899845ad3d59bd9653f200f220920489ca2b5937696c31910160405180910390a3505050565b6113f1848484611011565b6113fd848484846118d1565b610cf05760405162461bcd60e51b81526004016105b0906125c2565b606061142482610e6d565b61148a5760405162461bcd60e51b815260206004820152603160248201527f45524337323155524953746f726167653a2055524920717565727920666f72206044820152703737b732bc34b9ba32b73a103a37b5b2b760791b60648201526084016105b0565b600082815260086020526040812080546114a39061270a565b80601f01602080910402602001604051908101604052809291908181526020018280546114cf9061270a565b801561151c5780601f106114f15761010080835404028352916020019161151c565b820191906000526020600020905b8154815290600101906020018083116114ff57829003601f168201915b50505050509050600061152d611300565b9050805160001415611540575092915050565b81511561157257808260405160200161155a9291906124d4565b60405160208183030381529060405292505050919050565b611009846119de565b60006104b0825490565b60008181526001830160205260408120546115cc575081546001818101845560008481526020808220909301849055845484825282860190935260409020919091556104b0565b5060006104b0565b60006001600160e01b031982166380ac58cd60e01b148061160557506001600160e01b03198216635b5e139f60e01b145b806104b057506104b082611aa8565b6106e1838383611acd565b6060600061162e836002612691565b611639906002612665565b6001600160401b03811115611650576116506127cc565b6040519080825280601f01601f19166020018201604052801561167a576020820181803683370190505b509050600360fc1b81600081518110611695576116956127b6565b60200101906001600160f81b031916908160001a905350600f60fb1b816001815181106116c4576116c46127b6565b60200101906001600160f81b031916908160001a90535060006116e8846002612691565b6116f3906001612665565b90505b600181111561176b576f181899199a1a9b1b9c1cb0b131b232b360811b85600f1660108110611727576117276127b6565b1a60f81b82828151811061173d5761173d6127b6565b60200101906001600160f81b031916908160001a90535060049490941c93611764816126f3565b90506116f6565b508315610b965760405162461bcd60e51b815260206004820181905260248201527f537472696e67733a20686578206c656e67746820696e73756666696369656e7460448201526064016105b0565b6117c48282610b9d565b15610908576000828152602081815260408083206001600160a01b0385168085529252808320805460ff1916905551339285917ff6391f5c32d9c69d2a47ea670b442974b53935d1edc7fd64eb21e047a839171b9190a45050565b6000610b96836001600160a01b038416611b85565b61183d81611c78565b600081815260086020526040902080546118569061270a565b1590506109b05760008181526008602052604081206109b09161217f565b61187e8383611d0d565b61188b60008484846118d1565b6106e15760405162461bcd60e51b81526004016105b0906125c2565b60008260000182815481106118be576118be6127b6565b9060005260206000200154905092915050565b60006001600160a01b0384163b156119d357604051630a85bd0160e11b81526001600160a01b0385169063150b7a0290611915903390899088908890600401612572565b602060405180830381600087803b15801561192f57600080fd5b505af192505050801561195f575060408051601f3d908101601f1916820190925261195c91810190612431565b60015b6119b9573d80801561198d576040519150601f19603f3d011682016040523d82523d6000602084013e611992565b606091505b5080516119b15760405162461bcd60e51b81526004016105b0906125c2565b805181602001fd5b6001600160e01b031916630a85bd0160e11b149050611009565b506001949350505050565b60606119e982610e6d565b611a4d5760405162461bcd60e51b815260206004820152602f60248201527f4552433732314d657461646174613a2055524920717565727920666f72206e6f60448201526e3732bc34b9ba32b73a103a37b5b2b760891b60648201526084016105b0565b6000611a57611300565b90506000815111611a775760405180602001604052806000815250610b96565b80611a8184611e39565b604051602001611a929291906124d4565b6040516020818303038152906040529392505050565b60006001600160e01b03198216635a05180f60e01b14806104b057506104b082611f36565b6001600160a01b038316611b2857611b2381600b80546000838152600c60205260408120829055600182018355919091527f0175b7a638427703f0dbe7bb9bbf987a2551717b34e79f33b5b1008d1fa01db90155565b611b4b565b816001600160a01b0316836001600160a01b031614611b4b57611b4b8382611f6b565b6001600160a01b038216611b62576106e181612008565b826001600160a01b0316826001600160a01b0316146106e1576106e182826120b7565b60008181526001830160205260408120548015611c6e576000611ba96001836126b0565b8554909150600090611bbd906001906126b0565b9050818114611c22576000866000018281548110611bdd57611bdd6127b6565b9060005260206000200154905080876000018481548110611c0057611c006127b6565b6000918252602080832090910192909255918252600188019052604090208390555b8554869080611c3357611c336127a0565b6001900381819060005260206000200160009055905585600101600086815260200190815260200160002060009055600193505050506104b0565b60009150506104b0565b6000611c8382610a46565b9050611c9181600084611614565b611c9c600083610e8a565b6001600160a01b0381166000908152600560205260408120805460019290611cc59084906126b0565b909155505060008281526004602052604080822080546001600160a01b0319169055518391906001600160a01b0384169060008051602061280e833981519152908390a45050565b6001600160a01b038216611d635760405162461bcd60e51b815260206004820181905260248201527f4552433732313a206d696e7420746f20746865207a65726f206164647265737360448201526064016105b0565b611d6c81610e6d565b15611db85760405162461bcd60e51b815260206004820152601c60248201527b115490cdcc8c4e881d1bdad95b88185b1c9958591e481b5a5b9d195960221b60448201526064016105b0565b611dc460008383611614565b6001600160a01b0382166000908152600560205260408120805460019290611ded908490612665565b909155505060008181526004602052604080822080546001600160a01b0319166001600160a01b038616908117909155905183929060008051602061280e833981519152908290a45050565b606081611e5d5750506040805180820190915260018152600360fc1b602082015290565b8160005b8115611e875780611e7181612745565b9150611e809050600a8361267d565b9150611e61565b6000816001600160401b03811115611ea157611ea16127cc565b6040519080825280601f01601f191660200182016040528015611ecb576020820181803683370190505b5090505b841561100957611ee06001836126b0565b9150611eed600a86612760565b611ef8906030612665565b60f81b818381518110611f0d57611f0d6127b6565b60200101906001600160f81b031916908160001a905350611f2f600a8661267d565b9450611ecf565b60006001600160e01b03198216637965db0b60e01b14806104b057506301ffc9a760e01b6001600160e01b03198316146104b0565b60006001611f7884610af7565b611f8291906126b0565b6000838152600a6020526040902054909150808214611fd5576001600160a01b03841660009081526009602090815260408083208584528252808320548484528184208190558352600a90915290208190555b506000918252600a602090815260408084208490556001600160a01b039094168352600981528383209183525290812055565b600b5460009061201a906001906126b0565b6000838152600c6020526040812054600b8054939450909284908110612042576120426127b6565b9060005260206000200154905080600b8381548110612063576120636127b6565b6000918252602080832090910192909255828152600c9091526040808220849055858252812055600b80548061209b5761209b6127a0565b6001900381819060005260206000200160009055905550505050565b60006120c283610af7565b6001600160a01b0390931660009081526009602090815260408083208684528252808320859055938252600a9052919091209190915550565b8280546121079061270a565b90600052602060002090601f016020900481019282612129576000855561216f565b82601f1061214257805160ff191683800117855561216f565b8280016001018555821561216f579182015b8281111561216f578251825591602001919060010190612154565b5061217b9291506121b5565b5090565b50805461218b9061270a565b6000825580601f1061219b575050565b601f0160209004906000526020600020908101906109b091905b5b8082111561217b57600081556001016121b6565b60006001600160401b03808411156121e4576121e46127cc565b604051601f8501601f19908116603f0116810190828211818310171561220c5761220c6127cc565b8160405280935085815286868601111561222557600080fd5b858560208301376000602087830101525050509392505050565b60006020828403121561225157600080fd5b8135610b96816127e2565b6000806040838503121561226f57600080fd5b823561227a816127e2565b9150602083013561228a816127e2565b809150509250929050565b6000806000606084860312156122aa57600080fd5b83356122b5816127e2565b925060208401356122c5816127e2565b929592945050506040919091013590565b600080600080608085870312156122ec57600080fd5b84356122f7816127e2565b93506020850135612307816127e2565b92506040850135915060608501356001600160401b0381111561232957600080fd5b8501601f8101871361233a57600080fd5b612349878235602084016121ca565b91505092959194509250565b6000806040838503121561236857600080fd5b8235612373816127e2565b91506020830135801515811461228a57600080fd5b6000806040838503121561239b57600080fd5b82356123a6816127e2565b946020939093013593505050565b6000602082840312156123c657600080fd5b5035919050565b600080604083850312156123e057600080fd5b82359150602083013561228a816127e2565b6000806040838503121561240557600080fd5b50508035926020909101359150565b60006020828403121561242657600080fd5b8135610b96816127f7565b60006020828403121561244357600080fd5b8151610b96816127f7565b6000806040838503121561246157600080fd5b8235915060208301356001600160401b0381111561247e57600080fd5b8301601f8101851361248f57600080fd5b61249e858235602084016121ca565b9150509250929050565b600081518084526124c08160208601602086016126c7565b601f01601f19169290920160200192915050565b600083516124e68184602088016126c7565b8351908301906124fa8183602088016126c7565b01949350505050565b76020b1b1b2b9b9a1b7b73a3937b61d1030b1b1b7bab73a1604d1b8152600083516125358160178501602088016126c7565b7001034b99036b4b9b9b4b733903937b6329607d1b60179184019182015283516125668160288401602088016126c7565b01602801949350505050565b6001600160a01b03858116825284166020820152604081018390526080606082018190526000906125a5908301846124a8565b9695505050505050565b602081526000610b9660208301846124a8565b60208082526032908201527f4552433732313a207472616e7366657220746f206e6f6e20455243373231526560408201527131b2b4bb32b91034b6b83632b6b2b73a32b960711b606082015260800190565b60208082526031908201527f4552433732313a207472616e736665722063616c6c6572206973206e6f74206f6040820152701ddb995c881b9bdc88185c1c1c9bdd9959607a1b606082015260800190565b6000821982111561267857612678612774565b500190565b60008261268c5761268c61278a565b500490565b60008160001904831182151516156126ab576126ab612774565b500290565b6000828210156126c2576126c2612774565b500390565b60005b838110156126e25781810151838201526020016126ca565b83811115610cf05750506000910152565b60008161270257612702612774565b506000190190565b600181811c9082168061271e57607f821691505b6020821081141561273f57634e487b7160e01b600052602260045260246000fd5b50919050565b600060001982141561275957612759612774565b5060010190565b60008261276f5761276f61278a565b500690565b634e487b7160e01b600052601160045260246000fd5b634e487b7160e01b600052601260045260246000fd5b634e487b7160e01b600052603160045260246000fd5b634e487b7160e01b600052603260045260246000fd5b634e487b7160e01b600052604160045260246000fd5b6001600160a01b03811681146109b057600080fd5b6001600160e01b0319811681146109b057600080fdfeddf252ad1be2c89b69c2b068fc378daa952ba7f163c4a11628f55a4df523b3efa164736f6c6343000806000aa164736f6c6343000806000a",
  "linkReferences": {},
  "deployedLinkReferences": {}
}