{
  "_format": "hh-sol-artifact-1",
  "contractName": "RC3_Creators",
  "sourceName": "contracts/RC3_Creators.sol",
  "abi": [
    {
      "inputs": [
        {
          "internalType": "address",
          "name": "defaultAdmin",
          "type": "address"
        }
      ],
      "stateMutability": "nonpayable",
      "type": "constructor"
    },
    {
      "anonymous": false,
      "inputs": [
        {
          "indexed": true,
          "internalType": "address",
          "name": "account",
          "type": "address"
        },
        {
          "indexed": true,
          "internalType": "address",
          "name": "operator",
          "type": "address"
        },
        {
          "indexed": false,
          "internalType": "bool",
          "name": "approved",
          "type": "bool"
        }
      ],
      "name": "ApprovalForAll",
      "type": "event"
    },
    {
      "anonymous": false,
      "inputs": [
        {
          "indexed": true,
          "internalType": "address",
          "name": "market",
          "type": "address"
        },
        {
          "indexed": false,
          "internalType": "bool",
          "name": "isMarket",
          "type": "bool"
        }
      ],
      "name": "MarketUpdated",
      "type": "event"
    },
    {
      "anonymous": false,
      "inputs": [
        {
          "indexed": true,
          "internalType": "address",
          "name": "caller",
          "type": "address"
        },
        {
          "indexed": false,
          "internalType": "uint256",
          "name": "id",
          "type": "uint256"
        },
        {
          "indexed": true,
          "internalType": "address",
          "name": "minter",
          "type": "address"
        },
        {
          "indexed": false,
          "internalType": "bool",
          "name": "canMint",
          "type": "bool"
        }
      ],
      "name": "MinterSet",
      "type": "event"
    },
    {
      "anonymous": false,
      "inputs": [
        {
          "indexed": true,
          "internalType": "address",
          "name": "creator",
          "type": "address"
        },
        {
          "indexed": false,
          "internalType": "string",
          "name": "category",
          "type": "string"
        }
      ],
      "name": "NewCategory",
      "type": "event"
    },
    {
      "anonymous": false,
      "inputs": [
        {
          "indexed": true,
          "internalType": "address",
          "name": "creator",
          "type": "address"
        },
        {
          "indexed": false,
          "internalType": "uint256",
          "name": "initialSupply",
          "type": "uint256"
        },
        {
          "indexed": false,
          "internalType": "uint256",
          "name": "maxSupply",
          "type": "uint256"
        },
        {
          "indexed": false,
          "internalType": "uint256",
          "name": "id",
          "type": "uint256"
        }
      ],
      "name": "NewToken",
      "type": "event"
    },
    {
      "anonymous": false,
      "inputs": [
        {
          "indexed": true,
          "internalType": "address",
          "name": "addr",
          "type": "address"
        },
        {
          "indexed": false,
          "internalType": "bool",
          "name": "canCreatePhysical",
          "type": "bool"
        }
      ],
      "name": "PhysicalCreatorSet",
      "type": "event"
    },
    {
      "anonymous": false,
      "inputs": [
        {
          "indexed": true,
          "internalType": "bytes32",
          "name": "role",
          "type": "bytes32"
        },
        {
          "indexed": true,
          "internalType": "bytes32",
          "name": "previousAdminRole",
          "type": "bytes32"
        },
        {
          "indexed": true,
          "internalType": "bytes32",
          "name": "newAdminRole",
          "type": "bytes32"
        }
      ],
      "name": "RoleAdminChanged",
      "type": "event"
    },
    {
      "anonymous": false,
      "inputs": [
        {
          "indexed": true,
          "internalType": "bytes32",
          "name": "role",
          "type": "bytes32"
        },
        {
          "indexed": true,
          "internalType": "address",
          "name": "account",
          "type": "address"
        },
        {
          "indexed": true,
          "internalType": "address",
          "name": "sender",
          "type": "address"
        }
      ],
      "name": "RoleGranted",
      "type": "event"
    },
    {
      "anonymous": false,
      "inputs": [
        {
          "indexed": true,
          "internalType": "bytes32",
          "name": "role",
          "type": "bytes32"
        },
        {
          "indexed": true,
          "internalType": "address",
          "name": "account",
          "type": "address"
        },
        {
          "indexed": true,
          "internalType": "address",
          "name": "sender",
          "type": "address"
        }
      ],
      "name": "RoleRevoked",
      "type": "event"
    },
    {
      "anonymous": false,
      "inputs": [
        {
          "indexed": true,
          "internalType": "address",
          "name": "oldCreator",
          "type": "address"
        },
        {
          "indexed": true,
          "internalType": "address",
          "name": "newCreator",
          "type": "address"
        },
        {
          "indexed": false,
          "internalType": "uint256",
          "name": "id",
          "type": "uint256"
        },
        {
          "indexed": false,
          "internalType": "uint256",
          "name": "royalty",
          "type": "uint256"
        },
        {
          "indexed": false,
          "internalType": "address payable[]",
          "name": "recipients",
          "type": "address[]"
        },
        {
          "indexed": false,
          "internalType": "uint256[]",
          "name": "shares",
          "type": "uint256[]"
        }
      ],
      "name": "RoyaltyInfoUpdated",
      "type": "event"
    },
    {
      "anonymous": false,
      "inputs": [
        {
          "indexed": true,
          "internalType": "address",
          "name": "operator",
          "type": "address"
        },
        {
          "indexed": true,
          "internalType": "address",
          "name": "from",
          "type": "address"
        },
        {
          "indexed": true,
          "internalType": "address",
          "name": "to",
          "type": "address"
        },
        {
          "indexed": false,
          "internalType": "uint256[]",
          "name": "ids",
          "type": "uint256[]"
        },
        {
          "indexed": false,
          "internalType": "uint256[]",
          "name": "values",
          "type": "uint256[]"
        }
      ],
      "name": "TransferBatch",
      "type": "event"
    },
    {
      "anonymous": false,
      "inputs": [
        {
          "indexed": true,
          "internalType": "address",
          "name": "operator",
          "type": "address"
        },
        {
          "indexed": true,
          "internalType": "address",
          "name": "from",
          "type": "address"
        },
        {
          "indexed": true,
          "internalType": "address",
          "name": "to",
          "type": "address"
        },
        {
          "indexed": false,
          "internalType": "uint256",
          "name": "id",
          "type": "uint256"
        },
        {
          "indexed": false,
          "internalType": "uint256",
          "name": "value",
          "type": "uint256"
        }
      ],
      "name": "TransferSingle",
      "type": "event"
    },
    {
      "anonymous": false,
      "inputs": [
        {
          "indexed": false,
          "internalType": "string",
          "name": "value",
          "type": "string"
        },
        {
          "indexed": true,
          "internalType": "uint256",
          "name": "id",
          "type": "uint256"
        }
      ],
      "name": "URI",
      "type": "event"
    },
    {
      "inputs": [],
      "name": "DEFAULT_ADMIN_ROLE",
      "outputs": [
        {
          "internalType": "bytes32",
          "name": "",
          "type": "bytes32"
        }
      ],
      "stateMutability": "view",
      "type": "function"
    },
    {
      "inputs": [
        {
          "internalType": "address",
          "name": "account",
          "type": "address"
        },
        {
          "internalType": "uint256",
          "name": "id",
          "type": "uint256"
        }
      ],
      "name": "balanceOf",
      "outputs": [
        {
          "internalType": "uint256",
          "name": "",
          "type": "uint256"
        }
      ],
      "stateMutability": "view",
      "type": "function"
    },
    {
      "inputs": [
        {
          "internalType": "address[]",
          "name": "accounts",
          "type": "address[]"
        },
        {
          "internalType": "uint256[]",
          "name": "ids",
          "type": "uint256[]"
        }
      ],
      "name": "balanceOfBatch",
      "outputs": [
        {
          "internalType": "uint256[]",
          "name": "",
          "type": "uint256[]"
        }
      ],
      "stateMutability": "view",
      "type": "function"
    },
    {
      "inputs": [
        {
          "internalType": "address",
          "name": "from",
          "type": "address"
        },
        {
          "internalType": "uint256",
          "name": "id",
          "type": "uint256"
        },
        {
          "internalType": "uint256",
          "name": "amount",
          "type": "uint256"
        }
      ],
      "name": "burn",
      "outputs": [],
      "stateMutability": "nonpayable",
      "type": "function"
    },
    {
      "inputs": [
        {
          "internalType": "address",
          "name": "from",
          "type": "address"
        },
        {
          "internalType": "uint256[]",
          "name": "ids",
          "type": "uint256[]"
        },
        {
          "internalType": "uint256[]",
          "name": "amounts",
          "type": "uint256[]"
        }
      ],
      "name": "burnBatch",
      "outputs": [],
      "stateMutability": "nonpayable",
      "type": "function"
    },
    {
      "inputs": [
        {
          "internalType": "bytes32",
          "name": "_bytes32",
          "type": "bytes32"
        }
      ],
      "name": "bytes32ToString",
      "outputs": [
        {
          "internalType": "string",
          "name": "result",
          "type": "string"
        }
      ],
      "stateMutability": "pure",
      "type": "function"
    },
    {
      "inputs": [
        {
          "internalType": "address",
          "name": "",
          "type": "address"
        }
      ],
      "name": "canCreatePhysical",
      "outputs": [
        {
          "internalType": "bool",
          "name": "",
          "type": "bool"
        }
      ],
      "stateMutability": "view",
      "type": "function"
    },
    {
      "inputs": [
        {
          "internalType": "uint256",
          "name": "",
          "type": "uint256"
        },
        {
          "internalType": "address",
          "name": "",
          "type": "address"
        }
      ],
      "name": "canMint",
      "outputs": [
        {
          "internalType": "bool",
          "name": "",
          "type": "bool"
        }
      ],
      "stateMutability": "view",
      "type": "function"
    },
    {
      "inputs": [
        {
          "internalType": "uint256",
          "name": "",
          "type": "uint256"
        }
      ],
      "name": "categories",
      "outputs": [
        {
          "internalType": "bytes32",
          "name": "",
          "type": "bytes32"
        }
      ],
      "stateMutability": "view",
      "type": "function"
    },
    {
      "inputs": [
        {
          "internalType": "bytes32",
          "name": "category",
          "type": "bytes32"
        }
      ],
      "name": "createCategory",
      "outputs": [
        {
          "internalType": "string",
          "name": "category_",
          "type": "string"
        }
      ],
      "stateMutability": "nonpayable",
      "type": "function"
    },
    {
      "inputs": [
        {
          "internalType": "address",
          "name": "_initialHodler",
          "type": "address"
        },
        {
          "internalType": "uint256",
          "name": "_id",
          "type": "uint256"
        },
        {
          "internalType": "uint256",
          "name": "_initialSupply",
          "type": "uint256"
        },
        {
          "internalType": "uint256",
          "name": "_maxSupply",
          "type": "uint256"
        },
        {
          "internalType": "uint256",
          "name": "royalty",
          "type": "uint256"
        },
        {
          "internalType": "bytes32",
          "name": "category",
          "type": "bytes32"
        },
        {
          "internalType": "bytes32",
          "name": "nature",
          "type": "bytes32"
        }
      ],
      "name": "createToken",
      "outputs": [
        {
          "internalType": "uint256",
          "name": "tokenId",
          "type": "uint256"
        }
      ],
      "stateMutability": "payable",
      "type": "function"
    },
    {
      "inputs": [],
      "name": "creationFee",
      "outputs": [
        {
          "internalType": "uint256",
          "name": "",
          "type": "uint256"
        }
      ],
      "stateMutability": "view",
      "type": "function"
    },
    {
      "inputs": [
        {
          "internalType": "uint256",
          "name": "_id",
          "type": "uint256"
        }
      ],
      "name": "creator",
      "outputs": [
        {
          "internalType": "address",
          "name": "creator_",
          "type": "address"
        }
      ],
      "stateMutability": "view",
      "type": "function"
    },
    {
      "inputs": [
        {
          "internalType": "uint256",
          "name": "_id",
          "type": "uint256"
        }
      ],
      "name": "exists",
      "outputs": [
        {
          "internalType": "bool",
          "name": "",
          "type": "bool"
        }
      ],
      "stateMutability": "view",
      "type": "function"
    },
    {
      "inputs": [],
      "name": "feeReceipient",
      "outputs": [
        {
          "internalType": "address payable",
          "name": "",
          "type": "address"
        }
      ],
      "stateMutability": "view",
      "type": "function"
    },
    {
      "inputs": [
        {
          "internalType": "uint256",
          "name": "_id",
          "type": "uint256"
        }
      ],
      "name": "getInfo",
      "outputs": [
        {
          "components": [
            {
              "internalType": "address payable",
              "name": "creator",
              "type": "address"
            },
            {
              "internalType": "bytes32",
              "name": "nature",
              "type": "bytes32"
            },
            {
              "internalType": "bytes32",
              "name": "category",
              "type": "bytes32"
            },
            {
              "internalType": "uint256",
              "name": "tokenSupply",
              "type": "uint256"
            },
            {
              "internalType": "uint256",
              "name": "maxSupply",
              "type": "uint256"
            },
            {
              "internalType": "uint256",
              "name": "royalty",
              "type": "uint256"
            }
          ],
          "internalType": "struct RC3_Creators.Info",
          "name": "info",
          "type": "tuple"
        }
      ],
      "stateMutability": "view",
      "type": "function"
    },
    {
      "inputs": [
        {
          "internalType": "bytes32",
          "name": "role",
          "type": "bytes32"
        }
      ],
      "name": "getRoleAdmin",
      "outputs": [
        {
          "internalType": "bytes32",
          "name": "",
          "type": "bytes32"
        }
      ],
      "stateMutability": "view",
      "type": "function"
    },
    {
      "inputs": [
        {
          "internalType": "bytes32",
          "name": "role",
          "type": "bytes32"
        },
        {
          "internalType": "uint256",
          "name": "index",
          "type": "uint256"
        }
      ],
      "name": "getRoleMember",
      "outputs": [
        {
          "internalType": "address",
          "name": "",
          "type": "address"
        }
      ],
      "stateMutability": "view",
      "type": "function"
    },
    {
      "inputs": [
        {
          "internalType": "bytes32",
          "name": "role",
          "type": "bytes32"
        }
      ],
      "name": "getRoleMemberCount",
      "outputs": [
        {
          "internalType": "uint256",
          "name": "",
          "type": "uint256"
        }
      ],
      "stateMutability": "view",
      "type": "function"
    },
    {
      "inputs": [
        {
          "internalType": "bytes32",
          "name": "role",
          "type": "bytes32"
        },
        {
          "internalType": "address",
          "name": "account",
          "type": "address"
        }
      ],
      "name": "grantRole",
      "outputs": [],
      "stateMutability": "nonpayable",
      "type": "function"
    },
    {
      "inputs": [
        {
          "internalType": "bytes32",
          "name": "role",
          "type": "bytes32"
        },
        {
          "internalType": "address",
          "name": "account",
          "type": "address"
        }
      ],
      "name": "hasRole",
      "outputs": [
        {
          "internalType": "bool",
          "name": "",
          "type": "bool"
        }
      ],
      "stateMutability": "view",
      "type": "function"
    },
    {
      "inputs": [
        {
          "internalType": "address",
          "name": "_owner",
          "type": "address"
        },
        {
          "internalType": "address",
          "name": "_operator",
          "type": "address"
        }
      ],
      "name": "isApprovedForAll",
      "outputs": [
        {
          "internalType": "bool",
          "name": "isOperator",
          "type": "bool"
        }
      ],
      "stateMutability": "view",
      "type": "function"
    },
    {
      "inputs": [
        {
          "internalType": "address",
          "name": "",
          "type": "address"
        }
      ],
      "name": "isWhitelistedMarket",
      "outputs": [
        {
          "internalType": "bool",
          "name": "",
          "type": "bool"
        }
      ],
      "stateMutability": "view",
      "type": "function"
    },
    {
      "inputs": [
        {
          "internalType": "address",
          "name": "to",
          "type": "address"
        },
        {
          "internalType": "uint256",
          "name": "id",
          "type": "uint256"
        },
        {
          "internalType": "uint256",
          "name": "amount",
          "type": "uint256"
        }
      ],
      "name": "mint",
      "outputs": [
        {
          "internalType": "bool",
          "name": "success",
          "type": "bool"
        }
      ],
      "stateMutability": "nonpayable",
      "type": "function"
    },
    {
      "inputs": [
        {
          "internalType": "address",
          "name": "to",
          "type": "address"
        },
        {
          "internalType": "uint256[]",
          "name": "ids",
          "type": "uint256[]"
        },
        {
          "internalType": "uint256[]",
          "name": "amounts",
          "type": "uint256[]"
        }
      ],
      "name": "mintBatch",
      "outputs": [
        {
          "internalType": "bool",
          "name": "success",
          "type": "bool"
        }
      ],
      "stateMutability": "nonpayable",
      "type": "function"
    },
    {
      "inputs": [
        {
          "internalType": "uint256",
          "name": "",
          "type": "uint256"
        }
      ],
      "name": "natures",
      "outputs": [
        {
          "internalType": "bytes32",
          "name": "",
          "type": "bytes32"
        }
      ],
      "stateMutability": "view",
      "type": "function"
    },
    {
      "inputs": [
        {
          "internalType": "bytes32",
          "name": "role",
          "type": "bytes32"
        },
        {
          "internalType": "address",
          "name": "account",
          "type": "address"
        }
      ],
      "name": "renounceRole",
      "outputs": [],
      "stateMutability": "nonpayable",
      "type": "function"
    },
    {
      "inputs": [
        {
          "internalType": "bytes32",
          "name": "role",
          "type": "bytes32"
        },
        {
          "internalType": "address",
          "name": "account",
          "type": "address"
        }
      ],
      "name": "revokeRole",
      "outputs": [],
      "stateMutability": "nonpayable",
      "type": "function"
    },
    {
      "inputs": [
        {
          "internalType": "uint256",
          "name": "_id",
          "type": "uint256"
        },
        {
          "internalType": "uint256",
          "name": "_salePrice",
          "type": "uint256"
        }
      ],
      "name": "royaltyInfo",
      "outputs": [
        {
          "internalType": "address",
          "name": "",
          "type": "address"
        },
        {
          "internalType": "uint256",
          "name": "",
          "type": "uint256"
        }
      ],
      "stateMutability": "view",
      "type": "function"
    },
    {
      "inputs": [
        {
          "internalType": "address",
          "name": "from",
          "type": "address"
        },
        {
          "internalType": "address",
          "name": "to",
          "type": "address"
        },
        {
          "internalType": "uint256[]",
          "name": "ids",
          "type": "uint256[]"
        },
        {
          "internalType": "uint256[]",
          "name": "amounts",
          "type": "uint256[]"
        },
        {
          "internalType": "bytes",
          "name": "data",
          "type": "bytes"
        }
      ],
      "name": "safeBatchTransferFrom",
      "outputs": [],
      "stateMutability": "nonpayable",
      "type": "function"
    },
    {
      "inputs": [
        {
          "internalType": "address",
          "name": "from",
          "type": "address"
        },
        {
          "internalType": "address",
          "name": "to",
          "type": "address"
        },
        {
          "internalType": "uint256",
          "name": "id",
          "type": "uint256"
        },
        {
          "internalType": "uint256",
          "name": "amount",
          "type": "uint256"
        },
        {
          "internalType": "bytes",
          "name": "data",
          "type": "bytes"
        }
      ],
      "name": "safeTransferFrom",
      "outputs": [],
      "stateMutability": "nonpayable",
      "type": "function"
    },
    {
      "inputs": [],
      "name": "serialNum",
      "outputs": [
        {
          "internalType": "uint256",
          "name": "",
          "type": "uint256"
        }
      ],
      "stateMutability": "view",
      "type": "function"
    },
    {
      "inputs": [
        {
          "internalType": "uint256",
          "name": "",
          "type": "uint256"
        }
      ],
      "name": "serialNumToId",
      "outputs": [
        {
          "internalType": "uint256",
          "name": "",
          "type": "uint256"
        }
      ],
      "stateMutability": "view",
      "type": "function"
    },
    {
      "inputs": [
        {
          "internalType": "address",
          "name": "operator",
          "type": "address"
        },
        {
          "internalType": "bool",
          "name": "approved",
          "type": "bool"
        }
      ],
      "name": "setApprovalForAll",
      "outputs": [],
      "stateMutability": "nonpayable",
      "type": "function"
    },
    {
      "inputs": [
        {
          "internalType": "address payable",
          "name": "_newFeeReceipient",
          "type": "address"
        }
      ],
      "name": "setFeeCollector",
      "outputs": [],
      "stateMutability": "nonpayable",
      "type": "function"
    },
    {
      "inputs": [
        {
          "internalType": "address",
          "name": "market",
          "type": "address"
        },
        {
          "internalType": "bool",
          "name": "isMarket",
          "type": "bool"
        }
      ],
      "name": "setMarket",
      "outputs": [],
      "stateMutability": "nonpayable",
      "type": "function"
    },
    {
      "inputs": [
        {
          "internalType": "uint256",
          "name": "id",
          "type": "uint256"
        },
        {
          "internalType": "address",
          "name": "minter",
          "type": "address"
        },
        {
          "internalType": "bool",
          "name": "_canMint",
          "type": "bool"
        }
      ],
      "name": "setMinter",
      "outputs": [],
      "stateMutability": "nonpayable",
      "type": "function"
    },
    {
      "inputs": [
        {
          "internalType": "address[]",
          "name": "creators",
          "type": "address[]"
        },
        {
          "internalType": "bool",
          "name": "_canCreatePhysical",
          "type": "bool"
        }
      ],
      "name": "setPhysicalCreator",
      "outputs": [],
      "stateMutability": "nonpayable",
      "type": "function"
    },
    {
      "inputs": [
        {
          "internalType": "address payable",
          "name": "creator_",
          "type": "address"
        },
        {
          "internalType": "address payable[]",
          "name": "recipients",
          "type": "address[]"
        },
        {
          "internalType": "uint256[]",
          "name": "shares",
          "type": "uint256[]"
        },
        {
          "internalType": "uint256",
          "name": "id",
          "type": "uint256"
        },
        {
          "internalType": "uint256",
          "name": "royalty",
          "type": "uint256"
        }
      ],
      "name": "setRoyaltyInfo",
      "outputs": [],
      "stateMutability": "nonpayable",
      "type": "function"
    },
    {
      "inputs": [
        {
          "internalType": "uint256",
          "name": "_id",
          "type": "uint256"
        },
        {
          "internalType": "uint256",
          "name": "_salePrice",
          "type": "uint256"
        }
      ],
      "name": "splitRoyaltyInfo",
      "outputs": [
        {
          "internalType": "address[]",
          "name": "recipients",
          "type": "address[]"
        },
        {
          "internalType": "uint256[]",
          "name": "shares",
          "type": "uint256[]"
        },
        {
          "internalType": "uint256",
          "name": "salePrice",
          "type": "uint256"
        }
      ],
      "stateMutability": "view",
      "type": "function"
    },
    {
      "inputs": [],
      "name": "splitRoyaltyLimit",
      "outputs": [
        {
          "internalType": "uint256",
          "name": "",
          "type": "uint256"
        }
      ],
      "stateMutability": "view",
      "type": "function"
    },
    {
      "inputs": [
        {
          "internalType": "string",
          "name": "source",
          "type": "string"
        }
      ],
      "name": "stringToBytes32",
      "outputs": [
        {
          "internalType": "bytes32",
          "name": "result",
          "type": "bytes32"
        }
      ],
      "stateMutability": "pure",
      "type": "function"
    },
    {
      "inputs": [
        {
          "internalType": "bytes4",
          "name": "interfaceId",
          "type": "bytes4"
        }
      ],
      "name": "supportsInterface",
      "outputs": [
        {
          "internalType": "bool",
          "name": "",
          "type": "bool"
        }
      ],
      "stateMutability": "view",
      "type": "function"
    },
    {
      "inputs": [
        {
          "internalType": "uint256",
          "name": "_id",
          "type": "uint256"
        }
      ],
      "name": "tokenSupply",
      "outputs": [
        {
          "internalType": "uint256",
          "name": "tokenSupply_",
          "type": "uint256"
        }
      ],
      "stateMutability": "view",
      "type": "function"
    },
    {
      "inputs": [
        {
          "internalType": "uint256",
          "name": "i",
          "type": "uint256"
        }
      ],
      "name": "uint2hexstr",
      "outputs": [
        {
          "internalType": "string",
          "name": "",
          "type": "string"
        }
      ],
      "stateMutability": "pure",
      "type": "function"
    },
    {
      "inputs": [
        {
          "internalType": "uint256",
          "name": "_id",
          "type": "uint256"
        }
      ],
      "name": "uri",
      "outputs": [
        {
          "internalType": "string",
          "name": "",
          "type": "string"
        }
      ],
      "stateMutability": "view",
      "type": "function"
    }
  ],
  "bytecode": "0x60806040523480156200001157600080fd5b506040516200482838038062004828833981016040819052620000349162000403565b6040805180820190915260098152680697066733a2f2f66360bc1b60208201526200005f81620001c1565b506200006d600082620001da565b60056200009b6040518060400160405280600381526020016210549560ea1b815250620001e660201b60201c565b815460018101835560009283526020928390200155604080518082019091526005808252644d5553494360d81b92820192909252620000da90620001e6565b8154600181018355600092835260209283902001556040805180820190915260078152662320a9a424a7a760c91b918101919091526005906200011d90620001e6565b81546001810183556000928352602092839020015560408051808201909152600881526714121654d250d05360c21b918101919091526200015e90620001e6565b600655604080518082019091526007815266111251d255105360ca1b60208201526200018a90620001e6565b60075560408051808201909152600881526714121651d255105360c21b6020820152620001b790620001e6565b6008555062000472565b8051620001d69060029060208401906200035d565b5050565b620001d6828262000204565b80516000908290620001fb5750600092915050565b50506020015190565b6200021b82826200024760201b620020171760201c565b6000828152600460209081526040909120620002429183906200209d620002eb821b17901c565b505050565b60008281526003602090815260408083206001600160a01b038516845290915290205460ff16620001d65760008281526003602090815260408083206001600160a01b03851684529091529020805460ff19166001179055620002a73390565b6001600160a01b0316816001600160a01b0316837f2f8788117e7eff1d82e926ec794901d17c78024a50270940304540a733656f0d60405160405180910390a45050565b600062000302836001600160a01b0384166200030b565b90505b92915050565b6000818152600183016020526040812054620003545750815460018181018455600084815260208082209093018490558454848252828601909352604090209190915562000305565b50600062000305565b8280546200036b9062000435565b90600052602060002090601f0160209004810192826200038f5760008555620003da565b82601f10620003aa57805160ff1916838001178555620003da565b82800160010185558215620003da579182015b82811115620003da578251825591602001919060010190620003bd565b50620003e8929150620003ec565b5090565b5b80821115620003e85760008155600101620003ed565b6000602082840312156200041657600080fd5b81516001600160a01b03811681146200042e57600080fd5b9392505050565b600181811c908216806200044a57607f821691505b602082108114156200046c57634e487b7160e01b600052602260045260246000fd5b50919050565b6143a680620004826000396000f3fe60806040526004361061020c5760003560e01c8062fdd58e1461021157806301ffc9a7146102445780630d5f96f5146102745780630e89341c1461029657806314a0629a146102c3578063156e29f6146102f057806315bcf9b7146103105780631a3cd59a14610330578063248a9ca31461042f5780632693ebf21461044f5780632a55205a1461047f5780632eb2c2d6146104be5780632f2ff15d146104de578063340fd1df146104fe57806336568abe146105115780633740ebb31461053157806337611796146105695780633c93d8be146105995780634323e470146105b95780634e1273f4146105e85780634f558e7914610615578063510b5158146106355780636267fb45146106555780636696bf11146106755780636b20c454146106955780638f4e76b9146106b55780639010d07c146106f057806391d14854146107105780639201de5514610730578063a217fddf14610750578063a22cb46514610765578063a2779e3b14610785578063a42dce801461079a578063a5b22e87146107ba578063b318de49146107da578063c6cdbe5e146107fa578063ca15c8731461081a578063cfb519281461083a578063d547741f1461085a578063d81d0a151461087a578063dce0b4e41461089a578063ddb2e23f146108b5578063e80bc6e1146108cb578063e985e9c5146108fb578063f242432a1461091b578063f5298aca1461093b575b600080fd5b34801561021d57600080fd5b5061023161022c366004613864565b61095b565b6040519081526020015b60405180910390f35b34801561025057600080fd5b5061026461025f366004613a21565b6109f5565b604051901515815260200161023b565b34801561028057600080fd5b5061029461028f366004613574565b610a1a565b005b3480156102a257600080fd5b506102b66102b13660046139c1565b610d4c565b60405161023b9190613d3c565b3480156102cf57600080fd5b506102316102de3660046139c1565b600c6020526000908152604090205481565b3480156102fc57600080fd5b5061026461030b366004613890565b610dcd565b34801561031c57600080fd5b5061029461032b36600461382f565b610e94565b34801561033c57600080fd5b506103df61034b3660046139c1565b6040805160c081018252600080825260208201819052918101829052606081018290526080810182905260a0810191909152506000908152600b6020908152604091829020825160c08101845281546001600160a01b03168152600182015492810192909252600281015492820192909252600382015460608201526004820154608082015260059091015460a082015290565b60405161023b919081516001600160a01b031681526020808301519082015260408083015190820152606080830151908201526080808301519082015260a0918201519181019190915260c00190565b34801561043b57600080fd5b5061023161044a3660046139c1565b610f64565b34801561045b57600080fd5b5061023161046a3660046139c1565b6000908152600b602052604090206003015490565b34801561048b57600080fd5b5061049f61049a3660046139ff565b610f79565b604080516001600160a01b03909316835260208301919091520161023b565b3480156104ca57600080fd5b506102946104d93660046136a5565b610ff1565b3480156104ea57600080fd5b506102946104f93660046139da565b611088565b61023161050c3660046138c5565b6110a9565b34801561051d57600080fd5b5061029461052c3660046139da565b6111bd565b34801561053d57600080fd5b50600a54610551906001600160a01b031681565b6040516001600160a01b03909116815260200161023b565b34801561057557600080fd5b50610264610584366004613557565b600f6020526000908152604090205460ff1681565b3480156105a557600080fd5b506102b66105b43660046139c1565b61123b565b3480156105c557600080fd5b506105d96105d43660046139ff565b61134b565b60405161023b93929190613c93565b3480156105f457600080fd5b5061060861060336600461391a565b6114c9565b60405161023b9190613cfb565b34801561062157600080fd5b506102646106303660046139c1565b6115f2565b34801561064157600080fd5b506105516106503660046139c1565b6115fd565b34801561066157600080fd5b50610294610670366004613aab565b611618565b34801561068157600080fd5b506102b66106903660046139c1565b61170a565b3480156106a157600080fd5b506102946106b03660046137ba565b611834565b3480156106c157600080fd5b506102646106d03660046139da565b601060209081526000928352604080842090915290825290205460ff1681565b3480156106fc57600080fd5b5061055161070b3660046139ff565b611934565b34801561071c57600080fd5b5061026461072b3660046139da565b611953565b34801561073c57600080fd5b506102b661074b3660046139c1565b61197e565b34801561075c57600080fd5b50610231600081565b34801561077157600080fd5b5061029461078036600461382f565b611aad565b34801561079157600080fd5b50610231600a81565b3480156107a657600080fd5b506102946107b5366004613557565b611ab8565b3480156107c657600080fd5b506102946107d536600461397d565b611b79565b3480156107e657600080fd5b506102316107f53660046139c1565b611c86565b34801561080657600080fd5b506102316108153660046139c1565b611c9d565b34801561082657600080fd5b506102316108353660046139c1565b611cbe565b34801561084657600080fd5b50610231610855366004613a5b565b611cd5565b34801561086657600080fd5b506102946108753660046139da565b611cf2565b34801561088657600080fd5b506102646108953660046137ba565b611d0e565b3480156108a657600080fd5b50610231662386f26fc1000081565b3480156108c157600080fd5b5061023160095481565b3480156108d757600080fd5b506102646108e6366004613557565b600e6020526000908152604090205460ff1681565b34801561090757600080fd5b5061026461091636600461366c565b611ead565b34801561092757600080fd5b50610294610936366004613752565b611f04565b34801561094757600080fd5b50610294610956366004613890565b611f8b565b60006001600160a01b0383166109cc5760405162461bcd60e51b815260206004820152602b60248201527f455243313135353a2062616c616e636520717565727920666f7220746865207a60448201526a65726f206164647265737360a81b60648201526084015b60405180910390fd5b506000818152602081815260408083206001600160a01b03861684529091529020545b92915050565b600063152a902d60e11b6001600160e01b0319831614806109ef57506109ef826120b2565b8383600a82511115610a655760405162461bcd60e51b815260206004820152601460248201527314d413125517d31253525517d15610d15151115160621b60448201526064016109c3565b8051825114610aad5760405162461bcd60e51b81526020600482015260146024820152730929cac82989288be929ca0aaa8be988a9c8ea8960631b60448201526064016109c3565b80516000805b82811015610afb576000848281518110610acf57610acf61425d565b602002602001015190508083610ae59190614117565b9250508080610af3906141f6565b915050610ab3565b50806103e814610b455760405162461bcd60e51b81526020600482015260156024820152741253959053125117d513d5105317d4115490d15395605a1b60448201526064016109c3565b856000610b51826115fd565b90506001600160a01b0381163314610b7b5760405162461bcd60e51b81526004016109c390613e53565b86611388811115610b9e5760405162461bcd60e51b81526004016109c390613f4f565b6001600160a01b038c16610bc45760405162461bcd60e51b81526004016109c390613d97565b60008c905060008c905060008c905060008c905060008c90506000600b60008481526020019081526020016000209050858160000160006101000a8154816001600160a01b0302191690836001600160a01b031602179055508181600501819055506000600d6000858152602001908152602001600020905060008551905080826000018190555060005b81811015610ce4576000878281518110610c6b57610c6b61425d565b602002602001015190506000898381518110610c8957610c8961425d565b60209081029190910181015160008581526002880183526040808220959095556001880190925292902080546001600160a01b0319166001600160a01b03909316929092179091555080610cdc816141f6565b915050610c4f565b50876001600160a01b0316336001600160a01b03167f0235fbab14cf3258497fd345ee6986f921a89b9475b06811f0617af6ff32238487878b8b604051610d2e9493929190614083565b60405180910390a35050505050505050505050505050505050505050565b6060610d57826120d7565b610d985760405162461bcd60e51b81526020600482015260126024820152712727a72fa2ac24a9aa22a72a2faa27a5a2a760711b60448201526064016109c3565b6000610da38361123b565b905080604051602001610db69190613b50565b604051602081830303815290604052915050919050565b600082815260106020908152604080832033845290915281205460ff16610e065760405162461bcd60e51b81526004016109c39061405a565b6000838152600b6020526040902060048101546003820154610e29908590614117565b1115610e475760405162461bcd60e51b81526004016109c39061402e565b82816003016000828254610e5b9190614117565b92505081905550610e898585856040518060400160405280600381526020016203078360ec1b8152506120ee565b506001949350505050565b610e9f600033611953565b610ebb5760405162461bcd60e51b81526004016109c390613f7d565b6001600160a01b038216610f005760405162461bcd60e51b815260206004820152600c60248201526b5a45524f5f4144445245535360a01b60448201526064016109c3565b6001600160a01b0382166000818152600e602052604090819020805460ff1916841515179055517f497d1799a068d52587e2c92131b971faa22ba31099f30bab68d1cc2b875ff29190610f5890841515815260200190565b60405180910390a25050565b60009081526003602052604090206001015490565b6000828152600b60209081526040808320815160c08101835281546001600160a01b031680825260018301549482019490945260028201549281019290925260038101546060830152600481015460808301526005015460a08201819052839290610fe59086906121c5565b92509250509250929050565b6001600160a01b03851633148061100d575061100d8533611ead565b6110745760405162461bcd60e51b815260206004820152603260248201527f455243313135353a207472616e736665722063616c6c6572206973206e6f74206044820152711bdddb995c881b9bdc88185c1c1c9bdd995960721b60648201526084016109c3565b61108185858585856121de565b5050505050565b61109182610f64565b61109a81612376565b6110a48383612383565b505050565b600082826110b782826123a5565b856113888111156110da5760405162461bcd60e51b81526004016109c390613f4f565b600654600854869190818314806110f057508083145b1561115757336000908152600f602052604090205460ff16806111555760405162461bcd60e51b815260206004820152601d60248201527f4f6e6c7920506879736963616c2063726561746f7220616c6c6f77656400000060448201526064016109c3565b505b662386f26fc10000341461119c5760405162461bcd60e51b815260206004820152600c60248201526b11915157d393d517d4d1539560a21b60448201526064016109c3565b6111ab8e8e8e8e8e8e8e6124c5565b9e9d5050505050505050505050505050565b6001600160a01b038116331461122d5760405162461bcd60e51b815260206004820152602f60248201527f416363657373436f6e74726f6c3a2063616e206f6e6c792072656e6f756e636560448201526e103937b632b9903337b91039b2b63360891b60648201526084016109c3565b61123782826126a8565b5050565b60608161125f5750506040805180820190915260018152600360fc1b602082015290565b8160005b81156112825780611273816141f6565b915050600482901c9150611263565b600f6000826001600160401b0381111561129e5761129e614273565b6040519080825280601f01601f1916602001820160405280156112c8576020820181803683370190505b509050825b861561134157868316600981116112f1576112e9816030614117565b60f81b611300565b6112fc816037614117565b60f81b5b8361130a846141b3565b9350838151811061131d5761131d61425d565b60200101906001600160f81b031916908160001a905350600488901c9750506112cd565b5095945050505050565b6000828152600d60205260408120805460609283929091806001600160401b0381111561137a5761137a614273565b6040519080825280602002602001820160405280156113a3578160200160208202803683370190505b509450806001600160401b038111156113be576113be614273565b6040519080825280602002602001820160405280156113e7578160200160208202803683370190505b50935060005b818110156114a05760008181526001840160205260409020546001600160a01b03161561148e57600081815260018401602052604090205486516001600160a01b03909116908790839081106114455761144561425d565b6001600160a01b03909216602092830291909101820152600082815260028501909152604090205485518690839081106114815761148161425d565b6020026020010181815250505b80611498816141f6565b9150506113ed565b506000878152600b60205260409020600501546114be9087906121c5565b925050509250925092565b6060815183511461152e5760405162461bcd60e51b815260206004820152602960248201527f455243313135353a206163636f756e747320616e6420696473206c656e677468604482015268040dad2e6dac2e8c6d60bb1b60648201526084016109c3565b600083516001600160401b0381111561154957611549614273565b604051908082528060200260200182016040528015611572578160200160208202803683370190505b50905060005b84518110156115ea576115bd8582815181106115965761159661425d565b60200260200101518583815181106115b0576115b061425d565b602002602001015161095b565b8282815181106115cf576115cf61425d565b60209081029190910101526115e3816141f6565b9050611578565b509392505050565b60006109ef826120d7565b6000908152600b60205260409020546001600160a01b031690565b826000611624826115fd565b90506001600160a01b038116331461164e5760405162461bcd60e51b81526004016109c390613e53565b60008581526010602090815260408083206001600160a01b038816845290915290205460ff1680151584151514156116985760405162461bcd60e51b81526004016109c390613e2e565b60008681526010602090815260408083206001600160a01b03891680855290835292819020805460ff191688151590811790915581518a81529283015233917f91a49c77c548e88badc5293608990c6571cf717474188a4b397f745e93965361910160405180910390a3505050505050565b6005546060908290600090815b81811015611761576000600582815481106117345761173461425d565b906000526020600020015490508481141561174e57600193505b5080611759816141f6565b915050611717565b5081156117ac5760405162461bcd60e51b81526020600482015260196024820152784e4f4e5f435245415445445f43415445474f52595f4f4e4c5960381b60448201526064016109c3565b600580546001810182556000919091527f036b6384b5eca791c62761152d0c79bb0604c104a5fb6f4eb0703f3154bb3db0018590556117ea8561197e565b9350337ff9ba893e58aabb92f6fa12057751478bf8aba043973b99a97ad19bfb4ad59fdc6118178761197e565b6040516118249190613d3c565b60405180910390a2505050919050565b6001600160a01b03831633148061185057506118508333611ead565b61186c5760405162461bcd60e51b81526004016109c390613dc0565b6118778383836126ca565b60005b825181101561192e576000600b600085848151811061189b5761189b61425d565b6020026020010151815260200190815260200160002090508282815181106118c5576118c561425d565b60200260200101518160030160008282546118e09190614170565b925050819055508282815181106118f9576118f961425d565b60200260200101518160040160008282546119149190614170565b909155508291506119269050816141f6565b91505061187a565b50505050565b600082815260046020526040812061194c9083612854565b9392505050565b60009182526003602090815260408084206001600160a01b0393909316845291905290205460ff1690565b606060005b60208160ff161080156119b75750828160ff16602081106119a6576119a661425d565b1a60f81b6001600160f81b03191615155b156119ce57806119c681614211565b915050611983565b60008160ff166001600160401b038111156119eb576119eb614273565b6040519080825280601f01601f191660200182016040528015611a15576020820181803683370190505b509050600091505b60208260ff16108015611a515750838260ff1660208110611a4057611a4061425d565b1a60f81b6001600160f81b03191615155b1561194c57838260ff1660208110611a6b57611a6b61425d565b1a60f81b818360ff1681518110611a8457611a8461425d565b60200101906001600160f81b031916908160001a90535081611aa581614211565b925050611a1d565b611237338383612860565b611ac3600033611953565b611adf5760405162461bcd60e51b81526004016109c390613f7d565b6001600160a01b038116611b055760405162461bcd60e51b81526004016109c390613d97565b600a546001600160a01b03908116908216811415611b565760405162461bcd60e51b815260206004820152600e60248201526d414c52454144595f45584953545360901b60448201526064016109c3565b50600a80546001600160a01b0319166001600160a01b0392909216919091179055565b611b84600033611953565b611ba05760405162461bcd60e51b81526004016109c390613f7d565b815160005b8181101561192e576000848281518110611bc157611bc161425d565b6020908102919091018101516001600160a01b0381166000908152600f90925260409091205490915060ff168015158515151415611c115760405162461bcd60e51b81526004016109c390613e2e565b6001600160a01b0382166000818152600f602052604090819020805460ff1916881515179055517ffecb4de4435a691c3b0e444e48b940c6967872e0f076cb838bd306e20067959590611c6990881515815260200190565b60405180910390a250508080611c7e906141f6565b915050611ba5565b60068160038110611c9657600080fd5b0154905081565b60058181548110611cad57600080fd5b600091825260209091200154905081565b60008181526004602052604081206109ef90612941565b80516000908290611ce95750600092915050565b50506020015190565b611cfb82610f64565b611d0481612376565b6110a483836126a8565b81518151600091908114611d5a5760405162461bcd60e51b815260206004820152601360248201527208aa4a4be82a4a482b2be9a92a6a69a82a8869606b1b60448201526064016109c3565b60005b81811015611e85576000600b6000878481518110611d7d57611d7d61425d565b6020026020010151815260200190815260200160002090508060040154858381518110611dac57611dac61425d565b60200260200101518260030154611dc39190614117565b1115611de15760405162461bcd60e51b81526004016109c39061402e565b6000868381518110611df557611df561425d565b6020908102919091018101516000818152601083526040808220338352909352919091205490915060ff16611e3c5760405162461bcd60e51b81526004016109c39061405a565b858381518110611e4e57611e4e61425d565b6020026020010151826003016000828254611e699190614117565b9250508190555050508080611e7d906141f6565b915050611d5d565b50610e898585856040518060400160405280600381526020016203078360ec1b81525061294b565b6001600160a01b0381166000908152600e602052604081205460ff1615611ed6575060016109ef565b6001600160a01b0380841660009081526001602090815260408083209386168352929052205460ff1661194c565b6001600160a01b038516331480611f205750611f208533611ead565b611f7e5760405162461bcd60e51b815260206004820152602960248201527f455243313135353a2063616c6c6572206973206e6f74206f776e6572206e6f7260448201526808185c1c1c9bdd995960ba1b60648201526084016109c3565b6110818585858585612a93565b6001600160a01b038316331480611fa75750611fa78333611ead565b611fc35760405162461bcd60e51b81526004016109c390613dc0565b611fce838383612bb9565b6000828152600b6020526040812060038101805491928492611ff1908490614170565b925050819055508181600401600082825461200c9190614170565b909155505050505050565b6120218282611953565b6112375760008281526003602090815260408083206001600160a01b03851684529091529020805460ff191660011790556120593390565b6001600160a01b0316816001600160a01b0316837f2f8788117e7eff1d82e926ec794901d17c78024a50270940304540a733656f0d60405160405180910390a45050565b600061194c836001600160a01b038416612cbf565b60006001600160e01b03198216635a05180f60e01b14806109ef57506109ef82612d0e565b6000908152600b6020526040902060010154151590565b6001600160a01b0384166121145760405162461bcd60e51b81526004016109c390613fed565b33600061212085612d33565b9050600061212d85612d33565b905061213e83600089858589612d7e565b6000868152602081815260408083206001600160a01b038b1684529091528120805487929061216e908490614117565b909155505060408051878152602081018790526001600160a01b03808a16926000929187169160008051602061437a833981519152910160405180910390a46121bc83600089898989612d83565b50505050505050565b60006127106121d48385614151565b61194c919061412f565b81518351146121ff5760405162461bcd60e51b81526004016109c390613fa5565b6001600160a01b0384166122255760405162461bcd60e51b81526004016109c390613e7d565b33612234818787878787612d7e565b60005b845181101561231a5760008582815181106122545761225461425d565b6020026020010151905060008583815181106122725761227261425d565b602090810291909101810151600084815280835260408082206001600160a01b038e1683529093529190912054909150818110156122c25760405162461bcd60e51b81526004016109c390613f05565b6000838152602081815260408083206001600160a01b038e8116855292528083208585039055908b168252812080548492906122ff908490614117565b9250508190555050505080612313906141f6565b9050612237565b50846001600160a01b0316866001600160a01b0316826001600160a01b031660008051602061435a8339815191528787604051612358929190613d0e565b60405180910390a461236e818787878787612ef5565b505050505050565b6123808133612fc6565b50565b61238d8282612017565b60008281526004602052604090206110a4908261209d565b6000805b60038110156123eb576000600682600381106123c7576123c761425d565b01549050838114156123d857600192505b50806123e3816141f6565b9150506123a9565b508061242d5760405162461bcd60e51b81526020600482015260116024820152704f4e4c595f56414c49445f4e415455524560781b60448201526064016109c3565b600554600090815b8181101561247f576000600582815481106124525761245261425d565b906000526020600020015490508681141561246c57600193505b5080612477816141f6565b915050612435565b50816110815760405162461bcd60e51b81526020600482015260156024820152744f4e4c595f435245415445445f43415445474f525960581b60448201526064016109c3565b60008786868686868385111561250a5760405162461bcd60e51b815260206004820152600a60248201526929aaa828262cafa2a92960b11b60448201526064016109c3565b60008d8152600b6020526040812080546001600160a01b0319163317815560028101849055600181018390556005810185905560048101869055908e9061254f61302a565b6000818152600c60209081526040808320869055858352601082528083203384529091529020805460ff19166001179055905087156125b8578783600301819055506125b889838a6040518060400160405280600381526020016203078360ec1b8152506120ee565b600a546040516000916001600160a01b03169034908381818185875af1925050503d8060008114612605576040519150601f19603f3d011682016040523d82523d6000602084013e61260a565b606091505b505090508061264e5760405162461bcd60e51b815260206004820152601060248201526f2322a2afaa2920a729a322a92fa2a92960811b60448201526064016109c3565b604080518a8152602081018a905290810184905233907fb2587064376299b4179fa79d23a3827f5ea86bf7f24e8be539aa8d812eca636f9060600160405180910390a2509098505050505050505050979650505050505050565b6126b28282613048565b60008281526004602052604090206110a490826130af565b6001600160a01b0383166126f05760405162461bcd60e51b81526004016109c390613ec2565b80518251146127115760405162461bcd60e51b81526004016109c390613fa5565b600033905061273481856000868660405180602001604052806000815250612d7e565b60005b83518110156127f95760008482815181106127545761275461425d565b6020026020010151905060008483815181106127725761277261425d565b602090810291909101810151600084815280835260408082206001600160a01b038c1683529093529190912054909150818110156127c25760405162461bcd60e51b81526004016109c390613dea565b6000928352602083815260408085206001600160a01b038b16865290915290922091039055806127f1816141f6565b915050612737565b5060006001600160a01b0316846001600160a01b0316826001600160a01b031660008051602061435a8339815191528686604051612838929190613d0e565b60405180910390a460408051602081019091526000905261192e565b600061194c83836130c4565b816001600160a01b0316836001600160a01b031614156128d45760405162461bcd60e51b815260206004820152602960248201527f455243313135353a2073657474696e6720617070726f76616c20737461747573604482015268103337b91039b2b63360b91b60648201526084016109c3565b6001600160a01b03838116600081815260016020908152604080832094871680845294825291829020805460ff191686151590811790915591519182527f17307eab39ab6107e8899845ad3d59bd9653f200f220920489ca2b5937696c31910160405180910390a3505050565b60006109ef825490565b6001600160a01b0384166129715760405162461bcd60e51b81526004016109c390613fed565b81518351146129925760405162461bcd60e51b81526004016109c390613fa5565b336129a281600087878787612d7e565b60005b8451811015612a3d578381815181106129c0576129c061425d565b60200260200101516000808784815181106129dd576129dd61425d565b602002602001015181526020019081526020016000206000886001600160a01b03166001600160a01b031681526020019081526020016000206000828254612a259190614117565b90915550819050612a35816141f6565b9150506129a5565b50846001600160a01b031660006001600160a01b0316826001600160a01b031660008051602061435a8339815191528787604051612a7c929190613d0e565b60405180910390a461108181600087878787612ef5565b6001600160a01b038416612ab95760405162461bcd60e51b81526004016109c390613e7d565b336000612ac585612d33565b90506000612ad285612d33565b9050612ae2838989858589612d7e565b6000868152602081815260408083206001600160a01b038c16845290915290205485811015612b235760405162461bcd60e51b81526004016109c390613f05565b6000878152602081815260408083206001600160a01b038d8116855292528083208985039055908a16825281208054889290612b60908490614117565b909155505060408051888152602081018890526001600160a01b03808b16928c8216929188169160008051602061437a833981519152910160405180910390a4612bae848a8a8a8a8a612d83565b505050505050505050565b6001600160a01b038316612bdf5760405162461bcd60e51b81526004016109c390613ec2565b336000612beb84612d33565b90506000612bf884612d33565b9050612c1883876000858560405180602001604052806000815250612d7e565b6000858152602081815260408083206001600160a01b038a16845290915290205484811015612c595760405162461bcd60e51b81526004016109c390613dea565b6000868152602081815260408083206001600160a01b038b81168086529184528285208a8703905582518b81529384018a905290929088169160008051602061437a833981519152910160405180910390a46040805160208101909152600090526121bc565b6000818152600183016020526040812054612d06575081546001818101845560008481526020808220909301849055845484825282860190935260409020919091556109ef565b5060006109ef565b60006001600160e01b03198216637965db0b60e01b14806109ef57506109ef826130ee565b60408051600180825281830190925260609160009190602080830190803683370190505090508281600081518110612d6d57612d6d61425d565b602090810291909101015292915050565b61236e565b612d95846001600160a01b031661313e565b1561236e5760405163f23a6e6160e01b81526001600160a01b0385169063f23a6e6190612dce9089908990889088908890600401613c4e565b602060405180830381600087803b158015612de857600080fd5b505af1925050508015612e18575060408051601f3d908101601f19168201909252612e1591810190613a3e565b60015b612ec557612e24614289565b806308c379a01415612e5e5750612e396142a5565b80612e445750612e60565b8060405162461bcd60e51b81526004016109c39190613d3c565b505b60405162461bcd60e51b815260206004820152603460248201527f455243313135353a207472616e7366657220746f206e6f6e20455243313135356044820152732932b1b2b4bb32b91034b6b83632b6b2b73a32b960611b60648201526084016109c3565b6001600160e01b0319811663f23a6e6160e01b146121bc5760405162461bcd60e51b81526004016109c390613d4f565b612f07846001600160a01b031661313e565b1561236e5760405163bc197c8160e01b81526001600160a01b0385169063bc197c8190612f409089908990889088908890600401613bf0565b602060405180830381600087803b158015612f5a57600080fd5b505af1925050508015612f8a575060408051601f3d908101601f19168201909252612f8791810190613a3e565b60015b612f9657612e24614289565b6001600160e01b0319811663bc197c8160e01b146121bc5760405162461bcd60e51b81526004016109c390613d4f565b612fd08282611953565b61123757612fe8816001600160a01b0316601461314d565b612ff383602061314d565b604051602001613004929190613b81565b60408051601f198184030181529082905262461bcd60e51b82526109c391600401613d3c565b600980546000918261303b836141f6565b9190505550600954905090565b6130528282611953565b156112375760008281526003602090815260408083206001600160a01b0385168085529252808320805460ff1916905551339285917ff6391f5c32d9c69d2a47ea670b442974b53935d1edc7fd64eb21e047a839171b9190a45050565b600061194c836001600160a01b0384166132e8565b60008260000182815481106130db576130db61425d565b9060005260206000200154905092915050565b60006001600160e01b03198216636cdb3d1360e11b148061311f57506001600160e01b031982166303a24d0760e21b145b806109ef57506301ffc9a760e01b6001600160e01b03198316146109ef565b6001600160a01b03163b151590565b6060600061315c836002614151565b613167906002614117565b6001600160401b0381111561317e5761317e614273565b6040519080825280601f01601f1916602001820160405280156131a8576020820181803683370190505b509050600360fc1b816000815181106131c3576131c361425d565b60200101906001600160f81b031916908160001a905350600f60fb1b816001815181106131f2576131f261425d565b60200101906001600160f81b031916908160001a9053506000613216846002614151565b613221906001614117565b90505b6001811115613299576f181899199a1a9b1b9c1cb0b131b232b360811b85600f16601081106132555761325561425d565b1a60f81b82828151811061326b5761326b61425d565b60200101906001600160f81b031916908160001a90535060049490941c93613292816141b3565b9050613224565b50831561194c5760405162461bcd60e51b815260206004820181905260248201527f537472696e67733a20686578206c656e67746820696e73756666696369656e7460448201526064016109c3565b600081815260018301602052604081205480156133d157600061330c600183614170565b855490915060009061332090600190614170565b90508181146133855760008660000182815481106133405761334061425d565b90600052602060002001549050808760000184815481106133635761336361425d565b6000918252602080832090910192909255918252600188019052604090208390555b855486908061339657613396614247565b6001900381819060005260206000200160009055905585600101600086815260200190815260200160002060009055600193505050506109ef565b60009150506109ef565b60006001600160401b038311156133f4576133f4614273565b60405161340b601f8501601f1916602001826141ca565b80915083815284848401111561342057600080fd5b83836020830137600060208583010152509392505050565b600082601f83011261344957600080fd5b81356020613456826140f4565b60405161346382826141ca565b8381528281019150858301600585901b8701840188101561348357600080fd5b60005b858110156134ab5781356134998161432e565b84529284019290840190600101613486565b5090979650505050505050565b600082601f8301126134c957600080fd5b813560206134d6826140f4565b6040516134e382826141ca565b8381528281019150858301600585901b8701840188101561350357600080fd5b60005b858110156134ab57813584529284019290840190600101613506565b8035801515811461353257600080fd5b919050565b600082601f83011261354857600080fd5b61194c838335602085016133db565b60006020828403121561356957600080fd5b813561194c8161432e565b600080600080600060a0868803121561358c57600080fd5b85356135978161432e565b94506020868101356001600160401b03808211156135b457600080fd5b818901915089601f8301126135c857600080fd5b81356135d3816140f4565b6040516135e082826141ca565b8281528581019150848601600584901b860187018e101561360057600080fd5b600095505b8386101561362c5780356136188161432e565b835260019590950194918601918601613605565b5098505050604089013592508083111561364557600080fd5b5050613653888289016134b8565b9598949750949560608101359550608001359392505050565b6000806040838503121561367f57600080fd5b823561368a8161432e565b9150602083013561369a8161432e565b809150509250929050565b600080600080600060a086880312156136bd57600080fd5b85356136c88161432e565b945060208601356136d88161432e565b935060408601356001600160401b03808211156136f457600080fd5b61370089838a016134b8565b9450606088013591508082111561371657600080fd5b61372289838a016134b8565b9350608088013591508082111561373857600080fd5b5061374588828901613537565b9150509295509295909350565b600080600080600060a0868803121561376a57600080fd5b85356137758161432e565b945060208601356137858161432e565b9350604086013592506060860135915060808601356001600160401b038111156137ae57600080fd5b61374588828901613537565b6000806000606084860312156137cf57600080fd5b83356137da8161432e565b925060208401356001600160401b03808211156137f657600080fd5b613802878388016134b8565b9350604086013591508082111561381857600080fd5b50613825868287016134b8565b9150509250925092565b6000806040838503121561384257600080fd5b823561384d8161432e565b915061385b60208401613522565b90509250929050565b6000806040838503121561387757600080fd5b82356138828161432e565b946020939093013593505050565b6000806000606084860312156138a557600080fd5b83356138b08161432e565b95602085013595506040909401359392505050565b600080600080600080600060e0888a0312156138e057600080fd5b87356138eb8161432e565b9960208901359950604089013598606081013598506080810135975060a0810135965060c00135945092505050565b6000806040838503121561392d57600080fd5b82356001600160401b038082111561394457600080fd5b61395086838701613438565b9350602085013591508082111561396657600080fd5b50613973858286016134b8565b9150509250929050565b6000806040838503121561399057600080fd5b82356001600160401b038111156139a657600080fd5b6139b285828601613438565b92505061385b60208401613522565b6000602082840312156139d357600080fd5b5035919050565b600080604083850312156139ed57600080fd5b82359150602083013561369a8161432e565b60008060408385031215613a1257600080fd5b50508035926020909101359150565b600060208284031215613a3357600080fd5b813561194c81614343565b600060208284031215613a5057600080fd5b815161194c81614343565b600060208284031215613a6d57600080fd5b81356001600160401b03811115613a8357600080fd5b8201601f81018413613a9457600080fd5b613aa3848235602084016133db565b949350505050565b600080600060608486031215613ac057600080fd5b833592506020840135613ad28161432e565b9150613ae060408501613522565b90509250925092565b600081518084526020808501945080840160005b83811015613b1957815187529582019590820190600101613afd565b509495945050505050565b60008151808452613b3c816020860160208601614187565b601f01601f19169290920160200192915050565b680697066733a2f2f66360bc1b815260008251613b74816009850160208701614187565b9190910160090192915050565b76020b1b1b2b9b9a1b7b73a3937b61d1030b1b1b7bab73a1604d1b815260008351613bb3816017850160208801614187565b7001034b99036b4b9b9b4b733903937b6329607d1b6017918401918201528351613be4816028840160208801614187565b01602801949350505050565b6001600160a01b0386811682528516602082015260a060408201819052600090613c1c90830186613ae9565b8281036060840152613c2e8186613ae9565b90508281036080840152613c428185613b24565b98975050505050505050565b6001600160a01b03868116825285166020820152604081018490526060810183905260a060808201819052600090613c8890830184613b24565b979650505050505050565b606080825284519082018190526000906020906080840190828801845b82811015613cd55781516001600160a01b031684529284019290840190600101613cb0565b50505083810382850152613ce98187613ae9565b92505050826040830152949350505050565b60208152600061194c6020830184613ae9565b604081526000613d216040830185613ae9565b8281036020840152613d338185613ae9565b95945050505050565b60208152600061194c6020830184613b24565b60208082526028908201527f455243313135353a204552433131353552656365697665722072656a656374656040820152676420746f6b656e7360c01b606082015260800190565b6020808252600f908201526e494e56414c49445f4144445245535360881b604082015260600190565b60208082526010908201526f11549497d393d517d054141493d5915160821b604082015260600190565b60208082526024908201527f455243313135353a206275726e20616d6f756e7420657863656564732062616c604082015263616e636560e01b606082015260800190565b6020808252600b908201526a1053149150511657d4d15560aa1b604082015260600190565b60208082526010908201526f22a9292fa7a7262cafa1a922a0aa27a960811b604082015260600190565b60208082526025908201527f455243313135353a207472616e7366657220746f20746865207a65726f206164604082015264647265737360d81b606082015260800190565b60208082526023908201527f455243313135353a206275726e2066726f6d20746865207a65726f206164647260408201526265737360e81b606082015260800190565b6020808252602a908201527f455243313135353a20696e73756666696369656e742062616c616e636520666f60408201526939103a3930b739b332b960b11b606082015260800190565b60208082526014908201527313505617d493d65053151657d15610d15151115160621b604082015260600190565b6020808252600e908201526d4552525f41444d494e5f4f4e4c5960901b604082015260600190565b60208082526028908201527f455243313135353a2069647320616e6420616d6f756e7473206c656e677468206040820152670dad2e6dac2e8c6d60c31b606082015260800190565b60208082526021908201527f455243313135353a206d696e7420746f20746865207a65726f206164647265736040820152607360f81b606082015260800190565b60208082526012908201527113505617d4d55414131657d4915050d2115160721b604082015260600190565b6020808252600f908201526e22a9292fa7a7262cafa6a4a72a22a960891b604082015260600190565b600060808201868352602086818501526080604085015281865180845260a086019150828801935060005b818110156140d35784516001600160a01b0316835293830193918301916001016140ae565b505084810360608601526140e78187613ae9565b9998505050505050505050565b60006001600160401b0382111561410d5761410d614273565b5060051b60200190565b6000821982111561412a5761412a614231565b500190565b60008261414c57634e487b7160e01b600052601260045260246000fd5b500490565b600081600019048311821515161561416b5761416b614231565b500290565b60008282101561418257614182614231565b500390565b60005b838110156141a257818101518382015260200161418a565b8381111561192e5750506000910152565b6000816141c2576141c2614231565b506000190190565b601f8201601f191681016001600160401b03811182821017156141ef576141ef614273565b6040525050565b600060001982141561420a5761420a614231565b5060010190565b600060ff821660ff81141561422857614228614231565b60010192915050565b634e487b7160e01b600052601160045260246000fd5b634e487b7160e01b600052603160045260246000fd5b634e487b7160e01b600052603260045260246000fd5b634e487b7160e01b600052604160045260246000fd5b600060033d11156142a25760046000803e5060005160e01c5b90565b600060443d10156142b35790565b6040516003193d81016004833e81513d6001600160401b0380831160248401831017156142e257505050505090565b82850191508151818111156142fa5750505050505090565b843d87010160208285010111156143145750505050505090565b614323602082860101876141ca565b509095945050505050565b6001600160a01b038116811461238057600080fd5b6001600160e01b03198116811461238057600080fdfe4a39dc06d4c0dbc64b70af90fd698a233a518aa5d07e595d983b8c0526c8f7fbc3d58168c5ae7397731d063d5bbf3d657854427343f4c083240f7aacaa2d0f62a164736f6c6343000806000a",
  "linkReferences": {},
  "deployedLinkReferences": {}
}