{
  "_format": "hh-sol-artifact-1",
  "contractName": "RC3_Creators",
  "sourceName": "contracts/RC3_Creators.sol",
  "abi": [
    {
      "inputs": [
        {
          "internalType": "address",
          "name": "defaultAdmin",
          "type": "address"
        }
      ],
      "stateMutability": "nonpayable",
      "type": "constructor"
    },
    {
      "anonymous": false,
      "inputs": [
        {
          "indexed": true,
          "internalType": "address",
          "name": "account",
          "type": "address"
        },
        {
          "indexed": true,
          "internalType": "address",
          "name": "operator",
          "type": "address"
        },
        {
          "indexed": false,
          "internalType": "bool",
          "name": "approved",
          "type": "bool"
        }
      ],
      "name": "ApprovalForAll",
      "type": "event"
    },
    {
      "anonymous": false,
      "inputs": [
        {
          "indexed": true,
          "internalType": "address",
          "name": "market",
          "type": "address"
        },
        {
          "indexed": false,
          "internalType": "bool",
          "name": "isMarket",
          "type": "bool"
        }
      ],
      "name": "MarketUpdated",
      "type": "event"
    },
    {
      "anonymous": false,
      "inputs": [
        {
          "indexed": true,
          "internalType": "address",
          "name": "caller",
          "type": "address"
        },
        {
          "indexed": false,
          "internalType": "uint256",
          "name": "id",
          "type": "uint256"
        },
        {
          "indexed": true,
          "internalType": "address",
          "name": "minter",
          "type": "address"
        },
        {
          "indexed": false,
          "internalType": "bool",
          "name": "canMint",
          "type": "bool"
        }
      ],
      "name": "MinterSet",
      "type": "event"
    },
    {
      "anonymous": false,
      "inputs": [
        {
          "indexed": true,
          "internalType": "address",
          "name": "creator",
          "type": "address"
        },
        {
          "indexed": false,
          "internalType": "string",
          "name": "category",
          "type": "string"
        }
      ],
      "name": "NewCategory",
      "type": "event"
    },
    {
      "anonymous": false,
      "inputs": [
        {
          "indexed": true,
          "internalType": "address",
          "name": "creator",
          "type": "address"
        },
        {
          "indexed": false,
          "internalType": "uint256",
          "name": "initialSupply",
          "type": "uint256"
        },
        {
          "indexed": false,
          "internalType": "uint256",
          "name": "maxSupply",
          "type": "uint256"
        },
        {
          "indexed": false,
          "internalType": "uint256",
          "name": "id",
          "type": "uint256"
        }
      ],
      "name": "NewToken",
      "type": "event"
    },
    {
      "anonymous": false,
      "inputs": [
        {
          "indexed": true,
          "internalType": "address",
          "name": "addr",
          "type": "address"
        },
        {
          "indexed": false,
          "internalType": "bool",
          "name": "canCreatePhysical",
          "type": "bool"
        }
      ],
      "name": "PhysicalCreatorSet",
      "type": "event"
    },
    {
      "anonymous": false,
      "inputs": [
        {
          "indexed": true,
          "internalType": "bytes32",
          "name": "role",
          "type": "bytes32"
        },
        {
          "indexed": true,
          "internalType": "bytes32",
          "name": "previousAdminRole",
          "type": "bytes32"
        },
        {
          "indexed": true,
          "internalType": "bytes32",
          "name": "newAdminRole",
          "type": "bytes32"
        }
      ],
      "name": "RoleAdminChanged",
      "type": "event"
    },
    {
      "anonymous": false,
      "inputs": [
        {
          "indexed": true,
          "internalType": "bytes32",
          "name": "role",
          "type": "bytes32"
        },
        {
          "indexed": true,
          "internalType": "address",
          "name": "account",
          "type": "address"
        },
        {
          "indexed": true,
          "internalType": "address",
          "name": "sender",
          "type": "address"
        }
      ],
      "name": "RoleGranted",
      "type": "event"
    },
    {
      "anonymous": false,
      "inputs": [
        {
          "indexed": true,
          "internalType": "bytes32",
          "name": "role",
          "type": "bytes32"
        },
        {
          "indexed": true,
          "internalType": "address",
          "name": "account",
          "type": "address"
        },
        {
          "indexed": true,
          "internalType": "address",
          "name": "sender",
          "type": "address"
        }
      ],
      "name": "RoleRevoked",
      "type": "event"
    },
    {
      "anonymous": false,
      "inputs": [
        {
          "indexed": true,
          "internalType": "address",
          "name": "oldCreator",
          "type": "address"
        },
        {
          "indexed": true,
          "internalType": "address",
          "name": "newCreator",
          "type": "address"
        },
        {
          "indexed": false,
          "internalType": "uint256",
          "name": "id",
          "type": "uint256"
        },
        {
          "indexed": false,
          "internalType": "uint256",
          "name": "royalty",
          "type": "uint256"
        },
        {
          "indexed": false,
          "internalType": "address payable[]",
          "name": "recipients",
          "type": "address[]"
        },
        {
          "indexed": false,
          "internalType": "uint256[]",
          "name": "shares",
          "type": "uint256[]"
        }
      ],
      "name": "RoyaltyInfoUpdated",
      "type": "event"
    },
    {
      "anonymous": false,
      "inputs": [
        {
          "indexed": true,
          "internalType": "address",
          "name": "operator",
          "type": "address"
        },
        {
          "indexed": true,
          "internalType": "address",
          "name": "from",
          "type": "address"
        },
        {
          "indexed": true,
          "internalType": "address",
          "name": "to",
          "type": "address"
        },
        {
          "indexed": false,
          "internalType": "uint256[]",
          "name": "ids",
          "type": "uint256[]"
        },
        {
          "indexed": false,
          "internalType": "uint256[]",
          "name": "values",
          "type": "uint256[]"
        }
      ],
      "name": "TransferBatch",
      "type": "event"
    },
    {
      "anonymous": false,
      "inputs": [
        {
          "indexed": true,
          "internalType": "address",
          "name": "operator",
          "type": "address"
        },
        {
          "indexed": true,
          "internalType": "address",
          "name": "from",
          "type": "address"
        },
        {
          "indexed": true,
          "internalType": "address",
          "name": "to",
          "type": "address"
        },
        {
          "indexed": false,
          "internalType": "uint256",
          "name": "id",
          "type": "uint256"
        },
        {
          "indexed": false,
          "internalType": "uint256",
          "name": "value",
          "type": "uint256"
        }
      ],
      "name": "TransferSingle",
      "type": "event"
    },
    {
      "anonymous": false,
      "inputs": [
        {
          "indexed": false,
          "internalType": "string",
          "name": "value",
          "type": "string"
        },
        {
          "indexed": true,
          "internalType": "uint256",
          "name": "id",
          "type": "uint256"
        }
      ],
      "name": "URI",
      "type": "event"
    },
    {
      "inputs": [],
      "name": "DEFAULT_ADMIN_ROLE",
      "outputs": [
        {
          "internalType": "bytes32",
          "name": "",
          "type": "bytes32"
        }
      ],
      "stateMutability": "view",
      "type": "function"
    },
    {
      "inputs": [
        {
          "internalType": "address",
          "name": "account",
          "type": "address"
        },
        {
          "internalType": "uint256",
          "name": "id",
          "type": "uint256"
        }
      ],
      "name": "balanceOf",
      "outputs": [
        {
          "internalType": "uint256",
          "name": "",
          "type": "uint256"
        }
      ],
      "stateMutability": "view",
      "type": "function"
    },
    {
      "inputs": [
        {
          "internalType": "address[]",
          "name": "accounts",
          "type": "address[]"
        },
        {
          "internalType": "uint256[]",
          "name": "ids",
          "type": "uint256[]"
        }
      ],
      "name": "balanceOfBatch",
      "outputs": [
        {
          "internalType": "uint256[]",
          "name": "",
          "type": "uint256[]"
        }
      ],
      "stateMutability": "view",
      "type": "function"
    },
    {
      "inputs": [
        {
          "internalType": "address",
          "name": "from",
          "type": "address"
        },
        {
          "internalType": "uint256",
          "name": "id",
          "type": "uint256"
        },
        {
          "internalType": "uint256",
          "name": "amount",
          "type": "uint256"
        }
      ],
      "name": "burn",
      "outputs": [],
      "stateMutability": "nonpayable",
      "type": "function"
    },
    {
      "inputs": [
        {
          "internalType": "address",
          "name": "from",
          "type": "address"
        },
        {
          "internalType": "uint256[]",
          "name": "ids",
          "type": "uint256[]"
        },
        {
          "internalType": "uint256[]",
          "name": "amounts",
          "type": "uint256[]"
        }
      ],
      "name": "burnBatch",
      "outputs": [],
      "stateMutability": "nonpayable",
      "type": "function"
    },
    {
      "inputs": [
        {
          "internalType": "bytes32",
          "name": "_bytes32",
          "type": "bytes32"
        }
      ],
      "name": "bytes32ToString",
      "outputs": [
        {
          "internalType": "string",
          "name": "result",
          "type": "string"
        }
      ],
      "stateMutability": "pure",
      "type": "function"
    },
    {
      "inputs": [
        {
          "internalType": "address",
          "name": "",
          "type": "address"
        }
      ],
      "name": "canCreatePhysical",
      "outputs": [
        {
          "internalType": "bool",
          "name": "",
          "type": "bool"
        }
      ],
      "stateMutability": "view",
      "type": "function"
    },
    {
      "inputs": [
        {
          "internalType": "uint256",
          "name": "",
          "type": "uint256"
        },
        {
          "internalType": "address",
          "name": "",
          "type": "address"
        }
      ],
      "name": "canMint",
      "outputs": [
        {
          "internalType": "bool",
          "name": "",
          "type": "bool"
        }
      ],
      "stateMutability": "view",
      "type": "function"
    },
    {
      "inputs": [],
      "name": "categories",
      "outputs": [
        {
          "internalType": "bytes32[]",
          "name": "",
          "type": "bytes32[]"
        }
      ],
      "stateMutability": "view",
      "type": "function"
    },
    {
      "inputs": [
        {
          "internalType": "bytes32",
          "name": "category",
          "type": "bytes32"
        }
      ],
      "name": "createCategory",
      "outputs": [
        {
          "internalType": "string",
          "name": "category_",
          "type": "string"
        }
      ],
      "stateMutability": "nonpayable",
      "type": "function"
    },
    {
      "inputs": [
        {
          "internalType": "address",
          "name": "_initialHodler",
          "type": "address"
        },
        {
          "internalType": "uint256",
          "name": "_id",
          "type": "uint256"
        },
        {
          "internalType": "uint256",
          "name": "_initialSupply",
          "type": "uint256"
        },
        {
          "internalType": "uint256",
          "name": "_maxSupply",
          "type": "uint256"
        },
        {
          "internalType": "uint256",
          "name": "royalty",
          "type": "uint256"
        },
        {
          "internalType": "bytes32",
          "name": "category",
          "type": "bytes32"
        },
        {
          "internalType": "bytes32",
          "name": "nature",
          "type": "bytes32"
        }
      ],
      "name": "createToken",
      "outputs": [
        {
          "internalType": "uint256",
          "name": "tokenId",
          "type": "uint256"
        }
      ],
      "stateMutability": "payable",
      "type": "function"
    },
    {
      "inputs": [],
      "name": "creationFee",
      "outputs": [
        {
          "internalType": "uint256",
          "name": "",
          "type": "uint256"
        }
      ],
      "stateMutability": "view",
      "type": "function"
    },
    {
      "inputs": [
        {
          "internalType": "uint256",
          "name": "_id",
          "type": "uint256"
        }
      ],
      "name": "creator",
      "outputs": [
        {
          "internalType": "address",
          "name": "creator_",
          "type": "address"
        }
      ],
      "stateMutability": "view",
      "type": "function"
    },
    {
      "inputs": [
        {
          "internalType": "uint256",
          "name": "_id",
          "type": "uint256"
        }
      ],
      "name": "exists",
      "outputs": [
        {
          "internalType": "bool",
          "name": "",
          "type": "bool"
        }
      ],
      "stateMutability": "view",
      "type": "function"
    },
    {
      "inputs": [],
      "name": "feeReceipient",
      "outputs": [
        {
          "internalType": "address payable",
          "name": "",
          "type": "address"
        }
      ],
      "stateMutability": "view",
      "type": "function"
    },
    {
      "inputs": [
        {
          "internalType": "uint256",
          "name": "_id",
          "type": "uint256"
        }
      ],
      "name": "getInfo",
      "outputs": [
        {
          "components": [
            {
              "internalType": "address payable",
              "name": "creator",
              "type": "address"
            },
            {
              "internalType": "bytes32",
              "name": "nature",
              "type": "bytes32"
            },
            {
              "internalType": "bytes32",
              "name": "category",
              "type": "bytes32"
            },
            {
              "internalType": "uint256",
              "name": "tokenSupply",
              "type": "uint256"
            },
            {
              "internalType": "uint256",
              "name": "maxSupply",
              "type": "uint256"
            },
            {
              "internalType": "uint256",
              "name": "royalty",
              "type": "uint256"
            }
          ],
          "internalType": "struct RC3_Creators.Info",
          "name": "info",
          "type": "tuple"
        }
      ],
      "stateMutability": "view",
      "type": "function"
    },
    {
      "inputs": [
        {
          "internalType": "bytes32",
          "name": "role",
          "type": "bytes32"
        }
      ],
      "name": "getRoleAdmin",
      "outputs": [
        {
          "internalType": "bytes32",
          "name": "",
          "type": "bytes32"
        }
      ],
      "stateMutability": "view",
      "type": "function"
    },
    {
      "inputs": [
        {
          "internalType": "bytes32",
          "name": "role",
          "type": "bytes32"
        },
        {
          "internalType": "uint256",
          "name": "index",
          "type": "uint256"
        }
      ],
      "name": "getRoleMember",
      "outputs": [
        {
          "internalType": "address",
          "name": "",
          "type": "address"
        }
      ],
      "stateMutability": "view",
      "type": "function"
    },
    {
      "inputs": [
        {
          "internalType": "bytes32",
          "name": "role",
          "type": "bytes32"
        }
      ],
      "name": "getRoleMemberCount",
      "outputs": [
        {
          "internalType": "uint256",
          "name": "",
          "type": "uint256"
        }
      ],
      "stateMutability": "view",
      "type": "function"
    },
    {
      "inputs": [
        {
          "internalType": "bytes32",
          "name": "role",
          "type": "bytes32"
        },
        {
          "internalType": "address",
          "name": "account",
          "type": "address"
        }
      ],
      "name": "grantRole",
      "outputs": [],
      "stateMutability": "nonpayable",
      "type": "function"
    },
    {
      "inputs": [
        {
          "internalType": "bytes32",
          "name": "role",
          "type": "bytes32"
        },
        {
          "internalType": "address",
          "name": "account",
          "type": "address"
        }
      ],
      "name": "hasRole",
      "outputs": [
        {
          "internalType": "bool",
          "name": "",
          "type": "bool"
        }
      ],
      "stateMutability": "view",
      "type": "function"
    },
    {
      "inputs": [
        {
          "internalType": "address",
          "name": "_owner",
          "type": "address"
        },
        {
          "internalType": "address",
          "name": "_operator",
          "type": "address"
        }
      ],
      "name": "isApprovedForAll",
      "outputs": [
        {
          "internalType": "bool",
          "name": "isOperator",
          "type": "bool"
        }
      ],
      "stateMutability": "view",
      "type": "function"
    },
    {
      "inputs": [
        {
          "internalType": "address",
          "name": "",
          "type": "address"
        }
      ],
      "name": "isWhitelistedMarket",
      "outputs": [
        {
          "internalType": "bool",
          "name": "",
          "type": "bool"
        }
      ],
      "stateMutability": "view",
      "type": "function"
    },
    {
      "inputs": [
        {
          "internalType": "address",
          "name": "to",
          "type": "address"
        },
        {
          "internalType": "uint256",
          "name": "id",
          "type": "uint256"
        },
        {
          "internalType": "uint256",
          "name": "amount",
          "type": "uint256"
        }
      ],
      "name": "mint",
      "outputs": [
        {
          "internalType": "bool",
          "name": "success",
          "type": "bool"
        }
      ],
      "stateMutability": "nonpayable",
      "type": "function"
    },
    {
      "inputs": [
        {
          "internalType": "address",
          "name": "to",
          "type": "address"
        },
        {
          "internalType": "uint256[]",
          "name": "ids",
          "type": "uint256[]"
        },
        {
          "internalType": "uint256[]",
          "name": "amounts",
          "type": "uint256[]"
        }
      ],
      "name": "mintBatch",
      "outputs": [
        {
          "internalType": "bool",
          "name": "success",
          "type": "bool"
        }
      ],
      "stateMutability": "nonpayable",
      "type": "function"
    },
    {
      "inputs": [],
      "name": "natures",
      "outputs": [
        {
          "internalType": "bytes32[3]",
          "name": "",
          "type": "bytes32[3]"
        }
      ],
      "stateMutability": "view",
      "type": "function"
    },
    {
      "inputs": [
        {
          "internalType": "bytes32",
          "name": "role",
          "type": "bytes32"
        },
        {
          "internalType": "address",
          "name": "account",
          "type": "address"
        }
      ],
      "name": "renounceRole",
      "outputs": [],
      "stateMutability": "nonpayable",
      "type": "function"
    },
    {
      "inputs": [
        {
          "internalType": "bytes32",
          "name": "role",
          "type": "bytes32"
        },
        {
          "internalType": "address",
          "name": "account",
          "type": "address"
        }
      ],
      "name": "revokeRole",
      "outputs": [],
      "stateMutability": "nonpayable",
      "type": "function"
    },
    {
      "inputs": [
        {
          "internalType": "uint256",
          "name": "_id",
          "type": "uint256"
        },
        {
          "internalType": "uint256",
          "name": "_salePrice",
          "type": "uint256"
        }
      ],
      "name": "royaltyInfo",
      "outputs": [
        {
          "internalType": "address",
          "name": "",
          "type": "address"
        },
        {
          "internalType": "uint256",
          "name": "",
          "type": "uint256"
        }
      ],
      "stateMutability": "view",
      "type": "function"
    },
    {
      "inputs": [
        {
          "internalType": "address",
          "name": "from",
          "type": "address"
        },
        {
          "internalType": "address",
          "name": "to",
          "type": "address"
        },
        {
          "internalType": "uint256[]",
          "name": "ids",
          "type": "uint256[]"
        },
        {
          "internalType": "uint256[]",
          "name": "amounts",
          "type": "uint256[]"
        },
        {
          "internalType": "bytes",
          "name": "data",
          "type": "bytes"
        }
      ],
      "name": "safeBatchTransferFrom",
      "outputs": [],
      "stateMutability": "nonpayable",
      "type": "function"
    },
    {
      "inputs": [
        {
          "internalType": "address",
          "name": "from",
          "type": "address"
        },
        {
          "internalType": "address",
          "name": "to",
          "type": "address"
        },
        {
          "internalType": "uint256",
          "name": "id",
          "type": "uint256"
        },
        {
          "internalType": "uint256",
          "name": "amount",
          "type": "uint256"
        },
        {
          "internalType": "bytes",
          "name": "data",
          "type": "bytes"
        }
      ],
      "name": "safeTransferFrom",
      "outputs": [],
      "stateMutability": "nonpayable",
      "type": "function"
    },
    {
      "inputs": [],
      "name": "serialNum",
      "outputs": [
        {
          "internalType": "uint256",
          "name": "",
          "type": "uint256"
        }
      ],
      "stateMutability": "view",
      "type": "function"
    },
    {
      "inputs": [
        {
          "internalType": "uint256",
          "name": "",
          "type": "uint256"
        }
      ],
      "name": "serialNumToId",
      "outputs": [
        {
          "internalType": "uint256",
          "name": "",
          "type": "uint256"
        }
      ],
      "stateMutability": "view",
      "type": "function"
    },
    {
      "inputs": [
        {
          "internalType": "address",
          "name": "operator",
          "type": "address"
        },
        {
          "internalType": "bool",
          "name": "approved",
          "type": "bool"
        }
      ],
      "name": "setApprovalForAll",
      "outputs": [],
      "stateMutability": "nonpayable",
      "type": "function"
    },
    {
      "inputs": [
        {
          "internalType": "address payable",
          "name": "_newFeeReceipient",
          "type": "address"
        }
      ],
      "name": "setFeeCollector",
      "outputs": [],
      "stateMutability": "nonpayable",
      "type": "function"
    },
    {
      "inputs": [
        {
          "internalType": "address",
          "name": "market",
          "type": "address"
        },
        {
          "internalType": "bool",
          "name": "isMarket",
          "type": "bool"
        }
      ],
      "name": "setMarket",
      "outputs": [],
      "stateMutability": "nonpayable",
      "type": "function"
    },
    {
      "inputs": [
        {
          "internalType": "uint256",
          "name": "id",
          "type": "uint256"
        },
        {
          "internalType": "address",
          "name": "minter",
          "type": "address"
        },
        {
          "internalType": "bool",
          "name": "_canMint",
          "type": "bool"
        }
      ],
      "name": "setMinter",
      "outputs": [],
      "stateMutability": "nonpayable",
      "type": "function"
    },
    {
      "inputs": [
        {
          "internalType": "address[]",
          "name": "creators",
          "type": "address[]"
        },
        {
          "internalType": "bool",
          "name": "_canCreatePhysical",
          "type": "bool"
        }
      ],
      "name": "setPhysicalCreator",
      "outputs": [],
      "stateMutability": "nonpayable",
      "type": "function"
    },
    {
      "inputs": [
        {
          "internalType": "address payable",
          "name": "creator_",
          "type": "address"
        },
        {
          "internalType": "address payable[]",
          "name": "recipients",
          "type": "address[]"
        },
        {
          "internalType": "uint256[]",
          "name": "shares",
          "type": "uint256[]"
        },
        {
          "internalType": "uint256",
          "name": "id",
          "type": "uint256"
        },
        {
          "internalType": "uint256",
          "name": "royalty",
          "type": "uint256"
        }
      ],
      "name": "setRoyaltyInfo",
      "outputs": [],
      "stateMutability": "nonpayable",
      "type": "function"
    },
    {
      "inputs": [
        {
          "internalType": "uint256",
          "name": "_id",
          "type": "uint256"
        },
        {
          "internalType": "uint256",
          "name": "_salePrice",
          "type": "uint256"
        }
      ],
      "name": "splitRoyaltyInfo",
      "outputs": [
        {
          "internalType": "address[]",
          "name": "recipients",
          "type": "address[]"
        },
        {
          "internalType": "uint256[]",
          "name": "shares",
          "type": "uint256[]"
        },
        {
          "internalType": "uint256",
          "name": "salePrice",
          "type": "uint256"
        }
      ],
      "stateMutability": "view",
      "type": "function"
    },
    {
      "inputs": [],
      "name": "splitRoyaltyLimit",
      "outputs": [
        {
          "internalType": "uint256",
          "name": "",
          "type": "uint256"
        }
      ],
      "stateMutability": "view",
      "type": "function"
    },
    {
      "inputs": [
        {
          "internalType": "string",
          "name": "source",
          "type": "string"
        }
      ],
      "name": "stringToBytes32",
      "outputs": [
        {
          "internalType": "bytes32",
          "name": "result",
          "type": "bytes32"
        }
      ],
      "stateMutability": "pure",
      "type": "function"
    },
    {
      "inputs": [
        {
          "internalType": "bytes4",
          "name": "interfaceId",
          "type": "bytes4"
        }
      ],
      "name": "supportsInterface",
      "outputs": [
        {
          "internalType": "bool",
          "name": "",
          "type": "bool"
        }
      ],
      "stateMutability": "view",
      "type": "function"
    },
    {
      "inputs": [
        {
          "internalType": "uint256",
          "name": "_id",
          "type": "uint256"
        }
      ],
      "name": "tokenSupply",
      "outputs": [
        {
          "internalType": "uint256",
          "name": "tokenSupply_",
          "type": "uint256"
        }
      ],
      "stateMutability": "view",
      "type": "function"
    },
    {
      "inputs": [
        {
          "internalType": "uint256",
          "name": "i",
          "type": "uint256"
        }
      ],
      "name": "uint2hexstr",
      "outputs": [
        {
          "internalType": "string",
          "name": "",
          "type": "string"
        }
      ],
      "stateMutability": "pure",
      "type": "function"
    },
    {
      "inputs": [
        {
          "internalType": "uint256",
          "name": "_id",
          "type": "uint256"
        }
      ],
      "name": "uri",
      "outputs": [
        {
          "internalType": "string",
          "name": "",
          "type": "string"
        }
      ],
      "stateMutability": "view",
      "type": "function"
    }
  ],
  "bytecode": "0x60806040523480156200001157600080fd5b506040516200492638038062004926833981016040819052620000349162000403565b6040805180820190915260098152680697066733a2f2f66360bc1b60208201526200005f81620001c1565b506200006d600082620001da565b60056200009b6040518060400160405280600381526020016210549560ea1b815250620001e660201b60201c565b815460018101835560009283526020928390200155604080518082019091526005808252644d5553494360d81b92820192909252620000da90620001e6565b8154600181018355600092835260209283902001556040805180820190915260078152662320a9a424a7a760c91b918101919091526005906200011d90620001e6565b81546001810183556000928352602092839020015560408051808201909152600881526714121654d250d05360c21b918101919091526200015e90620001e6565b600655604080518082019091526007815266111251d255105360ca1b60208201526200018a90620001e6565b60075560408051808201909152600881526714121651d255105360c21b6020820152620001b790620001e6565b6008555062000472565b8051620001d69060029060208401906200035d565b5050565b620001d6828262000204565b80516000908290620001fb5750600092915050565b50506020015190565b6200021b82826200024760201b62001fe71760201c565b6000828152600460209081526040909120620002429183906200206d620002eb821b17901c565b505050565b60008281526003602090815260408083206001600160a01b038516845290915290205460ff16620001d65760008281526003602090815260408083206001600160a01b03851684529091529020805460ff19166001179055620002a73390565b6001600160a01b0316816001600160a01b0316837f2f8788117e7eff1d82e926ec794901d17c78024a50270940304540a733656f0d60405160405180910390a45050565b600062000302836001600160a01b0384166200030b565b90505b92915050565b6000818152600183016020526040812054620003545750815460018181018455600084815260208082209093018490558454848252828601909352604090209190915562000305565b50600062000305565b8280546200036b9062000435565b90600052602060002090601f0160209004810192826200038f5760008555620003da565b82601f10620003aa57805160ff1916838001178555620003da565b82800160010185558215620003da579182015b82811115620003da578251825591602001919060010190620003bd565b50620003e8929150620003ec565b5090565b5b80821115620003e85760008155600101620003ed565b6000602082840312156200041657600080fd5b81516001600160a01b03811681146200042e57600080fd5b9392505050565b600181811c908216806200044a57607f821691505b602082108114156200046c57634e487b7160e01b600052602260045260246000fd5b50919050565b6144a480620004826000396000f3fe60806040526004361061020c5760003560e01c8062fdd58e1461021157806301ffc9a7146102445780630d5f96f5146102745780630e89341c1461029657806314a0629a146102c3578063156e29f6146102f057806315bcf9b7146103105780631a3cd59a14610330578063248a9ca31461042f5780632693ebf21461044f5780632a55205a1461047f5780632eb2c2d6146104be5780632f2ff15d146104de578063340fd1df146104fe57806336568abe146105115780633740ebb31461053157806337611796146105695780633c93d8be146105995780634323e470146105b95780634e1273f4146105e85780634f558e7914610615578063510b5158146106355780636267fb45146106555780636696bf11146106755780636b20c454146106955780638f4e76b9146106b55780639010d07c146106f057806391d14854146107105780639201de5514610730578063a217fddf14610750578063a22cb46514610765578063a2779e3b14610785578063a42dce801461079a578063a5b22e87146107ba578063ca15c873146107da578063cfb51928146107fa578063d547741f1461081a578063d81d0a151461083a578063dce0b4e41461085a578063ddb2e23f14610875578063e716b4ff1461088b578063e80bc6e1146108ad578063e985e9c5146108dd578063f242432a146108fd578063f5298aca1461091d578063fdb330631461093d575b600080fd5b34801561021d57600080fd5b5061023161022c36600461389e565b61095f565b6040519081526020015b60405180910390f35b34801561025057600080fd5b5061026461025f366004613a5b565b6109f8565b604051901515815260200161023b565b34801561028057600080fd5b5061029461028f3660046135ae565b610a1d565b005b3480156102a257600080fd5b506102b66102b13660046139fb565b610d4f565b60405161023b9190613deb565b3480156102cf57600080fd5b506102316102de3660046139fb565b600c6020526000908152604090205481565b3480156102fc57600080fd5b5061026461030b3660046138ca565b610dd0565b34801561031c57600080fd5b5061029461032b366004613869565b610e97565b34801561033c57600080fd5b506103df61034b3660046139fb565b6040805160c081018252600080825260208201819052918101829052606081018290526080810182905260a0810191909152506000908152600b6020908152604091829020825160c08101845281546001600160a01b03168152600182015492810192909252600281015492820192909252600382015460608201526004820154608082015260059091015460a082015290565b60405161023b919081516001600160a01b031681526020808301519082015260408083015190820152606080830151908201526080808301519082015260a0918201519181019190915260c00190565b34801561043b57600080fd5b5061023161044a3660046139fb565b610f67565b34801561045b57600080fd5b5061023161046a3660046139fb565b6000908152600b602052604090206003015490565b34801561048b57600080fd5b5061049f61049a366004613a39565b610f7c565b604080516001600160a01b03909316835260208301919091520161023b565b3480156104ca57600080fd5b506102946104d93660046136df565b610ff4565b3480156104ea57600080fd5b506102946104f9366004613a14565b611040565b61023161050c3660046138ff565b611061565b34801561051d57600080fd5b5061029461052c366004613a14565b611175565b34801561053d57600080fd5b50600a54610551906001600160a01b031681565b6040516001600160a01b03909116815260200161023b565b34801561057557600080fd5b50610264610584366004613591565b600f6020526000908152604090205460ff1681565b3480156105a557600080fd5b506102b66105b43660046139fb565b6111f3565b3480156105c557600080fd5b506105d96105d4366004613a39565b611303565b60405161023b93929190613ccd565b3480156105f457600080fd5b50610608610603366004613954565b611481565b60405161023b9190613daa565b34801561062157600080fd5b506102646106303660046139fb565b6115aa565b34801561064157600080fd5b506105516106503660046139fb565b6115b5565b34801561066157600080fd5b50610294610670366004613ae5565b6115d0565b34801561068157600080fd5b506102b66106903660046139fb565b6116c2565b3480156106a157600080fd5b506102946106b03660046137f4565b6117ec565b3480156106c157600080fd5b506102646106d0366004613a14565b601060209081526000928352604080842090915290825290205460ff1681565b3480156106fc57600080fd5b5061055161070b366004613a39565b6118ec565b34801561071c57600080fd5b5061026461072b366004613a14565b61190b565b34801561073c57600080fd5b506102b661074b3660046139fb565b611936565b34801561075c57600080fd5b50610231600081565b34801561077157600080fd5b50610294610780366004613869565b611a65565b34801561079157600080fd5b50610231600a81565b3480156107a657600080fd5b506102946107b5366004613591565b611a70565b3480156107c657600080fd5b506102946107d53660046139b7565b611b31565b3480156107e657600080fd5b506102316107f53660046139fb565b611c3e565b34801561080657600080fd5b50610231610815366004613a95565b611c55565b34801561082657600080fd5b50610294610835366004613a14565b611c72565b34801561084657600080fd5b506102646108553660046137f4565b611c8e565b34801561086657600080fd5b50610231662386f26fc1000081565b34801561088157600080fd5b5061023160095481565b34801561089757600080fd5b506108a0611e2d565b60405161023b9190613d35565b3480156108b957600080fd5b506102646108c8366004613591565b600e6020526000908152604090205460ff1681565b3480156108e957600080fd5b506102646108f83660046136a6565b611e69565b34801561090957600080fd5b5061029461091836600461378c565b611ec0565b34801561092957600080fd5b506102946109383660046138ca565b611f05565b34801561094957600080fd5b50610952611f91565b60405161023b9190613d66565b60006001600160a01b0383166109cf5760405162461bcd60e51b815260206004820152602a60248201527f455243313135353a2061646472657373207a65726f206973206e6f742061207660448201526930b634b21037bbb732b960b11b60648201526084015b60405180910390fd5b506000818152602081815260408083206001600160a01b03861684529091529020545b92915050565b600063152a902d60e11b6001600160e01b0319831614806109f257506109f282612082565b8383600a82511115610a685760405162461bcd60e51b815260206004820152601460248201527314d413125517d31253525517d15610d15151115160621b60448201526064016109c6565b8051825114610ab05760405162461bcd60e51b81526020600482015260146024820152730929cac82989288be929ca0aaa8be988a9c8ea8960631b60448201526064016109c6565b80516000805b82811015610afe576000848281518110610ad257610ad261435b565b602002602001015190508083610ae89190614215565b9250508080610af6906142f4565b915050610ab6565b50806103e814610b485760405162461bcd60e51b81526020600482015260156024820152741253959053125117d513d5105317d4115490d15395605a1b60448201526064016109c6565b856000610b54826115b5565b90506001600160a01b0381163314610b7e5760405162461bcd60e51b81526004016109c690613f51565b86611388811115610ba15760405162461bcd60e51b81526004016109c69061404d565b6001600160a01b038c16610bc75760405162461bcd60e51b81526004016109c690613e95565b60008c905060008c905060008c905060008c905060008c90506000600b60008481526020019081526020016000209050858160000160006101000a8154816001600160a01b0302191690836001600160a01b031602179055508181600501819055506000600d6000858152602001908152602001600020905060008551905080826000018190555060005b81811015610ce7576000878281518110610c6e57610c6e61435b565b602002602001015190506000898381518110610c8c57610c8c61435b565b60209081029190910181015160008581526002880183526040808220959095556001880190925292902080546001600160a01b0319166001600160a01b03909316929092179091555080610cdf816142f4565b915050610c52565b50876001600160a01b0316336001600160a01b03167f0235fbab14cf3258497fd345ee6986f921a89b9475b06811f0617af6ff32238487878b8b604051610d319493929190614181565b60405180910390a35050505050505050505050505050505050505050565b6060610d5a826120a7565b610d9b5760405162461bcd60e51b81526020600482015260126024820152712727a72fa2ac24a9aa22a72a2faa27a5a2a760711b60448201526064016109c6565b6000610da6836111f3565b905080604051602001610db99190613b8a565b604051602081830303815290604052915050919050565b600082815260106020908152604080832033845290915281205460ff16610e095760405162461bcd60e51b81526004016109c690614158565b6000838152600b6020526040902060048101546003820154610e2c908590614215565b1115610e4a5760405162461bcd60e51b81526004016109c69061412c565b82816003016000828254610e5e9190614215565b92505081905550610e8c8585856040518060400160405280600381526020016203078360ec1b8152506120be565b506001949350505050565b610ea260003361190b565b610ebe5760405162461bcd60e51b81526004016109c69061407b565b6001600160a01b038216610f035760405162461bcd60e51b815260206004820152600c60248201526b5a45524f5f4144445245535360a01b60448201526064016109c6565b6001600160a01b0382166000818152600e602052604090819020805460ff1916841515179055517f497d1799a068d52587e2c92131b971faa22ba31099f30bab68d1cc2b875ff29190610f5b90841515815260200190565b60405180910390a25050565b60009081526003602052604090206001015490565b6000828152600b60209081526040808320815160c08101835281546001600160a01b031680825260018301549482019490945260028201549281019290925260038101546060830152600481015460808301526005015460a08201819052839290610fe8908690612195565b92509250509250929050565b6001600160a01b03851633148061101057506110108533611e69565b61102c5760405162461bcd60e51b81526004016109c690613dfe565b61103985858585856121ae565b5050505050565b61104982610f67565b61105281612346565b61105c8383612353565b505050565b6000828261106f8282612375565b856113888111156110925760405162461bcd60e51b81526004016109c69061404d565b600654600854869190818314806110a857508083145b1561110f57336000908152600f602052604090205460ff168061110d5760405162461bcd60e51b815260206004820152601d60248201527f4f6e6c7920506879736963616c2063726561746f7220616c6c6f77656400000060448201526064016109c6565b505b662386f26fc1000034146111545760405162461bcd60e51b815260206004820152600c60248201526b11915157d393d517d4d1539560a21b60448201526064016109c6565b6111638e8e8e8e8e8e8e612495565b9e9d5050505050505050505050505050565b6001600160a01b03811633146111e55760405162461bcd60e51b815260206004820152602f60248201527f416363657373436f6e74726f6c3a2063616e206f6e6c792072656e6f756e636560448201526e103937b632b9903337b91039b2b63360891b60648201526084016109c6565b6111ef82826126c4565b5050565b6060816112175750506040805180820190915260018152600360fc1b602082015290565b8160005b811561123a578061122b816142f4565b915050600482901c915061121b565b600f6000826001600160401b0381111561125657611256614371565b6040519080825280601f01601f191660200182016040528015611280576020820181803683370190505b509050825b86156112f957868316600981116112a9576112a1816030614215565b60f81b6112b8565b6112b4816037614215565b60f81b5b836112c2846142b1565b935083815181106112d5576112d561435b565b60200101906001600160f81b031916908160001a905350600488901c975050611285565b5095945050505050565b6000828152600d60205260408120805460609283929091806001600160401b0381111561133257611332614371565b60405190808252806020026020018201604052801561135b578160200160208202803683370190505b509450806001600160401b0381111561137657611376614371565b60405190808252806020026020018201604052801561139f578160200160208202803683370190505b50935060005b818110156114585760008181526001840160205260409020546001600160a01b03161561144657600081815260018401602052604090205486516001600160a01b03909116908790839081106113fd576113fd61435b565b6001600160a01b03909216602092830291909101820152600082815260028501909152604090205485518690839081106114395761143961435b565b6020026020010181815250505b80611450816142f4565b9150506113a5565b506000878152600b6020526040902060050154611476908790612195565b925050509250925092565b606081518351146114e65760405162461bcd60e51b815260206004820152602960248201527f455243313135353a206163636f756e747320616e6420696473206c656e677468604482015268040dad2e6dac2e8c6d60bb1b60648201526084016109c6565b600083516001600160401b0381111561150157611501614371565b60405190808252806020026020018201604052801561152a578160200160208202803683370190505b50905060005b84518110156115a25761157585828151811061154e5761154e61435b565b60200260200101518583815181106115685761156861435b565b602002602001015161095f565b8282815181106115875761158761435b565b602090810291909101015261159b816142f4565b9050611530565b509392505050565b60006109f2826120a7565b6000908152600b60205260409020546001600160a01b031690565b8260006115dc826115b5565b90506001600160a01b03811633146116065760405162461bcd60e51b81526004016109c690613f51565b60008581526010602090815260408083206001600160a01b038816845290915290205460ff1680151584151514156116505760405162461bcd60e51b81526004016109c690613f2c565b60008681526010602090815260408083206001600160a01b03891680855290835292819020805460ff191688151590811790915581518a81529283015233917f91a49c77c548e88badc5293608990c6571cf717474188a4b397f745e93965361910160405180910390a3505050505050565b6005546060908290600090815b81811015611719576000600582815481106116ec576116ec61435b565b906000526020600020015490508481141561170657600193505b5080611711816142f4565b9150506116cf565b5081156117645760405162461bcd60e51b81526020600482015260196024820152784e4f4e5f435245415445445f43415445474f52595f4f4e4c5960381b60448201526064016109c6565b600580546001810182556000919091527f036b6384b5eca791c62761152d0c79bb0604c104a5fb6f4eb0703f3154bb3db0018590556117a285611936565b9350337ff9ba893e58aabb92f6fa12057751478bf8aba043973b99a97ad19bfb4ad59fdc6117cf87611936565b6040516117dc9190613deb565b60405180910390a2505050919050565b6001600160a01b03831633148061180857506118088333611e69565b6118245760405162461bcd60e51b81526004016109c690613ebe565b61182f8383836126e6565b60005b82518110156118e6576000600b60008584815181106118535761185361435b565b60200260200101518152602001908152602001600020905082828151811061187d5761187d61435b565b6020026020010151816003016000828254611898919061426e565b925050819055508282815181106118b1576118b161435b565b60200260200101518160040160008282546118cc919061426e565b909155508291506118de9050816142f4565b915050611832565b50505050565b60008281526004602052604081206119049083612870565b9392505050565b60009182526003602090815260408084206001600160a01b0393909316845291905290205460ff1690565b606060005b60208160ff1610801561196f5750828160ff166020811061195e5761195e61435b565b1a60f81b6001600160f81b03191615155b15611986578061197e8161430f565b91505061193b565b60008160ff166001600160401b038111156119a3576119a3614371565b6040519080825280601f01601f1916602001820160405280156119cd576020820181803683370190505b509050600091505b60208260ff16108015611a095750838260ff16602081106119f8576119f861435b565b1a60f81b6001600160f81b03191615155b1561190457838260ff1660208110611a2357611a2361435b565b1a60f81b818360ff1681518110611a3c57611a3c61435b565b60200101906001600160f81b031916908160001a90535081611a5d8161430f565b9250506119d5565b6111ef33838361287c565b611a7b60003361190b565b611a975760405162461bcd60e51b81526004016109c69061407b565b6001600160a01b038116611abd5760405162461bcd60e51b81526004016109c690613e95565b600a546001600160a01b03908116908216811415611b0e5760405162461bcd60e51b815260206004820152600e60248201526d414c52454144595f45584953545360901b60448201526064016109c6565b50600a80546001600160a01b0319166001600160a01b0392909216919091179055565b611b3c60003361190b565b611b585760405162461bcd60e51b81526004016109c69061407b565b815160005b818110156118e6576000848281518110611b7957611b7961435b565b6020908102919091018101516001600160a01b0381166000908152600f90925260409091205490915060ff168015158515151415611bc95760405162461bcd60e51b81526004016109c690613f2c565b6001600160a01b0382166000818152600f602052604090819020805460ff1916881515179055517ffecb4de4435a691c3b0e444e48b940c6967872e0f076cb838bd306e20067959590611c2190881515815260200190565b60405180910390a250508080611c36906142f4565b915050611b5d565b60008181526004602052604081206109f29061295d565b80516000908290611c695750600092915050565b50506020015190565b611c7b82610f67565b611c8481612346565b61105c83836126c4565b81518151600091908114611cda5760405162461bcd60e51b815260206004820152601360248201527208aa4a4be82a4a482b2be9a92a6a69a82a8869606b1b60448201526064016109c6565b60005b81811015611e05576000600b6000878481518110611cfd57611cfd61435b565b6020026020010151815260200190815260200160002090508060040154858381518110611d2c57611d2c61435b565b60200260200101518260030154611d439190614215565b1115611d615760405162461bcd60e51b81526004016109c69061412c565b6000868381518110611d7557611d7561435b565b6020908102919091018101516000818152601083526040808220338352909352919091205490915060ff16611dbc5760405162461bcd60e51b81526004016109c690614158565b858381518110611dce57611dce61435b565b6020026020010151826003016000828254611de99190614215565b9250508190555050508080611dfd906142f4565b915050611cdd565b50610e8c8585856040518060400160405280600381526020016203078360ec1b815250612967565b611e356133f7565b6040805160608101918290529060069060039082845b815481526020019060010190808311611e4b575b5050505050905090565b6001600160a01b0381166000908152600e602052604081205460ff1615611e92575060016109f2565b6001600160a01b0380841660009081526001602090815260408083209386168352929052205460ff16611904565b6001600160a01b038516331480611edc5750611edc8533611e69565b611ef85760405162461bcd60e51b81526004016109c690613dfe565b6110398585858585612aaf565b6001600160a01b038316331480611f215750611f218333611e69565b611f3d5760405162461bcd60e51b81526004016109c690613ebe565b611f48838383612bd5565b6000828152600b6020526040812060038101805491928492611f6b90849061426e565b9250508190555081816004016000828254611f86919061426e565b909155505050505050565b60606005805480602002602001604051908101604052809291908181526020018280548015611e5f5760200282019190600052602060002090815481526020019060010190808311611e4b575050505050905090565b611ff1828261190b565b6111ef5760008281526003602090815260408083206001600160a01b03851684529091529020805460ff191660011790556120293390565b6001600160a01b0316816001600160a01b0316837f2f8788117e7eff1d82e926ec794901d17c78024a50270940304540a733656f0d60405160405180910390a45050565b6000611904836001600160a01b038416612cdb565b60006001600160e01b03198216635a05180f60e01b14806109f257506109f282612d2a565b6000908152600b6020526040902060010154151590565b6001600160a01b0384166120e45760405162461bcd60e51b81526004016109c6906140eb565b3360006120f085612d4f565b905060006120fd85612d4f565b905061210e83600089858589612d9a565b6000868152602081815260408083206001600160a01b038b1684529091528120805487929061213e908490614215565b909155505060408051878152602081018790526001600160a01b03808a169260009291871691600080516020614478833981519152910160405180910390a461218c83600089898989612d9f565b50505050505050565b60006127106121a4838561424f565b611904919061422d565b81518351146121cf5760405162461bcd60e51b81526004016109c6906140a3565b6001600160a01b0384166121f55760405162461bcd60e51b81526004016109c690613f7b565b33612204818787878787612d9a565b60005b84518110156122ea5760008582815181106122245761222461435b565b6020026020010151905060008583815181106122425761224261435b565b602090810291909101810151600084815280835260408082206001600160a01b038e1683529093529190912054909150818110156122925760405162461bcd60e51b81526004016109c690614003565b6000838152602081815260408083206001600160a01b038e8116855292528083208585039055908b168252812080548492906122cf908490614215565b92505081905550505050806122e3906142f4565b9050612207565b50846001600160a01b0316866001600160a01b0316826001600160a01b03166000805160206144588339815191528787604051612328929190613dbd565b60405180910390a461233e818787878787612f11565b505050505050565b6123508133612fe2565b50565b61235d8282611fe7565b600082815260046020526040902061105c908261206d565b6000805b60038110156123bb576000600682600381106123975761239761435b565b01549050838114156123a857600192505b50806123b3816142f4565b915050612379565b50806123fd5760405162461bcd60e51b81526020600482015260116024820152704f4e4c595f56414c49445f4e415455524560781b60448201526064016109c6565b600554600090815b8181101561244f576000600582815481106124225761242261435b565b906000526020600020015490508681141561243c57600193505b5080612447816142f4565b915050612405565b50816110395760405162461bcd60e51b81526020600482015260156024820152744f4e4c595f435245415445445f43415445474f525960581b60448201526064016109c6565b6000878686868686838511156124da5760405162461bcd60e51b815260206004820152600a60248201526929aaa828262cafa2a92960b11b60448201526064016109c6565b60008d8152600b6020526040902080546001600160a01b0316156125345760405162461bcd60e51b815260206004820152601160248201527049445f414c52454144595f45584953545360781b60448201526064016109c6565b80546001600160a01b03191633178155600281018390556001810182905560058101849055600481018590558d600061256b613046565b6000818152600c60209081526040808320869055858352601082528083203384529091529020805460ff19166001179055905087156125d4578783600301819055506125d489838a6040518060400160405280600381526020016203078360ec1b8152506120be565b600a546040516000916001600160a01b03169034908381818185875af1925050503d8060008114612621576040519150601f19603f3d011682016040523d82523d6000602084013e612626565b606091505b505090508061266a5760405162461bcd60e51b815260206004820152601060248201526f2322a2afaa2920a729a322a92fa2a92960811b60448201526064016109c6565b604080518a8152602081018a905290810184905233907fb2587064376299b4179fa79d23a3827f5ea86bf7f24e8be539aa8d812eca636f9060600160405180910390a2509098505050505050505050979650505050505050565b6126ce8282613064565b600082815260046020526040902061105c90826130cb565b6001600160a01b03831661270c5760405162461bcd60e51b81526004016109c690613fc0565b805182511461272d5760405162461bcd60e51b81526004016109c6906140a3565b600033905061275081856000868660405180602001604052806000815250612d9a565b60005b83518110156128155760008482815181106127705761277061435b565b60200260200101519050600084838151811061278e5761278e61435b565b602090810291909101810151600084815280835260408082206001600160a01b038c1683529093529190912054909150818110156127de5760405162461bcd60e51b81526004016109c690613ee8565b6000928352602083815260408085206001600160a01b038b168652909152909220910390558061280d816142f4565b915050612753565b5060006001600160a01b0316846001600160a01b0316826001600160a01b03166000805160206144588339815191528686604051612854929190613dbd565b60405180910390a46040805160208101909152600090526118e6565b600061190483836130e0565b816001600160a01b0316836001600160a01b031614156128f05760405162461bcd60e51b815260206004820152602960248201527f455243313135353a2073657474696e6720617070726f76616c20737461747573604482015268103337b91039b2b63360b91b60648201526084016109c6565b6001600160a01b03838116600081815260016020908152604080832094871680845294825291829020805460ff191686151590811790915591519182527f17307eab39ab6107e8899845ad3d59bd9653f200f220920489ca2b5937696c31910160405180910390a3505050565b60006109f2825490565b6001600160a01b03841661298d5760405162461bcd60e51b81526004016109c6906140eb565b81518351146129ae5760405162461bcd60e51b81526004016109c6906140a3565b336129be81600087878787612d9a565b60005b8451811015612a59578381815181106129dc576129dc61435b565b60200260200101516000808784815181106129f9576129f961435b565b602002602001015181526020019081526020016000206000886001600160a01b03166001600160a01b031681526020019081526020016000206000828254612a419190614215565b90915550819050612a51816142f4565b9150506129c1565b50846001600160a01b031660006001600160a01b0316826001600160a01b03166000805160206144588339815191528787604051612a98929190613dbd565b60405180910390a461103981600087878787612f11565b6001600160a01b038416612ad55760405162461bcd60e51b81526004016109c690613f7b565b336000612ae185612d4f565b90506000612aee85612d4f565b9050612afe838989858589612d9a565b6000868152602081815260408083206001600160a01b038c16845290915290205485811015612b3f5760405162461bcd60e51b81526004016109c690614003565b6000878152602081815260408083206001600160a01b038d8116855292528083208985039055908a16825281208054889290612b7c908490614215565b909155505060408051888152602081018890526001600160a01b03808b16928c82169291881691600080516020614478833981519152910160405180910390a4612bca848a8a8a8a8a612d9f565b505050505050505050565b6001600160a01b038316612bfb5760405162461bcd60e51b81526004016109c690613fc0565b336000612c0784612d4f565b90506000612c1484612d4f565b9050612c3483876000858560405180602001604052806000815250612d9a565b6000858152602081815260408083206001600160a01b038a16845290915290205484811015612c755760405162461bcd60e51b81526004016109c690613ee8565b6000868152602081815260408083206001600160a01b038b81168086529184528285208a8703905582518b81529384018a9052909290881691600080516020614478833981519152910160405180910390a460408051602081019091526000905261218c565b6000818152600183016020526040812054612d22575081546001818101845560008481526020808220909301849055845484825282860190935260409020919091556109f2565b5060006109f2565b60006001600160e01b03198216637965db0b60e01b14806109f257506109f28261310a565b60408051600180825281830190925260609160009190602080830190803683370190505090508281600081518110612d8957612d8961435b565b602090810291909101015292915050565b61233e565b612db1846001600160a01b031661315a565b1561233e5760405163f23a6e6160e01b81526001600160a01b0385169063f23a6e6190612dea9089908990889088908890600401613c88565b602060405180830381600087803b158015612e0457600080fd5b505af1925050508015612e34575060408051601f3d908101601f19168201909252612e3191810190613a78565b60015b612ee157612e40614387565b806308c379a01415612e7a5750612e556143a3565b80612e605750612e7c565b8060405162461bcd60e51b81526004016109c69190613deb565b505b60405162461bcd60e51b815260206004820152603460248201527f455243313135353a207472616e7366657220746f206e6f6e20455243313135356044820152732932b1b2b4bb32b91034b6b83632b6b2b73a32b960611b60648201526084016109c6565b6001600160e01b0319811663f23a6e6160e01b1461218c5760405162461bcd60e51b81526004016109c690613e4d565b612f23846001600160a01b031661315a565b1561233e5760405163bc197c8160e01b81526001600160a01b0385169063bc197c8190612f5c9089908990889088908890600401613c2a565b602060405180830381600087803b158015612f7657600080fd5b505af1925050508015612fa6575060408051601f3d908101601f19168201909252612fa391810190613a78565b60015b612fb257612e40614387565b6001600160e01b0319811663bc197c8160e01b1461218c5760405162461bcd60e51b81526004016109c690613e4d565b612fec828261190b565b6111ef57613004816001600160a01b03166014613169565b61300f836020613169565b604051602001613020929190613bbb565b60408051601f198184030181529082905262461bcd60e51b82526109c691600401613deb565b6009805460009182613057836142f4565b9190505550600954905090565b61306e828261190b565b156111ef5760008281526003602090815260408083206001600160a01b0385168085529252808320805460ff1916905551339285917ff6391f5c32d9c69d2a47ea670b442974b53935d1edc7fd64eb21e047a839171b9190a45050565b6000611904836001600160a01b038416613304565b60008260000182815481106130f7576130f761435b565b9060005260206000200154905092915050565b60006001600160e01b03198216636cdb3d1360e11b148061313b57506001600160e01b031982166303a24d0760e21b145b806109f257506301ffc9a760e01b6001600160e01b03198316146109f2565b6001600160a01b03163b151590565b6060600061317883600261424f565b613183906002614215565b6001600160401b0381111561319a5761319a614371565b6040519080825280601f01601f1916602001820160405280156131c4576020820181803683370190505b509050600360fc1b816000815181106131df576131df61435b565b60200101906001600160f81b031916908160001a905350600f60fb1b8160018151811061320e5761320e61435b565b60200101906001600160f81b031916908160001a905350600061323284600261424f565b61323d906001614215565b90505b60018111156132b5576f181899199a1a9b1b9c1cb0b131b232b360811b85600f16601081106132715761327161435b565b1a60f81b8282815181106132875761328761435b565b60200101906001600160f81b031916908160001a90535060049490941c936132ae816142b1565b9050613240565b5083156119045760405162461bcd60e51b815260206004820181905260248201527f537472696e67733a20686578206c656e67746820696e73756666696369656e7460448201526064016109c6565b600081815260018301602052604081205480156133ed57600061332860018361426e565b855490915060009061333c9060019061426e565b90508181146133a157600086600001828154811061335c5761335c61435b565b906000526020600020015490508087600001848154811061337f5761337f61435b565b6000918252602080832090910192909255918252600188019052604090208390555b85548690806133b2576133b2614345565b6001900381819060005260206000200160009055905585600101600086815260200190815260200160002060009055600193505050506109f2565b60009150506109f2565b60405180606001604052806003906020820280368337509192915050565b60006001600160401b0383111561342e5761342e614371565b604051613445601f8501601f1916602001826142c8565b80915083815284848401111561345a57600080fd5b83836020830137600060208583010152509392505050565b600082601f83011261348357600080fd5b81356020613490826141f2565b60405161349d82826142c8565b8381528281019150858301600585901b870184018810156134bd57600080fd5b60005b858110156134e55781356134d38161442c565b845292840192908401906001016134c0565b5090979650505050505050565b600082601f83011261350357600080fd5b81356020613510826141f2565b60405161351d82826142c8565b8381528281019150858301600585901b8701840188101561353d57600080fd5b60005b858110156134e557813584529284019290840190600101613540565b8035801515811461356c57600080fd5b919050565b600082601f83011261358257600080fd5b61190483833560208501613415565b6000602082840312156135a357600080fd5b81356119048161442c565b600080600080600060a086880312156135c657600080fd5b85356135d18161442c565b94506020868101356001600160401b03808211156135ee57600080fd5b818901915089601f83011261360257600080fd5b813561360d816141f2565b60405161361a82826142c8565b8281528581019150848601600584901b860187018e101561363a57600080fd5b600095505b838610156136665780356136528161442c565b83526001959095019491860191860161363f565b5098505050604089013592508083111561367f57600080fd5b505061368d888289016134f2565b9598949750949560608101359550608001359392505050565b600080604083850312156136b957600080fd5b82356136c48161442c565b915060208301356136d48161442c565b809150509250929050565b600080600080600060a086880312156136f757600080fd5b85356137028161442c565b945060208601356137128161442c565b935060408601356001600160401b038082111561372e57600080fd5b61373a89838a016134f2565b9450606088013591508082111561375057600080fd5b61375c89838a016134f2565b9350608088013591508082111561377257600080fd5b5061377f88828901613571565b9150509295509295909350565b600080600080600060a086880312156137a457600080fd5b85356137af8161442c565b945060208601356137bf8161442c565b9350604086013592506060860135915060808601356001600160401b038111156137e857600080fd5b61377f88828901613571565b60008060006060848603121561380957600080fd5b83356138148161442c565b925060208401356001600160401b038082111561383057600080fd5b61383c878388016134f2565b9350604086013591508082111561385257600080fd5b5061385f868287016134f2565b9150509250925092565b6000806040838503121561387c57600080fd5b82356138878161442c565b91506138956020840161355c565b90509250929050565b600080604083850312156138b157600080fd5b82356138bc8161442c565b946020939093013593505050565b6000806000606084860312156138df57600080fd5b83356138ea8161442c565b95602085013595506040909401359392505050565b600080600080600080600060e0888a03121561391a57600080fd5b87356139258161442c565b9960208901359950604089013598606081013598506080810135975060a0810135965060c00135945092505050565b6000806040838503121561396757600080fd5b82356001600160401b038082111561397e57600080fd5b61398a86838701613472565b935060208501359150808211156139a057600080fd5b506139ad858286016134f2565b9150509250929050565b600080604083850312156139ca57600080fd5b82356001600160401b038111156139e057600080fd5b6139ec85828601613472565b9250506138956020840161355c565b600060208284031215613a0d57600080fd5b5035919050565b60008060408385031215613a2757600080fd5b8235915060208301356136d48161442c565b60008060408385031215613a4c57600080fd5b50508035926020909101359150565b600060208284031215613a6d57600080fd5b813561190481614441565b600060208284031215613a8a57600080fd5b815161190481614441565b600060208284031215613aa757600080fd5b81356001600160401b03811115613abd57600080fd5b8201601f81018413613ace57600080fd5b613add84823560208401613415565b949350505050565b600080600060608486031215613afa57600080fd5b833592506020840135613b0c8161442c565b9150613b1a6040850161355c565b90509250925092565b600081518084526020808501945080840160005b83811015613b5357815187529582019590820190600101613b37565b509495945050505050565b60008151808452613b76816020860160208601614285565b601f01601f19169290920160200192915050565b680697066733a2f2f66360bc1b815260008251613bae816009850160208701614285565b9190910160090192915050565b76020b1b1b2b9b9a1b7b73a3937b61d1030b1b1b7bab73a1604d1b815260008351613bed816017850160208801614285565b7001034b99036b4b9b9b4b733903937b6329607d1b6017918401918201528351613c1e816028840160208801614285565b01602801949350505050565b6001600160a01b0386811682528516602082015260a060408201819052600090613c5690830186613b23565b8281036060840152613c688186613b23565b90508281036080840152613c7c8185613b5e565b98975050505050505050565b6001600160a01b03868116825285166020820152604081018490526060810183905260a060808201819052600090613cc290830184613b5e565b979650505050505050565b606080825284519082018190526000906020906080840190828801845b82811015613d0f5781516001600160a01b031684529284019290840190600101613cea565b50505083810382850152613d238187613b23565b92505050826040830152949350505050565b60608101818360005b6003811015613d5d578151835260209283019290910190600101613d3e565b50505092915050565b6020808252825182820181905260009190848201906040850190845b81811015613d9e57835183529284019291840191600101613d82565b50909695505050505050565b6020815260006119046020830184613b23565b604081526000613dd06040830185613b23565b8281036020840152613de28185613b23565b95945050505050565b6020815260006119046020830184613b5e565b6020808252602f908201527f455243313135353a2063616c6c6572206973206e6f7420746f6b656e206f776e60408201526e195c881b9bdc88185c1c1c9bdd9959608a1b606082015260800190565b60208082526028908201527f455243313135353a204552433131353552656365697665722072656a656374656040820152676420746f6b656e7360c01b606082015260800190565b6020808252600f908201526e494e56414c49445f4144445245535360881b604082015260600190565b60208082526010908201526f11549497d393d517d054141493d5915160821b604082015260600190565b60208082526024908201527f455243313135353a206275726e20616d6f756e7420657863656564732062616c604082015263616e636560e01b606082015260800190565b6020808252600b908201526a1053149150511657d4d15560aa1b604082015260600190565b60208082526010908201526f22a9292fa7a7262cafa1a922a0aa27a960811b604082015260600190565b60208082526025908201527f455243313135353a207472616e7366657220746f20746865207a65726f206164604082015264647265737360d81b606082015260800190565b60208082526023908201527f455243313135353a206275726e2066726f6d20746865207a65726f206164647260408201526265737360e81b606082015260800190565b6020808252602a908201527f455243313135353a20696e73756666696369656e742062616c616e636520666f60408201526939103a3930b739b332b960b11b606082015260800190565b60208082526014908201527313505617d493d65053151657d15610d15151115160621b604082015260600190565b6020808252600e908201526d4552525f41444d494e5f4f4e4c5960901b604082015260600190565b60208082526028908201527f455243313135353a2069647320616e6420616d6f756e7473206c656e677468206040820152670dad2e6dac2e8c6d60c31b606082015260800190565b60208082526021908201527f455243313135353a206d696e7420746f20746865207a65726f206164647265736040820152607360f81b606082015260800190565b60208082526012908201527113505617d4d55414131657d4915050d2115160721b604082015260600190565b6020808252600f908201526e22a9292fa7a7262cafa6a4a72a22a960891b604082015260600190565b600060808201868352602086818501526080604085015281865180845260a086019150828801935060005b818110156141d15784516001600160a01b0316835293830193918301916001016141ac565b505084810360608601526141e58187613b23565b9998505050505050505050565b60006001600160401b0382111561420b5761420b614371565b5060051b60200190565b600082198211156142285761422861432f565b500190565b60008261424a57634e487b7160e01b600052601260045260246000fd5b500490565b60008160001904831182151516156142695761426961432f565b500290565b6000828210156142805761428061432f565b500390565b60005b838110156142a0578181015183820152602001614288565b838111156118e65750506000910152565b6000816142c0576142c061432f565b506000190190565b601f8201601f191681016001600160401b03811182821017156142ed576142ed614371565b6040525050565b60006000198214156143085761430861432f565b5060010190565b600060ff821660ff8114156143265761432661432f565b60010192915050565b634e487b7160e01b600052601160045260246000fd5b634e487b7160e01b600052603160045260246000fd5b634e487b7160e01b600052603260045260246000fd5b634e487b7160e01b600052604160045260246000fd5b600060033d11156143a05760046000803e5060005160e01c5b90565b600060443d10156143b15790565b6040516003193d81016004833e81513d6001600160401b0380831160248401831017156143e057505050505090565b82850191508151818111156143f85750505050505090565b843d87010160208285010111156144125750505050505090565b614421602082860101876142c8565b509095945050505050565b6001600160a01b038116811461235057600080fd5b6001600160e01b03198116811461235057600080fdfe4a39dc06d4c0dbc64b70af90fd698a233a518aa5d07e595d983b8c0526c8f7fbc3d58168c5ae7397731d063d5bbf3d657854427343f4c083240f7aacaa2d0f62a164736f6c6343000806000a",
  "linkReferences": {},
  "deployedLinkReferences": {}
}