{
  "_format": "hh-sol-artifact-1",
  "contractName": "RC3_Creators",
  "sourceName": "contracts/RC3_Creators.sol",
  "abi": [
    {
      "inputs": [
        {
          "internalType": "address",
          "name": "defaultAdmin",
          "type": "address"
        },
        {
          "internalType": "string",
          "name": "_uri",
          "type": "string"
        }
      ],
      "stateMutability": "nonpayable",
      "type": "constructor"
    },
    {
      "anonymous": false,
      "inputs": [
        {
          "indexed": true,
          "internalType": "address",
          "name": "account",
          "type": "address"
        },
        {
          "indexed": true,
          "internalType": "address",
          "name": "operator",
          "type": "address"
        },
        {
          "indexed": false,
          "internalType": "bool",
          "name": "approved",
          "type": "bool"
        }
      ],
      "name": "ApprovalForAll",
      "type": "event"
    },
    {
      "anonymous": false,
      "inputs": [
        {
          "indexed": true,
          "internalType": "address",
          "name": "market",
          "type": "address"
        },
        {
          "indexed": false,
          "internalType": "bool",
          "name": "isMarket",
          "type": "bool"
        }
      ],
      "name": "MarketUpdated",
      "type": "event"
    },
    {
      "anonymous": false,
      "inputs": [
        {
          "indexed": true,
          "internalType": "address",
          "name": "caller",
          "type": "address"
        },
        {
          "indexed": false,
          "internalType": "uint256",
          "name": "id",
          "type": "uint256"
        },
        {
          "indexed": true,
          "internalType": "address",
          "name": "minter",
          "type": "address"
        },
        {
          "indexed": false,
          "internalType": "bool",
          "name": "canMint",
          "type": "bool"
        }
      ],
      "name": "MinterSet",
      "type": "event"
    },
    {
      "anonymous": false,
      "inputs": [
        {
          "indexed": true,
          "internalType": "address",
          "name": "creator",
          "type": "address"
        },
        {
          "indexed": false,
          "internalType": "string",
          "name": "category",
          "type": "string"
        }
      ],
      "name": "NewCategory",
      "type": "event"
    },
    {
      "anonymous": false,
      "inputs": [
        {
          "indexed": true,
          "internalType": "address",
          "name": "creator",
          "type": "address"
        },
        {
          "indexed": false,
          "internalType": "uint256",
          "name": "initialSupply",
          "type": "uint256"
        },
        {
          "indexed": false,
          "internalType": "uint256",
          "name": "maxSupply",
          "type": "uint256"
        },
        {
          "indexed": false,
          "internalType": "uint256",
          "name": "id",
          "type": "uint256"
        }
      ],
      "name": "NewToken",
      "type": "event"
    },
    {
      "anonymous": false,
      "inputs": [
        {
          "indexed": true,
          "internalType": "address",
          "name": "addr",
          "type": "address"
        },
        {
          "indexed": false,
          "internalType": "bool",
          "name": "canCreatePhysical",
          "type": "bool"
        }
      ],
      "name": "PhysicalCreatorSet",
      "type": "event"
    },
    {
      "anonymous": false,
      "inputs": [
        {
          "indexed": true,
          "internalType": "bytes32",
          "name": "role",
          "type": "bytes32"
        },
        {
          "indexed": true,
          "internalType": "bytes32",
          "name": "previousAdminRole",
          "type": "bytes32"
        },
        {
          "indexed": true,
          "internalType": "bytes32",
          "name": "newAdminRole",
          "type": "bytes32"
        }
      ],
      "name": "RoleAdminChanged",
      "type": "event"
    },
    {
      "anonymous": false,
      "inputs": [
        {
          "indexed": true,
          "internalType": "bytes32",
          "name": "role",
          "type": "bytes32"
        },
        {
          "indexed": true,
          "internalType": "address",
          "name": "account",
          "type": "address"
        },
        {
          "indexed": true,
          "internalType": "address",
          "name": "sender",
          "type": "address"
        }
      ],
      "name": "RoleGranted",
      "type": "event"
    },
    {
      "anonymous": false,
      "inputs": [
        {
          "indexed": true,
          "internalType": "bytes32",
          "name": "role",
          "type": "bytes32"
        },
        {
          "indexed": true,
          "internalType": "address",
          "name": "account",
          "type": "address"
        },
        {
          "indexed": true,
          "internalType": "address",
          "name": "sender",
          "type": "address"
        }
      ],
      "name": "RoleRevoked",
      "type": "event"
    },
    {
      "anonymous": false,
      "inputs": [
        {
          "indexed": true,
          "internalType": "address",
          "name": "oldCreator",
          "type": "address"
        },
        {
          "indexed": true,
          "internalType": "address",
          "name": "newCreator",
          "type": "address"
        },
        {
          "indexed": false,
          "internalType": "uint256",
          "name": "id",
          "type": "uint256"
        },
        {
          "indexed": false,
          "internalType": "uint256",
          "name": "royalty",
          "type": "uint256"
        },
        {
          "indexed": false,
          "internalType": "address payable[]",
          "name": "recipients",
          "type": "address[]"
        },
        {
          "indexed": false,
          "internalType": "uint256[]",
          "name": "shares",
          "type": "uint256[]"
        }
      ],
      "name": "RoyaltyInfoUpdated",
      "type": "event"
    },
    {
      "anonymous": false,
      "inputs": [
        {
          "indexed": true,
          "internalType": "address",
          "name": "operator",
          "type": "address"
        },
        {
          "indexed": true,
          "internalType": "address",
          "name": "from",
          "type": "address"
        },
        {
          "indexed": true,
          "internalType": "address",
          "name": "to",
          "type": "address"
        },
        {
          "indexed": false,
          "internalType": "uint256[]",
          "name": "ids",
          "type": "uint256[]"
        },
        {
          "indexed": false,
          "internalType": "uint256[]",
          "name": "values",
          "type": "uint256[]"
        }
      ],
      "name": "TransferBatch",
      "type": "event"
    },
    {
      "anonymous": false,
      "inputs": [
        {
          "indexed": true,
          "internalType": "address",
          "name": "operator",
          "type": "address"
        },
        {
          "indexed": true,
          "internalType": "address",
          "name": "from",
          "type": "address"
        },
        {
          "indexed": true,
          "internalType": "address",
          "name": "to",
          "type": "address"
        },
        {
          "indexed": false,
          "internalType": "uint256",
          "name": "id",
          "type": "uint256"
        },
        {
          "indexed": false,
          "internalType": "uint256",
          "name": "value",
          "type": "uint256"
        }
      ],
      "name": "TransferSingle",
      "type": "event"
    },
    {
      "anonymous": false,
      "inputs": [
        {
          "indexed": false,
          "internalType": "string",
          "name": "value",
          "type": "string"
        },
        {
          "indexed": true,
          "internalType": "uint256",
          "name": "id",
          "type": "uint256"
        }
      ],
      "name": "URI",
      "type": "event"
    },
    {
      "inputs": [],
      "name": "DEFAULT_ADMIN_ROLE",
      "outputs": [
        {
          "internalType": "bytes32",
          "name": "",
          "type": "bytes32"
        }
      ],
      "stateMutability": "view",
      "type": "function"
    },
    {
      "inputs": [
        {
          "internalType": "address",
          "name": "account",
          "type": "address"
        },
        {
          "internalType": "uint256",
          "name": "id",
          "type": "uint256"
        }
      ],
      "name": "balanceOf",
      "outputs": [
        {
          "internalType": "uint256",
          "name": "",
          "type": "uint256"
        }
      ],
      "stateMutability": "view",
      "type": "function"
    },
    {
      "inputs": [
        {
          "internalType": "address[]",
          "name": "accounts",
          "type": "address[]"
        },
        {
          "internalType": "uint256[]",
          "name": "ids",
          "type": "uint256[]"
        }
      ],
      "name": "balanceOfBatch",
      "outputs": [
        {
          "internalType": "uint256[]",
          "name": "",
          "type": "uint256[]"
        }
      ],
      "stateMutability": "view",
      "type": "function"
    },
    {
      "inputs": [
        {
          "internalType": "address",
          "name": "from",
          "type": "address"
        },
        {
          "internalType": "uint256",
          "name": "id",
          "type": "uint256"
        },
        {
          "internalType": "uint256",
          "name": "amount",
          "type": "uint256"
        }
      ],
      "name": "burn",
      "outputs": [],
      "stateMutability": "nonpayable",
      "type": "function"
    },
    {
      "inputs": [
        {
          "internalType": "address",
          "name": "from",
          "type": "address"
        },
        {
          "internalType": "uint256[]",
          "name": "ids",
          "type": "uint256[]"
        },
        {
          "internalType": "uint256[]",
          "name": "amounts",
          "type": "uint256[]"
        }
      ],
      "name": "burnBatch",
      "outputs": [],
      "stateMutability": "nonpayable",
      "type": "function"
    },
    {
      "inputs": [
        {
          "internalType": "bytes32",
          "name": "_bytes32",
          "type": "bytes32"
        }
      ],
      "name": "bytes32ToString",
      "outputs": [
        {
          "internalType": "string",
          "name": "result",
          "type": "string"
        }
      ],
      "stateMutability": "pure",
      "type": "function"
    },
    {
      "inputs": [
        {
          "internalType": "address",
          "name": "",
          "type": "address"
        }
      ],
      "name": "canCreatePhysical",
      "outputs": [
        {
          "internalType": "bool",
          "name": "",
          "type": "bool"
        }
      ],
      "stateMutability": "view",
      "type": "function"
    },
    {
      "inputs": [
        {
          "internalType": "uint256",
          "name": "",
          "type": "uint256"
        },
        {
          "internalType": "address",
          "name": "",
          "type": "address"
        }
      ],
      "name": "canMint",
      "outputs": [
        {
          "internalType": "bool",
          "name": "",
          "type": "bool"
        }
      ],
      "stateMutability": "view",
      "type": "function"
    },
    {
      "inputs": [
        {
          "internalType": "uint256",
          "name": "",
          "type": "uint256"
        }
      ],
      "name": "categories",
      "outputs": [
        {
          "internalType": "bytes32",
          "name": "",
          "type": "bytes32"
        }
      ],
      "stateMutability": "view",
      "type": "function"
    },
    {
      "inputs": [
        {
          "internalType": "bytes32",
          "name": "category",
          "type": "bytes32"
        }
      ],
      "name": "createCategory",
      "outputs": [
        {
          "internalType": "string",
          "name": "category_",
          "type": "string"
        }
      ],
      "stateMutability": "nonpayable",
      "type": "function"
    },
    {
      "inputs": [
        {
          "internalType": "address",
          "name": "_initialHodler",
          "type": "address"
        },
        {
          "internalType": "uint256",
          "name": "_initialSupply",
          "type": "uint256"
        },
        {
          "internalType": "uint256",
          "name": "_maxSupply",
          "type": "uint256"
        },
        {
          "internalType": "uint256",
          "name": "royalty",
          "type": "uint256"
        },
        {
          "internalType": "bytes32",
          "name": "category",
          "type": "bytes32"
        },
        {
          "internalType": "bytes32",
          "name": "nature",
          "type": "bytes32"
        },
        {
          "internalType": "string",
          "name": "_uri",
          "type": "string"
        }
      ],
      "name": "createToken",
      "outputs": [
        {
          "internalType": "uint256",
          "name": "tokenId",
          "type": "uint256"
        }
      ],
      "stateMutability": "payable",
      "type": "function"
    },
    {
      "inputs": [],
      "name": "creationFee",
      "outputs": [
        {
          "internalType": "uint256",
          "name": "",
          "type": "uint256"
        }
      ],
      "stateMutability": "view",
      "type": "function"
    },
    {
      "inputs": [
        {
          "internalType": "uint256",
          "name": "_id",
          "type": "uint256"
        }
      ],
      "name": "creator",
      "outputs": [
        {
          "internalType": "address",
          "name": "creator_",
          "type": "address"
        }
      ],
      "stateMutability": "view",
      "type": "function"
    },
    {
      "inputs": [
        {
          "internalType": "uint256",
          "name": "_id",
          "type": "uint256"
        }
      ],
      "name": "exists",
      "outputs": [
        {
          "internalType": "bool",
          "name": "",
          "type": "bool"
        }
      ],
      "stateMutability": "view",
      "type": "function"
    },
    {
      "inputs": [],
      "name": "feeReceipient",
      "outputs": [
        {
          "internalType": "address payable",
          "name": "",
          "type": "address"
        }
      ],
      "stateMutability": "view",
      "type": "function"
    },
    {
      "inputs": [
        {
          "internalType": "uint256",
          "name": "_id",
          "type": "uint256"
        }
      ],
      "name": "getInfo",
      "outputs": [
        {
          "components": [
            {
              "internalType": "address payable",
              "name": "creator",
              "type": "address"
            },
            {
              "internalType": "bytes32",
              "name": "nature",
              "type": "bytes32"
            },
            {
              "internalType": "bytes32",
              "name": "category",
              "type": "bytes32"
            },
            {
              "internalType": "uint256",
              "name": "tokenSupply",
              "type": "uint256"
            },
            {
              "internalType": "uint256",
              "name": "maxSupply",
              "type": "uint256"
            },
            {
              "internalType": "uint256",
              "name": "royalty",
              "type": "uint256"
            },
            {
              "internalType": "string",
              "name": "customUri",
              "type": "string"
            }
          ],
          "internalType": "struct RC3_Creators.Info",
          "name": "info",
          "type": "tuple"
        }
      ],
      "stateMutability": "view",
      "type": "function"
    },
    {
      "inputs": [
        {
          "internalType": "bytes32",
          "name": "role",
          "type": "bytes32"
        }
      ],
      "name": "getRoleAdmin",
      "outputs": [
        {
          "internalType": "bytes32",
          "name": "",
          "type": "bytes32"
        }
      ],
      "stateMutability": "view",
      "type": "function"
    },
    {
      "inputs": [
        {
          "internalType": "bytes32",
          "name": "role",
          "type": "bytes32"
        },
        {
          "internalType": "uint256",
          "name": "index",
          "type": "uint256"
        }
      ],
      "name": "getRoleMember",
      "outputs": [
        {
          "internalType": "address",
          "name": "",
          "type": "address"
        }
      ],
      "stateMutability": "view",
      "type": "function"
    },
    {
      "inputs": [
        {
          "internalType": "bytes32",
          "name": "role",
          "type": "bytes32"
        }
      ],
      "name": "getRoleMemberCount",
      "outputs": [
        {
          "internalType": "uint256",
          "name": "",
          "type": "uint256"
        }
      ],
      "stateMutability": "view",
      "type": "function"
    },
    {
      "inputs": [
        {
          "internalType": "bytes32",
          "name": "role",
          "type": "bytes32"
        },
        {
          "internalType": "address",
          "name": "account",
          "type": "address"
        }
      ],
      "name": "grantRole",
      "outputs": [],
      "stateMutability": "nonpayable",
      "type": "function"
    },
    {
      "inputs": [
        {
          "internalType": "bytes32",
          "name": "role",
          "type": "bytes32"
        },
        {
          "internalType": "address",
          "name": "account",
          "type": "address"
        }
      ],
      "name": "hasRole",
      "outputs": [
        {
          "internalType": "bool",
          "name": "",
          "type": "bool"
        }
      ],
      "stateMutability": "view",
      "type": "function"
    },
    {
      "inputs": [
        {
          "internalType": "address",
          "name": "_owner",
          "type": "address"
        },
        {
          "internalType": "address",
          "name": "_operator",
          "type": "address"
        }
      ],
      "name": "isApprovedForAll",
      "outputs": [
        {
          "internalType": "bool",
          "name": "isOperator",
          "type": "bool"
        }
      ],
      "stateMutability": "view",
      "type": "function"
    },
    {
      "inputs": [
        {
          "internalType": "address",
          "name": "",
          "type": "address"
        }
      ],
      "name": "isWhitelistedMarket",
      "outputs": [
        {
          "internalType": "bool",
          "name": "",
          "type": "bool"
        }
      ],
      "stateMutability": "view",
      "type": "function"
    },
    {
      "inputs": [
        {
          "internalType": "address",
          "name": "to",
          "type": "address"
        },
        {
          "internalType": "uint256",
          "name": "id",
          "type": "uint256"
        },
        {
          "internalType": "uint256",
          "name": "amount",
          "type": "uint256"
        }
      ],
      "name": "mint",
      "outputs": [
        {
          "internalType": "bool",
          "name": "success",
          "type": "bool"
        }
      ],
      "stateMutability": "nonpayable",
      "type": "function"
    },
    {
      "inputs": [
        {
          "internalType": "address",
          "name": "to",
          "type": "address"
        },
        {
          "internalType": "uint256[]",
          "name": "ids",
          "type": "uint256[]"
        },
        {
          "internalType": "uint256[]",
          "name": "amounts",
          "type": "uint256[]"
        }
      ],
      "name": "mintBatch",
      "outputs": [
        {
          "internalType": "bool",
          "name": "success",
          "type": "bool"
        }
      ],
      "stateMutability": "nonpayable",
      "type": "function"
    },
    {
      "inputs": [
        {
          "internalType": "uint256",
          "name": "",
          "type": "uint256"
        }
      ],
      "name": "natures",
      "outputs": [
        {
          "internalType": "bytes32",
          "name": "",
          "type": "bytes32"
        }
      ],
      "stateMutability": "view",
      "type": "function"
    },
    {
      "inputs": [
        {
          "internalType": "bytes32",
          "name": "role",
          "type": "bytes32"
        },
        {
          "internalType": "address",
          "name": "account",
          "type": "address"
        }
      ],
      "name": "renounceRole",
      "outputs": [],
      "stateMutability": "nonpayable",
      "type": "function"
    },
    {
      "inputs": [
        {
          "internalType": "bytes32",
          "name": "role",
          "type": "bytes32"
        },
        {
          "internalType": "address",
          "name": "account",
          "type": "address"
        }
      ],
      "name": "revokeRole",
      "outputs": [],
      "stateMutability": "nonpayable",
      "type": "function"
    },
    {
      "inputs": [
        {
          "internalType": "uint256",
          "name": "_tokenId",
          "type": "uint256"
        },
        {
          "internalType": "uint256",
          "name": "_salePrice",
          "type": "uint256"
        }
      ],
      "name": "royaltyInfo",
      "outputs": [
        {
          "internalType": "address",
          "name": "",
          "type": "address"
        },
        {
          "internalType": "uint256",
          "name": "",
          "type": "uint256"
        }
      ],
      "stateMutability": "view",
      "type": "function"
    },
    {
      "inputs": [
        {
          "internalType": "address",
          "name": "from",
          "type": "address"
        },
        {
          "internalType": "address",
          "name": "to",
          "type": "address"
        },
        {
          "internalType": "uint256[]",
          "name": "ids",
          "type": "uint256[]"
        },
        {
          "internalType": "uint256[]",
          "name": "amounts",
          "type": "uint256[]"
        },
        {
          "internalType": "bytes",
          "name": "data",
          "type": "bytes"
        }
      ],
      "name": "safeBatchTransferFrom",
      "outputs": [],
      "stateMutability": "nonpayable",
      "type": "function"
    },
    {
      "inputs": [
        {
          "internalType": "address",
          "name": "from",
          "type": "address"
        },
        {
          "internalType": "address",
          "name": "to",
          "type": "address"
        },
        {
          "internalType": "uint256",
          "name": "id",
          "type": "uint256"
        },
        {
          "internalType": "uint256",
          "name": "amount",
          "type": "uint256"
        },
        {
          "internalType": "bytes",
          "name": "data",
          "type": "bytes"
        }
      ],
      "name": "safeTransferFrom",
      "outputs": [],
      "stateMutability": "nonpayable",
      "type": "function"
    },
    {
      "inputs": [
        {
          "internalType": "address",
          "name": "operator",
          "type": "address"
        },
        {
          "internalType": "bool",
          "name": "approved",
          "type": "bool"
        }
      ],
      "name": "setApprovalForAll",
      "outputs": [],
      "stateMutability": "nonpayable",
      "type": "function"
    },
    {
      "inputs": [
        {
          "internalType": "uint256",
          "name": "id",
          "type": "uint256"
        },
        {
          "internalType": "string",
          "name": "newURI",
          "type": "string"
        }
      ],
      "name": "setCustomURI",
      "outputs": [],
      "stateMutability": "nonpayable",
      "type": "function"
    },
    {
      "inputs": [
        {
          "internalType": "address payable",
          "name": "_newFeeReceipient",
          "type": "address"
        }
      ],
      "name": "setFeeCollector",
      "outputs": [],
      "stateMutability": "nonpayable",
      "type": "function"
    },
    {
      "inputs": [
        {
          "internalType": "address",
          "name": "market",
          "type": "address"
        },
        {
          "internalType": "bool",
          "name": "isMarket",
          "type": "bool"
        }
      ],
      "name": "setMarket",
      "outputs": [],
      "stateMutability": "nonpayable",
      "type": "function"
    },
    {
      "inputs": [
        {
          "internalType": "uint256",
          "name": "id",
          "type": "uint256"
        },
        {
          "internalType": "address",
          "name": "minter",
          "type": "address"
        },
        {
          "internalType": "bool",
          "name": "_canMint",
          "type": "bool"
        }
      ],
      "name": "setMinter",
      "outputs": [],
      "stateMutability": "nonpayable",
      "type": "function"
    },
    {
      "inputs": [
        {
          "internalType": "address[]",
          "name": "creators",
          "type": "address[]"
        },
        {
          "internalType": "bool",
          "name": "_canCreatePhysical",
          "type": "bool"
        }
      ],
      "name": "setPhysicalCreator",
      "outputs": [],
      "stateMutability": "nonpayable",
      "type": "function"
    },
    {
      "inputs": [
        {
          "internalType": "address payable",
          "name": "creator_",
          "type": "address"
        },
        {
          "internalType": "address payable[]",
          "name": "recipients",
          "type": "address[]"
        },
        {
          "internalType": "uint256[]",
          "name": "shares",
          "type": "uint256[]"
        },
        {
          "internalType": "uint256",
          "name": "id",
          "type": "uint256"
        },
        {
          "internalType": "uint256",
          "name": "royalty",
          "type": "uint256"
        }
      ],
      "name": "setRoyaltyInfo",
      "outputs": [],
      "stateMutability": "nonpayable",
      "type": "function"
    },
    {
      "inputs": [
        {
          "internalType": "string",
          "name": "_newURI",
          "type": "string"
        }
      ],
      "name": "setURI",
      "outputs": [],
      "stateMutability": "nonpayable",
      "type": "function"
    },
    {
      "inputs": [
        {
          "internalType": "uint256",
          "name": "_tokenId",
          "type": "uint256"
        },
        {
          "internalType": "uint256",
          "name": "_salePrice",
          "type": "uint256"
        }
      ],
      "name": "splitRoyaltyInfo",
      "outputs": [
        {
          "internalType": "address[]",
          "name": "recipients",
          "type": "address[]"
        },
        {
          "internalType": "uint256[]",
          "name": "shares",
          "type": "uint256[]"
        },
        {
          "internalType": "uint256",
          "name": "salePrice",
          "type": "uint256"
        }
      ],
      "stateMutability": "view",
      "type": "function"
    },
    {
      "inputs": [],
      "name": "splitRoyaltyLimit",
      "outputs": [
        {
          "internalType": "uint256",
          "name": "",
          "type": "uint256"
        }
      ],
      "stateMutability": "view",
      "type": "function"
    },
    {
      "inputs": [
        {
          "internalType": "string",
          "name": "source",
          "type": "string"
        }
      ],
      "name": "stringToBytes32",
      "outputs": [
        {
          "internalType": "bytes32",
          "name": "result",
          "type": "bytes32"
        }
      ],
      "stateMutability": "pure",
      "type": "function"
    },
    {
      "inputs": [
        {
          "internalType": "bytes4",
          "name": "interfaceId",
          "type": "bytes4"
        }
      ],
      "name": "supportsInterface",
      "outputs": [
        {
          "internalType": "bool",
          "name": "",
          "type": "bool"
        }
      ],
      "stateMutability": "view",
      "type": "function"
    },
    {
      "inputs": [
        {
          "internalType": "uint256",
          "name": "_id",
          "type": "uint256"
        }
      ],
      "name": "tokenSupply",
      "outputs": [
        {
          "internalType": "uint256",
          "name": "tokenSupply_",
          "type": "uint256"
        }
      ],
      "stateMutability": "view",
      "type": "function"
    },
    {
      "inputs": [
        {
          "internalType": "uint256",
          "name": "id",
          "type": "uint256"
        }
      ],
      "name": "uri",
      "outputs": [
        {
          "internalType": "string",
          "name": "",
          "type": "string"
        }
      ],
      "stateMutability": "view",
      "type": "function"
    }
  ],
  "bytecode": "0x60806040523480156200001157600080fd5b5060405162004cf638038062004cf68339810160408190526200003491620003e6565b806200004081620001a4565b506200004e600083620001bd565b60056200007c6040518060400160405280600381526020016210549560ea1b815250620001c960201b60201c565b815460018101835560009283526020928390200155604080518082019091526005808252644d5553494360d81b92820192909252620000bb90620001c9565b8154600181018355600092835260209283902001556040805180820190915260078152662320a9a424a7a760c91b91810191909152600590620000fe90620001c9565b81546001810183556000928352602092839020015560408051808201909152600881526714121654d250d05360c21b918101919091526200013f90620001c9565b600655604080518082019091526007815266111251d255105360ca1b60208201526200016b90620001c9565b60075560408051808201909152600881526714121651d255105360c21b60208201526200019890620001c9565b60085550620005399050565b8051620001b990600290602084019062000340565b5050565b620001b98282620001e7565b80516000908290620001de5750600092915050565b50506020015190565b620001fe82826200022a60201b620021cf1760201c565b60008281526004602090815260409091206200022591839062002255620002ce821b17901c565b505050565b60008281526003602090815260408083206001600160a01b038516845290915290205460ff16620001b95760008281526003602090815260408083206001600160a01b03851684529091529020805460ff191660011790556200028a3390565b6001600160a01b0316816001600160a01b0316837f2f8788117e7eff1d82e926ec794901d17c78024a50270940304540a733656f0d60405160405180910390a45050565b6000620002e5836001600160a01b038416620002ee565b90505b92915050565b60008181526001830160205260408120546200033757508154600181810184556000848152602080822090930184905584548482528286019093526040902091909155620002e8565b506000620002e8565b8280546200034e90620004e6565b90600052602060002090601f016020900481019282620003725760008555620003bd565b82601f106200038d57805160ff1916838001178555620003bd565b82800160010185558215620003bd579182015b82811115620003bd578251825591602001919060010190620003a0565b50620003cb929150620003cf565b5090565b5b80821115620003cb5760008155600101620003d0565b60008060408385031215620003fa57600080fd5b82516001600160a01b03811681146200041257600080fd5b602084810151919350906001600160401b03808211156200043257600080fd5b818601915086601f8301126200044757600080fd5b8151818111156200045c576200045c62000523565b604051601f8201601f19908116603f0116810190838211818310171562000487576200048762000523565b816040528281528986848701011115620004a057600080fd5b600093505b82841015620004c45784840186015181850187015292850192620004a5565b82841115620004d65760008684830101525b8096505050505050509250929050565b600181811c90821680620004fb57607f821691505b602082108114156200051d57634e487b7160e01b600052602260045260246000fd5b50919050565b634e487b7160e01b600052604160045260246000fd5b6147ad80620005496000396000f3fe6080604052600436106102015760003560e01c8062fdd58e1461020657806301ffc9a71461023957806302fe5305146102695780630d5f96f51461028b5780630e89341c146102ab578063156e29f6146102d857806315bcf9b7146102f85780631a3cd59a14610318578063248a9ca3146103455780632693ebf2146103655780632a55205a146103955780632eb2c2d6146103d45780632f2ff15d146103f457806336568abe146104145780633740ebb314610434578063376117961461046c5780633adf80b41461049c5780634323e470146104bc5780634e1273f4146104eb5780634f558e7914610518578063510b5158146105385780636267fb45146105585780636696bf11146105785780636b20c454146105985780638f4e76b9146105b85780639010d07c146105f357806391d14854146106135780639201de5514610633578063a217fddf14610653578063a22cb46514610668578063a2779e3b14610688578063a42dce801461069d578063a5b22e87146106bd578063b318de49146106dd578063c6cdbe5e146106fd578063ca15c8731461071d578063cfb519281461073d578063d547741f1461075d578063d81d0a151461077d578063dce0b4e41461079d578063e80bc6e1146107b8578063e985e9c5146107e8578063f242432a14610808578063f5298aca14610828578063f8df740614610848575b600080fd5b34801561021257600080fd5b50610226610221366004613b97565b61085b565b6040519081526020015b60405180910390f35b34801561024557600080fd5b50610259610254366004613d7e565b6108f5565b6040519015158152602001610230565b34801561027557600080fd5b50610289610284366004613db8565b61091a565b005b34801561029757600080fd5b506102896102a63660046138a7565b61094d565b3480156102b757600080fd5b506102cb6102c6366004613d1e565b610c7f565b6040516102309190614088565b3480156102e457600080fd5b506102596102f3366004613bc3565b610e1c565b34801561030457600080fd5b50610289610313366004613b62565b610ee3565b34801561032457600080fd5b50610338610333366004613d1e565b610fb3565b60405161023091906143cf565b34801561035157600080fd5b50610226610360366004613d1e565b611100565b34801561037157600080fd5b50610226610380366004613d1e565b6000908152600b602052604090206003015490565b3480156103a157600080fd5b506103b56103b0366004613d5c565b611115565b604080516001600160a01b039093168352602083019190915201610230565b3480156103e057600080fd5b506102896103ef3660046139d8565b611231565b34801561040057600080fd5b5061028961040f366004613d37565b6112c8565b34801561042057600080fd5b5061028961042f366004613d37565b6112e9565b34801561044057600080fd5b50600a54610454906001600160a01b031681565b6040516001600160a01b039091168152602001610230565b34801561047857600080fd5b5061025961048736600461388a565b600e6020526000908152604090205460ff1681565b3480156104a857600080fd5b506102896104b7366004613e2a565b611367565b3480156104c857600080fd5b506104dc6104d7366004613d5c565b6113ef565b60405161023093929190613fdf565b3480156104f757600080fd5b5061050b610506366004613c77565b61156d565b6040516102309190614047565b34801561052457600080fd5b50610259610533366004613d1e565b611696565b34801561054457600080fd5b50610454610553366004613d1e565b6116a1565b34801561056457600080fd5b50610289610573366004613dec565b6116bc565b34801561058457600080fd5b506102cb610593366004613d1e565b6117ae565b3480156105a457600080fd5b506102896105b3366004613aed565b6118d8565b3480156105c457600080fd5b506102596105d3366004613d37565b600f60209081526000928352604080842090915290825290205460ff1681565b3480156105ff57600080fd5b5061045461060e366004613d5c565b6119d8565b34801561061f57600080fd5b5061025961062e366004613d37565b6119f7565b34801561063f57600080fd5b506102cb61064e366004613d1e565b611a22565b34801561065f57600080fd5b50610226600081565b34801561067457600080fd5b50610289610683366004613b62565b611b51565b34801561069457600080fd5b50610226600a81565b3480156106a957600080fd5b506102896106b836600461388a565b611b5c565b3480156106c957600080fd5b506102896106d8366004613cda565b611c1d565b3480156106e957600080fd5b506102266106f8366004613d1e565b611d2a565b34801561070957600080fd5b50610226610718366004613d1e565b611d41565b34801561072957600080fd5b50610226610738366004613d1e565b611d62565b34801561074957600080fd5b50610226610758366004613db8565b611d79565b34801561076957600080fd5b50610289610778366004613d37565b611d96565b34801561078957600080fd5b50610259610798366004613aed565b611db2565b3480156107a957600080fd5b50610226662386f26fc1000081565b3480156107c457600080fd5b506102596107d336600461388a565b600d6020526000908152604090205460ff1681565b3480156107f457600080fd5b5061025961080336600461399f565b611f51565b34801561081457600080fd5b50610289610823366004613a85565b611fa8565b34801561083457600080fd5b50610289610843366004613bc3565b61202f565b610226610856366004613bf8565b6120bb565b60006001600160a01b0383166108cc5760405162461bcd60e51b815260206004820152602b60248201527f455243313135353a2062616c616e636520717565727920666f7220746865207a60448201526a65726f206164647265737360a81b60648201526084015b60405180910390fd5b506000818152602081815260408083206001600160a01b03861684529091529020545b92915050565b600063152a902d60e11b6001600160e01b0319831614806108ef57506108ef8261226a565b6109256000336119f7565b6109415760405162461bcd60e51b81526004016108c3906142c9565b61094a8161228f565b50565b8383600a825111156109985760405162461bcd60e51b815260206004820152601460248201527314d413125517d31253525517d15610d15151115160621b60448201526064016108c3565b80518251146109e05760405162461bcd60e51b81526020600482015260146024820152730929cac82989288be929ca0aaa8be988a9c8ea8960631b60448201526064016108c3565b80516000805b82811015610a2e576000848281518110610a0257610a02614644565b602002602001015190508083610a1891906144c3565b9250508080610a26906145dd565b9150506109e6565b50806103e814610a785760405162461bcd60e51b81526020600482015260156024820152741253959053125117d513d5105317d4115490d15395605a1b60448201526064016108c3565b856000610a84826116a1565b90506001600160a01b0381163314610aae5760405162461bcd60e51b81526004016108c39061419f565b86611388811115610ad15760405162461bcd60e51b81526004016108c39061429b565b6001600160a01b038c16610af75760405162461bcd60e51b81526004016108c3906140e3565b60008c905060008c905060008c905060008c905060008c90506000600b60008481526020019081526020016000209050858160000160006101000a8154816001600160a01b0302191690836001600160a01b031602179055508181600501819055506000600c6000858152602001908152602001600020905060008551905080826000018190555060005b81811015610c17576000878281518110610b9e57610b9e614644565b602002602001015190506000898381518110610bbc57610bbc614644565b60209081029190910181015160008581526002880183526040808220959095556001880190925292902080546001600160a01b0319166001600160a01b03909316929092179091555080610c0f816145dd565b915050610b82565b50876001600160a01b0316336001600160a01b03167f0235fbab14cf3258497fd345ee6986f921a89b9475b06811f0617af6ff32238487878b8b604051610c61949392919061442f565b60405180910390a35050505050505050505050505050505050505050565b6060610c8a826122a2565b610ccb5760405162461bcd60e51b81526020600482015260126024820152712727a72fa2ac24a9aa22a72a2faa27a5a2a760711b60448201526064016108c3565b6000828152600b60205260408120600681018054919291610ceb90614576565b80601f0160208091040260200160405190810160405280929190818152602001828054610d1790614576565b8015610d645780601f10610d3957610100808354040283529160200191610d64565b820191906000526020600020905b815481529060010190602001808311610d4757829003601f168201915b50505050509050600081511115610e0b57816006018054610d8490614576565b80601f0160208091040260200160405190810160405280929190818152602001828054610db090614576565b8015610dfd5780601f10610dd257610100808354040283529160200191610dfd565b820191906000526020600020905b815481529060010190602001808311610de057829003601f168201915b505050505092505050919050565b610e14846122b9565b949350505050565b6000828152600f6020908152604080832033845290915281205460ff16610e555760405162461bcd60e51b81526004016108c3906143a6565b6000838152600b6020526040902060048101546003820154610e789085906144c3565b1115610e965760405162461bcd60e51b81526004016108c39061437a565b82816003016000828254610eaa91906144c3565b92505081905550610ed88585856040518060400160405280600381526020016203078360ec1b81525061234d565b506001949350505050565b610eee6000336119f7565b610f0a5760405162461bcd60e51b81526004016108c3906142c9565b6001600160a01b038216610f4f5760405162461bcd60e51b815260206004820152600c60248201526b5a45524f5f4144445245535360a01b60448201526064016108c3565b6001600160a01b0382166000818152600d602052604090819020805460ff1916841515179055517f497d1799a068d52587e2c92131b971faa22ba31099f30bab68d1cc2b875ff29190610fa790841515815260200190565b60405180910390a25050565b6110026040518060e0016040528060006001600160a01b031681526020016000801916815260200160008019168152602001600081526020016000815260200160008152602001606081525090565b6000828152600b6020908152604091829020825160e08101845281546001600160a01b031681526001820154928101929092526002810154928201929092526003820154606082015260048201546080820152600582015460a082015260068201805491929160c08401919061107790614576565b80601f01602080910402602001604051908101604052809291908181526020018280546110a390614576565b80156110f05780601f106110c5576101008083540402835291602001916110f0565b820191906000526020600020905b8154815290600101906020018083116110d357829003601f168201915b5050505050815250509050919050565b60009081526003602052604090206001015490565b6000828152600b60209081526040808320815160e08101835281546001600160a01b031681526001820154938101939093526002810154918301919091526003810154606083015260048101546080830152600581015460a0830152600681018054849384939092909160c08401919061118e90614576565b80601f01602080910402602001604051908101604052809291908181526020018280546111ba90614576565b80156112075780601f106111dc57610100808354040283529160200191611207565b820191906000526020600020905b8154815290600101906020018083116111ea57829003601f168201915b50505050508152505090508060000151611225858360a00151612424565b92509250509250929050565b6001600160a01b03851633148061124d575061124d8533611f51565b6112b45760405162461bcd60e51b815260206004820152603260248201527f455243313135353a207472616e736665722063616c6c6572206973206e6f74206044820152711bdddb995c881b9bdc88185c1c1c9bdd995960721b60648201526084016108c3565b6112c1858585858561243d565b5050505050565b6112d182611100565b6112da816125d5565b6112e483836125df565b505050565b6001600160a01b03811633146113595760405162461bcd60e51b815260206004820152602f60248201527f416363657373436f6e74726f6c3a2063616e206f6e6c792072656e6f756e636560448201526e103937b632b9903337b91039b2b63360891b60648201526084016108c3565b6113638282612601565b5050565b816000611373826116a1565b90506001600160a01b038116331461139d5760405162461bcd60e51b81526004016108c39061419f565b6000848152600b6020908152604090912084516113c29260069092019186019061367f565b5083600080516020614781833981519152846040516113e19190614088565b60405180910390a250505050565b6000828152600c60205260408120805460609283929091806001600160401b0381111561141e5761141e61465a565b604051908082528060200260200182016040528015611447578160200160208202803683370190505b509450806001600160401b038111156114625761146261465a565b60405190808252806020026020018201604052801561148b578160200160208202803683370190505b50935060005b818110156115445760008181526001840160205260409020546001600160a01b03161561153257600081815260018401602052604090205486516001600160a01b03909116908790839081106114e9576114e9614644565b6001600160a01b039092166020928302919091018201526000828152600285019091526040902054855186908390811061152557611525614644565b6020026020010181815250505b8061153c816145dd565b915050611491565b506000878152600b6020526040902060050154611562908790612424565b925050509250925092565b606081518351146115d25760405162461bcd60e51b815260206004820152602960248201527f455243313135353a206163636f756e747320616e6420696473206c656e677468604482015268040dad2e6dac2e8c6d60bb1b60648201526084016108c3565b600083516001600160401b038111156115ed576115ed61465a565b604051908082528060200260200182016040528015611616578160200160208202803683370190505b50905060005b845181101561168e5761166185828151811061163a5761163a614644565b602002602001015185838151811061165457611654614644565b602002602001015161085b565b82828151811061167357611673614644565b6020908102919091010152611687816145dd565b905061161c565b509392505050565b60006108ef826122a2565b6000908152600b60205260409020546001600160a01b031690565b8260006116c8826116a1565b90506001600160a01b03811633146116f25760405162461bcd60e51b81526004016108c39061419f565b6000858152600f602090815260408083206001600160a01b038816845290915290205460ff16801515841515141561173c5760405162461bcd60e51b81526004016108c39061417a565b6000868152600f602090815260408083206001600160a01b03891680855290835292819020805460ff191688151590811790915581518a81529283015233917f91a49c77c548e88badc5293608990c6571cf717474188a4b397f745e93965361910160405180910390a3505050505050565b6005546060908290600090815b81811015611805576000600582815481106117d8576117d8614644565b90600052602060002001549050848114156117f257600193505b50806117fd816145dd565b9150506117bb565b5081156118505760405162461bcd60e51b81526020600482015260196024820152784e4f4e5f435245415445445f43415445474f52595f4f4e4c5960381b60448201526064016108c3565b600580546001810182556000919091527f036b6384b5eca791c62761152d0c79bb0604c104a5fb6f4eb0703f3154bb3db00185905561188e85611a22565b9350337ff9ba893e58aabb92f6fa12057751478bf8aba043973b99a97ad19bfb4ad59fdc6118bb87611a22565b6040516118c89190614088565b60405180910390a2505050919050565b6001600160a01b0383163314806118f457506118f48333611f51565b6119105760405162461bcd60e51b81526004016108c39061410c565b61191b838383612623565b60005b82518110156119d2576000600b600085848151811061193f5761193f614644565b60200260200101518152602001908152602001600020905082828151811061196957611969614644565b6020026020010151816003016000828254611984919061451c565b9250508190555082828151811061199d5761199d614644565b60200260200101518160040160008282546119b8919061451c565b909155508291506119ca9050816145dd565b91505061191e565b50505050565b60008281526004602052604081206119f090836127ad565b9392505050565b60009182526003602090815260408084206001600160a01b0393909316845291905290205460ff1690565b606060005b60208160ff16108015611a5b5750828160ff1660208110611a4a57611a4a614644565b1a60f81b6001600160f81b03191615155b15611a725780611a6a816145f8565b915050611a27565b60008160ff166001600160401b03811115611a8f57611a8f61465a565b6040519080825280601f01601f191660200182016040528015611ab9576020820181803683370190505b509050600091505b60208260ff16108015611af55750838260ff1660208110611ae457611ae4614644565b1a60f81b6001600160f81b03191615155b156119f057838260ff1660208110611b0f57611b0f614644565b1a60f81b818360ff1681518110611b2857611b28614644565b60200101906001600160f81b031916908160001a90535081611b49816145f8565b925050611ac1565b6113633383836127b9565b611b676000336119f7565b611b835760405162461bcd60e51b81526004016108c3906142c9565b6001600160a01b038116611ba95760405162461bcd60e51b81526004016108c3906140e3565b600a546001600160a01b03908116908216811415611bfa5760405162461bcd60e51b815260206004820152600e60248201526d414c52454144595f45584953545360901b60448201526064016108c3565b50600a80546001600160a01b0319166001600160a01b0392909216919091179055565b611c286000336119f7565b611c445760405162461bcd60e51b81526004016108c3906142c9565b815160005b818110156119d2576000848281518110611c6557611c65614644565b6020908102919091018101516001600160a01b0381166000908152600e90925260409091205490915060ff168015158515151415611cb55760405162461bcd60e51b81526004016108c39061417a565b6001600160a01b0382166000818152600e602052604090819020805460ff1916881515179055517ffecb4de4435a691c3b0e444e48b940c6967872e0f076cb838bd306e20067959590611d0d90881515815260200190565b60405180910390a250508080611d22906145dd565b915050611c49565b60068160038110611d3a57600080fd5b0154905081565b60058181548110611d5157600080fd5b600091825260209091200154905081565b60008181526004602052604081206108ef9061289a565b80516000908290611d8d5750600092915050565b50506020015190565b611d9f82611100565b611da8816125d5565b6112e48383612601565b81518151600091908114611dfe5760405162461bcd60e51b815260206004820152601360248201527208aa4a4be82a4a482b2be9a92a6a69a82a8869606b1b60448201526064016108c3565b60005b81811015611f29576000600b6000878481518110611e2157611e21614644565b6020026020010151815260200190815260200160002090508060040154858381518110611e5057611e50614644565b60200260200101518260030154611e6791906144c3565b1115611e855760405162461bcd60e51b81526004016108c39061437a565b6000868381518110611e9957611e99614644565b6020908102919091018101516000818152600f83526040808220338352909352919091205490915060ff16611ee05760405162461bcd60e51b81526004016108c3906143a6565b858381518110611ef257611ef2614644565b6020026020010151826003016000828254611f0d91906144c3565b9250508190555050508080611f21906145dd565b915050611e01565b50610ed88585856040518060400160405280600381526020016203078360ec1b8152506128a4565b6001600160a01b0381166000908152600d602052604081205460ff1615611f7a575060016108ef565b6001600160a01b0380841660009081526001602090815260408083209386168352929052205460ff166119f0565b6001600160a01b038516331480611fc45750611fc48533611f51565b6120225760405162461bcd60e51b815260206004820152602960248201527f455243313135353a2063616c6c6572206973206e6f74206f776e6572206e6f7260448201526808185c1c1c9bdd995960ba1b60648201526084016108c3565b6112c185858585856129ec565b6001600160a01b03831633148061204b575061204b8333611f51565b6120675760405162461bcd60e51b81526004016108c39061410c565b612072838383612b12565b6000828152600b602052604081206003810180549192849261209590849061451c565b92505081905550818160040160008282546120b0919061451c565b909155505050505050565b600083836120c98282612c18565b866113888111156120ec5760405162461bcd60e51b81526004016108c39061429b565b6006546008548791908183148061210257508083145b1561216957336000908152600e602052604090205460ff16806121675760405162461bcd60e51b815260206004820152601d60248201527f4f6e6c7920506879736963616c2063726561746f7220616c6c6f77656400000060448201526064016108c3565b505b662386f26fc1000034146121ae5760405162461bcd60e51b815260206004820152600c60248201526b11915157d393d517d4d1539560a21b60448201526064016108c3565b6121bd8e8e8e8e8e8e8e612d38565b9e9d5050505050505050505050505050565b6121d982826119f7565b6113635760008281526003602090815260408083206001600160a01b03851684529091529020805460ff191660011790556122113390565b6001600160a01b0316816001600160a01b0316837f2f8788117e7eff1d82e926ec794901d17c78024a50270940304540a733656f0d60405160405180910390a45050565b60006119f0836001600160a01b038416612f63565b60006001600160e01b03198216635a05180f60e01b14806108ef57506108ef82612fb2565b805161136390600290602084019061367f565b6000908152600b6020526040902060030154151590565b6060600280546122c890614576565b80601f01602080910402602001604051908101604052809291908181526020018280546122f490614576565b80156123415780601f1061231657610100808354040283529160200191612341565b820191906000526020600020905b81548152906001019060200180831161232457829003601f168201915b50505050509050919050565b6001600160a01b0384166123735760405162461bcd60e51b81526004016108c390614339565b33600061237f85612fd7565b9050600061238c85612fd7565b905061239d83600089858589613022565b6000868152602081815260408083206001600160a01b038b168452909152812080548792906123cd9084906144c3565b909155505060408051878152602081018790526001600160a01b03808a169260009291871691600080516020614761833981519152910160405180910390a461241b83600089898989613027565b50505050505050565b600061271061243383856144fd565b6119f091906144db565b815183511461245e5760405162461bcd60e51b81526004016108c3906142f1565b6001600160a01b0384166124845760405162461bcd60e51b81526004016108c3906141c9565b33612493818787878787613022565b60005b84518110156125795760008582815181106124b3576124b3614644565b6020026020010151905060008583815181106124d1576124d1614644565b602090810291909101810151600084815280835260408082206001600160a01b038e1683529093529190912054909150818110156125215760405162461bcd60e51b81526004016108c390614251565b6000838152602081815260408083206001600160a01b038e8116855292528083208585039055908b1682528120805484929061255e9084906144c3565b9250508190555050505080612572906145dd565b9050612496565b50846001600160a01b0316866001600160a01b0316826001600160a01b031660008051602061474183398151915287876040516125b792919061405a565b60405180910390a46125cd818787878787613199565b505050505050565b61094a813361326a565b6125e982826121cf565b60008281526004602052604090206112e49082612255565b61260b82826132ce565b60008281526004602052604090206112e49082613335565b6001600160a01b0383166126495760405162461bcd60e51b81526004016108c39061420e565b805182511461266a5760405162461bcd60e51b81526004016108c3906142f1565b600033905061268d81856000868660405180602001604052806000815250613022565b60005b83518110156127525760008482815181106126ad576126ad614644565b6020026020010151905060008483815181106126cb576126cb614644565b602090810291909101810151600084815280835260408082206001600160a01b038c16835290935291909120549091508181101561271b5760405162461bcd60e51b81526004016108c390614136565b6000928352602083815260408085206001600160a01b038b168652909152909220910390558061274a816145dd565b915050612690565b5060006001600160a01b0316846001600160a01b0316826001600160a01b0316600080516020614741833981519152868660405161279192919061405a565b60405180910390a46040805160208101909152600090526119d2565b60006119f0838361334a565b816001600160a01b0316836001600160a01b0316141561282d5760405162461bcd60e51b815260206004820152602960248201527f455243313135353a2073657474696e6720617070726f76616c20737461747573604482015268103337b91039b2b63360b91b60648201526084016108c3565b6001600160a01b03838116600081815260016020908152604080832094871680845294825291829020805460ff191686151590811790915591519182527f17307eab39ab6107e8899845ad3d59bd9653f200f220920489ca2b5937696c31910160405180910390a3505050565b60006108ef825490565b6001600160a01b0384166128ca5760405162461bcd60e51b81526004016108c390614339565b81518351146128eb5760405162461bcd60e51b81526004016108c3906142f1565b336128fb81600087878787613022565b60005b84518110156129965783818151811061291957612919614644565b602002602001015160008087848151811061293657612936614644565b602002602001015181526020019081526020016000206000886001600160a01b03166001600160a01b03168152602001908152602001600020600082825461297e91906144c3565b9091555081905061298e816145dd565b9150506128fe565b50846001600160a01b031660006001600160a01b0316826001600160a01b031660008051602061474183398151915287876040516129d592919061405a565b60405180910390a46112c181600087878787613199565b6001600160a01b038416612a125760405162461bcd60e51b81526004016108c3906141c9565b336000612a1e85612fd7565b90506000612a2b85612fd7565b9050612a3b838989858589613022565b6000868152602081815260408083206001600160a01b038c16845290915290205485811015612a7c5760405162461bcd60e51b81526004016108c390614251565b6000878152602081815260408083206001600160a01b038d8116855292528083208985039055908a16825281208054889290612ab99084906144c3565b909155505060408051888152602081018890526001600160a01b03808b16928c82169291881691600080516020614761833981519152910160405180910390a4612b07848a8a8a8a8a613027565b505050505050505050565b6001600160a01b038316612b385760405162461bcd60e51b81526004016108c39061420e565b336000612b4484612fd7565b90506000612b5184612fd7565b9050612b7183876000858560405180602001604052806000815250613022565b6000858152602081815260408083206001600160a01b038a16845290915290205484811015612bb25760405162461bcd60e51b81526004016108c390614136565b6000868152602081815260408083206001600160a01b038b81168086529184528285208a8703905582518b81529384018a9052909290881691600080516020614761833981519152910160405180910390a460408051602081019091526000905261241b565b6000805b6003811015612c5e57600060068260038110612c3a57612c3a614644565b0154905083811415612c4b57600192505b5080612c56816145dd565b915050612c1c565b5080612ca05760405162461bcd60e51b81526020600482015260116024820152704f4e4c595f56414c49445f4e415455524560781b60448201526064016108c3565b600554600090815b81811015612cf257600060058281548110612cc557612cc5614644565b9060005260206000200154905086811415612cdf57600193505b5080612cea816145dd565b915050612ca8565b50816112c15760405162461bcd60e51b81526020600482015260156024820152744f4e4c595f435245415445445f43415445474f525960581b60448201526064016108c3565b60008787878785888884861115612d7e5760405162461bcd60e51b815260206004820152600a60248201526929aaa828262cafa2a92960b11b60448201526064016108c3565b6000612d88613374565b6000818152600f602090815260408083203384528252808320805460ff19166001179055838352600b9091529020909150612dc03390565b81546001600160a01b0319166001600160a01b0391909116178155600281018490556001810183905560058101869055600481018790558451829015612e3d578551612e15906006840190602089019061367f565b508060008051602061478183398151915287604051612e349190614088565b60405180910390a25b8815612e7357888260030181905550612e738a828b6040518060400160405280600381526020016203078360ec1b81525061234d565b600a546040516000916001600160a01b03169034908381818185875af1925050503d8060008114612ec0576040519150601f19603f3d011682016040523d82523d6000602084013e612ec5565b606091505b5050905080612f095760405162461bcd60e51b815260206004820152601060248201526f2322a2afaa2920a729a322a92fa2a92960811b60448201526064016108c3565b604080518b8152602081018b905290810183905233907fb2587064376299b4179fa79d23a3827f5ea86bf7f24e8be539aa8d812eca636f9060600160405180910390a2509950505050505050505050979650505050505050565b6000818152600183016020526040812054612faa575081546001818101845560008481526020808220909301849055845484825282860190935260409020919091556108ef565b5060006108ef565b60006001600160e01b03198216637965db0b60e01b14806108ef57506108ef82613392565b6040805160018082528183019092526060916000919060208083019080368337019050509050828160008151811061301157613011614644565b602090810291909101015292915050565b6125cd565b613039846001600160a01b03166133e2565b156125cd5760405163f23a6e6160e01b81526001600160a01b0385169063f23a6e61906130729089908990889088908890600401613f9a565b602060405180830381600087803b15801561308c57600080fd5b505af19250505080156130bc575060408051601f3d908101601f191682019092526130b991810190613d9b565b60015b613169576130c8614670565b806308c379a0141561310257506130dd61468c565b806130e85750613104565b8060405162461bcd60e51b81526004016108c39190614088565b505b60405162461bcd60e51b815260206004820152603460248201527f455243313135353a207472616e7366657220746f206e6f6e20455243313135356044820152732932b1b2b4bb32b91034b6b83632b6b2b73a32b960611b60648201526084016108c3565b6001600160e01b0319811663f23a6e6160e01b1461241b5760405162461bcd60e51b81526004016108c39061409b565b6131ab846001600160a01b03166133e2565b156125cd5760405163bc197c8160e01b81526001600160a01b0385169063bc197c81906131e49089908990889088908890600401613f3c565b602060405180830381600087803b1580156131fe57600080fd5b505af192505050801561322e575060408051601f3d908101601f1916820190925261322b91810190613d9b565b60015b61323a576130c8614670565b6001600160e01b0319811663bc197c8160e01b1461241b5760405162461bcd60e51b81526004016108c39061409b565b61327482826119f7565b6113635761328c816001600160a01b031660146133f1565b6132978360206133f1565b6040516020016132a8929190613ecd565b60408051601f198184030181529082905262461bcd60e51b82526108c391600401614088565b6132d882826119f7565b156113635760008281526003602090815260408083206001600160a01b0385168085529252808320805460ff1916905551339285917ff6391f5c32d9c69d2a47ea670b442974b53935d1edc7fd64eb21e047a839171b9190a45050565b60006119f0836001600160a01b03841661358c565b600082600001828154811061336157613361614644565b9060005260206000200154905092915050565b6009805460009182613385836145dd565b9190505550600954905090565b60006001600160e01b03198216636cdb3d1360e11b14806133c357506001600160e01b031982166303a24d0760e21b145b806108ef57506301ffc9a760e01b6001600160e01b03198316146108ef565b6001600160a01b03163b151590565b606060006134008360026144fd565b61340b9060026144c3565b6001600160401b038111156134225761342261465a565b6040519080825280601f01601f19166020018201604052801561344c576020820181803683370190505b509050600360fc1b8160008151811061346757613467614644565b60200101906001600160f81b031916908160001a905350600f60fb1b8160018151811061349657613496614644565b60200101906001600160f81b031916908160001a90535060006134ba8460026144fd565b6134c59060016144c3565b90505b600181111561353d576f181899199a1a9b1b9c1cb0b131b232b360811b85600f16601081106134f9576134f9614644565b1a60f81b82828151811061350f5761350f614644565b60200101906001600160f81b031916908160001a90535060049490941c936135368161455f565b90506134c8565b5083156119f05760405162461bcd60e51b815260206004820181905260248201527f537472696e67733a20686578206c656e67746820696e73756666696369656e7460448201526064016108c3565b600081815260018301602052604081205480156136755760006135b060018361451c565b85549091506000906135c49060019061451c565b90508181146136295760008660000182815481106135e4576135e4614644565b906000526020600020015490508087600001848154811061360757613607614644565b6000918252602080832090910192909255918252600188019052604090208390555b855486908061363a5761363a61462e565b6001900381819060005260206000200160009055905585600101600086815260200190815260200160002060009055600193505050506108ef565b60009150506108ef565b82805461368b90614576565b90600052602060002090601f0160209004810192826136ad57600085556136f3565b82601f106136c657805160ff19168380011785556136f3565b828001600101855582156136f3579182015b828111156136f35782518255916020019190600101906136d8565b506136ff929150613703565b5090565b5b808211156136ff5760008155600101613704565b600082601f83011261372957600080fd5b81356020613736826144a0565b60405161374382826145b1565b8381528281019150858301600585901b8701840188101561376357600080fd5b60005b8581101561378b57813561377981614715565b84529284019290840190600101613766565b5090979650505050505050565b600082601f8301126137a957600080fd5b813560206137b6826144a0565b6040516137c382826145b1565b8381528281019150858301600585901b870184018810156137e357600080fd5b60005b8581101561378b578135845292840192908401906001016137e6565b8035801515811461381257600080fd5b919050565b600082601f83011261382857600080fd5b81356001600160401b038111156138415761384161465a565b604051613858601f8301601f1916602001826145b1565b81815284602083860101111561386d57600080fd5b816020850160208301376000918101602001919091529392505050565b60006020828403121561389c57600080fd5b81356119f081614715565b600080600080600060a086880312156138bf57600080fd5b85356138ca81614715565b94506020868101356001600160401b03808211156138e757600080fd5b818901915089601f8301126138fb57600080fd5b8135613906816144a0565b60405161391382826145b1565b8281528581019150848601600584901b860187018e101561393357600080fd5b600095505b8386101561395f57803561394b81614715565b835260019590950194918601918601613938565b5098505050604089013592508083111561397857600080fd5b505061398688828901613798565b9598949750949560608101359550608001359392505050565b600080604083850312156139b257600080fd5b82356139bd81614715565b915060208301356139cd81614715565b809150509250929050565b600080600080600060a086880312156139f057600080fd5b85356139fb81614715565b94506020860135613a0b81614715565b935060408601356001600160401b0380821115613a2757600080fd5b613a3389838a01613798565b94506060880135915080821115613a4957600080fd5b613a5589838a01613798565b93506080880135915080821115613a6b57600080fd5b50613a7888828901613817565b9150509295509295909350565b600080600080600060a08688031215613a9d57600080fd5b8535613aa881614715565b94506020860135613ab881614715565b9350604086013592506060860135915060808601356001600160401b03811115613ae157600080fd5b613a7888828901613817565b600080600060608486031215613b0257600080fd5b8335613b0d81614715565b925060208401356001600160401b0380821115613b2957600080fd5b613b3587838801613798565b93506040860135915080821115613b4b57600080fd5b50613b5886828701613798565b9150509250925092565b60008060408385031215613b7557600080fd5b8235613b8081614715565b9150613b8e60208401613802565b90509250929050565b60008060408385031215613baa57600080fd5b8235613bb581614715565b946020939093013593505050565b600080600060608486031215613bd857600080fd5b8335613be381614715565b95602085013595506040909401359392505050565b600080600080600080600060e0888a031215613c1357600080fd5b8735613c1e81614715565b96506020880135955060408801359450606088013593506080880135925060a0880135915060c08801356001600160401b03811115613c5c57600080fd5b613c688a828b01613817565b91505092959891949750929550565b60008060408385031215613c8a57600080fd5b82356001600160401b0380821115613ca157600080fd5b613cad86838701613718565b93506020850135915080821115613cc357600080fd5b50613cd085828601613798565b9150509250929050565b60008060408385031215613ced57600080fd5b82356001600160401b03811115613d0357600080fd5b613d0f85828601613718565b925050613b8e60208401613802565b600060208284031215613d3057600080fd5b5035919050565b60008060408385031215613d4a57600080fd5b8235915060208301356139cd81614715565b60008060408385031215613d6f57600080fd5b50508035926020909101359150565b600060208284031215613d9057600080fd5b81356119f08161472a565b600060208284031215613dad57600080fd5b81516119f08161472a565b600060208284031215613dca57600080fd5b81356001600160401b03811115613de057600080fd5b610e1484828501613817565b600080600060608486031215613e0157600080fd5b833592506020840135613e1381614715565b9150613e2160408501613802565b90509250925092565b60008060408385031215613e3d57600080fd5b8235915060208301356001600160401b03811115613e5a57600080fd5b613cd085828601613817565b600081518084526020808501945080840160005b83811015613e9657815187529582019590820190600101613e7a565b509495945050505050565b60008151808452613eb9816020860160208601614533565b601f01601f19169290920160200192915050565b76020b1b1b2b9b9a1b7b73a3937b61d1030b1b1b7bab73a1604d1b815260008351613eff816017850160208801614533565b7001034b99036b4b9b9b4b733903937b6329607d1b6017918401918201528351613f30816028840160208801614533565b01602801949350505050565b6001600160a01b0386811682528516602082015260a060408201819052600090613f6890830186613e66565b8281036060840152613f7a8186613e66565b90508281036080840152613f8e8185613ea1565b98975050505050505050565b6001600160a01b03868116825285166020820152604081018490526060810183905260a060808201819052600090613fd490830184613ea1565b979650505050505050565b606080825284519082018190526000906020906080840190828801845b828110156140215781516001600160a01b031684529284019290840190600101613ffc565b505050838103828501526140358187613e66565b92505050826040830152949350505050565b6020815260006119f06020830184613e66565b60408152600061406d6040830185613e66565b828103602084015261407f8185613e66565b95945050505050565b6020815260006119f06020830184613ea1565b60208082526028908201527f455243313135353a204552433131353552656365697665722072656a656374656040820152676420746f6b656e7360c01b606082015260800190565b6020808252600f908201526e494e56414c49445f4144445245535360881b604082015260600190565b60208082526010908201526f11549497d393d517d054141493d5915160821b604082015260600190565b60208082526024908201527f455243313135353a206275726e20616d6f756e7420657863656564732062616c604082015263616e636560e01b606082015260800190565b6020808252600b908201526a1053149150511657d4d15560aa1b604082015260600190565b60208082526010908201526f22a9292fa7a7262cafa1a922a0aa27a960811b604082015260600190565b60208082526025908201527f455243313135353a207472616e7366657220746f20746865207a65726f206164604082015264647265737360d81b606082015260800190565b60208082526023908201527f455243313135353a206275726e2066726f6d20746865207a65726f206164647260408201526265737360e81b606082015260800190565b6020808252602a908201527f455243313135353a20696e73756666696369656e742062616c616e636520666f60408201526939103a3930b739b332b960b11b606082015260800190565b60208082526014908201527313505617d493d65053151657d15610d15151115160621b604082015260600190565b6020808252600e908201526d4552525f41444d494e5f4f4e4c5960901b604082015260600190565b60208082526028908201527f455243313135353a2069647320616e6420616d6f756e7473206c656e677468206040820152670dad2e6dac2e8c6d60c31b606082015260800190565b60208082526021908201527f455243313135353a206d696e7420746f20746865207a65726f206164647265736040820152607360f81b606082015260800190565b60208082526012908201527113505617d4d55414131657d4915050d2115160721b604082015260600190565b6020808252600f908201526e22a9292fa7a7262cafa6a4a72a22a960891b604082015260600190565b6020815260018060a01b038251166020820152602082015160408201526040820151606082015260608201516080820152608082015160a082015260a082015160c0820152600060c083015160e080840152610e14610100840182613ea1565b600060808201868352602086818501526080604085015281865180845260a086019150828801935060005b8181101561447f5784516001600160a01b03168352938301939183019160010161445a565b505084810360608601526144938187613e66565b9998505050505050505050565b60006001600160401b038211156144b9576144b961465a565b5060051b60200190565b600082198211156144d6576144d6614618565b500190565b6000826144f857634e487b7160e01b600052601260045260246000fd5b500490565b600081600019048311821515161561451757614517614618565b500290565b60008282101561452e5761452e614618565b500390565b60005b8381101561454e578181015183820152602001614536565b838111156119d25750506000910152565b60008161456e5761456e614618565b506000190190565b600181811c9082168061458a57607f821691505b602082108114156145ab57634e487b7160e01b600052602260045260246000fd5b50919050565b601f8201601f191681016001600160401b03811182821017156145d6576145d661465a565b6040525050565b60006000198214156145f1576145f1614618565b5060010190565b600060ff821660ff81141561460f5761460f614618565b60010192915050565b634e487b7160e01b600052601160045260246000fd5b634e487b7160e01b600052603160045260246000fd5b634e487b7160e01b600052603260045260246000fd5b634e487b7160e01b600052604160045260246000fd5b600060033d11156146895760046000803e5060005160e01c5b90565b600060443d101561469a5790565b6040516003193d81016004833e81513d6001600160401b0380831160248401831017156146c957505050505090565b82850191508151818111156146e15750505050505090565b843d87010160208285010111156146fb5750505050505090565b61470a602082860101876145b1565b509095945050505050565b6001600160a01b038116811461094a57600080fd5b6001600160e01b03198116811461094a57600080fdfe4a39dc06d4c0dbc64b70af90fd698a233a518aa5d07e595d983b8c0526c8f7fbc3d58168c5ae7397731d063d5bbf3d657854427343f4c083240f7aacaa2d0f626bb7ff708619ba0610cba295a58592e0451dee2622938c8755667688daf3529ba164736f6c6343000806000a",
  "linkReferences": {},
  "deployedLinkReferences": {}
}