{
  "_format": "hh-sol-artifact-1",
  "contractName": "RC3_Creators",
  "sourceName": "contracts/RC3_Creators.sol",
  "abi": [
    {
      "inputs": [
        {
          "internalType": "address",
          "name": "defaultAdmin",
          "type": "address"
        },
        {
          "internalType": "string",
          "name": "_uri",
          "type": "string"
        }
      ],
      "stateMutability": "nonpayable",
      "type": "constructor"
    },
    {
      "anonymous": false,
      "inputs": [
        {
          "indexed": true,
          "internalType": "address",
          "name": "account",
          "type": "address"
        },
        {
          "indexed": true,
          "internalType": "address",
          "name": "operator",
          "type": "address"
        },
        {
          "indexed": false,
          "internalType": "bool",
          "name": "approved",
          "type": "bool"
        }
      ],
      "name": "ApprovalForAll",
      "type": "event"
    },
    {
      "anonymous": false,
      "inputs": [
        {
          "indexed": true,
          "internalType": "address",
          "name": "market",
          "type": "address"
        },
        {
          "indexed": false,
          "internalType": "bool",
          "name": "isMarket",
          "type": "bool"
        }
      ],
      "name": "MarketUpdated",
      "type": "event"
    },
    {
      "anonymous": false,
      "inputs": [
        {
          "indexed": true,
          "internalType": "address",
          "name": "caller",
          "type": "address"
        },
        {
          "indexed": false,
          "internalType": "uint256",
          "name": "id",
          "type": "uint256"
        },
        {
          "indexed": true,
          "internalType": "address",
          "name": "minter",
          "type": "address"
        },
        {
          "indexed": false,
          "internalType": "bool",
          "name": "canMint",
          "type": "bool"
        }
      ],
      "name": "MinterSet",
      "type": "event"
    },
    {
      "anonymous": false,
      "inputs": [
        {
          "indexed": true,
          "internalType": "address",
          "name": "creator",
          "type": "address"
        },
        {
          "indexed": false,
          "internalType": "string",
          "name": "category",
          "type": "string"
        }
      ],
      "name": "NewCategory",
      "type": "event"
    },
    {
      "anonymous": false,
      "inputs": [
        {
          "indexed": true,
          "internalType": "address",
          "name": "creator",
          "type": "address"
        },
        {
          "indexed": false,
          "internalType": "uint256",
          "name": "initialSupply",
          "type": "uint256"
        },
        {
          "indexed": false,
          "internalType": "uint256",
          "name": "maxSupply",
          "type": "uint256"
        }
      ],
      "name": "NewToken",
      "type": "event"
    },
    {
      "anonymous": false,
      "inputs": [
        {
          "indexed": true,
          "internalType": "bytes32",
          "name": "role",
          "type": "bytes32"
        },
        {
          "indexed": true,
          "internalType": "bytes32",
          "name": "previousAdminRole",
          "type": "bytes32"
        },
        {
          "indexed": true,
          "internalType": "bytes32",
          "name": "newAdminRole",
          "type": "bytes32"
        }
      ],
      "name": "RoleAdminChanged",
      "type": "event"
    },
    {
      "anonymous": false,
      "inputs": [
        {
          "indexed": true,
          "internalType": "bytes32",
          "name": "role",
          "type": "bytes32"
        },
        {
          "indexed": true,
          "internalType": "address",
          "name": "account",
          "type": "address"
        },
        {
          "indexed": true,
          "internalType": "address",
          "name": "sender",
          "type": "address"
        }
      ],
      "name": "RoleGranted",
      "type": "event"
    },
    {
      "anonymous": false,
      "inputs": [
        {
          "indexed": true,
          "internalType": "bytes32",
          "name": "role",
          "type": "bytes32"
        },
        {
          "indexed": true,
          "internalType": "address",
          "name": "account",
          "type": "address"
        },
        {
          "indexed": true,
          "internalType": "address",
          "name": "sender",
          "type": "address"
        }
      ],
      "name": "RoleRevoked",
      "type": "event"
    },
    {
      "anonymous": false,
      "inputs": [
        {
          "indexed": true,
          "internalType": "address",
          "name": "oldCreator",
          "type": "address"
        },
        {
          "indexed": true,
          "internalType": "address",
          "name": "newCreator",
          "type": "address"
        },
        {
          "indexed": false,
          "internalType": "uint256[]",
          "name": "ids",
          "type": "uint256[]"
        },
        {
          "indexed": false,
          "internalType": "uint256[]",
          "name": "royalties",
          "type": "uint256[]"
        },
        {
          "indexed": false,
          "internalType": "address payable[]",
          "name": "recipients",
          "type": "address[]"
        },
        {
          "indexed": false,
          "internalType": "uint256[]",
          "name": "shares",
          "type": "uint256[]"
        }
      ],
      "name": "RoyaltyInfoUpdated",
      "type": "event"
    },
    {
      "anonymous": false,
      "inputs": [
        {
          "indexed": true,
          "internalType": "address",
          "name": "operator",
          "type": "address"
        },
        {
          "indexed": true,
          "internalType": "address",
          "name": "from",
          "type": "address"
        },
        {
          "indexed": true,
          "internalType": "address",
          "name": "to",
          "type": "address"
        },
        {
          "indexed": false,
          "internalType": "uint256[]",
          "name": "ids",
          "type": "uint256[]"
        },
        {
          "indexed": false,
          "internalType": "uint256[]",
          "name": "values",
          "type": "uint256[]"
        }
      ],
      "name": "TransferBatch",
      "type": "event"
    },
    {
      "anonymous": false,
      "inputs": [
        {
          "indexed": true,
          "internalType": "address",
          "name": "operator",
          "type": "address"
        },
        {
          "indexed": true,
          "internalType": "address",
          "name": "from",
          "type": "address"
        },
        {
          "indexed": true,
          "internalType": "address",
          "name": "to",
          "type": "address"
        },
        {
          "indexed": false,
          "internalType": "uint256",
          "name": "id",
          "type": "uint256"
        },
        {
          "indexed": false,
          "internalType": "uint256",
          "name": "value",
          "type": "uint256"
        }
      ],
      "name": "TransferSingle",
      "type": "event"
    },
    {
      "anonymous": false,
      "inputs": [
        {
          "indexed": false,
          "internalType": "string",
          "name": "value",
          "type": "string"
        },
        {
          "indexed": true,
          "internalType": "uint256",
          "name": "id",
          "type": "uint256"
        }
      ],
      "name": "URI",
      "type": "event"
    },
    {
      "inputs": [],
      "name": "DEFAULT_ADMIN_ROLE",
      "outputs": [
        {
          "internalType": "bytes32",
          "name": "",
          "type": "bytes32"
        }
      ],
      "stateMutability": "view",
      "type": "function"
    },
    {
      "inputs": [
        {
          "internalType": "address",
          "name": "account",
          "type": "address"
        },
        {
          "internalType": "uint256",
          "name": "id",
          "type": "uint256"
        }
      ],
      "name": "balanceOf",
      "outputs": [
        {
          "internalType": "uint256",
          "name": "",
          "type": "uint256"
        }
      ],
      "stateMutability": "view",
      "type": "function"
    },
    {
      "inputs": [
        {
          "internalType": "address[]",
          "name": "accounts",
          "type": "address[]"
        },
        {
          "internalType": "uint256[]",
          "name": "ids",
          "type": "uint256[]"
        }
      ],
      "name": "balanceOfBatch",
      "outputs": [
        {
          "internalType": "uint256[]",
          "name": "",
          "type": "uint256[]"
        }
      ],
      "stateMutability": "view",
      "type": "function"
    },
    {
      "inputs": [
        {
          "internalType": "address",
          "name": "from",
          "type": "address"
        },
        {
          "internalType": "uint256",
          "name": "id",
          "type": "uint256"
        },
        {
          "internalType": "uint256",
          "name": "amount",
          "type": "uint256"
        }
      ],
      "name": "burn",
      "outputs": [],
      "stateMutability": "nonpayable",
      "type": "function"
    },
    {
      "inputs": [
        {
          "internalType": "address",
          "name": "from",
          "type": "address"
        },
        {
          "internalType": "uint256[]",
          "name": "ids",
          "type": "uint256[]"
        },
        {
          "internalType": "uint256[]",
          "name": "amounts",
          "type": "uint256[]"
        }
      ],
      "name": "burnBatch",
      "outputs": [],
      "stateMutability": "nonpayable",
      "type": "function"
    },
    {
      "inputs": [
        {
          "internalType": "bytes32",
          "name": "_x",
          "type": "bytes32"
        }
      ],
      "name": "bytes32ToString",
      "outputs": [
        {
          "internalType": "string",
          "name": "result",
          "type": "string"
        }
      ],
      "stateMutability": "pure",
      "type": "function"
    },
    {
      "inputs": [
        {
          "internalType": "uint256",
          "name": "",
          "type": "uint256"
        },
        {
          "internalType": "address",
          "name": "",
          "type": "address"
        }
      ],
      "name": "canMint",
      "outputs": [
        {
          "internalType": "bool",
          "name": "",
          "type": "bool"
        }
      ],
      "stateMutability": "view",
      "type": "function"
    },
    {
      "inputs": [
        {
          "internalType": "uint256",
          "name": "",
          "type": "uint256"
        }
      ],
      "name": "categories",
      "outputs": [
        {
          "internalType": "bytes32",
          "name": "",
          "type": "bytes32"
        }
      ],
      "stateMutability": "view",
      "type": "function"
    },
    {
      "inputs": [
        {
          "internalType": "bytes32",
          "name": "category",
          "type": "bytes32"
        }
      ],
      "name": "createCategory",
      "outputs": [
        {
          "internalType": "string",
          "name": "category_",
          "type": "string"
        }
      ],
      "stateMutability": "nonpayable",
      "type": "function"
    },
    {
      "inputs": [
        {
          "internalType": "address",
          "name": "_initialHodler",
          "type": "address"
        },
        {
          "internalType": "uint256",
          "name": "_initialSupply",
          "type": "uint256"
        },
        {
          "internalType": "uint256",
          "name": "_maxSupply",
          "type": "uint256"
        },
        {
          "internalType": "uint256",
          "name": "royalty",
          "type": "uint256"
        },
        {
          "internalType": "address payable[]",
          "name": "recipients",
          "type": "address[]"
        },
        {
          "internalType": "uint256[]",
          "name": "shares",
          "type": "uint256[]"
        },
        {
          "internalType": "bytes32",
          "name": "category",
          "type": "bytes32"
        },
        {
          "internalType": "bytes32",
          "name": "nature",
          "type": "bytes32"
        },
        {
          "internalType": "string",
          "name": "_uri",
          "type": "string"
        }
      ],
      "name": "createToken",
      "outputs": [
        {
          "internalType": "uint256",
          "name": "tokenId",
          "type": "uint256"
        }
      ],
      "stateMutability": "payable",
      "type": "function"
    },
    {
      "inputs": [],
      "name": "creationFee",
      "outputs": [
        {
          "internalType": "uint256",
          "name": "",
          "type": "uint256"
        }
      ],
      "stateMutability": "view",
      "type": "function"
    },
    {
      "inputs": [
        {
          "internalType": "uint256",
          "name": "_id",
          "type": "uint256"
        }
      ],
      "name": "creators",
      "outputs": [
        {
          "internalType": "address",
          "name": "creator",
          "type": "address"
        }
      ],
      "stateMutability": "view",
      "type": "function"
    },
    {
      "inputs": [
        {
          "internalType": "uint256",
          "name": "_id",
          "type": "uint256"
        }
      ],
      "name": "exists",
      "outputs": [
        {
          "internalType": "bool",
          "name": "",
          "type": "bool"
        }
      ],
      "stateMutability": "view",
      "type": "function"
    },
    {
      "inputs": [],
      "name": "feeCollector",
      "outputs": [
        {
          "internalType": "address payable",
          "name": "",
          "type": "address"
        }
      ],
      "stateMutability": "view",
      "type": "function"
    },
    {
      "inputs": [
        {
          "internalType": "bytes32",
          "name": "role",
          "type": "bytes32"
        }
      ],
      "name": "getRoleAdmin",
      "outputs": [
        {
          "internalType": "bytes32",
          "name": "",
          "type": "bytes32"
        }
      ],
      "stateMutability": "view",
      "type": "function"
    },
    {
      "inputs": [
        {
          "internalType": "bytes32",
          "name": "role",
          "type": "bytes32"
        },
        {
          "internalType": "uint256",
          "name": "index",
          "type": "uint256"
        }
      ],
      "name": "getRoleMember",
      "outputs": [
        {
          "internalType": "address",
          "name": "",
          "type": "address"
        }
      ],
      "stateMutability": "view",
      "type": "function"
    },
    {
      "inputs": [
        {
          "internalType": "bytes32",
          "name": "role",
          "type": "bytes32"
        }
      ],
      "name": "getRoleMemberCount",
      "outputs": [
        {
          "internalType": "uint256",
          "name": "",
          "type": "uint256"
        }
      ],
      "stateMutability": "view",
      "type": "function"
    },
    {
      "inputs": [
        {
          "internalType": "bytes32",
          "name": "role",
          "type": "bytes32"
        },
        {
          "internalType": "address",
          "name": "account",
          "type": "address"
        }
      ],
      "name": "grantRole",
      "outputs": [],
      "stateMutability": "nonpayable",
      "type": "function"
    },
    {
      "inputs": [
        {
          "internalType": "bytes32",
          "name": "role",
          "type": "bytes32"
        },
        {
          "internalType": "address",
          "name": "account",
          "type": "address"
        }
      ],
      "name": "hasRole",
      "outputs": [
        {
          "internalType": "bool",
          "name": "",
          "type": "bool"
        }
      ],
      "stateMutability": "view",
      "type": "function"
    },
    {
      "inputs": [
        {
          "internalType": "address",
          "name": "_owner",
          "type": "address"
        },
        {
          "internalType": "address",
          "name": "_operator",
          "type": "address"
        }
      ],
      "name": "isApprovedForAll",
      "outputs": [
        {
          "internalType": "bool",
          "name": "isOperator",
          "type": "bool"
        }
      ],
      "stateMutability": "view",
      "type": "function"
    },
    {
      "inputs": [
        {
          "internalType": "uint256",
          "name": "_id",
          "type": "uint256"
        }
      ],
      "name": "maxSupply",
      "outputs": [
        {
          "internalType": "uint256",
          "name": "maxSupply_",
          "type": "uint256"
        }
      ],
      "stateMutability": "view",
      "type": "function"
    },
    {
      "inputs": [
        {
          "internalType": "address",
          "name": "to",
          "type": "address"
        },
        {
          "internalType": "uint256",
          "name": "id",
          "type": "uint256"
        },
        {
          "internalType": "uint256",
          "name": "amount",
          "type": "uint256"
        }
      ],
      "name": "mint",
      "outputs": [
        {
          "internalType": "bool",
          "name": "success",
          "type": "bool"
        }
      ],
      "stateMutability": "nonpayable",
      "type": "function"
    },
    {
      "inputs": [
        {
          "internalType": "address",
          "name": "to",
          "type": "address"
        },
        {
          "internalType": "uint256[]",
          "name": "ids",
          "type": "uint256[]"
        },
        {
          "internalType": "uint256[]",
          "name": "amounts",
          "type": "uint256[]"
        }
      ],
      "name": "mintBatch",
      "outputs": [
        {
          "internalType": "bool",
          "name": "success",
          "type": "bool"
        }
      ],
      "stateMutability": "nonpayable",
      "type": "function"
    },
    {
      "inputs": [
        {
          "internalType": "uint256",
          "name": "",
          "type": "uint256"
        }
      ],
      "name": "natures",
      "outputs": [
        {
          "internalType": "bytes32",
          "name": "",
          "type": "bytes32"
        }
      ],
      "stateMutability": "view",
      "type": "function"
    },
    {
      "inputs": [
        {
          "internalType": "bytes32",
          "name": "role",
          "type": "bytes32"
        },
        {
          "internalType": "address",
          "name": "account",
          "type": "address"
        }
      ],
      "name": "renounceRole",
      "outputs": [],
      "stateMutability": "nonpayable",
      "type": "function"
    },
    {
      "inputs": [
        {
          "internalType": "bytes32",
          "name": "role",
          "type": "bytes32"
        },
        {
          "internalType": "address",
          "name": "account",
          "type": "address"
        }
      ],
      "name": "revokeRole",
      "outputs": [],
      "stateMutability": "nonpayable",
      "type": "function"
    },
    {
      "inputs": [
        {
          "internalType": "uint256",
          "name": "_tokenId",
          "type": "uint256"
        },
        {
          "internalType": "uint256",
          "name": "_salePrice",
          "type": "uint256"
        }
      ],
      "name": "royaltyInfo",
      "outputs": [
        {
          "components": [
            {
              "internalType": "address payable",
              "name": "recipient",
              "type": "address"
            },
            {
              "internalType": "uint256",
              "name": "share",
              "type": "uint256"
            }
          ],
          "internalType": "struct RC3_Creators.Royalty[]",
          "name": "",
          "type": "tuple[]"
        },
        {
          "internalType": "uint256",
          "name": "",
          "type": "uint256"
        }
      ],
      "stateMutability": "view",
      "type": "function"
    },
    {
      "inputs": [
        {
          "internalType": "address",
          "name": "from",
          "type": "address"
        },
        {
          "internalType": "address",
          "name": "to",
          "type": "address"
        },
        {
          "internalType": "uint256[]",
          "name": "ids",
          "type": "uint256[]"
        },
        {
          "internalType": "uint256[]",
          "name": "amounts",
          "type": "uint256[]"
        },
        {
          "internalType": "bytes",
          "name": "data",
          "type": "bytes"
        }
      ],
      "name": "safeBatchTransferFrom",
      "outputs": [],
      "stateMutability": "nonpayable",
      "type": "function"
    },
    {
      "inputs": [
        {
          "internalType": "address",
          "name": "from",
          "type": "address"
        },
        {
          "internalType": "address",
          "name": "to",
          "type": "address"
        },
        {
          "internalType": "uint256",
          "name": "id",
          "type": "uint256"
        },
        {
          "internalType": "uint256",
          "name": "amount",
          "type": "uint256"
        },
        {
          "internalType": "bytes",
          "name": "data",
          "type": "bytes"
        }
      ],
      "name": "safeTransferFrom",
      "outputs": [],
      "stateMutability": "nonpayable",
      "type": "function"
    },
    {
      "inputs": [
        {
          "internalType": "address",
          "name": "operator",
          "type": "address"
        },
        {
          "internalType": "bool",
          "name": "approved",
          "type": "bool"
        }
      ],
      "name": "setApprovalForAll",
      "outputs": [],
      "stateMutability": "nonpayable",
      "type": "function"
    },
    {
      "inputs": [
        {
          "internalType": "uint256",
          "name": "id",
          "type": "uint256"
        },
        {
          "internalType": "string",
          "name": "newURI",
          "type": "string"
        }
      ],
      "name": "setCustomURI",
      "outputs": [],
      "stateMutability": "nonpayable",
      "type": "function"
    },
    {
      "inputs": [
        {
          "internalType": "uint256",
          "name": "id",
          "type": "uint256"
        },
        {
          "internalType": "address",
          "name": "minter",
          "type": "address"
        },
        {
          "internalType": "bool",
          "name": "_canMint",
          "type": "bool"
        }
      ],
      "name": "setMinter",
      "outputs": [],
      "stateMutability": "nonpayable",
      "type": "function"
    },
    {
      "inputs": [
        {
          "internalType": "address payable",
          "name": "creator",
          "type": "address"
        },
        {
          "internalType": "address payable[]",
          "name": "recipients",
          "type": "address[]"
        },
        {
          "internalType": "uint256[]",
          "name": "shares",
          "type": "uint256[]"
        },
        {
          "internalType": "uint256[]",
          "name": "ids",
          "type": "uint256[]"
        },
        {
          "internalType": "uint256[]",
          "name": "royalties",
          "type": "uint256[]"
        }
      ],
      "name": "setRoyaltyInfo",
      "outputs": [],
      "stateMutability": "nonpayable",
      "type": "function"
    },
    {
      "inputs": [
        {
          "internalType": "string",
          "name": "_newURI",
          "type": "string"
        }
      ],
      "name": "setURI",
      "outputs": [],
      "stateMutability": "nonpayable",
      "type": "function"
    },
    {
      "inputs": [
        {
          "internalType": "string",
          "name": "source",
          "type": "string"
        }
      ],
      "name": "stringToBytes32",
      "outputs": [
        {
          "internalType": "bytes32",
          "name": "result",
          "type": "bytes32"
        }
      ],
      "stateMutability": "pure",
      "type": "function"
    },
    {
      "inputs": [
        {
          "internalType": "bytes4",
          "name": "interfaceId",
          "type": "bytes4"
        }
      ],
      "name": "supportsInterface",
      "outputs": [
        {
          "internalType": "bool",
          "name": "",
          "type": "bool"
        }
      ],
      "stateMutability": "view",
      "type": "function"
    },
    {
      "inputs": [
        {
          "internalType": "uint256",
          "name": "_id",
          "type": "uint256"
        }
      ],
      "name": "tokenSupply",
      "outputs": [
        {
          "internalType": "uint256",
          "name": "tokenSupply_",
          "type": "uint256"
        }
      ],
      "stateMutability": "view",
      "type": "function"
    },
    {
      "inputs": [
        {
          "internalType": "address",
          "name": "market",
          "type": "address"
        },
        {
          "internalType": "bool",
          "name": "isMarket",
          "type": "bool"
        }
      ],
      "name": "updateMarket",
      "outputs": [],
      "stateMutability": "nonpayable",
      "type": "function"
    },
    {
      "inputs": [
        {
          "internalType": "uint256",
          "name": "id",
          "type": "uint256"
        }
      ],
      "name": "uri",
      "outputs": [
        {
          "internalType": "string",
          "name": "",
          "type": "string"
        }
      ],
      "stateMutability": "view",
      "type": "function"
    }
  ],
  "bytecode": "0x6080604052662386f26fc10000600a553480156200001c57600080fd5b5060405162004a0038038062004a008339810160408190526200003f91620003f1565b806200004b81620001af565b5062000059600083620001c8565b6005620000876040518060400160405280600381526020016210549560ea1b815250620001d460201b60201c565b815460018101835560009283526020928390200155604080518082019091526005808252644d5553494360d81b92820192909252620000c690620001d4565b8154600181018355600092835260209283902001556040805180820190915260078152662320a9a424a7a760c91b918101919091526005906200010990620001d4565b81546001810183556000928352602092839020015560408051808201909152600881526714121654d250d05360c21b918101919091526200014a90620001d4565b600655604080518082019091526007815266111251d255105360ca1b60208201526200017690620001d4565b60075560408051808201909152600881526714121651d255105360c21b6020820152620001a390620001d4565b60085550620005449050565b8051620001c49060029060208401906200034b565b5050565b620001c48282620001f2565b80516000908290620001e95750600092915050565b50506020015190565b6200020982826200023560201b62001d931760201c565b60008281526004602090815260409091206200023091839062001e19620002d9821b17901c565b505050565b60008281526003602090815260408083206001600160a01b038516845290915290205460ff16620001c45760008281526003602090815260408083206001600160a01b03851684529091529020805460ff19166001179055620002953390565b6001600160a01b0316816001600160a01b0316837f2f8788117e7eff1d82e926ec794901d17c78024a50270940304540a733656f0d60405160405180910390a45050565b6000620002f0836001600160a01b038416620002f9565b90505b92915050565b60008181526001830160205260408120546200034257508154600181810184556000848152602080822090930184905584548482528286019093526040902091909155620002f3565b506000620002f3565b8280546200035990620004f1565b90600052602060002090601f0160209004810192826200037d5760008555620003c8565b82601f106200039857805160ff1916838001178555620003c8565b82800160010185558215620003c8579182015b82811115620003c8578251825591602001919060010190620003ab565b50620003d6929150620003da565b5090565b5b80821115620003d65760008155600101620003db565b600080604083850312156200040557600080fd5b82516001600160a01b03811681146200041d57600080fd5b602084810151919350906001600160401b03808211156200043d57600080fd5b818601915086601f8301126200045257600080fd5b8151818111156200046757620004676200052e565b604051601f8201601f19908116603f011681019083821181831017156200049257620004926200052e565b816040528281528986848701011115620004ab57600080fd5b600093505b82841015620004cf5784840186015181850187015292850192620004b0565b82841115620004e15760008684830101525b8096505050505050509250929050565b600181811c908216806200050657607f821691505b602082108114156200052857634e487b7160e01b600052602260045260246000fd5b50919050565b634e487b7160e01b600052604160045260246000fd5b6144ac80620005546000396000f3fe6080604052600436106101bf5760003560e01c8062fdd58e146101c457806301ffc9a7146101f757806302fe53051461022757806307c9807d146102495780630e89341c1461025c578063156e29f6146102895780632116dec7146102a9578063248a9ca3146102c95780632693ebf2146102e95780632a55205a146103195780632eb2c2d6146103475780632f2ff15d1461036757806336568abe146103875780633adf80b4146103a75780634e1273f4146103c75780634f558e79146103f45780636267fb45146104145780636696bf11146104345780636b20c45414610454578063869f7594146104745780638f4e76b9146104a45780639010d07c146104df57806391d14854146105175780639201de5514610537578063a217fddf14610557578063a22cb4651461056c578063a28cf93c1461058c578063b318de49146105ac578063c415b95c146105cc578063c6cdbe5e146105ec578063ca15c8731461060c578063cd53d08e1461062c578063cfb519281461064c578063d547741f1461066c578063d81d0a151461068c578063dce0b4e4146106ac578063e985e9c5146106c2578063f242432a146106e2578063f5298aca14610702575b600080fd5b3480156101d057600080fd5b506101e46101df3660046137ba565b610722565b6040519081526020015b60405180910390f35b34801561020357600080fd5b50610217610212366004613a16565b6107bc565b60405190151581526020016101ee565b34801561023357600080fd5b50610247610242366004613a50565b6107c7565b005b6101e461025736600461381b565b6107fa565b34801561026857600080fd5b5061027c6102773660046139b6565b610936565b6040516101ee9190613d99565b34801561029557600080fd5b506102176102a43660046137e6565b610ad2565b3480156102b557600080fd5b506102476102c4366004613510565b610b9a565b3480156102d557600080fd5b506101e46102e43660046139b6565b610d61565b3480156102f557600080fd5b506101e46103043660046139b6565b6000908152600c602052604090206003015490565b34801561032557600080fd5b506103396103343660046139f4565b610d76565b6040516101ee929190613c77565b34801561035357600080fd5b50610247610362366004613608565b611137565b34801561037357600080fd5b506102476103823660046139cf565b6111ce565b34801561039357600080fd5b506102476103a23660046139cf565b6111f0565b3480156103b357600080fd5b506102476103c2366004613ac2565b61126e565b3480156103d357600080fd5b506103e76103e23660046138e4565b6112f6565b6040516101ee9190613cd3565b34801561040057600080fd5b5061021761040f3660046139b6565b61141f565b34801561042057600080fd5b5061024761042f366004613a84565b61142a565b34801561044057600080fd5b5061027c61044f3660046139b6565b61153a565b34801561046057600080fd5b5061024761046f366004613710565b611664565b34801561048057600080fd5b506101e461048f3660046139b6565b6000908152600c602052604090206004015490565b3480156104b057600080fd5b506102176104bf3660046139cf565b600e60209081526000928352604080842090915290825290205460ff1681565b3480156104eb57600080fd5b506104ff6104fa3660046139f4565b611764565b6040516001600160a01b0390911681526020016101ee565b34801561052357600080fd5b506102176105323660046139cf565b611783565b34801561054357600080fd5b5061027c6105523660046139b6565b6117ae565b34801561056357600080fd5b506101e4600081565b34801561057857600080fd5b50610247610587366004613785565b611913565b34801561059857600080fd5b506102476105a7366004613785565b61191e565b3480156105b857600080fd5b506101e46105c73660046139b6565b6119e9565b3480156105d857600080fd5b50600b546104ff906001600160a01b031681565b3480156105f857600080fd5b506101e46106073660046139b6565b611a00565b34801561061857600080fd5b506101e46106273660046139b6565b611a21565b34801561063857600080fd5b506104ff6106473660046139b6565b611a38565b34801561065857600080fd5b506101e4610667366004613a50565b611a53565b34801561067857600080fd5b506102476106873660046139cf565b611a70565b34801561069857600080fd5b506102176106a7366004613710565b611a8d565b3480156106b857600080fd5b506101e4600a5481565b3480156106ce57600080fd5b506102176106dd3660046135cf565b611c29565b3480156106ee57600080fd5b506102476106fd3660046136a8565b611c80565b34801561070e57600080fd5b5061024761071d3660046137e6565b611d07565b60006001600160a01b0383166107935760405162461bcd60e51b815260206004820152602b60248201527f455243313135353a2062616c616e636520717565727920666f7220746865207a60448201526a65726f206164647265737360a81b60648201526084015b60405180910390fd5b506000818152602081815260408083206001600160a01b03861684529091529020545b92915050565b60006107b682611e2e565b6107d2600033611783565b6107ee5760405162461bcd60e51b815260040161078a90613fe9565b6107f781611e53565b50565b60055460009084908290815b818110156108505760006005828154811061082357610823614343565b906000526020600020015490508481141561083d57600193505b5080610848816142fc565b915050610806565b5060018215151461089b5760405162461bcd60e51b8152602060048201526015602482015274435245415445445f43415445474f52595f4f4e4c5960581b604482015260640161078a565b896113888111156108be5760405162461bcd60e51b815260040161078a90613f5e565b600a543410156108ff5760405162461bcd60e51b815260206004820152600c60248201526b11915157d393d517d4d1539560a21b604482015260640161078a565b6109108e8e8e8e8e8e8e8e8e611e66565b600161091a612173565b610924919061423b565b9e9d5050505050505050505050505050565b606061094182612189565b6109815760405162461bcd60e51b81526020600482015260116024820152702727a722ac24a9aa22a72a2faa27a5a2a760791b604482015260640161078a565b6000828152600c602052604081206006810180549192916109a190614295565b80601f01602080910402602001604051908101604052809291908181526020018280546109cd90614295565b8015610a1a5780601f106109ef57610100808354040283529160200191610a1a565b820191906000526020600020905b8154815290600101906020018083116109fd57829003601f168201915b50505050509050600081511115610ac157816006018054610a3a90614295565b80601f0160208091040260200160405190810160405280929190818152602001828054610a6690614295565b8015610ab35780601f10610a8857610100808354040283529160200191610ab3565b820191906000526020600020905b815481529060010190602001808311610a9657829003601f168201915b505050505092505050919050565b610aca846121a6565b949350505050565b6000826000610ae082611a38565b90506001600160a01b0381163314610b0a5760405162461bcd60e51b815260040161078a90613e62565b6000858152600c6020526040902060048101546003820154610b2d9087906140f7565b1115610b4b5760405162461bcd60e51b815260040161078a9061409a565b84816003016000828254610b5f91906140f7565b92505081905550610b8d8787876040518060400160405280600381526020016203078360ec1b81525061223a565b5060019695505050505050565b83838051825114610bbd5760405162461bcd60e51b815260040161078a90613fbb565b80516000805b82811015610c0b576000848281518110610bdf57610bdf614343565b602002602001015190508083610bf591906140f7565b9250508080610c03906142fc565b915050610bc3565b50806103e814610c2d5760405162461bcd60e51b815260040161078a90613f8c565b6001600160a01b038916610c765760405162461bcd60e51b815260206004820152601060248201526f24a72b20a624a22fa0a2222922a9a99760811b604482015260640161078a565b855160005b81811015610d03576000878281518110610c9757610c97614343565b602002602001015190506000898381518110610cb557610cb5614343565b602002602001015190506105dc821115610ce15760405162461bcd60e51b815260040161078a90613f5e565b610cee8d82848f8f61230c565b50508080610cfb906142fc565b915050610c7b565b50896001600160a01b0316336001600160a01b03167f1102fcb2ad79d04a8a67424582d87e70bbf9e963c5512586271bcf2d29b4e3f389898d8d604051610d4d9493929190613d14565b60405180910390a350505050505050505050565b60009081526003602052604090206001015490565b6060600080600c6000868152602001908152602001600020604051806101000160405290816000820160009054906101000a90046001600160a01b03166001600160a01b03166001600160a01b031681526020016001820154815260200160028201548152602001600382015481526020016004820154815260200160058201548152602001600682018054610e0b90614295565b80601f0160208091040260200160405190810160405280929190818152602001828054610e3790614295565b8015610e845780601f10610e5957610100808354040283529160200191610e84565b820191906000526020600020905b815481529060010190602001808311610e6757829003601f168201915b5050505050815260200160078201805480602002602001604051908101604052809291908181526020016000905b82821015610efa576000848152602090819020604080518082019091526002850290910180546001600160a01b03168252600190810154828401529083529092019101610eb2565b5050509152505060e081015151909150600080805b83811015610f745760e0850151600090610f2a8360016140f7565b81518110610f3a57610f3a614343565b6020026020010151600001516001600160a01b031614610f625782610f5e816142fc565b9350505b80610f6c816142fc565b915050610f0f565b506000826001600160401b03811115610f8f57610f8f614359565b604051908082528060200260200182016040528015610fd457816020015b6040805180820190915260008082526020820152815260200190600190039081610fad5790505b50905060005b84811015611117576000600c81610ff28460016140f7565b8152602001908152602001600020600701805480602002602001604051908101604052809291908181526020016000905b8282101561106b576000848152602090819020604080518082019091526002850290910180546001600160a01b03168252600190810154828401529083529092019101611023565b50505050905060006001600160a01b03168183600161108a91906140f7565b8151811061109a5761109a614343565b6020026020010151600001516001600160a01b03161461110457806110c08360016140f7565b815181106110d0576110d0614343565b60200260200101518385815181106110ea576110ea614343565b60200260200101819052508380611100906142fc565b9450505b508061110f816142fc565b915050610fda565b5080611127898760a00151612449565b9650965050505050509250929050565b6001600160a01b03851633148061115357506111538533611c29565b6111ba5760405162461bcd60e51b815260206004820152603260248201527f455243313135353a207472616e736665722063616c6c6572206973206e6f74206044820152711bdddb995c881b9bdc88185c1c1c9bdd995960721b606482015260840161078a565b6111c78585858585612462565b5050505050565b6111d782610d61565b6111e181336125fa565b6111eb838361265e565b505050565b6001600160a01b03811633146112605760405162461bcd60e51b815260206004820152602f60248201527f416363657373436f6e74726f6c3a2063616e206f6e6c792072656e6f756e636560448201526e103937b632b9903337b91039b2b63360891b606482015260840161078a565b61126a8282612680565b5050565b81600061127a82611a38565b90506001600160a01b03811633146112a45760405162461bcd60e51b815260040161078a90613e62565b6000848152600c6020908152604090912084516112c9926006909201918601906132fa565b5083600080516020614480833981519152846040516112e89190613d99565b60405180910390a250505050565b6060815183511461135b5760405162461bcd60e51b815260206004820152602960248201527f455243313135353a206163636f756e747320616e6420696473206c656e677468604482015268040dad2e6dac2e8c6d60bb1b606482015260840161078a565b600083516001600160401b0381111561137657611376614359565b60405190808252806020026020018201604052801561139f578160200160208202803683370190505b50905060005b8451811015611417576113ea8582815181106113c3576113c3614343565b60200260200101518583815181106113dd576113dd614343565b6020026020010151610722565b8282815181106113fc576113fc614343565b6020908102919091010152611410816142fc565b90506113a5565b509392505050565b60006107b682612189565b82600061143682611a38565b90506001600160a01b03811633146114605760405162461bcd60e51b815260040161078a90613e62565b6000858152600e602090815260408083206001600160a01b038816845290915290205460ff1680151584151514156114c85760405162461bcd60e51b815260206004820152600b60248201526a1053149150511657d4d15560aa1b604482015260640161078a565b6000868152600e602090815260408083206001600160a01b03891680855290835292819020805460ff191688151590811790915581518a81529283015233917f91a49c77c548e88badc5293608990c6571cf717474188a4b397f745e93965361910160405180910390a3505050505050565b6005546060908290600090815b818110156115915760006005828154811061156457611564614343565b906000526020600020015490508481141561157e57600193505b5080611589816142fc565b915050611547565b5081156115dc5760405162461bcd60e51b81526020600482015260196024820152784e4f4e2d435245415445445f43415445474f52595f4f4e4c5960381b604482015260640161078a565b600580546001810182556000919091527f036b6384b5eca791c62761152d0c79bb0604c104a5fb6f4eb0703f3154bb3db00185905561161a856117ae565b9350337ff9ba893e58aabb92f6fa12057751478bf8aba043973b99a97ad19bfb4ad59fdc611647876117ae565b6040516116549190613d99565b60405180910390a2505050919050565b6001600160a01b03831633148061168057506116808333611c29565b61169c5760405162461bcd60e51b815260040161078a90613df4565b6116a78383836126a2565b60005b825181101561175e576000600c60008584815181106116cb576116cb614343565b6020026020010151815260200190815260200160002090508282815181106116f5576116f5614343565b6020026020010151816003016000828254611710919061423b565b9250508190555082828151811061172957611729614343565b6020026020010151816004016000828254611744919061423b565b909155508291506117569050816142fc565b9150506116aa565b50505050565b600082815260046020526040812061177c908361281e565b9392505050565b60009182526003602090815260408084206001600160a01b0393909316845291905290205460ff1690565b604080516020808252818301909252606091600091906020820181803683370190505090506000805b602081101561185f5760006117ed82600861421c565b6117f8906002614174565b611802908761421c565b90506001600160f81b031981161561184c578084848151811061182757611827614343565b60200101906001600160f81b031916908160001a90535082611848816142fc565b9350505b5080611857816142fc565b9150506117d7565b506000816001600160401b0381111561187a5761187a614359565b6040519080825280601f01601f1916602001820160405280156118a4576020820181803683370190505b50905060005b8281101561190a578381815181106118c4576118c4614343565b602001015160f81c60f81b8282815181106118e1576118e1614343565b60200101906001600160f81b031916908160001a90535080611902816142fc565b9150506118aa565b50949350505050565b61126a33838361282a565b611929600033611783565b6119455760405162461bcd60e51b815260040161078a90613fe9565b6001600160a01b03821661198a5760405162461bcd60e51b815260206004820152600c60248201526b5a45524f5f4144445245535360a01b604482015260640161078a565b6001600160a01b0382166000818152600d6020908152604091829020805460ff191685151590811790915591519182527f497d1799a068d52587e2c92131b971faa22ba31099f30bab68d1cc2b875ff291910160405180910390a25050565b600681600381106119f957600080fd5b0154905081565b60058181548110611a1057600080fd5b600091825260209091200154905081565b60008181526004602052604081206107b69061290b565b6000908152600c60205260409020546001600160a01b031690565b80516000908290611a675750600092915050565b50506020015190565b611a7982610d61565b611a8381336125fa565b6111eb8383612680565b60008151835114611ad65760405162461bcd60e51b815260206004820152601360248201527208aa4a4be82a4a482b2be9a92a6a69a82a8869606b1b604482015260640161078a565b825160005b81811015611bf6576000600c6000878481518110611afb57611afb614343565b6020026020010151815260200190815260200160002090508060040154858381518110611b2a57611b2a614343565b60200260200101518260030154611b4191906140f7565b1115611b5f5760405162461bcd60e51b815260040161078a9061409a565b6000611b83878481518110611b7657611b76614343565b6020026020010151611a38565b90506001600160a01b0381163314611bad5760405162461bcd60e51b815260040161078a90613e62565b858381518110611bbf57611bbf614343565b6020026020010151826003016000828254611bda91906140f7565b9250508190555050508080611bee906142fc565b915050611adb565b50611c1e8585856040518060400160405280600381526020016203078360ec1b815250612915565b506001949350505050565b6001600160a01b0381166000908152600d602052604081205460ff1615611c52575060016107b6565b6001600160a01b0380841660009081526001602090815260408083209386168352929052205460ff1661177c565b6001600160a01b038516331480611c9c5750611c9c8533611c29565b611cfa5760405162461bcd60e51b815260206004820152602960248201527f455243313135353a2063616c6c6572206973206e6f74206f776e6572206e6f7260448201526808185c1c1c9bdd995960ba1b606482015260840161078a565b6111c78585858585612a5d565b6001600160a01b038316331480611d235750611d238333611c29565b611d3f5760405162461bcd60e51b815260040161078a90613df4565b611d4a838383612b74565b6000828152600c6020526040812060038101805491928492611d6d90849061423b565b9250508190555081816004016000828254611d88919061423b565b909155505050505050565b611d9d8282611783565b61126a5760008281526003602090815260408083206001600160a01b03851684529091529020805460ff19166001179055611dd53390565b6001600160a01b0316816001600160a01b0316837f2f8788117e7eff1d82e926ec794901d17c78024a50270940304540a733656f0d60405160405180910390a45050565b600061177c836001600160a01b038416612c66565b60006001600160e01b03198216635a05180f60e01b14806107b657506107b682612cb5565b805161126a9060029060208401906132fa565b84848051825114611e895760405162461bcd60e51b815260040161078a90613fbb565b80516000805b82811015611ed7576000848281518110611eab57611eab614343565b602002602001015190508083611ec191906140f7565b9250508080611ecf906142fc565b915050611e8f565b50806103e814611ef95760405162461bcd60e51b815260040161078a90613f8c565b8c8c8c8c8b8d8a8d8d86881115611f425760405162461bcd60e51b815260206004820152600d60248201526c4552525f494e5f535550504c5960981b604482015260640161078a565b6000611f4c612173565b9050611f56612cda565b600b546040516001600160a01b03909116903480156108fc02916000818181858888f19350505050158015611f8f573d6000803e3d6000fd5b506000818152600c6020526040812080546001600160a01b03191633178155600281018590556001810184905560058101899055600481018a9055875190918391905b8181101561209a5760008a8281518110611fee57611fee614343565b6020026020010151905060008a838151811061200c5761200c614343565b602002602001015190508186600701848154811061202c5761202c614343565b9060005260206000209060020201600101819055508086600701848154811061205757612057614343565b6000918252602090912060029091020180546001600160a01b0319166001600160a01b039290921691909117905550819050612092816142fc565b915050611fd2565b508b156120d0576120c88d838e6040518060400160405280600381526020016203078360ec1b81525061223a565b600383018c90555b8651156121145786516120ec90600685019060208a01906132fa565b50816000805160206144808339815191528860405161210b9190613d99565b60405180910390a25b336001600160a01b03167fbc7d7d143abd25a4c46468a8dc71a9fc8c12d3f5969c388d86dce39f1507a8568d8d60405161214f9291906140c6565b60405180910390a25050505050505050505050505050505050505050505050505050565b6000600954600161218491906140f7565b905090565b6000908152600c60205260409020546001600160a01b0316151590565b6060600280546121b590614295565b80601f01602080910402602001604051908101604052809291908181526020018280546121e190614295565b801561222e5780601f106122035761010080835404028352916020019161222e565b820191906000526020600020905b81548152906001019060200180831161221157829003601f168201915b50505050509050919050565b6001600160a01b0384166122605760405162461bcd60e51b815260040161078a90614059565b336122808160008761227188612cf1565b61227a88612cf1565b87612d3c565b6000848152602081815260408083206001600160a01b0389168452909152812080548592906122b09084906140f7565b92505081905550846001600160a01b031660006001600160a01b0316826001600160a01b031660008051602061446083398151915287876040516122f59291906140c6565b60405180910390a46111c781600087878787612d41565b83600061231882611a38565b90506001600160a01b03811633146123425760405162461bcd60e51b815260040161078a90613e62565b6000868152600c6020526040812080546001600160a01b0319166001600160a01b038a1617815560058101879055845190915b8181101561243d57600086828151811061239157612391614343565b6020026020010151905060008883815181106123af576123af614343565b60200260200101519050818560070184815481106123cf576123cf614343565b906000526020600020906002020160010181905550808560070184815481106123fa576123fa614343565b6000918252602090912060029091020180546001600160a01b0319166001600160a01b039290921691909117905550819050612435816142fc565b915050612375565b50505050505050505050565b6000816124586127108561410f565b61177c919061421c565b81518351146124835760405162461bcd60e51b815260040161078a90614011565b6001600160a01b0384166124a95760405162461bcd60e51b815260040161078a90613e8c565b336124b8818787878787612d3c565b60005b845181101561259e5760008582815181106124d8576124d8614343565b6020026020010151905060008583815181106124f6576124f6614343565b602090810291909101810151600084815280835260408082206001600160a01b038e1683529093529190912054909150818110156125465760405162461bcd60e51b815260040161078a90613f14565b6000838152602081815260408083206001600160a01b038e8116855292528083208585039055908b168252812080548492906125839084906140f7565b9250508190555050505080612597906142fc565b90506124bb565b50846001600160a01b0316866001600160a01b0316826001600160a01b031660008051602061444083398151915287876040516125dc929190613ce6565b60405180910390a46125f2818787878787612eac565b505050505050565b6126048282611783565b61126a5761261c816001600160a01b03166014612f76565b612627836020612f76565b604051602001612638929190613b65565b60408051601f198184030181529082905262461bcd60e51b825261078a91600401613d99565b6126688282611d93565b60008281526004602052604090206111eb9082611e19565b61268a8282613111565b60008281526004602052604090206111eb9082613178565b6001600160a01b0383166126c85760405162461bcd60e51b815260040161078a90613ed1565b80518251146126e95760405162461bcd60e51b815260040161078a90614011565b600033905061270c81856000868660405180602001604052806000815250612d3c565b60005b83518110156127d157600084828151811061272c5761272c614343565b60200260200101519050600084838151811061274a5761274a614343565b602090810291909101810151600084815280835260408082206001600160a01b038c16835290935291909120549091508181101561279a5760405162461bcd60e51b815260040161078a90613e1e565b6000928352602083815260408085206001600160a01b038b16865290915290922091039055806127c9816142fc565b91505061270f565b5060006001600160a01b0316846001600160a01b0316826001600160a01b03166000805160206144408339815191528686604051612810929190613ce6565b60405180910390a450505050565b600061177c838361318d565b816001600160a01b0316836001600160a01b0316141561289e5760405162461bcd60e51b815260206004820152602960248201527f455243313135353a2073657474696e6720617070726f76616c20737461747573604482015268103337b91039b2b63360b91b606482015260840161078a565b6001600160a01b03838116600081815260016020908152604080832094871680845294825291829020805460ff191686151590811790915591519182527f17307eab39ab6107e8899845ad3d59bd9653f200f220920489ca2b5937696c31910160405180910390a3505050565b60006107b6825490565b6001600160a01b03841661293b5760405162461bcd60e51b815260040161078a90614059565b815183511461295c5760405162461bcd60e51b815260040161078a90614011565b3361296c81600087878787612d3c565b60005b8451811015612a075783818151811061298a5761298a614343565b60200260200101516000808784815181106129a7576129a7614343565b602002602001015181526020019081526020016000206000886001600160a01b03166001600160a01b0316815260200190815260200160002060008282546129ef91906140f7565b909155508190506129ff816142fc565b91505061296f565b50846001600160a01b031660006001600160a01b0316826001600160a01b03166000805160206144408339815191528787604051612a46929190613ce6565b60405180910390a46111c781600087878787612eac565b6001600160a01b038416612a835760405162461bcd60e51b815260040161078a90613e8c565b33612a9381878761227188612cf1565b6000848152602081815260408083206001600160a01b038a16845290915290205483811015612ad45760405162461bcd60e51b815260040161078a90613f14565b6000858152602081815260408083206001600160a01b038b8116855292528083208785039055908816825281208054869290612b119084906140f7565b92505081905550856001600160a01b0316876001600160a01b0316836001600160a01b03166000805160206144608339815191528888604051612b559291906140c6565b60405180910390a4612b6b828888888888612d41565b50505050505050565b6001600160a01b038316612b9a5760405162461bcd60e51b815260040161078a90613ed1565b33612bc981856000612bab87612cf1565b612bb487612cf1565b60405180602001604052806000815250612d3c565b6000838152602081815260408083206001600160a01b038816845290915290205482811015612c0a5760405162461bcd60e51b815260040161078a90613e1e565b6000848152602081815260408083206001600160a01b03808a168086529190935281842087860390559051909185169060008051602061446083398151915290612c5790899089906140c6565b60405180910390a45050505050565b6000818152600183016020526040812054612cad575081546001818101845560008481526020808220909301849055845484825282860190935260409020919091556107b6565b5060006107b6565b60006001600160e01b03198216637965db0b60e01b14806107b657506107b6826131b7565b60098054906000612cea836142fc565b9190505550565b60408051600180825281830190925260609160009190602080830190803683370190505090508281600081518110612d2b57612d2b614343565b602090810291909101015292915050565b6125f2565b6001600160a01b0384163b156125f25760405163f23a6e6160e01b81526001600160a01b0385169063f23a6e6190612d859089908990889088908890600401613c32565b602060405180830381600087803b158015612d9f57600080fd5b505af1925050508015612dcf575060408051601f3d908101601f19168201909252612dcc91810190613a33565b60015b612e7c57612ddb61436f565b806308c379a01415612e155750612df061438b565b80612dfb5750612e17565b8060405162461bcd60e51b815260040161078a9190613d99565b505b60405162461bcd60e51b815260206004820152603460248201527f455243313135353a207472616e7366657220746f206e6f6e20455243313135356044820152732932b1b2b4bb32b91034b6b83632b6b2b73a32b960611b606482015260840161078a565b6001600160e01b0319811663f23a6e6160e01b14612b6b5760405162461bcd60e51b815260040161078a90613dac565b6001600160a01b0384163b156125f25760405163bc197c8160e01b81526001600160a01b0385169063bc197c8190612ef09089908990889088908890600401613bd4565b602060405180830381600087803b158015612f0a57600080fd5b505af1925050508015612f3a575060408051601f3d908101601f19168201909252612f3791810190613a33565b60015b612f4657612ddb61436f565b6001600160e01b0319811663bc197c8160e01b14612b6b5760405162461bcd60e51b815260040161078a90613dac565b60606000612f8583600261421c565b612f909060026140f7565b6001600160401b03811115612fa757612fa7614359565b6040519080825280601f01601f191660200182016040528015612fd1576020820181803683370190505b509050600360fc1b81600081518110612fec57612fec614343565b60200101906001600160f81b031916908160001a905350600f60fb1b8160018151811061301b5761301b614343565b60200101906001600160f81b031916908160001a905350600061303f84600261421c565b61304a9060016140f7565b90505b60018111156130c2576f181899199a1a9b1b9c1cb0b131b232b360811b85600f166010811061307e5761307e614343565b1a60f81b82828151811061309457613094614343565b60200101906001600160f81b031916908160001a90535060049490941c936130bb8161427e565b905061304d565b50831561177c5760405162461bcd60e51b815260206004820181905260248201527f537472696e67733a20686578206c656e67746820696e73756666696369656e74604482015260640161078a565b61311b8282611783565b1561126a5760008281526003602090815260408083206001600160a01b0385168085529252808320805460ff1916905551339285917ff6391f5c32d9c69d2a47ea670b442974b53935d1edc7fd64eb21e047a839171b9190a45050565b600061177c836001600160a01b038416613207565b60008260000182815481106131a4576131a4614343565b9060005260206000200154905092915050565b60006001600160e01b03198216636cdb3d1360e11b14806131e857506001600160e01b031982166303a24d0760e21b145b806107b657506301ffc9a760e01b6001600160e01b03198316146107b6565b600081815260018301602052604081205480156132f057600061322b60018361423b565b855490915060009061323f9060019061423b565b90508181146132a457600086600001828154811061325f5761325f614343565b906000526020600020015490508087600001848154811061328257613282614343565b6000918252602080832090910192909255918252600188019052604090208390555b85548690806132b5576132b561432d565b6001900381819060005260206000200160009055905585600101600086815260200190815260200160002060009055600193505050506107b6565b60009150506107b6565b82805461330690614295565b90600052602060002090601f016020900481019282613328576000855561336e565b82601f1061334157805160ff191683800117855561336e565b8280016001018555821561336e579182015b8281111561336e578251825591602001919060010190613353565b5061337a92915061337e565b5090565b5b8082111561337a576000815560010161337f565b803561339e81614414565b919050565b600082601f8301126133b457600080fd5b813560206133c1826140d4565b6040516133ce82826142d0565b8381528281019150858301600585901b870184018810156133ee57600080fd5b60005b8581101561341657813561340481614414565b845292840192908401906001016133f1565b5090979650505050505050565b600082601f83011261343457600080fd5b81356020613441826140d4565b60405161344e82826142d0565b8381528281019150858301600585901b8701840188101561346e57600080fd5b60005b8581101561341657813584529284019290840190600101613471565b8035801515811461339e57600080fd5b600082601f8301126134ae57600080fd5b81356001600160401b038111156134c7576134c7614359565b6040516134de601f8301601f1916602001826142d0565b8181528460208386010111156134f357600080fd5b816020850160208301376000918101602001919091529392505050565b600080600080600060a0868803121561352857600080fd5b853561353381614414565b945060208601356001600160401b038082111561354f57600080fd5b61355b89838a016133a3565b9550604088013591508082111561357157600080fd5b61357d89838a01613423565b9450606088013591508082111561359357600080fd5b61359f89838a01613423565b935060808801359150808211156135b557600080fd5b506135c288828901613423565b9150509295509295909350565b600080604083850312156135e257600080fd5b82356135ed81614414565b915060208301356135fd81614414565b809150509250929050565b600080600080600060a0868803121561362057600080fd5b853561362b81614414565b9450602086013561363b81614414565b935060408601356001600160401b038082111561365757600080fd5b61366389838a01613423565b9450606088013591508082111561367957600080fd5b61368589838a01613423565b9350608088013591508082111561369b57600080fd5b506135c28882890161349d565b600080600080600060a086880312156136c057600080fd5b85356136cb81614414565b945060208601356136db81614414565b9350604086013592506060860135915060808601356001600160401b0381111561370457600080fd5b6135c28882890161349d565b60008060006060848603121561372557600080fd5b833561373081614414565b925060208401356001600160401b038082111561374c57600080fd5b61375887838801613423565b9350604086013591508082111561376e57600080fd5b5061377b86828701613423565b9150509250925092565b6000806040838503121561379857600080fd5b82356137a381614414565b91506137b16020840161348d565b90509250929050565b600080604083850312156137cd57600080fd5b82356137d881614414565b946020939093013593505050565b6000806000606084860312156137fb57600080fd5b833561380681614414565b95602085013595506040909401359392505050565b60008060008060008060008060006101208a8c03121561383a57600080fd5b6138438a613393565b985060208a0135975060408a0135965060608a0135955060808a01356001600160401b038082111561387457600080fd5b6138808d838e016133a3565b965060a08c013591508082111561389657600080fd5b6138a28d838e01613423565b955060c08c0135945060e08c013593506101008c01359150808211156138c757600080fd5b506138d48c828d0161349d565b9150509295985092959850929598565b600080604083850312156138f757600080fd5b82356001600160401b038082111561390e57600080fd5b818501915085601f83011261392257600080fd5b8135602061392f826140d4565b60405161393c82826142d0565b8381528281019150858301600585901b870184018b101561395c57600080fd5b600096505b8487101561398857803561397481614414565b835260019690960195918301918301613961565b509650508601359250508082111561399f57600080fd5b506139ac85828601613423565b9150509250929050565b6000602082840312156139c857600080fd5b5035919050565b600080604083850312156139e257600080fd5b8235915060208301356135fd81614414565b60008060408385031215613a0757600080fd5b50508035926020909101359150565b600060208284031215613a2857600080fd5b813561177c81614429565b600060208284031215613a4557600080fd5b815161177c81614429565b600060208284031215613a6257600080fd5b81356001600160401b03811115613a7857600080fd5b610aca8482850161349d565b600080600060608486031215613a9957600080fd5b833592506020840135613aab81614414565b9150613ab96040850161348d565b90509250925092565b60008060408385031215613ad557600080fd5b8235915060208301356001600160401b03811115613af257600080fd5b6139ac8582860161349d565b600081518084526020808501945080840160005b83811015613b2e57815187529582019590820190600101613b12565b509495945050505050565b60008151808452613b51816020860160208601614252565b601f01601f19169290920160200192915050565b76020b1b1b2b9b9a1b7b73a3937b61d1030b1b1b7bab73a1604d1b815260008351613b97816017850160208801614252565b7001034b99036b4b9b9b4b733903937b6329607d1b6017918401918201528351613bc8816028840160208801614252565b01602801949350505050565b6001600160a01b0386811682528516602082015260a060408201819052600090613c0090830186613afe565b8281036060840152613c128186613afe565b90508281036080840152613c268185613b39565b98975050505050505050565b6001600160a01b03868116825285166020820152604081018490526060810183905260a060808201819052600090613c6c90830184613b39565b979650505050505050565b60408082528351828201819052600091906020906060850190828801855b82811015613cc357815180516001600160a01b03168552850151858501529285019290840190600101613c95565b5050509301939093525092915050565b60208152600061177c6020830184613afe565b604081526000613cf96040830185613afe565b8281036020840152613d0b8185613afe565b95945050505050565b608081526000613d276080830187613afe565b602083820381850152613d3a8288613afe565b8481036040860152865180825282880193509082019060005b81811015613d785784516001600160a01b031683529383019391830191600101613d53565b50508481036060860152613d8c8187613afe565b9998505050505050505050565b60208152600061177c6020830184613b39565b60208082526028908201527f455243313135353a204552433131353552656365697665722072656a656374656040820152676420746f6b656e7360c01b606082015260800190565b60208082526010908201526f11549497d393d517d054141493d5915160821b604082015260600190565b60208082526024908201527f455243313135353a206275726e20616d6f756e7420657863656564732062616c604082015263616e636560e01b606082015260800190565b60208082526010908201526f22a9292fa7a7262cafa1a922a0aa27a960811b604082015260600190565b60208082526025908201527f455243313135353a207472616e7366657220746f20746865207a65726f206164604082015264647265737360d81b606082015260800190565b60208082526023908201527f455243313135353a206275726e2066726f6d20746865207a65726f206164647260408201526265737360e81b606082015260800190565b6020808252602a908201527f455243313135353a20696e73756666696369656e742062616c616e636520666f60408201526939103a3930b739b332b960b11b606082015260800190565b60208082526014908201527313505617d493d65053151657d15610d15151115160621b604082015260600190565b6020808252601590820152741253959053125117d513d5105317d4115490d15395605a1b604082015260600190565b6020808252601490820152730929cac82989288be929ca0aaa8be988a9c8ea8960631b604082015260600190565b6020808252600e908201526d4552525f41444d494e5f4f4e4c5960901b604082015260600190565b60208082526028908201527f455243313135353a2069647320616e6420616d6f756e7473206c656e677468206040820152670dad2e6dac2e8c6d60c31b606082015260800190565b60208082526021908201527f455243313135353a206d696e7420746f20746865207a65726f206164647265736040820152607360f81b606082015260800190565b60208082526012908201527113505617d4d55414131657d4915050d2115160721b604082015260600190565b918252602082015260400190565b60006001600160401b038211156140ed576140ed614359565b5060051b60200190565b6000821982111561410a5761410a614317565b500190565b60008261412c57634e487b7160e01b600052601260045260246000fd5b500490565b600181815b8085111561416c57816000190482111561415257614152614317565b8085161561415f57918102915b93841c9390800290614136565b509250929050565b600061177c838360008261418a575060016107b6565b81614197575060006107b6565b81600181146141ad57600281146141b7576141d3565b60019150506107b6565b60ff8411156141c8576141c8614317565b50506001821b6107b6565b5060208310610133831016604e8410600b84101617156141f6575081810a6107b6565b6142008383614131565b806000190482111561421457614214614317565b029392505050565b600081600019048311821515161561423657614236614317565b500290565b60008282101561424d5761424d614317565b500390565b60005b8381101561426d578181015183820152602001614255565b8381111561175e5750506000910152565b60008161428d5761428d614317565b506000190190565b600181811c908216806142a957607f821691505b602082108114156142ca57634e487b7160e01b600052602260045260246000fd5b50919050565b601f8201601f191681016001600160401b03811182821017156142f5576142f5614359565b6040525050565b600060001982141561431057614310614317565b5060010190565b634e487b7160e01b600052601160045260246000fd5b634e487b7160e01b600052603160045260246000fd5b634e487b7160e01b600052603260045260246000fd5b634e487b7160e01b600052604160045260246000fd5b600060033d11156143885760046000803e5060005160e01c5b90565b600060443d10156143995790565b6040516003193d81016004833e81513d6001600160401b0380831160248401831017156143c857505050505090565b82850191508151818111156143e05750505050505090565b843d87010160208285010111156143fa5750505050505090565b614409602082860101876142d0565b509095945050505050565b6001600160a01b03811681146107f757600080fd5b6001600160e01b0319811681146107f757600080fdfe4a39dc06d4c0dbc64b70af90fd698a233a518aa5d07e595d983b8c0526c8f7fbc3d58168c5ae7397731d063d5bbf3d657854427343f4c083240f7aacaa2d0f626bb7ff708619ba0610cba295a58592e0451dee2622938c8755667688daf3529ba164736f6c6343000806000a",
  "linkReferences": {},
  "deployedLinkReferences": {}
}