{
  "_format": "hh-sol-artifact-1",
  "contractName": "RC3_Originals",
  "sourceName": "contracts/RC3_Originals.sol",
  "abi": [
    {
      "inputs": [
        {
          "internalType": "address",
          "name": "_defaultAdmin",
          "type": "address"
        },
        {
          "internalType": "string",
          "name": "uri",
          "type": "string"
        }
      ],
      "stateMutability": "nonpayable",
      "type": "constructor"
    },
    {
      "anonymous": false,
      "inputs": [
        {
          "indexed": true,
          "internalType": "address",
          "name": "owner",
          "type": "address"
        },
        {
          "indexed": true,
          "internalType": "address",
          "name": "approved",
          "type": "address"
        },
        {
          "indexed": true,
          "internalType": "uint256",
          "name": "tokenId",
          "type": "uint256"
        }
      ],
      "name": "Approval",
      "type": "event"
    },
    {
      "anonymous": false,
      "inputs": [
        {
          "indexed": true,
          "internalType": "address",
          "name": "owner",
          "type": "address"
        },
        {
          "indexed": true,
          "internalType": "address",
          "name": "operator",
          "type": "address"
        },
        {
          "indexed": false,
          "internalType": "bool",
          "name": "approved",
          "type": "bool"
        }
      ],
      "name": "ApprovalForAll",
      "type": "event"
    },
    {
      "anonymous": false,
      "inputs": [
        {
          "indexed": true,
          "internalType": "address",
          "name": "market",
          "type": "address"
        },
        {
          "indexed": false,
          "internalType": "bool",
          "name": "isMarket",
          "type": "bool"
        }
      ],
      "name": "MarketUpdated",
      "type": "event"
    },
    {
      "anonymous": false,
      "inputs": [
        {
          "indexed": true,
          "internalType": "address",
          "name": "admin",
          "type": "address"
        },
        {
          "indexed": false,
          "internalType": "uint256",
          "name": "tokenId",
          "type": "uint256"
        },
        {
          "indexed": true,
          "internalType": "address",
          "name": "creator",
          "type": "address"
        },
        {
          "indexed": false,
          "internalType": "bytes32",
          "name": "category",
          "type": "bytes32"
        },
        {
          "indexed": true,
          "internalType": "bytes32",
          "name": "nature",
          "type": "bytes32"
        }
      ],
      "name": "Mint",
      "type": "event"
    },
    {
      "anonymous": false,
      "inputs": [
        {
          "indexed": true,
          "internalType": "bytes32",
          "name": "role",
          "type": "bytes32"
        },
        {
          "indexed": true,
          "internalType": "bytes32",
          "name": "previousAdminRole",
          "type": "bytes32"
        },
        {
          "indexed": true,
          "internalType": "bytes32",
          "name": "newAdminRole",
          "type": "bytes32"
        }
      ],
      "name": "RoleAdminChanged",
      "type": "event"
    },
    {
      "anonymous": false,
      "inputs": [
        {
          "indexed": true,
          "internalType": "bytes32",
          "name": "role",
          "type": "bytes32"
        },
        {
          "indexed": true,
          "internalType": "address",
          "name": "account",
          "type": "address"
        },
        {
          "indexed": true,
          "internalType": "address",
          "name": "sender",
          "type": "address"
        }
      ],
      "name": "RoleGranted",
      "type": "event"
    },
    {
      "anonymous": false,
      "inputs": [
        {
          "indexed": true,
          "internalType": "bytes32",
          "name": "role",
          "type": "bytes32"
        },
        {
          "indexed": true,
          "internalType": "address",
          "name": "account",
          "type": "address"
        },
        {
          "indexed": true,
          "internalType": "address",
          "name": "sender",
          "type": "address"
        }
      ],
      "name": "RoleRevoked",
      "type": "event"
    },
    {
      "anonymous": false,
      "inputs": [
        {
          "indexed": true,
          "internalType": "address",
          "name": "caller",
          "type": "address"
        },
        {
          "indexed": true,
          "internalType": "address",
          "name": "receiver",
          "type": "address"
        }
      ],
      "name": "RoyaltyInfoUpdated",
      "type": "event"
    },
    {
      "anonymous": false,
      "inputs": [
        {
          "indexed": true,
          "internalType": "address",
          "name": "from",
          "type": "address"
        },
        {
          "indexed": true,
          "internalType": "address",
          "name": "to",
          "type": "address"
        },
        {
          "indexed": true,
          "internalType": "uint256",
          "name": "tokenId",
          "type": "uint256"
        }
      ],
      "name": "Transfer",
      "type": "event"
    },
    {
      "inputs": [],
      "name": "ADMIN_ROLE",
      "outputs": [
        {
          "internalType": "bytes32",
          "name": "",
          "type": "bytes32"
        }
      ],
      "stateMutability": "view",
      "type": "function"
    },
    {
      "inputs": [],
      "name": "DEFAULT_ADMIN_ROLE",
      "outputs": [
        {
          "internalType": "bytes32",
          "name": "",
          "type": "bytes32"
        }
      ],
      "stateMutability": "view",
      "type": "function"
    },
    {
      "inputs": [],
      "name": "MINTER_ROLE",
      "outputs": [
        {
          "internalType": "bytes32",
          "name": "",
          "type": "bytes32"
        }
      ],
      "stateMutability": "view",
      "type": "function"
    },
    {
      "inputs": [
        {
          "internalType": "address",
          "name": "to",
          "type": "address"
        },
        {
          "internalType": "uint256",
          "name": "tokenId",
          "type": "uint256"
        }
      ],
      "name": "approve",
      "outputs": [],
      "stateMutability": "nonpayable",
      "type": "function"
    },
    {
      "inputs": [
        {
          "internalType": "address",
          "name": "owner",
          "type": "address"
        }
      ],
      "name": "balanceOf",
      "outputs": [
        {
          "internalType": "uint256",
          "name": "",
          "type": "uint256"
        }
      ],
      "stateMutability": "view",
      "type": "function"
    },
    {
      "inputs": [],
      "name": "baseTokenURI",
      "outputs": [
        {
          "internalType": "string",
          "name": "",
          "type": "string"
        }
      ],
      "stateMutability": "view",
      "type": "function"
    },
    {
      "inputs": [
        {
          "internalType": "uint256",
          "name": "tokenId",
          "type": "uint256"
        }
      ],
      "name": "burn",
      "outputs": [],
      "stateMutability": "nonpayable",
      "type": "function"
    },
    {
      "inputs": [
        {
          "internalType": "bytes32",
          "name": "_bytes32",
          "type": "bytes32"
        }
      ],
      "name": "bytes32ToString",
      "outputs": [
        {
          "internalType": "string",
          "name": "result",
          "type": "string"
        }
      ],
      "stateMutability": "pure",
      "type": "function"
    },
    {
      "inputs": [
        {
          "internalType": "uint256",
          "name": "_salePrice",
          "type": "uint256"
        }
      ],
      "name": "calculateRoyalty",
      "outputs": [
        {
          "internalType": "uint256",
          "name": "",
          "type": "uint256"
        }
      ],
      "stateMutability": "pure",
      "type": "function"
    },
    {
      "inputs": [
        {
          "internalType": "uint256",
          "name": "",
          "type": "uint256"
        }
      ],
      "name": "categories",
      "outputs": [
        {
          "internalType": "bytes32",
          "name": "",
          "type": "bytes32"
        }
      ],
      "stateMutability": "view",
      "type": "function"
    },
    {
      "inputs": [
        {
          "internalType": "uint256",
          "name": "tokenId",
          "type": "uint256"
        }
      ],
      "name": "getApproved",
      "outputs": [
        {
          "internalType": "address",
          "name": "",
          "type": "address"
        }
      ],
      "stateMutability": "view",
      "type": "function"
    },
    {
      "inputs": [
        {
          "internalType": "uint256",
          "name": "tokenId",
          "type": "uint256"
        }
      ],
      "name": "getInfo",
      "outputs": [
        {
          "components": [
            {
              "internalType": "address payable",
              "name": "creator",
              "type": "address"
            },
            {
              "internalType": "bytes32",
              "name": "nature",
              "type": "bytes32"
            },
            {
              "internalType": "bytes32",
              "name": "category",
              "type": "bytes32"
            }
          ],
          "internalType": "struct RC3_Originals.Info",
          "name": "info",
          "type": "tuple"
        }
      ],
      "stateMutability": "view",
      "type": "function"
    },
    {
      "inputs": [
        {
          "internalType": "bytes32",
          "name": "role",
          "type": "bytes32"
        }
      ],
      "name": "getRoleAdmin",
      "outputs": [
        {
          "internalType": "bytes32",
          "name": "",
          "type": "bytes32"
        }
      ],
      "stateMutability": "view",
      "type": "function"
    },
    {
      "inputs": [
        {
          "internalType": "bytes32",
          "name": "role",
          "type": "bytes32"
        },
        {
          "internalType": "uint256",
          "name": "index",
          "type": "uint256"
        }
      ],
      "name": "getRoleMember",
      "outputs": [
        {
          "internalType": "address",
          "name": "",
          "type": "address"
        }
      ],
      "stateMutability": "view",
      "type": "function"
    },
    {
      "inputs": [
        {
          "internalType": "bytes32",
          "name": "role",
          "type": "bytes32"
        }
      ],
      "name": "getRoleMemberCount",
      "outputs": [
        {
          "internalType": "uint256",
          "name": "",
          "type": "uint256"
        }
      ],
      "stateMutability": "view",
      "type": "function"
    },
    {
      "inputs": [
        {
          "internalType": "bytes32",
          "name": "role",
          "type": "bytes32"
        },
        {
          "internalType": "address",
          "name": "account",
          "type": "address"
        }
      ],
      "name": "grantRole",
      "outputs": [],
      "stateMutability": "nonpayable",
      "type": "function"
    },
    {
      "inputs": [
        {
          "internalType": "bytes32",
          "name": "role",
          "type": "bytes32"
        },
        {
          "internalType": "address",
          "name": "account",
          "type": "address"
        }
      ],
      "name": "hasRole",
      "outputs": [
        {
          "internalType": "bool",
          "name": "",
          "type": "bool"
        }
      ],
      "stateMutability": "view",
      "type": "function"
    },
    {
      "inputs": [
        {
          "internalType": "address",
          "name": "owner",
          "type": "address"
        },
        {
          "internalType": "address",
          "name": "operator",
          "type": "address"
        }
      ],
      "name": "isApprovedForAll",
      "outputs": [
        {
          "internalType": "bool",
          "name": "",
          "type": "bool"
        }
      ],
      "stateMutability": "view",
      "type": "function"
    },
    {
      "inputs": [
        {
          "internalType": "address",
          "name": "",
          "type": "address"
        }
      ],
      "name": "isWhitelistedMarket",
      "outputs": [
        {
          "internalType": "bool",
          "name": "",
          "type": "bool"
        }
      ],
      "stateMutability": "view",
      "type": "function"
    },
    {
      "inputs": [
        {
          "internalType": "string",
          "name": "_tokenURI",
          "type": "string"
        },
        {
          "internalType": "address payable",
          "name": "creator",
          "type": "address"
        },
        {
          "internalType": "bytes32",
          "name": "category",
          "type": "bytes32"
        },
        {
          "internalType": "bytes32",
          "name": "nature",
          "type": "bytes32"
        }
      ],
      "name": "mint",
      "outputs": [
        {
          "internalType": "uint256",
          "name": "newItemId",
          "type": "uint256"
        }
      ],
      "stateMutability": "nonpayable",
      "type": "function"
    },
    {
      "inputs": [],
      "name": "name",
      "outputs": [
        {
          "internalType": "string",
          "name": "",
          "type": "string"
        }
      ],
      "stateMutability": "view",
      "type": "function"
    },
    {
      "inputs": [
        {
          "internalType": "uint256",
          "name": "",
          "type": "uint256"
        }
      ],
      "name": "natures",
      "outputs": [
        {
          "internalType": "bytes32",
          "name": "",
          "type": "bytes32"
        }
      ],
      "stateMutability": "view",
      "type": "function"
    },
    {
      "inputs": [
        {
          "internalType": "uint256",
          "name": "tokenId",
          "type": "uint256"
        }
      ],
      "name": "ownerOf",
      "outputs": [
        {
          "internalType": "address",
          "name": "",
          "type": "address"
        }
      ],
      "stateMutability": "view",
      "type": "function"
    },
    {
      "inputs": [
        {
          "internalType": "bytes32",
          "name": "role",
          "type": "bytes32"
        },
        {
          "internalType": "address",
          "name": "account",
          "type": "address"
        }
      ],
      "name": "renounceRole",
      "outputs": [],
      "stateMutability": "nonpayable",
      "type": "function"
    },
    {
      "inputs": [
        {
          "internalType": "bytes32",
          "name": "role",
          "type": "bytes32"
        },
        {
          "internalType": "address",
          "name": "account",
          "type": "address"
        }
      ],
      "name": "revokeRole",
      "outputs": [],
      "stateMutability": "nonpayable",
      "type": "function"
    },
    {
      "inputs": [],
      "name": "royalty",
      "outputs": [
        {
          "internalType": "uint256",
          "name": "",
          "type": "uint256"
        }
      ],
      "stateMutability": "view",
      "type": "function"
    },
    {
      "inputs": [
        {
          "internalType": "uint256",
          "name": "_tokenId",
          "type": "uint256"
        },
        {
          "internalType": "uint256",
          "name": "_salePrice",
          "type": "uint256"
        }
      ],
      "name": "royaltyInfo",
      "outputs": [
        {
          "internalType": "address",
          "name": "",
          "type": "address"
        },
        {
          "internalType": "uint256",
          "name": "",
          "type": "uint256"
        }
      ],
      "stateMutability": "view",
      "type": "function"
    },
    {
      "inputs": [
        {
          "internalType": "address",
          "name": "from",
          "type": "address"
        },
        {
          "internalType": "address",
          "name": "to",
          "type": "address"
        },
        {
          "internalType": "uint256",
          "name": "tokenId",
          "type": "uint256"
        }
      ],
      "name": "safeTransferFrom",
      "outputs": [],
      "stateMutability": "nonpayable",
      "type": "function"
    },
    {
      "inputs": [
        {
          "internalType": "address",
          "name": "from",
          "type": "address"
        },
        {
          "internalType": "address",
          "name": "to",
          "type": "address"
        },
        {
          "internalType": "uint256",
          "name": "tokenId",
          "type": "uint256"
        },
        {
          "internalType": "bytes",
          "name": "_data",
          "type": "bytes"
        }
      ],
      "name": "safeTransferFrom",
      "outputs": [],
      "stateMutability": "nonpayable",
      "type": "function"
    },
    {
      "inputs": [
        {
          "internalType": "address",
          "name": "operator",
          "type": "address"
        },
        {
          "internalType": "bool",
          "name": "approved",
          "type": "bool"
        }
      ],
      "name": "setApprovalForAll",
      "outputs": [],
      "stateMutability": "nonpayable",
      "type": "function"
    },
    {
      "inputs": [
        {
          "internalType": "address",
          "name": "market",
          "type": "address"
        },
        {
          "internalType": "bool",
          "name": "isMarket",
          "type": "bool"
        }
      ],
      "name": "setMarket",
      "outputs": [],
      "stateMutability": "nonpayable",
      "type": "function"
    },
    {
      "inputs": [
        {
          "internalType": "uint256",
          "name": "_tokenId",
          "type": "uint256"
        },
        {
          "internalType": "address payable",
          "name": "_receiver",
          "type": "address"
        }
      ],
      "name": "setRoyaltyInfo",
      "outputs": [],
      "stateMutability": "nonpayable",
      "type": "function"
    },
    {
      "inputs": [
        {
          "internalType": "string",
          "name": "source",
          "type": "string"
        }
      ],
      "name": "stringToBytes32",
      "outputs": [
        {
          "internalType": "bytes32",
          "name": "result",
          "type": "bytes32"
        }
      ],
      "stateMutability": "pure",
      "type": "function"
    },
    {
      "inputs": [
        {
          "internalType": "bytes4",
          "name": "interfaceId",
          "type": "bytes4"
        }
      ],
      "name": "supportsInterface",
      "outputs": [
        {
          "internalType": "bool",
          "name": "itSupports",
          "type": "bool"
        }
      ],
      "stateMutability": "view",
      "type": "function"
    },
    {
      "inputs": [],
      "name": "symbol",
      "outputs": [
        {
          "internalType": "string",
          "name": "",
          "type": "string"
        }
      ],
      "stateMutability": "view",
      "type": "function"
    },
    {
      "inputs": [
        {
          "internalType": "uint256",
          "name": "index",
          "type": "uint256"
        }
      ],
      "name": "tokenByIndex",
      "outputs": [
        {
          "internalType": "uint256",
          "name": "",
          "type": "uint256"
        }
      ],
      "stateMutability": "view",
      "type": "function"
    },
    {
      "inputs": [
        {
          "internalType": "address",
          "name": "owner",
          "type": "address"
        },
        {
          "internalType": "uint256",
          "name": "index",
          "type": "uint256"
        }
      ],
      "name": "tokenOfOwnerByIndex",
      "outputs": [
        {
          "internalType": "uint256",
          "name": "",
          "type": "uint256"
        }
      ],
      "stateMutability": "view",
      "type": "function"
    },
    {
      "inputs": [
        {
          "internalType": "uint256",
          "name": "tokenId",
          "type": "uint256"
        }
      ],
      "name": "tokenURI",
      "outputs": [
        {
          "internalType": "string",
          "name": "URI",
          "type": "string"
        }
      ],
      "stateMutability": "view",
      "type": "function"
    },
    {
      "inputs": [],
      "name": "totalSupply",
      "outputs": [
        {
          "internalType": "uint256",
          "name": "",
          "type": "uint256"
        }
      ],
      "stateMutability": "view",
      "type": "function"
    },
    {
      "inputs": [
        {
          "internalType": "address",
          "name": "from",
          "type": "address"
        },
        {
          "internalType": "address",
          "name": "to",
          "type": "address"
        },
        {
          "internalType": "uint256",
          "name": "tokenId",
          "type": "uint256"
        }
      ],
      "name": "transferFrom",
      "outputs": [],
      "stateMutability": "nonpayable",
      "type": "function"
    }
  ],
  "bytecode": "0x60806040523480156200001157600080fd5b5060405162003461380380620034618339810160408190526200003491620004ab565b604080518082018252601581527f5261726543616e64793344204f726967696e616c7300000000000000000000006020808301918252835180850190945260058452645243332d4f60d81b908401528151919291620000969160029162000405565b508051620000ac90600390602084019062000405565b50508151620000c49150601290602084019062000405565b50620000d260008362000282565b620000fe7fa49807205ce4d355092ef5a8a18f56e8913cf4a201fbe287825b095693c217758362000282565b6200012a7f9f2df0fed2c77648de5860a4cc508cd0818c85b8b8a1ab4ceeef8d981c8956a68362000282565b600e620001586040518060400160405280600381526020016210549560ea1b8152506200029260201b60201c565b8154600181018355600092835260209283902001556040805180820190915260058152644d5553494360d81b91810191909152600e90620001999062000292565b8154600181018355600092835260209283902001556040805180820190915260078152662320a9a424a7a760c91b91810191909152600e90620001dc9062000292565b81546001810183556000928352602092839020015560408051808201909152600881526714121654d250d05360c21b918101919091526200021d9062000292565b600f55604080518082019091526007815266111251d255105360ca1b6020820152620002499062000292565b60105560408051808201909152600881526714121651d255105360c21b6020820152620002769062000292565b60115550620005fe9050565b6200028e8282620002b0565b5050565b80516000908290620002a75750600092915050565b50506020015190565b620002c78282620002f360201b620011511760201c565b6000828152600160209081526040909120620002ee918390620011d562000393821b17901c565b505050565b6000828152602081815260408083206001600160a01b038516845290915290205460ff166200028e576000828152602081815260408083206001600160a01b03851684529091529020805460ff191660011790556200034f3390565b6001600160a01b0316816001600160a01b0316837f2f8788117e7eff1d82e926ec794901d17c78024a50270940304540a733656f0d60405160405180910390a45050565b6000620003aa836001600160a01b038416620003b3565b90505b92915050565b6000818152600183016020526040812054620003fc57508154600181810184556000848152602080822090930184905584548482528286019093526040902091909155620003ad565b506000620003ad565b8280546200041390620005ab565b90600052602060002090601f01602090048101928262000437576000855562000482565b82601f106200045257805160ff191683800117855562000482565b8280016001018555821562000482579182015b828111156200048257825182559160200191906001019062000465565b506200049092915062000494565b5090565b5b8082111562000490576000815560010162000495565b60008060408385031215620004bf57600080fd5b82516001600160a01b0381168114620004d757600080fd5b602084810151919350906001600160401b0380821115620004f757600080fd5b818601915086601f8301126200050c57600080fd5b815181811115620005215762000521620005e8565b604051601f8201601f19908116603f011681019083821181831017156200054c576200054c620005e8565b8160405282815289868487010111156200056557600080fd5b600093505b828410156200058957848401860151818501870152928501926200056a565b828411156200059b5760008684830101525b8096505050505050509250929050565b600181811c90821680620005c057607f821691505b60208210811415620005e257634e487b7160e01b600052602260045260246000fd5b50919050565b634e487b7160e01b600052604160045260246000fd5b612e53806200060e6000396000f3fe608060405234801561001057600080fd5b50600436106101d85760003560e01c806301ffc9a7146101dd57806306fdde0314610205578063081812fc1461021a578063095ea7b31461024557806315bcf9b71461025a57806318160ddd1461026d5780631a3cd59a1461027f57806323b872dd146102bd578063248a9ca3146102d057806329ee566c146102e35780632a55205a146102ec5780632f2ff15d1461031e5780632f745c591461033157806336568abe1461034457806342842e0e1461035757806342966c681461036a5780634461b3841461037d5780634f6ccce7146103905780636352211e146103a357806370a08231146103b657806375b238fc146103c95780639010d07c146103de57806391d14854146103f15780639201de551461040457806395d89b4114610417578063a217fddf1461041f578063a22cb46514610427578063a2e696131461043a578063b318de491461044d578063b5de3d1414610460578063b88d4fde14610473578063c6cdbe5e14610486578063c87b56dd14610499578063ca15c873146104ac578063cfb51928146104bf578063d5391393146104d2578063d547741f146104e7578063d547cfb7146104fa578063e80bc6e114610502578063e985e9c514610525575b600080fd5b6101f06101eb366004612949565b610538565b60405190151581526020015b60405180910390f35b61020d610563565b6040516101fc9190612b1c565b61022d6102283660046128e9565b6105f5565b6040516001600160a01b0390911681526020016101fc565b6102586102533660046128bd565b610682565b005b61025861026836600461288a565b610793565b600b545b6040519081526020016101fc565b61029261028d3660046128e9565b610899565b6040805182516001600160a01b031681526020808401519082015291810151908201526060016101fc565b6102586102cb3660046127ca565b61091d565b6102716102de3660046128e9565b61094f565b6102716105dc81565b6102ff6102fa366004612927565b610964565b604080516001600160a01b0390931683526020830191909152016101fc565b61025861032c366004612902565b610992565b61027161033f3660046128bd565b6109ae565b610258610352366004612902565b610a44565b6102586103653660046127ca565b610ac2565b6102586103783660046128e9565b610add565b61027161038b3660046129b7565b610b57565b61027161039e3660046128e9565b610c64565b61022d6103b13660046128e9565b610cf7565b6102716103c4366004612774565b610d6e565b610271600080516020612e2783398151915281565b61022d6103ec366004612927565b610df5565b6101f06103ff366004612902565b610e14565b61020d6104123660046128e9565b610e3d565b61020d610f6c565b610271600081565b61025861043536600461288a565b610f7b565b6102716104483660046128e9565b610f86565b61027161045b3660046128e9565b610fa1565b61025861046e366004612902565b610fb8565b61025861048136600461280b565b611060565b6102716104943660046128e9565b611098565b61020d6104a73660046128e9565b6110b9565b6102716104ba3660046128e9565b6110c4565b6102716104cd366004612983565b6110db565b610271600080516020612de783398151915281565b6102586104f5366004612902565b6110f8565b61020d611114565b6101f0610510366004612774565b60146020526000908152604090205460ff1681565b6101f0610533366004612791565b611123565b600063152a902d60e11b6001600160e01b03198316148061055d575061055d826111ea565b92915050565b60606002805461057290612cc3565b80601f016020809104026020016040519081016040528092919081815260200182805461059e90612cc3565b80156105eb5780601f106105c0576101008083540402835291602001916105eb565b820191906000526020600020905b8154815290600101906020018083116105ce57829003601f168201915b5050505050905090565b60006106008261120f565b6106665760405162461bcd60e51b815260206004820152602c60248201527f4552433732313a20617070726f76656420717565727920666f72206e6f6e657860448201526b34b9ba32b73a103a37b5b2b760a11b60648201526084015b60405180910390fd5b506000908152600660205260409020546001600160a01b031690565b600061068d82610cf7565b9050806001600160a01b0316836001600160a01b031614156106fb5760405162461bcd60e51b815260206004820152602160248201527f4552433732313a20617070726f76616c20746f2063757272656e74206f776e656044820152603960f91b606482015260840161065d565b336001600160a01b038216148061071757506107178133611123565b6107845760405162461bcd60e51b815260206004820152603860248201527f4552433732313a20617070726f76652063616c6c6572206973206e6f74206f776044820152771b995c881b9bdc88185c1c1c9bdd995908199bdc88185b1b60421b606482015260840161065d565b61078e838361122c565b505050565b61079e600033610e14565b806107bc57506107bc600080516020612e2783398151915233610e14565b6107f55760405162461bcd60e51b815260206004820152600a60248201526941444d494e5f4f4e4c5960b01b604482015260640161065d565b6001600160a01b03821661083a5760405162461bcd60e51b815260206004820152600c60248201526b5a45524f5f4144445245535360a01b604482015260640161065d565b6001600160a01b038216600081815260146020908152604091829020805460ff191685151590811790915591519182527f497d1799a068d52587e2c92131b971faa22ba31099f30bab68d1cc2b875ff291910160405180910390a25050565b60408051606081018252600080825260208201819052918101919091526108bf8261120f565b6108db5760405162461bcd60e51b815260040161065d90612b81565b50600090815260136020908152604091829020825160608101845281546001600160a01b03168152600182015492810192909252600201549181019190915290565b610928335b8261129a565b6109445760405162461bcd60e51b815260040161065d90612bcd565b61078e83838361134e565b60009081526020819052604090206001015490565b60008281526013602052604081205481906001600160a01b031661098784610f86565b915091509250929050565b61099b8261094f565b6109a4816114e3565b61078e83836114ed565b60006109b983610d6e565b8210610a1b5760405162461bcd60e51b815260206004820152602b60248201527f455243373231456e756d657261626c653a206f776e657220696e646578206f7560448201526a74206f6620626f756e647360a81b606482015260840161065d565b506001600160a01b03919091166000908152600960209081526040808320938352929052205490565b6001600160a01b0381163314610ab45760405162461bcd60e51b815260206004820152602f60248201527f416363657373436f6e74726f6c3a2063616e206f6e6c792072656e6f756e636560448201526e103937b632b9903337b91039b2b63360891b606482015260840161065d565b610abe828261150f565b5050565b61078e83838360405180602001604052806000815250611060565b610ae633610922565b610b4b5760405162461bcd60e51b815260206004820152603060248201527f4552433732314275726e61626c653a2063616c6c6572206973206e6f74206f7760448201526f1b995c881b9bdc88185c1c1c9bdd995960821b606482015260840161065d565b610b5481611531565b50565b60008282610b658282611561565b610b7d600080516020612de783398151915233610e14565b610bb75760405162461bcd60e51b815260206004820152600b60248201526a4d494e5445525f4f4e4c5960a81b604482015260640161065d565b610bc5600d80546001019055565b600d549250610bd48388611688565b600083815260136020526040902080546001600160a01b0319166001600160a01b03881617815560018101859055600201859055610c128684611713565b604080518481526020810187905285916001600160a01b0389169133917f14f27be66e5bf44818afdcf2f82fcf6698f7b2c7973205e98aef7ae7267e0eac910160405180910390a45050949350505050565b6000610c6f600b5490565b8210610cd25760405162461bcd60e51b815260206004820152602c60248201527f455243373231456e756d657261626c653a20676c6f62616c20696e646578206f60448201526b7574206f6620626f756e647360a01b606482015260840161065d565b600b8281548110610ce557610ce5612d8f565b90600052602060002001549050919050565b6000818152600460205260408120546001600160a01b03168061055d5760405162461bcd60e51b815260206004820152602960248201527f4552433732313a206f776e657220717565727920666f72206e6f6e657869737460448201526832b73a103a37b5b2b760b91b606482015260840161065d565b60006001600160a01b038216610dd95760405162461bcd60e51b815260206004820152602a60248201527f4552433732313a2062616c616e636520717565727920666f7220746865207a65604482015269726f206164647265737360b01b606482015260840161065d565b506001600160a01b031660009081526005602052604090205490565b6000828152600160205260408120610e0d908361172d565b9392505050565b6000918252602082815260408084206001600160a01b0393909316845291905290205460ff1690565b606060005b60208160ff16108015610e765750828160ff1660208110610e6557610e65612d8f565b1a60f81b6001600160f81b03191615155b15610e8d5780610e8581612d19565b915050610e42565b60008160ff166001600160401b03811115610eaa57610eaa612da5565b6040519080825280601f01601f191660200182016040528015610ed4576020820181803683370190505b509050600091505b60208260ff16108015610f105750838260ff1660208110610eff57610eff612d8f565b1a60f81b6001600160f81b03191615155b15610e0d57838260ff1660208110610f2a57610f2a612d8f565b1a60f81b818360ff1681518110610f4357610f43612d8f565b60200101906001600160f81b031916908160001a90535081610f6481612d19565b925050610edc565b60606003805461057290612cc3565b610abe338383611739565b6000612710610f976105dc84612c4a565b61055d9190612c36565b600f8160038110610fb157600080fd5b0154905081565b600082815260136020526040902080546001600160a01b031633146110155760405162461bcd60e51b81526020600482015260136024820152722aa720aaaa2427a924ad22a22fa1a0a62622a960691b604482015260640161065d565b80546001600160a01b0319166001600160a01b038316908117825560405133907fef8f0d5f16a5283d66ae7e12801103421d077cfa56a9afe9c2b066459e3a231690600090a3505050565b61106a338361129a565b6110865760405162461bcd60e51b815260040161065d90612bcd565b61109284848484611804565b50505050565b600e81815481106110a857600080fd5b600091825260209091200154905081565b606061055d82611837565b600081815260016020526040812061055d90611999565b805160009082906110ef5750600092915050565b50506020015190565b6111018261094f565b61110a816114e3565b61078e838361150f565b606061111e6119a3565b905090565b6001600160a01b03918216600090815260076020908152604080832093909416825291909152205460ff1690565b61115b8282610e14565b610abe576000828152602081815260408083206001600160a01b03851684529091529020805460ff191660011790556111913390565b6001600160a01b0316816001600160a01b0316837f2f8788117e7eff1d82e926ec794901d17c78024a50270940304540a733656f0d60405160405180910390a45050565b6000610e0d836001600160a01b0384166119b2565b60006001600160e01b0319821663780e9d6360e01b148061055d575061055d82611a01565b6000908152600460205260409020546001600160a01b0316151590565b600081815260066020526040902080546001600160a01b0319166001600160a01b038416908117909155819061126182610cf7565b6001600160a01b03167f8c5be1e5ebec7d5bd14f71427d1e84f3dd0314c0f7b2291e5b200ac8c7c3b92560405160405180910390a45050565b60006112a68383611a41565b90506112b18261120f565b6112cd5760405162461bcd60e51b815260040161065d90612b81565b60006112d883610cf7565b9050806001600160a01b0316846001600160a01b031614806113135750836001600160a01b0316611308846105f5565b6001600160a01b0316145b8061132357506113238185611123565b8061134657506001600160a01b03841660009081526014602052604090205460ff165b949350505050565b826001600160a01b031661136182610cf7565b6001600160a01b0316146113c55760405162461bcd60e51b815260206004820152602560248201527f4552433732313a207472616e736665722066726f6d20696e636f72726563742060448201526437bbb732b960d91b606482015260840161065d565b6001600160a01b0382166114275760405162461bcd60e51b8152602060048201526024808201527f4552433732313a207472616e7366657220746f20746865207a65726f206164646044820152637265737360e01b606482015260840161065d565b611432838383611ac5565b61143d60008261122c565b6001600160a01b0383166000908152600560205260408120805460019290611466908490612c69565b90915550506001600160a01b0382166000908152600560205260408120805460019290611494908490612c1e565b909155505060008181526004602052604080822080546001600160a01b0319166001600160a01b038681169182179092559151849391871691600080516020612e0783398151915291a4505050565b610b548133611ad0565b6114f78282611151565b600082815260016020526040902061078e90826111d5565b6115198282611b34565b600082815260016020526040902061078e9082611b99565b600081815260136020526040812080546001600160a01b03191681556001810182905560020155610b5481611bae565b6000805b60038110156115a7576000600f826003811061158357611583612d8f565b015490508381141561159457600192505b508061159f81612cfe565b915050611565565b50806115e95760405162461bcd60e51b81526020600482015260116024820152704f4e4c595f56414c49445f4e415455524560781b604482015260640161065d565b600e54600090815b8181101561163b576000600e828154811061160e5761160e612d8f565b906000526020600020015490508681141561162857600193505b508061163381612cfe565b9150506115f1565b50816116815760405162461bcd60e51b81526020600482015260156024820152744f4e4c595f435245415445445f43415445474f525960581b604482015260640161065d565b5050505050565b6116918261120f565b6116f45760405162461bcd60e51b815260206004820152602e60248201527f45524337323155524953746f726167653a2055524920736574206f66206e6f6e60448201526d32bc34b9ba32b73a103a37b5b2b760911b606482015260840161065d565b6000828152600860209081526040909120825161078e92840190612610565b610abe828260405180602001604052806000815250611bee565b6000610e0d8383611c21565b816001600160a01b0316836001600160a01b031614156117975760405162461bcd60e51b815260206004820152601960248201527822a9219b99189d1030b8383937bb32903a379031b0b63632b960391b604482015260640161065d565b6001600160a01b03838116600081815260076020908152604080832094871680845294825291829020805460ff191686151590811790915591519182527f17307eab39ab6107e8899845ad3d59bd9653f200f220920489ca2b5937696c31910160405180910390a3505050565b61180f84848461134e565b61181b84848484611c4b565b6110925760405162461bcd60e51b815260040161065d90612b2f565b60606118428261120f565b6118a85760405162461bcd60e51b815260206004820152603160248201527f45524337323155524953746f726167653a2055524920717565727920666f72206044820152703737b732bc34b9ba32b73a103a37b5b2b760791b606482015260840161065d565b600082815260086020526040812080546118c190612cc3565b80601f01602080910402602001604051908101604052809291908181526020018280546118ed90612cc3565b801561193a5780601f1061190f5761010080835404028352916020019161193a565b820191906000526020600020905b81548152906001019060200180831161191d57829003601f168201915b50505050509050600061194b6119a3565b905080516000141561195e575092915050565b815115611990578082604051602001611978929190612a41565b60405160208183030381529060405292505050919050565b61134684611d58565b600061055d825490565b60606012805461057290612cc3565b60008181526001830160205260408120546119f95750815460018181018455600084815260208082209093018490558454848252828601909352604090209190915561055d565b50600061055d565b60006001600160e01b031982166380ac58cd60e01b1480611a3257506001600160e01b03198216635b5e139f60e01b145b8061055d575061055d82611e22565b6000611a4c8261120f565b611a685760405162461bcd60e51b815260040161065d90612b81565b6000611a7383610cf7565b9050806001600160a01b0316846001600160a01b03161480611a9a5750611a9a8185611123565b806113465750836001600160a01b0316611ab3846105f5565b6001600160a01b031614949350505050565b61078e838383611e47565b611ada8282610e14565b610abe57611af2816001600160a01b03166014611eff565b611afd836020611eff565b604051602001611b0e929190612a70565b60408051601f198184030181529082905262461bcd60e51b825261065d91600401612b1c565b611b3e8282610e14565b15610abe576000828152602081815260408083206001600160a01b0385168085529252808320805460ff1916905551339285917ff6391f5c32d9c69d2a47ea670b442974b53935d1edc7fd64eb21e047a839171b9190a45050565b6000610e0d836001600160a01b03841661209a565b611bb78161218d565b60008181526008602052604090208054611bd090612cc3565b159050610b54576000818152600860205260408120610b5491612694565b611bf88383612222565b611c056000848484611c4b565b61078e5760405162461bcd60e51b815260040161065d90612b2f565b6000826000018281548110611c3857611c38612d8f565b9060005260206000200154905092915050565b60006001600160a01b0384163b15611d4d57604051630a85bd0160e11b81526001600160a01b0385169063150b7a0290611c8f903390899088908890600401612adf565b602060405180830381600087803b158015611ca957600080fd5b505af1925050508015611cd9575060408051601f3d908101601f19168201909252611cd691810190612966565b60015b611d33573d808015611d07576040519150601f19603f3d011682016040523d82523d6000602084013e611d0c565b606091505b508051611d2b5760405162461bcd60e51b815260040161065d90612b2f565b805181602001fd5b6001600160e01b031916630a85bd0160e11b149050611346565b506001949350505050565b6060611d638261120f565b611dc75760405162461bcd60e51b815260206004820152602f60248201527f4552433732314d657461646174613a2055524920717565727920666f72206e6f60448201526e3732bc34b9ba32b73a103a37b5b2b760891b606482015260840161065d565b6000611dd16119a3565b90506000815111611df15760405180602001604052806000815250610e0d565b80611dfb8461234e565b604051602001611e0c929190612a41565b6040516020818303038152906040529392505050565b60006001600160e01b03198216635a05180f60e01b148061055d575061055d8261244b565b6001600160a01b038316611ea257611e9d81600b80546000838152600c60205260408120829055600182018355919091527f0175b7a638427703f0dbe7bb9bbf987a2551717b34e79f33b5b1008d1fa01db90155565b611ec5565b816001600160a01b0316836001600160a01b031614611ec557611ec58382612480565b6001600160a01b038216611edc5761078e8161251d565b826001600160a01b0316826001600160a01b03161461078e5761078e82826125cc565b60606000611f0e836002612c4a565b611f19906002612c1e565b6001600160401b03811115611f3057611f30612da5565b6040519080825280601f01601f191660200182016040528015611f5a576020820181803683370190505b509050600360fc1b81600081518110611f7557611f75612d8f565b60200101906001600160f81b031916908160001a905350600f60fb1b81600181518110611fa457611fa4612d8f565b60200101906001600160f81b031916908160001a9053506000611fc8846002612c4a565b611fd3906001612c1e565b90505b600181111561204b576f181899199a1a9b1b9c1cb0b131b232b360811b85600f166010811061200757612007612d8f565b1a60f81b82828151811061201d5761201d612d8f565b60200101906001600160f81b031916908160001a90535060049490941c9361204481612cac565b9050611fd6565b508315610e0d5760405162461bcd60e51b815260206004820181905260248201527f537472696e67733a20686578206c656e67746820696e73756666696369656e74604482015260640161065d565b600081815260018301602052604081205480156121835760006120be600183612c69565b85549091506000906120d290600190612c69565b90508181146121375760008660000182815481106120f2576120f2612d8f565b906000526020600020015490508087600001848154811061211557612115612d8f565b6000918252602080832090910192909255918252600188019052604090208390555b855486908061214857612148612d79565b60019003818190600052602060002001600090559055856001016000868152602001908152602001600020600090556001935050505061055d565b600091505061055d565b600061219882610cf7565b90506121a681600084611ac5565b6121b160008361122c565b6001600160a01b03811660009081526005602052604081208054600192906121da908490612c69565b909155505060008281526004602052604080822080546001600160a01b0319169055518391906001600160a01b03841690600080516020612e07833981519152908390a45050565b6001600160a01b0382166122785760405162461bcd60e51b815260206004820181905260248201527f4552433732313a206d696e7420746f20746865207a65726f2061646472657373604482015260640161065d565b6122818161120f565b156122cd5760405162461bcd60e51b815260206004820152601c60248201527b115490cdcc8c4e881d1bdad95b88185b1c9958591e481b5a5b9d195960221b604482015260640161065d565b6122d960008383611ac5565b6001600160a01b0382166000908152600560205260408120805460019290612302908490612c1e565b909155505060008181526004602052604080822080546001600160a01b0319166001600160a01b0386169081179091559051839290600080516020612e07833981519152908290a45050565b6060816123725750506040805180820190915260018152600360fc1b602082015290565b8160005b811561239c578061238681612cfe565b91506123959050600a83612c36565b9150612376565b6000816001600160401b038111156123b6576123b6612da5565b6040519080825280601f01601f1916602001820160405280156123e0576020820181803683370190505b5090505b8415611346576123f5600183612c69565b9150612402600a86612d39565b61240d906030612c1e565b60f81b81838151811061242257612422612d8f565b60200101906001600160f81b031916908160001a905350612444600a86612c36565b94506123e4565b60006001600160e01b03198216637965db0b60e01b148061055d57506301ffc9a760e01b6001600160e01b031983161461055d565b6000600161248d84610d6e565b6124979190612c69565b6000838152600a60205260409020549091508082146124ea576001600160a01b03841660009081526009602090815260408083208584528252808320548484528184208190558352600a90915290208190555b506000918252600a602090815260408084208490556001600160a01b039094168352600981528383209183525290812055565b600b5460009061252f90600190612c69565b6000838152600c6020526040812054600b805493945090928490811061255757612557612d8f565b9060005260206000200154905080600b838154811061257857612578612d8f565b6000918252602080832090910192909255828152600c9091526040808220849055858252812055600b8054806125b0576125b0612d79565b6001900381819060005260206000200160009055905550505050565b60006125d783610d6e565b6001600160a01b0390931660009081526009602090815260408083208684528252808320859055938252600a9052919091209190915550565b82805461261c90612cc3565b90600052602060002090601f01602090048101928261263e5760008555612684565b82601f1061265757805160ff1916838001178555612684565b82800160010185558215612684579182015b82811115612684578251825591602001919060010190612669565b506126909291506126ca565b5090565b5080546126a090612cc3565b6000825580601f106126b0575050565b601f016020900490600052602060002090810190610b5491905b5b8082111561269057600081556001016126cb565b60006001600160401b03808411156126f9576126f9612da5565b604051601f8501601f19908116603f0116810190828211818310171561272157612721612da5565b8160405280935085815286868601111561273a57600080fd5b858560208301376000602087830101525050509392505050565b600082601f83011261276557600080fd5b610e0d838335602085016126df565b60006020828403121561278657600080fd5b8135610e0d81612dbb565b600080604083850312156127a457600080fd5b82356127af81612dbb565b915060208301356127bf81612dbb565b809150509250929050565b6000806000606084860312156127df57600080fd5b83356127ea81612dbb565b925060208401356127fa81612dbb565b929592945050506040919091013590565b6000806000806080858703121561282157600080fd5b843561282c81612dbb565b9350602085013561283c81612dbb565b92506040850135915060608501356001600160401b0381111561285e57600080fd5b8501601f8101871361286f57600080fd5b61287e878235602084016126df565b91505092959194509250565b6000806040838503121561289d57600080fd5b82356128a881612dbb565b9150602083013580151581146127bf57600080fd5b600080604083850312156128d057600080fd5b82356128db81612dbb565b946020939093013593505050565b6000602082840312156128fb57600080fd5b5035919050565b6000806040838503121561291557600080fd5b8235915060208301356127bf81612dbb565b6000806040838503121561293a57600080fd5b50508035926020909101359150565b60006020828403121561295b57600080fd5b8135610e0d81612dd0565b60006020828403121561297857600080fd5b8151610e0d81612dd0565b60006020828403121561299557600080fd5b81356001600160401b038111156129ab57600080fd5b61134684828501612754565b600080600080608085870312156129cd57600080fd5b84356001600160401b038111156129e357600080fd5b6129ef87828801612754565b9450506020850135612a0081612dbb565b93969395505050506040820135916060013590565b60008151808452612a2d816020860160208601612c80565b601f01601f19169290920160200192915050565b60008351612a53818460208801612c80565b835190830190612a67818360208801612c80565b01949350505050565b76020b1b1b2b9b9a1b7b73a3937b61d1030b1b1b7bab73a1604d1b815260008351612aa2816017850160208801612c80565b7001034b99036b4b9b9b4b733903937b6329607d1b6017918401918201528351612ad3816028840160208801612c80565b01602801949350505050565b6001600160a01b0385811682528416602082015260408101839052608060608201819052600090612b1290830184612a15565b9695505050505050565b602081526000610e0d6020830184612a15565b60208082526032908201527f4552433732313a207472616e7366657220746f206e6f6e20455243373231526560408201527131b2b4bb32b91034b6b83632b6b2b73a32b960711b606082015260800190565b6020808252602c908201527f4552433732313a206f70657261746f7220717565727920666f72206e6f6e657860408201526b34b9ba32b73a103a37b5b2b760a11b606082015260800190565b60208082526031908201527f4552433732313a207472616e736665722063616c6c6572206973206e6f74206f6040820152701ddb995c881b9bdc88185c1c1c9bdd9959607a1b606082015260800190565b60008219821115612c3157612c31612d4d565b500190565b600082612c4557612c45612d63565b500490565b6000816000190483118215151615612c6457612c64612d4d565b500290565b600082821015612c7b57612c7b612d4d565b500390565b60005b83811015612c9b578181015183820152602001612c83565b838111156110925750506000910152565b600081612cbb57612cbb612d4d565b506000190190565b600181811c90821680612cd757607f821691505b60208210811415612cf857634e487b7160e01b600052602260045260246000fd5b50919050565b6000600019821415612d1257612d12612d4d565b5060010190565b600060ff821660ff811415612d3057612d30612d4d565b60010192915050565b600082612d4857612d48612d63565b500690565b634e487b7160e01b600052601160045260246000fd5b634e487b7160e01b600052601260045260246000fd5b634e487b7160e01b600052603160045260246000fd5b634e487b7160e01b600052603260045260246000fd5b634e487b7160e01b600052604160045260246000fd5b6001600160a01b0381168114610b5457600080fd5b6001600160e01b031981168114610b5457600080fdfe9f2df0fed2c77648de5860a4cc508cd0818c85b8b8a1ab4ceeef8d981c8956a6ddf252ad1be2c89b69c2b068fc378daa952ba7f163c4a11628f55a4df523b3efa49807205ce4d355092ef5a8a18f56e8913cf4a201fbe287825b095693c21775a164736f6c6343000806000a",
  "linkReferences": {},
  "deployedLinkReferences": {}
}