{
  "_format": "hh-sol-artifact-1",
  "contractName": "RC3_Originals",
  "sourceName": "contracts/RC3_Originals.sol",
  "abi": [
    {
      "inputs": [
        {
          "internalType": "address",
          "name": "_defaultAdmin",
          "type": "address"
        },
        {
          "internalType": "string",
          "name": "uri",
          "type": "string"
        }
      ],
      "stateMutability": "nonpayable",
      "type": "constructor"
    },
    {
      "anonymous": false,
      "inputs": [
        {
          "indexed": true,
          "internalType": "address",
          "name": "owner",
          "type": "address"
        },
        {
          "indexed": true,
          "internalType": "address",
          "name": "approved",
          "type": "address"
        },
        {
          "indexed": true,
          "internalType": "uint256",
          "name": "tokenId",
          "type": "uint256"
        }
      ],
      "name": "Approval",
      "type": "event"
    },
    {
      "anonymous": false,
      "inputs": [
        {
          "indexed": true,
          "internalType": "address",
          "name": "owner",
          "type": "address"
        },
        {
          "indexed": true,
          "internalType": "address",
          "name": "operator",
          "type": "address"
        },
        {
          "indexed": false,
          "internalType": "bool",
          "name": "approved",
          "type": "bool"
        }
      ],
      "name": "ApprovalForAll",
      "type": "event"
    },
    {
      "anonymous": false,
      "inputs": [
        {
          "indexed": true,
          "internalType": "address",
          "name": "market",
          "type": "address"
        },
        {
          "indexed": false,
          "internalType": "bool",
          "name": "isMarket",
          "type": "bool"
        }
      ],
      "name": "MarketUpdated",
      "type": "event"
    },
    {
      "anonymous": false,
      "inputs": [
        {
          "indexed": true,
          "internalType": "address",
          "name": "admin",
          "type": "address"
        },
        {
          "indexed": false,
          "internalType": "uint256",
          "name": "tokenId",
          "type": "uint256"
        },
        {
          "indexed": true,
          "internalType": "address",
          "name": "creator",
          "type": "address"
        },
        {
          "indexed": false,
          "internalType": "bytes32",
          "name": "category",
          "type": "bytes32"
        },
        {
          "indexed": true,
          "internalType": "bytes32",
          "name": "nature",
          "type": "bytes32"
        }
      ],
      "name": "Mint",
      "type": "event"
    },
    {
      "anonymous": false,
      "inputs": [
        {
          "indexed": true,
          "internalType": "bytes32",
          "name": "role",
          "type": "bytes32"
        },
        {
          "indexed": true,
          "internalType": "bytes32",
          "name": "previousAdminRole",
          "type": "bytes32"
        },
        {
          "indexed": true,
          "internalType": "bytes32",
          "name": "newAdminRole",
          "type": "bytes32"
        }
      ],
      "name": "RoleAdminChanged",
      "type": "event"
    },
    {
      "anonymous": false,
      "inputs": [
        {
          "indexed": true,
          "internalType": "bytes32",
          "name": "role",
          "type": "bytes32"
        },
        {
          "indexed": true,
          "internalType": "address",
          "name": "account",
          "type": "address"
        },
        {
          "indexed": true,
          "internalType": "address",
          "name": "sender",
          "type": "address"
        }
      ],
      "name": "RoleGranted",
      "type": "event"
    },
    {
      "anonymous": false,
      "inputs": [
        {
          "indexed": true,
          "internalType": "bytes32",
          "name": "role",
          "type": "bytes32"
        },
        {
          "indexed": true,
          "internalType": "address",
          "name": "account",
          "type": "address"
        },
        {
          "indexed": true,
          "internalType": "address",
          "name": "sender",
          "type": "address"
        }
      ],
      "name": "RoleRevoked",
      "type": "event"
    },
    {
      "anonymous": false,
      "inputs": [
        {
          "indexed": true,
          "internalType": "address",
          "name": "caller",
          "type": "address"
        },
        {
          "indexed": true,
          "internalType": "address",
          "name": "receiver",
          "type": "address"
        }
      ],
      "name": "RoyaltyInfoUpdated",
      "type": "event"
    },
    {
      "anonymous": false,
      "inputs": [
        {
          "indexed": true,
          "internalType": "address",
          "name": "from",
          "type": "address"
        },
        {
          "indexed": true,
          "internalType": "address",
          "name": "to",
          "type": "address"
        },
        {
          "indexed": true,
          "internalType": "uint256",
          "name": "tokenId",
          "type": "uint256"
        }
      ],
      "name": "Transfer",
      "type": "event"
    },
    {
      "inputs": [],
      "name": "ADMIN_ROLE",
      "outputs": [
        {
          "internalType": "bytes32",
          "name": "",
          "type": "bytes32"
        }
      ],
      "stateMutability": "view",
      "type": "function"
    },
    {
      "inputs": [],
      "name": "DEFAULT_ADMIN_ROLE",
      "outputs": [
        {
          "internalType": "bytes32",
          "name": "",
          "type": "bytes32"
        }
      ],
      "stateMutability": "view",
      "type": "function"
    },
    {
      "inputs": [],
      "name": "MINTER_ROLE",
      "outputs": [
        {
          "internalType": "bytes32",
          "name": "",
          "type": "bytes32"
        }
      ],
      "stateMutability": "view",
      "type": "function"
    },
    {
      "inputs": [
        {
          "internalType": "address",
          "name": "to",
          "type": "address"
        },
        {
          "internalType": "uint256",
          "name": "tokenId",
          "type": "uint256"
        }
      ],
      "name": "approve",
      "outputs": [],
      "stateMutability": "nonpayable",
      "type": "function"
    },
    {
      "inputs": [
        {
          "internalType": "address",
          "name": "owner",
          "type": "address"
        }
      ],
      "name": "balanceOf",
      "outputs": [
        {
          "internalType": "uint256",
          "name": "",
          "type": "uint256"
        }
      ],
      "stateMutability": "view",
      "type": "function"
    },
    {
      "inputs": [],
      "name": "baseTokenURI",
      "outputs": [
        {
          "internalType": "string",
          "name": "",
          "type": "string"
        }
      ],
      "stateMutability": "view",
      "type": "function"
    },
    {
      "inputs": [
        {
          "internalType": "uint256",
          "name": "tokenId",
          "type": "uint256"
        }
      ],
      "name": "burn",
      "outputs": [],
      "stateMutability": "nonpayable",
      "type": "function"
    },
    {
      "inputs": [
        {
          "internalType": "bytes32",
          "name": "_x",
          "type": "bytes32"
        }
      ],
      "name": "bytes32ToString",
      "outputs": [
        {
          "internalType": "string",
          "name": "result",
          "type": "string"
        }
      ],
      "stateMutability": "pure",
      "type": "function"
    },
    {
      "inputs": [
        {
          "internalType": "uint256",
          "name": "",
          "type": "uint256"
        }
      ],
      "name": "categories",
      "outputs": [
        {
          "internalType": "bytes32",
          "name": "",
          "type": "bytes32"
        }
      ],
      "stateMutability": "view",
      "type": "function"
    },
    {
      "inputs": [
        {
          "internalType": "uint256",
          "name": "tokenId",
          "type": "uint256"
        }
      ],
      "name": "getApproved",
      "outputs": [
        {
          "internalType": "address",
          "name": "",
          "type": "address"
        }
      ],
      "stateMutability": "view",
      "type": "function"
    },
    {
      "inputs": [
        {
          "internalType": "uint256",
          "name": "tokenId",
          "type": "uint256"
        }
      ],
      "name": "getInfo",
      "outputs": [
        {
          "components": [
            {
              "internalType": "address payable",
              "name": "creator",
              "type": "address"
            },
            {
              "internalType": "bytes32",
              "name": "nature",
              "type": "bytes32"
            },
            {
              "internalType": "bytes32",
              "name": "category",
              "type": "bytes32"
            }
          ],
          "internalType": "struct RC3_Originals.Info",
          "name": "info",
          "type": "tuple"
        }
      ],
      "stateMutability": "view",
      "type": "function"
    },
    {
      "inputs": [
        {
          "internalType": "bytes32",
          "name": "role",
          "type": "bytes32"
        }
      ],
      "name": "getRoleAdmin",
      "outputs": [
        {
          "internalType": "bytes32",
          "name": "",
          "type": "bytes32"
        }
      ],
      "stateMutability": "view",
      "type": "function"
    },
    {
      "inputs": [
        {
          "internalType": "bytes32",
          "name": "role",
          "type": "bytes32"
        },
        {
          "internalType": "uint256",
          "name": "index",
          "type": "uint256"
        }
      ],
      "name": "getRoleMember",
      "outputs": [
        {
          "internalType": "address",
          "name": "",
          "type": "address"
        }
      ],
      "stateMutability": "view",
      "type": "function"
    },
    {
      "inputs": [
        {
          "internalType": "bytes32",
          "name": "role",
          "type": "bytes32"
        }
      ],
      "name": "getRoleMemberCount",
      "outputs": [
        {
          "internalType": "uint256",
          "name": "",
          "type": "uint256"
        }
      ],
      "stateMutability": "view",
      "type": "function"
    },
    {
      "inputs": [
        {
          "internalType": "bytes32",
          "name": "role",
          "type": "bytes32"
        },
        {
          "internalType": "address",
          "name": "account",
          "type": "address"
        }
      ],
      "name": "grantRole",
      "outputs": [],
      "stateMutability": "nonpayable",
      "type": "function"
    },
    {
      "inputs": [
        {
          "internalType": "bytes32",
          "name": "role",
          "type": "bytes32"
        },
        {
          "internalType": "address",
          "name": "account",
          "type": "address"
        }
      ],
      "name": "hasRole",
      "outputs": [
        {
          "internalType": "bool",
          "name": "",
          "type": "bool"
        }
      ],
      "stateMutability": "view",
      "type": "function"
    },
    {
      "inputs": [
        {
          "internalType": "address",
          "name": "owner",
          "type": "address"
        },
        {
          "internalType": "address",
          "name": "operator",
          "type": "address"
        }
      ],
      "name": "isApprovedForAll",
      "outputs": [
        {
          "internalType": "bool",
          "name": "",
          "type": "bool"
        }
      ],
      "stateMutability": "view",
      "type": "function"
    },
    {
      "inputs": [
        {
          "internalType": "string",
          "name": "_tokenURI",
          "type": "string"
        },
        {
          "internalType": "address payable",
          "name": "creator",
          "type": "address"
        },
        {
          "internalType": "bytes32",
          "name": "category",
          "type": "bytes32"
        },
        {
          "internalType": "bytes32",
          "name": "nature",
          "type": "bytes32"
        }
      ],
      "name": "mint",
      "outputs": [
        {
          "internalType": "uint256",
          "name": "newItemId",
          "type": "uint256"
        }
      ],
      "stateMutability": "nonpayable",
      "type": "function"
    },
    {
      "inputs": [],
      "name": "name",
      "outputs": [
        {
          "internalType": "string",
          "name": "",
          "type": "string"
        }
      ],
      "stateMutability": "view",
      "type": "function"
    },
    {
      "inputs": [
        {
          "internalType": "uint256",
          "name": "",
          "type": "uint256"
        }
      ],
      "name": "natures",
      "outputs": [
        {
          "internalType": "bytes32",
          "name": "",
          "type": "bytes32"
        }
      ],
      "stateMutability": "view",
      "type": "function"
    },
    {
      "inputs": [
        {
          "internalType": "uint256",
          "name": "tokenId",
          "type": "uint256"
        }
      ],
      "name": "ownerOf",
      "outputs": [
        {
          "internalType": "address",
          "name": "",
          "type": "address"
        }
      ],
      "stateMutability": "view",
      "type": "function"
    },
    {
      "inputs": [
        {
          "internalType": "bytes32",
          "name": "role",
          "type": "bytes32"
        },
        {
          "internalType": "address",
          "name": "account",
          "type": "address"
        }
      ],
      "name": "renounceRole",
      "outputs": [],
      "stateMutability": "nonpayable",
      "type": "function"
    },
    {
      "inputs": [
        {
          "internalType": "bytes32",
          "name": "role",
          "type": "bytes32"
        },
        {
          "internalType": "address",
          "name": "account",
          "type": "address"
        }
      ],
      "name": "revokeRole",
      "outputs": [],
      "stateMutability": "nonpayable",
      "type": "function"
    },
    {
      "inputs": [],
      "name": "royalty",
      "outputs": [
        {
          "internalType": "uint256",
          "name": "",
          "type": "uint256"
        }
      ],
      "stateMutability": "view",
      "type": "function"
    },
    {
      "inputs": [
        {
          "internalType": "uint256",
          "name": "_tokenId",
          "type": "uint256"
        },
        {
          "internalType": "uint256",
          "name": "_salePrice",
          "type": "uint256"
        }
      ],
      "name": "royaltyInfo",
      "outputs": [
        {
          "internalType": "address",
          "name": "",
          "type": "address"
        },
        {
          "internalType": "uint256",
          "name": "",
          "type": "uint256"
        }
      ],
      "stateMutability": "view",
      "type": "function"
    },
    {
      "inputs": [
        {
          "internalType": "address",
          "name": "from",
          "type": "address"
        },
        {
          "internalType": "address",
          "name": "to",
          "type": "address"
        },
        {
          "internalType": "uint256",
          "name": "tokenId",
          "type": "uint256"
        }
      ],
      "name": "safeTransferFrom",
      "outputs": [],
      "stateMutability": "nonpayable",
      "type": "function"
    },
    {
      "inputs": [
        {
          "internalType": "address",
          "name": "from",
          "type": "address"
        },
        {
          "internalType": "address",
          "name": "to",
          "type": "address"
        },
        {
          "internalType": "uint256",
          "name": "tokenId",
          "type": "uint256"
        },
        {
          "internalType": "bytes",
          "name": "_data",
          "type": "bytes"
        }
      ],
      "name": "safeTransferFrom",
      "outputs": [],
      "stateMutability": "nonpayable",
      "type": "function"
    },
    {
      "inputs": [
        {
          "internalType": "address",
          "name": "operator",
          "type": "address"
        },
        {
          "internalType": "bool",
          "name": "approved",
          "type": "bool"
        }
      ],
      "name": "setApprovalForAll",
      "outputs": [],
      "stateMutability": "nonpayable",
      "type": "function"
    },
    {
      "inputs": [
        {
          "internalType": "address payable",
          "name": "_receiver",
          "type": "address"
        },
        {
          "internalType": "uint256",
          "name": "_tokenId",
          "type": "uint256"
        }
      ],
      "name": "setRoyaltyInfo",
      "outputs": [],
      "stateMutability": "nonpayable",
      "type": "function"
    },
    {
      "inputs": [
        {
          "internalType": "string",
          "name": "source",
          "type": "string"
        }
      ],
      "name": "stringToBytes32",
      "outputs": [
        {
          "internalType": "bytes32",
          "name": "result",
          "type": "bytes32"
        }
      ],
      "stateMutability": "pure",
      "type": "function"
    },
    {
      "inputs": [
        {
          "internalType": "bytes4",
          "name": "interfaceId",
          "type": "bytes4"
        }
      ],
      "name": "supportsInterface",
      "outputs": [
        {
          "internalType": "bool",
          "name": "itSupports",
          "type": "bool"
        }
      ],
      "stateMutability": "view",
      "type": "function"
    },
    {
      "inputs": [],
      "name": "symbol",
      "outputs": [
        {
          "internalType": "string",
          "name": "",
          "type": "string"
        }
      ],
      "stateMutability": "view",
      "type": "function"
    },
    {
      "inputs": [
        {
          "internalType": "uint256",
          "name": "index",
          "type": "uint256"
        }
      ],
      "name": "tokenByIndex",
      "outputs": [
        {
          "internalType": "uint256",
          "name": "",
          "type": "uint256"
        }
      ],
      "stateMutability": "view",
      "type": "function"
    },
    {
      "inputs": [
        {
          "internalType": "address",
          "name": "owner",
          "type": "address"
        },
        {
          "internalType": "uint256",
          "name": "index",
          "type": "uint256"
        }
      ],
      "name": "tokenOfOwnerByIndex",
      "outputs": [
        {
          "internalType": "uint256",
          "name": "",
          "type": "uint256"
        }
      ],
      "stateMutability": "view",
      "type": "function"
    },
    {
      "inputs": [
        {
          "internalType": "uint256",
          "name": "tokenId",
          "type": "uint256"
        }
      ],
      "name": "tokenURI",
      "outputs": [
        {
          "internalType": "string",
          "name": "URI",
          "type": "string"
        }
      ],
      "stateMutability": "view",
      "type": "function"
    },
    {
      "inputs": [],
      "name": "totalSupply",
      "outputs": [
        {
          "internalType": "uint256",
          "name": "",
          "type": "uint256"
        }
      ],
      "stateMutability": "view",
      "type": "function"
    },
    {
      "inputs": [
        {
          "internalType": "address",
          "name": "from",
          "type": "address"
        },
        {
          "internalType": "address",
          "name": "to",
          "type": "address"
        },
        {
          "internalType": "uint256",
          "name": "tokenId",
          "type": "uint256"
        }
      ],
      "name": "transferFrom",
      "outputs": [],
      "stateMutability": "nonpayable",
      "type": "function"
    },
    {
      "inputs": [
        {
          "internalType": "address",
          "name": "market",
          "type": "address"
        },
        {
          "internalType": "bool",
          "name": "isMarket",
          "type": "bool"
        }
      ],
      "name": "updateMarket",
      "outputs": [],
      "stateMutability": "nonpayable",
      "type": "function"
    }
  ],
  "bytecode": "0x60806040526105dc6013553480156200001757600080fd5b506040516200348d3803806200348d8339810160408190526200003a91620004b1565b604080518082018252601581527f5261726543616e64793344204f726967696e616c7300000000000000000000006020808301918252835180850190945260058452645243332d4f60d81b9084015281519192916200009c916002916200040b565b508051620000b29060039060208401906200040b565b50508151620000ca915060129060208401906200040b565b50620000d860008362000288565b620001047fa49807205ce4d355092ef5a8a18f56e8913cf4a201fbe287825b095693c217758362000288565b620001307f9f2df0fed2c77648de5860a4cc508cd0818c85b8b8a1ab4ceeef8d981c8956a68362000288565b600e6200015e6040518060400160405280600381526020016210549560ea1b8152506200029860201b60201c565b8154600181018355600092835260209283902001556040805180820190915260058152644d5553494360d81b91810191909152600e906200019f9062000298565b8154600181018355600092835260209283902001556040805180820190915260078152662320a9a424a7a760c91b91810191909152600e90620001e29062000298565b81546001810183556000928352602092839020015560408051808201909152600881526714121654d250d05360c21b91810191909152620002239062000298565b600f55604080518082019091526007815266111251d255105360ca1b60208201526200024f9062000298565b60105560408051808201909152600881526714121651d255105360c21b60208201526200027c9062000298565b60115550620006049050565b620002948282620002b6565b5050565b80516000908290620002ad5750600092915050565b50506020015190565b620002cd8282620002f960201b620011c51760201c565b6000828152600160209081526040909120620002f49183906200124962000399821b17901c565b505050565b6000828152602081815260408083206001600160a01b038516845290915290205460ff1662000294576000828152602081815260408083206001600160a01b03851684529091529020805460ff19166001179055620003553390565b6001600160a01b0316816001600160a01b0316837f2f8788117e7eff1d82e926ec794901d17c78024a50270940304540a733656f0d60405160405180910390a45050565b6000620003b0836001600160a01b038416620003b9565b90505b92915050565b60008181526001830160205260408120546200040257508154600181810184556000848152602080822090930184905584548482528286019093526040902091909155620003b3565b506000620003b3565b8280546200041990620005b1565b90600052602060002090601f0160209004810192826200043d576000855562000488565b82601f106200045857805160ff191683800117855562000488565b8280016001018555821562000488579182015b82811115620004885782518255916020019190600101906200046b565b50620004969291506200049a565b5090565b5b808211156200049657600081556001016200049b565b60008060408385031215620004c557600080fd5b82516001600160a01b0381168114620004dd57600080fd5b602084810151919350906001600160401b0380821115620004fd57600080fd5b818601915086601f8301126200051257600080fd5b815181811115620005275762000527620005ee565b604051601f8201601f19908116603f01168101908382118183101715620005525762000552620005ee565b8160405282815289868487010111156200056b57600080fd5b600093505b828410156200058f578484018601518185018701529285019262000570565b82841115620005a15760008684830101525b8096505050505050509250929050565b600181811c90821680620005c657607f821691505b60208210811415620005e857634e487b7160e01b600052602260045260246000fd5b50919050565b634e487b7160e01b600052604160045260246000fd5b612e7980620006146000396000f3fe608060405234801561001057600080fd5b50600436106101c25760003560e01c806301ffc9a7146101c757806306fdde03146101ef578063081812fc14610204578063095ea7b31461022f57806318160ddd146102445780631a3cd59a1461025657806323b872dd14610294578063248a9ca3146102a757806329ee566c146102ba5780632a55205a146102c35780632f2ff15d146102f55780632f745c591461030857806336568abe1461031b57806342842e0e1461032e57806342966c68146103415780634461b384146103545780634f6ccce7146103675780636352211e1461037a57806370a082311461038d57806375b238fc146103a05780639010d07c146103b557806391d14854146103c85780639201de55146103db57806395d89b41146103ee578063a217fddf146103f6578063a22cb465146103fe578063a28cf93c14610411578063b318de4914610424578063b88d4fde14610437578063c6cdbe5e1461044a578063c87b56dd1461045d578063ca15c87314610470578063cfb5192814610483578063d539139314610496578063d547741f146104ab578063d547cfb7146104be578063e2e784d5146104c6578063e985e9c5146104d9575b600080fd5b6101da6101d53660046128a4565b6104ec565b60405190151581526020015b60405180910390f35b6101f7610517565b6040516101e69190612a77565b610217610212366004612844565b6105a9565b6040516001600160a01b0390911681526020016101e6565b61024261023d3660046126ec565b610636565b005b600b545b6040519081526020016101e6565b610269610264366004612844565b610747565b6040805182516001600160a01b031681526020808401519082015291810151908201526060016101e6565b6102426102a2366004612751565b6107cb565b6102486102b5366004612844565b6107fd565b61024860135481565b6102d66102d1366004612882565b610812565b604080516001600160a01b0390931683526020830191909152016101e6565b61024261030336600461285d565b610840565b6102486103163660046126ec565b61085d565b61024261032936600461285d565b6108f3565b61024261033c366004612751565b610971565b61024261034f366004612844565b61098c565b610248610362366004612912565b610a06565b610248610375366004612844565b610bb6565b610217610388366004612844565b610c49565b61024861039b3660046126cf565b610cc0565b610248600080516020612e4d83398151915281565b6102176103c3366004612882565b610d47565b6101da6103d636600461285d565b610d66565b6101f76103e9366004612844565b610d8f565b6101f7610ef4565b610248600081565b61024261040c366004612811565b610f03565b61024261041f366004612811565b610f0e565b610248610432366004612844565b611014565b610242610445366004612792565b61102b565b610248610458366004612844565b611063565b6101f761046b366004612844565b611084565b61024861047e366004612844565b61108f565b6102486104913660046128de565b6110a6565b610248600080516020612e0d83398151915281565b6102426104b936600461285d565b6110c3565b6101f76110e0565b6102426104d43660046126ec565b6110ef565b6101da6104e7366004612718565b611197565b600063152a902d60e11b6001600160e01b03198316148061051157506105118261125e565b92915050565b60606002805461052690612d09565b80601f016020809104026020016040519081016040528092919081815260200182805461055290612d09565b801561059f5780601f106105745761010080835404028352916020019161059f565b820191906000526020600020905b81548152906001019060200180831161058257829003601f168201915b5050505050905090565b60006105b482611283565b61061a5760405162461bcd60e51b815260206004820152602c60248201527f4552433732313a20617070726f76656420717565727920666f72206e6f6e657860448201526b34b9ba32b73a103a37b5b2b760a11b60648201526084015b60405180910390fd5b506000908152600660205260409020546001600160a01b031690565b600061064182610c49565b9050806001600160a01b0316836001600160a01b031614156106af5760405162461bcd60e51b815260206004820152602160248201527f4552433732313a20617070726f76616c20746f2063757272656e74206f776e656044820152603960f91b6064820152608401610611565b336001600160a01b03821614806106cb57506106cb8133611197565b6107385760405162461bcd60e51b815260206004820152603860248201527f4552433732313a20617070726f76652063616c6c6572206973206e6f74206f776044820152771b995c881b9bdc88185c1c1c9bdd995908199bdc88185b1b60421b6064820152608401610611565b61074283836112a0565b505050565b604080516060810182526000808252602082018190529181019190915261076d82611283565b6107895760405162461bcd60e51b815260040161061190612adc565b50600090815260146020908152604091829020825160608101845281546001600160a01b03168152600182015492810192909252600201549181019190915290565b6107d6335b8261130e565b6107f25760405162461bcd60e51b815260040161061190612b28565b6107428383836113c1565b60009081526020819052604090206001015490565b60008281526014602052604081205481906001600160a01b03166108358461155a565b915091509250929050565b610849826107fd565b6108538133611576565b61074283836115da565b600061086883610cc0565b82106108ca5760405162461bcd60e51b815260206004820152602b60248201527f455243373231456e756d657261626c653a206f776e657220696e646578206f7560448201526a74206f6620626f756e647360a81b6064820152608401610611565b506001600160a01b03919091166000908152600960209081526040808320938352929052205490565b6001600160a01b03811633146109635760405162461bcd60e51b815260206004820152602f60248201527f416363657373436f6e74726f6c3a2063616e206f6e6c792072656e6f756e636560448201526e103937b632b9903337b91039b2b63360891b6064820152608401610611565b61096d82826115fc565b5050565b6107428383836040518060200160405280600081525061102b565b610995336107d0565b6109fa5760405162461bcd60e51b815260206004820152603060248201527f4552433732314275726e61626c653a2063616c6c6572206973206e6f74206f7760448201526f1b995c881b9bdc88185c1c1c9bdd995960821b6064820152608401610611565b610a038161161e565b50565b600e5460009083908290815b81811015610a5c576000600e8281548110610a2f57610a2f612db5565b9060005260206000200154905084811415610a4957600193505b5080610a5481612d44565b915050610a12565b50600182151514610aa75760405162461bcd60e51b8152602060048201526015602482015274435245415445445f43415445474f52595f4f4e4c5960581b6044820152606401610611565b610abf600080516020612e0d83398151915233610d66565b610af95760405162461bcd60e51b815260206004820152600b60248201526a4d494e5445525f4f4e4c5960a81b6044820152606401610611565b610b07600d80546001019055565b600d549350610b16338561164e565b610b208489611668565b600084815260146020526040902080546001600160a01b0319166001600160a01b03891617815560018101869055600201869055846001600160a01b038816336001600160a01b03167f14f27be66e5bf44818afdcf2f82fcf6698f7b2c7973205e98aef7ae7267e0eac878a604051610ba3929190918252602082015260400190565b60405180910390a4505050949350505050565b6000610bc1600b5490565b8210610c245760405162461bcd60e51b815260206004820152602c60248201527f455243373231456e756d657261626c653a20676c6f62616c20696e646578206f60448201526b7574206f6620626f756e647360a01b6064820152608401610611565b600b8281548110610c3757610c37612db5565b90600052602060002001549050919050565b6000818152600460205260408120546001600160a01b0316806105115760405162461bcd60e51b815260206004820152602960248201527f4552433732313a206f776e657220717565727920666f72206e6f6e657869737460448201526832b73a103a37b5b2b760b91b6064820152608401610611565b60006001600160a01b038216610d2b5760405162461bcd60e51b815260206004820152602a60248201527f4552433732313a2062616c616e636520717565727920666f7220746865207a65604482015269726f206164647265737360b01b6064820152608401610611565b506001600160a01b031660009081526005602052604090205490565b6000828152600160205260408120610d5f90836116f3565b9392505050565b6000918252602082815260408084206001600160a01b0393909316845291905290205460ff1690565b604080516020808252818301909252606091600091906020820181803683370190505090506000805b6020811015610e40576000610dce826008612c90565b610dd9906002612be8565b610de39087612c90565b90506001600160f81b0319811615610e2d5780848481518110610e0857610e08612db5565b60200101906001600160f81b031916908160001a90535082610e2981612d44565b9350505b5080610e3881612d44565b915050610db8565b506000816001600160401b03811115610e5b57610e5b612dcb565b6040519080825280601f01601f191660200182016040528015610e85576020820181803683370190505b50905060005b82811015610eeb57838181518110610ea557610ea5612db5565b602001015160f81c60f81b828281518110610ec257610ec2612db5565b60200101906001600160f81b031916908160001a90535080610ee381612d44565b915050610e8b565b50949350505050565b60606003805461052690612d09565b61096d3383836116ff565b610f19600033610d66565b80610f375750610f37600080516020612e4d83398151915233610d66565b610f705760405162461bcd60e51b815260206004820152600a60248201526941444d494e5f4f4e4c5960b01b6044820152606401610611565b6001600160a01b038216610fb55760405162461bcd60e51b815260206004820152600c60248201526b5a45524f5f4144445245535360a01b6044820152606401610611565b6001600160a01b038216600081815260156020908152604091829020805460ff191685151590811790915591519182527f497d1799a068d52587e2c92131b971faa22ba31099f30bab68d1cc2b875ff291910160405180910390a25050565b600f816003811061102457600080fd5b0154905081565b611035338361130e565b6110515760405162461bcd60e51b815260040161061190612b28565b61105d848484846117ca565b50505050565b600e818154811061107357600080fd5b600091825260209091200154905081565b6060610511826117fd565b60008181526001602052604081206105119061195f565b805160009082906110ba5750600092915050565b50506020015190565b6110cc826107fd565b6110d68133611576565b61074283836115fc565b60606110ea611969565b905090565b600081815260146020526040902080546001600160a01b0316331461114c5760405162461bcd60e51b81526020600482015260136024820152722aa720aaaa2427a924ad22a22fa1a0a62622a960691b6044820152606401610611565b80546001600160a01b0319166001600160a01b038416908117825560405133907fef8f0d5f16a5283d66ae7e12801103421d077cfa56a9afe9c2b066459e3a231690600090a3505050565b6001600160a01b03918216600090815260076020908152604080832093909416825291909152205460ff1690565b6111cf8282610d66565b61096d576000828152602081815260408083206001600160a01b03851684529091529020805460ff191660011790556112053390565b6001600160a01b0316816001600160a01b0316837f2f8788117e7eff1d82e926ec794901d17c78024a50270940304540a733656f0d60405160405180910390a45050565b6000610d5f836001600160a01b038416611978565b60006001600160e01b0319821663780e9d6360e01b14806105115750610511826119c7565b6000908152600460205260409020546001600160a01b0316151590565b600081815260066020526040902080546001600160a01b0319166001600160a01b03841690811790915581906112d582610c49565b6001600160a01b03167f8c5be1e5ebec7d5bd14f71427d1e84f3dd0314c0f7b2291e5b200ac8c7c3b92560405160405180910390a45050565b600061131a8383611a07565b5061132482611283565b6113405760405162461bcd60e51b815260040161061190612adc565b600061134b83610c49565b9050806001600160a01b0316846001600160a01b031614806113865750836001600160a01b031661137b846105a9565b6001600160a01b0316145b8061139657506113968185611197565b806113b957506001600160a01b03841660009081526015602052604090205460ff165b949350505050565b826001600160a01b03166113d482610c49565b6001600160a01b03161461143c5760405162461bcd60e51b815260206004820152602960248201527f4552433732313a207472616e73666572206f6620746f6b656e2074686174206960448201526839903737ba1037bbb760b91b6064820152608401610611565b6001600160a01b03821661149e5760405162461bcd60e51b8152602060048201526024808201527f4552433732313a207472616e7366657220746f20746865207a65726f206164646044820152637265737360e01b6064820152608401610611565b6114a9838383611a84565b6114b46000826112a0565b6001600160a01b03831660009081526005602052604081208054600192906114dd908490612caf565b90915550506001600160a01b038216600090815260056020526040812080546001929061150b908490612b79565b909155505060008181526004602052604080822080546001600160a01b0319166001600160a01b038681169182179092559151849391871691600080516020612e2d83398151915291a4505050565b60135460009061156c61271084612b91565b6105119190612c90565b6115808282610d66565b61096d57611598816001600160a01b03166014611a8f565b6115a3836020611a8f565b6040516020016115b49291906129cb565b60408051601f198184030181529082905262461bcd60e51b825261061191600401612a77565b6115e482826111c5565b60008281526001602052604090206107429082611249565b6116068282611c2a565b60008281526001602052604090206107429082611c8f565b600081815260146020526040812080546001600160a01b03191681556001810182905560020155610a0381611ca4565b61096d828260405180602001604052806000815250611ce4565b61167182611283565b6116d45760405162461bcd60e51b815260206004820152602e60248201527f45524337323155524953746f726167653a2055524920736574206f66206e6f6e60448201526d32bc34b9ba32b73a103a37b5b2b760911b6064820152608401610611565b600082815260086020908152604090912082516107429284019061256b565b6000610d5f8383611d17565b816001600160a01b0316836001600160a01b0316141561175d5760405162461bcd60e51b815260206004820152601960248201527822a9219b99189d1030b8383937bb32903a379031b0b63632b960391b6044820152606401610611565b6001600160a01b03838116600081815260076020908152604080832094871680845294825291829020805460ff191686151590811790915591519182527f17307eab39ab6107e8899845ad3d59bd9653f200f220920489ca2b5937696c31910160405180910390a3505050565b6117d58484846113c1565b6117e184848484611d41565b61105d5760405162461bcd60e51b815260040161061190612a8a565b606061180882611283565b61186e5760405162461bcd60e51b815260206004820152603160248201527f45524337323155524953746f726167653a2055524920717565727920666f72206044820152703737b732bc34b9ba32b73a103a37b5b2b760791b6064820152608401610611565b6000828152600860205260408120805461188790612d09565b80601f01602080910402602001604051908101604052809291908181526020018280546118b390612d09565b80156119005780601f106118d557610100808354040283529160200191611900565b820191906000526020600020905b8154815290600101906020018083116118e357829003601f168201915b505050505090506000611911611969565b9050805160001415611924575092915050565b81511561195657808260405160200161193e92919061299c565b60405160208183030381529060405292505050919050565b6113b984611e4e565b6000610511825490565b60606012805461052690612d09565b60008181526001830160205260408120546119bf57508154600181810184556000848152602080822090930184905584548482528286019093526040902091909155610511565b506000610511565b60006001600160e01b031982166380ac58cd60e01b14806119f857506001600160e01b03198216635b5e139f60e01b145b80610511575061051182611f18565b6000611a1282611283565b611a2e5760405162461bcd60e51b815260040161061190612adc565b6000611a3983610c49565b9050806001600160a01b0316846001600160a01b03161480611a745750836001600160a01b0316611a69846105a9565b6001600160a01b0316145b806113b957506113b98185611197565b610742838383611f3d565b60606000611a9e836002612c90565b611aa9906002612b79565b6001600160401b03811115611ac057611ac0612dcb565b6040519080825280601f01601f191660200182016040528015611aea576020820181803683370190505b509050600360fc1b81600081518110611b0557611b05612db5565b60200101906001600160f81b031916908160001a905350600f60fb1b81600181518110611b3457611b34612db5565b60200101906001600160f81b031916908160001a9053506000611b58846002612c90565b611b63906001612b79565b90505b6001811115611bdb576f181899199a1a9b1b9c1cb0b131b232b360811b85600f1660108110611b9757611b97612db5565b1a60f81b828281518110611bad57611bad612db5565b60200101906001600160f81b031916908160001a90535060049490941c93611bd481612cf2565b9050611b66565b508315610d5f5760405162461bcd60e51b815260206004820181905260248201527f537472696e67733a20686578206c656e67746820696e73756666696369656e746044820152606401610611565b611c348282610d66565b1561096d576000828152602081815260408083206001600160a01b0385168085529252808320805460ff1916905551339285917ff6391f5c32d9c69d2a47ea670b442974b53935d1edc7fd64eb21e047a839171b9190a45050565b6000610d5f836001600160a01b038416611ff5565b611cad816120e8565b60008181526008602052604090208054611cc690612d09565b159050610a03576000818152600860205260408120610a03916125ef565b611cee838361217d565b611cfb6000848484611d41565b6107425760405162461bcd60e51b815260040161061190612a8a565b6000826000018281548110611d2e57611d2e612db5565b9060005260206000200154905092915050565b60006001600160a01b0384163b15611e4357604051630a85bd0160e11b81526001600160a01b0385169063150b7a0290611d85903390899088908890600401612a3a565b602060405180830381600087803b158015611d9f57600080fd5b505af1925050508015611dcf575060408051601f3d908101601f19168201909252611dcc918101906128c1565b60015b611e29573d808015611dfd576040519150601f19603f3d011682016040523d82523d6000602084013e611e02565b606091505b508051611e215760405162461bcd60e51b815260040161061190612a8a565b805181602001fd5b6001600160e01b031916630a85bd0160e11b1490506113b9565b506001949350505050565b6060611e5982611283565b611ebd5760405162461bcd60e51b815260206004820152602f60248201527f4552433732314d657461646174613a2055524920717565727920666f72206e6f60448201526e3732bc34b9ba32b73a103a37b5b2b760891b6064820152608401610611565b6000611ec7611969565b90506000815111611ee75760405180602001604052806000815250610d5f565b80611ef1846122a9565b604051602001611f0292919061299c565b6040516020818303038152906040529392505050565b60006001600160e01b03198216635a05180f60e01b14806105115750610511826123a6565b6001600160a01b038316611f9857611f9381600b80546000838152600c60205260408120829055600182018355919091527f0175b7a638427703f0dbe7bb9bbf987a2551717b34e79f33b5b1008d1fa01db90155565b611fbb565b816001600160a01b0316836001600160a01b031614611fbb57611fbb83826123db565b6001600160a01b038216611fd25761074281612478565b826001600160a01b0316826001600160a01b031614610742576107428282612527565b600081815260018301602052604081205480156120de576000612019600183612caf565b855490915060009061202d90600190612caf565b905081811461209257600086600001828154811061204d5761204d612db5565b906000526020600020015490508087600001848154811061207057612070612db5565b6000918252602080832090910192909255918252600188019052604090208390555b85548690806120a3576120a3612d9f565b600190038181906000526020600020016000905590558560010160008681526020019081526020016000206000905560019350505050610511565b6000915050610511565b60006120f382610c49565b905061210181600084611a84565b61210c6000836112a0565b6001600160a01b0381166000908152600560205260408120805460019290612135908490612caf565b909155505060008281526004602052604080822080546001600160a01b0319169055518391906001600160a01b03841690600080516020612e2d833981519152908390a45050565b6001600160a01b0382166121d35760405162461bcd60e51b815260206004820181905260248201527f4552433732313a206d696e7420746f20746865207a65726f20616464726573736044820152606401610611565b6121dc81611283565b156122285760405162461bcd60e51b815260206004820152601c60248201527b115490cdcc8c4e881d1bdad95b88185b1c9958591e481b5a5b9d195960221b6044820152606401610611565b61223460008383611a84565b6001600160a01b038216600090815260056020526040812080546001929061225d908490612b79565b909155505060008181526004602052604080822080546001600160a01b0319166001600160a01b0386169081179091559051839290600080516020612e2d833981519152908290a45050565b6060816122cd5750506040805180820190915260018152600360fc1b602082015290565b8160005b81156122f757806122e181612d44565b91506122f09050600a83612b91565b91506122d1565b6000816001600160401b0381111561231157612311612dcb565b6040519080825280601f01601f19166020018201604052801561233b576020820181803683370190505b5090505b84156113b957612350600183612caf565b915061235d600a86612d5f565b612368906030612b79565b60f81b81838151811061237d5761237d612db5565b60200101906001600160f81b031916908160001a90535061239f600a86612b91565b945061233f565b60006001600160e01b03198216637965db0b60e01b148061051157506301ffc9a760e01b6001600160e01b0319831614610511565b600060016123e884610cc0565b6123f29190612caf565b6000838152600a6020526040902054909150808214612445576001600160a01b03841660009081526009602090815260408083208584528252808320548484528184208190558352600a90915290208190555b506000918252600a602090815260408084208490556001600160a01b039094168352600981528383209183525290812055565b600b5460009061248a90600190612caf565b6000838152600c6020526040812054600b80549394509092849081106124b2576124b2612db5565b9060005260206000200154905080600b83815481106124d3576124d3612db5565b6000918252602080832090910192909255828152600c9091526040808220849055858252812055600b80548061250b5761250b612d9f565b6001900381819060005260206000200160009055905550505050565b600061253283610cc0565b6001600160a01b0390931660009081526009602090815260408083208684528252808320859055938252600a9052919091209190915550565b82805461257790612d09565b90600052602060002090601f01602090048101928261259957600085556125df565b82601f106125b257805160ff19168380011785556125df565b828001600101855582156125df579182015b828111156125df5782518255916020019190600101906125c4565b506125eb929150612625565b5090565b5080546125fb90612d09565b6000825580601f1061260b575050565b601f016020900490600052602060002090810190610a0391905b5b808211156125eb5760008155600101612626565b60006001600160401b038084111561265457612654612dcb565b604051601f8501601f19908116603f0116810190828211818310171561267c5761267c612dcb565b8160405280935085815286868601111561269557600080fd5b858560208301376000602087830101525050509392505050565b600082601f8301126126c057600080fd5b610d5f8383356020850161263a565b6000602082840312156126e157600080fd5b8135610d5f81612de1565b600080604083850312156126ff57600080fd5b823561270a81612de1565b946020939093013593505050565b6000806040838503121561272b57600080fd5b823561273681612de1565b9150602083013561274681612de1565b809150509250929050565b60008060006060848603121561276657600080fd5b833561277181612de1565b9250602084013561278181612de1565b929592945050506040919091013590565b600080600080608085870312156127a857600080fd5b84356127b381612de1565b935060208501356127c381612de1565b92506040850135915060608501356001600160401b038111156127e557600080fd5b8501601f810187136127f657600080fd5b6128058782356020840161263a565b91505092959194509250565b6000806040838503121561282457600080fd5b823561282f81612de1565b91506020830135801515811461274657600080fd5b60006020828403121561285657600080fd5b5035919050565b6000806040838503121561287057600080fd5b82359150602083013561274681612de1565b6000806040838503121561289557600080fd5b50508035926020909101359150565b6000602082840312156128b657600080fd5b8135610d5f81612df6565b6000602082840312156128d357600080fd5b8151610d5f81612df6565b6000602082840312156128f057600080fd5b81356001600160401b0381111561290657600080fd5b6113b9848285016126af565b6000806000806080858703121561292857600080fd5b84356001600160401b0381111561293e57600080fd5b61294a878288016126af565b945050602085013561295b81612de1565b93969395505050506040820135916060013590565b60008151808452612988816020860160208601612cc6565b601f01601f19169290920160200192915050565b600083516129ae818460208801612cc6565b8351908301906129c2818360208801612cc6565b01949350505050565b76020b1b1b2b9b9a1b7b73a3937b61d1030b1b1b7bab73a1604d1b8152600083516129fd816017850160208801612cc6565b7001034b99036b4b9b9b4b733903937b6329607d1b6017918401918201528351612a2e816028840160208801612cc6565b01602801949350505050565b6001600160a01b0385811682528416602082015260408101839052608060608201819052600090612a6d90830184612970565b9695505050505050565b602081526000610d5f6020830184612970565b60208082526032908201527f4552433732313a207472616e7366657220746f206e6f6e20455243373231526560408201527131b2b4bb32b91034b6b83632b6b2b73a32b960711b606082015260800190565b6020808252602c908201527f4552433732313a206f70657261746f7220717565727920666f72206e6f6e657860408201526b34b9ba32b73a103a37b5b2b760a11b606082015260800190565b60208082526031908201527f4552433732313a207472616e736665722063616c6c6572206973206e6f74206f6040820152701ddb995c881b9bdc88185c1c1c9bdd9959607a1b606082015260800190565b60008219821115612b8c57612b8c612d73565b500190565b600082612ba057612ba0612d89565b500490565b600181815b80851115612be0578160001904821115612bc657612bc6612d73565b80851615612bd357918102915b93841c9390800290612baa565b509250929050565b6000610d5f8383600082612bfe57506001610511565b81612c0b57506000610511565b8160018114612c215760028114612c2b57612c47565b6001915050610511565b60ff841115612c3c57612c3c612d73565b50506001821b610511565b5060208310610133831016604e8410600b8410161715612c6a575081810a610511565b612c748383612ba5565b8060001904821115612c8857612c88612d73565b029392505050565b6000816000190483118215151615612caa57612caa612d73565b500290565b600082821015612cc157612cc1612d73565b500390565b60005b83811015612ce1578181015183820152602001612cc9565b8381111561105d5750506000910152565b600081612d0157612d01612d73565b506000190190565b600181811c90821680612d1d57607f821691505b60208210811415612d3e57634e487b7160e01b600052602260045260246000fd5b50919050565b6000600019821415612d5857612d58612d73565b5060010190565b600082612d6e57612d6e612d89565b500690565b634e487b7160e01b600052601160045260246000fd5b634e487b7160e01b600052601260045260246000fd5b634e487b7160e01b600052603160045260246000fd5b634e487b7160e01b600052603260045260246000fd5b634e487b7160e01b600052604160045260246000fd5b6001600160a01b0381168114610a0357600080fd5b6001600160e01b031981168114610a0357600080fdfe9f2df0fed2c77648de5860a4cc508cd0818c85b8b8a1ab4ceeef8d981c8956a6ddf252ad1be2c89b69c2b068fc378daa952ba7f163c4a11628f55a4df523b3efa49807205ce4d355092ef5a8a18f56e8913cf4a201fbe287825b095693c21775a164736f6c6343000806000a",
  "linkReferences": {},
  "deployedLinkReferences": {}
}