{
  "_format": "hh-sol-artifact-1",
  "contractName": "RC3_Originals",
  "sourceName": "contracts/RC3_Originals.sol",
  "abi": [
    {
      "inputs": [
        {
          "internalType": "address",
          "name": "_defaultAdmin",
          "type": "address"
        },
        {
          "internalType": "string",
          "name": "uri",
          "type": "string"
        }
      ],
      "stateMutability": "nonpayable",
      "type": "constructor"
    },
    {
      "anonymous": false,
      "inputs": [
        {
          "indexed": true,
          "internalType": "address",
          "name": "owner",
          "type": "address"
        },
        {
          "indexed": true,
          "internalType": "address",
          "name": "approved",
          "type": "address"
        },
        {
          "indexed": true,
          "internalType": "uint256",
          "name": "tokenId",
          "type": "uint256"
        }
      ],
      "name": "Approval",
      "type": "event"
    },
    {
      "anonymous": false,
      "inputs": [
        {
          "indexed": true,
          "internalType": "address",
          "name": "owner",
          "type": "address"
        },
        {
          "indexed": true,
          "internalType": "address",
          "name": "operator",
          "type": "address"
        },
        {
          "indexed": false,
          "internalType": "bool",
          "name": "approved",
          "type": "bool"
        }
      ],
      "name": "ApprovalForAll",
      "type": "event"
    },
    {
      "anonymous": false,
      "inputs": [
        {
          "indexed": true,
          "internalType": "address",
          "name": "market",
          "type": "address"
        },
        {
          "indexed": false,
          "internalType": "bool",
          "name": "isMarket",
          "type": "bool"
        }
      ],
      "name": "MarketUpdated",
      "type": "event"
    },
    {
      "anonymous": false,
      "inputs": [
        {
          "indexed": true,
          "internalType": "address",
          "name": "admin",
          "type": "address"
        },
        {
          "indexed": false,
          "internalType": "uint256",
          "name": "tokenId",
          "type": "uint256"
        },
        {
          "indexed": true,
          "internalType": "address",
          "name": "creator",
          "type": "address"
        },
        {
          "indexed": false,
          "internalType": "bytes32",
          "name": "category",
          "type": "bytes32"
        },
        {
          "indexed": true,
          "internalType": "bytes32",
          "name": "nature",
          "type": "bytes32"
        }
      ],
      "name": "Mint",
      "type": "event"
    },
    {
      "anonymous": false,
      "inputs": [
        {
          "indexed": true,
          "internalType": "bytes32",
          "name": "role",
          "type": "bytes32"
        },
        {
          "indexed": true,
          "internalType": "bytes32",
          "name": "previousAdminRole",
          "type": "bytes32"
        },
        {
          "indexed": true,
          "internalType": "bytes32",
          "name": "newAdminRole",
          "type": "bytes32"
        }
      ],
      "name": "RoleAdminChanged",
      "type": "event"
    },
    {
      "anonymous": false,
      "inputs": [
        {
          "indexed": true,
          "internalType": "bytes32",
          "name": "role",
          "type": "bytes32"
        },
        {
          "indexed": true,
          "internalType": "address",
          "name": "account",
          "type": "address"
        },
        {
          "indexed": true,
          "internalType": "address",
          "name": "sender",
          "type": "address"
        }
      ],
      "name": "RoleGranted",
      "type": "event"
    },
    {
      "anonymous": false,
      "inputs": [
        {
          "indexed": true,
          "internalType": "bytes32",
          "name": "role",
          "type": "bytes32"
        },
        {
          "indexed": true,
          "internalType": "address",
          "name": "account",
          "type": "address"
        },
        {
          "indexed": true,
          "internalType": "address",
          "name": "sender",
          "type": "address"
        }
      ],
      "name": "RoleRevoked",
      "type": "event"
    },
    {
      "anonymous": false,
      "inputs": [
        {
          "indexed": true,
          "internalType": "address",
          "name": "caller",
          "type": "address"
        },
        {
          "indexed": true,
          "internalType": "address",
          "name": "receiver",
          "type": "address"
        }
      ],
      "name": "RoyaltyInfoUpdated",
      "type": "event"
    },
    {
      "anonymous": false,
      "inputs": [
        {
          "indexed": true,
          "internalType": "address",
          "name": "from",
          "type": "address"
        },
        {
          "indexed": true,
          "internalType": "address",
          "name": "to",
          "type": "address"
        },
        {
          "indexed": true,
          "internalType": "uint256",
          "name": "tokenId",
          "type": "uint256"
        }
      ],
      "name": "Transfer",
      "type": "event"
    },
    {
      "inputs": [],
      "name": "ADMIN_ROLE",
      "outputs": [
        {
          "internalType": "bytes32",
          "name": "",
          "type": "bytes32"
        }
      ],
      "stateMutability": "view",
      "type": "function"
    },
    {
      "inputs": [],
      "name": "DEFAULT_ADMIN_ROLE",
      "outputs": [
        {
          "internalType": "bytes32",
          "name": "",
          "type": "bytes32"
        }
      ],
      "stateMutability": "view",
      "type": "function"
    },
    {
      "inputs": [],
      "name": "MINTER_ROLE",
      "outputs": [
        {
          "internalType": "bytes32",
          "name": "",
          "type": "bytes32"
        }
      ],
      "stateMutability": "view",
      "type": "function"
    },
    {
      "inputs": [
        {
          "internalType": "address",
          "name": "to",
          "type": "address"
        },
        {
          "internalType": "uint256",
          "name": "tokenId",
          "type": "uint256"
        }
      ],
      "name": "approve",
      "outputs": [],
      "stateMutability": "nonpayable",
      "type": "function"
    },
    {
      "inputs": [
        {
          "internalType": "address",
          "name": "owner",
          "type": "address"
        }
      ],
      "name": "balanceOf",
      "outputs": [
        {
          "internalType": "uint256",
          "name": "",
          "type": "uint256"
        }
      ],
      "stateMutability": "view",
      "type": "function"
    },
    {
      "inputs": [],
      "name": "baseTokenURI",
      "outputs": [
        {
          "internalType": "string",
          "name": "",
          "type": "string"
        }
      ],
      "stateMutability": "view",
      "type": "function"
    },
    {
      "inputs": [
        {
          "internalType": "uint256",
          "name": "tokenId",
          "type": "uint256"
        }
      ],
      "name": "burn",
      "outputs": [],
      "stateMutability": "nonpayable",
      "type": "function"
    },
    {
      "inputs": [
        {
          "internalType": "bytes32",
          "name": "_bytes32",
          "type": "bytes32"
        }
      ],
      "name": "bytes32ToString",
      "outputs": [
        {
          "internalType": "string",
          "name": "result",
          "type": "string"
        }
      ],
      "stateMutability": "pure",
      "type": "function"
    },
    {
      "inputs": [
        {
          "internalType": "uint256",
          "name": "_salePrice",
          "type": "uint256"
        }
      ],
      "name": "calculateRoyalty",
      "outputs": [
        {
          "internalType": "uint256",
          "name": "",
          "type": "uint256"
        }
      ],
      "stateMutability": "pure",
      "type": "function"
    },
    {
      "inputs": [
        {
          "internalType": "uint256",
          "name": "",
          "type": "uint256"
        }
      ],
      "name": "categories",
      "outputs": [
        {
          "internalType": "bytes32",
          "name": "",
          "type": "bytes32"
        }
      ],
      "stateMutability": "view",
      "type": "function"
    },
    {
      "inputs": [
        {
          "internalType": "uint256",
          "name": "tokenId",
          "type": "uint256"
        }
      ],
      "name": "getApproved",
      "outputs": [
        {
          "internalType": "address",
          "name": "",
          "type": "address"
        }
      ],
      "stateMutability": "view",
      "type": "function"
    },
    {
      "inputs": [
        {
          "internalType": "uint256",
          "name": "tokenId",
          "type": "uint256"
        }
      ],
      "name": "getInfo",
      "outputs": [
        {
          "components": [
            {
              "internalType": "address payable",
              "name": "creator",
              "type": "address"
            },
            {
              "internalType": "bytes32",
              "name": "nature",
              "type": "bytes32"
            },
            {
              "internalType": "bytes32",
              "name": "category",
              "type": "bytes32"
            }
          ],
          "internalType": "struct RC3_Originals.Info",
          "name": "info",
          "type": "tuple"
        }
      ],
      "stateMutability": "view",
      "type": "function"
    },
    {
      "inputs": [
        {
          "internalType": "bytes32",
          "name": "role",
          "type": "bytes32"
        }
      ],
      "name": "getRoleAdmin",
      "outputs": [
        {
          "internalType": "bytes32",
          "name": "",
          "type": "bytes32"
        }
      ],
      "stateMutability": "view",
      "type": "function"
    },
    {
      "inputs": [
        {
          "internalType": "bytes32",
          "name": "role",
          "type": "bytes32"
        },
        {
          "internalType": "uint256",
          "name": "index",
          "type": "uint256"
        }
      ],
      "name": "getRoleMember",
      "outputs": [
        {
          "internalType": "address",
          "name": "",
          "type": "address"
        }
      ],
      "stateMutability": "view",
      "type": "function"
    },
    {
      "inputs": [
        {
          "internalType": "bytes32",
          "name": "role",
          "type": "bytes32"
        }
      ],
      "name": "getRoleMemberCount",
      "outputs": [
        {
          "internalType": "uint256",
          "name": "",
          "type": "uint256"
        }
      ],
      "stateMutability": "view",
      "type": "function"
    },
    {
      "inputs": [
        {
          "internalType": "bytes32",
          "name": "role",
          "type": "bytes32"
        },
        {
          "internalType": "address",
          "name": "account",
          "type": "address"
        }
      ],
      "name": "grantRole",
      "outputs": [],
      "stateMutability": "nonpayable",
      "type": "function"
    },
    {
      "inputs": [
        {
          "internalType": "bytes32",
          "name": "role",
          "type": "bytes32"
        },
        {
          "internalType": "address",
          "name": "account",
          "type": "address"
        }
      ],
      "name": "hasRole",
      "outputs": [
        {
          "internalType": "bool",
          "name": "",
          "type": "bool"
        }
      ],
      "stateMutability": "view",
      "type": "function"
    },
    {
      "inputs": [
        {
          "internalType": "address",
          "name": "owner",
          "type": "address"
        },
        {
          "internalType": "address",
          "name": "operator",
          "type": "address"
        }
      ],
      "name": "isApprovedForAll",
      "outputs": [
        {
          "internalType": "bool",
          "name": "",
          "type": "bool"
        }
      ],
      "stateMutability": "view",
      "type": "function"
    },
    {
      "inputs": [
        {
          "internalType": "address",
          "name": "",
          "type": "address"
        }
      ],
      "name": "isWhitelistedMarket",
      "outputs": [
        {
          "internalType": "bool",
          "name": "",
          "type": "bool"
        }
      ],
      "stateMutability": "view",
      "type": "function"
    },
    {
      "inputs": [
        {
          "internalType": "string",
          "name": "_tokenURI",
          "type": "string"
        },
        {
          "internalType": "address payable",
          "name": "creator",
          "type": "address"
        },
        {
          "internalType": "bytes32",
          "name": "category",
          "type": "bytes32"
        },
        {
          "internalType": "bytes32",
          "name": "nature",
          "type": "bytes32"
        }
      ],
      "name": "mint",
      "outputs": [
        {
          "internalType": "uint256",
          "name": "newItemId",
          "type": "uint256"
        }
      ],
      "stateMutability": "nonpayable",
      "type": "function"
    },
    {
      "inputs": [],
      "name": "name",
      "outputs": [
        {
          "internalType": "string",
          "name": "",
          "type": "string"
        }
      ],
      "stateMutability": "view",
      "type": "function"
    },
    {
      "inputs": [
        {
          "internalType": "uint256",
          "name": "",
          "type": "uint256"
        }
      ],
      "name": "natures",
      "outputs": [
        {
          "internalType": "bytes32",
          "name": "",
          "type": "bytes32"
        }
      ],
      "stateMutability": "view",
      "type": "function"
    },
    {
      "inputs": [
        {
          "internalType": "uint256",
          "name": "tokenId",
          "type": "uint256"
        }
      ],
      "name": "ownerOf",
      "outputs": [
        {
          "internalType": "address",
          "name": "",
          "type": "address"
        }
      ],
      "stateMutability": "view",
      "type": "function"
    },
    {
      "inputs": [
        {
          "internalType": "bytes32",
          "name": "role",
          "type": "bytes32"
        },
        {
          "internalType": "address",
          "name": "account",
          "type": "address"
        }
      ],
      "name": "renounceRole",
      "outputs": [],
      "stateMutability": "nonpayable",
      "type": "function"
    },
    {
      "inputs": [
        {
          "internalType": "bytes32",
          "name": "role",
          "type": "bytes32"
        },
        {
          "internalType": "address",
          "name": "account",
          "type": "address"
        }
      ],
      "name": "revokeRole",
      "outputs": [],
      "stateMutability": "nonpayable",
      "type": "function"
    },
    {
      "inputs": [],
      "name": "royalty",
      "outputs": [
        {
          "internalType": "uint256",
          "name": "",
          "type": "uint256"
        }
      ],
      "stateMutability": "view",
      "type": "function"
    },
    {
      "inputs": [
        {
          "internalType": "uint256",
          "name": "_tokenId",
          "type": "uint256"
        },
        {
          "internalType": "uint256",
          "name": "_salePrice",
          "type": "uint256"
        }
      ],
      "name": "royaltyInfo",
      "outputs": [
        {
          "internalType": "address",
          "name": "",
          "type": "address"
        },
        {
          "internalType": "uint256",
          "name": "",
          "type": "uint256"
        }
      ],
      "stateMutability": "view",
      "type": "function"
    },
    {
      "inputs": [
        {
          "internalType": "address",
          "name": "from",
          "type": "address"
        },
        {
          "internalType": "address",
          "name": "to",
          "type": "address"
        },
        {
          "internalType": "uint256",
          "name": "tokenId",
          "type": "uint256"
        }
      ],
      "name": "safeTransferFrom",
      "outputs": [],
      "stateMutability": "nonpayable",
      "type": "function"
    },
    {
      "inputs": [
        {
          "internalType": "address",
          "name": "from",
          "type": "address"
        },
        {
          "internalType": "address",
          "name": "to",
          "type": "address"
        },
        {
          "internalType": "uint256",
          "name": "tokenId",
          "type": "uint256"
        },
        {
          "internalType": "bytes",
          "name": "_data",
          "type": "bytes"
        }
      ],
      "name": "safeTransferFrom",
      "outputs": [],
      "stateMutability": "nonpayable",
      "type": "function"
    },
    {
      "inputs": [
        {
          "internalType": "address",
          "name": "operator",
          "type": "address"
        },
        {
          "internalType": "bool",
          "name": "approved",
          "type": "bool"
        }
      ],
      "name": "setApprovalForAll",
      "outputs": [],
      "stateMutability": "nonpayable",
      "type": "function"
    },
    {
      "inputs": [
        {
          "internalType": "address",
          "name": "market",
          "type": "address"
        },
        {
          "internalType": "bool",
          "name": "isMarket",
          "type": "bool"
        }
      ],
      "name": "setMarket",
      "outputs": [],
      "stateMutability": "nonpayable",
      "type": "function"
    },
    {
      "inputs": [
        {
          "internalType": "uint256",
          "name": "_tokenId",
          "type": "uint256"
        },
        {
          "internalType": "address payable",
          "name": "_receiver",
          "type": "address"
        }
      ],
      "name": "setRoyaltyInfo",
      "outputs": [],
      "stateMutability": "nonpayable",
      "type": "function"
    },
    {
      "inputs": [
        {
          "internalType": "string",
          "name": "source",
          "type": "string"
        }
      ],
      "name": "stringToBytes32",
      "outputs": [
        {
          "internalType": "bytes32",
          "name": "result",
          "type": "bytes32"
        }
      ],
      "stateMutability": "pure",
      "type": "function"
    },
    {
      "inputs": [
        {
          "internalType": "bytes4",
          "name": "interfaceId",
          "type": "bytes4"
        }
      ],
      "name": "supportsInterface",
      "outputs": [
        {
          "internalType": "bool",
          "name": "itSupports",
          "type": "bool"
        }
      ],
      "stateMutability": "view",
      "type": "function"
    },
    {
      "inputs": [],
      "name": "symbol",
      "outputs": [
        {
          "internalType": "string",
          "name": "",
          "type": "string"
        }
      ],
      "stateMutability": "view",
      "type": "function"
    },
    {
      "inputs": [
        {
          "internalType": "uint256",
          "name": "index",
          "type": "uint256"
        }
      ],
      "name": "tokenByIndex",
      "outputs": [
        {
          "internalType": "uint256",
          "name": "",
          "type": "uint256"
        }
      ],
      "stateMutability": "view",
      "type": "function"
    },
    {
      "inputs": [
        {
          "internalType": "address",
          "name": "owner",
          "type": "address"
        },
        {
          "internalType": "uint256",
          "name": "index",
          "type": "uint256"
        }
      ],
      "name": "tokenOfOwnerByIndex",
      "outputs": [
        {
          "internalType": "uint256",
          "name": "",
          "type": "uint256"
        }
      ],
      "stateMutability": "view",
      "type": "function"
    },
    {
      "inputs": [
        {
          "internalType": "uint256",
          "name": "tokenId",
          "type": "uint256"
        }
      ],
      "name": "tokenURI",
      "outputs": [
        {
          "internalType": "string",
          "name": "URI",
          "type": "string"
        }
      ],
      "stateMutability": "view",
      "type": "function"
    },
    {
      "inputs": [],
      "name": "totalSupply",
      "outputs": [
        {
          "internalType": "uint256",
          "name": "",
          "type": "uint256"
        }
      ],
      "stateMutability": "view",
      "type": "function"
    },
    {
      "inputs": [
        {
          "internalType": "address",
          "name": "from",
          "type": "address"
        },
        {
          "internalType": "address",
          "name": "to",
          "type": "address"
        },
        {
          "internalType": "uint256",
          "name": "tokenId",
          "type": "uint256"
        }
      ],
      "name": "transferFrom",
      "outputs": [],
      "stateMutability": "nonpayable",
      "type": "function"
    }
  ],
  "bytecode": "0x60806040523480156200001157600080fd5b5060405162003470380380620034708339810160408190526200003491620004ab565b604080518082018252601581527f5261726543616e64793344204f726967696e616c7300000000000000000000006020808301918252835180850190945260058452645243332d4f60d81b908401528151919291620000969160029162000405565b508051620000ac90600390602084019062000405565b50508151620000c49150601290602084019062000405565b50620000d260008362000282565b620000fe7fa49807205ce4d355092ef5a8a18f56e8913cf4a201fbe287825b095693c217758362000282565b6200012a7f9f2df0fed2c77648de5860a4cc508cd0818c85b8b8a1ab4ceeef8d981c8956a68362000282565b600e620001586040518060400160405280600381526020016210549560ea1b8152506200029260201b60201c565b8154600181018355600092835260209283902001556040805180820190915260058152644d5553494360d81b91810191909152600e90620001999062000292565b8154600181018355600092835260209283902001556040805180820190915260078152662320a9a424a7a760c91b91810191909152600e90620001dc9062000292565b81546001810183556000928352602092839020015560408051808201909152600881526714121654d250d05360c21b918101919091526200021d9062000292565b600f55604080518082019091526007815266111251d255105360ca1b6020820152620002499062000292565b60105560408051808201909152600881526714121651d255105360c21b6020820152620002769062000292565b60115550620005fe9050565b6200028e8282620002b0565b5050565b80516000908290620002a75750600092915050565b50506020015190565b620002c78282620002f360201b620011601760201c565b6000828152600160209081526040909120620002ee918390620011e462000393821b17901c565b505050565b6000828152602081815260408083206001600160a01b038516845290915290205460ff166200028e576000828152602081815260408083206001600160a01b03851684529091529020805460ff191660011790556200034f3390565b6001600160a01b0316816001600160a01b0316837f2f8788117e7eff1d82e926ec794901d17c78024a50270940304540a733656f0d60405160405180910390a45050565b6000620003aa836001600160a01b038416620003b3565b90505b92915050565b6000818152600183016020526040812054620003fc57508154600181810184556000848152602080822090930184905584548482528286019093526040902091909155620003ad565b506000620003ad565b8280546200041390620005ab565b90600052602060002090601f01602090048101928262000437576000855562000482565b82601f106200045257805160ff191683800117855562000482565b8280016001018555821562000482579182015b828111156200048257825182559160200191906001019062000465565b506200049092915062000494565b5090565b5b8082111562000490576000815560010162000495565b60008060408385031215620004bf57600080fd5b82516001600160a01b0381168114620004d757600080fd5b602084810151919350906001600160401b0380821115620004f757600080fd5b818601915086601f8301126200050c57600080fd5b815181811115620005215762000521620005e8565b604051601f8201601f19908116603f011681019083821181831017156200054c576200054c620005e8565b8160405282815289868487010111156200056557600080fd5b600093505b828410156200058957848401860151818501870152928501926200056a565b828411156200059b5760008684830101525b8096505050505050509250929050565b600181811c90821680620005c057607f821691505b60208210811415620005e257634e487b7160e01b600052602260045260246000fd5b50919050565b634e487b7160e01b600052604160045260246000fd5b612e62806200060e6000396000f3fe608060405234801561001057600080fd5b50600436106101d85760003560e01c806301ffc9a7146101dd57806306fdde0314610205578063081812fc1461021a578063095ea7b31461024557806315bcf9b71461025a57806318160ddd1461026d5780631a3cd59a1461027f57806323b872dd146102bd578063248a9ca3146102d057806329ee566c146102e35780632a55205a146102ec5780632f2ff15d1461031e5780632f745c591461033157806336568abe1461034457806342842e0e1461035757806342966c681461036a5780634461b3841461037d5780634f6ccce7146103905780636352211e146103a357806370a08231146103b657806375b238fc146103c95780639010d07c146103de57806391d14854146103f15780639201de551461040457806395d89b4114610417578063a217fddf1461041f578063a22cb46514610427578063a2e696131461043a578063b318de491461044d578063b5de3d1414610460578063b88d4fde14610473578063c6cdbe5e14610486578063c87b56dd14610499578063ca15c873146104ac578063cfb51928146104bf578063d5391393146104d2578063d547741f146104e7578063d547cfb7146104fa578063e80bc6e114610502578063e985e9c514610525575b600080fd5b6101f06101eb366004612958565b610538565b60405190151581526020015b60405180910390f35b61020d610563565b6040516101fc9190612b2b565b61022d6102283660046128f8565b6105f5565b6040516001600160a01b0390911681526020016101fc565b6102586102533660046128cc565b610682565b005b610258610268366004612899565b610793565b600b545b6040519081526020016101fc565b61029261028d3660046128f8565b610899565b6040805182516001600160a01b031681526020808401519082015291810151908201526060016101fc565b6102586102cb3660046127d9565b61091d565b6102716102de3660046128f8565b61094f565b6102716105dc81565b6102ff6102fa366004612936565b610964565b604080516001600160a01b0390931683526020830191909152016101fc565b61025861032c366004612911565b610992565b61027161033f3660046128cc565b6109ae565b610258610352366004612911565b610a44565b6102586103653660046127d9565b610ac2565b6102586103783660046128f8565b610add565b61027161038b3660046129c6565b610b57565b61027161039e3660046128f8565b610c73565b61022d6103b13660046128f8565b610d06565b6102716103c4366004612783565b610d7d565b610271600080516020612e3683398151915281565b61022d6103ec366004612936565b610e04565b6101f06103ff366004612911565b610e23565b61020d6104123660046128f8565b610e4c565b61020d610f7b565b610271600081565b610258610435366004612899565b610f8a565b6102716104483660046128f8565b610f95565b61027161045b3660046128f8565b610fb0565b61025861046e366004612911565b610fc7565b61025861048136600461281a565b61106f565b6102716104943660046128f8565b6110a7565b61020d6104a73660046128f8565b6110c8565b6102716104ba3660046128f8565b6110d3565b6102716104cd366004612992565b6110ea565b610271600080516020612df683398151915281565b6102586104f5366004612911565b611107565b61020d611123565b6101f0610510366004612783565b60146020526000908152604090205460ff1681565b6101f06105333660046127a0565b611132565b600063152a902d60e11b6001600160e01b03198316148061055d575061055d826111f9565b92915050565b60606002805461057290612cd2565b80601f016020809104026020016040519081016040528092919081815260200182805461059e90612cd2565b80156105eb5780601f106105c0576101008083540402835291602001916105eb565b820191906000526020600020905b8154815290600101906020018083116105ce57829003601f168201915b5050505050905090565b60006106008261121e565b6106665760405162461bcd60e51b815260206004820152602c60248201527f4552433732313a20617070726f76656420717565727920666f72206e6f6e657860448201526b34b9ba32b73a103a37b5b2b760a11b60648201526084015b60405180910390fd5b506000908152600660205260409020546001600160a01b031690565b600061068d82610d06565b9050806001600160a01b0316836001600160a01b031614156106fb5760405162461bcd60e51b815260206004820152602160248201527f4552433732313a20617070726f76616c20746f2063757272656e74206f776e656044820152603960f91b606482015260840161065d565b336001600160a01b038216148061071757506107178133611132565b6107845760405162461bcd60e51b815260206004820152603860248201527f4552433732313a20617070726f76652063616c6c6572206973206e6f74206f776044820152771b995c881b9bdc88185c1c1c9bdd995908199bdc88185b1b60421b606482015260840161065d565b61078e838361123b565b505050565b61079e600033610e23565b806107bc57506107bc600080516020612e3683398151915233610e23565b6107f55760405162461bcd60e51b815260206004820152600a60248201526941444d494e5f4f4e4c5960b01b604482015260640161065d565b6001600160a01b03821661083a5760405162461bcd60e51b815260206004820152600c60248201526b5a45524f5f4144445245535360a01b604482015260640161065d565b6001600160a01b038216600081815260146020908152604091829020805460ff191685151590811790915591519182527f497d1799a068d52587e2c92131b971faa22ba31099f30bab68d1cc2b875ff291910160405180910390a25050565b60408051606081018252600080825260208201819052918101919091526108bf8261121e565b6108db5760405162461bcd60e51b815260040161065d90612b90565b50600090815260136020908152604091829020825160608101845281546001600160a01b03168152600182015492810192909252600201549181019190915290565b610928335b826112a9565b6109445760405162461bcd60e51b815260040161065d90612bdc565b61078e83838361135d565b60009081526020819052604090206001015490565b60008281526013602052604081205481906001600160a01b031661098784610f95565b915091509250929050565b61099b8261094f565b6109a4816114f2565b61078e83836114fc565b60006109b983610d7d565b8210610a1b5760405162461bcd60e51b815260206004820152602b60248201527f455243373231456e756d657261626c653a206f776e657220696e646578206f7560448201526a74206f6620626f756e647360a81b606482015260840161065d565b506001600160a01b03919091166000908152600960209081526040808320938352929052205490565b6001600160a01b0381163314610ab45760405162461bcd60e51b815260206004820152602f60248201527f416363657373436f6e74726f6c3a2063616e206f6e6c792072656e6f756e636560448201526e103937b632b9903337b91039b2b63360891b606482015260840161065d565b610abe828261151e565b5050565b61078e8383836040518060200160405280600081525061106f565b610ae633610922565b610b4b5760405162461bcd60e51b815260206004820152603060248201527f4552433732314275726e61626c653a2063616c6c6572206973206e6f74206f7760448201526f1b995c881b9bdc88185c1c1c9bdd995960821b606482015260840161065d565b610b5481611540565b50565b60008282610b658282611570565b610b7d600080516020612df683398151915233610e23565b610bb75760405162461bcd60e51b815260206004820152600b60248201526a4d494e5445525f4f4e4c5960a81b604482015260640161065d565b610bc5600d80546001019055565b600d549250610bd48684611697565b610bde83886116b1565b600083815260136020526040902080546001600160a01b0319166001600160a01b03881617815560018101859055600201859055836001600160a01b038716336001600160a01b03167f14f27be66e5bf44818afdcf2f82fcf6698f7b2c7973205e98aef7ae7267e0eac8689604051610c61929190918252602082015260400190565b60405180910390a45050949350505050565b6000610c7e600b5490565b8210610ce15760405162461bcd60e51b815260206004820152602c60248201527f455243373231456e756d657261626c653a20676c6f62616c20696e646578206f60448201526b7574206f6620626f756e647360a01b606482015260840161065d565b600b8281548110610cf457610cf4612d9e565b90600052602060002001549050919050565b6000818152600460205260408120546001600160a01b03168061055d5760405162461bcd60e51b815260206004820152602960248201527f4552433732313a206f776e657220717565727920666f72206e6f6e657869737460448201526832b73a103a37b5b2b760b91b606482015260840161065d565b60006001600160a01b038216610de85760405162461bcd60e51b815260206004820152602a60248201527f4552433732313a2062616c616e636520717565727920666f7220746865207a65604482015269726f206164647265737360b01b606482015260840161065d565b506001600160a01b031660009081526005602052604090205490565b6000828152600160205260408120610e1c908361173c565b9392505050565b6000918252602082815260408084206001600160a01b0393909316845291905290205460ff1690565b606060005b60208160ff16108015610e855750828160ff1660208110610e7457610e74612d9e565b1a60f81b6001600160f81b03191615155b15610e9c5780610e9481612d28565b915050610e51565b60008160ff166001600160401b03811115610eb957610eb9612db4565b6040519080825280601f01601f191660200182016040528015610ee3576020820181803683370190505b509050600091505b60208260ff16108015610f1f5750838260ff1660208110610f0e57610f0e612d9e565b1a60f81b6001600160f81b03191615155b15610e1c57838260ff1660208110610f3957610f39612d9e565b1a60f81b818360ff1681518110610f5257610f52612d9e565b60200101906001600160f81b031916908160001a90535081610f7381612d28565b925050610eeb565b60606003805461057290612cd2565b610abe338383611748565b6000612710610fa66105dc84612c59565b61055d9190612c45565b600f8160038110610fc057600080fd5b0154905081565b600082815260136020526040902080546001600160a01b031633146110245760405162461bcd60e51b81526020600482015260136024820152722aa720aaaa2427a924ad22a22fa1a0a62622a960691b604482015260640161065d565b80546001600160a01b0319166001600160a01b038316908117825560405133907fef8f0d5f16a5283d66ae7e12801103421d077cfa56a9afe9c2b066459e3a231690600090a3505050565b61107933836112a9565b6110955760405162461bcd60e51b815260040161065d90612bdc565b6110a184848484611813565b50505050565b600e81815481106110b757600080fd5b600091825260209091200154905081565b606061055d82611846565b600081815260016020526040812061055d906119a8565b805160009082906110fe5750600092915050565b50506020015190565b6111108261094f565b611119816114f2565b61078e838361151e565b606061112d6119b2565b905090565b6001600160a01b03918216600090815260076020908152604080832093909416825291909152205460ff1690565b61116a8282610e23565b610abe576000828152602081815260408083206001600160a01b03851684529091529020805460ff191660011790556111a03390565b6001600160a01b0316816001600160a01b0316837f2f8788117e7eff1d82e926ec794901d17c78024a50270940304540a733656f0d60405160405180910390a45050565b6000610e1c836001600160a01b0384166119c1565b60006001600160e01b0319821663780e9d6360e01b148061055d575061055d82611a10565b6000908152600460205260409020546001600160a01b0316151590565b600081815260066020526040902080546001600160a01b0319166001600160a01b038416908117909155819061127082610d06565b6001600160a01b03167f8c5be1e5ebec7d5bd14f71427d1e84f3dd0314c0f7b2291e5b200ac8c7c3b92560405160405180910390a45050565b60006112b58383611a50565b90506112c08261121e565b6112dc5760405162461bcd60e51b815260040161065d90612b90565b60006112e783610d06565b9050806001600160a01b0316846001600160a01b031614806113225750836001600160a01b0316611317846105f5565b6001600160a01b0316145b8061133257506113328185611132565b8061135557506001600160a01b03841660009081526014602052604090205460ff165b949350505050565b826001600160a01b031661137082610d06565b6001600160a01b0316146113d45760405162461bcd60e51b815260206004820152602560248201527f4552433732313a207472616e736665722066726f6d20696e636f72726563742060448201526437bbb732b960d91b606482015260840161065d565b6001600160a01b0382166114365760405162461bcd60e51b8152602060048201526024808201527f4552433732313a207472616e7366657220746f20746865207a65726f206164646044820152637265737360e01b606482015260840161065d565b611441838383611ad4565b61144c60008261123b565b6001600160a01b0383166000908152600560205260408120805460019290611475908490612c78565b90915550506001600160a01b03821660009081526005602052604081208054600192906114a3908490612c2d565b909155505060008181526004602052604080822080546001600160a01b0319166001600160a01b038681169182179092559151849391871691600080516020612e1683398151915291a4505050565b610b548133611adf565b6115068282611160565b600082815260016020526040902061078e90826111e4565b6115288282611b43565b600082815260016020526040902061078e9082611ba8565b600081815260136020526040812080546001600160a01b03191681556001810182905560020155610b5481611bbd565b6000805b60038110156115b6576000600f826003811061159257611592612d9e565b01549050838114156115a357600192505b50806115ae81612d0d565b915050611574565b50806115f85760405162461bcd60e51b81526020600482015260116024820152704f4e4c595f56414c49445f4e415455524560781b604482015260640161065d565b600e54600090815b8181101561164a576000600e828154811061161d5761161d612d9e565b906000526020600020015490508681141561163757600193505b508061164281612d0d565b915050611600565b50816116905760405162461bcd60e51b81526020600482015260156024820152744f4e4c595f435245415445445f43415445474f525960581b604482015260640161065d565b5050505050565b610abe828260405180602001604052806000815250611bfd565b6116ba8261121e565b61171d5760405162461bcd60e51b815260206004820152602e60248201527f45524337323155524953746f726167653a2055524920736574206f66206e6f6e60448201526d32bc34b9ba32b73a103a37b5b2b760911b606482015260840161065d565b6000828152600860209081526040909120825161078e9284019061261f565b6000610e1c8383611c30565b816001600160a01b0316836001600160a01b031614156117a65760405162461bcd60e51b815260206004820152601960248201527822a9219b99189d1030b8383937bb32903a379031b0b63632b960391b604482015260640161065d565b6001600160a01b03838116600081815260076020908152604080832094871680845294825291829020805460ff191686151590811790915591519182527f17307eab39ab6107e8899845ad3d59bd9653f200f220920489ca2b5937696c31910160405180910390a3505050565b61181e84848461135d565b61182a84848484611c5a565b6110a15760405162461bcd60e51b815260040161065d90612b3e565b60606118518261121e565b6118b75760405162461bcd60e51b815260206004820152603160248201527f45524337323155524953746f726167653a2055524920717565727920666f72206044820152703737b732bc34b9ba32b73a103a37b5b2b760791b606482015260840161065d565b600082815260086020526040812080546118d090612cd2565b80601f01602080910402602001604051908101604052809291908181526020018280546118fc90612cd2565b80156119495780601f1061191e57610100808354040283529160200191611949565b820191906000526020600020905b81548152906001019060200180831161192c57829003601f168201915b50505050509050600061195a6119b2565b905080516000141561196d575092915050565b81511561199f578082604051602001611987929190612a50565b60405160208183030381529060405292505050919050565b61135584611d67565b600061055d825490565b60606012805461057290612cd2565b6000818152600183016020526040812054611a085750815460018181018455600084815260208082209093018490558454848252828601909352604090209190915561055d565b50600061055d565b60006001600160e01b031982166380ac58cd60e01b1480611a4157506001600160e01b03198216635b5e139f60e01b145b8061055d575061055d82611e31565b6000611a5b8261121e565b611a775760405162461bcd60e51b815260040161065d90612b90565b6000611a8283610d06565b9050806001600160a01b0316846001600160a01b03161480611aa95750611aa98185611132565b806113555750836001600160a01b0316611ac2846105f5565b6001600160a01b031614949350505050565b61078e838383611e56565b611ae98282610e23565b610abe57611b01816001600160a01b03166014611f0e565b611b0c836020611f0e565b604051602001611b1d929190612a7f565b60408051601f198184030181529082905262461bcd60e51b825261065d91600401612b2b565b611b4d8282610e23565b15610abe576000828152602081815260408083206001600160a01b0385168085529252808320805460ff1916905551339285917ff6391f5c32d9c69d2a47ea670b442974b53935d1edc7fd64eb21e047a839171b9190a45050565b6000610e1c836001600160a01b0384166120a9565b611bc68161219c565b60008181526008602052604090208054611bdf90612cd2565b159050610b54576000818152600860205260408120610b54916126a3565b611c078383612231565b611c146000848484611c5a565b61078e5760405162461bcd60e51b815260040161065d90612b3e565b6000826000018281548110611c4757611c47612d9e565b9060005260206000200154905092915050565b60006001600160a01b0384163b15611d5c57604051630a85bd0160e11b81526001600160a01b0385169063150b7a0290611c9e903390899088908890600401612aee565b602060405180830381600087803b158015611cb857600080fd5b505af1925050508015611ce8575060408051601f3d908101601f19168201909252611ce591810190612975565b60015b611d42573d808015611d16576040519150601f19603f3d011682016040523d82523d6000602084013e611d1b565b606091505b508051611d3a5760405162461bcd60e51b815260040161065d90612b3e565b805181602001fd5b6001600160e01b031916630a85bd0160e11b149050611355565b506001949350505050565b6060611d728261121e565b611dd65760405162461bcd60e51b815260206004820152602f60248201527f4552433732314d657461646174613a2055524920717565727920666f72206e6f60448201526e3732bc34b9ba32b73a103a37b5b2b760891b606482015260840161065d565b6000611de06119b2565b90506000815111611e005760405180602001604052806000815250610e1c565b80611e0a8461235d565b604051602001611e1b929190612a50565b6040516020818303038152906040529392505050565b60006001600160e01b03198216635a05180f60e01b148061055d575061055d8261245a565b6001600160a01b038316611eb157611eac81600b80546000838152600c60205260408120829055600182018355919091527f0175b7a638427703f0dbe7bb9bbf987a2551717b34e79f33b5b1008d1fa01db90155565b611ed4565b816001600160a01b0316836001600160a01b031614611ed457611ed4838261248f565b6001600160a01b038216611eeb5761078e8161252c565b826001600160a01b0316826001600160a01b03161461078e5761078e82826125db565b60606000611f1d836002612c59565b611f28906002612c2d565b6001600160401b03811115611f3f57611f3f612db4565b6040519080825280601f01601f191660200182016040528015611f69576020820181803683370190505b509050600360fc1b81600081518110611f8457611f84612d9e565b60200101906001600160f81b031916908160001a905350600f60fb1b81600181518110611fb357611fb3612d9e565b60200101906001600160f81b031916908160001a9053506000611fd7846002612c59565b611fe2906001612c2d565b90505b600181111561205a576f181899199a1a9b1b9c1cb0b131b232b360811b85600f166010811061201657612016612d9e565b1a60f81b82828151811061202c5761202c612d9e565b60200101906001600160f81b031916908160001a90535060049490941c9361205381612cbb565b9050611fe5565b508315610e1c5760405162461bcd60e51b815260206004820181905260248201527f537472696e67733a20686578206c656e67746820696e73756666696369656e74604482015260640161065d565b600081815260018301602052604081205480156121925760006120cd600183612c78565b85549091506000906120e190600190612c78565b905081811461214657600086600001828154811061210157612101612d9e565b906000526020600020015490508087600001848154811061212457612124612d9e565b6000918252602080832090910192909255918252600188019052604090208390555b855486908061215757612157612d88565b60019003818190600052602060002001600090559055856001016000868152602001908152602001600020600090556001935050505061055d565b600091505061055d565b60006121a782610d06565b90506121b581600084611ad4565b6121c060008361123b565b6001600160a01b03811660009081526005602052604081208054600192906121e9908490612c78565b909155505060008281526004602052604080822080546001600160a01b0319169055518391906001600160a01b03841690600080516020612e16833981519152908390a45050565b6001600160a01b0382166122875760405162461bcd60e51b815260206004820181905260248201527f4552433732313a206d696e7420746f20746865207a65726f2061646472657373604482015260640161065d565b6122908161121e565b156122dc5760405162461bcd60e51b815260206004820152601c60248201527b115490cdcc8c4e881d1bdad95b88185b1c9958591e481b5a5b9d195960221b604482015260640161065d565b6122e860008383611ad4565b6001600160a01b0382166000908152600560205260408120805460019290612311908490612c2d565b909155505060008181526004602052604080822080546001600160a01b0319166001600160a01b0386169081179091559051839290600080516020612e16833981519152908290a45050565b6060816123815750506040805180820190915260018152600360fc1b602082015290565b8160005b81156123ab578061239581612d0d565b91506123a49050600a83612c45565b9150612385565b6000816001600160401b038111156123c5576123c5612db4565b6040519080825280601f01601f1916602001820160405280156123ef576020820181803683370190505b5090505b841561135557612404600183612c78565b9150612411600a86612d48565b61241c906030612c2d565b60f81b81838151811061243157612431612d9e565b60200101906001600160f81b031916908160001a905350612453600a86612c45565b94506123f3565b60006001600160e01b03198216637965db0b60e01b148061055d57506301ffc9a760e01b6001600160e01b031983161461055d565b6000600161249c84610d7d565b6124a69190612c78565b6000838152600a60205260409020549091508082146124f9576001600160a01b03841660009081526009602090815260408083208584528252808320548484528184208190558352600a90915290208190555b506000918252600a602090815260408084208490556001600160a01b039094168352600981528383209183525290812055565b600b5460009061253e90600190612c78565b6000838152600c6020526040812054600b805493945090928490811061256657612566612d9e565b9060005260206000200154905080600b838154811061258757612587612d9e565b6000918252602080832090910192909255828152600c9091526040808220849055858252812055600b8054806125bf576125bf612d88565b6001900381819060005260206000200160009055905550505050565b60006125e683610d7d565b6001600160a01b0390931660009081526009602090815260408083208684528252808320859055938252600a9052919091209190915550565b82805461262b90612cd2565b90600052602060002090601f01602090048101928261264d5760008555612693565b82601f1061266657805160ff1916838001178555612693565b82800160010185558215612693579182015b82811115612693578251825591602001919060010190612678565b5061269f9291506126d9565b5090565b5080546126af90612cd2565b6000825580601f106126bf575050565b601f016020900490600052602060002090810190610b5491905b5b8082111561269f57600081556001016126da565b60006001600160401b038084111561270857612708612db4565b604051601f8501601f19908116603f0116810190828211818310171561273057612730612db4565b8160405280935085815286868601111561274957600080fd5b858560208301376000602087830101525050509392505050565b600082601f83011261277457600080fd5b610e1c838335602085016126ee565b60006020828403121561279557600080fd5b8135610e1c81612dca565b600080604083850312156127b357600080fd5b82356127be81612dca565b915060208301356127ce81612dca565b809150509250929050565b6000806000606084860312156127ee57600080fd5b83356127f981612dca565b9250602084013561280981612dca565b929592945050506040919091013590565b6000806000806080858703121561283057600080fd5b843561283b81612dca565b9350602085013561284b81612dca565b92506040850135915060608501356001600160401b0381111561286d57600080fd5b8501601f8101871361287e57600080fd5b61288d878235602084016126ee565b91505092959194509250565b600080604083850312156128ac57600080fd5b82356128b781612dca565b9150602083013580151581146127ce57600080fd5b600080604083850312156128df57600080fd5b82356128ea81612dca565b946020939093013593505050565b60006020828403121561290a57600080fd5b5035919050565b6000806040838503121561292457600080fd5b8235915060208301356127ce81612dca565b6000806040838503121561294957600080fd5b50508035926020909101359150565b60006020828403121561296a57600080fd5b8135610e1c81612ddf565b60006020828403121561298757600080fd5b8151610e1c81612ddf565b6000602082840312156129a457600080fd5b81356001600160401b038111156129ba57600080fd5b61135584828501612763565b600080600080608085870312156129dc57600080fd5b84356001600160401b038111156129f257600080fd5b6129fe87828801612763565b9450506020850135612a0f81612dca565b93969395505050506040820135916060013590565b60008151808452612a3c816020860160208601612c8f565b601f01601f19169290920160200192915050565b60008351612a62818460208801612c8f565b835190830190612a76818360208801612c8f565b01949350505050565b76020b1b1b2b9b9a1b7b73a3937b61d1030b1b1b7bab73a1604d1b815260008351612ab1816017850160208801612c8f565b7001034b99036b4b9b9b4b733903937b6329607d1b6017918401918201528351612ae2816028840160208801612c8f565b01602801949350505050565b6001600160a01b0385811682528416602082015260408101839052608060608201819052600090612b2190830184612a24565b9695505050505050565b602081526000610e1c6020830184612a24565b60208082526032908201527f4552433732313a207472616e7366657220746f206e6f6e20455243373231526560408201527131b2b4bb32b91034b6b83632b6b2b73a32b960711b606082015260800190565b6020808252602c908201527f4552433732313a206f70657261746f7220717565727920666f72206e6f6e657860408201526b34b9ba32b73a103a37b5b2b760a11b606082015260800190565b60208082526031908201527f4552433732313a207472616e736665722063616c6c6572206973206e6f74206f6040820152701ddb995c881b9bdc88185c1c1c9bdd9959607a1b606082015260800190565b60008219821115612c4057612c40612d5c565b500190565b600082612c5457612c54612d72565b500490565b6000816000190483118215151615612c7357612c73612d5c565b500290565b600082821015612c8a57612c8a612d5c565b500390565b60005b83811015612caa578181015183820152602001612c92565b838111156110a15750506000910152565b600081612cca57612cca612d5c565b506000190190565b600181811c90821680612ce657607f821691505b60208210811415612d0757634e487b7160e01b600052602260045260246000fd5b50919050565b6000600019821415612d2157612d21612d5c565b5060010190565b600060ff821660ff811415612d3f57612d3f612d5c565b60010192915050565b600082612d5757612d57612d72565b500690565b634e487b7160e01b600052601160045260246000fd5b634e487b7160e01b600052601260045260246000fd5b634e487b7160e01b600052603160045260246000fd5b634e487b7160e01b600052603260045260246000fd5b634e487b7160e01b600052604160045260246000fd5b6001600160a01b0381168114610b5457600080fd5b6001600160e01b031981168114610b5457600080fdfe9f2df0fed2c77648de5860a4cc508cd0818c85b8b8a1ab4ceeef8d981c8956a6ddf252ad1be2c89b69c2b068fc378daa952ba7f163c4a11628f55a4df523b3efa49807205ce4d355092ef5a8a18f56e8913cf4a201fbe287825b095693c21775a164736f6c6343000806000a",
  "linkReferences": {},
  "deployedLinkReferences": {}
}