{
  "_format": "hh-sol-artifact-1",
  "contractName": "RC3_Staking",
  "sourceName": "contracts/RC3_Staking.sol",
  "abi": [
    {
      "inputs": [
        {
          "internalType": "address",
          "name": "_rc3",
          "type": "address"
        },
        {
          "internalType": "address",
          "name": "_rcdy",
          "type": "address"
        },
        {
          "internalType": "uint256",
          "name": "_dailyReward",
          "type": "uint256"
        }
      ],
      "stateMutability": "nonpayable",
      "type": "constructor"
    },
    {
      "anonymous": false,
      "inputs": [
        {
          "indexed": true,
          "internalType": "address",
          "name": "user",
          "type": "address"
        },
        {
          "indexed": false,
          "internalType": "uint256",
          "name": "rewards",
          "type": "uint256"
        }
      ],
      "name": "NewClaim",
      "type": "event"
    },
    {
      "anonymous": false,
      "inputs": [
        {
          "indexed": true,
          "internalType": "address",
          "name": "user",
          "type": "address"
        },
        {
          "indexed": false,
          "internalType": "uint256",
          "name": "tokenId",
          "type": "uint256"
        },
        {
          "indexed": false,
          "internalType": "uint256",
          "name": "timestamp",
          "type": "uint256"
        }
      ],
      "name": "NewStake",
      "type": "event"
    },
    {
      "anonymous": false,
      "inputs": [
        {
          "indexed": true,
          "internalType": "address",
          "name": "user",
          "type": "address"
        },
        {
          "indexed": false,
          "internalType": "uint256",
          "name": "tokenId",
          "type": "uint256"
        },
        {
          "indexed": false,
          "internalType": "uint256",
          "name": "timestamp",
          "type": "uint256"
        }
      ],
      "name": "NewUnstake",
      "type": "event"
    },
    {
      "anonymous": false,
      "inputs": [
        {
          "indexed": true,
          "internalType": "address",
          "name": "previousOwner",
          "type": "address"
        },
        {
          "indexed": true,
          "internalType": "address",
          "name": "newOwner",
          "type": "address"
        }
      ],
      "name": "OwnershipTransferred",
      "type": "event"
    },
    {
      "inputs": [],
      "name": "BLOCKS_PER_DAY",
      "outputs": [
        {
          "internalType": "uint256",
          "name": "",
          "type": "uint256"
        }
      ],
      "stateMutability": "view",
      "type": "function"
    },
    {
      "inputs": [
        {
          "internalType": "uint256",
          "name": "_tokenId",
          "type": "uint256"
        }
      ],
      "name": "claimRCDY",
      "outputs": [
        {
          "internalType": "bool",
          "name": "success",
          "type": "bool"
        }
      ],
      "stateMutability": "nonpayable",
      "type": "function"
    },
    {
      "inputs": [],
      "name": "dailyReward",
      "outputs": [
        {
          "internalType": "uint256",
          "name": "",
          "type": "uint256"
        }
      ],
      "stateMutability": "view",
      "type": "function"
    },
    {
      "inputs": [
        {
          "internalType": "uint256",
          "name": "_tokenId",
          "type": "uint256"
        }
      ],
      "name": "getClaimableRewards",
      "outputs": [
        {
          "internalType": "uint256",
          "name": "claimable",
          "type": "uint256"
        }
      ],
      "stateMutability": "view",
      "type": "function"
    },
    {
      "inputs": [
        {
          "internalType": "uint256",
          "name": "_tokenId",
          "type": "uint256"
        }
      ],
      "name": "getNFTDetail",
      "outputs": [
        {
          "components": [
            {
              "internalType": "address",
              "name": "stakeholder",
              "type": "address"
            },
            {
              "internalType": "uint256",
              "name": "checkpoint",
              "type": "uint256"
            },
            {
              "internalType": "uint256",
              "name": "claimed",
              "type": "uint256"
            }
          ],
          "internalType": "struct RC3_Staking.Id",
          "name": "nftDetail",
          "type": "tuple"
        }
      ],
      "stateMutability": "view",
      "type": "function"
    },
    {
      "inputs": [],
      "name": "owner",
      "outputs": [
        {
          "internalType": "address",
          "name": "",
          "type": "address"
        }
      ],
      "stateMutability": "view",
      "type": "function"
    },
    {
      "inputs": [],
      "name": "renounceOwnership",
      "outputs": [],
      "stateMutability": "nonpayable",
      "type": "function"
    },
    {
      "inputs": [
        {
          "internalType": "uint256",
          "name": "_tokenId",
          "type": "uint256"
        }
      ],
      "name": "stakeRC3",
      "outputs": [
        {
          "internalType": "bool",
          "name": "staked",
          "type": "bool"
        }
      ],
      "stateMutability": "nonpayable",
      "type": "function"
    },
    {
      "inputs": [
        {
          "internalType": "address",
          "name": "newOwner",
          "type": "address"
        }
      ],
      "name": "transferOwnership",
      "outputs": [],
      "stateMutability": "nonpayable",
      "type": "function"
    },
    {
      "inputs": [
        {
          "internalType": "uint256",
          "name": "_tokenId",
          "type": "uint256"
        }
      ],
      "name": "unstakeRC3",
      "outputs": [
        {
          "internalType": "bool",
          "name": "unstaked",
          "type": "bool"
        }
      ],
      "stateMutability": "nonpayable",
      "type": "function"
    }
  ],
  "bytecode": "0x60c060405234801561001057600080fd5b50604051610eed380380610eed83398101604081905261002f91610146565b610038336100da565b600180556001600160a01b0383161580159061005c57506001600160a01b03821615155b801561006757508015155b6100b75760405162461bcd60e51b815260206004820152601860248201527f43616e6e6f7420696e707574206e756c6c2076616c7565730000000000000000604482015260640160405180910390fd5b6001600160601b0319606093841b81166080529190921b1660a052600255610182565b600080546001600160a01b038381166001600160a01b0319831681178455604051919092169283917f8be0079c531659141344cd1fd0a4f28419497f9722a3daafe3b4186f6b6457e09190a35050565b80516001600160a01b038116811461014157600080fd5b919050565b60008060006060848603121561015b57600080fd5b6101648461012a565b92506101726020850161012a565b9150604084015190509250925092565b60805160601c60a05160601c610d326101bb60003960006107440152600081816101e2015281816102e801526104410152610d326000f3fe608060405234801561001057600080fd5b506004361061008e5760003560e01c80635dff42b014610093578063693ebed1146100bb5780636bb987fe146100ce578063715018a6146100e55780637b167dfa146100ef5780638da5cb5b14610102578063ae3d515614610122578063c381850014610135578063c964ad4514610173578063f2fde38b1461017c575b600080fd5b6100a66100a1366004610b30565b61018f565b60405190151581526020015b60405180910390f35b6100a66100c9366004610b30565b61039f565b6100d761168081565b6040519081526020016100b2565b6100ed6104fb565b005b6100d76100fd366004610b30565b610536565b61010a610547565b6040516001600160a01b0390911681526020016100b2565b6100a6610130366004610b30565b610556565b610148610143366004610b30565b6105de565b6040805182516001600160a01b031681526020808401519082015291810151908201526060016100b2565b6100d760025481565b6100ed61018a366004610ad4565b61064d565b6000600260015414156101bd5760405162461bcd60e51b81526004016101b490610c27565b60405180910390fd5b60026001556040516331a9108f60e11b81526004810183905233906001600160a01b037f00000000000000000000000000000000000000000000000000000000000000001690636352211e9060240160206040518083038186803b15801561022457600080fd5b505afa158015610238573d6000803e3d6000fd5b505050506040513d601f19601f8201168201806040525081019061025c9190610af1565b6001600160a01b0316146102b05760405162461bcd60e51b815260206004820152601b60248201527a2cb7ba9030b932903737ba103a3432903a37b5b2b71037bbb732b960291b60448201526064016101b4565b6000828152600360205260409081902080546001600160a01b03191633908117825543600183015591516323b872dd60e01b815290917f00000000000000000000000000000000000000000000000000000000000000006001600160a01b0316916323b872dd916103279130908890600401610b65565b600060405180830381600087803b15801561034157600080fd5b505af1158015610355573d6000803e3d6000fd5b5050604080518681524260208201523393507f55595f34fd936311e65eca0a752ee70068b8992fdf64918aff1b6345689c84e492500160405180910390a250506001808055919050565b60008181526003602052604081205482906001600160a01b031633146103d75760405162461bcd60e51b81526004016101b490610bbc565b600260015414156103fa5760405162461bcd60e51b81526004016101b490610c27565b6002600155610408836106ed565b60008381526003602052604080822060028101839055600181019290925581546001600160a01b0319168255516323b872dd60e01b81527f00000000000000000000000000000000000000000000000000000000000000006001600160a01b0316906323b872dd9061048290309033908990600401610b65565b600060405180830381600087803b15801561049c57600080fd5b505af11580156104b0573d6000803e3d6000fd5b5050604080518781524260208201523393507fd6954c073268a41234627942b1c88cbf53c8bdc07009b12907400074e65d3e9b92500160405180910390a25050600180805592915050565b33610504610547565b6001600160a01b03161461052a5760405162461bcd60e51b81526004016101b490610bf2565b61053460006107aa565b565b6000610541826107fa565b92915050565b6000546001600160a01b031690565b60006002600154141561057b5760405162461bcd60e51b81526004016101b490610c27565b600260015560008281526003602052604090205482906001600160a01b031633146105b85760405162461bcd60e51b81526004016101b490610bbc565b6105c1836106ed565b505060009081526003602052604090204360019182015580805590565b61060b604051806060016040528060006001600160a01b0316815260200160008152602001600081525090565b50600090815260036020908152604091829020825160608101845281546001600160a01b03168152600182015492810192909252600201549181019190915290565b33610656610547565b6001600160a01b03161461067c5760405162461bcd60e51b81526004016101b490610bf2565b6001600160a01b0381166106e15760405162461bcd60e51b815260206004820152602660248201527f4f776e61626c653a206e6577206f776e657220697320746865207a65726f206160448201526564647265737360d01b60648201526084016101b4565b6106ea816107aa565b50565b60008181526003602052604090206001810154438110156107a5576000610713846107fa565b905080156107a3578083600201600082825461072f9190610c5e565b9091555050825461076d906001600160a01b037f00000000000000000000000000000000000000000000000000000000000000008116911683610846565b60405181815233907f081144d27d70f1f67f67a65289dde411e1a9511c916d13ee3ff9bf22f169cd9a9060200160405180910390a25b505b505050565b600080546001600160a01b038381166001600160a01b0319831681178455604051919092169283917f8be0079c531659141344cd1fd0a4f28419497f9722a3daafe3b4186f6b6457e09190a35050565b6000818152600360205260408120600101548061081a5750600092915050565b6002546116809061082b8343610cb7565b6108359190610c98565b61083f9190610c76565b9392505050565b604080516001600160a01b03848116602483015260448083018590528351808403909101815260649092018352602080830180516001600160e01b031663a9059cbb60e01b17905283518085019094528084527f5361666545524332303a206c6f772d6c6576656c2063616c6c206661696c6564908401526107a5928692916000916108d6918516908490610953565b8051909150156107a557808060200190518101906108f49190610b0e565b6107a55760405162461bcd60e51b815260206004820152602a60248201527f5361666545524332303a204552433230206f7065726174696f6e20646964206e6044820152691bdd081cdd58d8d9595960b21b60648201526084016101b4565b6060610962848460008561096a565b949350505050565b6060824710156109cb5760405162461bcd60e51b815260206004820152602660248201527f416464726573733a20696e73756666696369656e742062616c616e636520666f6044820152651c8818d85b1b60d21b60648201526084016101b4565b6001600160a01b0385163b610a225760405162461bcd60e51b815260206004820152601d60248201527f416464726573733a2063616c6c20746f206e6f6e2d636f6e747261637400000060448201526064016101b4565b600080866001600160a01b03168587604051610a3e9190610b49565b60006040518083038185875af1925050503d8060008114610a7b576040519150601f19603f3d011682016040523d82523d6000602084013e610a80565b606091505b5091509150610a90828286610a9b565b979650505050505050565b60608315610aaa57508161083f565b825115610aba5782518084602001fd5b8160405162461bcd60e51b81526004016101b49190610b89565b600060208284031215610ae657600080fd5b813561083f81610d10565b600060208284031215610b0357600080fd5b815161083f81610d10565b600060208284031215610b2057600080fd5b8151801515811461083f57600080fd5b600060208284031215610b4257600080fd5b5035919050565b60008251610b5b818460208701610cce565b9190910192915050565b6001600160a01b039384168152919092166020820152604081019190915260600190565b6020815260008251806020840152610ba8816040850160208701610cce565b601f01601f19169190910160400192915050565b6020808252601c908201527b4f6e6c79207374616b65686f6c6465722063616e20646f207468697360201b604082015260600190565b6020808252818101527f4f776e61626c653a2063616c6c6572206973206e6f7420746865206f776e6572604082015260600190565b6020808252601f908201527f5265656e7472616e637947756172643a207265656e7472616e742063616c6c00604082015260600190565b60008219821115610c7157610c71610cfa565b500190565b600082610c9357634e487b7160e01b600052601260045260246000fd5b500490565b6000816000190483118215151615610cb257610cb2610cfa565b500290565b600082821015610cc957610cc9610cfa565b500390565b60005b83811015610ce9578181015183820152602001610cd1565b838111156107a35750506000910152565b634e487b7160e01b600052601160045260246000fd5b6001600160a01b03811681146106ea57600080fdfea164736f6c6343000806000a",
  "linkReferences": {},
  "deployedLinkReferences": {}
}