{
  "_format": "hh-sol-artifact-1",
  "contractName": "RCDY_Staking",
  "sourceName": "contracts/RCDY_Staking.sol",
  "abi": [
    {
      "inputs": [
        {
          "internalType": "address",
          "name": "_rcdy",
          "type": "address"
        },
        {
          "internalType": "uint256",
          "name": "_ratePerDay",
          "type": "uint256"
        }
      ],
      "stateMutability": "nonpayable",
      "type": "constructor"
    },
    {
      "anonymous": false,
      "inputs": [
        {
          "indexed": true,
          "internalType": "address",
          "name": "user",
          "type": "address"
        },
        {
          "indexed": false,
          "internalType": "uint256",
          "name": "amount",
          "type": "uint256"
        }
      ],
      "name": "NewClaim",
      "type": "event"
    },
    {
      "anonymous": false,
      "inputs": [
        {
          "indexed": true,
          "internalType": "address",
          "name": "user",
          "type": "address"
        },
        {
          "indexed": false,
          "internalType": "uint256",
          "name": "amount",
          "type": "uint256"
        },
        {
          "indexed": false,
          "internalType": "uint256",
          "name": "timestamp",
          "type": "uint256"
        }
      ],
      "name": "NewStake",
      "type": "event"
    },
    {
      "anonymous": false,
      "inputs": [
        {
          "indexed": true,
          "internalType": "address",
          "name": "user",
          "type": "address"
        },
        {
          "indexed": false,
          "internalType": "uint256",
          "name": "amount",
          "type": "uint256"
        },
        {
          "indexed": false,
          "internalType": "uint256",
          "name": "timestamp",
          "type": "uint256"
        }
      ],
      "name": "NewUnstake",
      "type": "event"
    },
    {
      "anonymous": false,
      "inputs": [
        {
          "indexed": true,
          "internalType": "address",
          "name": "previousOwner",
          "type": "address"
        },
        {
          "indexed": true,
          "internalType": "address",
          "name": "newOwner",
          "type": "address"
        }
      ],
      "name": "OwnershipTransferred",
      "type": "event"
    },
    {
      "inputs": [],
      "name": "claim",
      "outputs": [
        {
          "internalType": "bool",
          "name": "claimed",
          "type": "bool"
        }
      ],
      "stateMutability": "nonpayable",
      "type": "function"
    },
    {
      "inputs": [
        {
          "internalType": "address",
          "name": "_user",
          "type": "address"
        }
      ],
      "name": "claimableRewards",
      "outputs": [
        {
          "internalType": "uint256",
          "name": "rewards",
          "type": "uint256"
        }
      ],
      "stateMutability": "view",
      "type": "function"
    },
    {
      "inputs": [],
      "name": "getTotalStakes",
      "outputs": [
        {
          "internalType": "uint256",
          "name": "totalstakes",
          "type": "uint256"
        }
      ],
      "stateMutability": "view",
      "type": "function"
    },
    {
      "inputs": [
        {
          "internalType": "address",
          "name": "_user",
          "type": "address"
        }
      ],
      "name": "getUserInfo",
      "outputs": [
        {
          "components": [
            {
              "internalType": "uint256",
              "name": "stakes",
              "type": "uint256"
            },
            {
              "internalType": "uint256",
              "name": "checkpoint",
              "type": "uint256"
            },
            {
              "internalType": "uint256",
              "name": "claimed",
              "type": "uint256"
            }
          ],
          "internalType": "struct RCDY_Staking.User",
          "name": "userInfo",
          "type": "tuple"
        }
      ],
      "stateMutability": "view",
      "type": "function"
    },
    {
      "inputs": [],
      "name": "owner",
      "outputs": [
        {
          "internalType": "address",
          "name": "",
          "type": "address"
        }
      ],
      "stateMutability": "view",
      "type": "function"
    },
    {
      "inputs": [],
      "name": "ratePerDay",
      "outputs": [
        {
          "internalType": "uint256",
          "name": "",
          "type": "uint256"
        }
      ],
      "stateMutability": "view",
      "type": "function"
    },
    {
      "inputs": [],
      "name": "renounceOwnership",
      "outputs": [],
      "stateMutability": "nonpayable",
      "type": "function"
    },
    {
      "inputs": [
        {
          "internalType": "uint256",
          "name": "amount",
          "type": "uint256"
        }
      ],
      "name": "stakeRCDY",
      "outputs": [
        {
          "internalType": "bool",
          "name": "staked",
          "type": "bool"
        }
      ],
      "stateMutability": "nonpayable",
      "type": "function"
    },
    {
      "inputs": [
        {
          "internalType": "address",
          "name": "newOwner",
          "type": "address"
        }
      ],
      "name": "transferOwnership",
      "outputs": [],
      "stateMutability": "nonpayable",
      "type": "function"
    },
    {
      "inputs": [
        {
          "internalType": "uint256",
          "name": "amount",
          "type": "uint256"
        }
      ],
      "name": "unstakeRCDY",
      "outputs": [
        {
          "internalType": "bool",
          "name": "unstaked",
          "type": "bool"
        }
      ],
      "stateMutability": "nonpayable",
      "type": "function"
    }
  ],
  "bytecode": "0x60c060405261168060a05234801561001657600080fd5b50604051611025380380611025833981016040819052610035916100b0565b60016000556100433361005e565b60609190911b6001600160601b0319166080526002556100ea565b600180546001600160a01b038381166001600160a01b0319831681179093556040519116919082907f8be0079c531659141344cd1fd0a4f28419497f9722a3daafe3b4186f6b6457e090600090a35050565b600080604083850312156100c357600080fd5b82516001600160a01b03811681146100da57600080fd5b6020939093015192949293505050565b60805160601c60a051610ef0610135600039600061057d0152600081816102670152818161036a01528181610447015281816106de0152818161080501526109480152610ef06000f3fe608060405234801561001057600080fd5b506004361061008e5760003560e01c80634e71d92d146100935780635cddf0f6146100b05780636386c1c7146100c757806368c33627146100fc578063715018a6146101045780638da5cb5b1461010e578063d17655a314610123578063dc01f60d14610136578063e7bc984614610149578063f2fde38b1461015c575b600080fd5b61009b61016f565b60405190151581526020015b60405180910390f35b6100b960025481565b6040519081526020016100a7565b6100da6100d5366004610d51565b6101d9565b60408051825181526020808401519082015291810151908201526060016100a7565b6003546100b9565b61010c61023f565b005b610116610253565b6040516100a79190610dea565b61009b610131366004610d9c565b610262565b6100b9610144366004610d51565b61050e565b61009b610157366004610d9c565b6105d2565b61010c61016a366004610d51565b61075c565b60008061017b3361050e565b116101ca5760405162461bcd60e51b815260206004820152601a602482015279596f7520646f206e6f74206861766520616e79207374616b657360301b60448201526064015b60405180910390fd5b6101d3336107d5565b50600190565b6101fd60405180606001604052806000815260200160008152602001600081525090565b506001600160a01b0316600090815260046020908152604091829020825160608101845281548152600182015492810192909252600201549181019190915290565b6102476109aa565b6102516000610a09565b565b6001546001600160a01b031690565b6000817f00000000000000000000000000000000000000000000000000000000000000006001600160a01b03166370a08231336040518263ffffffff1660e01b81526004016102b19190610dea565b60206040518083038186803b1580156102c957600080fd5b505afa1580156102dd573d6000803e3d6000fd5b505050506040513d601f19601f820116820180604052508101906103019190610db5565b101561034d5760405162461bcd60e51b815260206004820152601b60248201527a4572726f723a20696e73756666696369656e742062616c616e636560281b60448201526064016101c1565b604051636eb1769f60e11b815233600482015230602482015282907f00000000000000000000000000000000000000000000000000000000000000006001600160a01b03169063dd62ed3e9060440160206040518083038186803b1580156103b457600080fd5b505afa1580156103c8573d6000803e3d6000fd5b505050506040513d601f19601f820116820180604052508101906103ec9190610db5565b101561043a5760405162461bcd60e51b815260206004820152601d60248201527f4572726f723a20696e73756666696369656e7420616c6c6f77616e636500000060448201526064016101c1565b61046f6001600160a01b037f000000000000000000000000000000000000000000000000000000000000000016333085610a5b565b33600090815260046020526040902060018101546104925743600182015561049b565b61049b336107d5565b82600360008282546104ad9190610e31565b90915550508054839082906000906104c6908490610e31565b90915550506040805184815242602082015233917f55595f34fd936311e65eca0a752ee70068b8992fdf64918aff1b6345689c84e4910160405180910390a250600192915050565b6001600160a01b03811660009081526004602090815260408083208151606081018352815480825260018301549482018590526002928301549382019390935290549092849291906105609043610e8a565b61056a9190610e6b565b6105749190610e6b565b905060006105a37f00000000000000000000000000000000000000000000000000000000000000006064610e6b565b6105af906103e8610e6b565b90508082116105bf5760006105c9565b6105c98183610e49565b95945050505050565b6000600260005414156106275760405162461bcd60e51b815260206004820152601f60248201527f5265656e7472616e637947756172643a207265656e7472616e742063616c6c0060448201526064016101c1565b60026000908155338152600460205260409020805483111561068b5760405162461bcd60e51b815260206004820152601d60248201527f596f7520646f206e6f74206861766520656e6f756768207374616b657300000060448201526064016101c1565b80600101544311156106a0576106a0336107d5565b82600360008282546106b29190610e8a565b90915550508054839082906000906106cb908490610e8a565b9091555061070590506001600160a01b037f0000000000000000000000000000000000000000000000000000000000000000163385610acc565b805461071357600060018201555b6040805184815242602082015233917fd6954c073268a41234627942b1c88cbf53c8bdc07009b12907400074e65d3e9b910160405180910390a260019150506001600055919050565b6107646109aa565b6001600160a01b0381166107c95760405162461bcd60e51b815260206004820152602660248201527f4f776e61626c653a206e6577206f776e657220697320746865207a65726f206160448201526564647265737360d01b60648201526084016101c1565b6107d281610a09565b50565b6001600160a01b0381166000908152600460205260408120906107f78361050e565b905080156109a557806003547f00000000000000000000000000000000000000000000000000000000000000006001600160a01b03166370a08231306040518263ffffffff1660e01b815260040161084f9190610dea565b60206040518083038186803b15801561086757600080fd5b505afa15801561087b573d6000803e3d6000fd5b505050506040513d601f19601f8201168201806040525081019061089f9190610db5565b6108a99190610e8a565b101561090c5760405162461bcd60e51b815260206004820152602c60248201527f4572726f723a204e6f20617661696c61626c652072657761726420696e20736d60448201526b185c9d0818dbdb9d1c9858dd60a21b60648201526084016101c1565b438260010181905550808260020160008282546109299190610e31565b9091555061096f90508361093e600284610e49565b6001600160a01b037f0000000000000000000000000000000000000000000000000000000000000000169190610acc565b60405181815233907f081144d27d70f1f67f67a65289dde411e1a9511c916d13ee3ff9bf22f169cd9a9060200160405180910390a25b505050565b336109b3610253565b6001600160a01b0316146102515760405162461bcd60e51b815260206004820181905260248201527f4f776e61626c653a2063616c6c6572206973206e6f7420746865206f776e657260448201526064016101c1565b600180546001600160a01b038381166001600160a01b0319831681179093556040519116919082907f8be0079c531659141344cd1fd0a4f28419497f9722a3daafe3b4186f6b6457e090600090a35050565b6040516001600160a01b0380851660248301528316604482015260648101829052610ac69085906323b872dd60e01b906084015b60408051601f198184030181529190526020810180516001600160e01b03166001600160e01b031990931692909217909152610afc565b50505050565b6040516001600160a01b0383166024820152604481018290526109a590849063a9059cbb60e01b90606401610a8f565b6000610b51826040518060400160405280602081526020017f5361666545524332303a206c6f772d6c6576656c2063616c6c206661696c6564815250856001600160a01b0316610bce9092919063ffffffff16565b8051909150156109a55780806020019051810190610b6f9190610d7a565b6109a55760405162461bcd60e51b815260206004820152602a60248201527f5361666545524332303a204552433230206f7065726174696f6e20646964206e6044820152691bdd081cdd58d8d9595960b21b60648201526084016101c1565b6060610bdd8484600085610be7565b90505b9392505050565b606082471015610c485760405162461bcd60e51b815260206004820152602660248201527f416464726573733a20696e73756666696369656e742062616c616e636520666f6044820152651c8818d85b1b60d21b60648201526084016101c1565b6001600160a01b0385163b610c9f5760405162461bcd60e51b815260206004820152601d60248201527f416464726573733a2063616c6c20746f206e6f6e2d636f6e747261637400000060448201526064016101c1565b600080866001600160a01b03168587604051610cbb9190610dce565b60006040518083038185875af1925050503d8060008114610cf8576040519150601f19603f3d011682016040523d82523d6000602084013e610cfd565b606091505b5091509150610d0d828286610d18565b979650505050505050565b60608315610d27575081610be0565b825115610d375782518084602001fd5b8160405162461bcd60e51b81526004016101c19190610dfe565b600060208284031215610d6357600080fd5b81356001600160a01b0381168114610be057600080fd5b600060208284031215610d8c57600080fd5b81518015158114610be057600080fd5b600060208284031215610dae57600080fd5b5035919050565b600060208284031215610dc757600080fd5b5051919050565b60008251610de0818460208701610ea1565b9190910192915050565b6001600160a01b0391909116815260200190565b6020815260008251806020840152610e1d816040850160208701610ea1565b601f01601f19169190910160400192915050565b60008219821115610e4457610e44610ecd565b500190565b600082610e6657634e487b7160e01b600052601260045260246000fd5b500490565b6000816000190483118215151615610e8557610e85610ecd565b500290565b600082821015610e9c57610e9c610ecd565b500390565b60005b83811015610ebc578181015183820152602001610ea4565b83811115610ac65750506000910152565b634e487b7160e01b600052601160045260246000fdfea164736f6c6343000806000a",
  "linkReferences": {},
  "deployedLinkReferences": {}
}