{
  "_format": "hh-sol-artifact-1",
  "contractName": "RCDY_Staking",
  "sourceName": "contracts/RCDY_Staking.sol",
  "abi": [
    {
      "inputs": [
        {
          "internalType": "address",
          "name": "_rcdy",
          "type": "address"
        },
        {
          "internalType": "uint256",
          "name": "_ratePerDay",
          "type": "uint256"
        }
      ],
      "stateMutability": "nonpayable",
      "type": "constructor"
    },
    {
      "anonymous": false,
      "inputs": [
        {
          "indexed": true,
          "internalType": "address",
          "name": "user",
          "type": "address"
        },
        {
          "indexed": false,
          "internalType": "uint256",
          "name": "amount",
          "type": "uint256"
        }
      ],
      "name": "NewClaim",
      "type": "event"
    },
    {
      "anonymous": false,
      "inputs": [
        {
          "indexed": true,
          "internalType": "address",
          "name": "user",
          "type": "address"
        },
        {
          "indexed": false,
          "internalType": "uint256",
          "name": "amount",
          "type": "uint256"
        },
        {
          "indexed": false,
          "internalType": "uint256",
          "name": "timestamp",
          "type": "uint256"
        }
      ],
      "name": "NewStake",
      "type": "event"
    },
    {
      "anonymous": false,
      "inputs": [
        {
          "indexed": true,
          "internalType": "address",
          "name": "user",
          "type": "address"
        },
        {
          "indexed": false,
          "internalType": "uint256",
          "name": "amount",
          "type": "uint256"
        },
        {
          "indexed": false,
          "internalType": "uint256",
          "name": "timestamp",
          "type": "uint256"
        }
      ],
      "name": "NewUnstake",
      "type": "event"
    },
    {
      "anonymous": false,
      "inputs": [
        {
          "indexed": true,
          "internalType": "address",
          "name": "previousOwner",
          "type": "address"
        },
        {
          "indexed": true,
          "internalType": "address",
          "name": "newOwner",
          "type": "address"
        }
      ],
      "name": "OwnershipTransferred",
      "type": "event"
    },
    {
      "inputs": [],
      "name": "BLOCKS_PER_DAY",
      "outputs": [
        {
          "internalType": "uint256",
          "name": "",
          "type": "uint256"
        }
      ],
      "stateMutability": "view",
      "type": "function"
    },
    {
      "inputs": [],
      "name": "claim",
      "outputs": [
        {
          "internalType": "bool",
          "name": "claimed",
          "type": "bool"
        }
      ],
      "stateMutability": "nonpayable",
      "type": "function"
    },
    {
      "inputs": [
        {
          "internalType": "address",
          "name": "_user",
          "type": "address"
        }
      ],
      "name": "claimableRewards",
      "outputs": [
        {
          "internalType": "uint256",
          "name": "rewards",
          "type": "uint256"
        }
      ],
      "stateMutability": "view",
      "type": "function"
    },
    {
      "inputs": [],
      "name": "getTotalStakes",
      "outputs": [
        {
          "internalType": "uint256",
          "name": "totalstakes",
          "type": "uint256"
        }
      ],
      "stateMutability": "view",
      "type": "function"
    },
    {
      "inputs": [
        {
          "internalType": "address",
          "name": "_user",
          "type": "address"
        }
      ],
      "name": "getUserInfo",
      "outputs": [
        {
          "components": [
            {
              "internalType": "uint256",
              "name": "stakes",
              "type": "uint256"
            },
            {
              "internalType": "uint256",
              "name": "checkpoint",
              "type": "uint256"
            },
            {
              "internalType": "uint256",
              "name": "claimed",
              "type": "uint256"
            }
          ],
          "internalType": "struct RCDY_Staking.User",
          "name": "userInfo",
          "type": "tuple"
        }
      ],
      "stateMutability": "view",
      "type": "function"
    },
    {
      "inputs": [],
      "name": "owner",
      "outputs": [
        {
          "internalType": "address",
          "name": "",
          "type": "address"
        }
      ],
      "stateMutability": "view",
      "type": "function"
    },
    {
      "inputs": [],
      "name": "ratePerDay",
      "outputs": [
        {
          "internalType": "uint256",
          "name": "",
          "type": "uint256"
        }
      ],
      "stateMutability": "view",
      "type": "function"
    },
    {
      "inputs": [],
      "name": "renounceOwnership",
      "outputs": [],
      "stateMutability": "nonpayable",
      "type": "function"
    },
    {
      "inputs": [
        {
          "internalType": "uint256",
          "name": "amount",
          "type": "uint256"
        }
      ],
      "name": "stakeRCDY",
      "outputs": [
        {
          "internalType": "bool",
          "name": "staked",
          "type": "bool"
        }
      ],
      "stateMutability": "nonpayable",
      "type": "function"
    },
    {
      "inputs": [
        {
          "internalType": "address",
          "name": "newOwner",
          "type": "address"
        }
      ],
      "name": "transferOwnership",
      "outputs": [],
      "stateMutability": "nonpayable",
      "type": "function"
    },
    {
      "inputs": [
        {
          "internalType": "uint256",
          "name": "amount",
          "type": "uint256"
        }
      ],
      "name": "unstakeRCDY",
      "outputs": [
        {
          "internalType": "bool",
          "name": "unstaked",
          "type": "bool"
        }
      ],
      "stateMutability": "nonpayable",
      "type": "function"
    }
  ],
  "bytecode": "0x60a06040523480156200001157600080fd5b5060405162001f0538038062001f058339818101604052810190620000379190620001a1565b60016000819055506200005f62000053620000a560201b60201c565b620000ad60201b60201c565b8173ffffffffffffffffffffffffffffffffffffffff1660808173ffffffffffffffffffffffffffffffffffffffff1660601b815250508060028190555050506200025f565b600033905090565b6000600160009054906101000a900473ffffffffffffffffffffffffffffffffffffffff16905081600160006101000a81548173ffffffffffffffffffffffffffffffffffffffff021916908373ffffffffffffffffffffffffffffffffffffffff1602179055508173ffffffffffffffffffffffffffffffffffffffff168173ffffffffffffffffffffffffffffffffffffffff167f8be0079c531659141344cd1fd0a4f28419497f9722a3daafe3b4186f6b6457e060405160405180910390a35050565b60008151905062000184816200022b565b92915050565b6000815190506200019b8162000245565b92915050565b60008060408385031215620001bb57620001ba62000226565b5b6000620001cb8582860162000173565b9250506020620001de858286016200018a565b9150509250929050565b6000620001f582620001fc565b9050919050565b600073ffffffffffffffffffffffffffffffffffffffff82169050919050565b6000819050919050565b600080fd5b6200023681620001e8565b81146200024257600080fd5b50565b62000250816200021c565b81146200025c57600080fd5b50565b60805160601c611c64620002a1600039600081816103ca015281816104b5015281816105a7015281816108ef01528181610b040152610c2d0152611c646000f3fe608060405234801561001057600080fd5b50600436106100a95760003560e01c8063715018a611610071578063715018a6146101565780638da5cb5b14610160578063d17655a31461017e578063dc01f60d146101ae578063e7bc9846146101de578063f2fde38b1461020e576100a9565b80634e71d92d146100ae5780635cddf0f6146100cc5780636386c1c7146100ea57806368c336271461011a5780636bb987fe14610138575b600080fd5b6100b661022a565b6040516100c3919061155c565b60405180910390f35b6100d4610286565b6040516100e19190611714565b60405180910390f35b61010460048036038101906100ff9190611184565b61028c565b60405161011191906116f9565b60405180910390f35b610122610303565b60405161012f9190611714565b60405180910390f35b61014061030d565b60405161014d9190611714565b60405180910390f35b61015e610313565b005b61016861039b565b60405161017591906114b8565b60405180910390f35b610198600480360381019061019391906111de565b6103c5565b6040516101a5919061155c565b60405180910390f35b6101c860048036038101906101c39190611184565b6106e2565b6040516101d59190611714565b60405180910390f35b6101f860048036038101906101f391906111de565b6107c4565b604051610205919061155c565b60405180910390f35b61022860048036038101906102239190611184565b6109ad565b005b600080610236336106e2565b11610276576040517f08c379a000000000000000000000000000000000000000000000000000000000815260040161026d906115b9565b60405180910390fd5b61027f33610aa5565b6001905090565b60025481565b61029461110f565b600460008373ffffffffffffffffffffffffffffffffffffffff1673ffffffffffffffffffffffffffffffffffffffff16815260200190815260200160002060405180606001604052908160008201548152602001600182015481526020016002820154815250509050919050565b6000600354905090565b61168081565b61031b610cc5565b73ffffffffffffffffffffffffffffffffffffffff1661033961039b565b73ffffffffffffffffffffffffffffffffffffffff161461038f576040517f08c379a000000000000000000000000000000000000000000000000000000000815260040161038690611639565b60405180910390fd5b6103996000610ccd565b565b6000600160009054906101000a900473ffffffffffffffffffffffffffffffffffffffff16905090565b6000817f000000000000000000000000000000000000000000000000000000000000000073ffffffffffffffffffffffffffffffffffffffff166370a08231336040518263ffffffff1660e01b815260040161042191906114b8565b60206040518083038186803b15801561043957600080fd5b505afa15801561044d573d6000803e3d6000fd5b505050506040513d601f19601f82011682018060405250810190610471919061120b565b10156104b2576040517f08c379a00000000000000000000000000000000000000000000000000000000081526004016104a990611619565b60405180910390fd5b817f000000000000000000000000000000000000000000000000000000000000000073ffffffffffffffffffffffffffffffffffffffff1663dd62ed3e33306040518363ffffffff1660e01b815260040161050e9291906114d3565b60206040518083038186803b15801561052657600080fd5b505afa15801561053a573d6000803e3d6000fd5b505050506040513d601f19601f8201168201806040525081019061055e919061120b565b101561059f576040517f08c379a0000000000000000000000000000000000000000000000000000000008152600401610596906115d9565b60405180910390fd5b6105ec3330847f000000000000000000000000000000000000000000000000000000000000000073ffffffffffffffffffffffffffffffffffffffff16610d93909392919063ffffffff16565b6000600460003373ffffffffffffffffffffffffffffffffffffffff1673ffffffffffffffffffffffffffffffffffffffff168152602001908152602001600020905060008160010154141561064a57438160010181905550610654565b61065333610aa5565b5b8260036000828254610666919061178a565b9250508190555082816000016000828254610681919061178a565b925050819055503373ffffffffffffffffffffffffffffffffffffffff167f55595f34fd936311e65eca0a752ee70068b8992fdf64918aff1b6345689c84e484426040516106d092919061172f565b60405180910390a26001915050919050565b600080600460008473ffffffffffffffffffffffffffffffffffffffff1673ffffffffffffffffffffffffffffffffffffffff1681526020019081526020016000206040518060600160405290816000820154815260200160018201548152602001600282015481525050905060008160000151600254836020015143610769919061186b565b6107739190611811565b61077d9190611811565b905060006103e860646116806107939190611811565b61079d9190611811565b90508082116107ad5760006107ba565b80826107b991906117e0565b5b9350505050919050565b60006002600054141561080c576040517f08c379a0000000000000000000000000000000000000000000000000000000008152600401610803906116b9565b60405180910390fd5b60026000819055506000600460003373ffffffffffffffffffffffffffffffffffffffff1673ffffffffffffffffffffffffffffffffffffffff1681526020019081526020016000209050828160000154101561089e576040517f08c379a0000000000000000000000000000000000000000000000000000000008152600401610895906116d9565b60405180910390fd5b80600101544311156108b4576108b333610aa5565b5b82600360008282546108c6919061186b565b92505081905550828160000160008282546108e1919061186b565b9250508190555061093333847f000000000000000000000000000000000000000000000000000000000000000073ffffffffffffffffffffffffffffffffffffffff16610e1c9092919063ffffffff16565b60008160000154141561094b57600081600101819055505b3373ffffffffffffffffffffffffffffffffffffffff167fd6954c073268a41234627942b1c88cbf53c8bdc07009b12907400074e65d3e9b844260405161099392919061172f565b60405180910390a260019150506001600081905550919050565b6109b5610cc5565b73ffffffffffffffffffffffffffffffffffffffff166109d361039b565b73ffffffffffffffffffffffffffffffffffffffff1614610a29576040517f08c379a0000000000000000000000000000000000000000000000000000000008152600401610a2090611639565b60405180910390fd5b600073ffffffffffffffffffffffffffffffffffffffff168173ffffffffffffffffffffffffffffffffffffffff161415610a99576040517f08c379a0000000000000000000000000000000000000000000000000000000008152600401610a9090611599565b60405180910390fd5b610aa281610ccd565b50565b6000600460008373ffffffffffffffffffffffffffffffffffffffff1673ffffffffffffffffffffffffffffffffffffffff16815260200190815260200160002090506000610af3836106e2565b90506000811115610cc057806003547f000000000000000000000000000000000000000000000000000000000000000073ffffffffffffffffffffffffffffffffffffffff166370a08231306040518263ffffffff1660e01b8152600401610b5b91906114b8565b60206040518083038186803b158015610b7357600080fd5b505afa158015610b87573d6000803e3d6000fd5b505050506040513d601f19601f82011682018060405250810190610bab919061120b565b610bb5919061186b565b1015610bf6576040517f08c379a0000000000000000000000000000000000000000000000000000000008152600401610bed90611699565b60405180910390fd5b43826001018190555080826002016000828254610c13919061178a565b92505081905550610c7183600283610c2b91906117e0565b7f000000000000000000000000000000000000000000000000000000000000000073ffffffffffffffffffffffffffffffffffffffff16610e1c9092919063ffffffff16565b3373ffffffffffffffffffffffffffffffffffffffff167f081144d27d70f1f67f67a65289dde411e1a9511c916d13ee3ff9bf22f169cd9a82604051610cb79190611714565b60405180910390a25b505050565b600033905090565b6000600160009054906101000a900473ffffffffffffffffffffffffffffffffffffffff16905081600160006101000a81548173ffffffffffffffffffffffffffffffffffffffff021916908373ffffffffffffffffffffffffffffffffffffffff1602179055508173ffffffffffffffffffffffffffffffffffffffff168173ffffffffffffffffffffffffffffffffffffffff167f8be0079c531659141344cd1fd0a4f28419497f9722a3daafe3b4186f6b6457e060405160405180910390a35050565b610e16846323b872dd60e01b858585604051602401610db4939291906114fc565b604051602081830303815290604052907bffffffffffffffffffffffffffffffffffffffffffffffffffffffff19166020820180517bffffffffffffffffffffffffffffffffffffffffffffffffffffffff8381831617835250505050610ea2565b50505050565b610e9d8363a9059cbb60e01b8484604051602401610e3b929190611533565b604051602081830303815290604052907bffffffffffffffffffffffffffffffffffffffffffffffffffffffff19166020820180517bffffffffffffffffffffffffffffffffffffffffffffffffffffffff8381831617835250505050610ea2565b505050565b6000610f04826040518060400160405280602081526020017f5361666545524332303a206c6f772d6c6576656c2063616c6c206661696c65648152508573ffffffffffffffffffffffffffffffffffffffff16610f699092919063ffffffff16565b9050600081511115610f645780806020019051810190610f2491906111b1565b610f63576040517f08c379a0000000000000000000000000000000000000000000000000000000008152600401610f5a90611679565b60405180910390fd5b5b505050565b6060610f788484600085610f81565b90509392505050565b606082471015610fc6576040517f08c379a0000000000000000000000000000000000000000000000000000000008152600401610fbd906115f9565b60405180910390fd5b610fcf85611095565b61100e576040517f08c379a000000000000000000000000000000000000000000000000000000000815260040161100590611659565b60405180910390fd5b6000808673ffffffffffffffffffffffffffffffffffffffff16858760405161103791906114a1565b60006040518083038185875af1925050503d8060008114611074576040519150601f19603f3d011682016040523d82523d6000602084013e611079565b606091505b50915091506110898282866110a8565b92505050949350505050565b600080823b905060008111915050919050565b606083156110b857829050611108565b6000835111156110cb5782518084602001fd5b816040517f08c379a00000000000000000000000000000000000000000000000000000000081526004016110ff9190611577565b60405180910390fd5b9392505050565b60405180606001604052806000815260200160008152602001600081525090565b60008135905061113f81611be9565b92915050565b60008151905061115481611c00565b92915050565b60008135905061116981611c17565b92915050565b60008151905061117e81611c17565b92915050565b60006020828403121561119a57611199611978565b5b60006111a884828501611130565b91505092915050565b6000602082840312156111c7576111c6611978565b5b60006111d584828501611145565b91505092915050565b6000602082840312156111f4576111f3611978565b5b60006112028482850161115a565b91505092915050565b60006020828403121561122157611220611978565b5b600061122f8482850161116f565b91505092915050565b6112418161189f565b82525050565b611250816118b1565b82525050565b600061126182611758565b61126b818561176e565b935061127b8185602086016118e7565b80840191505092915050565b600061129282611763565b61129c8185611779565b93506112ac8185602086016118e7565b6112b58161197d565b840191505092915050565b60006112cd602683611779565b91506112d88261198e565b604082019050919050565b60006112f0601a83611779565b91506112fb826119dd565b602082019050919050565b6000611313601d83611779565b915061131e82611a06565b602082019050919050565b6000611336602683611779565b915061134182611a2f565b604082019050919050565b6000611359601b83611779565b915061136482611a7e565b602082019050919050565b600061137c602083611779565b915061138782611aa7565b602082019050919050565b600061139f601d83611779565b91506113aa82611ad0565b602082019050919050565b60006113c2602a83611779565b91506113cd82611af9565b604082019050919050565b60006113e5602c83611779565b91506113f082611b48565b604082019050919050565b6000611408601f83611779565b915061141382611b97565b602082019050919050565b600061142b601d83611779565b915061143682611bc0565b602082019050919050565b6060820160008201516114576000850182611483565b50602082015161146a6020850182611483565b50604082015161147d6040850182611483565b50505050565b61148c816118dd565b82525050565b61149b816118dd565b82525050565b60006114ad8284611256565b915081905092915050565b60006020820190506114cd6000830184611238565b92915050565b60006040820190506114e86000830185611238565b6114f56020830184611238565b9392505050565b60006060820190506115116000830186611238565b61151e6020830185611238565b61152b6040830184611492565b949350505050565b60006040820190506115486000830185611238565b6115556020830184611492565b9392505050565b60006020820190506115716000830184611247565b92915050565b600060208201905081810360008301526115918184611287565b905092915050565b600060208201905081810360008301526115b2816112c0565b9050919050565b600060208201905081810360008301526115d2816112e3565b9050919050565b600060208201905081810360008301526115f281611306565b9050919050565b6000602082019050818103600083015261161281611329565b9050919050565b600060208201905081810360008301526116328161134c565b9050919050565b600060208201905081810360008301526116528161136f565b9050919050565b6000602082019050818103600083015261167281611392565b9050919050565b60006020820190508181036000830152611692816113b5565b9050919050565b600060208201905081810360008301526116b2816113d8565b9050919050565b600060208201905081810360008301526116d2816113fb565b9050919050565b600060208201905081810360008301526116f28161141e565b9050919050565b600060608201905061170e6000830184611441565b92915050565b60006020820190506117296000830184611492565b92915050565b60006040820190506117446000830185611492565b6117516020830184611492565b9392505050565b600081519050919050565b600081519050919050565b600081905092915050565b600082825260208201905092915050565b6000611795826118dd565b91506117a0836118dd565b9250827fffffffffffffffffffffffffffffffffffffffffffffffffffffffffffffffff038211156117d5576117d461191a565b5b828201905092915050565b60006117eb826118dd565b91506117f6836118dd565b92508261180657611805611949565b5b828204905092915050565b600061181c826118dd565b9150611827836118dd565b9250817fffffffffffffffffffffffffffffffffffffffffffffffffffffffffffffffff04831182151516156118605761185f61191a565b5b828202905092915050565b6000611876826118dd565b9150611881836118dd565b9250828210156118945761189361191a565b5b828203905092915050565b60006118aa826118bd565b9050919050565b60008115159050919050565b600073ffffffffffffffffffffffffffffffffffffffff82169050919050565b6000819050919050565b60005b838110156119055780820151818401526020810190506118ea565b83811115611914576000848401525b50505050565b7f4e487b7100000000000000000000000000000000000000000000000000000000600052601160045260246000fd5b7f4e487b7100000000000000000000000000000000000000000000000000000000600052601260045260246000fd5b600080fd5b6000601f19601f8301169050919050565b7f4f776e61626c653a206e6577206f776e657220697320746865207a65726f206160008201527f6464726573730000000000000000000000000000000000000000000000000000602082015250565b7f596f7520646f206e6f74206861766520616e79207374616b6573000000000000600082015250565b7f4572726f723a20696e73756666696369656e7420616c6c6f77616e6365000000600082015250565b7f416464726573733a20696e73756666696369656e742062616c616e636520666f60008201527f722063616c6c0000000000000000000000000000000000000000000000000000602082015250565b7f4572726f723a20696e73756666696369656e742062616c616e63650000000000600082015250565b7f4f776e61626c653a2063616c6c6572206973206e6f7420746865206f776e6572600082015250565b7f416464726573733a2063616c6c20746f206e6f6e2d636f6e7472616374000000600082015250565b7f5361666545524332303a204552433230206f7065726174696f6e20646964206e60008201527f6f74207375636365656400000000000000000000000000000000000000000000602082015250565b7f4572726f723a204e6f20617661696c61626c652072657761726420696e20736d60008201527f61727420636f6e74726163740000000000000000000000000000000000000000602082015250565b7f5265656e7472616e637947756172643a207265656e7472616e742063616c6c00600082015250565b7f596f7520646f206e6f74206861766520656e6f756768207374616b6573000000600082015250565b611bf28161189f565b8114611bfd57600080fd5b50565b611c09816118b1565b8114611c1457600080fd5b50565b611c20816118dd565b8114611c2b57600080fd5b5056fea2646970667358221220e3a6c2f3961429083588fafc9c0998fe4b093df4b4cc00a48ed16faddd9103db64736f6c63430008060033",
  "linkReferences": {},
  "deployedLinkReferences": {}
}