{
  "_format": "hh-sol-artifact-1",
  "contractName": "RCDY_Staking",
  "sourceName": "contracts/RCDY_Staking.sol",
  "abi": [
    {
      "inputs": [
        {
          "internalType": "address",
          "name": "_rcdy",
          "type": "address"
        },
        {
          "internalType": "uint256",
          "name": "_ratePerDay",
          "type": "uint256"
        }
      ],
      "stateMutability": "nonpayable",
      "type": "constructor"
    },
    {
      "anonymous": false,
      "inputs": [
        {
          "indexed": true,
          "internalType": "address",
          "name": "user",
          "type": "address"
        },
        {
          "indexed": false,
          "internalType": "uint256",
          "name": "amount",
          "type": "uint256"
        }
      ],
      "name": "NewClaim",
      "type": "event"
    },
    {
      "anonymous": false,
      "inputs": [
        {
          "indexed": true,
          "internalType": "address",
          "name": "user",
          "type": "address"
        },
        {
          "indexed": false,
          "internalType": "uint256",
          "name": "amount",
          "type": "uint256"
        },
        {
          "indexed": false,
          "internalType": "uint256",
          "name": "timestamp",
          "type": "uint256"
        }
      ],
      "name": "NewStake",
      "type": "event"
    },
    {
      "anonymous": false,
      "inputs": [
        {
          "indexed": true,
          "internalType": "address",
          "name": "user",
          "type": "address"
        },
        {
          "indexed": false,
          "internalType": "uint256",
          "name": "amount",
          "type": "uint256"
        },
        {
          "indexed": false,
          "internalType": "uint256",
          "name": "timestamp",
          "type": "uint256"
        }
      ],
      "name": "NewUnstake",
      "type": "event"
    },
    {
      "anonymous": false,
      "inputs": [
        {
          "indexed": true,
          "internalType": "address",
          "name": "previousOwner",
          "type": "address"
        },
        {
          "indexed": true,
          "internalType": "address",
          "name": "newOwner",
          "type": "address"
        }
      ],
      "name": "OwnershipTransferred",
      "type": "event"
    },
    {
      "inputs": [],
      "name": "claim",
      "outputs": [
        {
          "internalType": "bool",
          "name": "claimed",
          "type": "bool"
        }
      ],
      "stateMutability": "nonpayable",
      "type": "function"
    },
    {
      "inputs": [
        {
          "internalType": "address",
          "name": "_user",
          "type": "address"
        }
      ],
      "name": "claimableRewards",
      "outputs": [
        {
          "internalType": "uint256",
          "name": "rewards",
          "type": "uint256"
        }
      ],
      "stateMutability": "view",
      "type": "function"
    },
    {
      "inputs": [],
      "name": "getTotalStakes",
      "outputs": [
        {
          "internalType": "uint256",
          "name": "totalstakes",
          "type": "uint256"
        }
      ],
      "stateMutability": "view",
      "type": "function"
    },
    {
      "inputs": [
        {
          "internalType": "address",
          "name": "_user",
          "type": "address"
        }
      ],
      "name": "getUserInfo",
      "outputs": [
        {
          "components": [
            {
              "internalType": "uint256",
              "name": "stakes",
              "type": "uint256"
            },
            {
              "internalType": "uint256",
              "name": "checkpoint",
              "type": "uint256"
            },
            {
              "internalType": "uint256",
              "name": "claimed",
              "type": "uint256"
            }
          ],
          "internalType": "struct RCDY_Staking.User",
          "name": "userInfo",
          "type": "tuple"
        }
      ],
      "stateMutability": "view",
      "type": "function"
    },
    {
      "inputs": [],
      "name": "owner",
      "outputs": [
        {
          "internalType": "address",
          "name": "",
          "type": "address"
        }
      ],
      "stateMutability": "view",
      "type": "function"
    },
    {
      "inputs": [],
      "name": "ratePerDay",
      "outputs": [
        {
          "internalType": "uint256",
          "name": "",
          "type": "uint256"
        }
      ],
      "stateMutability": "view",
      "type": "function"
    },
    {
      "inputs": [],
      "name": "renounceOwnership",
      "outputs": [],
      "stateMutability": "nonpayable",
      "type": "function"
    },
    {
      "inputs": [
        {
          "internalType": "uint256",
          "name": "amount",
          "type": "uint256"
        }
      ],
      "name": "stakeRCDY",
      "outputs": [
        {
          "internalType": "bool",
          "name": "staked",
          "type": "bool"
        }
      ],
      "stateMutability": "nonpayable",
      "type": "function"
    },
    {
      "inputs": [
        {
          "internalType": "address",
          "name": "newOwner",
          "type": "address"
        }
      ],
      "name": "transferOwnership",
      "outputs": [],
      "stateMutability": "nonpayable",
      "type": "function"
    },
    {
      "inputs": [
        {
          "internalType": "uint256",
          "name": "amount",
          "type": "uint256"
        }
      ],
      "name": "unstakeRCDY",
      "outputs": [
        {
          "internalType": "bool",
          "name": "unstaked",
          "type": "bool"
        }
      ],
      "stateMutability": "nonpayable",
      "type": "function"
    }
  ],
  "bytecode": "0x60c060405261168060a05234801561001657600080fd5b50604051611155380380611155833981016040819052610035916100b0565b60016000556100433361005e565b60609190911b6001600160601b0319166080526002556100ea565b600180546001600160a01b038381166001600160a01b0319831681179093556040519116919082907f8be0079c531659141344cd1fd0a4f28419497f9722a3daafe3b4186f6b6457e090600090a35050565b600080604083850312156100c357600080fd5b82516001600160a01b03811681146100da57600080fd5b6020939093015192949293505050565b60805160601c60a0516110206101356000396000610611015260008181610300015281816103fe015281816104db015281816107720152818161091f0152610a5301526110206000f3fe608060405234801561001057600080fd5b50600436106100be5760003560e01c80638da5cb5b11610076578063dc01f60d1161005b578063dc01f60d1461016c578063e7bc98461461017f578063f2fde38b1461019257600080fd5b80638da5cb5b1461013e578063d17655a31461015957600080fd5b80636386c1c7116100a75780636386c1c7146100f757806368c336271461012c578063715018a61461013457600080fd5b80634e71d92d146100c35780635cddf0f6146100e0575b600080fd5b6100cb6101a5565b60405190151581526020015b60405180910390f35b6100e960025481565b6040519081526020016100d7565b61010a610105366004610e95565b610212565b60408051825181526020808401519082015291810151908201526060016100d7565b6003546100e9565b61013c610278565b005b6001546040516001600160a01b0390911681526020016100d7565b6100cb610167366004610ee0565b6102de565b6100e961017a366004610e95565b6105a2565b6100cb61018d366004610ee0565b610666565b61013c6101a0366004610e95565b6107f0565b6000806101b1336105a2565b116102035760405162461bcd60e51b815260206004820152601a60248201527f596f7520646f206e6f74206861766520616e79207374616b657300000000000060448201526064015b60405180910390fd5b61020c336108d2565b50600190565b61023660405180606001604052806000815260200160008152602001600081525090565b506001600160a01b0316600090815260046020908152604091829020825160608101845281548152600182015492810192909252600201549181019190915290565b6001546001600160a01b031633146102d25760405162461bcd60e51b815260206004820181905260248201527f4f776e61626c653a2063616c6c6572206973206e6f7420746865206f776e657260448201526064016101fa565b6102dc6000610ab5565b565b6040516370a0823160e01b815233600482015260009082906001600160a01b037f000000000000000000000000000000000000000000000000000000000000000016906370a082319060240160206040518083038186803b15801561034257600080fd5b505afa158015610356573d6000803e3d6000fd5b505050506040513d601f19601f8201168201806040525081019061037a9190610ef9565b10156103c85760405162461bcd60e51b815260206004820152601b60248201527f4572726f723a20696e73756666696369656e742062616c616e6365000000000060448201526064016101fa565b6040517fdd62ed3e00000000000000000000000000000000000000000000000000000000815233600482015230602482015282907f00000000000000000000000000000000000000000000000000000000000000006001600160a01b03169063dd62ed3e9060440160206040518083038186803b15801561044857600080fd5b505afa15801561045c573d6000803e3d6000fd5b505050506040513d601f19601f820116820180604052508101906104809190610ef9565b10156104ce5760405162461bcd60e51b815260206004820152601d60248201527f4572726f723a20696e73756666696369656e7420616c6c6f77616e636500000060448201526064016101fa565b6105036001600160a01b037f000000000000000000000000000000000000000000000000000000000000000016333085610b1f565b33600090815260046020526040902060018101546105265743600182015561052f565b61052f336108d2565b82600360008282546105419190610f61565b909155505080548390829060009061055a908490610f61565b90915550506040805184815242602082015233917f55595f34fd936311e65eca0a752ee70068b8992fdf64918aff1b6345689c84e4910160405180910390a250600192915050565b6001600160a01b03811660009081526004602090815260408083208151606081018352815480825260018301549482018590526002928301549382019390935290549092849291906105f49043610fba565b6105fe9190610f9b565b6106089190610f9b565b905060006106377f00000000000000000000000000000000000000000000000000000000000000006064610f9b565b610643906103e8610f9b565b905080821161065357600061065d565b61065d8183610f79565b95945050505050565b6000600260005414156106bb5760405162461bcd60e51b815260206004820152601f60248201527f5265656e7472616e637947756172643a207265656e7472616e742063616c6c0060448201526064016101fa565b60026000908155338152600460205260409020805483111561071f5760405162461bcd60e51b815260206004820152601d60248201527f596f7520646f206e6f74206861766520656e6f756768207374616b657300000060448201526064016101fa565b806001015443111561073457610734336108d2565b82600360008282546107469190610fba565b909155505080548390829060009061075f908490610fba565b9091555061079990506001600160a01b037f0000000000000000000000000000000000000000000000000000000000000000163385610bd6565b80546107a757600060018201555b6040805184815242602082015233917fd6954c073268a41234627942b1c88cbf53c8bdc07009b12907400074e65d3e9b910160405180910390a260019150506001600055919050565b6001546001600160a01b0316331461084a5760405162461bcd60e51b815260206004820181905260248201527f4f776e61626c653a2063616c6c6572206973206e6f7420746865206f776e657260448201526064016101fa565b6001600160a01b0381166108c65760405162461bcd60e51b815260206004820152602660248201527f4f776e61626c653a206e6577206f776e657220697320746865207a65726f206160448201527f646472657373000000000000000000000000000000000000000000000000000060648201526084016101fa565b6108cf81610ab5565b50565b6001600160a01b0381166000908152600460205260408120906108f4836105a2565b90508015610ab0576003546040516370a0823160e01b81523060048201528291906001600160a01b037f000000000000000000000000000000000000000000000000000000000000000016906370a082319060240160206040518083038186803b15801561096157600080fd5b505afa158015610975573d6000803e3d6000fd5b505050506040513d601f19601f820116820180604052508101906109999190610ef9565b6109a39190610fba565b1015610a175760405162461bcd60e51b815260206004820152602c60248201527f4572726f723a204e6f20617661696c61626c652072657761726420696e20736d60448201527f61727420636f6e7472616374000000000000000000000000000000000000000060648201526084016101fa565b43826001018190555080826002016000828254610a349190610f61565b90915550610a7a905083610a49600284610f79565b6001600160a01b037f0000000000000000000000000000000000000000000000000000000000000000169190610bd6565b60405181815233907f081144d27d70f1f67f67a65289dde411e1a9511c916d13ee3ff9bf22f169cd9a9060200160405180910390a25b505050565b600180546001600160a01b038381167fffffffffffffffffffffffff0000000000000000000000000000000000000000831681179093556040519116919082907f8be0079c531659141344cd1fd0a4f28419497f9722a3daafe3b4186f6b6457e090600090a35050565b6040516001600160a01b0380851660248301528316604482015260648101829052610bd09085907f23b872dd00000000000000000000000000000000000000000000000000000000906084015b60408051601f198184030181529190526020810180517bffffffffffffffffffffffffffffffffffffffffffffffffffffffff167fffffffff0000000000000000000000000000000000000000000000000000000090931692909217909152610c1f565b50505050565b6040516001600160a01b038316602482015260448101829052610ab09084907fa9059cbb0000000000000000000000000000000000000000000000000000000090606401610b6c565b6000610c74826040518060400160405280602081526020017f5361666545524332303a206c6f772d6c6576656c2063616c6c206661696c6564815250856001600160a01b0316610d049092919063ffffffff16565b805190915015610ab05780806020019051810190610c929190610ebe565b610ab05760405162461bcd60e51b815260206004820152602a60248201527f5361666545524332303a204552433230206f7065726174696f6e20646964206e60448201527f6f7420737563636565640000000000000000000000000000000000000000000060648201526084016101fa565b6060610d138484600085610d1d565b90505b9392505050565b606082471015610d955760405162461bcd60e51b815260206004820152602660248201527f416464726573733a20696e73756666696369656e742062616c616e636520666f60448201527f722063616c6c000000000000000000000000000000000000000000000000000060648201526084016101fa565b843b610de35760405162461bcd60e51b815260206004820152601d60248201527f416464726573733a2063616c6c20746f206e6f6e2d636f6e747261637400000060448201526064016101fa565b600080866001600160a01b03168587604051610dff9190610f12565b60006040518083038185875af1925050503d8060008114610e3c576040519150601f19603f3d011682016040523d82523d6000602084013e610e41565b606091505b5091509150610e51828286610e5c565b979650505050505050565b60608315610e6b575081610d16565b825115610e7b5782518084602001fd5b8160405162461bcd60e51b81526004016101fa9190610f2e565b600060208284031215610ea757600080fd5b81356001600160a01b0381168114610d1657600080fd5b600060208284031215610ed057600080fd5b81518015158114610d1657600080fd5b600060208284031215610ef257600080fd5b5035919050565b600060208284031215610f0b57600080fd5b5051919050565b60008251610f24818460208701610fd1565b9190910192915050565b6020815260008251806020840152610f4d816040850160208701610fd1565b601f01601f19169190910160400192915050565b60008219821115610f7457610f74610ffd565b500190565b600082610f9657634e487b7160e01b600052601260045260246000fd5b500490565b6000816000190483118215151615610fb557610fb5610ffd565b500290565b600082821015610fcc57610fcc610ffd565b500390565b60005b83811015610fec578181015183820152602001610fd4565b83811115610bd05750506000910152565b634e487b7160e01b600052601160045260246000fdfea164736f6c6343000806000a",
  "linkReferences": {},
  "deployedLinkReferences": {}
}