{
  "_format": "hh-sol-artifact-1",
  "contractName": "RC3_1155_Factory",
  "sourceName": "contracts/RC3_1155_Factory.sol",
  "abi": [
    {
      "anonymous": false,
      "inputs": [
        {
          "indexed": true,
          "internalType": "address",
          "name": "creator",
          "type": "address"
        },
        {
          "indexed": true,
          "internalType": "address",
          "name": "token",
          "type": "address"
        }
      ],
      "name": "Created",
      "type": "event"
    },
    {
      "inputs": [
        {
          "internalType": "string",
          "name": "_name",
          "type": "string"
        },
        {
          "internalType": "string",
          "name": "_symbol",
          "type": "string"
        },
        {
          "internalType": "string",
          "name": "_uri",
          "type": "string"
        },
        {
          "internalType": "uint96",
          "name": "_royalty",
          "type": "uint96"
        }
      ],
      "name": "create1155NFT",
      "outputs": [
        {
          "internalType": "address",
          "name": "createdAddr",
          "type": "address"
        }
      ],
      "stateMutability": "nonpayable",
      "type": "function"
    },
    {
      "inputs": [],
      "name": "get1155List",
      "outputs": [
        {
          "internalType": "address[]",
          "name": "",
          "type": "address[]"
        },
        {
          "internalType": "uint256",
          "name": "listLength",
          "type": "uint256"
        }
      ],
      "stateMutability": "view",
      "type": "function"
    }
  ],
  "bytecode": "0x608060405234801561001057600080fd5b50613ac5806100206000396000f3fe608060405234801561001057600080fd5b50600436106100365760003560e01c80630f4bc2921461003b578063b68efa0f1461005a575b600080fd5b610043610085565b604051610051929190610358565b60405180910390f35b61006d610068366004610265565b6100f4565b6040516001600160a01b039091168152602001610051565b6060600080600080549050818054806020026020016040519081016040528092919081815260200182805480156100e557602002820191906000526020600020905b81546001600160a01b031681526001909101906020018083116100c7575b50505050509150915091509091565b60006101028585858561010b565b95945050505050565b6000808585858560405161011e906101cb565b61012b94939291906103a9565b604051809103906000f080158015610147573d6000803e3d6000fd5b50600080546001810182558180527f290decd9548b62a8d60345a988386fc84ba6bc95484008f6362f93160ef3e5630180546001600160a01b0319166001600160a01b0384169081179091556040519294508493509133917f587ece4cd19692c5be1a4184503d607d45542d2aca0698c0068f52e09ccb541c91a350949350505050565b6136a6806200041383390190565b600082601f8301126101ea57600080fd5b81356001600160401b0380821115610204576102046103fc565b604051601f8301601f19908116603f0116810190828211818310171561022c5761022c6103fc565b8160405283815286602085880101111561024557600080fd5b836020870160208301376000602085830101528094505050505092915050565b6000806000806080858703121561027b57600080fd5b84356001600160401b038082111561029257600080fd5b61029e888389016101d9565b955060208701359150808211156102b457600080fd5b6102c0888389016101d9565b945060408701359150808211156102d657600080fd5b506102e3878288016101d9565b92505060608501356001600160601b038116811461030057600080fd5b939692955090935050565b6000815180845260005b8181101561033157602081850181015186830182015201610315565b81811115610343576000602083870101525b50601f01601f19169290920160200192915050565b604080825283519082018190526000906020906060840190828701845b8281101561039a5781516001600160a01b031684529284019290840190600101610375565b50505092019290925292915050565b6080815260006103bc608083018761030b565b82810360208401526103ce818761030b565b905082810360408401526103e2818661030b565b91505060018060601b038316606083015295945050505050565b634e487b7160e01b600052604160045260246000fdfe60806040523480156200001157600080fd5b50604051620036a6380380620036a6833981016040819052620000349162000377565b816200004081620000a6565b508351620000569060059060208701906200021a565b5082516200006c9060069060208601906200021a565b50600780546001600160601b0319166001600160601b0383161790556200009c6000620000963390565b620000bf565b505050506200047d565b8051620000bb9060049060208401906200021a565b5050565b620000bb8282620000dc82826200010860201b620012d11760201c565b60008281526001602090815260409091206200010391839062001355620001a8821b17901c565b505050565b6000828152602081815260408083206001600160a01b038516845290915290205460ff16620000bb576000828152602081815260408083206001600160a01b03851684529091529020805460ff19166001179055620001643390565b6001600160a01b0316816001600160a01b0316837f2f8788117e7eff1d82e926ec794901d17c78024a50270940304540a733656f0d60405160405180910390a45050565b6000620001bf836001600160a01b038416620001c8565b90505b92915050565b60008181526001830160205260408120546200021157508154600181810184556000848152602080822090930184905584548482528286019093526040902091909155620001c2565b506000620001c2565b82805462000228906200042a565b90600052602060002090601f0160209004810192826200024c576000855562000297565b82601f106200026757805160ff191683800117855562000297565b8280016001018555821562000297579182015b82811115620002975782518255916020019190600101906200027a565b50620002a5929150620002a9565b5090565b5b80821115620002a55760008155600101620002aa565b600082601f830112620002d257600080fd5b81516001600160401b0380821115620002ef57620002ef62000467565b604051601f8301601f19908116603f011681019082821181831017156200031a576200031a62000467565b816040528381526020925086838588010111156200033757600080fd5b600091505b838210156200035b57858201830151818301840152908201906200033c565b838211156200036d5760008385830101525b9695505050505050565b600080600080608085870312156200038e57600080fd5b84516001600160401b0380821115620003a657600080fd5b620003b488838901620002c0565b95506020870151915080821115620003cb57600080fd5b620003d988838901620002c0565b94506040870151915080821115620003f057600080fd5b50620003ff87828801620002c0565b606087015190935090506001600160601b03811681146200041f57600080fd5b939692955090935050565b600181811c908216806200043f57607f821691505b602082108114156200046157634e487b7160e01b600052602260045260246000fd5b50919050565b634e487b7160e01b600052604160045260246000fd5b613219806200048d6000396000f3fe608060405234801561001057600080fd5b50600436106101955760003560e01c8062fdd58e1461019a57806301ffc9a7146101c057806302fe5305146101e357806306fdde03146101f85780630e89341c1461020d578063156e29f61461022057806315bcf9b714610233578063248a9ca31461024657806329ee566c146102595780632a55205a146102845780632eb2c2d6146102b65780632f2ff15d146102c9578063308b4036146102dc57806336568abe146102ef5780633adf80b4146103025780634e1273f4146103155780634f558e79146103355780636b20c45414610348578063869f75941461035b5780639010d07c1461037b57806391d14854146103a657806395d89b41146103b9578063a217fddf146103c1578063a22cb465146103c9578063bd85b039146103dc578063ca15c873146103fc578063cd53d08e1461040f578063d2a6b51a14610438578063d547741f1461044b578063d81d0a151461045e578063e80bc6e114610471578063e985e9c514610494578063f242432a146104a7578063f5298aca146104ba575b600080fd5b6101ad6101a83660046128aa565b6104cd565b6040519081526020015b60405180910390f35b6101d36101ce366004612a8b565b610569565b60405190151581526020016101b7565b6101f66101f1366004612ac5565b61058e565b005b6102006105a2565b6040516101b79190612cf7565b61020061021b366004612a2d565b610630565b6101f661022e3660046128d4565b6107ee565b6101f661024136600461286e565b61088e565b6101ad610254366004612a2d565b61093e565b60075461026c906001600160601b031681565b6040516001600160601b0390911681526020016101b7565b610297610292366004612a69565b610953565b604080516001600160a01b0390931683526020830191909152016101b7565b6101f66102c43660046126a1565b610981565b6101f66102d7366004612a46565b610a18565b6101ad6102ea366004612907565b610a3a565b6101f66102fd366004612a46565b610b93565b6101f6610310366004612b01565b610c11565b610328610323366004612967565b610c66565b6040516101b79190612cb6565b6101d3610343366004612a2d565b610d8f565b6101f66103563660046127fb565b610da3565b6101ad610369366004612a2d565b600a6020526000908152604090205481565b61038e610389366004612a69565b610e91565b6040516001600160a01b0390911681526020016101b7565b6101d36103b4366004612a46565b610ea9565b610200610ed2565b6101ad600081565b6101f66103d736600461286e565b610edf565b6101ad6103ea366004612a2d565b60009081526009602052604090205490565b6101ad61040a366004612a2d565b610eea565b61038e61041d366004612a2d565b600c602052600090815260409020546001600160a01b031681565b6101f66104463660046127ae565b610f01565b6101f6610459366004612a46565b610fba565b6101f661046c3660046127fb565b610fd7565b6101d361047f366004612653565b600b6020526000908152604090205460ff1681565b6101d36104a236600461266e565b611165565b6101f66104b536600461274a565b6111bc565b6101f66104c83660046128d4565b611243565b60006001600160a01b03831661053e5760405162461bcd60e51b815260206004820152602b60248201527f455243313135353a2062616c616e636520717565727920666f7220746865207a60448201526a65726f206164647265737360a81b60648201526084015b60405180910390fd5b5060008181526002602090815260408083206001600160a01b03861684529091529020545b92915050565b600063152a902d60e11b6001600160e01b03198316148061056357506105638261136a565b6105966113aa565b61059f816113f9565b50565b600580546105af9061301d565b80601f01602080910402602001604051908101604052809291908181526020018280546105db9061301d565b80156106285780601f106105fd57610100808354040283529160200191610628565b820191906000526020600020905b81548152906001019060200180831161060b57829003601f168201915b505050505081565b606061063b82610d8f565b6106965760405162461bcd60e51b815260206004820152602660248201527f455243313135355472616461626c65237572693a204e4f4e4558495354454e546044820152652faa27a5a2a760d11b6064820152608401610535565b6000828152600d6020526040812080546106af9061301d565b80601f01602080910402602001604051908101604052809291908181526020018280546106db9061301d565b80156107285780601f106106fd57610100808354040283529160200191610728565b820191906000526020600020905b81548152906001019060200180831161070b57829003601f168201915b505050505090506000815111156107d8576000838152600d6020526040902080546107529061301d565b80601f016020809104026020016040519081016040528092919081815260200182805461077e9061301d565b80156107cb5780601f106107a0576101008083540402835291602001916107cb565b820191906000526020600020905b8154815290600101906020018083116107ae57829003601f168201915b5050505050915050919050565b6107e18361140c565b9392505050565b50919050565b816107f8816114a0565b600083815260096020908152604080832054600a909252909120548061081e8584612f6a565b111561083c5760405162461bcd60e51b815260040161053590612f1b565b6108638686866040518060400160405280600381526020016203078360ec1b8152506114fd565b60008581526009602052604081208054869290610881908490612f6a565b9091555050505050505050565b6108966113aa565b6001600160a01b0382166108db5760405162461bcd60e51b815260206004820152600c60248201526b5a45524f5f4144445245535360a01b6044820152606401610535565b6001600160a01b0382166000818152600b6020908152604091829020805460ff19168515159081179091558251338152918201527f9e2bd848ed96e551d65a5248c15480b97b14b10a342c4194fe315d1e8a24fe84910160405180910390a25050565b60009081526020819052604090206001015490565b6000828152600c602052604081205481906001600160a01b0316610976846115c3565b915091509250929050565b6001600160a01b03851633148061099d575061099d8533611165565b610a045760405162461bcd60e51b815260206004820152603260248201527f455243313135353a207472616e736665722063616c6c6572206973206e6f74206044820152711bdddb995c881b9bdc88185c1c1c9bdd995960721b6064820152608401610535565b610a1185858585856115ea565b5050505050565b610a218261093e565b610a2b8133611785565b610a3583836117e9565b505050565b6000610a446113aa565b82841115610a815760405162461bcd60e51b815260206004820152600a60248201526929aaa828262cafa2a92960b11b6044820152606401610535565b6000610a8b61180b565b9050610a95611821565b6000818152600c6020908152604080832080546001600160a01b03191633179055600a90915290208490558415610b0557846009600083815260200190815260200160002081905550610b058682876040518060400160405280600381526020016203078360ec1b8152506114fd565b825115610b53576000818152600d602090815260409091208451610b2b928601906124b4565b50806000805160206131ed83398151915284604051610b4a9190612cf7565b60405180910390a25b604051858152819033907fbc7d7d143abd25a4c46468a8dc71a9fc8c12d3f5969c388d86dce39f1507a8569060200160405180910390a395945050505050565b6001600160a01b0381163314610c035760405162461bcd60e51b815260206004820152602f60248201527f416363657373436f6e74726f6c3a2063616e206f6e6c792072656e6f756e636560448201526e103937b632b9903337b91039b2b63360891b6064820152608401610535565b610c0d8282611838565b5050565b81610c1b816114a0565b6000838152600d602090815260409091208351610c3a928501906124b4565b50826000805160206131ed83398151915283604051610c599190612cf7565b60405180910390a2505050565b60608151835114610ccb5760405162461bcd60e51b815260206004820152602960248201527f455243313135353a206163636f756e747320616e6420696473206c656e677468604482015268040dad2e6dac2e8c6d60bb1b6064820152608401610535565b600083516001600160401b03811115610ce657610ce66130db565b604051908082528060200260200182016040528015610d0f578160200160208202803683370190505b50905060005b8451811015610d8757610d5a858281518110610d3357610d336130c5565b6020026020010151858381518110610d4d57610d4d6130c5565b60200260200101516104cd565b828281518110610d6c57610d6c6130c5565b6020908102919091010152610d808161307e565b9050610d15565b509392505050565b600090815260096020526040902054151590565b6001600160a01b038316331480610dbf5750610dbf8333611165565b610ddb5760405162461bcd60e51b815260040161053590612d52565b610de683838361185a565b815160005b81811015610a11576000848281518110610e0757610e076130c5565b602002602001015190506000848381518110610e2557610e256130c5565b6020026020010151905080600960008481526020019081526020016000206000828254610e529190612fc3565b90915550506000828152600a602052604081208054839290610e75908490612fc3565b9250508190555050508080610e899061307e565b915050610deb565b60008281526001602052604081206107e190836119d9565b6000918252602082815260408084206001600160a01b0393909316845291905290205460ff1690565b600680546105af9061301d565b610c0d3383836119e5565b600081815260016020526040812061056390611ac6565b6001600160a01b038216610f6c5760405162461bcd60e51b815260206004820152602c60248201527f455243313135355472616461626c652373657443726561746f723a20494e564160448201526b2624a22fa0a2222922a9a99760a11b6064820152608401610535565b805160005b81811015610fb4576000838281518110610f8d57610f8d6130c5565b60200260200101519050610fa18582611ad0565b5080610fac8161307e565b915050610f71565b50505050565b610fc38261093e565b610fcd8133611785565b610a358383611838565b815160005b8181101561113d576000848281518110610ff857610ff86130c5565b6020908102919091018101516000818152600c83526040808220546009855281832054600a9095529082205488519395506001600160a01b03909116939290919088908790811061104b5761104b6130c5565b6020026020010151905061105c3390565b6001600160a01b0316846001600160a01b0316146110d45760405162461bcd60e51b815260206004820152602f60248201527f455243313135355472616461626c652362617463684d696e743a204f4e4c595f60448201526e10d491505513d497d0531313d5d151608a1b6064820152608401610535565b816110df8285612f6a565b11156110fd5760405162461bcd60e51b815260040161053590612f1b565b60008581526009602052604081208054839283929161111d908490612f6a565b9250508190555050505050505080806111359061307e565b915050610fdc565b50610fb48484846040518060400160405280600381526020016203078360ec1b815250611b09565b6001600160a01b0381166000908152600b602052604081205460ff161561118e57506001610563565b6001600160a01b0380841660009081526003602090815260408083209386168352929052205460ff166107e1565b6001600160a01b0385163314806111d857506111d88533611165565b6112365760405162461bcd60e51b815260206004820152602960248201527f455243313135353a2063616c6c6572206973206e6f74206f776e6572206e6f7260448201526808185c1c1c9bdd995960ba1b6064820152608401610535565b610a118585858585611c52565b6001600160a01b03831633148061125f575061125f8333611165565b61127b5760405162461bcd60e51b815260040161053590612d52565b611286838383611d61565b600082815260096020526040812080548392906112a4908490612fc3565b90915550506000828152600a6020526040812080548392906112c7908490612fc3565b9091555050505050565b6112db8282610ea9565b610c0d576000828152602081815260408083206001600160a01b03851684529091529020805460ff191660011790556113113390565b6001600160a01b0316816001600160a01b0316837f2f8788117e7eff1d82e926ec794901d17c78024a50270940304540a733656f0d60405160405180910390a45050565b60006107e1836001600160a01b038416611e54565b60006001600160e01b03198216636cdb3d1360e11b148061139b57506001600160e01b031982166303a24d0760e21b145b80610563575061056382611ea3565b6113b5600033610ea9565b6113f75760405162461bcd60e51b81526020600482015260136024820152722aa720aaaa2427a924ad22a22fa1a0a62622a960691b6044820152606401610535565b565b8051610c0d9060049060208401906124b4565b60606004805461141b9061301d565b80601f01602080910402602001604051908101604052809291908181526020018280546114479061301d565b80156114945780601f1061146957610100808354040283529160200191611494565b820191906000526020600020905b81548152906001019060200180831161147757829003601f168201915b50505050509050919050565b6000818152600c60205260409020546001600160a01b0316331461059f5760405162461bcd60e51b815260206004820152601460248201527313d3931657d0d491505513d497d0531313d5d15160621b6044820152606401610535565b6001600160a01b0384166115235760405162461bcd60e51b815260040161053590612eda565b336115438160008761153488611ec8565b61153d88611ec8565b87611f13565b60008481526002602090815260408083206001600160a01b038916845290915281208054859290611575908490612f6a565b909155505060408051858152602081018590526001600160a01b0380881692600092918516916000805160206131cd833981519152910160405180910390a4610a1181600087878787611f18565b600754600090612710906115e0906001600160601b031684612fa4565b6105639190612f82565b815183511461160b5760405162461bcd60e51b815260040161053590612e92565b6001600160a01b0384166116315760405162461bcd60e51b815260040161053590612dc0565b33611640818787878787611f13565b60005b8451811015611729576000858281518110611660576116606130c5565b60200260200101519050600085838151811061167e5761167e6130c5565b60209081029190910181015160008481526002835260408082206001600160a01b038e1683529093529190912054909150818110156116cf5760405162461bcd60e51b815260040161053590612e48565b60008381526002602090815260408083206001600160a01b038e8116855292528083208585039055908b1682528120805484929061170e908490612f6a565b92505081905550505050806117229061307e565b9050611643565b50846001600160a01b0316866001600160a01b0316826001600160a01b03166000805160206131ad8339815191528787604051611767929190612cc9565b60405180910390a461177d818787878787612083565b505050505050565b61178f8282610ea9565b610c0d576117a7816001600160a01b0316601461214d565b6117b283602061214d565b6040516020016117c3929190612ba4565b60408051601f198184030181529082905262461bcd60e51b825261053591600401612cf7565b6117f382826112d1565b6000828152600160205260409020610a359082611355565b6000600854600161181c9190612f6a565b905090565b600880549060006118318361307e565b9190505550565b61184282826122e8565b6000828152600160205260409020610a35908261234d565b6001600160a01b0383166118805760405162461bcd60e51b815260040161053590612e05565b80518251146118a15760405162461bcd60e51b815260040161053590612e92565b60003390506118c481856000868660405180602001604052806000815250611f13565b60005b835181101561198c5760008482815181106118e4576118e46130c5565b602002602001015190506000848381518110611902576119026130c5565b60209081029190910181015160008481526002835260408082206001600160a01b038c1683529093529190912054909150818110156119535760405162461bcd60e51b815260040161053590612d7c565b60009283526002602090815260408085206001600160a01b038b16865290915290922091039055806119848161307e565b9150506118c7565b5060006001600160a01b0316846001600160a01b0316826001600160a01b03166000805160206131ad83398151915286866040516119cb929190612cc9565b60405180910390a450505050565b60006107e18383612362565b816001600160a01b0316836001600160a01b03161415611a595760405162461bcd60e51b815260206004820152602960248201527f455243313135353a2073657474696e6720617070726f76616c20737461747573604482015268103337b91039b2b63360b91b6064820152608401610535565b6001600160a01b03838116600081815260036020908152604080832094871680845294825291829020805460ff191686151590811790915591519182527f17307eab39ab6107e8899845ad3d59bd9653f200f220920489ca2b5937696c31910160405180910390a3505050565b6000610563825490565b80611ada816114a0565b506000908152600c6020526040902080546001600160a01b0319166001600160a01b0392909216919091179055565b6001600160a01b038416611b2f5760405162461bcd60e51b815260040161053590612eda565b8151835114611b505760405162461bcd60e51b815260040161053590612e92565b33611b6081600087878787611f13565b60005b8451811015611bfc57838181518110611b7e57611b7e6130c5565b602002602001015160026000878481518110611b9c57611b9c6130c5565b602002602001015181526020019081526020016000206000886001600160a01b03166001600160a01b031681526020019081526020016000206000828254611be49190612f6a565b90915550819050611bf48161307e565b915050611b63565b50846001600160a01b031660006001600160a01b0316826001600160a01b03166000805160206131ad8339815191528787604051611c3b929190612cc9565b60405180910390a4610a1181600087878787612083565b6001600160a01b038416611c785760405162461bcd60e51b815260040161053590612dc0565b33611c8881878761153488611ec8565b60008481526002602090815260408083206001600160a01b038a16845290915290205483811015611ccb5760405162461bcd60e51b815260040161053590612e48565b60008581526002602090815260408083206001600160a01b038b8116855292528083208785039055908816825281208054869290611d0a908490612f6a565b909155505060408051868152602081018690526001600160a01b03808916928a821692918616916000805160206131cd833981519152910160405180910390a4611d58828888888888611f18565b50505050505050565b6001600160a01b038316611d875760405162461bcd60e51b815260040161053590612e05565b33611db681856000611d9887611ec8565b611da187611ec8565b60405180602001604052806000815250611f13565b60008381526002602090815260408083206001600160a01b038816845290915290205482811015611df95760405162461bcd60e51b815260040161053590612d7c565b60008481526002602090815260408083206001600160a01b03898116808652918452828520888703905582518981529384018890529092908616916000805160206131cd833981519152910160405180910390a45050505050565b6000818152600183016020526040812054611e9b57508154600181810184556000848152602080822090930184905584548482528286019093526040902091909155610563565b506000610563565b60006001600160e01b03198216635a05180f60e01b148061056357506105638261238c565b60408051600180825281830190925260609160009190602080830190803683370190505090508281600081518110611f0257611f026130c5565b602090810291909101015292915050565b61177d565b6001600160a01b0384163b1561177d5760405163f23a6e6160e01b81526001600160a01b0385169063f23a6e6190611f5c9089908990889088908890600401612c71565b602060405180830381600087803b158015611f7657600080fd5b505af1925050508015611fa6575060408051601f3d908101601f19168201909252611fa391810190612aa8565b60015b61205357611fb26130f1565b806308c379a01415611fec5750611fc761310d565b80611fd25750611fee565b8060405162461bcd60e51b81526004016105359190612cf7565b505b60405162461bcd60e51b815260206004820152603460248201527f455243313135353a207472616e7366657220746f206e6f6e20455243313135356044820152732932b1b2b4bb32b91034b6b83632b6b2b73a32b960611b6064820152608401610535565b6001600160e01b0319811663f23a6e6160e01b14611d585760405162461bcd60e51b815260040161053590612d0a565b6001600160a01b0384163b1561177d5760405163bc197c8160e01b81526001600160a01b0385169063bc197c81906120c79089908990889088908890600401612c13565b602060405180830381600087803b1580156120e157600080fd5b505af1925050508015612111575060408051601f3d908101601f1916820190925261210e91810190612aa8565b60015b61211d57611fb26130f1565b6001600160e01b0319811663bc197c8160e01b14611d585760405162461bcd60e51b815260040161053590612d0a565b6060600061215c836002612fa4565b612167906002612f6a565b6001600160401b0381111561217e5761217e6130db565b6040519080825280601f01601f1916602001820160405280156121a8576020820181803683370190505b509050600360fc1b816000815181106121c3576121c36130c5565b60200101906001600160f81b031916908160001a905350600f60fb1b816001815181106121f2576121f26130c5565b60200101906001600160f81b031916908160001a9053506000612216846002612fa4565b612221906001612f6a565b90505b6001811115612299576f181899199a1a9b1b9c1cb0b131b232b360811b85600f1660108110612255576122556130c5565b1a60f81b82828151811061226b5761226b6130c5565b60200101906001600160f81b031916908160001a90535060049490941c9361229281613006565b9050612224565b5083156107e15760405162461bcd60e51b815260206004820181905260248201527f537472696e67733a20686578206c656e67746820696e73756666696369656e746044820152606401610535565b6122f28282610ea9565b15610c0d576000828152602081815260408083206001600160a01b0385168085529252808320805460ff1916905551339285917ff6391f5c32d9c69d2a47ea670b442974b53935d1edc7fd64eb21e047a839171b9190a45050565b60006107e1836001600160a01b0384166123c1565b6000826000018281548110612379576123796130c5565b9060005260206000200154905092915050565b60006001600160e01b03198216637965db0b60e01b148061056357506301ffc9a760e01b6001600160e01b0319831614610563565b600081815260018301602052604081205480156124aa5760006123e5600183612fc3565b85549091506000906123f990600190612fc3565b905081811461245e576000866000018281548110612419576124196130c5565b906000526020600020015490508087600001848154811061243c5761243c6130c5565b6000918252602080832090910192909255918252600188019052604090208390555b855486908061246f5761246f6130af565b600190038181906000526020600020016000905590558560010160008681526020019081526020016000206000905560019350505050610563565b6000915050610563565b8280546124c09061301d565b90600052602060002090601f0160209004810192826124e25760008555612528565b82601f106124fb57805160ff1916838001178555612528565b82800160010185558215612528579182015b8281111561252857825182559160200191906001019061250d565b50612534929150612538565b5090565b5b808211156125345760008155600101612539565b80356001600160a01b038116811461256457600080fd5b919050565b600082601f83011261257a57600080fd5b8135602061258782612f47565b6040516125948282613052565b8381528281019150858301600585901b870184018810156125b457600080fd5b60005b858110156125d3578135845292840192908401906001016125b7565b5090979650505050505050565b600082601f8301126125f157600080fd5b81356001600160401b0381111561260a5761260a6130db565b604051612621601f8301601f191660200182613052565b81815284602083860101111561263657600080fd5b816020850160208301376000918101602001919091529392505050565b60006020828403121561266557600080fd5b6107e18261254d565b6000806040838503121561268157600080fd5b61268a8361254d565b91506126986020840161254d565b90509250929050565b600080600080600060a086880312156126b957600080fd5b6126c28661254d565b94506126d06020870161254d565b935060408601356001600160401b03808211156126ec57600080fd5b6126f889838a01612569565b9450606088013591508082111561270e57600080fd5b61271a89838a01612569565b9350608088013591508082111561273057600080fd5b5061273d888289016125e0565b9150509295509295909350565b600080600080600060a0868803121561276257600080fd5b61276b8661254d565b94506127796020870161254d565b9350604086013592506060860135915060808601356001600160401b038111156127a257600080fd5b61273d888289016125e0565b600080604083850312156127c157600080fd5b6127ca8361254d565b915060208301356001600160401b038111156127e557600080fd5b6127f185828601612569565b9150509250929050565b60008060006060848603121561281057600080fd5b6128198461254d565b925060208401356001600160401b038082111561283557600080fd5b61284187838801612569565b9350604086013591508082111561285757600080fd5b5061286486828701612569565b9150509250925092565b6000806040838503121561288157600080fd5b61288a8361254d565b91506020830135801515811461289f57600080fd5b809150509250929050565b600080604083850312156128bd57600080fd5b6128c68361254d565b946020939093013593505050565b6000806000606084860312156128e957600080fd5b6128f28461254d565b95602085013595506040909401359392505050565b6000806000806080858703121561291d57600080fd5b6129268561254d565b9350602085013592506040850135915060608501356001600160401b0381111561294f57600080fd5b61295b878288016125e0565b91505092959194509250565b6000806040838503121561297a57600080fd5b82356001600160401b038082111561299157600080fd5b818501915085601f8301126129a557600080fd5b813560206129b282612f47565b6040516129bf8282613052565b8381528281019150858301600585901b870184018b10156129df57600080fd5b600096505b84871015612a09576129f58161254d565b8352600196909601959183019183016129e4565b5096505086013592505080821115612a2057600080fd5b506127f185828601612569565b600060208284031215612a3f57600080fd5b5035919050565b60008060408385031215612a5957600080fd5b823591506126986020840161254d565b60008060408385031215612a7c57600080fd5b50508035926020909101359150565b600060208284031215612a9d57600080fd5b81356107e181613196565b600060208284031215612aba57600080fd5b81516107e181613196565b600060208284031215612ad757600080fd5b81356001600160401b03811115612aed57600080fd5b612af9848285016125e0565b949350505050565b60008060408385031215612b1457600080fd5b8235915060208301356001600160401b03811115612b3157600080fd5b6127f1858286016125e0565b600081518084526020808501945080840160005b83811015612b6d57815187529582019590820190600101612b51565b509495945050505050565b60008151808452612b90816020860160208601612fda565b601f01601f19169290920160200192915050565b76020b1b1b2b9b9a1b7b73a3937b61d1030b1b1b7bab73a1604d1b815260008351612bd6816017850160208801612fda565b7001034b99036b4b9b9b4b733903937b6329607d1b6017918401918201528351612c07816028840160208801612fda565b01602801949350505050565b6001600160a01b0386811682528516602082015260a060408201819052600090612c3f90830186612b3d565b8281036060840152612c518186612b3d565b90508281036080840152612c658185612b78565b98975050505050505050565b6001600160a01b03868116825285166020820152604081018490526060810183905260a060808201819052600090612cab90830184612b78565b979650505050505050565b6020815260006107e16020830184612b3d565b604081526000612cdc6040830185612b3d565b8281036020840152612cee8185612b3d565b95945050505050565b6020815260006107e16020830184612b78565b60208082526028908201527f455243313135353a204552433131353552656365697665722072656a656374656040820152676420746f6b656e7360c01b606082015260800190565b60208082526010908201526f11549497d393d517d054141493d5915160821b604082015260600190565b60208082526024908201527f455243313135353a206275726e20616d6f756e7420657863656564732062616c604082015263616e636560e01b606082015260800190565b60208082526025908201527f455243313135353a207472616e7366657220746f20746865207a65726f206164604082015264647265737360d81b606082015260800190565b60208082526023908201527f455243313135353a206275726e2066726f6d20746865207a65726f206164647260408201526265737360e81b606082015260800190565b6020808252602a908201527f455243313135353a20696e73756666696369656e742062616c616e636520666f60408201526939103a3930b739b332b960b11b606082015260800190565b60208082526028908201527f455243313135353a2069647320616e6420616d6f756e7473206c656e677468206040820152670dad2e6dac2e8c6d60c31b606082015260800190565b60208082526021908201527f455243313135353a206d696e7420746f20746865207a65726f206164647265736040820152607360f81b606082015260800190565b60208082526012908201527113505617d4d55414131657d4915050d2115160721b604082015260600190565b60006001600160401b03821115612f6057612f606130db565b5060051b60200190565b60008219821115612f7d57612f7d613099565b500190565b600082612f9f57634e487b7160e01b600052601260045260246000fd5b500490565b6000816000190483118215151615612fbe57612fbe613099565b500290565b600082821015612fd557612fd5613099565b500390565b60005b83811015612ff5578181015183820152602001612fdd565b83811115610fb45750506000910152565b60008161301557613015613099565b506000190190565b600181811c9082168061303157607f821691505b602082108114156107e857634e487b7160e01b600052602260045260246000fd5b601f8201601f191681016001600160401b0381118282101715613077576130776130db565b6040525050565b600060001982141561309257613092613099565b5060010190565b634e487b7160e01b600052601160045260246000fd5b634e487b7160e01b600052603160045260246000fd5b634e487b7160e01b600052603260045260246000fd5b634e487b7160e01b600052604160045260246000fd5b600060033d111561310a5760046000803e5060005160e01c5b90565b600060443d101561311b5790565b6040516003193d81016004833e81513d6001600160401b03808311602484018310171561314a57505050505090565b82850191508151818111156131625750505050505090565b843d870101602082850101111561317c5750505050505090565b61318b60208286010187613052565b509095945050505050565b6001600160e01b03198116811461059f57600080fdfe4a39dc06d4c0dbc64b70af90fd698a233a518aa5d07e595d983b8c0526c8f7fbc3d58168c5ae7397731d063d5bbf3d657854427343f4c083240f7aacaa2d0f626bb7ff708619ba0610cba295a58592e0451dee2622938c8755667688daf3529ba164736f6c6343000806000aa164736f6c6343000806000a",
  "linkReferences": {},
  "deployedLinkReferences": {}
}