{
  "_format": "hh-sol-artifact-1",
  "contractName": "RC3_1155_Factory",
  "sourceName": "contracts/RC3_1155_Factory.sol",
  "abi": [
    {
      "inputs": [
        {
          "internalType": "uint256",
          "name": "_fee",
          "type": "uint256"
        },
        {
          "internalType": "address payable",
          "name": "wallet",
          "type": "address"
        }
      ],
      "stateMutability": "nonpayable",
      "type": "constructor"
    },
    {
      "anonymous": false,
      "inputs": [
        {
          "indexed": true,
          "internalType": "address",
          "name": "creator",
          "type": "address"
        },
        {
          "indexed": true,
          "internalType": "address",
          "name": "token",
          "type": "address"
        }
      ],
      "name": "Created",
      "type": "event"
    },
    {
      "inputs": [
        {
          "internalType": "string",
          "name": "_name",
          "type": "string"
        },
        {
          "internalType": "string",
          "name": "_symbol",
          "type": "string"
        },
        {
          "internalType": "string",
          "name": "_uri",
          "type": "string"
        },
        {
          "internalType": "uint96",
          "name": "_royalty",
          "type": "uint96"
        }
      ],
      "name": "create1155NFT",
      "outputs": [
        {
          "internalType": "address",
          "name": "createdAddr",
          "type": "address"
        }
      ],
      "stateMutability": "payable",
      "type": "function"
    },
    {
      "inputs": [],
      "name": "fee",
      "outputs": [
        {
          "internalType": "uint256",
          "name": "",
          "type": "uint256"
        }
      ],
      "stateMutability": "view",
      "type": "function"
    },
    {
      "inputs": [],
      "name": "feeWallet",
      "outputs": [
        {
          "internalType": "address payable",
          "name": "",
          "type": "address"
        }
      ],
      "stateMutability": "view",
      "type": "function"
    },
    {
      "inputs": [],
      "name": "get1155List",
      "outputs": [
        {
          "internalType": "address[]",
          "name": "",
          "type": "address[]"
        },
        {
          "internalType": "uint256",
          "name": "listLength",
          "type": "uint256"
        }
      ],
      "stateMutability": "view",
      "type": "function"
    }
  ],
  "bytecode": "0x60c060405234801561001057600080fd5b50604051613cbf380380613cbf83398101604081905261002f9161004a565b60a09190915260601b6001600160601b031916608052610087565b6000806040838503121561005d57600080fd5b825160208401519092506001600160a01b038116811461007c57600080fd5b809150509250929050565b60805160601c60a051613c036100bc6000396000818160be015261019a015260008181610103015261021a0152613c036000f3fe608060405260043610620000445760003560e01c80630f4bc2921462000049578063b68efa0f146200007a578063ddca3f4314620000aa578063f25f4b5614620000ef575b600080fd5b3480156200005657600080fd5b506200006162000125565b60405162000071929190620004d4565b60405180910390f35b620000916200008b366004620003d3565b62000196565b6040516001600160a01b03909116815260200162000071565b348015620000b757600080fd5b50620000e07f000000000000000000000000000000000000000000000000000000000000000081565b60405190815260200162000071565b348015620000fc57600080fd5b50620000917f000000000000000000000000000000000000000000000000000000000000000081565b6060600080600080549050818054806020026020016040519081016040528092919081815260200182805480156200018757602002820191906000526020600020905b81546001600160a01b0316815260019091019060200180831162000168575b50505050509150915091509091565b60007f00000000000000000000000000000000000000000000000000000000000000003414620001fc5760405162461bcd60e51b815260206004820152600d60248201526c4d7573742073656e642066656560981b604482015260640160405180910390fd5b6200020a858585856200026c565b6040519091506001600160a01b037f000000000000000000000000000000000000000000000000000000000000000016903480156108fc02916000818181858888f1935050505015801562000263573d6000803e3d6000fd5b50949350505050565b60008085858585604051620002819062000331565b62000290949392919062000527565b604051809103906000f080158015620002ad573d6000803e3d6000fd5b50600080546001810182558180527f290decd9548b62a8d60345a988386fc84ba6bc95484008f6362f93160ef3e5630180546001600160a01b0319166001600160a01b0384169081179091556040519294508493509133917f587ece4cd19692c5be1a4184503d607d45542d2aca0698c0068f52e09ccb541c91a350949350505050565b613660806200059783390190565b600082601f8301126200035157600080fd5b81356001600160401b03808211156200036e576200036e62000580565b604051601f8301601f19908116603f0116810190828211818310171562000399576200039962000580565b81604052838152866020858801011115620003b357600080fd5b836020870160208301376000602085830101528094505050505092915050565b60008060008060808587031215620003ea57600080fd5b84356001600160401b03808211156200040257600080fd5b62000410888389016200033f565b955060208701359150808211156200042757600080fd5b62000435888389016200033f565b945060408701359150808211156200044c57600080fd5b506200045b878288016200033f565b92505060608501356001600160601b03811681146200047957600080fd5b939692955090935050565b6000815180845260005b81811015620004ac576020818501810151868301820152016200048e565b81811115620004bf576000602083870101525b50601f01601f19169290920160200192915050565b604080825283519082018190526000906020906060840190828701845b82811015620005185781516001600160a01b031684529284019290840190600101620004f1565b50505092019290925292915050565b6080815260006200053c608083018762000484565b828103602084015262000550818762000484565b9050828103604084015262000566818662000484565b91505060018060601b038316606083015295945050505050565b634e487b7160e01b600052604160045260246000fdfe60a06040523480156200001157600080fd5b506040516200366038038062003660833981016040819052620000349162000367565b81620000408162000096565b508351620000569060059060208701906200020a565b5082516200006c9060069060208601906200020a565b5060a081901b6001600160a01b0319166080526200008c600033620000af565b505050506200046d565b8051620000ab9060049060208401906200020a565b5050565b620000ab8282620000cc8282620000f860201b620011ba1760201c565b6000828152600160209081526040909120620000f39183906200123e62000198821b17901c565b505050565b6000828152602081815260408083206001600160a01b038516845290915290205460ff16620000ab576000828152602081815260408083206001600160a01b03851684529091529020805460ff19166001179055620001543390565b6001600160a01b0316816001600160a01b0316837f2f8788117e7eff1d82e926ec794901d17c78024a50270940304540a733656f0d60405160405180910390a45050565b6000620001af836001600160a01b038416620001b8565b90505b92915050565b60008181526001830160205260408120546200020157508154600181810184556000848152602080822090930184905584548482528286019093526040902091909155620001b2565b506000620001b2565b82805462000218906200041a565b90600052602060002090601f0160209004810192826200023c576000855562000287565b82601f106200025757805160ff191683800117855562000287565b8280016001018555821562000287579182015b82811115620002875782518255916020019190600101906200026a565b506200029592915062000299565b5090565b5b808211156200029557600081556001016200029a565b600082601f830112620002c257600080fd5b81516001600160401b0380821115620002df57620002df62000457565b604051601f8301601f19908116603f011681019082821181831017156200030a576200030a62000457565b816040528381526020925086838588010111156200032757600080fd5b600091505b838210156200034b57858201830151818301840152908201906200032c565b838211156200035d5760008385830101525b9695505050505050565b600080600080608085870312156200037e57600080fd5b84516001600160401b03808211156200039657600080fd5b620003a488838901620002b0565b95506020870151915080821115620003bb57600080fd5b620003c988838901620002b0565b94506040870151915080821115620003e057600080fd5b50620003ef87828801620002b0565b606087015190935090506001600160601b03811681146200040f57600080fd5b939692955090935050565b600181811c908216806200042f57607f821691505b602082108114156200045157634e487b7160e01b600052602260045260246000fd5b50919050565b634e487b7160e01b600052604160045260246000fd5b60805160a01c6131cd620004936000396000818161025e01526114cc01526131cd6000f3fe608060405234801561001057600080fd5b50600436106101955760003560e01c8062fdd58e1461019a57806301ffc9a7146101c057806302fe5305146101e357806306fdde03146101f85780630e89341c1461020d578063156e29f61461022057806315bcf9b714610233578063248a9ca31461024657806329ee566c146102595780632a55205a146102985780632eb2c2d6146102ca5780632f2ff15d146102dd578063308b4036146102f057806336568abe146103035780633adf80b4146103165780634e1273f4146103295780634f558e79146103495780636b20c4541461035c578063869f75941461036f5780639010d07c1461038f57806391d14854146103ba57806395d89b41146103cd578063a217fddf146103d5578063a22cb465146103dd578063bd85b039146103f0578063ca15c87314610410578063cd53d08e14610423578063d2a6b51a1461044c578063d547741f1461045f578063d81d0a1514610472578063e80bc6e114610485578063e985e9c5146104a8578063f242432a146104bb578063f5298aca146104ce575b600080fd5b6101ad6101a8366004612811565b6104e1565b6040519081526020015b60405180910390f35b6101d36101ce3660046129f2565b61057c565b60405190151581526020016101b7565b6101f66101f1366004612a2c565b6105a1565b005b6102006105b5565b6040516101b79190612c56565b61020061021b366004612994565b610643565b6101f661022e36600461283b565b610766565b6101f66102413660046127d5565b610808565b6101ad610254366004612994565b6108b6565b6102807f000000000000000000000000000000000000000000000000000000000000000081565b6040516001600160601b0390911681526020016101b7565b6102ab6102a63660046129d0565b6108cb565b604080516001600160a01b0390931683526020830191909152016101b7565b6101f66102d8366004612608565b6108f9565b6101f66102eb3660046129ad565b610945565b6101ad6102fe36600461286e565b610966565b6101f66103113660046129ad565b610ab8565b6101f6610324366004612a60565b610b36565b61033c6103373660046128ce565b610b8b565b6040516101b79190612c15565b6101d3610357366004612994565b610cb4565b6101f661036a366004612762565b610cc8565b6101ad61037d366004612994565b60096020526000908152604090205481565b6103a261039d3660046129d0565b610db6565b6040516001600160a01b0390911681526020016101b7565b6101d36103c83660046129ad565b610dd5565b610200610dfe565b6101ad600081565b6101f66103eb3660046127d5565b610e0b565b6101ad6103fe366004612994565b60009081526008602052604090205490565b6101ad61041e366004612994565b610e16565b6103a2610431366004612994565b600b602052600090815260409020546001600160a01b031681565b6101f661045a366004612715565b610e2d565b6101f661046d3660046129ad565b610ee6565b6101f6610480366004612762565b610f02565b6101d36104933660046125ba565b600a6020526000908152604090205460ff1681565b6101d36104b63660046125d5565b611090565b6101f66104c93660046126b1565b6110e7565b6101f66104dc36600461283b565b61112c565b60006001600160a01b0383166105515760405162461bcd60e51b815260206004820152602a60248201527f455243313135353a2061646472657373207a65726f206973206e6f742061207660448201526930b634b21037bbb732b960b11b60648201526084015b60405180910390fd5b5060008181526002602090815260408083206001600160a01b03861684529091529020545b92915050565b600063152a902d60e11b6001600160e01b031983161480610576575061057682611253565b6105a9611293565b6105b2816112e2565b50565b600580546105c290612fcb565b80601f01602080910402602001604051908101604052809291908181526020018280546105ee90612fcb565b801561063b5780601f106106105761010080835404028352916020019161063b565b820191906000526020600020905b81548152906001019060200180831161061e57829003601f168201915b505050505081565b606061064e82610cb4565b6106a95760405162461bcd60e51b815260206004820152602660248201527f455243313135355472616461626c65237572693a204e4f4e4558495354454e546044820152652faa27a5a2a760d11b6064820152608401610548565b6000828152600c6020526040812080546106c290612fcb565b80601f01602080910402602001604051908101604052809291908181526020018280546106ee90612fcb565b801561073b5780601f106107105761010080835404028352916020019161073b565b820191906000526020600020905b81548152906001019060200180831161071e57829003601f168201915b505083519394508493159250610755915050575092915050565b61075e846112f5565b949350505050565b8161077081611389565b600083815260086020908152604080832054600990925290912054806107968584612f18565b11156107b45760405162461bcd60e51b815260040161054890612ec9565b600085815260086020526040812080548692906107d2908490612f18565b925050819055506108008686866040518060400160405280600381526020016203078360ec1b8152506113e7565b505050505050565b610810611293565b6001600160a01b0382166108555760405162461bcd60e51b815260206004820152600c60248201526b5a45524f5f4144445245535360a01b6044820152606401610548565b6001600160a01b0382166000818152600a6020908152604091829020805460ff1916851515908117909155915191825233917f9e2bd848ed96e551d65a5248c15480b97b14b10a342c4194fe315d1e8a24fe84910160405180910390a35050565b60009081526020819052604090206001015490565b6000828152600b602052604081205481906001600160a01b03166108ee846114c0565b915091509250929050565b6001600160a01b03851633148061091557506109158533611090565b6109315760405162461bcd60e51b815260040161054890612c69565b61093e8585858585611503565b5050505050565b61094e826108b6565b61095781611696565b61096183836116a0565b505050565b6000610970611293565b828411156109ad5760405162461bcd60e51b815260206004820152600a60248201526929aaa828262cafa2a92960b11b6044820152606401610548565b60006109b76116c2565b6000818152600b6020908152604080832080546001600160a01b0319163317905560099091529020859055835190915015610a33576000818152600c602090815260409091208451610a0b9286019061241b565b50806000805160206131a183398151915284604051610a2a9190612c56565b60405180910390a25b8415610a7857846008600083815260200190815260200160002081905550610a788682876040518060400160405280600381526020016203078360ec1b8152506113e7565b604051858152819033907fbc7d7d143abd25a4c46468a8dc71a9fc8c12d3f5969c388d86dce39f1507a8569060200160405180910390a395945050505050565b6001600160a01b0381163314610b285760405162461bcd60e51b815260206004820152602f60248201527f416363657373436f6e74726f6c3a2063616e206f6e6c792072656e6f756e636560448201526e103937b632b9903337b91039b2b63360891b6064820152608401610548565b610b3282826116e0565b5050565b81610b4081611389565b6000838152600c602090815260409091208351610b5f9285019061241b565b50826000805160206131a183398151915283604051610b7e9190612c56565b60405180910390a2505050565b60608151835114610bf05760405162461bcd60e51b815260206004820152602960248201527f455243313135353a206163636f756e747320616e6420696473206c656e677468604482015268040dad2e6dac2e8c6d60bb1b6064820152608401610548565b600083516001600160401b03811115610c0b57610c0b61308f565b604051908082528060200260200182016040528015610c34578160200160208202803683370190505b50905060005b8451811015610cac57610c7f858281518110610c5857610c58613079565b6020026020010151858381518110610c7257610c72613079565b60200260200101516104e1565b828281518110610c9157610c91613079565b6020908102919091010152610ca581613032565b9050610c3a565b509392505050565b600090815260086020526040902054151590565b6001600160a01b038316331480610ce45750610ce48333611090565b610d005760405162461bcd60e51b815260040161054890612d00565b610d0b838383611702565b815160005b8181101561093e576000848281518110610d2c57610d2c613079565b602002602001015190506000848381518110610d4a57610d4a613079565b6020026020010151905080600860008481526020019081526020016000206000828254610d779190612f71565b909155505060008281526009602052604081208054839290610d9a908490612f71565b9250508190555050508080610dae90613032565b915050610d10565b6000828152600160205260408120610dce908361188f565b9392505050565b6000918252602082815260408084206001600160a01b0393909316845291905290205460ff1690565b600680546105c290612fcb565b610b3233838361189b565b60008181526001602052604081206105769061197c565b6001600160a01b038216610e985760405162461bcd60e51b815260206004820152602c60248201527f455243313135355472616461626c652373657443726561746f723a20494e564160448201526b2624a22fa0a2222922a9a99760a11b6064820152608401610548565b805160005b81811015610ee0576000838281518110610eb957610eb9613079565b60200260200101519050610ecd8582611986565b5080610ed881613032565b915050610e9d565b50505050565b610eef826108b6565b610ef881611696565b61096183836116e0565b815160005b81811015611068576000848281518110610f2357610f23613079565b6020908102919091018101516000818152600b8352604080822054600885528183205460099095529082205488519395506001600160a01b039091169392909190889087908110610f7657610f76613079565b60200260200101519050610f873390565b6001600160a01b0316846001600160a01b031614610fff5760405162461bcd60e51b815260206004820152602f60248201527f455243313135355472616461626c652362617463684d696e743a204f4e4c595f60448201526e10d491505513d497d0531313d5d151608a1b6064820152608401610548565b8161100a8285612f18565b11156110285760405162461bcd60e51b815260040161054890612ec9565b600085815260086020526040812080548392839291611048908490612f18565b92505081905550505050505050808061106090613032565b915050610f07565b50610ee08484846040518060400160405280600381526020016203078360ec1b8152506119bd565b6001600160a01b0381166000908152600a602052604081205460ff16156110b957506001610576565b6001600160a01b0380841660009081526003602090815260408083209386168352929052205460ff16610dce565b6001600160a01b03851633148061110357506111038533611090565b61111f5760405162461bcd60e51b815260040161054890612c69565b61093e8585858585611b06565b6001600160a01b03831633148061114857506111488333611090565b6111645760405162461bcd60e51b815260040161054890612d00565b61116f838383611c30565b6000828152600860205260408120805483929061118d908490612f71565b9091555050600082815260096020526040812080548392906111b0908490612f71565b9091555050505050565b6111c48282610dd5565b610b32576000828152602081815260408083206001600160a01b03851684529091529020805460ff191660011790556111fa3390565b6001600160a01b0316816001600160a01b0316837f2f8788117e7eff1d82e926ec794901d17c78024a50270940304540a733656f0d60405160405180910390a45050565b6000610dce836001600160a01b038416611d3a565b60006001600160e01b03198216636cdb3d1360e11b148061128457506001600160e01b031982166303a24d0760e21b145b80610576575061057682611d89565b61129e600033610dd5565b6112e05760405162461bcd60e51b81526020600482015260136024820152722aa720aaaa2427a924ad22a22fa1a0a62622a960691b6044820152606401610548565b565b8051610b3290600490602084019061241b565b60606004805461130490612fcb565b80601f016020809104026020016040519081016040528092919081815260200182805461133090612fcb565b801561137d5780601f106113525761010080835404028352916020019161137d565b820191906000526020600020905b81548152906001019060200180831161136057829003601f168201915b50505050509050919050565b6000818152600b60205260409020546001600160a01b0316338114610b325760405162461bcd60e51b815260206004820152601460248201527313d3931657d0d491505513d497d0531313d5d15160621b6044820152606401610548565b6001600160a01b03841661140d5760405162461bcd60e51b815260040161054890612e88565b33600061141985611dae565b9050600061142685611dae565b905061143783600089858589611df9565b60008681526002602090815260408083206001600160a01b038b16845290915281208054879290611469908490612f18565b909155505060408051878152602081018790526001600160a01b03808a169260009291871691600080516020613181833981519152910160405180910390a46114b783600089898989611dfe565b50505050505050565b60006001600160601b037f0000000000000000000000000000000000000000000000000000000000000000166127106114f98285612f52565b610dce9190612f30565b81518351146115245760405162461bcd60e51b815260040161054890612e40565b6001600160a01b03841661154a5760405162461bcd60e51b815260040161054890612d6e565b33611559818787878787611df9565b60005b845181101561164257600085828151811061157957611579613079565b60200260200101519050600085838151811061159757611597613079565b60209081029190910181015160008481526002835260408082206001600160a01b038e1683529093529190912054909150818110156115e85760405162461bcd60e51b815260040161054890612df6565b60008381526002602090815260408083206001600160a01b038e8116855292528083208585039055908b16825281208054849290611627908490612f18565b925050819055505050508061163b90613032565b905061155c565b50846001600160a01b0316866001600160a01b0316826001600160a01b03166000805160206131618339815191528787604051611680929190612c28565b60405180910390a4610800818787878787611f70565b6105b28133612041565b6116aa82826111ba565b6000828152600160205260409020610961908261123e565b60078054600091826116d383613032565b9190505550600754905090565b6116ea82826120a5565b6000828152600160205260409020610961908261210a565b6001600160a01b0383166117285760405162461bcd60e51b815260040161054890612db3565b80518251146117495760405162461bcd60e51b815260040161054890612e40565b600033905061176c81856000868660405180602001604052806000815250611df9565b60005b835181101561183457600084828151811061178c5761178c613079565b6020026020010151905060008483815181106117aa576117aa613079565b60209081029190910181015160008481526002835260408082206001600160a01b038c1683529093529190912054909150818110156117fb5760405162461bcd60e51b815260040161054890612d2a565b60009283526002602090815260408085206001600160a01b038b168652909152909220910390558061182c81613032565b91505061176f565b5060006001600160a01b0316846001600160a01b0316826001600160a01b03166000805160206131618339815191528686604051611873929190612c28565b60405180910390a4604080516020810190915260009052610ee0565b6000610dce838361211f565b816001600160a01b0316836001600160a01b0316141561190f5760405162461bcd60e51b815260206004820152602960248201527f455243313135353a2073657474696e6720617070726f76616c20737461747573604482015268103337b91039b2b63360b91b6064820152608401610548565b6001600160a01b03838116600081815260036020908152604080832094871680845294825291829020805460ff191686151590811790915591519182527f17307eab39ab6107e8899845ad3d59bd9653f200f220920489ca2b5937696c31910160405180910390a3505050565b6000610576825490565b61198f81611389565b6000908152600b6020526040902080546001600160a01b0319166001600160a01b0392909216919091179055565b6001600160a01b0384166119e35760405162461bcd60e51b815260040161054890612e88565b8151835114611a045760405162461bcd60e51b815260040161054890612e40565b33611a1481600087878787611df9565b60005b8451811015611ab057838181518110611a3257611a32613079565b602002602001015160026000878481518110611a5057611a50613079565b602002602001015181526020019081526020016000206000886001600160a01b03166001600160a01b031681526020019081526020016000206000828254611a989190612f18565b90915550819050611aa881613032565b915050611a17565b50846001600160a01b031660006001600160a01b0316826001600160a01b03166000805160206131618339815191528787604051611aef929190612c28565b60405180910390a461093e81600087878787611f70565b6001600160a01b038416611b2c5760405162461bcd60e51b815260040161054890612d6e565b336000611b3885611dae565b90506000611b4585611dae565b9050611b55838989858589611df9565b60008681526002602090815260408083206001600160a01b038c16845290915290205485811015611b985760405162461bcd60e51b815260040161054890612df6565b60008781526002602090815260408083206001600160a01b038d8116855292528083208985039055908a16825281208054889290611bd7908490612f18565b909155505060408051888152602081018890526001600160a01b03808b16928c82169291881691600080516020613181833981519152910160405180910390a4611c25848a8a8a8a8a611dfe565b505050505050505050565b6001600160a01b038316611c565760405162461bcd60e51b815260040161054890612db3565b336000611c6284611dae565b90506000611c6f84611dae565b9050611c8f83876000858560405180602001604052806000815250611df9565b60008581526002602090815260408083206001600160a01b038a16845290915290205484811015611cd25760405162461bcd60e51b815260040161054890612d2a565b60008681526002602090815260408083206001600160a01b038b81168086529184528285208a8703905582518b81529384018a9052909290881691600080516020613181833981519152910160405180910390a46040805160208101909152600090526114b7565b6000818152600183016020526040812054611d8157508154600181810184556000848152602080822090930184905584548482528286019093526040902091909155610576565b506000610576565b60006001600160e01b03198216635a05180f60e01b1480610576575061057682612149565b60408051600180825281830190925260609160009190602080830190803683370190505090508281600081518110611de857611de8613079565b602090810291909101015292915050565b610800565b611e10846001600160a01b031661217e565b156108005760405163f23a6e6160e01b81526001600160a01b0385169063f23a6e6190611e499089908990889088908890600401612bd0565b602060405180830381600087803b158015611e6357600080fd5b505af1925050508015611e93575060408051601f3d908101601f19168201909252611e9091810190612a0f565b60015b611f4057611e9f6130a5565b806308c379a01415611ed95750611eb46130c1565b80611ebf5750611edb565b8060405162461bcd60e51b81526004016105489190612c56565b505b60405162461bcd60e51b815260206004820152603460248201527f455243313135353a207472616e7366657220746f206e6f6e20455243313135356044820152732932b1b2b4bb32b91034b6b83632b6b2b73a32b960611b6064820152608401610548565b6001600160e01b0319811663f23a6e6160e01b146114b75760405162461bcd60e51b815260040161054890612cb8565b611f82846001600160a01b031661217e565b156108005760405163bc197c8160e01b81526001600160a01b0385169063bc197c8190611fbb9089908990889088908890600401612b72565b602060405180830381600087803b158015611fd557600080fd5b505af1925050508015612005575060408051601f3d908101601f1916820190925261200291810190612a0f565b60015b61201157611e9f6130a5565b6001600160e01b0319811663bc197c8160e01b146114b75760405162461bcd60e51b815260040161054890612cb8565b61204b8282610dd5565b610b3257612063816001600160a01b0316601461218d565b61206e83602061218d565b60405160200161207f929190612b03565b60408051601f198184030181529082905262461bcd60e51b825261054891600401612c56565b6120af8282610dd5565b15610b32576000828152602081815260408083206001600160a01b0385168085529252808320805460ff1916905551339285917ff6391f5c32d9c69d2a47ea670b442974b53935d1edc7fd64eb21e047a839171b9190a45050565b6000610dce836001600160a01b038416612328565b600082600001828154811061213657612136613079565b9060005260206000200154905092915050565b60006001600160e01b03198216637965db0b60e01b148061057657506301ffc9a760e01b6001600160e01b0319831614610576565b6001600160a01b03163b151590565b6060600061219c836002612f52565b6121a7906002612f18565b6001600160401b038111156121be576121be61308f565b6040519080825280601f01601f1916602001820160405280156121e8576020820181803683370190505b509050600360fc1b8160008151811061220357612203613079565b60200101906001600160f81b031916908160001a905350600f60fb1b8160018151811061223257612232613079565b60200101906001600160f81b031916908160001a9053506000612256846002612f52565b612261906001612f18565b90505b60018111156122d9576f181899199a1a9b1b9c1cb0b131b232b360811b85600f166010811061229557612295613079565b1a60f81b8282815181106122ab576122ab613079565b60200101906001600160f81b031916908160001a90535060049490941c936122d281612fb4565b9050612264565b508315610dce5760405162461bcd60e51b815260206004820181905260248201527f537472696e67733a20686578206c656e67746820696e73756666696369656e746044820152606401610548565b6000818152600183016020526040812054801561241157600061234c600183612f71565b855490915060009061236090600190612f71565b90508181146123c557600086600001828154811061238057612380613079565b90600052602060002001549050808760000184815481106123a3576123a3613079565b6000918252602080832090910192909255918252600188019052604090208390555b85548690806123d6576123d6613063565b600190038181906000526020600020016000905590558560010160008681526020019081526020016000206000905560019350505050610576565b6000915050610576565b82805461242790612fcb565b90600052602060002090601f016020900481019282612449576000855561248f565b82601f1061246257805160ff191683800117855561248f565b8280016001018555821561248f579182015b8281111561248f578251825591602001919060010190612474565b5061249b92915061249f565b5090565b5b8082111561249b57600081556001016124a0565b80356001600160a01b03811681146124cb57600080fd5b919050565b600082601f8301126124e157600080fd5b813560206124ee82612ef5565b6040516124fb8282613006565b8381528281019150858301600585901b8701840188101561251b57600080fd5b60005b8581101561253a5781358452928401929084019060010161251e565b5090979650505050505050565b600082601f83011261255857600080fd5b81356001600160401b038111156125715761257161308f565b604051612588601f8301601f191660200182613006565b81815284602083860101111561259d57600080fd5b816020850160208301376000918101602001919091529392505050565b6000602082840312156125cc57600080fd5b610dce826124b4565b600080604083850312156125e857600080fd5b6125f1836124b4565b91506125ff602084016124b4565b90509250929050565b600080600080600060a0868803121561262057600080fd5b612629866124b4565b9450612637602087016124b4565b935060408601356001600160401b038082111561265357600080fd5b61265f89838a016124d0565b9450606088013591508082111561267557600080fd5b61268189838a016124d0565b9350608088013591508082111561269757600080fd5b506126a488828901612547565b9150509295509295909350565b600080600080600060a086880312156126c957600080fd5b6126d2866124b4565b94506126e0602087016124b4565b9350604086013592506060860135915060808601356001600160401b0381111561270957600080fd5b6126a488828901612547565b6000806040838503121561272857600080fd5b612731836124b4565b915060208301356001600160401b0381111561274c57600080fd5b612758858286016124d0565b9150509250929050565b60008060006060848603121561277757600080fd5b612780846124b4565b925060208401356001600160401b038082111561279c57600080fd5b6127a8878388016124d0565b935060408601359150808211156127be57600080fd5b506127cb868287016124d0565b9150509250925092565b600080604083850312156127e857600080fd5b6127f1836124b4565b91506020830135801515811461280657600080fd5b809150509250929050565b6000806040838503121561282457600080fd5b61282d836124b4565b946020939093013593505050565b60008060006060848603121561285057600080fd5b612859846124b4565b95602085013595506040909401359392505050565b6000806000806080858703121561288457600080fd5b61288d856124b4565b9350602085013592506040850135915060608501356001600160401b038111156128b657600080fd5b6128c287828801612547565b91505092959194509250565b600080604083850312156128e157600080fd5b82356001600160401b03808211156128f857600080fd5b818501915085601f83011261290c57600080fd5b8135602061291982612ef5565b6040516129268282613006565b8381528281019150858301600585901b870184018b101561294657600080fd5b600096505b848710156129705761295c816124b4565b83526001969096019591830191830161294b565b509650508601359250508082111561298757600080fd5b50612758858286016124d0565b6000602082840312156129a657600080fd5b5035919050565b600080604083850312156129c057600080fd5b823591506125ff602084016124b4565b600080604083850312156129e357600080fd5b50508035926020909101359150565b600060208284031215612a0457600080fd5b8135610dce8161314a565b600060208284031215612a2157600080fd5b8151610dce8161314a565b600060208284031215612a3e57600080fd5b81356001600160401b03811115612a5457600080fd5b61075e84828501612547565b60008060408385031215612a7357600080fd5b8235915060208301356001600160401b03811115612a9057600080fd5b61275885828601612547565b600081518084526020808501945080840160005b83811015612acc57815187529582019590820190600101612ab0565b509495945050505050565b60008151808452612aef816020860160208601612f88565b601f01601f19169290920160200192915050565b76020b1b1b2b9b9a1b7b73a3937b61d1030b1b1b7bab73a1604d1b815260008351612b35816017850160208801612f88565b7001034b99036b4b9b9b4b733903937b6329607d1b6017918401918201528351612b66816028840160208801612f88565b01602801949350505050565b6001600160a01b0386811682528516602082015260a060408201819052600090612b9e90830186612a9c565b8281036060840152612bb08186612a9c565b90508281036080840152612bc48185612ad7565b98975050505050505050565b6001600160a01b03868116825285166020820152604081018490526060810183905260a060808201819052600090612c0a90830184612ad7565b979650505050505050565b602081526000610dce6020830184612a9c565b604081526000612c3b6040830185612a9c565b8281036020840152612c4d8185612a9c565b95945050505050565b602081526000610dce6020830184612ad7565b6020808252602f908201527f455243313135353a2063616c6c6572206973206e6f7420746f6b656e206f776e60408201526e195c881b9bdc88185c1c1c9bdd9959608a1b606082015260800190565b60208082526028908201527f455243313135353a204552433131353552656365697665722072656a656374656040820152676420746f6b656e7360c01b606082015260800190565b60208082526010908201526f11549497d393d517d054141493d5915160821b604082015260600190565b60208082526024908201527f455243313135353a206275726e20616d6f756e7420657863656564732062616c604082015263616e636560e01b606082015260800190565b60208082526025908201527f455243313135353a207472616e7366657220746f20746865207a65726f206164604082015264647265737360d81b606082015260800190565b60208082526023908201527f455243313135353a206275726e2066726f6d20746865207a65726f206164647260408201526265737360e81b606082015260800190565b6020808252602a908201527f455243313135353a20696e73756666696369656e742062616c616e636520666f60408201526939103a3930b739b332b960b11b606082015260800190565b60208082526028908201527f455243313135353a2069647320616e6420616d6f756e7473206c656e677468206040820152670dad2e6dac2e8c6d60c31b606082015260800190565b60208082526021908201527f455243313135353a206d696e7420746f20746865207a65726f206164647265736040820152607360f81b606082015260800190565b60208082526012908201527113505617d4d55414131657d4915050d2115160721b604082015260600190565b60006001600160401b03821115612f0e57612f0e61308f565b5060051b60200190565b60008219821115612f2b57612f2b61304d565b500190565b600082612f4d57634e487b7160e01b600052601260045260246000fd5b500490565b6000816000190483118215151615612f6c57612f6c61304d565b500290565b600082821015612f8357612f8361304d565b500390565b60005b83811015612fa3578181015183820152602001612f8b565b83811115610ee05750506000910152565b600081612fc357612fc361304d565b506000190190565b600181811c90821680612fdf57607f821691505b6020821081141561300057634e487b7160e01b600052602260045260246000fd5b50919050565b601f8201601f191681016001600160401b038111828210171561302b5761302b61308f565b6040525050565b60006000198214156130465761304661304d565b5060010190565b634e487b7160e01b600052601160045260246000fd5b634e487b7160e01b600052603160045260246000fd5b634e487b7160e01b600052603260045260246000fd5b634e487b7160e01b600052604160045260246000fd5b600060033d11156130be5760046000803e5060005160e01c5b90565b600060443d10156130cf5790565b6040516003193d81016004833e81513d6001600160401b0380831160248401831017156130fe57505050505090565b82850191508151818111156131165750505050505090565b843d87010160208285010111156131305750505050505090565b61313f60208286010187613006565b509095945050505050565b6001600160e01b0319811681146105b257600080fdfe4a39dc06d4c0dbc64b70af90fd698a233a518aa5d07e595d983b8c0526c8f7fbc3d58168c5ae7397731d063d5bbf3d657854427343f4c083240f7aacaa2d0f626bb7ff708619ba0610cba295a58592e0451dee2622938c8755667688daf3529ba164736f6c6343000806000aa164736f6c6343000806000a",
  "linkReferences": {},
  "deployedLinkReferences": {}
}