{
  "_format": "hh-sol-artifact-1",
  "contractName": "RC3_1155_Factory",
  "sourceName": "contracts/RC3_1155_Factory.sol",
  "abi": [
    {
      "anonymous": false,
      "inputs": [
        {
          "indexed": true,
          "internalType": "address",
          "name": "creator",
          "type": "address"
        },
        {
          "indexed": true,
          "internalType": "address",
          "name": "token",
          "type": "address"
        }
      ],
      "name": "Created",
      "type": "event"
    },
    {
      "inputs": [
        {
          "internalType": "string",
          "name": "_name",
          "type": "string"
        },
        {
          "internalType": "string",
          "name": "_symbol",
          "type": "string"
        },
        {
          "internalType": "string",
          "name": "_uri",
          "type": "string"
        },
        {
          "internalType": "uint96",
          "name": "_royalty",
          "type": "uint96"
        }
      ],
      "name": "create1155NFT",
      "outputs": [
        {
          "internalType": "address",
          "name": "createdAddr",
          "type": "address"
        }
      ],
      "stateMutability": "nonpayable",
      "type": "function"
    },
    {
      "inputs": [],
      "name": "get1155List",
      "outputs": [
        {
          "internalType": "address[]",
          "name": "",
          "type": "address[]"
        },
        {
          "internalType": "uint256",
          "name": "listLength",
          "type": "uint256"
        }
      ],
      "stateMutability": "view",
      "type": "function"
    }
  ],
  "bytecode": "0x608060405234801561001057600080fd5b50613abe806100206000396000f3fe608060405234801561001057600080fd5b50600436106100365760003560e01c80630f4bc2921461003b578063b68efa0f1461005a575b600080fd5b610043610085565b604051610051929190610358565b60405180910390f35b61006d610068366004610265565b6100f4565b6040516001600160a01b039091168152602001610051565b6060600080600080549050818054806020026020016040519081016040528092919081815260200182805480156100e557602002820191906000526020600020905b81546001600160a01b031681526001909101906020018083116100c7575b50505050509150915091509091565b60006101028585858561010b565b95945050505050565b6000808585858560405161011e906101cb565b61012b94939291906103a9565b604051809103906000f080158015610147573d6000803e3d6000fd5b50600080546001810182558180527f290decd9548b62a8d60345a988386fc84ba6bc95484008f6362f93160ef3e5630180546001600160a01b0319166001600160a01b0384169081179091556040519294508493509133917f587ece4cd19692c5be1a4184503d607d45542d2aca0698c0068f52e09ccb541c91a350949350505050565b61369f806200041383390190565b600082601f8301126101ea57600080fd5b81356001600160401b0380821115610204576102046103fc565b604051601f8301601f19908116603f0116810190828211818310171561022c5761022c6103fc565b8160405283815286602085880101111561024557600080fd5b836020870160208301376000602085830101528094505050505092915050565b6000806000806080858703121561027b57600080fd5b84356001600160401b038082111561029257600080fd5b61029e888389016101d9565b955060208701359150808211156102b457600080fd5b6102c0888389016101d9565b945060408701359150808211156102d657600080fd5b506102e3878288016101d9565b92505060608501356001600160601b038116811461030057600080fd5b939692955090935050565b6000815180845260005b8181101561033157602081850181015186830182015201610315565b81811115610343576000602083870101525b50601f01601f19169290920160200192915050565b604080825283519082018190526000906020906060840190828701845b8281101561039a5781516001600160a01b031684529284019290840190600101610375565b50505092019290925292915050565b6080815260006103bc608083018761030b565b82810360208401526103ce818761030b565b905082810360408401526103e2818661030b565b91505060018060601b038316606083015295945050505050565b634e487b7160e01b600052604160045260246000fdfe60a06040523480156200001157600080fd5b506040516200369f3803806200369f833981016040819052620000349162000367565b81620000408162000096565b508351620000569060059060208701906200020a565b5082516200006c9060069060208601906200020a565b5060a081901b6001600160a01b0319166080526200008c600033620000af565b505050506200046d565b8051620000ab9060049060208401906200020a565b5050565b620000ab8282620000cc8282620000f860201b620012481760201c565b6000828152600160209081526040909120620000f3918390620012cc62000198821b17901c565b505050565b6000828152602081815260408083206001600160a01b038516845290915290205460ff16620000ab576000828152602081815260408083206001600160a01b03851684529091529020805460ff19166001179055620001543390565b6001600160a01b0316816001600160a01b0316837f2f8788117e7eff1d82e926ec794901d17c78024a50270940304540a733656f0d60405160405180910390a45050565b6000620001af836001600160a01b038416620001b8565b90505b92915050565b60008181526001830160205260408120546200020157508154600181810184556000848152602080822090930184905584548482528286019093526040902091909155620001b2565b506000620001b2565b82805462000218906200041a565b90600052602060002090601f0160209004810192826200023c576000855562000287565b82601f106200025757805160ff191683800117855562000287565b8280016001018555821562000287579182015b82811115620002875782518255916020019190600101906200026a565b506200029592915062000299565b5090565b5b808211156200029557600081556001016200029a565b600082601f830112620002c257600080fd5b81516001600160401b0380821115620002df57620002df62000457565b604051601f8301601f19908116603f011681019082821181831017156200030a576200030a62000457565b816040528381526020925086838588010111156200032757600080fd5b600091505b838210156200034b57858201830151818301840152908201906200032c565b838211156200035d5760008385830101525b9695505050505050565b600080600080608085870312156200037e57600080fd5b84516001600160401b03808211156200039657600080fd5b620003a488838901620002b0565b95506020870151915080821115620003bb57600080fd5b620003c988838901620002b0565b94506040870151915080821115620003e057600080fd5b50620003ef87828801620002b0565b606087015190935090506001600160601b03811681146200040f57600080fd5b939692955090935050565b600181811c908216806200042f57607f821691505b602082108114156200045157634e487b7160e01b600052602260045260246000fd5b50919050565b634e487b7160e01b600052604160045260246000fd5b60805160a01c61320c620004936000396000818161025e015261155a015261320c6000f3fe608060405234801561001057600080fd5b50600436106101955760003560e01c8062fdd58e1461019a57806301ffc9a7146101c057806302fe5305146101e357806306fdde03146101f85780630e89341c1461020d578063156e29f61461022057806315bcf9b714610233578063248a9ca31461024657806329ee566c146102595780632a55205a146102985780632eb2c2d6146102ca5780632f2ff15d146102dd578063308b4036146102f057806336568abe146103035780633adf80b4146103165780634e1273f4146103295780634f558e79146103495780636b20c4541461035c578063869f75941461036f5780639010d07c1461038f57806391d14854146103ba57806395d89b41146103cd578063a217fddf146103d5578063a22cb465146103dd578063bd85b039146103f0578063ca15c87314610410578063cd53d08e14610423578063d2a6b51a1461044c578063d547741f1461045f578063d81d0a1514610472578063e80bc6e114610485578063e985e9c5146104a8578063f242432a146104bb578063f5298aca146104ce575b600080fd5b6101ad6101a836600461289f565b6104e1565b6040519081526020015b60405180910390f35b6101d36101ce366004612a80565b61057d565b60405190151581526020016101b7565b6101f66101f1366004612aba565b6105a2565b005b6102006105b6565b6040516101b79190612ce4565b61020061021b366004612a22565b610644565b6101f661022e3660046128c9565b610767565b6101f6610241366004612863565b610809565b6101ad610254366004612a22565b6108b7565b6102807f000000000000000000000000000000000000000000000000000000000000000081565b6040516001600160601b0390911681526020016101b7565b6102ab6102a6366004612a5e565b6108cc565b604080516001600160a01b0390931683526020830191909152016101b7565b6101f66102d8366004612696565b6108fa565b6101f66102eb366004612a3b565b610991565b6101ad6102fe3660046128fc565b6109b2565b6101f6610311366004612a3b565b610b04565b6101f6610324366004612aee565b610b82565b61033c61033736600461295c565b610bd7565b6040516101b79190612ca3565b6101d3610357366004612a22565b610d00565b6101f661036a3660046127f0565b610d14565b6101ad61037d366004612a22565b60096020526000908152604090205481565b6103a261039d366004612a5e565b610e02565b6040516001600160a01b0390911681526020016101b7565b6101d36103c8366004612a3b565b610e21565b610200610e4a565b6101ad600081565b6101f66103eb366004612863565b610e57565b6101ad6103fe366004612a22565b60009081526008602052604090205490565b6101ad61041e366004612a22565b610e62565b6103a2610431366004612a22565b600b602052600090815260409020546001600160a01b031681565b6101f661045a3660046127a3565b610e79565b6101f661046d366004612a3b565b610f32565b6101f66104803660046127f0565b610f4e565b6101d3610493366004612648565b600a6020526000908152604090205460ff1681565b6101d36104b6366004612663565b6110dc565b6101f66104c936600461273f565b611133565b6101f66104dc3660046128c9565b6111ba565b60006001600160a01b0383166105525760405162461bcd60e51b815260206004820152602b60248201527f455243313135353a2062616c616e636520717565727920666f7220746865207a60448201526a65726f206164647265737360a81b60648201526084015b60405180910390fd5b5060008181526002602090815260408083206001600160a01b03861684529091529020545b92915050565b600063152a902d60e11b6001600160e01b0319831614806105775750610577826112e1565b6105aa611321565b6105b381611370565b50565b600580546105c39061300a565b80601f01602080910402602001604051908101604052809291908181526020018280546105ef9061300a565b801561063c5780601f106106115761010080835404028352916020019161063c565b820191906000526020600020905b81548152906001019060200180831161061f57829003601f168201915b505050505081565b606061064f82610d00565b6106aa5760405162461bcd60e51b815260206004820152602660248201527f455243313135355472616461626c65237572693a204e4f4e4558495354454e546044820152652faa27a5a2a760d11b6064820152608401610549565b6000828152600c6020526040812080546106c39061300a565b80601f01602080910402602001604051908101604052809291908181526020018280546106ef9061300a565b801561073c5780601f106107115761010080835404028352916020019161073c565b820191906000526020600020905b81548152906001019060200180831161071f57829003601f168201915b505083519394508493159250610756915050575092915050565b61075f84611383565b949350505050565b8161077181611417565b600083815260086020908152604080832054600990925290912054806107978584612f57565b11156107b55760405162461bcd60e51b815260040161054990612f08565b600085815260086020526040812080548692906107d3908490612f57565b925050819055506108018686866040518060400160405280600381526020016203078360ec1b815250611475565b505050505050565b610811611321565b6001600160a01b0382166108565760405162461bcd60e51b815260206004820152600c60248201526b5a45524f5f4144445245535360a01b6044820152606401610549565b6001600160a01b0382166000818152600a6020908152604091829020805460ff1916851515908117909155915191825233917f9e2bd848ed96e551d65a5248c15480b97b14b10a342c4194fe315d1e8a24fe84910160405180910390a35050565b60009081526020819052604090206001015490565b6000828152600b602052604081205481906001600160a01b03166108ef8461154e565b915091509250929050565b6001600160a01b038516331480610916575061091685336110dc565b61097d5760405162461bcd60e51b815260206004820152603260248201527f455243313135353a207472616e736665722063616c6c6572206973206e6f74206044820152711bdddb995c881b9bdc88185c1c1c9bdd995960721b6064820152608401610549565b61098a8585858585611591565b5050505050565b61099a826108b7565b6109a381611724565b6109ad838361172e565b505050565b60006109bc611321565b828411156109f95760405162461bcd60e51b815260206004820152600a60248201526929aaa828262cafa2a92960b11b6044820152606401610549565b6000610a03611750565b6000818152600b6020908152604080832080546001600160a01b0319163317905560099091529020859055835190915015610a7f576000818152600c602090815260409091208451610a57928601906124a9565b50806000805160206131e083398151915284604051610a769190612ce4565b60405180910390a25b8415610ac457846008600083815260200190815260200160002081905550610ac48682876040518060400160405280600381526020016203078360ec1b815250611475565b604051858152819033907fbc7d7d143abd25a4c46468a8dc71a9fc8c12d3f5969c388d86dce39f1507a8569060200160405180910390a395945050505050565b6001600160a01b0381163314610b745760405162461bcd60e51b815260206004820152602f60248201527f416363657373436f6e74726f6c3a2063616e206f6e6c792072656e6f756e636560448201526e103937b632b9903337b91039b2b63360891b6064820152608401610549565b610b7e828261176e565b5050565b81610b8c81611417565b6000838152600c602090815260409091208351610bab928501906124a9565b50826000805160206131e083398151915283604051610bca9190612ce4565b60405180910390a2505050565b60608151835114610c3c5760405162461bcd60e51b815260206004820152602960248201527f455243313135353a206163636f756e747320616e6420696473206c656e677468604482015268040dad2e6dac2e8c6d60bb1b6064820152608401610549565b600083516001600160401b03811115610c5757610c576130ce565b604051908082528060200260200182016040528015610c80578160200160208202803683370190505b50905060005b8451811015610cf857610ccb858281518110610ca457610ca46130b8565b6020026020010151858381518110610cbe57610cbe6130b8565b60200260200101516104e1565b828281518110610cdd57610cdd6130b8565b6020908102919091010152610cf181613071565b9050610c86565b509392505050565b600090815260086020526040902054151590565b6001600160a01b038316331480610d305750610d3083336110dc565b610d4c5760405162461bcd60e51b815260040161054990612d3f565b610d57838383611790565b815160005b8181101561098a576000848281518110610d7857610d786130b8565b602002602001015190506000848381518110610d9657610d966130b8565b6020026020010151905080600860008481526020019081526020016000206000828254610dc39190612fb0565b909155505060008281526009602052604081208054839290610de6908490612fb0565b9250508190555050508080610dfa90613071565b915050610d5c565b6000828152600160205260408120610e1a908361191d565b9392505050565b6000918252602082815260408084206001600160a01b0393909316845291905290205460ff1690565b600680546105c39061300a565b610b7e338383611929565b600081815260016020526040812061057790611a0a565b6001600160a01b038216610ee45760405162461bcd60e51b815260206004820152602c60248201527f455243313135355472616461626c652373657443726561746f723a20494e564160448201526b2624a22fa0a2222922a9a99760a11b6064820152608401610549565b805160005b81811015610f2c576000838281518110610f0557610f056130b8565b60200260200101519050610f198582611a14565b5080610f2481613071565b915050610ee9565b50505050565b610f3b826108b7565b610f4481611724565b6109ad838361176e565b815160005b818110156110b4576000848281518110610f6f57610f6f6130b8565b6020908102919091018101516000818152600b8352604080822054600885528183205460099095529082205488519395506001600160a01b039091169392909190889087908110610fc257610fc26130b8565b60200260200101519050610fd33390565b6001600160a01b0316846001600160a01b03161461104b5760405162461bcd60e51b815260206004820152602f60248201527f455243313135355472616461626c652362617463684d696e743a204f4e4c595f60448201526e10d491505513d497d0531313d5d151608a1b6064820152608401610549565b816110568285612f57565b11156110745760405162461bcd60e51b815260040161054990612f08565b600085815260086020526040812080548392839291611094908490612f57565b9250508190555050505050505080806110ac90613071565b915050610f53565b50610f2c8484846040518060400160405280600381526020016203078360ec1b815250611a4b565b6001600160a01b0381166000908152600a602052604081205460ff161561110557506001610577565b6001600160a01b0380841660009081526003602090815260408083209386168352929052205460ff16610e1a565b6001600160a01b03851633148061114f575061114f85336110dc565b6111ad5760405162461bcd60e51b815260206004820152602960248201527f455243313135353a2063616c6c6572206973206e6f74206f776e6572206e6f7260448201526808185c1c1c9bdd995960ba1b6064820152608401610549565b61098a8585858585611b94565b6001600160a01b0383163314806111d657506111d683336110dc565b6111f25760405162461bcd60e51b815260040161054990612d3f565b6111fd838383611cbe565b6000828152600860205260408120805483929061121b908490612fb0565b90915550506000828152600960205260408120805483929061123e908490612fb0565b9091555050505050565b6112528282610e21565b610b7e576000828152602081815260408083206001600160a01b03851684529091529020805460ff191660011790556112883390565b6001600160a01b0316816001600160a01b0316837f2f8788117e7eff1d82e926ec794901d17c78024a50270940304540a733656f0d60405160405180910390a45050565b6000610e1a836001600160a01b038416611dc8565b60006001600160e01b03198216636cdb3d1360e11b148061131257506001600160e01b031982166303a24d0760e21b145b80610577575061057782611e17565b61132c600033610e21565b61136e5760405162461bcd60e51b81526020600482015260136024820152722aa720aaaa2427a924ad22a22fa1a0a62622a960691b6044820152606401610549565b565b8051610b7e9060049060208401906124a9565b6060600480546113929061300a565b80601f01602080910402602001604051908101604052809291908181526020018280546113be9061300a565b801561140b5780601f106113e05761010080835404028352916020019161140b565b820191906000526020600020905b8154815290600101906020018083116113ee57829003601f168201915b50505050509050919050565b6000818152600b60205260409020546001600160a01b0316338114610b7e5760405162461bcd60e51b815260206004820152601460248201527313d3931657d0d491505513d497d0531313d5d15160621b6044820152606401610549565b6001600160a01b03841661149b5760405162461bcd60e51b815260040161054990612ec7565b3360006114a785611e3c565b905060006114b485611e3c565b90506114c583600089858589611e87565b60008681526002602090815260408083206001600160a01b038b168452909152812080548792906114f7908490612f57565b909155505060408051878152602081018790526001600160a01b03808a1692600092918716916000805160206131c0833981519152910160405180910390a461154583600089898989611e8c565b50505050505050565b60006001600160601b037f0000000000000000000000000000000000000000000000000000000000000000166127106115878285612f91565b610e1a9190612f6f565b81518351146115b25760405162461bcd60e51b815260040161054990612e7f565b6001600160a01b0384166115d85760405162461bcd60e51b815260040161054990612dad565b336115e7818787878787611e87565b60005b84518110156116d0576000858281518110611607576116076130b8565b602002602001015190506000858381518110611625576116256130b8565b60209081029190910181015160008481526002835260408082206001600160a01b038e1683529093529190912054909150818110156116765760405162461bcd60e51b815260040161054990612e35565b60008381526002602090815260408083206001600160a01b038e8116855292528083208585039055908b168252812080548492906116b5908490612f57565b92505081905550505050806116c990613071565b90506115ea565b50846001600160a01b0316866001600160a01b0316826001600160a01b03166000805160206131a0833981519152878760405161170e929190612cb6565b60405180910390a4610801818787878787611ffe565b6105b381336120cf565b6117388282611248565b60008281526001602052604090206109ad90826112cc565b600780546000918261176183613071565b9190505550600754905090565b6117788282612133565b60008281526001602052604090206109ad9082612198565b6001600160a01b0383166117b65760405162461bcd60e51b815260040161054990612df2565b80518251146117d75760405162461bcd60e51b815260040161054990612e7f565b60003390506117fa81856000868660405180602001604052806000815250611e87565b60005b83518110156118c257600084828151811061181a5761181a6130b8565b602002602001015190506000848381518110611838576118386130b8565b60209081029190910181015160008481526002835260408082206001600160a01b038c1683529093529190912054909150818110156118895760405162461bcd60e51b815260040161054990612d69565b60009283526002602090815260408085206001600160a01b038b16865290915290922091039055806118ba81613071565b9150506117fd565b5060006001600160a01b0316846001600160a01b0316826001600160a01b03166000805160206131a08339815191528686604051611901929190612cb6565b60405180910390a4604080516020810190915260009052610f2c565b6000610e1a83836121ad565b816001600160a01b0316836001600160a01b0316141561199d5760405162461bcd60e51b815260206004820152602960248201527f455243313135353a2073657474696e6720617070726f76616c20737461747573604482015268103337b91039b2b63360b91b6064820152608401610549565b6001600160a01b03838116600081815260036020908152604080832094871680845294825291829020805460ff191686151590811790915591519182527f17307eab39ab6107e8899845ad3d59bd9653f200f220920489ca2b5937696c31910160405180910390a3505050565b6000610577825490565b611a1d81611417565b6000908152600b6020526040902080546001600160a01b0319166001600160a01b0392909216919091179055565b6001600160a01b038416611a715760405162461bcd60e51b815260040161054990612ec7565b8151835114611a925760405162461bcd60e51b815260040161054990612e7f565b33611aa281600087878787611e87565b60005b8451811015611b3e57838181518110611ac057611ac06130b8565b602002602001015160026000878481518110611ade57611ade6130b8565b602002602001015181526020019081526020016000206000886001600160a01b03166001600160a01b031681526020019081526020016000206000828254611b269190612f57565b90915550819050611b3681613071565b915050611aa5565b50846001600160a01b031660006001600160a01b0316826001600160a01b03166000805160206131a08339815191528787604051611b7d929190612cb6565b60405180910390a461098a81600087878787611ffe565b6001600160a01b038416611bba5760405162461bcd60e51b815260040161054990612dad565b336000611bc685611e3c565b90506000611bd385611e3c565b9050611be3838989858589611e87565b60008681526002602090815260408083206001600160a01b038c16845290915290205485811015611c265760405162461bcd60e51b815260040161054990612e35565b60008781526002602090815260408083206001600160a01b038d8116855292528083208985039055908a16825281208054889290611c65908490612f57565b909155505060408051888152602081018890526001600160a01b03808b16928c821692918816916000805160206131c0833981519152910160405180910390a4611cb3848a8a8a8a8a611e8c565b505050505050505050565b6001600160a01b038316611ce45760405162461bcd60e51b815260040161054990612df2565b336000611cf084611e3c565b90506000611cfd84611e3c565b9050611d1d83876000858560405180602001604052806000815250611e87565b60008581526002602090815260408083206001600160a01b038a16845290915290205484811015611d605760405162461bcd60e51b815260040161054990612d69565b60008681526002602090815260408083206001600160a01b038b81168086529184528285208a8703905582518b81529384018a90529092908816916000805160206131c0833981519152910160405180910390a4604080516020810190915260009052611545565b6000818152600183016020526040812054611e0f57508154600181810184556000848152602080822090930184905584548482528286019093526040902091909155610577565b506000610577565b60006001600160e01b03198216635a05180f60e01b14806105775750610577826121d7565b60408051600180825281830190925260609160009190602080830190803683370190505090508281600081518110611e7657611e766130b8565b602090810291909101015292915050565b610801565b611e9e846001600160a01b031661220c565b156108015760405163f23a6e6160e01b81526001600160a01b0385169063f23a6e6190611ed79089908990889088908890600401612c5e565b602060405180830381600087803b158015611ef157600080fd5b505af1925050508015611f21575060408051601f3d908101601f19168201909252611f1e91810190612a9d565b60015b611fce57611f2d6130e4565b806308c379a01415611f675750611f42613100565b80611f4d5750611f69565b8060405162461bcd60e51b81526004016105499190612ce4565b505b60405162461bcd60e51b815260206004820152603460248201527f455243313135353a207472616e7366657220746f206e6f6e20455243313135356044820152732932b1b2b4bb32b91034b6b83632b6b2b73a32b960611b6064820152608401610549565b6001600160e01b0319811663f23a6e6160e01b146115455760405162461bcd60e51b815260040161054990612cf7565b612010846001600160a01b031661220c565b156108015760405163bc197c8160e01b81526001600160a01b0385169063bc197c81906120499089908990889088908890600401612c00565b602060405180830381600087803b15801561206357600080fd5b505af1925050508015612093575060408051601f3d908101601f1916820190925261209091810190612a9d565b60015b61209f57611f2d6130e4565b6001600160e01b0319811663bc197c8160e01b146115455760405162461bcd60e51b815260040161054990612cf7565b6120d98282610e21565b610b7e576120f1816001600160a01b0316601461221b565b6120fc83602061221b565b60405160200161210d929190612b91565b60408051601f198184030181529082905262461bcd60e51b825261054991600401612ce4565b61213d8282610e21565b15610b7e576000828152602081815260408083206001600160a01b0385168085529252808320805460ff1916905551339285917ff6391f5c32d9c69d2a47ea670b442974b53935d1edc7fd64eb21e047a839171b9190a45050565b6000610e1a836001600160a01b0384166123b6565b60008260000182815481106121c4576121c46130b8565b9060005260206000200154905092915050565b60006001600160e01b03198216637965db0b60e01b148061057757506301ffc9a760e01b6001600160e01b0319831614610577565b6001600160a01b03163b151590565b6060600061222a836002612f91565b612235906002612f57565b6001600160401b0381111561224c5761224c6130ce565b6040519080825280601f01601f191660200182016040528015612276576020820181803683370190505b509050600360fc1b81600081518110612291576122916130b8565b60200101906001600160f81b031916908160001a905350600f60fb1b816001815181106122c0576122c06130b8565b60200101906001600160f81b031916908160001a90535060006122e4846002612f91565b6122ef906001612f57565b90505b6001811115612367576f181899199a1a9b1b9c1cb0b131b232b360811b85600f1660108110612323576123236130b8565b1a60f81b828281518110612339576123396130b8565b60200101906001600160f81b031916908160001a90535060049490941c9361236081612ff3565b90506122f2565b508315610e1a5760405162461bcd60e51b815260206004820181905260248201527f537472696e67733a20686578206c656e67746820696e73756666696369656e746044820152606401610549565b6000818152600183016020526040812054801561249f5760006123da600183612fb0565b85549091506000906123ee90600190612fb0565b905081811461245357600086600001828154811061240e5761240e6130b8565b9060005260206000200154905080876000018481548110612431576124316130b8565b6000918252602080832090910192909255918252600188019052604090208390555b8554869080612464576124646130a2565b600190038181906000526020600020016000905590558560010160008681526020019081526020016000206000905560019350505050610577565b6000915050610577565b8280546124b59061300a565b90600052602060002090601f0160209004810192826124d7576000855561251d565b82601f106124f057805160ff191683800117855561251d565b8280016001018555821561251d579182015b8281111561251d578251825591602001919060010190612502565b5061252992915061252d565b5090565b5b80821115612529576000815560010161252e565b80356001600160a01b038116811461255957600080fd5b919050565b600082601f83011261256f57600080fd5b8135602061257c82612f34565b6040516125898282613045565b8381528281019150858301600585901b870184018810156125a957600080fd5b60005b858110156125c8578135845292840192908401906001016125ac565b5090979650505050505050565b600082601f8301126125e657600080fd5b81356001600160401b038111156125ff576125ff6130ce565b604051612616601f8301601f191660200182613045565b81815284602083860101111561262b57600080fd5b816020850160208301376000918101602001919091529392505050565b60006020828403121561265a57600080fd5b610e1a82612542565b6000806040838503121561267657600080fd5b61267f83612542565b915061268d60208401612542565b90509250929050565b600080600080600060a086880312156126ae57600080fd5b6126b786612542565b94506126c560208701612542565b935060408601356001600160401b03808211156126e157600080fd5b6126ed89838a0161255e565b9450606088013591508082111561270357600080fd5b61270f89838a0161255e565b9350608088013591508082111561272557600080fd5b50612732888289016125d5565b9150509295509295909350565b600080600080600060a0868803121561275757600080fd5b61276086612542565b945061276e60208701612542565b9350604086013592506060860135915060808601356001600160401b0381111561279757600080fd5b612732888289016125d5565b600080604083850312156127b657600080fd5b6127bf83612542565b915060208301356001600160401b038111156127da57600080fd5b6127e68582860161255e565b9150509250929050565b60008060006060848603121561280557600080fd5b61280e84612542565b925060208401356001600160401b038082111561282a57600080fd5b6128368783880161255e565b9350604086013591508082111561284c57600080fd5b506128598682870161255e565b9150509250925092565b6000806040838503121561287657600080fd5b61287f83612542565b91506020830135801515811461289457600080fd5b809150509250929050565b600080604083850312156128b257600080fd5b6128bb83612542565b946020939093013593505050565b6000806000606084860312156128de57600080fd5b6128e784612542565b95602085013595506040909401359392505050565b6000806000806080858703121561291257600080fd5b61291b85612542565b9350602085013592506040850135915060608501356001600160401b0381111561294457600080fd5b612950878288016125d5565b91505092959194509250565b6000806040838503121561296f57600080fd5b82356001600160401b038082111561298657600080fd5b818501915085601f83011261299a57600080fd5b813560206129a782612f34565b6040516129b48282613045565b8381528281019150858301600585901b870184018b10156129d457600080fd5b600096505b848710156129fe576129ea81612542565b8352600196909601959183019183016129d9565b5096505086013592505080821115612a1557600080fd5b506127e68582860161255e565b600060208284031215612a3457600080fd5b5035919050565b60008060408385031215612a4e57600080fd5b8235915061268d60208401612542565b60008060408385031215612a7157600080fd5b50508035926020909101359150565b600060208284031215612a9257600080fd5b8135610e1a81613189565b600060208284031215612aaf57600080fd5b8151610e1a81613189565b600060208284031215612acc57600080fd5b81356001600160401b03811115612ae257600080fd5b61075f848285016125d5565b60008060408385031215612b0157600080fd5b8235915060208301356001600160401b03811115612b1e57600080fd5b6127e6858286016125d5565b600081518084526020808501945080840160005b83811015612b5a57815187529582019590820190600101612b3e565b509495945050505050565b60008151808452612b7d816020860160208601612fc7565b601f01601f19169290920160200192915050565b76020b1b1b2b9b9a1b7b73a3937b61d1030b1b1b7bab73a1604d1b815260008351612bc3816017850160208801612fc7565b7001034b99036b4b9b9b4b733903937b6329607d1b6017918401918201528351612bf4816028840160208801612fc7565b01602801949350505050565b6001600160a01b0386811682528516602082015260a060408201819052600090612c2c90830186612b2a565b8281036060840152612c3e8186612b2a565b90508281036080840152612c528185612b65565b98975050505050505050565b6001600160a01b03868116825285166020820152604081018490526060810183905260a060808201819052600090612c9890830184612b65565b979650505050505050565b602081526000610e1a6020830184612b2a565b604081526000612cc96040830185612b2a565b8281036020840152612cdb8185612b2a565b95945050505050565b602081526000610e1a6020830184612b65565b60208082526028908201527f455243313135353a204552433131353552656365697665722072656a656374656040820152676420746f6b656e7360c01b606082015260800190565b60208082526010908201526f11549497d393d517d054141493d5915160821b604082015260600190565b60208082526024908201527f455243313135353a206275726e20616d6f756e7420657863656564732062616c604082015263616e636560e01b606082015260800190565b60208082526025908201527f455243313135353a207472616e7366657220746f20746865207a65726f206164604082015264647265737360d81b606082015260800190565b60208082526023908201527f455243313135353a206275726e2066726f6d20746865207a65726f206164647260408201526265737360e81b606082015260800190565b6020808252602a908201527f455243313135353a20696e73756666696369656e742062616c616e636520666f60408201526939103a3930b739b332b960b11b606082015260800190565b60208082526028908201527f455243313135353a2069647320616e6420616d6f756e7473206c656e677468206040820152670dad2e6dac2e8c6d60c31b606082015260800190565b60208082526021908201527f455243313135353a206d696e7420746f20746865207a65726f206164647265736040820152607360f81b606082015260800190565b60208082526012908201527113505617d4d55414131657d4915050d2115160721b604082015260600190565b60006001600160401b03821115612f4d57612f4d6130ce565b5060051b60200190565b60008219821115612f6a57612f6a61308c565b500190565b600082612f8c57634e487b7160e01b600052601260045260246000fd5b500490565b6000816000190483118215151615612fab57612fab61308c565b500290565b600082821015612fc257612fc261308c565b500390565b60005b83811015612fe2578181015183820152602001612fca565b83811115610f2c5750506000910152565b6000816130025761300261308c565b506000190190565b600181811c9082168061301e57607f821691505b6020821081141561303f57634e487b7160e01b600052602260045260246000fd5b50919050565b601f8201601f191681016001600160401b038111828210171561306a5761306a6130ce565b6040525050565b60006000198214156130855761308561308c565b5060010190565b634e487b7160e01b600052601160045260246000fd5b634e487b7160e01b600052603160045260246000fd5b634e487b7160e01b600052603260045260246000fd5b634e487b7160e01b600052604160045260246000fd5b600060033d11156130fd5760046000803e5060005160e01c5b90565b600060443d101561310e5790565b6040516003193d81016004833e81513d6001600160401b03808311602484018310171561313d57505050505090565b82850191508151818111156131555750505050505090565b843d870101602082850101111561316f5750505050505090565b61317e60208286010187613045565b509095945050505050565b6001600160e01b0319811681146105b357600080fdfe4a39dc06d4c0dbc64b70af90fd698a233a518aa5d07e595d983b8c0526c8f7fbc3d58168c5ae7397731d063d5bbf3d657854427343f4c083240f7aacaa2d0f626bb7ff708619ba0610cba295a58592e0451dee2622938c8755667688daf3529ba164736f6c6343000806000aa164736f6c6343000806000a",
  "linkReferences": {},
  "deployedLinkReferences": {}
}