{
  "_format": "hh-sol-artifact-1",
  "contractName": "RC3Staking",
  "sourceName": "contracts/RC3Staking.sol",
  "abi": [
    {
      "inputs": [
        {
          "internalType": "address",
          "name": "_rc3",
          "type": "address"
        },
        {
          "internalType": "address",
          "name": "_rcdy",
          "type": "address"
        },
        {
          "internalType": "uint256",
          "name": "_dailyReward",
          "type": "uint256"
        }
      ],
      "stateMutability": "nonpayable",
      "type": "constructor"
    },
    {
      "anonymous": false,
      "inputs": [
        {
          "indexed": true,
          "internalType": "address",
          "name": "user",
          "type": "address"
        },
        {
          "indexed": false,
          "internalType": "uint256",
          "name": "rewards",
          "type": "uint256"
        }
      ],
      "name": "NewClaim",
      "type": "event"
    },
    {
      "anonymous": false,
      "inputs": [
        {
          "indexed": true,
          "internalType": "address",
          "name": "user",
          "type": "address"
        },
        {
          "indexed": false,
          "internalType": "uint256",
          "name": "tokenId",
          "type": "uint256"
        },
        {
          "indexed": false,
          "internalType": "uint256",
          "name": "timestamp",
          "type": "uint256"
        }
      ],
      "name": "NewStake",
      "type": "event"
    },
    {
      "anonymous": false,
      "inputs": [
        {
          "indexed": true,
          "internalType": "address",
          "name": "user",
          "type": "address"
        },
        {
          "indexed": false,
          "internalType": "uint256",
          "name": "tokenId",
          "type": "uint256"
        },
        {
          "indexed": false,
          "internalType": "uint256",
          "name": "timestamp",
          "type": "uint256"
        }
      ],
      "name": "NewUnstake",
      "type": "event"
    },
    {
      "anonymous": false,
      "inputs": [
        {
          "indexed": true,
          "internalType": "address",
          "name": "previousOwner",
          "type": "address"
        },
        {
          "indexed": true,
          "internalType": "address",
          "name": "newOwner",
          "type": "address"
        }
      ],
      "name": "OwnershipTransferred",
      "type": "event"
    },
    {
      "inputs": [],
      "name": "BLOCKS_PER_DAY",
      "outputs": [
        {
          "internalType": "uint256",
          "name": "",
          "type": "uint256"
        }
      ],
      "stateMutability": "view",
      "type": "function"
    },
    {
      "inputs": [
        {
          "internalType": "uint256",
          "name": "_tokenId",
          "type": "uint256"
        }
      ],
      "name": "claimRCDY",
      "outputs": [
        {
          "internalType": "bool",
          "name": "success",
          "type": "bool"
        }
      ],
      "stateMutability": "nonpayable",
      "type": "function"
    },
    {
      "inputs": [],
      "name": "dailyReward",
      "outputs": [
        {
          "internalType": "uint256",
          "name": "",
          "type": "uint256"
        }
      ],
      "stateMutability": "view",
      "type": "function"
    },
    {
      "inputs": [
        {
          "internalType": "uint256",
          "name": "_tokenId",
          "type": "uint256"
        }
      ],
      "name": "getClaimableRewards",
      "outputs": [
        {
          "internalType": "uint256",
          "name": "claimable",
          "type": "uint256"
        }
      ],
      "stateMutability": "view",
      "type": "function"
    },
    {
      "inputs": [
        {
          "internalType": "uint256",
          "name": "_tokenId",
          "type": "uint256"
        }
      ],
      "name": "getNFTDetail",
      "outputs": [
        {
          "components": [
            {
              "internalType": "address",
              "name": "stakeholder",
              "type": "address"
            },
            {
              "internalType": "uint256",
              "name": "checkpoint",
              "type": "uint256"
            },
            {
              "internalType": "uint256",
              "name": "claimed",
              "type": "uint256"
            }
          ],
          "internalType": "struct RC3Staking.Id",
          "name": "nftDetail",
          "type": "tuple"
        }
      ],
      "stateMutability": "view",
      "type": "function"
    },
    {
      "inputs": [],
      "name": "owner",
      "outputs": [
        {
          "internalType": "address",
          "name": "",
          "type": "address"
        }
      ],
      "stateMutability": "view",
      "type": "function"
    },
    {
      "inputs": [],
      "name": "renounceOwnership",
      "outputs": [],
      "stateMutability": "nonpayable",
      "type": "function"
    },
    {
      "inputs": [
        {
          "internalType": "uint256",
          "name": "_tokenId",
          "type": "uint256"
        }
      ],
      "name": "stakeRC3",
      "outputs": [
        {
          "internalType": "bool",
          "name": "staked",
          "type": "bool"
        }
      ],
      "stateMutability": "nonpayable",
      "type": "function"
    },
    {
      "inputs": [
        {
          "internalType": "address",
          "name": "newOwner",
          "type": "address"
        }
      ],
      "name": "transferOwnership",
      "outputs": [],
      "stateMutability": "nonpayable",
      "type": "function"
    },
    {
      "inputs": [
        {
          "internalType": "uint256",
          "name": "_tokenId",
          "type": "uint256"
        }
      ],
      "name": "unstakeRC3",
      "outputs": [
        {
          "internalType": "bool",
          "name": "unstaked",
          "type": "bool"
        }
      ],
      "stateMutability": "nonpayable",
      "type": "function"
    }
  ],
  "bytecode": "0x60806040523480156200001157600080fd5b50604051620018bf380380620018bf8339818101604052810190620000379190620002a5565b620000576200004b620001ab60201b60201c565b620001b360201b60201c565b60018081905550600073ffffffffffffffffffffffffffffffffffffffff168373ffffffffffffffffffffffffffffffffffffffff1614158015620000c95750600073ffffffffffffffffffffffffffffffffffffffff168273ffffffffffffffffffffffffffffffffffffffff1614155b8015620000d7575060008114155b62000119576040517f08c379a0000000000000000000000000000000000000000000000000000000008152600401620001109062000328565b60405180910390fd5b82600260006101000a81548173ffffffffffffffffffffffffffffffffffffffff021916908373ffffffffffffffffffffffffffffffffffffffff16021790555081600360006101000a81548173ffffffffffffffffffffffffffffffffffffffff021916908373ffffffffffffffffffffffffffffffffffffffff16021790555080600481905550505050620003fb565b600033905090565b60008060009054906101000a900473ffffffffffffffffffffffffffffffffffffffff169050816000806101000a81548173ffffffffffffffffffffffffffffffffffffffff021916908373ffffffffffffffffffffffffffffffffffffffff1602179055508173ffffffffffffffffffffffffffffffffffffffff168173ffffffffffffffffffffffffffffffffffffffff167f8be0079c531659141344cd1fd0a4f28419497f9722a3daafe3b4186f6b6457e060405160405180910390a35050565b6000815190506200028881620003c7565b92915050565b6000815190506200029f81620003e1565b92915050565b600080600060608486031215620002c157620002c062000399565b5b6000620002d18682870162000277565b9350506020620002e48682870162000277565b9250506040620002f7868287016200028e565b9150509250925092565b6000620003106018836200034a565b91506200031d826200039e565b602082019050919050565b60006020820190508181036000830152620003438162000301565b9050919050565b600082825260208201905092915050565b600062000368826200036f565b9050919050565b600073ffffffffffffffffffffffffffffffffffffffff82169050919050565b6000819050919050565b600080fd5b7f43616e6e6f7420696e707574206e756c6c2076616c7565730000000000000000600082015250565b620003d2816200035b565b8114620003de57600080fd5b50565b620003ec816200038f565b8114620003f857600080fd5b50565b6114b4806200040b6000396000f3fe608060405234801561001057600080fd5b506004361061009e5760003560e01c80638da5cb5b116100665780638da5cb5b1461015b578063ae3d515614610179578063c3818500146101a9578063c964ad45146101d9578063f2fde38b146101f75761009e565b80635dff42b0146100a3578063693ebed1146100d35780636bb987fe14610103578063715018a6146101215780637b167dfa1461012b575b600080fd5b6100bd60048036038101906100b89190610e0b565b610213565b6040516100ca9190611012565b60405180910390f35b6100ed60048036038101906100e89190610e0b565b61047b565b6040516100fa9190611012565b60405180910390f35b61010b6106db565b6040516101189190611108565b60405180910390f35b6101296106e1565b005b61014560048036038101906101409190610e0b565b610769565b6040516101529190611108565b60405180910390f35b61016361077b565b6040516101709190610f97565b60405180910390f35b610193600480360381019061018e9190610e0b565b6107a4565b6040516101a09190611012565b60405180910390f35b6101c360048036038101906101be9190610e0b565b610879565b6040516101d091906110ed565b60405180910390f35b6101e1610910565b6040516101ee9190611108565b60405180910390f35b610211600480360381019061020c9190610d84565b610916565b005b60003373ffffffffffffffffffffffffffffffffffffffff16600260009054906101000a900473ffffffffffffffffffffffffffffffffffffffff1673ffffffffffffffffffffffffffffffffffffffff16636352211e846040518263ffffffff1660e01b81526004016102879190611108565b60206040518083038186803b15801561029f57600080fd5b505afa1580156102b3573d6000803e3d6000fd5b505050506040513d601f19601f820116820180604052508101906102d79190610db1565b73ffffffffffffffffffffffffffffffffffffffff161461032d576040517f08c379a00000000000000000000000000000000000000000000000000000000081526004016103249061106d565b60405180910390fd5b600260009054906101000a900473ffffffffffffffffffffffffffffffffffffffff1673ffffffffffffffffffffffffffffffffffffffff166323b872dd3330856040518463ffffffff1660e01b815260040161038c93929190610fb2565b600060405180830381600087803b1580156103a657600080fd5b505af11580156103ba573d6000803e3d6000fd5b505050506000600560008481526020019081526020016000209050338160000160006101000a81548173ffffffffffffffffffffffffffffffffffffffff021916908373ffffffffffffffffffffffffffffffffffffffff1602179055504381600101819055503373ffffffffffffffffffffffffffffffffffffffff167f55595f34fd936311e65eca0a752ee70068b8992fdf64918aff1b6345689c84e48442604051610469929190611123565b60405180910390a26001915050919050565b6000813373ffffffffffffffffffffffffffffffffffffffff166005600083815260200190815260200160002060000160009054906101000a900473ffffffffffffffffffffffffffffffffffffffff1673ffffffffffffffffffffffffffffffffffffffff1614610522576040517f08c379a00000000000000000000000000000000000000000000000000000000081526004016105199061102d565b60405180910390fd5b60026001541415610568576040517f08c379a000000000000000000000000000000000000000000000000000000000815260040161055f906110ad565b60405180910390fd5b600260018190555061057983610a0e565b6000600560008581526020019081526020016000209050600081600201819055506000816001018190555060008160000160006101000a81548173ffffffffffffffffffffffffffffffffffffffff021916908373ffffffffffffffffffffffffffffffffffffffff160217905550600260009054906101000a900473ffffffffffffffffffffffffffffffffffffffff1673ffffffffffffffffffffffffffffffffffffffff166323b872dd3033876040518463ffffffff1660e01b815260040161064793929190610fb2565b600060405180830381600087803b15801561066157600080fd5b505af1158015610675573d6000803e3d6000fd5b505050503373ffffffffffffffffffffffffffffffffffffffff167fd6954c073268a41234627942b1c88cbf53c8bdc07009b12907400074e65d3e9b85426040516106c1929190611123565b60405180910390a260019250506001808190555050919050565b61168081565b6106e9610bcf565b73ffffffffffffffffffffffffffffffffffffffff1661070761077b565b73ffffffffffffffffffffffffffffffffffffffff161461075d576040517f08c379a00000000000000000000000000000000000000000000000000000000081526004016107549061108d565b60405180910390fd5b6107676000610bd7565b565b600061077482610c9b565b9050919050565b60008060009054906101000a900473ffffffffffffffffffffffffffffffffffffffff16905090565b6000813373ffffffffffffffffffffffffffffffffffffffff166005600083815260200190815260200160002060000160009054906101000a900473ffffffffffffffffffffffffffffffffffffffff1673ffffffffffffffffffffffffffffffffffffffff161461084b576040517f08c379a00000000000000000000000000000000000000000000000000000000081526004016108429061102d565b60405180910390fd5b61085483610a0e565b4360056000858152602001908152602001600020600101819055506001915050919050565b610881610cf9565b600560008381526020019081526020016000206040518060600160405290816000820160009054906101000a900473ffffffffffffffffffffffffffffffffffffffff1673ffffffffffffffffffffffffffffffffffffffff1673ffffffffffffffffffffffffffffffffffffffff168152602001600182015481526020016002820154815250509050919050565b60045481565b61091e610bcf565b73ffffffffffffffffffffffffffffffffffffffff1661093c61077b565b73ffffffffffffffffffffffffffffffffffffffff1614610992576040517f08c379a00000000000000000000000000000000000000000000000000000000081526004016109899061108d565b60405180910390fd5b600073ffffffffffffffffffffffffffffffffffffffff168173ffffffffffffffffffffffffffffffffffffffff161415610a02576040517f08c379a00000000000000000000000000000000000000000000000000000000081526004016109f99061104d565b60405180910390fd5b610a0b81610bd7565b50565b600060056000838152602001908152602001600020905060008160010154905080431115610bca576000610a4184610c9b565b90506000811115610bc85780836002016000828254610a60919061115d565b92505081905550600360009054906101000a900473ffffffffffffffffffffffffffffffffffffffff1673ffffffffffffffffffffffffffffffffffffffff1663a9059cbb8460000160009054906101000a900473ffffffffffffffffffffffffffffffffffffffff16836040518363ffffffff1660e01b8152600401610ae8929190610fe9565b602060405180830381600087803b158015610b0257600080fd5b505af1158015610b16573d6000803e3d6000fd5b505050506040513d601f19601f82011682018060405250810190610b3a9190610dde565b610b79576040517f08c379a0000000000000000000000000000000000000000000000000000000008152600401610b70906110cd565b60405180910390fd5b3373ffffffffffffffffffffffffffffffffffffffff167f081144d27d70f1f67f67a65289dde411e1a9511c916d13ee3ff9bf22f169cd9a82604051610bbf9190611108565b60405180910390a25b505b505050565b600033905090565b60008060009054906101000a900473ffffffffffffffffffffffffffffffffffffffff169050816000806101000a81548173ffffffffffffffffffffffffffffffffffffffff021916908373ffffffffffffffffffffffffffffffffffffffff1602179055508173ffffffffffffffffffffffffffffffffffffffff168173ffffffffffffffffffffffffffffffffffffffff167f8be0079c531659141344cd1fd0a4f28419497f9722a3daafe3b4186f6b6457e060405160405180910390a35050565b600080600560008481526020019081526020016000206001015490506000811415610cca576000915050610cf4565b6116806004548243610cdc919061123e565b610ce691906111e4565b610cf091906111b3565b9150505b919050565b6040518060600160405280600073ffffffffffffffffffffffffffffffffffffffff16815260200160008152602001600081525090565b600081359050610d3f81611439565b92915050565b600081519050610d5481611439565b92915050565b600081519050610d6981611450565b92915050565b600081359050610d7e81611467565b92915050565b600060208284031215610d9a57610d99611318565b5b6000610da884828501610d30565b91505092915050565b600060208284031215610dc757610dc6611318565b5b6000610dd584828501610d45565b91505092915050565b600060208284031215610df457610df3611318565b5b6000610e0284828501610d5a565b91505092915050565b600060208284031215610e2157610e20611318565b5b6000610e2f84828501610d6f565b91505092915050565b610e4181611272565b82525050565b610e5081611272565b82525050565b610e5f81611284565b82525050565b6000610e72601c8361114c565b9150610e7d8261131d565b602082019050919050565b6000610e9560268361114c565b9150610ea082611346565b604082019050919050565b6000610eb8601b8361114c565b9150610ec382611395565b602082019050919050565b6000610edb60208361114c565b9150610ee6826113be565b602082019050919050565b6000610efe601f8361114c565b9150610f09826113e7565b602082019050919050565b6000610f2160178361114c565b9150610f2c82611410565b602082019050919050565b606082016000820151610f4d6000850182610e38565b506020820151610f606020850182610f79565b506040820151610f736040850182610f79565b50505050565b610f82816112b0565b82525050565b610f91816112b0565b82525050565b6000602082019050610fac6000830184610e47565b92915050565b6000606082019050610fc76000830186610e47565b610fd46020830185610e47565b610fe16040830184610f88565b949350505050565b6000604082019050610ffe6000830185610e47565b61100b6020830184610f88565b9392505050565b60006020820190506110276000830184610e56565b92915050565b6000602082019050818103600083015261104681610e65565b9050919050565b6000602082019050818103600083015261106681610e88565b9050919050565b6000602082019050818103600083015261108681610eab565b9050919050565b600060208201905081810360008301526110a681610ece565b9050919050565b600060208201905081810360008301526110c681610ef1565b9050919050565b600060208201905081810360008301526110e681610f14565b9050919050565b60006060820190506111026000830184610f37565b92915050565b600060208201905061111d6000830184610f88565b92915050565b60006040820190506111386000830185610f88565b6111456020830184610f88565b9392505050565b600082825260208201905092915050565b6000611168826112b0565b9150611173836112b0565b9250827fffffffffffffffffffffffffffffffffffffffffffffffffffffffffffffffff038211156111a8576111a76112ba565b5b828201905092915050565b60006111be826112b0565b91506111c9836112b0565b9250826111d9576111d86112e9565b5b828204905092915050565b60006111ef826112b0565b91506111fa836112b0565b9250817fffffffffffffffffffffffffffffffffffffffffffffffffffffffffffffffff0483118215151615611233576112326112ba565b5b828202905092915050565b6000611249826112b0565b9150611254836112b0565b925082821015611267576112666112ba565b5b828203905092915050565b600061127d82611290565b9050919050565b60008115159050919050565b600073ffffffffffffffffffffffffffffffffffffffff82169050919050565b6000819050919050565b7f4e487b7100000000000000000000000000000000000000000000000000000000600052601160045260246000fd5b7f4e487b7100000000000000000000000000000000000000000000000000000000600052601260045260246000fd5b600080fd5b7f4f6e6c79207374616b65686f6c6465722063616e20646f207468697300000000600082015250565b7f4f776e61626c653a206e6577206f776e657220697320746865207a65726f206160008201527f6464726573730000000000000000000000000000000000000000000000000000602082015250565b7f596f7520617265206e6f742074686520746f6b656e206f776e65720000000000600082015250565b7f4f776e61626c653a2063616c6c6572206973206e6f7420746865206f776e6572600082015250565b7f5265656e7472616e637947756172643a207265656e7472616e742063616c6c00600082015250565b7f4572726f7220696e20676976696e672072657761726473000000000000000000600082015250565b61144281611272565b811461144d57600080fd5b50565b61145981611284565b811461146457600080fd5b50565b611470816112b0565b811461147b57600080fd5b5056fea26469706673582212207a776e7ad84aefe4be1ee7fd63c322056885edf16af326fba4627b849afa395664736f6c63430008060033",
  "linkReferences": {},
  "deployedLinkReferences": {}
}