{
  "_format": "hh-sol-artifact-1",
  "contractName": "ERC1155Holder",
  "sourceName": "@openzeppelin/contracts/token/ERC1155/utils/ERC1155Holder.sol",
  "abi": [
    {
      "inputs": [
        {
          "internalType": "address",
          "name": "",
          "type": "address"
        },
        {
          "internalType": "address",
          "name": "",
          "type": "address"
        },
        {
          "internalType": "uint256[]",
          "name": "",
          "type": "uint256[]"
        },
        {
          "internalType": "uint256[]",
          "name": "",
          "type": "uint256[]"
        },
        {
          "internalType": "bytes",
          "name": "",
          "type": "bytes"
        }
      ],
      "name": "onERC1155BatchReceived",
      "outputs": [
        {
          "internalType": "bytes4",
          "name": "",
          "type": "bytes4"
        }
      ],
      "stateMutability": "nonpayable",
      "type": "function"
    },
    {
      "inputs": [
        {
          "internalType": "address",
          "name": "",
          "type": "address"
        },
        {
          "internalType": "address",
          "name": "",
          "type": "address"
        },
        {
          "internalType": "uint256",
          "name": "",
          "type": "uint256"
        },
        {
          "internalType": "uint256",
          "name": "",
          "type": "uint256"
        },
        {
          "internalType": "bytes",
          "name": "",
          "type": "bytes"
        }
      ],
      "name": "onERC1155Received",
      "outputs": [
        {
          "internalType": "bytes4",
          "name": "",
          "type": "bytes4"
        }
      ],
      "stateMutability": "nonpayable",
      "type": "function"
    },
    {
      "inputs": [
        {
          "internalType": "bytes4",
          "name": "interfaceId",
          "type": "bytes4"
        }
      ],
      "name": "supportsInterface",
      "outputs": [
        {
          "internalType": "bool",
          "name": "",
          "type": "bool"
        }
      ],
      "stateMutability": "view",
      "type": "function"
    }
  ],
  "bytecode": "0x608060405234801561001057600080fd5b5061039d806100206000396000f3fe608060405234801561001057600080fd5b50600436106100415760003560e01c806301ffc9a714610046578063bc197c811461006e578063f23a6e61146100a6575b600080fd5b610059610054366004610319565b6100c5565b60405190151581526020015b60405180910390f35b61008d61007c36600461020c565b63bc197c8160e01b95945050505050565b6040516001600160e01b03199091168152602001610065565b61008d6100b43660046102b5565b63f23a6e6160e01b95945050505050565b60006001600160e01b03198216630271189760e51b14806100f657506301ffc9a760e01b6001600160e01b03198316145b92915050565b80356001600160a01b038116811461011357600080fd5b919050565b600082601f83011261012957600080fd5b813560206001600160401b038211156101445761014461037a565b8160051b61015382820161034a565b83815282810190868401838801850189101561016e57600080fd5b600093505b85841015610191578035835260019390930192918401918401610173565b50979650505050505050565b600082601f8301126101ae57600080fd5b81356001600160401b038111156101c7576101c761037a565b6101da601f8201601f191660200161034a565b8181528460208386010111156101ef57600080fd5b816020850160208301376000918101602001919091529392505050565b600080600080600060a0868803121561022457600080fd5b61022d866100fc565b945061023b602087016100fc565b935060408601356001600160401b038082111561025757600080fd5b61026389838a01610118565b9450606088013591508082111561027957600080fd5b61028589838a01610118565b9350608088013591508082111561029b57600080fd5b506102a88882890161019d565b9150509295509295909350565b600080600080600060a086880312156102cd57600080fd5b6102d6866100fc565b94506102e4602087016100fc565b9350604086013592506060860135915060808601356001600160401b0381111561030d57600080fd5b6102a88882890161019d565b60006020828403121561032b57600080fd5b81356001600160e01b03198116811461034357600080fd5b9392505050565b604051601f8201601f191681016001600160401b03811182821017156103725761037261037a565b604052919050565b634e487b7160e01b600052604160045260246000fdfea164736f6c6343000806000a",
  "linkReferences": {},
  "deployedLinkReferences": {}
}