{
  "_format": "hh-sol-artifact-1",
  "contractName": "RC3_1155",
  "sourceName": "contracts/RC3_1155.sol",
  "abi": [
    {
      "inputs": [
        {
          "internalType": "string",
          "name": "_name",
          "type": "string"
        },
        {
          "internalType": "string",
          "name": "_symbol",
          "type": "string"
        },
        {
          "internalType": "string",
          "name": "_uri",
          "type": "string"
        },
        {
          "internalType": "uint96",
          "name": "_royalty",
          "type": "uint96"
        }
      ],
      "stateMutability": "nonpayable",
      "type": "constructor"
    },
    {
      "anonymous": false,
      "inputs": [
        {
          "indexed": true,
          "internalType": "address",
          "name": "account",
          "type": "address"
        },
        {
          "indexed": true,
          "internalType": "address",
          "name": "operator",
          "type": "address"
        },
        {
          "indexed": false,
          "internalType": "bool",
          "name": "approved",
          "type": "bool"
        }
      ],
      "name": "ApprovalForAll",
      "type": "event"
    },
    {
      "anonymous": false,
      "inputs": [
        {
          "indexed": false,
          "internalType": "address",
          "name": "admin",
          "type": "address"
        },
        {
          "indexed": true,
          "internalType": "address",
          "name": "market",
          "type": "address"
        },
        {
          "indexed": false,
          "internalType": "bool",
          "name": "ismarket",
          "type": "bool"
        }
      ],
      "name": "MarketUpdated",
      "type": "event"
    },
    {
      "anonymous": false,
      "inputs": [
        {
          "indexed": true,
          "internalType": "address",
          "name": "admin",
          "type": "address"
        },
        {
          "indexed": true,
          "internalType": "uint256",
          "name": "id",
          "type": "uint256"
        },
        {
          "indexed": false,
          "internalType": "uint256",
          "name": "initialSupply",
          "type": "uint256"
        }
      ],
      "name": "NewToken",
      "type": "event"
    },
    {
      "anonymous": false,
      "inputs": [
        {
          "indexed": true,
          "internalType": "bytes32",
          "name": "role",
          "type": "bytes32"
        },
        {
          "indexed": true,
          "internalType": "bytes32",
          "name": "previousAdminRole",
          "type": "bytes32"
        },
        {
          "indexed": true,
          "internalType": "bytes32",
          "name": "newAdminRole",
          "type": "bytes32"
        }
      ],
      "name": "RoleAdminChanged",
      "type": "event"
    },
    {
      "anonymous": false,
      "inputs": [
        {
          "indexed": true,
          "internalType": "bytes32",
          "name": "role",
          "type": "bytes32"
        },
        {
          "indexed": true,
          "internalType": "address",
          "name": "account",
          "type": "address"
        },
        {
          "indexed": true,
          "internalType": "address",
          "name": "sender",
          "type": "address"
        }
      ],
      "name": "RoleGranted",
      "type": "event"
    },
    {
      "anonymous": false,
      "inputs": [
        {
          "indexed": true,
          "internalType": "bytes32",
          "name": "role",
          "type": "bytes32"
        },
        {
          "indexed": true,
          "internalType": "address",
          "name": "account",
          "type": "address"
        },
        {
          "indexed": true,
          "internalType": "address",
          "name": "sender",
          "type": "address"
        }
      ],
      "name": "RoleRevoked",
      "type": "event"
    },
    {
      "anonymous": false,
      "inputs": [
        {
          "indexed": true,
          "internalType": "address",
          "name": "operator",
          "type": "address"
        },
        {
          "indexed": true,
          "internalType": "address",
          "name": "from",
          "type": "address"
        },
        {
          "indexed": true,
          "internalType": "address",
          "name": "to",
          "type": "address"
        },
        {
          "indexed": false,
          "internalType": "uint256[]",
          "name": "ids",
          "type": "uint256[]"
        },
        {
          "indexed": false,
          "internalType": "uint256[]",
          "name": "values",
          "type": "uint256[]"
        }
      ],
      "name": "TransferBatch",
      "type": "event"
    },
    {
      "anonymous": false,
      "inputs": [
        {
          "indexed": true,
          "internalType": "address",
          "name": "operator",
          "type": "address"
        },
        {
          "indexed": true,
          "internalType": "address",
          "name": "from",
          "type": "address"
        },
        {
          "indexed": true,
          "internalType": "address",
          "name": "to",
          "type": "address"
        },
        {
          "indexed": false,
          "internalType": "uint256",
          "name": "id",
          "type": "uint256"
        },
        {
          "indexed": false,
          "internalType": "uint256",
          "name": "value",
          "type": "uint256"
        }
      ],
      "name": "TransferSingle",
      "type": "event"
    },
    {
      "anonymous": false,
      "inputs": [
        {
          "indexed": false,
          "internalType": "string",
          "name": "value",
          "type": "string"
        },
        {
          "indexed": true,
          "internalType": "uint256",
          "name": "id",
          "type": "uint256"
        }
      ],
      "name": "URI",
      "type": "event"
    },
    {
      "inputs": [],
      "name": "DEFAULT_ADMIN_ROLE",
      "outputs": [
        {
          "internalType": "bytes32",
          "name": "",
          "type": "bytes32"
        }
      ],
      "stateMutability": "view",
      "type": "function"
    },
    {
      "inputs": [
        {
          "internalType": "address",
          "name": "account",
          "type": "address"
        },
        {
          "internalType": "uint256",
          "name": "id",
          "type": "uint256"
        }
      ],
      "name": "balanceOf",
      "outputs": [
        {
          "internalType": "uint256",
          "name": "",
          "type": "uint256"
        }
      ],
      "stateMutability": "view",
      "type": "function"
    },
    {
      "inputs": [
        {
          "internalType": "address[]",
          "name": "accounts",
          "type": "address[]"
        },
        {
          "internalType": "uint256[]",
          "name": "ids",
          "type": "uint256[]"
        }
      ],
      "name": "balanceOfBatch",
      "outputs": [
        {
          "internalType": "uint256[]",
          "name": "",
          "type": "uint256[]"
        }
      ],
      "stateMutability": "view",
      "type": "function"
    },
    {
      "inputs": [
        {
          "internalType": "address",
          "name": "from",
          "type": "address"
        },
        {
          "internalType": "uint256",
          "name": "id",
          "type": "uint256"
        },
        {
          "internalType": "uint256",
          "name": "amount",
          "type": "uint256"
        }
      ],
      "name": "burn",
      "outputs": [],
      "stateMutability": "nonpayable",
      "type": "function"
    },
    {
      "inputs": [
        {
          "internalType": "address",
          "name": "from",
          "type": "address"
        },
        {
          "internalType": "uint256[]",
          "name": "ids",
          "type": "uint256[]"
        },
        {
          "internalType": "uint256[]",
          "name": "amounts",
          "type": "uint256[]"
        }
      ],
      "name": "burnBatch",
      "outputs": [],
      "stateMutability": "nonpayable",
      "type": "function"
    },
    {
      "inputs": [
        {
          "internalType": "uint256",
          "name": "price",
          "type": "uint256"
        }
      ],
      "name": "calculateRoyalty",
      "outputs": [
        {
          "internalType": "uint256",
          "name": "",
          "type": "uint256"
        }
      ],
      "stateMutability": "view",
      "type": "function"
    },
    {
      "inputs": [
        {
          "internalType": "address",
          "name": "initialOwner",
          "type": "address"
        },
        {
          "internalType": "uint256",
          "name": "id",
          "type": "uint256"
        },
        {
          "internalType": "uint256",
          "name": "initialSupply",
          "type": "uint256"
        },
        {
          "internalType": "string",
          "name": "_uri",
          "type": "string"
        },
        {
          "internalType": "bytes",
          "name": "data",
          "type": "bytes"
        }
      ],
      "name": "create",
      "outputs": [
        {
          "internalType": "uint256",
          "name": "",
          "type": "uint256"
        }
      ],
      "stateMutability": "nonpayable",
      "type": "function"
    },
    {
      "inputs": [
        {
          "internalType": "uint256",
          "name": "",
          "type": "uint256"
        }
      ],
      "name": "creators",
      "outputs": [
        {
          "internalType": "address",
          "name": "",
          "type": "address"
        }
      ],
      "stateMutability": "view",
      "type": "function"
    },
    {
      "inputs": [
        {
          "internalType": "uint256",
          "name": "id",
          "type": "uint256"
        }
      ],
      "name": "exists",
      "outputs": [
        {
          "internalType": "bool",
          "name": "",
          "type": "bool"
        }
      ],
      "stateMutability": "view",
      "type": "function"
    },
    {
      "inputs": [
        {
          "internalType": "bytes32",
          "name": "role",
          "type": "bytes32"
        }
      ],
      "name": "getRoleAdmin",
      "outputs": [
        {
          "internalType": "bytes32",
          "name": "",
          "type": "bytes32"
        }
      ],
      "stateMutability": "view",
      "type": "function"
    },
    {
      "inputs": [
        {
          "internalType": "bytes32",
          "name": "role",
          "type": "bytes32"
        },
        {
          "internalType": "uint256",
          "name": "index",
          "type": "uint256"
        }
      ],
      "name": "getRoleMember",
      "outputs": [
        {
          "internalType": "address",
          "name": "",
          "type": "address"
        }
      ],
      "stateMutability": "view",
      "type": "function"
    },
    {
      "inputs": [
        {
          "internalType": "bytes32",
          "name": "role",
          "type": "bytes32"
        }
      ],
      "name": "getRoleMemberCount",
      "outputs": [
        {
          "internalType": "uint256",
          "name": "",
          "type": "uint256"
        }
      ],
      "stateMutability": "view",
      "type": "function"
    },
    {
      "inputs": [
        {
          "internalType": "bytes32",
          "name": "role",
          "type": "bytes32"
        },
        {
          "internalType": "address",
          "name": "account",
          "type": "address"
        }
      ],
      "name": "grantRole",
      "outputs": [],
      "stateMutability": "nonpayable",
      "type": "function"
    },
    {
      "inputs": [
        {
          "internalType": "bytes32",
          "name": "role",
          "type": "bytes32"
        },
        {
          "internalType": "address",
          "name": "account",
          "type": "address"
        }
      ],
      "name": "hasRole",
      "outputs": [
        {
          "internalType": "bool",
          "name": "",
          "type": "bool"
        }
      ],
      "stateMutability": "view",
      "type": "function"
    },
    {
      "inputs": [
        {
          "internalType": "address",
          "name": "owner",
          "type": "address"
        },
        {
          "internalType": "address",
          "name": "operator",
          "type": "address"
        }
      ],
      "name": "isApprovedForAll",
      "outputs": [
        {
          "internalType": "bool",
          "name": "isOperator",
          "type": "bool"
        }
      ],
      "stateMutability": "view",
      "type": "function"
    },
    {
      "inputs": [
        {
          "internalType": "address",
          "name": "to",
          "type": "address"
        },
        {
          "internalType": "uint256",
          "name": "id",
          "type": "uint256"
        },
        {
          "internalType": "uint256",
          "name": "amount",
          "type": "uint256"
        },
        {
          "internalType": "bytes",
          "name": "data",
          "type": "bytes"
        }
      ],
      "name": "mint",
      "outputs": [],
      "stateMutability": "nonpayable",
      "type": "function"
    },
    {
      "inputs": [
        {
          "internalType": "address",
          "name": "to",
          "type": "address"
        },
        {
          "internalType": "uint256[]",
          "name": "ids",
          "type": "uint256[]"
        },
        {
          "internalType": "uint256[]",
          "name": "amounts",
          "type": "uint256[]"
        },
        {
          "internalType": "bytes",
          "name": "data",
          "type": "bytes"
        }
      ],
      "name": "mintBatch",
      "outputs": [],
      "stateMutability": "nonpayable",
      "type": "function"
    },
    {
      "inputs": [],
      "name": "name",
      "outputs": [
        {
          "internalType": "string",
          "name": "",
          "type": "string"
        }
      ],
      "stateMutability": "view",
      "type": "function"
    },
    {
      "inputs": [
        {
          "internalType": "bytes32",
          "name": "role",
          "type": "bytes32"
        },
        {
          "internalType": "address",
          "name": "account",
          "type": "address"
        }
      ],
      "name": "renounceRole",
      "outputs": [],
      "stateMutability": "nonpayable",
      "type": "function"
    },
    {
      "inputs": [
        {
          "internalType": "bytes32",
          "name": "role",
          "type": "bytes32"
        },
        {
          "internalType": "address",
          "name": "account",
          "type": "address"
        }
      ],
      "name": "revokeRole",
      "outputs": [],
      "stateMutability": "nonpayable",
      "type": "function"
    },
    {
      "inputs": [],
      "name": "royalty",
      "outputs": [
        {
          "internalType": "uint96",
          "name": "",
          "type": "uint96"
        }
      ],
      "stateMutability": "view",
      "type": "function"
    },
    {
      "inputs": [
        {
          "internalType": "uint256",
          "name": "id",
          "type": "uint256"
        },
        {
          "internalType": "uint256",
          "name": "price",
          "type": "uint256"
        }
      ],
      "name": "royaltyInfo",
      "outputs": [
        {
          "internalType": "address",
          "name": "",
          "type": "address"
        },
        {
          "internalType": "uint256",
          "name": "",
          "type": "uint256"
        }
      ],
      "stateMutability": "view",
      "type": "function"
    },
    {
      "inputs": [
        {
          "internalType": "address",
          "name": "from",
          "type": "address"
        },
        {
          "internalType": "address",
          "name": "to",
          "type": "address"
        },
        {
          "internalType": "uint256[]",
          "name": "ids",
          "type": "uint256[]"
        },
        {
          "internalType": "uint256[]",
          "name": "amounts",
          "type": "uint256[]"
        },
        {
          "internalType": "bytes",
          "name": "data",
          "type": "bytes"
        }
      ],
      "name": "safeBatchTransferFrom",
      "outputs": [],
      "stateMutability": "nonpayable",
      "type": "function"
    },
    {
      "inputs": [
        {
          "internalType": "address",
          "name": "from",
          "type": "address"
        },
        {
          "internalType": "address",
          "name": "to",
          "type": "address"
        },
        {
          "internalType": "uint256",
          "name": "id",
          "type": "uint256"
        },
        {
          "internalType": "uint256",
          "name": "amount",
          "type": "uint256"
        },
        {
          "internalType": "bytes",
          "name": "data",
          "type": "bytes"
        }
      ],
      "name": "safeTransferFrom",
      "outputs": [],
      "stateMutability": "nonpayable",
      "type": "function"
    },
    {
      "inputs": [
        {
          "internalType": "address",
          "name": "operator",
          "type": "address"
        },
        {
          "internalType": "bool",
          "name": "approved",
          "type": "bool"
        }
      ],
      "name": "setApprovalForAll",
      "outputs": [],
      "stateMutability": "nonpayable",
      "type": "function"
    },
    {
      "inputs": [
        {
          "internalType": "address",
          "name": "to",
          "type": "address"
        },
        {
          "internalType": "uint256[]",
          "name": "ids",
          "type": "uint256[]"
        }
      ],
      "name": "setCreator",
      "outputs": [],
      "stateMutability": "nonpayable",
      "type": "function"
    },
    {
      "inputs": [
        {
          "internalType": "uint256",
          "name": "_tokenId",
          "type": "uint256"
        },
        {
          "internalType": "string",
          "name": "_newURI",
          "type": "string"
        }
      ],
      "name": "setCustomURI",
      "outputs": [],
      "stateMutability": "nonpayable",
      "type": "function"
    },
    {
      "inputs": [
        {
          "internalType": "string",
          "name": "_newURI",
          "type": "string"
        }
      ],
      "name": "setURI",
      "outputs": [],
      "stateMutability": "nonpayable",
      "type": "function"
    },
    {
      "inputs": [
        {
          "internalType": "bytes4",
          "name": "interfaceId",
          "type": "bytes4"
        }
      ],
      "name": "supportsInterface",
      "outputs": [
        {
          "internalType": "bool",
          "name": "",
          "type": "bool"
        }
      ],
      "stateMutability": "view",
      "type": "function"
    },
    {
      "inputs": [],
      "name": "symbol",
      "outputs": [
        {
          "internalType": "string",
          "name": "",
          "type": "string"
        }
      ],
      "stateMutability": "view",
      "type": "function"
    },
    {
      "inputs": [
        {
          "internalType": "uint256",
          "name": "id",
          "type": "uint256"
        }
      ],
      "name": "totalSupply",
      "outputs": [
        {
          "internalType": "uint256",
          "name": "",
          "type": "uint256"
        }
      ],
      "stateMutability": "view",
      "type": "function"
    },
    {
      "inputs": [
        {
          "internalType": "address",
          "name": "market",
          "type": "address"
        },
        {
          "internalType": "bool",
          "name": "isMarket",
          "type": "bool"
        }
      ],
      "name": "updateMarket",
      "outputs": [],
      "stateMutability": "nonpayable",
      "type": "function"
    },
    {
      "inputs": [
        {
          "internalType": "uint256",
          "name": "_id",
          "type": "uint256"
        }
      ],
      "name": "uri",
      "outputs": [
        {
          "internalType": "string",
          "name": "",
          "type": "string"
        }
      ],
      "stateMutability": "view",
      "type": "function"
    }
  ],
  "bytecode": "0x60806040523480156200001157600080fd5b506040516200378438038062003784833981016040819052620000349162000377565b816200004081620000a6565b508351620000569060059060208701906200021a565b5082516200006c9060069060208601906200021a565b50600780546001600160601b0319166001600160601b0383161790556200009c6000620000963390565b620000bf565b505050506200047d565b8051620000bb9060049060208401906200021a565b5050565b620000bb8282620000dc82826200010860201b620012601760201c565b600082815260016020908152604090912062000103918390620012e4620001a8821b17901c565b505050565b6000828152602081815260408083206001600160a01b038516845290915290205460ff16620000bb576000828152602081815260408083206001600160a01b03851684529091529020805460ff19166001179055620001643390565b6001600160a01b0316816001600160a01b0316837f2f8788117e7eff1d82e926ec794901d17c78024a50270940304540a733656f0d60405160405180910390a45050565b6000620001bf836001600160a01b038416620001c8565b90505b92915050565b60008181526001830160205260408120546200021157508154600181810184556000848152602080822090930184905584548482528286019093526040902091909155620001c2565b506000620001c2565b82805462000228906200042a565b90600052602060002090601f0160209004810192826200024c576000855562000297565b82601f106200026757805160ff191683800117855562000297565b8280016001018555821562000297579182015b82811115620002975782518255916020019190600101906200027a565b50620002a5929150620002a9565b5090565b5b80821115620002a55760008155600101620002aa565b600082601f830112620002d257600080fd5b81516001600160401b0380821115620002ef57620002ef62000467565b604051601f8301601f19908116603f011681019082821181831017156200031a576200031a62000467565b816040528381526020925086838588010111156200033757600080fd5b600091505b838210156200035b57858201830151818301840152908201906200033c565b838211156200036d5760008385830101525b9695505050505050565b600080600080608085870312156200038e57600080fd5b84516001600160401b0380821115620003a657600080fd5b620003b488838901620002c0565b95506020870151915080821115620003cb57600080fd5b620003d988838901620002c0565b94506040870151915080821115620003f057600080fd5b50620003ff87828801620002c0565b606087015190935090506001600160601b03811681146200041f57600080fd5b939692955090935050565b600181811c908216806200043f57607f821691505b602082108114156200046157634e487b7160e01b600052602260045260246000fd5b50919050565b634e487b7160e01b600052604160045260246000fd5b6132f7806200048d6000396000f3fe608060405234801561001057600080fd5b506004361061018a5760003560e01c8062fdd58e1461018f57806301ffc9a7146101b557806302fe5305146101d857806306fdde03146101ed5780630e89341c146102025780631f7fdffa14610215578063248a9ca31461022857806329ee566c1461023b5780632a55205a146102665780632eb2c2d6146102985780632f2ff15d146102ab57806336568abe146102be57806336a100d5146102d15780633adf80b4146102e45780634e1273f4146102f75780634f558e79146103175780636b20c4541461032a578063731133e91461033d5780639010d07c1461035057806391d148541461037b57806395d89b411461038e578063a217fddf14610396578063a22cb4651461039e578063a28cf93c146103b1578063a2e69613146103c4578063bd85b039146103d7578063ca15c873146103f7578063cd53d08e1461040a578063d2a6b51a14610433578063d547741f14610446578063e985e9c514610459578063f242432a1461046c578063f5298aca1461047f575b600080fd5b6101a261019d3660046128eb565b610492565b6040519081526020015b60405180910390f35b6101c86101c3366004612b17565b61052e565b60405190151581526020016101ac565b6101eb6101e6366004612b51565b610539565b005b6101f561056c565b6040516101ac9190612d83565b6101f5610210366004612ab9565b6105fa565b6101eb610223366004612817565b6107b8565b6101a2610236366004612ab9565b6108da565b60075461024e906001600160601b031681565b6040516001600160601b0390911681526020016101ac565b610279610274366004612af5565b6108ef565b604080516001600160a01b0390931683526020830191909152016101ac565b6101eb6102a636600461264a565b61091d565b6101eb6102b9366004612ad2565b6109ad565b6101eb6102cc366004612ad2565b6109cf565b6101a26102df36600461299c565b610a4d565b6101eb6102f2366004612b8d565b610be4565b61030a6103053660046129f3565b610c67565b6040516101ac9190612d42565b6101c8610325366004612ab9565b610d90565b6101eb6103383660046127a4565b610da4565b6101eb61034b366004612948565b610e6f565b61036361035e366004612af5565b610edd565b6040516001600160a01b0390911681526020016101ac565b6101c8610389366004612ad2565b610ef5565b6101f5610f1e565b6101a2600081565b6101eb6103ac3660046128af565b610f2b565b6101eb6103bf3660046128af565b610f36565b6101a26103d2366004612ab9565b611005565b6101a26103e5366004612ab9565b60009081526008602052604090205490565b6101a2610405366004612ab9565b61102a565b610363610418366004612ab9565b600a602052600090815260409020546001600160a01b031681565b6101eb610441366004612757565b611041565b6101eb610454366004612ad2565b6110fa565b6101c8610467366004612617565b611117565b6101eb61047a3660046126f3565b61116e565b6101eb61048d366004612915565b6111f5565b60006001600160a01b0383166105035760405162461bcd60e51b815260206004820152602b60248201527f455243313135353a2062616c616e636520717565727920666f7220746865207a60448201526a65726f206164647265737360a81b60648201526084015b60405180910390fd5b5060008181526002602090815260408083206001600160a01b03861684529091529020545b92915050565b6000610528826112f9565b610544600033610ef5565b6105605760405162461bcd60e51b81526004016104fa90612ff8565b61056981611339565b50565b60058054610579906130fb565b80601f01602080910402602001604051908101604052809291908181526020018280546105a5906130fb565b80156105f25780601f106105c7576101008083540402835291602001916105f2565b820191906000526020600020905b8154815290600101906020018083116105d557829003601f168201915b505050505081565b606061060582610d90565b6106605760405162461bcd60e51b815260206004820152602660248201527f455243313135355472616461626c65237572693a204e4f4e4558495354454e546044820152652faa27a5a2a760d11b60648201526084016104fa565b6000828152600b602052604081208054610679906130fb565b80601f01602080910402602001604051908101604052809291908181526020018280546106a5906130fb565b80156106f25780601f106106c7576101008083540402835291602001916106f2565b820191906000526020600020905b8154815290600101906020018083116106d557829003601f168201915b505050505090506000815111156107a2576000838152600b60205260409020805461071c906130fb565b80601f0160208091040260200160405190810160405280929190818152602001828054610748906130fb565b80156107955780601f1061076a57610100808354040283529160200191610795565b820191906000526020600020905b81548152906001019060200180831161077857829003601f168201915b5050505050915050919050565b6107ab8361134c565b9392505050565b50919050565b825160005b818110156108c65760008582815181106107d9576107d96131a3565b6020908102919091018101516000818152600a9092526040909120549091506001600160a01b03163381146108685760405162461bcd60e51b815260206004820152602f60248201527f455243313135355472616461626c652362617463684d696e743a204f4e4c595f60448201526e10d491505513d497d0531313d5d151608a1b60648201526084016104fa565b600086848151811061087c5761087c6131a3565b60200260200101519050806008600085815260200190815260200160002060008282546108a99190613048565b9250508190555050505080806108be9061315c565b9150506107bd565b506108d3858585856113e0565b5050505050565b60009081526020819052604090206001015490565b6000828152600a602052604081205481906001600160a01b031661091284611005565b915091509250929050565b6001600160a01b03851633148061093957506109398533611117565b6109a05760405162461bcd60e51b815260206004820152603260248201527f455243313135353a207472616e736665722063616c6c6572206973206e6f74206044820152711bdddb995c881b9bdc88185c1c1c9bdd995960721b60648201526084016104fa565b6108d38585858585611529565b6109b6826108da565b6109c081336116c4565b6109ca8383611728565b505050565b6001600160a01b0381163314610a3f5760405162461bcd60e51b815260206004820152602f60248201527f416363657373436f6e74726f6c3a2063616e206f6e6c792072656e6f756e636560448201526e103937b632b9903337b91039b2b63360891b60648201526084016104fa565b610a49828261174a565b5050565b6000610a598133610ef5565b610a755760405162461bcd60e51b81526004016104fa90612ff8565b610a7e85610d90565b15610ac65760405162461bcd60e51b8152602060048201526018602482015277746f6b656e205f696420616c72656164792065786973747360401b60448201526064016104fa565b6000858152600a6020526040902080546001600160a01b03191633179055825115610b32576000858152600b602090815260409091208451610b0a92860190612478565b50846000805160206132cb83398151915284604051610b299190612d83565b60405180910390a25b8315610ba3576001600160a01b038616610b865760405162461bcd60e51b815260206004820152601560248201527424a72b20a624a22fa4a724aa24a0a62fa7aba722a960591b60448201526064016104fa565b6000858152600860205260409020849055610ba38686868561176c565b604051848152859033907fbc7d7d143abd25a4c46468a8dc71a9fc8c12d3f5969c388d86dce39f1507a8569060200160405180910390a35092949350505050565b6000828152600a602052604090205482906001600160a01b03163314610c1c5760405162461bcd60e51b81526004016104fa90612fa7565b6000838152600b602090815260409091208351610c3b92850190612478565b50826000805160206132cb83398151915283604051610c5a9190612d83565b60405180910390a2505050565b60608151835114610ccc5760405162461bcd60e51b815260206004820152602960248201527f455243313135353a206163636f756e747320616e6420696473206c656e677468604482015268040dad2e6dac2e8c6d60bb1b60648201526084016104fa565b600083516001600160401b03811115610ce757610ce76131b9565b604051908082528060200260200182016040528015610d10578160200160208202803683370190505b50905060005b8451811015610d8857610d5b858281518110610d3457610d346131a3565b6020026020010151858381518110610d4e57610d4e6131a3565b6020026020010151610492565b828281518110610d6d57610d6d6131a3565b6020908102919091010152610d818161315c565b9050610d16565b509392505050565b600090815260086020526040902054151590565b6001600160a01b038316331480610dc05750610dc08333611117565b610ddc5760405162461bcd60e51b81526004016104fa90612dde565b610de7838383611832565b815160005b818110156108d3576000848281518110610e0857610e086131a3565b602002602001015190506000848381518110610e2657610e266131a3565b6020026020010151905080600860008481526020019081526020016000206000828254610e5391906130a1565b9250508190555050508080610e679061315c565b915050610dec565b6000838152600a602052604090205483906001600160a01b03163314610ea75760405162461bcd60e51b81526004016104fa90612fa7565b610eb38585858561176c565b60008481526008602052604081208054859290610ed1908490613048565b90915550505050505050565b60008281526001602052604081206107ab90836119b1565b6000918252602082815260408084206001600160a01b0393909316845291905290205460ff1690565b60068054610579906130fb565b610a493383836119bd565b610f41600033610ef5565b610f5d5760405162461bcd60e51b81526004016104fa90612ff8565b6001600160a01b038216610fa25760405162461bcd60e51b815260206004820152600c60248201526b5a45524f5f4144445245535360a01b60448201526064016104fa565b6001600160a01b038216600081815260096020908152604091829020805460ff19168515159081179091558251338152918201527f9e2bd848ed96e551d65a5248c15480b97b14b10a342c4194fe315d1e8a24fe84910160405180910390a25050565b6007546000906001600160601b031661102061271084613060565b6105289190613082565b600081815260016020526040812061052890611a9e565b6001600160a01b0382166110ac5760405162461bcd60e51b815260206004820152602c60248201527f455243313135355472616461626c652373657443726561746f723a20494e564160448201526b2624a22fa0a2222922a9a99760a11b60648201526084016104fa565b805160005b818110156110f45760008382815181106110cd576110cd6131a3565b602002602001015190506110e18582611aa8565b50806110ec8161315c565b9150506110b1565b50505050565b611103826108da565b61110d81336116c4565b6109ca838361174a565b6001600160a01b03811660009081526009602052604081205460ff161561114057506001610528565b6001600160a01b0380841660009081526003602090815260408083209386168352929052205460ff166107ab565b6001600160a01b03851633148061118a575061118a8533611117565b6111e85760405162461bcd60e51b815260206004820152602960248201527f455243313135353a2063616c6c6572206973206e6f74206f776e6572206e6f7260448201526808185c1c1c9bdd995960ba1b60648201526084016104fa565b6108d38585858585611b0f565b6001600160a01b03831633148061121157506112118333611117565b61122d5760405162461bcd60e51b81526004016104fa90612dde565b611238838383611c1e565b600082815260086020526040812080548392906112569084906130a1565b9091555050505050565b61126a8282610ef5565b610a49576000828152602081815260408083206001600160a01b03851684529091529020805460ff191660011790556112a03390565b6001600160a01b0316816001600160a01b0316837f2f8788117e7eff1d82e926ec794901d17c78024a50270940304540a733656f0d60405160405180910390a45050565b60006107ab836001600160a01b038416611d11565b60006001600160e01b03198216636cdb3d1360e11b148061132a57506001600160e01b031982166303a24d0760e21b145b80610528575061052882611d60565b8051610a49906004906020840190612478565b60606004805461135b906130fb565b80601f0160208091040260200160405190810160405280929190818152602001828054611387906130fb565b80156113d45780601f106113a9576101008083540402835291602001916113d4565b820191906000526020600020905b8154815290600101906020018083116113b757829003601f168201915b50505050509050919050565b6001600160a01b0384166114065760405162461bcd60e51b81526004016104fa90612f66565b81518351146114275760405162461bcd60e51b81526004016104fa90612f1e565b3361143781600087878787611d85565b60005b84518110156114d357838181518110611455576114556131a3565b602002602001015160026000878481518110611473576114736131a3565b602002602001015181526020019081526020016000206000886001600160a01b03166001600160a01b0316815260200190815260200160002060008282546114bb9190613048565b909155508190506114cb8161315c565b91505061143a565b50846001600160a01b031660006001600160a01b0316826001600160a01b031660008051602061328b8339815191528787604051611512929190612d55565b60405180910390a46108d381600087878787611e91565b815183511461154a5760405162461bcd60e51b81526004016104fa90612f1e565b6001600160a01b0384166115705760405162461bcd60e51b81526004016104fa90612e4c565b3361157f818787878787611d85565b60005b845181101561166857600085828151811061159f5761159f6131a3565b6020026020010151905060008583815181106115bd576115bd6131a3565b60209081029190910181015160008481526002835260408082206001600160a01b038e16835290935291909120549091508181101561160e5760405162461bcd60e51b81526004016104fa90612ed4565b60008381526002602090815260408083206001600160a01b038e8116855292528083208585039055908b1682528120805484929061164d908490613048565b92505081905550505050806116619061315c565b9050611582565b50846001600160a01b0316866001600160a01b0316826001600160a01b031660008051602061328b83398151915287876040516116a6929190612d55565b60405180910390a46116bc818787878787611e91565b505050505050565b6116ce8282610ef5565b610a49576116e6816001600160a01b03166014611ffc565b6116f1836020611ffc565b604051602001611702929190612c30565b60408051601f198184030181529082905262461bcd60e51b82526104fa91600401612d83565b6117328282611260565b60008281526001602052604090206109ca90826112e4565b6117548282612197565b60008281526001602052604090206109ca90826121fc565b6001600160a01b0384166117925760405162461bcd60e51b81526004016104fa90612f66565b336117b2816000876117a388612211565b6117ac88612211565b87611d85565b60008481526002602090815260408083206001600160a01b0389168452909152812080548592906117e4908490613048565b909155505060408051858152602081018590526001600160a01b0380881692600092918516916000805160206132ab833981519152910160405180910390a46108d38160008787878761225c565b6001600160a01b0383166118585760405162461bcd60e51b81526004016104fa90612e91565b80518251146118795760405162461bcd60e51b81526004016104fa90612f1e565b600033905061189c81856000868660405180602001604052806000815250611d85565b60005b83518110156119645760008482815181106118bc576118bc6131a3565b6020026020010151905060008483815181106118da576118da6131a3565b60209081029190910181015160008481526002835260408082206001600160a01b038c16835290935291909120549091508181101561192b5760405162461bcd60e51b81526004016104fa90612e08565b60009283526002602090815260408085206001600160a01b038b168652909152909220910390558061195c8161315c565b91505061189f565b5060006001600160a01b0316846001600160a01b0316826001600160a01b031660008051602061328b83398151915286866040516119a3929190612d55565b60405180910390a450505050565b60006107ab8383612326565b816001600160a01b0316836001600160a01b03161415611a315760405162461bcd60e51b815260206004820152602960248201527f455243313135353a2073657474696e6720617070726f76616c20737461747573604482015268103337b91039b2b63360b91b60648201526084016104fa565b6001600160a01b03838116600081815260036020908152604080832094871680845294825291829020805460ff191686151590811790915591519182527f17307eab39ab6107e8899845ad3d59bd9653f200f220920489ca2b5937696c31910160405180910390a3505050565b6000610528825490565b6000818152600a602052604090205481906001600160a01b03163314611ae05760405162461bcd60e51b81526004016104fa90612fa7565b506000908152600a6020526040902080546001600160a01b0319166001600160a01b0392909216919091179055565b6001600160a01b038416611b355760405162461bcd60e51b81526004016104fa90612e4c565b33611b458187876117a388612211565b60008481526002602090815260408083206001600160a01b038a16845290915290205483811015611b885760405162461bcd60e51b81526004016104fa90612ed4565b60008581526002602090815260408083206001600160a01b038b8116855292528083208785039055908816825281208054869290611bc7908490613048565b909155505060408051868152602081018690526001600160a01b03808916928a821692918616916000805160206132ab833981519152910160405180910390a4611c1582888888888861225c565b50505050505050565b6001600160a01b038316611c445760405162461bcd60e51b81526004016104fa90612e91565b33611c7381856000611c5587612211565b611c5e87612211565b60405180602001604052806000815250611d85565b60008381526002602090815260408083206001600160a01b038816845290915290205482811015611cb65760405162461bcd60e51b81526004016104fa90612e08565b60008481526002602090815260408083206001600160a01b03898116808652918452828520888703905582518981529384018890529092908616916000805160206132ab833981519152910160405180910390a45050505050565b6000818152600183016020526040812054611d5857508154600181810184556000848152602080822090930184905584548482528286019093526040902091909155610528565b506000610528565b60006001600160e01b03198216635a05180f60e01b1480610528575061052882612350565b6001600160a01b038516611e0c5760005b8351811015611e0a57828181518110611db157611db16131a3565b602002602001015160086000868481518110611dcf57611dcf6131a3565b602002602001015181526020019081526020016000206000828254611df49190613048565b90915550611e0390508161315c565b9050611d96565b505b6001600160a01b0384166116bc5760005b8351811015611c1557828181518110611e3857611e386131a3565b602002602001015160086000868481518110611e5657611e566131a3565b602002602001015181526020019081526020016000206000828254611e7b91906130a1565b90915550611e8a90508161315c565b9050611e1d565b6001600160a01b0384163b156116bc5760405163bc197c8160e01b81526001600160a01b0385169063bc197c8190611ed59089908990889088908890600401612c9f565b602060405180830381600087803b158015611eef57600080fd5b505af1925050508015611f1f575060408051601f3d908101601f19168201909252611f1c91810190612b34565b60015b611fcc57611f2b6131cf565b806308c379a01415611f655750611f406131eb565b80611f4b5750611f67565b8060405162461bcd60e51b81526004016104fa9190612d83565b505b60405162461bcd60e51b815260206004820152603460248201527f455243313135353a207472616e7366657220746f206e6f6e20455243313135356044820152732932b1b2b4bb32b91034b6b83632b6b2b73a32b960611b60648201526084016104fa565b6001600160e01b0319811663bc197c8160e01b14611c155760405162461bcd60e51b81526004016104fa90612d96565b6060600061200b836002613082565b612016906002613048565b6001600160401b0381111561202d5761202d6131b9565b6040519080825280601f01601f191660200182016040528015612057576020820181803683370190505b509050600360fc1b81600081518110612072576120726131a3565b60200101906001600160f81b031916908160001a905350600f60fb1b816001815181106120a1576120a16131a3565b60200101906001600160f81b031916908160001a90535060006120c5846002613082565b6120d0906001613048565b90505b6001811115612148576f181899199a1a9b1b9c1cb0b131b232b360811b85600f1660108110612104576121046131a3565b1a60f81b82828151811061211a5761211a6131a3565b60200101906001600160f81b031916908160001a90535060049490941c93612141816130e4565b90506120d3565b5083156107ab5760405162461bcd60e51b815260206004820181905260248201527f537472696e67733a20686578206c656e67746820696e73756666696369656e7460448201526064016104fa565b6121a18282610ef5565b15610a49576000828152602081815260408083206001600160a01b0385168085529252808320805460ff1916905551339285917ff6391f5c32d9c69d2a47ea670b442974b53935d1edc7fd64eb21e047a839171b9190a45050565b60006107ab836001600160a01b038416612385565b6040805160018082528183019092526060916000919060208083019080368337019050509050828160008151811061224b5761224b6131a3565b602090810291909101015292915050565b6001600160a01b0384163b156116bc5760405163f23a6e6160e01b81526001600160a01b0385169063f23a6e61906122a09089908990889088908890600401612cfd565b602060405180830381600087803b1580156122ba57600080fd5b505af19250505080156122ea575060408051601f3d908101601f191682019092526122e791810190612b34565b60015b6122f657611f2b6131cf565b6001600160e01b0319811663f23a6e6160e01b14611c155760405162461bcd60e51b81526004016104fa90612d96565b600082600001828154811061233d5761233d6131a3565b9060005260206000200154905092915050565b60006001600160e01b03198216637965db0b60e01b148061052857506301ffc9a760e01b6001600160e01b0319831614610528565b6000818152600183016020526040812054801561246e5760006123a96001836130a1565b85549091506000906123bd906001906130a1565b90508181146124225760008660000182815481106123dd576123dd6131a3565b9060005260206000200154905080876000018481548110612400576124006131a3565b6000918252602080832090910192909255918252600188019052604090208390555b85548690806124335761243361318d565b600190038181906000526020600020016000905590558560010160008681526020019081526020016000206000905560019350505050610528565b6000915050610528565b828054612484906130fb565b90600052602060002090601f0160209004810192826124a657600085556124ec565b82601f106124bf57805160ff19168380011785556124ec565b828001600101855582156124ec579182015b828111156124ec5782518255916020019190600101906124d1565b506124f89291506124fc565b5090565b5b808211156124f857600081556001016124fd565b80356001600160a01b038116811461252857600080fd5b919050565b600082601f83011261253e57600080fd5b8135602061254b82613025565b6040516125588282613130565b8381528281019150858301600585901b8701840188101561257857600080fd5b60005b858110156125975781358452928401929084019060010161257b565b5090979650505050505050565b600082601f8301126125b557600080fd5b81356001600160401b038111156125ce576125ce6131b9565b6040516125e5601f8301601f191660200182613130565b8181528460208386010111156125fa57600080fd5b816020850160208301376000918101602001919091529392505050565b6000806040838503121561262a57600080fd5b61263383612511565b915061264160208401612511565b90509250929050565b600080600080600060a0868803121561266257600080fd5b61266b86612511565b945061267960208701612511565b935060408601356001600160401b038082111561269557600080fd5b6126a189838a0161252d565b945060608801359150808211156126b757600080fd5b6126c389838a0161252d565b935060808801359150808211156126d957600080fd5b506126e6888289016125a4565b9150509295509295909350565b600080600080600060a0868803121561270b57600080fd5b61271486612511565b945061272260208701612511565b9350604086013592506060860135915060808601356001600160401b0381111561274b57600080fd5b6126e6888289016125a4565b6000806040838503121561276a57600080fd5b61277383612511565b915060208301356001600160401b0381111561278e57600080fd5b61279a8582860161252d565b9150509250929050565b6000806000606084860312156127b957600080fd5b6127c284612511565b925060208401356001600160401b03808211156127de57600080fd5b6127ea8783880161252d565b9350604086013591508082111561280057600080fd5b5061280d8682870161252d565b9150509250925092565b6000806000806080858703121561282d57600080fd5b61283685612511565b935060208501356001600160401b038082111561285257600080fd5b61285e8883890161252d565b9450604087013591508082111561287457600080fd5b6128808883890161252d565b9350606087013591508082111561289657600080fd5b506128a3878288016125a4565b91505092959194509250565b600080604083850312156128c257600080fd5b6128cb83612511565b9150602083013580151581146128e057600080fd5b809150509250929050565b600080604083850312156128fe57600080fd5b61290783612511565b946020939093013593505050565b60008060006060848603121561292a57600080fd5b61293384612511565b95602085013595506040909401359392505050565b6000806000806080858703121561295e57600080fd5b61296785612511565b9350602085013592506040850135915060608501356001600160401b0381111561299057600080fd5b6128a3878288016125a4565b600080600080600060a086880312156129b457600080fd5b6129bd86612511565b9450602086013593506040860135925060608601356001600160401b03808211156129e757600080fd5b6126c389838a016125a4565b60008060408385031215612a0657600080fd5b82356001600160401b0380821115612a1d57600080fd5b818501915085601f830112612a3157600080fd5b81356020612a3e82613025565b604051612a4b8282613130565b8381528281019150858301600585901b870184018b1015612a6b57600080fd5b600096505b84871015612a9557612a8181612511565b835260019690960195918301918301612a70565b5096505086013592505080821115612aac57600080fd5b5061279a8582860161252d565b600060208284031215612acb57600080fd5b5035919050565b60008060408385031215612ae557600080fd5b8235915061264160208401612511565b60008060408385031215612b0857600080fd5b50508035926020909101359150565b600060208284031215612b2957600080fd5b81356107ab81613274565b600060208284031215612b4657600080fd5b81516107ab81613274565b600060208284031215612b6357600080fd5b81356001600160401b03811115612b7957600080fd5b612b85848285016125a4565b949350505050565b60008060408385031215612ba057600080fd5b8235915060208301356001600160401b03811115612bbd57600080fd5b61279a858286016125a4565b600081518084526020808501945080840160005b83811015612bf957815187529582019590820190600101612bdd565b509495945050505050565b60008151808452612c1c8160208601602086016130b8565b601f01601f19169290920160200192915050565b76020b1b1b2b9b9a1b7b73a3937b61d1030b1b1b7bab73a1604d1b815260008351612c628160178501602088016130b8565b7001034b99036b4b9b9b4b733903937b6329607d1b6017918401918201528351612c938160288401602088016130b8565b01602801949350505050565b6001600160a01b0386811682528516602082015260a060408201819052600090612ccb90830186612bc9565b8281036060840152612cdd8186612bc9565b90508281036080840152612cf18185612c04565b98975050505050505050565b6001600160a01b03868116825285166020820152604081018490526060810183905260a060808201819052600090612d3790830184612c04565b979650505050505050565b6020815260006107ab6020830184612bc9565b604081526000612d686040830185612bc9565b8281036020840152612d7a8185612bc9565b95945050505050565b6020815260006107ab6020830184612c04565b60208082526028908201527f455243313135353a204552433131353552656365697665722072656a656374656040820152676420746f6b656e7360c01b606082015260800190565b60208082526010908201526f11549497d393d517d054141493d5915160821b604082015260600190565b60208082526024908201527f455243313135353a206275726e20616d6f756e7420657863656564732062616c604082015263616e636560e01b606082015260800190565b60208082526025908201527f455243313135353a207472616e7366657220746f20746865207a65726f206164604082015264647265737360d81b606082015260800190565b60208082526023908201527f455243313135353a206275726e2066726f6d20746865207a65726f206164647260408201526265737360e81b606082015260800190565b6020808252602a908201527f455243313135353a20696e73756666696369656e742062616c616e636520666f60408201526939103a3930b739b332b960b11b606082015260800190565b60208082526028908201527f455243313135353a2069647320616e6420616d6f756e7473206c656e677468206040820152670dad2e6dac2e8c6d60c31b606082015260800190565b60208082526021908201527f455243313135353a206d696e7420746f20746865207a65726f206164647265736040820152607360f81b606082015260800190565b60208082526031908201527f455243313135355472616461626c652363726561746f724f6e6c793a204f4e4c6040820152701657d0d491505513d497d0531313d5d151607a1b606082015260800190565b6020808252601390820152722aa720aaaa2427a924ad22a22fa1a0a62622a960691b604082015260600190565b60006001600160401b0382111561303e5761303e6131b9565b5060051b60200190565b6000821982111561305b5761305b613177565b500190565b60008261307d57634e487b7160e01b600052601260045260246000fd5b500490565b600081600019048311821515161561309c5761309c613177565b500290565b6000828210156130b3576130b3613177565b500390565b60005b838110156130d35781810151838201526020016130bb565b838111156110f45750506000910152565b6000816130f3576130f3613177565b506000190190565b600181811c9082168061310f57607f821691505b602082108114156107b257634e487b7160e01b600052602260045260246000fd5b601f8201601f191681016001600160401b0381118282101715613155576131556131b9565b6040525050565b600060001982141561317057613170613177565b5060010190565b634e487b7160e01b600052601160045260246000fd5b634e487b7160e01b600052603160045260246000fd5b634e487b7160e01b600052603260045260246000fd5b634e487b7160e01b600052604160045260246000fd5b600060033d11156131e85760046000803e5060005160e01c5b90565b600060443d10156131f95790565b6040516003193d81016004833e81513d6001600160401b03808311602484018310171561322857505050505090565b82850191508151818111156132405750505050505090565b843d870101602082850101111561325a5750505050505090565b61326960208286010187613130565b509095945050505050565b6001600160e01b03198116811461056957600080fdfe4a39dc06d4c0dbc64b70af90fd698a233a518aa5d07e595d983b8c0526c8f7fbc3d58168c5ae7397731d063d5bbf3d657854427343f4c083240f7aacaa2d0f626bb7ff708619ba0610cba295a58592e0451dee2622938c8755667688daf3529ba164736f6c6343000806000a",
  "linkReferences": {},
  "deployedLinkReferences": {}
}