{
  "_format": "hh-sol-artifact-1",
  "contractName": "RarecandyMall",
  "sourceName": "contracts/RarecandyMall.sol",
  "abi": [
    {
      "inputs": [
        {
          "internalType": "address",
          "name": "_rcdy",
          "type": "address"
        },
        {
          "internalType": "address",
          "name": "_rc3",
          "type": "address"
        },
        {
          "internalType": "address",
          "name": "_feeCollector",
          "type": "address"
        },
        {
          "internalType": "uint256",
          "name": "_listingFee",
          "type": "uint256"
        }
      ],
      "stateMutability": "nonpayable",
      "type": "constructor"
    },
    {
      "anonymous": false,
      "inputs": [
        {
          "indexed": true,
          "internalType": "uint256",
          "name": "itemId",
          "type": "uint256"
        },
        {
          "indexed": true,
          "internalType": "uint256",
          "name": "tokenId",
          "type": "uint256"
        },
        {
          "indexed": false,
          "internalType": "address",
          "name": "seller",
          "type": "address"
        },
        {
          "indexed": false,
          "internalType": "address",
          "name": "owner",
          "type": "address"
        },
        {
          "indexed": false,
          "internalType": "uint256",
          "name": "price",
          "type": "uint256"
        }
      ],
      "name": "MarketItemCreated",
      "type": "event"
    },
    {
      "anonymous": false,
      "inputs": [
        {
          "indexed": true,
          "internalType": "uint256",
          "name": "itemId",
          "type": "uint256"
        },
        {
          "indexed": true,
          "internalType": "uint256",
          "name": "tokenId",
          "type": "uint256"
        },
        {
          "indexed": false,
          "internalType": "address",
          "name": "buyer",
          "type": "address"
        },
        {
          "indexed": false,
          "internalType": "address",
          "name": "seller",
          "type": "address"
        },
        {
          "indexed": false,
          "internalType": "uint256",
          "name": "price",
          "type": "uint256"
        }
      ],
      "name": "MarketSale",
      "type": "event"
    },
    {
      "inputs": [
        {
          "internalType": "uint256",
          "name": "_itemId",
          "type": "uint256"
        }
      ],
      "name": "buyItem",
      "outputs": [
        {
          "internalType": "bool",
          "name": "bought",
          "type": "bool"
        }
      ],
      "stateMutability": "nonpayable",
      "type": "function"
    },
    {
      "inputs": [],
      "name": "feeCollector",
      "outputs": [
        {
          "internalType": "address",
          "name": "",
          "type": "address"
        }
      ],
      "stateMutability": "view",
      "type": "function"
    },
    {
      "inputs": [
        {
          "internalType": "uint256",
          "name": "_marketItemId",
          "type": "uint256"
        }
      ],
      "name": "getItem",
      "outputs": [
        {
          "components": [
            {
              "internalType": "uint256",
              "name": "itemId",
              "type": "uint256"
            },
            {
              "internalType": "uint256",
              "name": "tokenId",
              "type": "uint256"
            },
            {
              "internalType": "address",
              "name": "seller",
              "type": "address"
            },
            {
              "internalType": "address",
              "name": "owner",
              "type": "address"
            },
            {
              "internalType": "uint256",
              "name": "price",
              "type": "uint256"
            }
          ],
          "internalType": "struct RarecandyMall.MarketItem",
          "name": "",
          "type": "tuple"
        }
      ],
      "stateMutability": "view",
      "type": "function"
    },
    {
      "inputs": [],
      "name": "getMarketItems",
      "outputs": [
        {
          "components": [
            {
              "internalType": "uint256",
              "name": "itemId",
              "type": "uint256"
            },
            {
              "internalType": "uint256",
              "name": "tokenId",
              "type": "uint256"
            },
            {
              "internalType": "address",
              "name": "seller",
              "type": "address"
            },
            {
              "internalType": "address",
              "name": "owner",
              "type": "address"
            },
            {
              "internalType": "uint256",
              "name": "price",
              "type": "uint256"
            }
          ],
          "internalType": "struct RarecandyMall.MarketItem[]",
          "name": "marketItems",
          "type": "tuple[]"
        }
      ],
      "stateMutability": "view",
      "type": "function"
    },
    {
      "inputs": [],
      "name": "getMyNFTs",
      "outputs": [
        {
          "components": [
            {
              "internalType": "uint256",
              "name": "itemId",
              "type": "uint256"
            },
            {
              "internalType": "uint256",
              "name": "tokenId",
              "type": "uint256"
            },
            {
              "internalType": "address",
              "name": "seller",
              "type": "address"
            },
            {
              "internalType": "address",
              "name": "owner",
              "type": "address"
            },
            {
              "internalType": "uint256",
              "name": "price",
              "type": "uint256"
            }
          ],
          "internalType": "struct RarecandyMall.MarketItem[]",
          "name": "myNfts",
          "type": "tuple[]"
        }
      ],
      "stateMutability": "view",
      "type": "function"
    },
    {
      "inputs": [
        {
          "internalType": "uint256",
          "name": "_tokenId",
          "type": "uint256"
        },
        {
          "internalType": "uint256",
          "name": "_price",
          "type": "uint256"
        }
      ],
      "name": "listItem",
      "outputs": [
        {
          "internalType": "bool",
          "name": "marketItemCreated",
          "type": "bool"
        }
      ],
      "stateMutability": "nonpayable",
      "type": "function"
    },
    {
      "inputs": [],
      "name": "listingFee",
      "outputs": [
        {
          "internalType": "uint256",
          "name": "",
          "type": "uint256"
        }
      ],
      "stateMutability": "view",
      "type": "function"
    }
  ],
  "bytecode": "0x608060405234801561001057600080fd5b50604051610d95380380610d9583398101604081905261002f9161008e565b600280546001600160a01b03199081166001600160a01b0395861617909155600380548216958516959095179094556004556005805490931691161790556100d9565b80516001600160a01b038116811461008957600080fd5b919050565b600080600080608085870312156100a457600080fd5b6100ad85610072565b93506100bb60208601610072565b92506100c960408601610072565b6060959095015193969295505050565b610cad806100e86000396000f3fe608060405234801561001057600080fd5b506004361061007d5760003560e01c80636a1b7ecc1161005b5780636a1b7ecc146100c8578063883efa67146100df578063c415b95c14610102578063e7fb74c71461012d57600080fd5b806329aa3a42146100825780633129e773146100a0578063629cb2e4146100c0575b600080fd5b61008a610140565b6040516100979190610b03565b60405180910390f35b6100b36100ae366004610ac8565b610303565b6040516100979190610b8b565b61008a6103a4565b6100d160045481565b604051908152602001610097565b6100f26100ed366004610ae1565b6105a5565b6040519015158152602001610097565b600554610115906001600160a01b031681565b6040516001600160a01b039091168152602001610097565b6100f261013b366004610ac8565b610752565b6060600061014d60005490565b9050600061015a60015490565b6000546101679190610c2c565b90506000808267ffffffffffffffff81111561018557610185610c8a565b6040519080825280602002602001820160405280156101fa57816020015b6101e76040518060a00160405280600081526020016000815260200160006001600160a01b0316815260200160006001600160a01b03168152602001600081525090565b8152602001906001900390816101a35790505b50905060005b848110156102fa576000600681610218846001610bd3565b81526020810191909152604001600020600301546001600160a01b031614156102e857600060068161024b846001610bd3565b815260208082019290925260409081016000908120548082526006845290829020825160a0810184528154815260018201549481019490945260028101546001600160a01b0390811693850193909352600381015490921660608401526004909101546080830152845190925081908590879081106102cc576102cc610c74565b602002602001018190525084806102e290610c43565b95505050505b806102f281610c43565b915050610200565b50949350505050565b6103476040518060a00160405280600081526020016000815260200160006001600160a01b0316815260200160006001600160a01b03168152602001600081525090565b50600090815260066020908152604091829020825160a0810184528154815260018201549281019290925260028101546001600160a01b039081169383019390935260038101549092166060820152600490910154608082015290565b606060006103b160005490565b905060008060005b838110156104145733600660006103d1846001610bd3565b81526020810191909152604001600020600301546001600160a01b0316141561040257826103fe81610c43565b9350505b8061040c81610c43565b9150506103b9565b5060008267ffffffffffffffff81111561043057610430610c8a565b6040519080825280602002602001820160405280156104a557816020015b6104926040518060a00160405280600081526020016000815260200160006001600160a01b0316815260200160006001600160a01b03168152602001600081525090565b81526020019060019003908161044e5790505b50905060005b848110156102fa5733600660006104c3846001610bd3565b81526020810191909152604001600020600301546001600160a01b031614156105935760006006816104f6846001610bd3565b815260208082019290925260409081016000908120548082526006845290829020825160a0810184528154815260018201549481019490945260028101546001600160a01b03908116938501939093526003810154909216606084015260049091015460808301528451909250819085908790811061057757610577610c74565b6020026020010181905250848061058d90610c43565b95505050505b8061059d81610c43565b9150506104ab565b60008082116105fb5760405162461bcd60e51b815260206004820152601960248201527f5072696365206d757374206265206d6f7265207468616e20300000000000000060448201526064015b60405180910390fd5b6002546040516323b872dd60e01b8152336004820152306024820152604481018590526001600160a01b03909116906323b872dd90606401600060405180830381600087803b15801561064d57600080fd5b505af1158015610661573d6000803e3d6000fd5b50505050610673600080546001019055565b600080546040805160a08101825282815260208082018881523383850181815260006060808701828152608088018d81528a8452600688528984209851895595516001890155925160028801805473ffffffffffffffffffffffffffffffffffffffff199081166001600160a01b039384161790915593516003890180549095169116179092559251600490950194909455845190815291820152918201869052919250859183917f38690a554ffbc44eb6a75016e47d517d0db8e6c37494adc68d6d0b2c66f0ab21910160405180910390a360019150505b92915050565b600081815260066020526040812060048082015490548391620186a0916107799190610c0d565b6107839190610beb565b6003546005546040516323b872dd60e01b81523360048201526001600160a01b0391821660248201526044810184905292935016906323b872dd90606401602060405180830381600087803b1580156107db57600080fd5b505af11580156107ef573d6000803e3d6000fd5b505050506040513d601f19601f820116820180604052508101906108139190610a9f565b61085f5760405162461bcd60e51b815260206004820152601b60248201527f4572726f7220696e20636f6c6c656374696e672074686520666565000000000060448201526064016105f2565b600354600283015460048401546001600160a01b03928316926323b872dd92339291169061088e908690610c2c565b6040517fffffffff0000000000000000000000000000000000000000000000000000000060e086901b1681526001600160a01b0393841660048201529290911660248301526044820152606401602060405180830381600087803b1580156108f557600080fd5b505af1158015610909573d6000803e3d6000fd5b505050506040513d601f19601f8201168201806040525081019061092d9190610a9f565b61099e5760405162461bcd60e51b8152602060048201526024808201527f4572726f7220696e20636f6c6c656374696e67207468652061736b696e67207060448201527f726963650000000000000000000000000000000000000000000000000000000060648201526084016105f2565b60038201805473ffffffffffffffffffffffffffffffffffffffff19163390811790915560025460018401546040516323b872dd60e01b8152306004820152602481019390935260448301526001600160a01b0316906323b872dd90606401600060405180830381600087803b158015610a1757600080fd5b505af1158015610a2b573d6000803e3d6000fd5b50505050610a3d600180546001019055565b600182015460028301546004840154604080513381526001600160a01b03909316602084015282015285907fbdfe9eef0b65e6eba957e3152b9dd3438703867d0dac94e7e933fa29560071aa9060600160405180910390a35060019392505050565b600060208284031215610ab157600080fd5b81518015158114610ac157600080fd5b9392505050565b600060208284031215610ada57600080fd5b5035919050565b60008060408385031215610af457600080fd5b50508035926020909101359150565b6020808252825182820181905260009190848201906040850190845b81811015610b7f57610b6c838551805182526020810151602083015260408101516001600160a01b0380821660408501528060608401511660608501525050608081015160808301525050565b9284019260a09290920191600101610b1f565b50909695505050505050565b60a0810161074c8284805182526020810151602083015260408101516001600160a01b0380821660408501528060608401511660608501525050608081015160808301525050565b60008219821115610be657610be6610c5e565b500190565b600082610c0857634e487b7160e01b600052601260045260246000fd5b500490565b6000816000190483118215151615610c2757610c27610c5e565b500290565b600082821015610c3e57610c3e610c5e565b500390565b6000600019821415610c5757610c57610c5e565b5060010190565b634e487b7160e01b600052601160045260246000fd5b634e487b7160e01b600052603260045260246000fd5b634e487b7160e01b600052604160045260246000fdfea164736f6c6343000806000a",
  "linkReferences": {},
  "deployedLinkReferences": {}
}