{
  "_format": "hh-sol-artifact-1",
  "contractName": "RarecandyMall",
  "sourceName": "contracts/RarecandyMall.sol",
  "abi": [
    {
      "inputs": [
        {
          "internalType": "address",
          "name": "_rcdy",
          "type": "address"
        },
        {
          "internalType": "address",
          "name": "_rc3",
          "type": "address"
        },
        {
          "internalType": "address",
          "name": "_feeCollector",
          "type": "address"
        },
        {
          "internalType": "uint256",
          "name": "_listingFee",
          "type": "uint256"
        }
      ],
      "stateMutability": "nonpayable",
      "type": "constructor"
    },
    {
      "anonymous": false,
      "inputs": [
        {
          "indexed": true,
          "internalType": "uint256",
          "name": "itemId",
          "type": "uint256"
        },
        {
          "indexed": true,
          "internalType": "uint256",
          "name": "tokenId",
          "type": "uint256"
        },
        {
          "indexed": false,
          "internalType": "address",
          "name": "seller",
          "type": "address"
        },
        {
          "indexed": false,
          "internalType": "address",
          "name": "owner",
          "type": "address"
        },
        {
          "indexed": false,
          "internalType": "uint256",
          "name": "price",
          "type": "uint256"
        }
      ],
      "name": "MarketItemCreated",
      "type": "event"
    },
    {
      "anonymous": false,
      "inputs": [
        {
          "indexed": true,
          "internalType": "uint256",
          "name": "itemId",
          "type": "uint256"
        },
        {
          "indexed": true,
          "internalType": "uint256",
          "name": "tokenId",
          "type": "uint256"
        },
        {
          "indexed": false,
          "internalType": "address",
          "name": "buyer",
          "type": "address"
        },
        {
          "indexed": false,
          "internalType": "address",
          "name": "seller",
          "type": "address"
        },
        {
          "indexed": false,
          "internalType": "uint256",
          "name": "price",
          "type": "uint256"
        }
      ],
      "name": "MarketSale",
      "type": "event"
    },
    {
      "inputs": [
        {
          "internalType": "uint256",
          "name": "_itemId",
          "type": "uint256"
        }
      ],
      "name": "buyItem",
      "outputs": [
        {
          "internalType": "bool",
          "name": "bought",
          "type": "bool"
        }
      ],
      "stateMutability": "nonpayable",
      "type": "function"
    },
    {
      "inputs": [],
      "name": "feeCollector",
      "outputs": [
        {
          "internalType": "address",
          "name": "",
          "type": "address"
        }
      ],
      "stateMutability": "view",
      "type": "function"
    },
    {
      "inputs": [
        {
          "internalType": "uint256",
          "name": "_marketItemId",
          "type": "uint256"
        }
      ],
      "name": "getItem",
      "outputs": [
        {
          "components": [
            {
              "internalType": "uint256",
              "name": "itemId",
              "type": "uint256"
            },
            {
              "internalType": "uint256",
              "name": "tokenId",
              "type": "uint256"
            },
            {
              "internalType": "address",
              "name": "seller",
              "type": "address"
            },
            {
              "internalType": "address",
              "name": "owner",
              "type": "address"
            },
            {
              "internalType": "uint256",
              "name": "price",
              "type": "uint256"
            }
          ],
          "internalType": "struct RarecandyMall.MarketItem",
          "name": "",
          "type": "tuple"
        }
      ],
      "stateMutability": "view",
      "type": "function"
    },
    {
      "inputs": [],
      "name": "getMarketItems",
      "outputs": [
        {
          "components": [
            {
              "internalType": "uint256",
              "name": "itemId",
              "type": "uint256"
            },
            {
              "internalType": "uint256",
              "name": "tokenId",
              "type": "uint256"
            },
            {
              "internalType": "address",
              "name": "seller",
              "type": "address"
            },
            {
              "internalType": "address",
              "name": "owner",
              "type": "address"
            },
            {
              "internalType": "uint256",
              "name": "price",
              "type": "uint256"
            }
          ],
          "internalType": "struct RarecandyMall.MarketItem[]",
          "name": "marketItems",
          "type": "tuple[]"
        }
      ],
      "stateMutability": "view",
      "type": "function"
    },
    {
      "inputs": [],
      "name": "getMyNFTs",
      "outputs": [
        {
          "components": [
            {
              "internalType": "uint256",
              "name": "itemId",
              "type": "uint256"
            },
            {
              "internalType": "uint256",
              "name": "tokenId",
              "type": "uint256"
            },
            {
              "internalType": "address",
              "name": "seller",
              "type": "address"
            },
            {
              "internalType": "address",
              "name": "owner",
              "type": "address"
            },
            {
              "internalType": "uint256",
              "name": "price",
              "type": "uint256"
            }
          ],
          "internalType": "struct RarecandyMall.MarketItem[]",
          "name": "myNfts",
          "type": "tuple[]"
        }
      ],
      "stateMutability": "view",
      "type": "function"
    },
    {
      "inputs": [
        {
          "internalType": "uint256",
          "name": "_tokenId",
          "type": "uint256"
        },
        {
          "internalType": "uint256",
          "name": "_price",
          "type": "uint256"
        }
      ],
      "name": "listItem",
      "outputs": [
        {
          "internalType": "bool",
          "name": "marketItemCreated",
          "type": "bool"
        }
      ],
      "stateMutability": "nonpayable",
      "type": "function"
    },
    {
      "inputs": [],
      "name": "listingFee",
      "outputs": [
        {
          "internalType": "uint256",
          "name": "",
          "type": "uint256"
        }
      ],
      "stateMutability": "view",
      "type": "function"
    }
  ],
  "bytecode": "0x60806040523480156200001157600080fd5b506040516200186938038062001869833981810160405281019062000037919062000139565b82600260006101000a81548173ffffffffffffffffffffffffffffffffffffffff021916908373ffffffffffffffffffffffffffffffffffffffff16021790555083600360006101000a81548173ffffffffffffffffffffffffffffffffffffffff021916908373ffffffffffffffffffffffffffffffffffffffff1602179055508060048190555081600560006101000a81548173ffffffffffffffffffffffffffffffffffffffff021916908373ffffffffffffffffffffffffffffffffffffffff1602179055505050505062000222565b6000815190506200011c81620001ee565b92915050565b600081519050620001338162000208565b92915050565b60008060008060808587031215620001565762000155620001e9565b5b600062000166878288016200010b565b945050602062000179878288016200010b565b93505060406200018c878288016200010b565b92505060606200019f8782880162000122565b91505092959194509250565b6000620001b882620001bf565b9050919050565b600073ffffffffffffffffffffffffffffffffffffffff82169050919050565b6000819050919050565b600080fd5b620001f981620001ab565b81146200020557600080fd5b50565b6200021381620001df565b81146200021f57600080fd5b50565b61163780620002326000396000f3fe608060405234801561001057600080fd5b506004361061007d5760003560e01c80636a1b7ecc1161005b5780636a1b7ecc146100ee578063883efa671461010c578063c415b95c1461013c578063e7fb74c71461015a5761007d565b806329aa3a42146100825780633129e773146100a0578063629cb2e4146100d0575b600080fd5b61008a61018a565b60405161009791906111ae565b60405180910390f35b6100ba60048036038101906100b59190610ef5565b6103f8565b6040516100c7919061124b565b60405180910390f35b6100d86104ef565b6040516100e591906111ae565b60405180910390f35b6100f66107e0565b6040516101039190611266565b60405180910390f35b61012660048036038101906101219190610f22565b6107e6565b60405161013391906111d0565b60405180910390f35b610144610a32565b604051610151919061115c565b60405180910390f35b610174600480360381019061016f9190610ef5565b610a58565b60405161018191906111d0565b60405180910390f35b606060006101986000610e1f565b905060006101a66001610e1f565b6101b06000610e1f565b6101ba91906113ac565b90506000808267ffffffffffffffff8111156101d9576101d86114fe565b5b60405190808252806020026020018201604052801561021257816020015b6101ff610e43565b8152602001906001900390816101f75790505b50905060005b848110156103ed57600073ffffffffffffffffffffffffffffffffffffffff166006600060018461024991906112cb565b815260200190815260200160002060030160009054906101000a900473ffffffffffffffffffffffffffffffffffffffff1673ffffffffffffffffffffffffffffffffffffffff1614156103da576000600660006001846102aa91906112cb565b81526020019081526020016000206000015490506000600660008381526020019081526020016000206040518060a001604052908160008201548152602001600182015481526020016002820160009054906101000a900473ffffffffffffffffffffffffffffffffffffffff1673ffffffffffffffffffffffffffffffffffffffff1673ffffffffffffffffffffffffffffffffffffffff1681526020016003820160009054906101000a900473ffffffffffffffffffffffffffffffffffffffff1673ffffffffffffffffffffffffffffffffffffffff1673ffffffffffffffffffffffffffffffffffffffff1681526020016004820154815250509050808486815181106103be576103bd6114cf565b5b602002602001018190525084806103d490611428565b95505050505b80806103e590611428565b915050610218565b508094505050505090565b610400610e43565b600660008381526020019081526020016000206040518060a001604052908160008201548152602001600182015481526020016002820160009054906101000a900473ffffffffffffffffffffffffffffffffffffffff1673ffffffffffffffffffffffffffffffffffffffff1673ffffffffffffffffffffffffffffffffffffffff1681526020016003820160009054906101000a900473ffffffffffffffffffffffffffffffffffffffff1673ffffffffffffffffffffffffffffffffffffffff1673ffffffffffffffffffffffffffffffffffffffff1681526020016004820154815250509050919050565b606060006104fd6000610e1f565b905060008060005b838110156105a5573373ffffffffffffffffffffffffffffffffffffffff166006600060018461053591906112cb565b815260200190815260200160002060030160009054906101000a900473ffffffffffffffffffffffffffffffffffffffff1673ffffffffffffffffffffffffffffffffffffffff16141561059257828061058e90611428565b9350505b808061059d90611428565b915050610505565b5060008267ffffffffffffffff8111156105c2576105c16114fe565b5b6040519080825280602002602001820160405280156105fb57816020015b6105e8610e43565b8152602001906001900390816105e05790505b50905060005b848110156107d5573373ffffffffffffffffffffffffffffffffffffffff166006600060018461063191906112cb565b815260200190815260200160002060030160009054906101000a900473ffffffffffffffffffffffffffffffffffffffff1673ffffffffffffffffffffffffffffffffffffffff1614156107c25760006006600060018461069291906112cb565b81526020019081526020016000206000015490506000600660008381526020019081526020016000206040518060a001604052908160008201548152602001600182015481526020016002820160009054906101000a900473ffffffffffffffffffffffffffffffffffffffff1673ffffffffffffffffffffffffffffffffffffffff1673ffffffffffffffffffffffffffffffffffffffff1681526020016003820160009054906101000a900473ffffffffffffffffffffffffffffffffffffffff1673ffffffffffffffffffffffffffffffffffffffff1673ffffffffffffffffffffffffffffffffffffffff1681526020016004820154815250509050808486815181106107a6576107a56114cf565b5b602002602001018190525084806107bc90611428565b95505050505b80806107cd90611428565b915050610601565b508094505050505090565b60045481565b600080821161082a576040517f08c379a0000000000000000000000000000000000000000000000000000000008152600401610821906111eb565b60405180910390fd5b600260009054906101000a900473ffffffffffffffffffffffffffffffffffffffff1673ffffffffffffffffffffffffffffffffffffffff166323b872dd3330866040518463ffffffff1660e01b815260040161088993929190611177565b600060405180830381600087803b1580156108a357600080fd5b505af11580156108b7573d6000803e3d6000fd5b505050506108c56000610e2d565b60006108d16000610e1f565b90506040518060a001604052808281526020018581526020013373ffffffffffffffffffffffffffffffffffffffff168152602001600073ffffffffffffffffffffffffffffffffffffffff1681526020018481525060066000838152602001908152602001600020600082015181600001556020820151816001015560408201518160020160006101000a81548173ffffffffffffffffffffffffffffffffffffffff021916908373ffffffffffffffffffffffffffffffffffffffff16021790555060608201518160030160006101000a81548173ffffffffffffffffffffffffffffffffffffffff021916908373ffffffffffffffffffffffffffffffffffffffff1602179055506080820151816004015590505083817f38690a554ffbc44eb6a75016e47d517d0db8e6c37494adc68d6d0b2c66f0ab2133600087604051610a1f93929190611177565b60405180910390a3600191505092915050565b600560009054906101000a900473ffffffffffffffffffffffffffffffffffffffff1681565b6000806006600084815260200190815260200160002090506000620186a08260040154600454610a889190611352565b610a929190611321565b9050600360009054906101000a900473ffffffffffffffffffffffffffffffffffffffff1673ffffffffffffffffffffffffffffffffffffffff166323b872dd33600560009054906101000a900473ffffffffffffffffffffffffffffffffffffffff16846040518463ffffffff1660e01b8152600401610b1593929190611177565b602060405180830381600087803b158015610b2f57600080fd5b505af1158015610b43573d6000803e3d6000fd5b505050506040513d601f19601f82011682018060405250810190610b679190610ec8565b610ba6576040517f08c379a0000000000000000000000000000000000000000000000000000000008152600401610b9d9061120b565b60405180910390fd5b600360009054906101000a900473ffffffffffffffffffffffffffffffffffffffff1673ffffffffffffffffffffffffffffffffffffffff166323b872dd338460020160009054906101000a900473ffffffffffffffffffffffffffffffffffffffff16848660040154610c1a91906113ac565b6040518463ffffffff1660e01b8152600401610c3893929190611177565b602060405180830381600087803b158015610c5257600080fd5b505af1158015610c66573d6000803e3d6000fd5b505050506040513d601f19601f82011682018060405250810190610c8a9190610ec8565b610cc9576040517f08c379a0000000000000000000000000000000000000000000000000000000008152600401610cc09061122b565b60405180910390fd5b338260030160006101000a81548173ffffffffffffffffffffffffffffffffffffffff021916908373ffffffffffffffffffffffffffffffffffffffff160217905550600260009054906101000a900473ffffffffffffffffffffffffffffffffffffffff1673ffffffffffffffffffffffffffffffffffffffff166323b872dd303385600101546040518463ffffffff1660e01b8152600401610d6f93929190611177565b600060405180830381600087803b158015610d8957600080fd5b505af1158015610d9d573d6000803e3d6000fd5b50505050610dab6001610e2d565b8160010154847fbdfe9eef0b65e6eba957e3152b9dd3438703867d0dac94e7e933fa29560071aa338560020160009054906101000a900473ffffffffffffffffffffffffffffffffffffffff168660040154604051610e0c93929190611177565b60405180910390a3600192505050919050565b600081600001549050919050565b6001816000016000828254019250508190555050565b6040518060a001604052806000815260200160008152602001600073ffffffffffffffffffffffffffffffffffffffff168152602001600073ffffffffffffffffffffffffffffffffffffffff168152602001600081525090565b600081519050610ead816115d3565b92915050565b600081359050610ec2816115ea565b92915050565b600060208284031215610ede57610edd61152d565b5b6000610eec84828501610e9e565b91505092915050565b600060208284031215610f0b57610f0a61152d565b5b6000610f1984828501610eb3565b91505092915050565b60008060408385031215610f3957610f3861152d565b5b6000610f4785828601610eb3565b9250506020610f5885828601610eb3565b9150509250929050565b6000610f6e838361106e565b60a08301905092915050565b610f83816113e0565b82525050565b610f92816113e0565b82525050565b6000610fa382611291565b610fad81856112a9565b9350610fb883611281565b8060005b83811015610fe9578151610fd08882610f62565b9750610fdb8361129c565b925050600181019050610fbc565b5085935050505092915050565b610fff816113f2565b82525050565b60006110126019836112ba565b915061101d82611532565b602082019050919050565b6000611035601b836112ba565b91506110408261155b565b602082019050919050565b60006110586024836112ba565b915061106382611584565b604082019050919050565b60a082016000820151611084600085018261113e565b506020820151611097602085018261113e565b5060408201516110aa6040850182610f7a565b5060608201516110bd6060850182610f7a565b5060808201516110d0608085018261113e565b50505050565b60a0820160008201516110ec600085018261113e565b5060208201516110ff602085018261113e565b5060408201516111126040850182610f7a565b5060608201516111256060850182610f7a565b506080820151611138608085018261113e565b50505050565b6111478161141e565b82525050565b6111568161141e565b82525050565b60006020820190506111716000830184610f89565b92915050565b600060608201905061118c6000830186610f89565b6111996020830185610f89565b6111a6604083018461114d565b949350505050565b600060208201905081810360008301526111c88184610f98565b905092915050565b60006020820190506111e56000830184610ff6565b92915050565b6000602082019050818103600083015261120481611005565b9050919050565b6000602082019050818103600083015261122481611028565b9050919050565b600060208201905081810360008301526112448161104b565b9050919050565b600060a08201905061126060008301846110d6565b92915050565b600060208201905061127b600083018461114d565b92915050565b6000819050602082019050919050565b600081519050919050565b6000602082019050919050565b600082825260208201905092915050565b600082825260208201905092915050565b60006112d68261141e565b91506112e18361141e565b9250827fffffffffffffffffffffffffffffffffffffffffffffffffffffffffffffffff0382111561131657611315611471565b5b828201905092915050565b600061132c8261141e565b91506113378361141e565b925082611347576113466114a0565b5b828204905092915050565b600061135d8261141e565b91506113688361141e565b9250817fffffffffffffffffffffffffffffffffffffffffffffffffffffffffffffffff04831182151516156113a1576113a0611471565b5b828202905092915050565b60006113b78261141e565b91506113c28361141e565b9250828210156113d5576113d4611471565b5b828203905092915050565b60006113eb826113fe565b9050919050565b60008115159050919050565b600073ffffffffffffffffffffffffffffffffffffffff82169050919050565b6000819050919050565b60006114338261141e565b91507fffffffffffffffffffffffffffffffffffffffffffffffffffffffffffffffff82141561146657611465611471565b5b600182019050919050565b7f4e487b7100000000000000000000000000000000000000000000000000000000600052601160045260246000fd5b7f4e487b7100000000000000000000000000000000000000000000000000000000600052601260045260246000fd5b7f4e487b7100000000000000000000000000000000000000000000000000000000600052603260045260246000fd5b7f4e487b7100000000000000000000000000000000000000000000000000000000600052604160045260246000fd5b600080fd5b7f5072696365206d757374206265206d6f7265207468616e203000000000000000600082015250565b7f4572726f7220696e20636f6c6c656374696e6720746865206665650000000000600082015250565b7f4572726f7220696e20636f6c6c656374696e67207468652061736b696e67207060008201527f7269636500000000000000000000000000000000000000000000000000000000602082015250565b6115dc816113f2565b81146115e757600080fd5b50565b6115f38161141e565b81146115fe57600080fd5b5056fea26469706673582212204a952504861876b1bfc75895e13d33000289286d97432850be7d14b25eebbdbb64736f6c63430008060033",
  "linkReferences": {},
  "deployedLinkReferences": {}
}