{
  "_format": "hh-sol-artifact-1",
  "contractName": "RC3_Auction",
  "sourceName": "contracts/RC3_Auction.sol",
  "abi": [
    {
      "inputs": [
        {
          "internalType": "address",
          "name": "_rcdy",
          "type": "address"
        }
      ],
      "stateMutability": "nonpayable",
      "type": "constructor"
    },
    {
      "anonymous": false,
      "inputs": [
        {
          "indexed": true,
          "internalType": "address",
          "name": "caller",
          "type": "address"
        },
        {
          "indexed": true,
          "internalType": "address",
          "name": "nft",
          "type": "address"
        },
        {
          "indexed": true,
          "internalType": "uint256",
          "name": "auctionId",
          "type": "uint256"
        },
        {
          "indexed": false,
          "internalType": "uint256",
          "name": "tokenID",
          "type": "uint256"
        }
      ],
      "name": "AuctionCancelled",
      "type": "event"
    },
    {
      "anonymous": false,
      "inputs": [
        {
          "indexed": true,
          "internalType": "address",
          "name": "caller",
          "type": "address"
        },
        {
          "indexed": false,
          "internalType": "address",
          "name": "seller",
          "type": "address"
        },
        {
          "indexed": false,
          "internalType": "address",
          "name": "highestBidder",
          "type": "address"
        },
        {
          "indexed": true,
          "internalType": "address",
          "name": "nft",
          "type": "address"
        },
        {
          "indexed": true,
          "internalType": "uint256",
          "name": "auctionId",
          "type": "uint256"
        },
        {
          "indexed": false,
          "internalType": "uint256",
          "name": "tokenId",
          "type": "uint256"
        },
        {
          "indexed": false,
          "internalType": "uint256",
          "name": "amount",
          "type": "uint256"
        },
        {
          "indexed": false,
          "internalType": "uint256",
          "name": "winPrice",
          "type": "uint256"
        }
      ],
      "name": "AuctionResulted",
      "type": "event"
    },
    {
      "anonymous": false,
      "inputs": [
        {
          "indexed": true,
          "internalType": "address",
          "name": "bidder",
          "type": "address"
        },
        {
          "indexed": true,
          "internalType": "address",
          "name": "nft",
          "type": "address"
        },
        {
          "indexed": true,
          "internalType": "uint256",
          "name": "auctionId",
          "type": "uint256"
        },
        {
          "indexed": false,
          "internalType": "uint256",
          "name": "_tokenId",
          "type": "uint256"
        },
        {
          "indexed": false,
          "internalType": "uint256",
          "name": "newEndPeriod",
          "type": "uint256"
        }
      ],
      "name": "AuctionUpdated",
      "type": "event"
    },
    {
      "anonymous": false,
      "inputs": [
        {
          "indexed": true,
          "internalType": "address",
          "name": "creator",
          "type": "address"
        },
        {
          "indexed": true,
          "internalType": "address",
          "name": "nft",
          "type": "address"
        },
        {
          "indexed": true,
          "internalType": "uint256",
          "name": "auctionId",
          "type": "uint256"
        },
        {
          "indexed": false,
          "internalType": "uint256",
          "name": "tokenId",
          "type": "uint256"
        },
        {
          "indexed": false,
          "internalType": "uint256",
          "name": "newEndTime",
          "type": "uint256"
        }
      ],
      "name": "EndTimeUpdated",
      "type": "event"
    },
    {
      "anonymous": false,
      "inputs": [
        {
          "indexed": true,
          "internalType": "address",
          "name": "seller",
          "type": "address"
        },
        {
          "indexed": true,
          "internalType": "address",
          "name": "nft",
          "type": "address"
        },
        {
          "indexed": true,
          "internalType": "uint256",
          "name": "auctionId",
          "type": "uint256"
        },
        {
          "indexed": false,
          "internalType": "uint256",
          "name": "tokenId",
          "type": "uint256"
        },
        {
          "indexed": false,
          "internalType": "uint256",
          "name": "amount",
          "type": "uint256"
        },
        {
          "indexed": false,
          "internalType": "uint256",
          "name": "floorPrice",
          "type": "uint256"
        },
        {
          "indexed": false,
          "internalType": "uint256",
          "name": "startPeriod",
          "type": "uint256"
        },
        {
          "indexed": false,
          "internalType": "uint256",
          "name": "endPeriod",
          "type": "uint256"
        },
        {
          "indexed": false,
          "internalType": "enum RC3_Auction.TokenType",
          "name": "tokenType",
          "type": "uint8"
        }
      ],
      "name": "NewAuction",
      "type": "event"
    },
    {
      "anonymous": false,
      "inputs": [
        {
          "indexed": true,
          "internalType": "address",
          "name": "bidder",
          "type": "address"
        },
        {
          "indexed": true,
          "internalType": "address",
          "name": "nft",
          "type": "address"
        },
        {
          "indexed": true,
          "internalType": "uint256",
          "name": "auctionId",
          "type": "uint256"
        },
        {
          "indexed": false,
          "internalType": "uint256",
          "name": "tokenId",
          "type": "uint256"
        },
        {
          "indexed": false,
          "internalType": "uint256",
          "name": "price",
          "type": "uint256"
        }
      ],
      "name": "NewBid",
      "type": "event"
    },
    {
      "inputs": [],
      "name": "auctionId",
      "outputs": [
        {
          "internalType": "uint256",
          "name": "_value",
          "type": "uint256"
        }
      ],
      "stateMutability": "view",
      "type": "function"
    },
    {
      "inputs": [],
      "name": "auctionsClosed",
      "outputs": [
        {
          "internalType": "uint256",
          "name": "_value",
          "type": "uint256"
        }
      ],
      "stateMutability": "view",
      "type": "function"
    },
    {
      "inputs": [
        {
          "internalType": "uint256",
          "name": "_auctionId",
          "type": "uint256"
        },
        {
          "internalType": "uint256",
          "name": "_bidAmount",
          "type": "uint256"
        }
      ],
      "name": "bid",
      "outputs": [
        {
          "internalType": "bool",
          "name": "bidded",
          "type": "bool"
        }
      ],
      "stateMutability": "nonpayable",
      "type": "function"
    },
    {
      "inputs": [
        {
          "internalType": "uint256",
          "name": "_auctionId",
          "type": "uint256"
        }
      ],
      "name": "bidTimeRemaining",
      "outputs": [
        {
          "internalType": "uint256",
          "name": "startsIn",
          "type": "uint256"
        },
        {
          "internalType": "uint256",
          "name": "endsIn",
          "type": "uint256"
        }
      ],
      "stateMutability": "view",
      "type": "function"
    },
    {
      "inputs": [
        {
          "internalType": "uint256",
          "name": "_auctionId",
          "type": "uint256"
        }
      ],
      "name": "closeBid",
      "outputs": [
        {
          "internalType": "enum RC3_Auction.State",
          "name": "status",
          "type": "uint8"
        }
      ],
      "stateMutability": "nonpayable",
      "type": "function"
    },
    {
      "inputs": [],
      "name": "feePercentage",
      "outputs": [
        {
          "internalType": "uint96",
          "name": "",
          "type": "uint96"
        }
      ],
      "stateMutability": "view",
      "type": "function"
    },
    {
      "inputs": [],
      "name": "feeRecipient",
      "outputs": [
        {
          "internalType": "address payable",
          "name": "",
          "type": "address"
        }
      ],
      "stateMutability": "view",
      "type": "function"
    },
    {
      "inputs": [
        {
          "internalType": "uint256",
          "name": "_auctionId",
          "type": "uint256"
        }
      ],
      "name": "getAuction",
      "outputs": [
        {
          "components": [
            {
              "internalType": "address payable",
              "name": "seller",
              "type": "address"
            },
            {
              "internalType": "address payable",
              "name": "highestBidder",
              "type": "address"
            },
            {
              "internalType": "address",
              "name": "nifty",
              "type": "address"
            },
            {
              "internalType": "uint256",
              "name": "tokenId",
              "type": "uint256"
            },
            {
              "internalType": "uint256",
              "name": "tokenAmount",
              "type": "uint256"
            },
            {
              "internalType": "uint256",
              "name": "initialBidAmount",
              "type": "uint256"
            },
            {
              "internalType": "uint256",
              "name": "highestBidAmount",
              "type": "uint256"
            },
            {
              "internalType": "uint256",
              "name": "startPeriod",
              "type": "uint256"
            },
            {
              "internalType": "uint256",
              "name": "endPeriod",
              "type": "uint256"
            },
            {
              "internalType": "uint256",
              "name": "bidCount",
              "type": "uint256"
            },
            {
              "internalType": "enum RC3_Auction.TokenType",
              "name": "tokenType",
              "type": "uint8"
            },
            {
              "internalType": "enum RC3_Auction.State",
              "name": "state",
              "type": "uint8"
            }
          ],
          "internalType": "struct RC3_Auction.Auction",
          "name": "",
          "type": "tuple"
        }
      ],
      "stateMutability": "view",
      "type": "function"
    },
    {
      "inputs": [
        {
          "internalType": "address",
          "name": "nifty",
          "type": "address"
        },
        {
          "internalType": "uint256",
          "name": "_tokenId",
          "type": "uint256"
        },
        {
          "internalType": "uint256",
          "name": "amount",
          "type": "uint256"
        },
        {
          "internalType": "uint256",
          "name": "_startsIn",
          "type": "uint256"
        },
        {
          "internalType": "uint256",
          "name": "_lastsFor",
          "type": "uint256"
        },
        {
          "internalType": "uint256",
          "name": "_initialBidAmount",
          "type": "uint256"
        },
        {
          "internalType": "enum RC3_Auction.TokenType",
          "name": "_type",
          "type": "uint8"
        }
      ],
      "name": "listAuction",
      "outputs": [
        {
          "internalType": "uint256",
          "name": "auctionId_",
          "type": "uint256"
        }
      ],
      "stateMutability": "nonpayable",
      "type": "function"
    },
    {
      "inputs": [
        {
          "internalType": "uint256",
          "name": "_auctionId",
          "type": "uint256"
        }
      ],
      "name": "nextBidAmount",
      "outputs": [
        {
          "internalType": "uint256",
          "name": "amount",
          "type": "uint256"
        }
      ],
      "stateMutability": "view",
      "type": "function"
    },
    {
      "inputs": [
        {
          "internalType": "address",
          "name": "",
          "type": "address"
        },
        {
          "internalType": "address",
          "name": "",
          "type": "address"
        },
        {
          "internalType": "uint256[]",
          "name": "",
          "type": "uint256[]"
        },
        {
          "internalType": "uint256[]",
          "name": "",
          "type": "uint256[]"
        },
        {
          "internalType": "bytes",
          "name": "",
          "type": "bytes"
        }
      ],
      "name": "onERC1155BatchReceived",
      "outputs": [
        {
          "internalType": "bytes4",
          "name": "",
          "type": "bytes4"
        }
      ],
      "stateMutability": "nonpayable",
      "type": "function"
    },
    {
      "inputs": [
        {
          "internalType": "address",
          "name": "",
          "type": "address"
        },
        {
          "internalType": "address",
          "name": "",
          "type": "address"
        },
        {
          "internalType": "uint256",
          "name": "",
          "type": "uint256"
        },
        {
          "internalType": "uint256",
          "name": "",
          "type": "uint256"
        },
        {
          "internalType": "bytes",
          "name": "",
          "type": "bytes"
        }
      ],
      "name": "onERC1155Received",
      "outputs": [
        {
          "internalType": "bytes4",
          "name": "",
          "type": "bytes4"
        }
      ],
      "stateMutability": "nonpayable",
      "type": "function"
    },
    {
      "inputs": [
        {
          "internalType": "address",
          "name": "",
          "type": "address"
        },
        {
          "internalType": "address",
          "name": "",
          "type": "address"
        },
        {
          "internalType": "uint256",
          "name": "",
          "type": "uint256"
        },
        {
          "internalType": "bytes",
          "name": "",
          "type": "bytes"
        }
      ],
      "name": "onERC721Received",
      "outputs": [
        {
          "internalType": "bytes4",
          "name": "",
          "type": "bytes4"
        }
      ],
      "stateMutability": "nonpayable",
      "type": "function"
    },
    {
      "inputs": [
        {
          "internalType": "bytes4",
          "name": "interfaceId",
          "type": "bytes4"
        }
      ],
      "name": "supportsInterface",
      "outputs": [
        {
          "internalType": "bool",
          "name": "",
          "type": "bool"
        }
      ],
      "stateMutability": "view",
      "type": "function"
    },
    {
      "inputs": [
        {
          "internalType": "uint256",
          "name": "_auctionId",
          "type": "uint256"
        },
        {
          "internalType": "uint256",
          "name": "_endsIn",
          "type": "uint256"
        }
      ],
      "name": "updateEndTime",
      "outputs": [
        {
          "internalType": "bool",
          "name": "updated",
          "type": "bool"
        }
      ],
      "stateMutability": "nonpayable",
      "type": "function"
    }
  ],
  "bytecode": "0x60a060405234801561001057600080fd5b50604051611dcf380380611dcf83398101604081905261002f91610049565b600160005560601b6001600160601b031916608052610079565b60006020828403121561005b57600080fd5b81516001600160a01b038116811461007257600080fd5b9392505050565b60805160601c611d236100ac6000396000818161033c015281816103f101528181610cd00152610d710152611d236000f3fe608060405234801561001057600080fd5b50600436106100c55760003560e01c806301ffc9a7146100ca57806310782f8f146100f2578063150b7a021461010a5780634690484014610141578063575ffe7a14610173578063598647f8146101865780636cc031241461019957806378bd7935146101a3578063a001ecdd146101c3578063bc197c81146101ee578063bd4b04d41461020d578063d846349e14610220578063e44542df14610241578063f23a6e6114610254578063f6a8981014610273575b600080fd5b6100dd6100d836600461195a565b610293565b60405190151581526020015b60405180910390f35b6001546100fc9081565b6040519081526020016100e9565b6101286101183660046117f8565b630a85bd0160e11b949350505050565b6040516001600160e01b031990911681526020016100e9565b60035461015b90600160601b90046001600160a01b031681565b6040516001600160a01b0390911681526020016100e9565b6100fc610181366004611984565b6102ca565b6100dd61019436600461199d565b6102d5565b6002546100fc9081565b6101b66101b1366004611984565b6105f4565b6040516100e99190611b0f565b6003546101d6906001600160601b031681565b6040516001600160601b0390911681526020016100e9565b6101286101fc36600461174b565b63bc197c8160e01b95945050505050565b6100fc61021b3660046118cb565b6106fc565b61023361022e366004611984565b61092a565b6040516100e9929190611bc3565b6100dd61024f36600461199d565b610940565b610128610262366004611863565b63f23a6e6160e01b95945050505050565b610286610281366004611984565b610a25565b6040516100e99190611a71565b60006001600160e01b03198216630271189760e51b14806102c457506301ffc9a760e01b6001600160e01b03198316145b92915050565b60006102c482610fc7565b6000600260005414156103035760405162461bcd60e51b81526004016102fa90611ad8565b60405180910390fd5b600260005582826103148282611120565b60008581526004602081905260409182902091516323b872dd60e01b81526001600160a01b037f000000000000000000000000000000000000000000000000000000000000000016916323b872dd9161037391339130918b9101611a09565b602060405180830381600087803b15801561038d57600080fd5b505af11580156103a1573d6000803e3d6000fd5b505050506040513d601f19601f820116820180604052508101906103c59190611938565b5060098101541561047f576001810154600682015460405163a9059cbb60e01b81526001600160a01b037f000000000000000000000000000000000000000000000000000000000000000081169363a9059cbb9361042b939190921691906004016119f0565b602060405180830381600087803b15801561044557600080fd5b505af1158015610459573d6000803e3d6000fd5b505050506040513d601f19601f8201168201806040525081019061047d9190611938565b505b6001810180546001600160a01b03191633179055600681018590556009810180549060006104ac83611ca1565b90915550506002810154600382015460405188926001600160a01b03169133917f911d834cc781bcb7a08922b9dd1f1d175c0a0467d9705194c2e200f8ce2786bb916104f9918b90611bc3565b60405180910390a4600061050c8761135e565b915050610e108110156105e157610e1061052882610258611c31565b11156105585761053a81610e10611c8a565b82600801600082825461054d9190611c31565b925050819055610575565b61025882600801600082825461056e9190611c31565b9250508190555b5060006105818861135e565b600285015460038601549193508a92506001600160a01b03169033907ff3f8c69115d9f33b41d0ae7a8f88fb8cde222311d82702dc55025079d0eca53a906105c98642611c31565b6040516105d7929190611bc3565b60405180910390a4505b6001945050505050600160005592915050565b6105fc6115b3565b60008281526004602081815260409283902083516101808101855281546001600160a01b0390811682526001808401548216948301949094526002830154169481019490945260038101546060850152918201546080840152600582015460a0840152600682015460c0840152600782015460e084015260088201546101008401526009820154610120840152600a82015461014084019160ff909116908111156106a9576106a9611cd2565b60018111156106ba576106ba611cd2565b8152602001600a820160019054906101000a900460ff1660028111156106e2576106e2611cd2565b60028111156106f3576106f3611cd2565b90525092915050565b600061070c600180546001019055565b50600154836107505760405162461bcd60e51b815260206004820152601060248201526f24a72b20a624a22fa22aa920aa24a7a760811b60448201526064016102fa565b600082600181111561076457610764611cd2565b1415610865576040516331a9108f60e11b81526004810188905288906000906001600160a01b03831690636352211e9060240160206040518083038186803b1580156107af57600080fd5b505afa1580156107c3573d6000803e3d6000fd5b505050506040513d601f19601f820116820180604052508101906107e79190611727565b604051632142170760e11b81529091506001600160a01b038316906342842e0e9061081a90849030908e90600401611a09565b600060405180830381600087803b15801561083457600080fd5b505af1158015610848573d6000803e3d6000fd5b5050505061085e8a848b60018b8b8b60006114b0565b505061091f565b600086116108a65760405162461bcd60e51b815260206004820152600e60248201526d1253959053125117d05353d5539560921b60448201526064016102fa565b604051637921219560e11b815288906001600160a01b0382169063f242432a906108da90339030908d908d90600401611a2d565b600060405180830381600087803b1580156108f457600080fd5b505af1158015610908573d6000803e3d6000fd5b5050505061091d89838a8a8a8a8a60016114b0565b505b979650505050505050565b6000806109368361135e565b9094909350915050565b600082815260046020526040812080546001600160a01b031633146109955760405162461bcd60e51b815260206004820152600b60248201526a27a7262cafa9a2a62622a960a91b60448201526064016102fa565b42816007015411156109b95760405162461bcd60e51b81526004016102fa90611aab565b6109c38342611c31565b600882018190556002820154600383015460405187936001600160a01b039093169233927fef21c10270bf7c06ec6bdcbcb5a9b3eadf05a5426cfe77d674388eb1c057514992610a139290611bc3565b60405180910390a45060019392505050565b600060026000541415610a4a5760405162461bcd60e51b81526004016102fa90611ad8565b6002600090815582815260046020526040812090600a820154610100900460ff166002811115610a7c57610a7c611cd2565b14610a995760405162461bcd60e51b81526004016102fa90611a7f565b600080610aa58561135e565b9150915081600014610ac95760405162461bcd60e51b81526004016102fa90611aab565b8015610b0b5760405162461bcd60e51b8152602060048201526011602482015270105550d51253d397d393d517d153911151607a1b60448201526064016102fa565b600683015480610c81576000600a85015460ff166001811115610b3057610b30611cd2565b14610bb057600284015484546003860154600480880154604051637921219560e11b81526001600160a01b039586169563f242432a95610b799530959190921693919201611a2d565b600060405180830381600087803b158015610b9357600080fd5b505af1158015610ba7573d6000803e3d6000fd5b50505050610c21565b600284015484546003860154604051632142170760e11b81526001600160a01b03938416936342842e0e93610bee9330939290911691600401611a09565b600060405180830381600087803b158015610c0857600080fd5b505af1158015610c1c573d6000803e3d6000fd5b505050505b600a8401805461ff00191661010017905560028401546003850154604080519182525188926001600160a01b03169133917f57bfd08a841d5d478e4fef268a8b041c65e389dddfa00f8c4a88a9d4fd9bc8249181900360200190a4610f9f565b600354600090620186a090610ca09084906001600160601b0316611c6b565b610caa9190611c49565b600186015460035460405163a9059cbb60e01b81529293506001600160a01b03918216927f000000000000000000000000000000000000000000000000000000000000000083169263a9059cbb92610d1292600160601b9091049091169086906004016119f0565b602060405180830381600087803b158015610d2c57600080fd5b505af1158015610d40573d6000803e3d6000fd5b505050506040513d601f19601f82011682018060405250810190610d649190611938565b5085546001600160a01b037f000000000000000000000000000000000000000000000000000000000000000081169163a9059cbb9116610da48587611c8a565b6040518363ffffffff1660e01b8152600401610dc19291906119f0565b602060405180830381600087803b158015610ddb57600080fd5b505af1158015610def573d6000803e3d6000fd5b505050506040513d601f19601f82011682018060405250810190610e139190611938565b506000600a87015460ff166001811115610e2f57610e2f611cd2565b14610eaa5760028601546003870154600480890154604051637921219560e11b81526001600160a01b039094169363f242432a93610e739330938893909101611a2d565b600060405180830381600087803b158015610e8d57600080fd5b505af1158015610ea1573d6000803e3d6000fd5b50505050610f16565b60028601546003870154604051632142170760e11b81526001600160a01b03909216916342842e0e91610ee39130918691600401611a09565b600060405180830381600087803b158015610efd57600080fd5b505af1158015610f11573d6000803e3d6000fd5b505050505b600a8601805461020061ff00199091161790556002860154865460038801546004890154604080516001600160a01b0394851681528685166020820152908101929092526060820152608081018690528a92919091169033907f31c8601b5dd4c4e31751f64d3545cc33889c92681a65811a7f4575b3ae26d5569060a00160405180910390a450505b610fad600280546001019055565b505050600a01546001600055610100900460ff1692915050565b600081815260046020818152604080842081516101808101835281546001600160a01b0390811682526001808401548216958301959095526002830154169281019290925260038101546060830152928301546080820152600583015460a0820152600683015460c0820152600783015460e082015260088301546101008201526009830154610120820152600a8301548493919261014084019160ff169081111561107557611075611cd2565b600181111561108657611086611cd2565b8152602001600a820160019054906101000a900460ff1660028111156110ae576110ae611cd2565b60028111156110bf576110bf611cd2565b90525080519091506001600160a01b0316156111175760c0810151806110ea575060a0015192915050565b80620186a06110fb82612710611c6b565b6111059190611c49565b61110f9190611c31565b949350505050565b50600092915050565b600082815260046020818152604080842081516101808101835281546001600160a01b0390811682526001808401548216958301959095526002830154169281019290925260038101546060830152928301546080820152600583015460a0820152600683015460c0820152600783015460e082015260088301546101008201526009830154610120820152600a83015490929161014084019160ff16908111156111cd576111cd611cd2565b60018111156111de576111de611cd2565b8152602001600a820160019054906101000a900460ff16600281111561120657611206611cd2565b600281111561121757611217611cd2565b9052506101008101519091506000826101600151600281111561123c5761123c611cd2565b146112595760405162461bcd60e51b81526004016102fa90611a7f565b81516001600160a01b03163314156112a65760405162461bcd60e51b815260206004820152601060248201526f13d5d3915497d0d0539393d517d0925160821b60448201526064016102fa565b428260e0015111156112ca5760405162461bcd60e51b81526004016102fa90611aab565b4281116113095760405162461bcd60e51b815260206004820152600d60248201526c105550d51253d397d153911151609a1b60448201526064016102fa565b61131284610fc7565b8310156113585760405162461bcd60e51b81526020600482015260146024820152731253959053125117d25394155517d05353d5539560621b60448201526064016102fa565b50505050565b600081815260046020818152604080842081516101808101835281546001600160a01b0390811682526001808401548216958301959095526002830154169281019290925260038101546060830152928301546080820152600583015460a0820152600683015460c0820152600783015460e082015260088301546101008201526009830154610120820152600a83015484938493909161014084019160ff9091169081111561141057611410611cd2565b600181111561142157611421611cd2565b8152602001600a820160019054906101000a900460ff16600281111561144957611449611cd2565b600281111561145a5761145a611cd2565b815250509050428160e0015111611472576000611482565b428160e001516114829190611c8a565b925042816101000151116114975760006114a8565b428161010001516114a89190611c8a565b915050915091565b6000878152600460205260408120906114c98642611c31565b905060006114d78683611c31565b6002840180546001600160a01b038e166001600160a01b031991821617909155600385018b905560078501849055600885018290558454163317845560058401869055600a84018054919250859160ff19166001838181111561153c5761153c611cd2565b021790555060048301889055600a8301805461ff00191690556040518a906001600160a01b038d169033907f199f73ece82f19f692dcb7db8f91f2527bd3158ffae28e226d7ef02df70435349061159e908e908e908c908a908a908e90611bd1565b60405180910390a45050505050505050505050565b60405180610180016040528060006001600160a01b0316815260200160006001600160a01b0316815260200160006001600160a01b03168152602001600081526020016000815260200160008152602001600081526020016000815260200160008152602001600081526020016000600181111561163357611633611cd2565b81526020016000905290565b600082601f83011261165057600080fd5b813560206001600160401b0382111561166b5761166b611ce8565b8160051b61167a828201611c01565b83815282810190868401838801850189101561169557600080fd5b600093505b8584101561091d57803583526001939093019291840191840161169a565b600082601f8301126116c957600080fd5b81356001600160401b038111156116e2576116e2611ce8565b6116f5601f8201601f1916602001611c01565b81815284602083860101111561170a57600080fd5b816020850160208301376000918101602001919091529392505050565b60006020828403121561173957600080fd5b815161174481611cfe565b9392505050565b600080600080600060a0868803121561176357600080fd5b853561176e81611cfe565b9450602086013561177e81611cfe565b935060408601356001600160401b038082111561179a57600080fd5b6117a689838a0161163f565b945060608801359150808211156117bc57600080fd5b6117c889838a0161163f565b935060808801359150808211156117de57600080fd5b506117eb888289016116b8565b9150509295509295909350565b6000806000806080858703121561180e57600080fd5b843561181981611cfe565b9350602085013561182981611cfe565b92506040850135915060608501356001600160401b0381111561184b57600080fd5b611857878288016116b8565b91505092959194509250565b600080600080600060a0868803121561187b57600080fd5b853561188681611cfe565b9450602086013561189681611cfe565b9350604086013592506060860135915060808601356001600160401b038111156118bf57600080fd5b6117eb888289016116b8565b600080600080600080600060e0888a0312156118e657600080fd5b87356118f181611cfe565b96506020880135955060408801359450606088013593506080880135925060a0880135915060c08801356002811061192857600080fd5b8091505092959891949750929550565b60006020828403121561194a57600080fd5b8151801515811461174457600080fd5b60006020828403121561196c57600080fd5b81356001600160e01b03198116811461174457600080fd5b60006020828403121561199657600080fd5b5035919050565b600080604083850312156119b057600080fd5b50508035926020909101359150565b6001600160a01b03169052565b600381106119dc576119dc611cd2565b9052565b600281106119dc576119dc611cd2565b6001600160a01b03929092168252602082015260400190565b6001600160a01b039384168152919092166020820152604081019190915260600190565b6001600160a01b0394851681529290931660208301526040820152606081019190915260a0608082018190526003908201526203078360ec1b60c082015260e00190565b602081016102c482846119cc565b602080825260129082015271105550d51253d397d393d517d31254d5115160721b604082015260600190565b602080825260139082015272105550d51253d397d393d517d4d51054951151606a1b604082015260600190565b6020808252601f908201527f5265656e7472616e637947756172643a207265656e7472616e742063616c6c00604082015260600190565b600061018082019050611b238284516119bf565b6020830151611b3560208401826119bf565b506040830151611b4860408401826119bf565b50606083015160608301526080830151608083015260a083015160a083015260c083015160c083015260e083015160e083015261010080840151818401525061012080840151818401525061014080840151611ba6828501826119e0565b505061016080840151611bbb828501826119cc565b505092915050565b918252602082015260400190565b600060c08201905087825286602083015285604083015284606083015283608083015261091f60a08301846119e0565b604051601f8201601f191681016001600160401b0381118282101715611c2957611c29611ce8565b604052919050565b60008219821115611c4457611c44611cbc565b500190565b600082611c6657634e487b7160e01b600052601260045260246000fd5b500490565b6000816000190483118215151615611c8557611c85611cbc565b500290565b600082821015611c9c57611c9c611cbc565b500390565b6000600019821415611cb557611cb5611cbc565b5060010190565b634e487b7160e01b600052601160045260246000fd5b634e487b7160e01b600052602160045260246000fd5b634e487b7160e01b600052604160045260246000fd5b6001600160a01b0381168114611d1357600080fd5b5056fea164736f6c6343000806000a",
  "linkReferences": {},
  "deployedLinkReferences": {}
}