{
  "_format": "hh-sol-artifact-1",
  "contractName": "RC3_Auction",
  "sourceName": "contracts/RC3_Auction.sol",
  "abi": [
    {
      "inputs": [
        {
          "internalType": "address",
          "name": "_rcdy",
          "type": "address"
        }
      ],
      "stateMutability": "nonpayable",
      "type": "constructor"
    },
    {
      "anonymous": false,
      "inputs": [
        {
          "indexed": true,
          "internalType": "address",
          "name": "caller",
          "type": "address"
        },
        {
          "indexed": true,
          "internalType": "address",
          "name": "nft",
          "type": "address"
        },
        {
          "indexed": true,
          "internalType": "uint256",
          "name": "auctionId",
          "type": "uint256"
        },
        {
          "indexed": false,
          "internalType": "uint256",
          "name": "tokenID",
          "type": "uint256"
        }
      ],
      "name": "AuctionCancelled",
      "type": "event"
    },
    {
      "anonymous": false,
      "inputs": [
        {
          "indexed": true,
          "internalType": "address",
          "name": "caller",
          "type": "address"
        },
        {
          "indexed": false,
          "internalType": "address",
          "name": "seller",
          "type": "address"
        },
        {
          "indexed": false,
          "internalType": "address",
          "name": "highestBidder",
          "type": "address"
        },
        {
          "indexed": true,
          "internalType": "address",
          "name": "nft",
          "type": "address"
        },
        {
          "indexed": true,
          "internalType": "uint256",
          "name": "auctionId",
          "type": "uint256"
        },
        {
          "indexed": false,
          "internalType": "uint256",
          "name": "tokenId",
          "type": "uint256"
        },
        {
          "indexed": false,
          "internalType": "uint256",
          "name": "amount",
          "type": "uint256"
        },
        {
          "indexed": false,
          "internalType": "uint256",
          "name": "winPrice",
          "type": "uint256"
        }
      ],
      "name": "AuctionResulted",
      "type": "event"
    },
    {
      "anonymous": false,
      "inputs": [
        {
          "indexed": true,
          "internalType": "address",
          "name": "bidder",
          "type": "address"
        },
        {
          "indexed": true,
          "internalType": "address",
          "name": "nft",
          "type": "address"
        },
        {
          "indexed": true,
          "internalType": "uint256",
          "name": "auctionId",
          "type": "uint256"
        },
        {
          "indexed": false,
          "internalType": "uint256",
          "name": "_tokenId",
          "type": "uint256"
        },
        {
          "indexed": false,
          "internalType": "uint256",
          "name": "newEndPeriod",
          "type": "uint256"
        }
      ],
      "name": "AuctionUpdated",
      "type": "event"
    },
    {
      "anonymous": false,
      "inputs": [
        {
          "indexed": true,
          "internalType": "address",
          "name": "creator",
          "type": "address"
        },
        {
          "indexed": true,
          "internalType": "address",
          "name": "nft",
          "type": "address"
        },
        {
          "indexed": true,
          "internalType": "uint256",
          "name": "auctionId",
          "type": "uint256"
        },
        {
          "indexed": false,
          "internalType": "uint256",
          "name": "tokenId",
          "type": "uint256"
        },
        {
          "indexed": false,
          "internalType": "uint256",
          "name": "newEndTime",
          "type": "uint256"
        }
      ],
      "name": "EndTimeUpdated",
      "type": "event"
    },
    {
      "anonymous": false,
      "inputs": [
        {
          "indexed": true,
          "internalType": "address",
          "name": "seller",
          "type": "address"
        },
        {
          "indexed": true,
          "internalType": "address",
          "name": "nft",
          "type": "address"
        },
        {
          "indexed": true,
          "internalType": "uint256",
          "name": "auctionId",
          "type": "uint256"
        },
        {
          "indexed": false,
          "internalType": "uint256",
          "name": "tokenId",
          "type": "uint256"
        },
        {
          "indexed": false,
          "internalType": "uint256",
          "name": "amount",
          "type": "uint256"
        },
        {
          "indexed": false,
          "internalType": "uint256",
          "name": "floorPrice",
          "type": "uint256"
        },
        {
          "indexed": false,
          "internalType": "uint256",
          "name": "startPeriod",
          "type": "uint256"
        },
        {
          "indexed": false,
          "internalType": "uint256",
          "name": "endPeriod",
          "type": "uint256"
        },
        {
          "indexed": false,
          "internalType": "enum RC3_Auction.TokenType",
          "name": "tokenType",
          "type": "uint8"
        }
      ],
      "name": "NewAuction",
      "type": "event"
    },
    {
      "anonymous": false,
      "inputs": [
        {
          "indexed": true,
          "internalType": "address",
          "name": "bidder",
          "type": "address"
        },
        {
          "indexed": true,
          "internalType": "address",
          "name": "nft",
          "type": "address"
        },
        {
          "indexed": true,
          "internalType": "uint256",
          "name": "auctionId",
          "type": "uint256"
        },
        {
          "indexed": false,
          "internalType": "uint256",
          "name": "tokenId",
          "type": "uint256"
        },
        {
          "indexed": false,
          "internalType": "uint256",
          "name": "price",
          "type": "uint256"
        }
      ],
      "name": "NewBid",
      "type": "event"
    },
    {
      "inputs": [],
      "name": "auctionId",
      "outputs": [
        {
          "internalType": "uint256",
          "name": "_value",
          "type": "uint256"
        }
      ],
      "stateMutability": "view",
      "type": "function"
    },
    {
      "inputs": [],
      "name": "auctionsClosed",
      "outputs": [
        {
          "internalType": "uint256",
          "name": "_value",
          "type": "uint256"
        }
      ],
      "stateMutability": "view",
      "type": "function"
    },
    {
      "inputs": [
        {
          "internalType": "uint256",
          "name": "_auctionId",
          "type": "uint256"
        },
        {
          "internalType": "uint256",
          "name": "_bidAmount",
          "type": "uint256"
        }
      ],
      "name": "bid",
      "outputs": [
        {
          "internalType": "bool",
          "name": "bidded",
          "type": "bool"
        }
      ],
      "stateMutability": "nonpayable",
      "type": "function"
    },
    {
      "inputs": [
        {
          "internalType": "uint256",
          "name": "_auctionId",
          "type": "uint256"
        }
      ],
      "name": "bidTimeRemaining",
      "outputs": [
        {
          "internalType": "uint256",
          "name": "startsIn",
          "type": "uint256"
        },
        {
          "internalType": "uint256",
          "name": "endsIn",
          "type": "uint256"
        }
      ],
      "stateMutability": "view",
      "type": "function"
    },
    {
      "inputs": [
        {
          "internalType": "uint256",
          "name": "_auctionId",
          "type": "uint256"
        }
      ],
      "name": "closeBid",
      "outputs": [
        {
          "internalType": "enum RC3_Auction.State",
          "name": "status",
          "type": "uint8"
        }
      ],
      "stateMutability": "nonpayable",
      "type": "function"
    },
    {
      "inputs": [],
      "name": "feePercentage",
      "outputs": [
        {
          "internalType": "uint96",
          "name": "",
          "type": "uint96"
        }
      ],
      "stateMutability": "view",
      "type": "function"
    },
    {
      "inputs": [],
      "name": "feeRecipient",
      "outputs": [
        {
          "internalType": "address payable",
          "name": "",
          "type": "address"
        }
      ],
      "stateMutability": "view",
      "type": "function"
    },
    {
      "inputs": [
        {
          "internalType": "uint256",
          "name": "_auctionId",
          "type": "uint256"
        }
      ],
      "name": "getAuction",
      "outputs": [
        {
          "components": [
            {
              "internalType": "address payable",
              "name": "seller",
              "type": "address"
            },
            {
              "internalType": "address payable",
              "name": "highestBidder",
              "type": "address"
            },
            {
              "internalType": "address",
              "name": "nifty",
              "type": "address"
            },
            {
              "internalType": "uint256",
              "name": "tokenId",
              "type": "uint256"
            },
            {
              "internalType": "uint256",
              "name": "tokenAmount",
              "type": "uint256"
            },
            {
              "internalType": "uint256",
              "name": "initialBidAmount",
              "type": "uint256"
            },
            {
              "internalType": "uint256",
              "name": "highestBidAmount",
              "type": "uint256"
            },
            {
              "internalType": "uint256",
              "name": "startPeriod",
              "type": "uint256"
            },
            {
              "internalType": "uint256",
              "name": "endPeriod",
              "type": "uint256"
            },
            {
              "internalType": "uint256",
              "name": "bidCount",
              "type": "uint256"
            },
            {
              "internalType": "enum RC3_Auction.TokenType",
              "name": "tokenType",
              "type": "uint8"
            },
            {
              "internalType": "enum RC3_Auction.State",
              "name": "state",
              "type": "uint8"
            }
          ],
          "internalType": "struct RC3_Auction.Auction",
          "name": "",
          "type": "tuple"
        }
      ],
      "stateMutability": "view",
      "type": "function"
    },
    {
      "inputs": [
        {
          "internalType": "address",
          "name": "nifty",
          "type": "address"
        },
        {
          "internalType": "uint256",
          "name": "_tokenId",
          "type": "uint256"
        },
        {
          "internalType": "uint256",
          "name": "amount",
          "type": "uint256"
        },
        {
          "internalType": "uint256",
          "name": "_startsIn",
          "type": "uint256"
        },
        {
          "internalType": "uint256",
          "name": "_lastsFor",
          "type": "uint256"
        },
        {
          "internalType": "uint256",
          "name": "_initialBidAmount",
          "type": "uint256"
        },
        {
          "internalType": "enum RC3_Auction.TokenType",
          "name": "_type",
          "type": "uint8"
        }
      ],
      "name": "listAuction",
      "outputs": [
        {
          "internalType": "uint256",
          "name": "auctionId_",
          "type": "uint256"
        }
      ],
      "stateMutability": "nonpayable",
      "type": "function"
    },
    {
      "inputs": [
        {
          "internalType": "uint256",
          "name": "_auctionId",
          "type": "uint256"
        }
      ],
      "name": "nextBidAmount",
      "outputs": [
        {
          "internalType": "uint256",
          "name": "amount",
          "type": "uint256"
        }
      ],
      "stateMutability": "view",
      "type": "function"
    },
    {
      "inputs": [
        {
          "internalType": "address",
          "name": "",
          "type": "address"
        },
        {
          "internalType": "address",
          "name": "",
          "type": "address"
        },
        {
          "internalType": "uint256[]",
          "name": "",
          "type": "uint256[]"
        },
        {
          "internalType": "uint256[]",
          "name": "",
          "type": "uint256[]"
        },
        {
          "internalType": "bytes",
          "name": "",
          "type": "bytes"
        }
      ],
      "name": "onERC1155BatchReceived",
      "outputs": [
        {
          "internalType": "bytes4",
          "name": "",
          "type": "bytes4"
        }
      ],
      "stateMutability": "nonpayable",
      "type": "function"
    },
    {
      "inputs": [
        {
          "internalType": "address",
          "name": "",
          "type": "address"
        },
        {
          "internalType": "address",
          "name": "",
          "type": "address"
        },
        {
          "internalType": "uint256",
          "name": "",
          "type": "uint256"
        },
        {
          "internalType": "uint256",
          "name": "",
          "type": "uint256"
        },
        {
          "internalType": "bytes",
          "name": "",
          "type": "bytes"
        }
      ],
      "name": "onERC1155Received",
      "outputs": [
        {
          "internalType": "bytes4",
          "name": "",
          "type": "bytes4"
        }
      ],
      "stateMutability": "nonpayable",
      "type": "function"
    },
    {
      "inputs": [
        {
          "internalType": "address",
          "name": "",
          "type": "address"
        },
        {
          "internalType": "address",
          "name": "",
          "type": "address"
        },
        {
          "internalType": "uint256",
          "name": "",
          "type": "uint256"
        },
        {
          "internalType": "bytes",
          "name": "",
          "type": "bytes"
        }
      ],
      "name": "onERC721Received",
      "outputs": [
        {
          "internalType": "bytes4",
          "name": "",
          "type": "bytes4"
        }
      ],
      "stateMutability": "nonpayable",
      "type": "function"
    },
    {
      "inputs": [
        {
          "internalType": "bytes4",
          "name": "interfaceId",
          "type": "bytes4"
        }
      ],
      "name": "supportsInterface",
      "outputs": [
        {
          "internalType": "bool",
          "name": "",
          "type": "bool"
        }
      ],
      "stateMutability": "view",
      "type": "function"
    },
    {
      "inputs": [
        {
          "internalType": "uint256",
          "name": "_auctionId",
          "type": "uint256"
        },
        {
          "internalType": "uint256",
          "name": "_endsIn",
          "type": "uint256"
        }
      ],
      "name": "updateEndTime",
      "outputs": [
        {
          "internalType": "bool",
          "name": "updated",
          "type": "bool"
        }
      ],
      "stateMutability": "nonpayable",
      "type": "function"
    }
  ],
  "bytecode": "0x60a060405234801561001057600080fd5b50604051611dac380380611dac83398101604081905261002f91610062565b6001600081905580546001600160a01b0319166001600160a01b0392909216919091179055610c3560a51b608052610092565b60006020828403121561007457600080fd5b81516001600160a01b038116811461008b57600080fd5b9392505050565b60805160a01c611cf56100b760003960008181610c55015261109d0152611cf56000f3fe608060405234801561001057600080fd5b50600436106100c55760003560e01c806301ffc9a7146100ca57806310782f8f146100f2578063150b7a021461010a5780634690484014610141578063575ffe7a14610173578063598647f8146101865780636cc031241461019957806378bd7935146101a3578063a001ecdd146101c3578063bc197c81146101ee578063bd4b04d41461020d578063d846349e14610220578063e44542df14610241578063f23a6e6114610254578063f6a8981014610273575b600080fd5b6100dd6100d836600461192c565b610293565b60405190151581526020015b60405180910390f35b6002546100fc9081565b6040519081526020016100e9565b6101286101183660046117ca565b630a85bd0160e11b949350505050565b6040516001600160e01b031990911681526020016100e9565b60045461015b90600160601b90046001600160a01b031681565b6040516001600160a01b0390911681526020016100e9565b6100fc610181366004611956565b6102ca565b6100dd61019436600461196f565b6102d5565b6003546100fc9081565b6101b66101b1366004611956565b6105b8565b6040516100e99190611ae1565b6004546101d6906001600160601b031681565b6040516001600160601b0390911681526020016100e9565b6101286101fc36600461171d565b63bc197c8160e01b95945050505050565b6100fc61021b36600461189d565b6106c0565b61023361022e366004611956565b6108ee565b6040516100e9929190611b95565b6100dd61024f36600461196f565b610903565b610128610262366004611835565b63f23a6e6160e01b95945050505050565b610286610281366004611956565b6109e8565b6040516100e99190611a43565b60006001600160e01b03198216630271189760e51b14806102c457506301ffc9a760e01b6001600160e01b03198316145b92915050565b60006102c482610f6f565b6000600260005414156103035760405162461bcd60e51b81526004016102fa90611aaa565b60405180910390fd5b6002600055828261031482826110ee565b6000858152600560205260409081902060015491516323b872dd60e01b815290916001600160a01b0316906323b872dd9061035790339030908a906004016119db565b602060405180830381600087803b15801561037157600080fd5b505af1158015610385573d6000803e3d6000fd5b505050506040513d601f19601f820116820180604052508101906103a9919061190a565b50600981015415610443576001805490820154600683015460405163a9059cbb60e01b81526001600160a01b039384169363a9059cbb936103ef939116916004016119c2565b602060405180830381600087803b15801561040957600080fd5b505af115801561041d573d6000803e3d6000fd5b505050506040513d601f19601f82011682018060405250810190610441919061190a565b505b6001810180546001600160a01b031916331790556006810185905560098101805490600061047083611c73565b90915550506002810154600382015460405188926001600160a01b03169133917f911d834cc781bcb7a08922b9dd1f1d175c0a0467d9705194c2e200f8ce2786bb916104bd918b90611b95565b60405180910390a460006104d08761132c565b915050610e108110156105a557610e106104ec82610258611c03565b111561051c576104fe81610e10611c5c565b8260080160008282546105119190611c03565b925050819055610539565b6102588260080160008282546105329190611c03565b9250508190555b5060006105458861132c565b600285015460038601549193508a92506001600160a01b03169033907ff3f8c69115d9f33b41d0ae7a8f88fb8cde222311d82702dc55025079d0eca53a9061058d8642611c03565b60405161059b929190611b95565b60405180910390a4505b6001945050505050600160005592915050565b6105c0611585565b60008281526005602081815260409283902083516101808101855281546001600160a01b0390811682526001808401548216948301949094526002830154169481019490945260038101546060850152600481015460808501529182015460a0840152600682015460c0840152600782015460e084015260088201546101008401526009820154610120840152600a82015461014084019160ff9091169081111561066d5761066d611ca4565b600181111561067e5761067e611ca4565b8152602001600a820160019054906101000a900460ff1660038111156106a6576106a6611ca4565b60038111156106b7576106b7611ca4565b90525092915050565b60006106d0600280546001019055565b50600254836107145760405162461bcd60e51b815260206004820152601060248201526f24a72b20a624a22fa22aa920aa24a7a760811b60448201526064016102fa565b600082600181111561072857610728611ca4565b1415610829576040516331a9108f60e11b81526004810188905288906000906001600160a01b03831690636352211e9060240160206040518083038186803b15801561077357600080fd5b505afa158015610787573d6000803e3d6000fd5b505050506040513d601f19601f820116820180604052508101906107ab91906116f9565b604051632142170760e11b81529091506001600160a01b038316906342842e0e906107de90849030908e906004016119db565b600060405180830381600087803b1580156107f857600080fd5b505af115801561080c573d6000803e3d6000fd5b505050506108228a848b60018b8b8b600061147e565b50506108e3565b6000861161086a5760405162461bcd60e51b815260206004820152600e60248201526d1253959053125117d05353d5539560921b60448201526064016102fa565b604051637921219560e11b815288906001600160a01b0382169063f242432a9061089e90339030908d908d906004016119ff565b600060405180830381600087803b1580156108b857600080fd5b505af11580156108cc573d6000803e3d6000fd5b505050506108e189838a8a8a8a8a600161147e565b505b979650505050505050565b6000806108fa8361132c565b91509150915091565b600082815260056020526040812080546001600160a01b031633146109585760405162461bcd60e51b815260206004820152600b60248201526a27a7262cafa9a2a62622a960a91b60448201526064016102fa565b428160070154111561097c5760405162461bcd60e51b81526004016102fa90611a7d565b6109868342611c03565b600882018190556002820154600383015460405187936001600160a01b039093169233927fef21c10270bf7c06ec6bdcbcb5a9b3eadf05a5426cfe77d674388eb1c0575149926109d69290611b95565b60405180910390a45060019392505050565b600060026000541415610a0d5760405162461bcd60e51b81526004016102fa90611aaa565b600260009081558281526005602052604090206001600a820154610100900460ff166003811115610a4057610a40611ca4565b14610a5d5760405162461bcd60e51b81526004016102fa90611a51565b600080610a698561132c565b9150915081600014610a8d5760405162461bcd60e51b81526004016102fa90611a7d565b8015610acf5760405162461bcd60e51b8152602060048201526011602482015270105550d51253d397d393d517d153911151607a1b60448201526064016102fa565b600683015480610c45576000600a85015460ff166001811115610af457610af4611ca4565b14610b7457600284015484546003860154600480880154604051637921219560e11b81526001600160a01b039586169563f242432a95610b3d95309591909216939192016119ff565b600060405180830381600087803b158015610b5757600080fd5b505af1158015610b6b573d6000803e3d6000fd5b50505050610be5565b600284015484546003860154604051632142170760e11b81526001600160a01b03938416936342842e0e93610bb293309392909116916004016119db565b600060405180830381600087803b158015610bcc57600080fd5b505af1158015610be0573d6000803e3d6000fd5b505050505b600a8401805461ff00191661020017905560028401546003850154604080519182525188926001600160a01b03169133917f57bfd08a841d5d478e4fef268a8b041c65e389dddfa00f8c4a88a9d4fd9bc8249181900360200190a4610f47565b6004546000906001600160601b037f0000000000000000000000000000000000000000000000000000000000000000811691610c8391859116611c3d565b610c8d9190611c1b565b60018087015490546004805460405163a9059cbb60e01b81529495506001600160a01b03938416949284169363a9059cbb93610cd793600160601b909304909116918791016119c2565b602060405180830381600087803b158015610cf157600080fd5b505af1158015610d05573d6000803e3d6000fd5b505050506040513d601f19601f82011682018060405250810190610d29919061190a565b5060015486546001600160a01b039182169163a9059cbb9116610d4c8587611c5c565b6040518363ffffffff1660e01b8152600401610d699291906119c2565b602060405180830381600087803b158015610d8357600080fd5b505af1158015610d97573d6000803e3d6000fd5b505050506040513d601f19601f82011682018060405250810190610dbb919061190a565b506000600a87015460ff166001811115610dd757610dd7611ca4565b14610e525760028601546003870154600480890154604051637921219560e11b81526001600160a01b039094169363f242432a93610e1b93309388939091016119ff565b600060405180830381600087803b158015610e3557600080fd5b505af1158015610e49573d6000803e3d6000fd5b50505050610ebe565b60028601546003870154604051632142170760e11b81526001600160a01b03909216916342842e0e91610e8b91309186916004016119db565b600060405180830381600087803b158015610ea557600080fd5b505af1158015610eb9573d6000803e3d6000fd5b505050505b600a8601805461030061ff00199091161790556002860154865460038801546004890154604080516001600160a01b0394851681528685166020820152908101929092526060820152608081018690528a92919091169033907f31c8601b5dd4c4e31751f64d3545cc33889c92681a65811a7f4575b3ae26d5569060a00160405180910390a450505b610f55600380546001019055565b505050600a01546001600055610100900460ff1692915050565b600081815260056020818152604080842081516101808101835281546001600160a01b0390811682526001808401548216958301959095526002830154169281019290925260038101546060830152600481015460808301529283015460a0820152600683015460c0820152600783015460e082015260088301546101008201526009830154610120820152600a8301548493919261014084019160ff169081111561101d5761101d611ca4565b600181111561102e5761102e611ca4565b8152602001600a820160019054906101000a900460ff16600381111561105657611056611ca4565b600381111561106757611067611ca4565b90525080519091506001600160a01b0316156110e55760c081015180611092575060a0015192915050565b806001600160601b037f0000000000000000000000000000000000000000000000000000000000000000166110c982612710611c3d565b6110d39190611c1b565b6110dd9190611c03565b949350505050565b50600092915050565b600082815260056020818152604080842081516101808101835281546001600160a01b0390811682526001808401548216958301959095526002830154169281019290925260038101546060830152600481015460808301529283015460a0820152600683015460c0820152600783015460e082015260088301546101008201526009830154610120820152600a83015490929161014084019160ff169081111561119b5761119b611ca4565b60018111156111ac576111ac611ca4565b8152602001600a820160019054906101000a900460ff1660038111156111d4576111d4611ca4565b60038111156111e5576111e5611ca4565b9052506101008101519091506001826101600151600381111561120a5761120a611ca4565b146112275760405162461bcd60e51b81526004016102fa90611a51565b81516001600160a01b03163314156112745760405162461bcd60e51b815260206004820152601060248201526f13d5d3915497d0d0539393d517d0925160821b60448201526064016102fa565b428260e0015111156112985760405162461bcd60e51b81526004016102fa90611a7d565b4281116112d75760405162461bcd60e51b815260206004820152600d60248201526c105550d51253d397d153911151609a1b60448201526064016102fa565b6112e084610f6f565b8310156113265760405162461bcd60e51b81526020600482015260146024820152731253959053125117d25394155517d05353d5539560621b60448201526064016102fa565b50505050565b600081815260056020818152604080842081516101808101835281546001600160a01b0390811682526001808401548216958301959095526002830154169281019290925260038101546060830152600481015460808301529283015460a0820152600683015460c0820152600783015460e082015260088301546101008201526009830154610120820152600a83015484938493909161014084019160ff909116908111156113de576113de611ca4565b60018111156113ef576113ef611ca4565b8152602001600a820160019054906101000a900460ff16600381111561141757611417611ca4565b600381111561142857611428611ca4565b815250509050428160e0015111611440576000611450565b428160e001516114509190611c5c565b92504281610100015111611465576000611476565b428161010001516114769190611c5c565b915050915091565b6000878152600560205260408120906114978642611c03565b905060006114a58683611c03565b6002840180546001600160a01b038e166001600160a01b031991821617909155600385018b905560078501849055600885018290558454163317845560058401869055600a84018054919250859160ff19166001838181111561150a5761150a611ca4565b021790555060048301889055600a8301805461ff0019166101001790556040518a906001600160a01b038d169033907f199f73ece82f19f692dcb7db8f91f2527bd3158ffae28e226d7ef02df704353490611570908e908e908c908a908a908e90611ba3565b60405180910390a45050505050505050505050565b60405180610180016040528060006001600160a01b0316815260200160006001600160a01b0316815260200160006001600160a01b03168152602001600081526020016000815260200160008152602001600081526020016000815260200160008152602001600081526020016000600181111561160557611605611ca4565b81526020016000905290565b600082601f83011261162257600080fd5b813560206001600160401b0382111561163d5761163d611cba565b8160051b61164c828201611bd3565b83815282810190868401838801850189101561166757600080fd5b600093505b858410156108e157803583526001939093019291840191840161166c565b600082601f83011261169b57600080fd5b81356001600160401b038111156116b4576116b4611cba565b6116c7601f8201601f1916602001611bd3565b8181528460208386010111156116dc57600080fd5b816020850160208301376000918101602001919091529392505050565b60006020828403121561170b57600080fd5b815161171681611cd0565b9392505050565b600080600080600060a0868803121561173557600080fd5b853561174081611cd0565b9450602086013561175081611cd0565b935060408601356001600160401b038082111561176c57600080fd5b61177889838a01611611565b9450606088013591508082111561178e57600080fd5b61179a89838a01611611565b935060808801359150808211156117b057600080fd5b506117bd8882890161168a565b9150509295509295909350565b600080600080608085870312156117e057600080fd5b84356117eb81611cd0565b935060208501356117fb81611cd0565b92506040850135915060608501356001600160401b0381111561181d57600080fd5b6118298782880161168a565b91505092959194509250565b600080600080600060a0868803121561184d57600080fd5b853561185881611cd0565b9450602086013561186881611cd0565b9350604086013592506060860135915060808601356001600160401b0381111561189157600080fd5b6117bd8882890161168a565b600080600080600080600060e0888a0312156118b857600080fd5b87356118c381611cd0565b96506020880135955060408801359450606088013593506080880135925060a0880135915060c0880135600281106118fa57600080fd5b8091505092959891949750929550565b60006020828403121561191c57600080fd5b8151801515811461171657600080fd5b60006020828403121561193e57600080fd5b81356001600160e01b03198116811461171657600080fd5b60006020828403121561196857600080fd5b5035919050565b6000806040838503121561198257600080fd5b50508035926020909101359150565b6001600160a01b03169052565b600481106119ae576119ae611ca4565b9052565b600281106119ae576119ae611ca4565b6001600160a01b03929092168252602082015260400190565b6001600160a01b039384168152919092166020820152604081019190915260600190565b6001600160a01b0394851681529290931660208301526040820152606081019190915260a0608082018190526003908201526203078360ec1b60c082015260e00190565b602081016102c4828461199e565b602080825260129082015271105550d51253d397d393d517d31254d5115160721b604082015260600190565b602080825260139082015272105550d51253d397d393d517d4d51054951151606a1b604082015260600190565b6020808252601f908201527f5265656e7472616e637947756172643a207265656e7472616e742063616c6c00604082015260600190565b600061018082019050611af5828451611991565b6020830151611b076020840182611991565b506040830151611b1a6040840182611991565b50606083015160608301526080830151608083015260a083015160a083015260c083015160c083015260e083015160e083015261010080840151818401525061012080840151818401525061014080840151611b78828501826119b2565b505061016080840151611b8d8285018261199e565b505092915050565b918252602082015260400190565b600060c0820190508782528660208301528560408301528460608301528360808301526108e360a08301846119b2565b604051601f8201601f191681016001600160401b0381118282101715611bfb57611bfb611cba565b604052919050565b60008219821115611c1657611c16611c8e565b500190565b600082611c3857634e487b7160e01b600052601260045260246000fd5b500490565b6000816000190483118215151615611c5757611c57611c8e565b500290565b600082821015611c6e57611c6e611c8e565b500390565b6000600019821415611c8757611c87611c8e565b5060010190565b634e487b7160e01b600052601160045260246000fd5b634e487b7160e01b600052602160045260246000fd5b634e487b7160e01b600052604160045260246000fd5b6001600160a01b0381168114611ce557600080fd5b5056fea164736f6c6343000806000a",
  "linkReferences": {},
  "deployedLinkReferences": {}
}