{
  "_format": "hh-sol-artifact-1",
  "contractName": "RC3_Auction",
  "sourceName": "contracts/RC3_Auction.sol",
  "abi": [
    {
      "inputs": [
        {
          "internalType": "address",
          "name": "_rcdy",
          "type": "address"
        }
      ],
      "stateMutability": "nonpayable",
      "type": "constructor"
    },
    {
      "anonymous": false,
      "inputs": [
        {
          "indexed": true,
          "internalType": "address",
          "name": "caller",
          "type": "address"
        },
        {
          "indexed": true,
          "internalType": "address",
          "name": "nft",
          "type": "address"
        },
        {
          "indexed": true,
          "internalType": "uint256",
          "name": "auctionId",
          "type": "uint256"
        },
        {
          "indexed": false,
          "internalType": "uint256",
          "name": "tokenID",
          "type": "uint256"
        }
      ],
      "name": "AuctionCancelled",
      "type": "event"
    },
    {
      "anonymous": false,
      "inputs": [
        {
          "indexed": true,
          "internalType": "address",
          "name": "caller",
          "type": "address"
        },
        {
          "indexed": false,
          "internalType": "address",
          "name": "seller",
          "type": "address"
        },
        {
          "indexed": false,
          "internalType": "address",
          "name": "highestBidder",
          "type": "address"
        },
        {
          "indexed": true,
          "internalType": "address",
          "name": "nft",
          "type": "address"
        },
        {
          "indexed": true,
          "internalType": "uint256",
          "name": "auctionId",
          "type": "uint256"
        },
        {
          "indexed": false,
          "internalType": "uint256",
          "name": "tokenId",
          "type": "uint256"
        },
        {
          "indexed": false,
          "internalType": "uint256",
          "name": "amount",
          "type": "uint256"
        },
        {
          "indexed": false,
          "internalType": "uint256",
          "name": "winPrice",
          "type": "uint256"
        }
      ],
      "name": "AuctionResulted",
      "type": "event"
    },
    {
      "anonymous": false,
      "inputs": [
        {
          "indexed": true,
          "internalType": "address",
          "name": "caller",
          "type": "address"
        },
        {
          "indexed": true,
          "internalType": "address",
          "name": "nft",
          "type": "address"
        },
        {
          "indexed": true,
          "internalType": "uint256",
          "name": "auctionId",
          "type": "uint256"
        },
        {
          "indexed": false,
          "internalType": "uint256",
          "name": "_tokenId",
          "type": "uint256"
        },
        {
          "indexed": false,
          "internalType": "uint256",
          "name": "newEndPeriod",
          "type": "uint256"
        }
      ],
      "name": "AuctionUpdated",
      "type": "event"
    },
    {
      "anonymous": false,
      "inputs": [
        {
          "indexed": true,
          "internalType": "address",
          "name": "creator",
          "type": "address"
        },
        {
          "indexed": true,
          "internalType": "address",
          "name": "nft",
          "type": "address"
        },
        {
          "indexed": true,
          "internalType": "uint256",
          "name": "auctionId",
          "type": "uint256"
        },
        {
          "indexed": false,
          "internalType": "uint256",
          "name": "tokenId",
          "type": "uint256"
        },
        {
          "indexed": false,
          "internalType": "uint256",
          "name": "newEndTime",
          "type": "uint256"
        }
      ],
      "name": "EndTimeUpdated",
      "type": "event"
    },
    {
      "anonymous": false,
      "inputs": [
        {
          "indexed": true,
          "internalType": "address",
          "name": "seller",
          "type": "address"
        },
        {
          "indexed": true,
          "internalType": "address",
          "name": "nft",
          "type": "address"
        },
        {
          "indexed": true,
          "internalType": "uint256",
          "name": "auctionId",
          "type": "uint256"
        },
        {
          "indexed": false,
          "internalType": "uint256",
          "name": "tokenId",
          "type": "uint256"
        },
        {
          "indexed": false,
          "internalType": "uint256",
          "name": "amount",
          "type": "uint256"
        },
        {
          "indexed": false,
          "internalType": "uint256",
          "name": "floorPrice",
          "type": "uint256"
        },
        {
          "indexed": false,
          "internalType": "uint256",
          "name": "startPeriod",
          "type": "uint256"
        },
        {
          "indexed": false,
          "internalType": "uint256",
          "name": "endPeriod",
          "type": "uint256"
        },
        {
          "indexed": false,
          "internalType": "enum RC3_Auction.TokenType",
          "name": "tokenType",
          "type": "uint8"
        }
      ],
      "name": "NewAuction",
      "type": "event"
    },
    {
      "anonymous": false,
      "inputs": [
        {
          "indexed": true,
          "internalType": "address",
          "name": "bidder",
          "type": "address"
        },
        {
          "indexed": true,
          "internalType": "address",
          "name": "nft",
          "type": "address"
        },
        {
          "indexed": true,
          "internalType": "uint256",
          "name": "auctionId",
          "type": "uint256"
        },
        {
          "indexed": false,
          "internalType": "uint256",
          "name": "tokenId",
          "type": "uint256"
        },
        {
          "indexed": false,
          "internalType": "uint256",
          "name": "price",
          "type": "uint256"
        }
      ],
      "name": "NewBid",
      "type": "event"
    },
    {
      "anonymous": false,
      "inputs": [
        {
          "indexed": true,
          "internalType": "address",
          "name": "previousOwner",
          "type": "address"
        },
        {
          "indexed": true,
          "internalType": "address",
          "name": "newOwner",
          "type": "address"
        }
      ],
      "name": "OwnershipTransferred",
      "type": "event"
    },
    {
      "inputs": [],
      "name": "auctionId",
      "outputs": [
        {
          "internalType": "uint256",
          "name": "_value",
          "type": "uint256"
        }
      ],
      "stateMutability": "view",
      "type": "function"
    },
    {
      "inputs": [],
      "name": "auctionsClosed",
      "outputs": [
        {
          "internalType": "uint256",
          "name": "_value",
          "type": "uint256"
        }
      ],
      "stateMutability": "view",
      "type": "function"
    },
    {
      "inputs": [
        {
          "internalType": "uint256",
          "name": "_auctionId",
          "type": "uint256"
        },
        {
          "internalType": "uint256",
          "name": "_bidAmount",
          "type": "uint256"
        }
      ],
      "name": "bid",
      "outputs": [
        {
          "internalType": "bool",
          "name": "bidded",
          "type": "bool"
        }
      ],
      "stateMutability": "nonpayable",
      "type": "function"
    },
    {
      "inputs": [
        {
          "internalType": "uint256",
          "name": "_auctionId",
          "type": "uint256"
        }
      ],
      "name": "bidTimeRemaining",
      "outputs": [
        {
          "internalType": "uint256",
          "name": "startsIn",
          "type": "uint256"
        },
        {
          "internalType": "uint256",
          "name": "endsIn",
          "type": "uint256"
        }
      ],
      "stateMutability": "view",
      "type": "function"
    },
    {
      "inputs": [
        {
          "internalType": "uint256",
          "name": "_auctionId",
          "type": "uint256"
        }
      ],
      "name": "closeBid",
      "outputs": [
        {
          "internalType": "enum RC3_Auction.State",
          "name": "status",
          "type": "uint8"
        }
      ],
      "stateMutability": "nonpayable",
      "type": "function"
    },
    {
      "inputs": [],
      "name": "feePercentage",
      "outputs": [
        {
          "internalType": "uint96",
          "name": "",
          "type": "uint96"
        }
      ],
      "stateMutability": "view",
      "type": "function"
    },
    {
      "inputs": [],
      "name": "feeReceipient",
      "outputs": [
        {
          "internalType": "address payable",
          "name": "",
          "type": "address"
        }
      ],
      "stateMutability": "view",
      "type": "function"
    },
    {
      "inputs": [
        {
          "internalType": "uint256",
          "name": "_auctionId",
          "type": "uint256"
        }
      ],
      "name": "getAuction",
      "outputs": [
        {
          "components": [
            {
              "internalType": "address payable",
              "name": "seller",
              "type": "address"
            },
            {
              "internalType": "address payable",
              "name": "highestBidder",
              "type": "address"
            },
            {
              "internalType": "address",
              "name": "nifty",
              "type": "address"
            },
            {
              "internalType": "uint256",
              "name": "tokenId",
              "type": "uint256"
            },
            {
              "internalType": "uint256",
              "name": "tokenAmount",
              "type": "uint256"
            },
            {
              "internalType": "uint256",
              "name": "initialBidAmount",
              "type": "uint256"
            },
            {
              "internalType": "uint256",
              "name": "highestBidAmount",
              "type": "uint256"
            },
            {
              "internalType": "uint256",
              "name": "startPeriod",
              "type": "uint256"
            },
            {
              "internalType": "uint256",
              "name": "endPeriod",
              "type": "uint256"
            },
            {
              "internalType": "uint256",
              "name": "bidCount",
              "type": "uint256"
            },
            {
              "internalType": "enum RC3_Auction.TokenType",
              "name": "tokenType",
              "type": "uint8"
            },
            {
              "internalType": "enum RC3_Auction.State",
              "name": "state",
              "type": "uint8"
            }
          ],
          "internalType": "struct RC3_Auction.Auction",
          "name": "",
          "type": "tuple"
        }
      ],
      "stateMutability": "view",
      "type": "function"
    },
    {
      "inputs": [
        {
          "internalType": "address",
          "name": "nifty",
          "type": "address"
        },
        {
          "internalType": "uint256",
          "name": "_tokenId",
          "type": "uint256"
        },
        {
          "internalType": "uint256",
          "name": "amount",
          "type": "uint256"
        },
        {
          "internalType": "uint256",
          "name": "_startsIn",
          "type": "uint256"
        },
        {
          "internalType": "uint256",
          "name": "_lastsFor",
          "type": "uint256"
        },
        {
          "internalType": "uint256",
          "name": "_initialBidAmount",
          "type": "uint256"
        },
        {
          "internalType": "enum RC3_Auction.TokenType",
          "name": "_type",
          "type": "uint8"
        }
      ],
      "name": "listAuction",
      "outputs": [
        {
          "internalType": "uint256",
          "name": "auctionId_",
          "type": "uint256"
        }
      ],
      "stateMutability": "nonpayable",
      "type": "function"
    },
    {
      "inputs": [
        {
          "internalType": "uint256",
          "name": "_auctionId",
          "type": "uint256"
        }
      ],
      "name": "nextBidAmount",
      "outputs": [
        {
          "internalType": "uint256",
          "name": "amount",
          "type": "uint256"
        }
      ],
      "stateMutability": "view",
      "type": "function"
    },
    {
      "inputs": [],
      "name": "owner",
      "outputs": [
        {
          "internalType": "address",
          "name": "",
          "type": "address"
        }
      ],
      "stateMutability": "view",
      "type": "function"
    },
    {
      "inputs": [],
      "name": "renounceOwnership",
      "outputs": [],
      "stateMutability": "nonpayable",
      "type": "function"
    },
    {
      "inputs": [
        {
          "internalType": "address",
          "name": "newOwner",
          "type": "address"
        }
      ],
      "name": "transferOwnership",
      "outputs": [],
      "stateMutability": "nonpayable",
      "type": "function"
    },
    {
      "inputs": [
        {
          "internalType": "uint256",
          "name": "_auctionId",
          "type": "uint256"
        },
        {
          "internalType": "uint256",
          "name": "_endsIn",
          "type": "uint256"
        }
      ],
      "name": "updateEndTime",
      "outputs": [
        {
          "internalType": "bool",
          "name": "updated",
          "type": "bool"
        }
      ],
      "stateMutability": "nonpayable",
      "type": "function"
    }
  ],
  "bytecode": "0x60a06040523480156200001157600080fd5b5060405162001e4738038062001e4783398101604081905262000034916200019e565b6200003f3362000079565b60018055600280546001600160a01b0319166001600160a01b038316179055610c3560a51b6080526200007233620000c9565b50620001d0565b600080546001600160a01b038381166001600160a01b0319831681178455604051919092169283917f8be0079c531659141344cd1fd0a4f28419497f9722a3daafe3b4186f6b6457e09190a35050565b6000546001600160a01b03163314620001295760405162461bcd60e51b815260206004820181905260248201527f4f776e61626c653a2063616c6c6572206973206e6f7420746865206f776e657260448201526064015b60405180910390fd5b6001600160a01b038116620001905760405162461bcd60e51b815260206004820152602660248201527f4f776e61626c653a206e6577206f776e657220697320746865207a65726f206160448201526564647265737360d01b606482015260840162000120565b6200019b8162000079565b50565b600060208284031215620001b157600080fd5b81516001600160a01b0381168114620001c957600080fd5b9392505050565b60805160a01c611c51620001f66000396000818161101001526114570152611c516000f3fe608060405234801561001057600080fd5b50600436106100ba5760003560e01c806310782f8f146100bf5780633740ebb3146100dc578063575ffe7a1461010e578063598647f8146101215780636cc0312414610144578063715018a61461014e57806378bd7935146101585780638da5cb5b14610178578063a001ecdd14610180578063bd4b04d4146101ab578063d846349e146101be578063e44542df146101df578063f2fde38b146101f2578063f6a8981014610205575b600080fd5b6003546100c99081565b6040519081526020015b60405180910390f35b6005546100f690600160601b90046001600160a01b031681565b6040516001600160a01b0390911681526020016100d3565b6100c961011c3660046118ad565b610225565b61013461012f3660046118df565b610236565b60405190151581526020016100d3565b6004546100c99081565b61015661077b565b005b61016b6101663660046118ad565b6107b6565b6040516100d39190611a86565b6100f66108be565b600554610193906001600160601b031681565b6040516001600160601b0390911681526020016100d3565b6100c96101b936600461181e565b6108cd565b6101d16101cc3660046118ad565b610c08565b6040516100d3929190611b3a565b6101346101ed3660046118df565b610c1d565b6101566102003660046117dd565b610d02565b6102186102133660046118ad565b610da2565b6040516100d391906119b3565b600061023082611329565b92915050565b6000600260015414156102645760405162461bcd60e51b815260040161025b90611a4f565b60405180910390fd5b60026001818155600085815260066020818152604080842081516101808101835281546001600160a01b0390811682528288015481169482019490945296810154909216908601526003810154606086015260048101546080860152600581015460a08601529081015460c0850152600781015460e085015260088101546101008501526009810154610120850152600a8101548794929361014084019160ff169081111561031557610315611c19565b600181111561032657610326611c19565b8152602001600a820160019054906101000a900460ff16600381111561034e5761034e611c19565b600381111561035f5761035f611c19565b9052506101008101519091506001826101600151600381111561038457610384611c19565b146103a15760405162461bcd60e51b815260040161025b906119c1565b81516001600160a01b03163314156103ee5760405162461bcd60e51b815260206004820152601060248201526f13d5d3915497d0d0539393d517d0925160821b604482015260640161025b565b8061042f5760405162461bcd60e51b8152602060048201526011602482015270105550d51253d397d393d517d1561254d5607a1b604482015260640161025b565b428260e0015111156104535760405162461bcd60e51b815260040161025b90611a22565b4281116104925760405162461bcd60e51b815260206004820152600d60248201526c105550d51253d397d153911151609a1b604482015260640161025b565b60008681526006602052604090206104a987611329565b8610156104e85760405162461bcd60e51b815260206004820152600d60248201526c1253959053125117d253941555609a1b604482015260640161025b565b6002546040516323b872dd60e01b81526001600160a01b03909116906323b872dd9061051c90339030908b9060040161194b565b602060405180830381600087803b15801561053657600080fd5b505af115801561054a573d6000803e3d6000fd5b505050506040513d601f19601f8201168201806040525081019061056e919061188b565b50600981015415610608576002546001820154600683015460405163a9059cbb60e01b81526001600160a01b039384169363a9059cbb936105b493911691600401611932565b602060405180830381600087803b1580156105ce57600080fd5b505af11580156105e2573d6000803e3d6000fd5b505050506040513d601f19601f82011682018060405250810190610606919061188b565b505b6001810180546001600160a01b031916331790556006810186905560098101805490600061063583611be8565b90915550506002810154600382015460405189926001600160a01b03169133917f911d834cc781bcb7a08922b9dd1f1d175c0a0467d9705194c2e200f8ce2786bb91610682918c90611b3a565b60405180910390a46000610695886114a8565b915050610e1081101561076a57610e106106b182610258611b78565b11156106e1576106c381610e10611bd1565b8260080160008282546106d69190611b78565b9250508190556106fe565b6102588260080160008282546106f79190611b78565b9250508190555b50600061070a896114a8565b600285015460038601549193508b92506001600160a01b03169033907ff3f8c69115d9f33b41d0ae7a8f88fb8cde222311d82702dc55025079d0eca53a906107528642611b78565b604051610760929190611b3a565b60405180910390a4505b505060018080559695505050505050565b336107846108be565b6001600160a01b0316146107aa5760405162461bcd60e51b815260040161025b906119ed565b6107b460006115fa565b565b6107be611751565b60008281526006602081815260409283902083516101808101855281546001600160a01b039081168252600180840154821694830194909452600283015416948101949094526003810154606085015260048101546080850152600581015460a08501529182015460c0840152600782015460e084015260088201546101008401526009820154610120840152600a82015461014084019160ff9091169081111561086b5761086b611c19565b600181111561087c5761087c611c19565b8152602001600a820160019054906101000a900460ff1660038111156108a4576108a4611c19565b60038111156108b5576108b5611c19565b90525092915050565b6000546001600160a01b031690565b60006108dd600380546001019055565b50600354836109215760405162461bcd60e51b815260206004820152601060248201526f24a72b20a624a22fa22aa920aa24a7a760811b604482015260640161025b565b600082600181111561093557610935611c19565b1415610a80576040516331a9108f60e11b81526004810188905288906000906001600160a01b03831690636352211e9060240160206040518083038186803b15801561098057600080fd5b505afa158015610994573d6000803e3d6000fd5b505050506040513d601f19601f820116820180604052508101906109b89190611801565b90506001600160a01b0381163314610a055760405162461bcd60e51b815260206004820152601060248201526f24a72b20a624a22fa7a822a920aa27a960811b604482015260640161025b565b604051632142170760e11b81526001600160a01b038316906342842e0e90610a3590849030908e9060040161194b565b600060405180830381600087803b158015610a4f57600080fd5b505af1158015610a63573d6000803e3d6000fd5b50505050610a798a848b60018b8b8b600061164a565b5050610bfd565b60008611610ac15760405162461bcd60e51b815260206004820152600e60248201526d1253959053125117d05353d5539560921b604482015260640161025b565b604051627eeac760e11b8152889087906001600160a01b0383169062fdd58e90610af19033908d90600401611932565b60206040518083038186803b158015610b0957600080fd5b505afa158015610b1d573d6000803e3d6000fd5b505050506040513d601f19601f82011682018060405250810190610b4191906118c6565b1015610b865760405162461bcd60e51b8152602060048201526014602482015273494e53554646494349454e545f42414c414e434560601b604482015260640161025b565b604051637921219560e11b81526001600160a01b0382169063f242432a90610bb890339030908d908d9060040161196f565b600060405180830381600087803b158015610bd257600080fd5b505af1158015610be6573d6000803e3d6000fd5b50505050610bfb89838a8a8a8a8a600161164a565b505b979650505050505050565b600080610c14836114a8565b91509150915091565b600082815260066020526040812080546001600160a01b03163314610c725760405162461bcd60e51b815260206004820152600b60248201526a27a7262cafa9a2a62622a960a91b604482015260640161025b565b4281600701541115610c965760405162461bcd60e51b815260040161025b90611a22565b610ca08342611b78565b600882018190556002820154600383015460405187936001600160a01b039093169233927fef21c10270bf7c06ec6bdcbcb5a9b3eadf05a5426cfe77d674388eb1c057514992610cf09290611b3a565b60405180910390a45060019392505050565b33610d0b6108be565b6001600160a01b031614610d315760405162461bcd60e51b815260040161025b906119ed565b6001600160a01b038116610d965760405162461bcd60e51b815260206004820152602660248201527f4f776e61626c653a206e6577206f776e657220697320746865207a65726f206160448201526564647265737360d01b606482015260840161025b565b610d9f816115fa565b50565b600060026001541415610dc75760405162461bcd60e51b815260040161025b90611a4f565b60026001908155600083815260066020526040902090600a820154610100900460ff166003811115610dfb57610dfb611c19565b14610e185760405162461bcd60e51b815260040161025b906119c1565b600080610e24856114a8565b9150915081600014610e485760405162461bcd60e51b815260040161025b90611a22565b8015610e8a5760405162461bcd60e51b8152602060048201526011602482015270105550d51253d397d393d517d153911151607a1b604482015260640161025b565b600683015480611000576000600a85015460ff166001811115610eaf57610eaf611c19565b14610f2f57600284015484546003860154600480880154604051637921219560e11b81526001600160a01b039586169563f242432a95610ef8953095919092169391920161196f565b600060405180830381600087803b158015610f1257600080fd5b505af1158015610f26573d6000803e3d6000fd5b50505050610fa0565b600284015484546003860154604051632142170760e11b81526001600160a01b03938416936342842e0e93610f6d933093929091169160040161194b565b600060405180830381600087803b158015610f8757600080fd5b505af1158015610f9b573d6000803e3d6000fd5b505050505b600a8401805461ff00191661020017905560028401546003850154604080519182525188926001600160a01b03169133917f57bfd08a841d5d478e4fef268a8b041c65e389dddfa00f8c4a88a9d4fd9bc8249181900360200190a4611302565b6005546000906001600160601b037f000000000000000000000000000000000000000000000000000000000000000081169161103e91859116611bb2565b6110489190611b90565b600186015460025460055460405163a9059cbb60e01b81529394506001600160a01b03928316939183169263a9059cbb9261109292600160601b9004909116908690600401611932565b602060405180830381600087803b1580156110ac57600080fd5b505af11580156110c0573d6000803e3d6000fd5b505050506040513d601f19601f820116820180604052508101906110e4919061188b565b5060025486546001600160a01b039182169163a9059cbb91166111078587611bd1565b6040518363ffffffff1660e01b8152600401611124929190611932565b602060405180830381600087803b15801561113e57600080fd5b505af1158015611152573d6000803e3d6000fd5b505050506040513d601f19601f82011682018060405250810190611176919061188b565b506000600a87015460ff16600181111561119257611192611c19565b1461120d5760028601546003870154600480890154604051637921219560e11b81526001600160a01b039094169363f242432a936111d6933093889390910161196f565b600060405180830381600087803b1580156111f057600080fd5b505af1158015611204573d6000803e3d6000fd5b50505050611279565b60028601546003870154604051632142170760e11b81526001600160a01b03909216916342842e0e91611246913091869160040161194b565b600060405180830381600087803b15801561126057600080fd5b505af1158015611274573d6000803e3d6000fd5b505050505b600a8601805461030061ff00199091161790556002860154865460038801546004890154604080516001600160a01b0394851681528685166020820152908101929092526060820152608081018690528a92919091169033907f31c8601b5dd4c4e31751f64d3545cc33889c92681a65811a7f4575b3ae26d5569060a00160405180910390a450505b611310600480546001019055565b505050600a015460018055610100900460ff1692915050565b600081815260066020818152604080842081516101808101835281546001600160a01b039081168252600180840154821695830195909552600283015416928101929092526003810154606083015260048101546080830152600581015460a08301529283015460c0820152600783015460e082015260088301546101008201526009830154610120820152600a8301548493919261014084019160ff16908111156113d7576113d7611c19565b60018111156113e8576113e8611c19565b8152602001600a820160019054906101000a900460ff16600381111561141057611410611c19565b600381111561142157611421611c19565b90525080519091506001600160a01b03161561149f5760c08101518061144c575060a0015192915050565b806001600160601b037f00000000000000000000000000000000000000000000000000000000000000001661148382612710611bb2565b61148d9190611b90565b6114979190611b78565b949350505050565b50600092915050565b600081815260066020818152604080842081516101808101835281546001600160a01b039081168252600180840154821695830195909552600283015416928101929092526003810154606083015260048101546080830152600581015460a08301529283015460c0820152600783015460e082015260088301546101008201526009830154610120820152600a83015484938493909161014084019160ff9091169081111561155a5761155a611c19565b600181111561156b5761156b611c19565b8152602001600a820160019054906101000a900460ff16600381111561159357611593611c19565b60038111156115a4576115a4611c19565b815250509050428160e00151116115bc5760006115cc565b428160e001516115cc9190611bd1565b925042816101000151116115e15760006115f2565b428161010001516115f29190611bd1565b915050915091565b600080546001600160a01b038381166001600160a01b0319831681178455604051919092169283917f8be0079c531659141344cd1fd0a4f28419497f9722a3daafe3b4186f6b6457e09190a35050565b6000878152600660205260408120906116638642611b78565b905060006116718683611b78565b6002840180546001600160a01b038e166001600160a01b031991821617909155600385018b905560078501849055600885018290558454163317845560058401869055600a84018054919250859160ff1916600183818111156116d6576116d6611c19565b021790555060048301889055600a8301805461ff0019166101001790556040518a906001600160a01b038d169033907f199f73ece82f19f692dcb7db8f91f2527bd3158ffae28e226d7ef02df70435349061173c908e908e908c908a908a908e90611b48565b60405180910390a45050505050505050505050565b60405180610180016040528060006001600160a01b0316815260200160006001600160a01b0316815260200160006001600160a01b0316815260200160008152602001600081526020016000815260200160008152602001600081526020016000815260200160008152602001600060018111156117d1576117d1611c19565b81526020016000905290565b6000602082840312156117ef57600080fd5b81356117fa81611c2f565b9392505050565b60006020828403121561181357600080fd5b81516117fa81611c2f565b600080600080600080600060e0888a03121561183957600080fd5b873561184481611c2f565b96506020880135955060408801359450606088013593506080880135925060a0880135915060c08801356002811061187b57600080fd5b8091505092959891949750929550565b60006020828403121561189d57600080fd5b815180151581146117fa57600080fd5b6000602082840312156118bf57600080fd5b5035919050565b6000602082840312156118d857600080fd5b5051919050565b600080604083850312156118f257600080fd5b50508035926020909101359150565b6001600160a01b03169052565b6004811061191e5761191e611c19565b9052565b6002811061191e5761191e611c19565b6001600160a01b03929092168252602082015260400190565b6001600160a01b039384168152919092166020820152604081019190915260600190565b6001600160a01b0394851681529290931660208301526040820152606081019190915260a0608082018190526003908201526203078360ec1b60c082015260e00190565b60208101610230828461190e565b602080825260129082015271105550d51253d397d393d517d31254d5115160721b604082015260600190565b6020808252818101527f4f776e61626c653a2063616c6c6572206973206e6f7420746865206f776e6572604082015260600190565b602080825260139082015272105550d51253d397d393d517d4d51054951151606a1b604082015260600190565b6020808252601f908201527f5265656e7472616e637947756172643a207265656e7472616e742063616c6c00604082015260600190565b600061018082019050611a9a828451611901565b6020830151611aac6020840182611901565b506040830151611abf6040840182611901565b50606083015160608301526080830151608083015260a083015160a083015260c083015160c083015260e083015160e083015261010080840151818401525061012080840151818401525061014080840151611b1d82850182611922565b505061016080840151611b328285018261190e565b505092915050565b918252602082015260400190565b600060c082019050878252866020830152856040830152846060830152836080830152610bfd60a0830184611922565b60008219821115611b8b57611b8b611c03565b500190565b600082611bad57634e487b7160e01b600052601260045260246000fd5b500490565b6000816000190483118215151615611bcc57611bcc611c03565b500290565b600082821015611be357611be3611c03565b500390565b6000600019821415611bfc57611bfc611c03565b5060010190565b634e487b7160e01b600052601160045260246000fd5b634e487b7160e01b600052602160045260246000fd5b6001600160a01b0381168114610d9f57600080fdfea164736f6c6343000806000a",
  "linkReferences": {},
  "deployedLinkReferences": {}
}