{
  "_format": "hh-sol-artifact-1",
  "contractName": "RC3_Auction",
  "sourceName": "contracts/RC3_Auction.sol",
  "abi": [
    {
      "anonymous": false,
      "inputs": [
        {
          "indexed": true,
          "internalType": "address",
          "name": "caller",
          "type": "address"
        },
        {
          "indexed": true,
          "internalType": "address",
          "name": "nft",
          "type": "address"
        },
        {
          "indexed": true,
          "internalType": "uint256",
          "name": "auctionId",
          "type": "uint256"
        },
        {
          "indexed": false,
          "internalType": "uint256",
          "name": "tokenID",
          "type": "uint256"
        }
      ],
      "name": "AuctionCancelled",
      "type": "event"
    },
    {
      "anonymous": false,
      "inputs": [
        {
          "indexed": true,
          "internalType": "address",
          "name": "caller",
          "type": "address"
        },
        {
          "indexed": true,
          "internalType": "address",
          "name": "seller",
          "type": "address"
        },
        {
          "indexed": false,
          "internalType": "address",
          "name": "highestBidder",
          "type": "address"
        },
        {
          "indexed": true,
          "internalType": "address",
          "name": "nft",
          "type": "address"
        },
        {
          "indexed": false,
          "internalType": "uint256",
          "name": "auctionId",
          "type": "uint256"
        },
        {
          "indexed": false,
          "internalType": "uint256",
          "name": "tokenId",
          "type": "uint256"
        },
        {
          "indexed": false,
          "internalType": "uint256",
          "name": "amount",
          "type": "uint256"
        },
        {
          "indexed": false,
          "internalType": "uint256",
          "name": "winPrice",
          "type": "uint256"
        }
      ],
      "name": "AuctionResulted",
      "type": "event"
    },
    {
      "anonymous": false,
      "inputs": [
        {
          "indexed": true,
          "internalType": "address",
          "name": "bidder",
          "type": "address"
        },
        {
          "indexed": true,
          "internalType": "address",
          "name": "nft",
          "type": "address"
        },
        {
          "indexed": true,
          "internalType": "uint256",
          "name": "auctionId",
          "type": "uint256"
        },
        {
          "indexed": false,
          "internalType": "uint256",
          "name": "tokenId",
          "type": "uint256"
        },
        {
          "indexed": false,
          "internalType": "uint256",
          "name": "newEndPeriod",
          "type": "uint256"
        }
      ],
      "name": "AuctionUpdated",
      "type": "event"
    },
    {
      "anonymous": false,
      "inputs": [
        {
          "indexed": false,
          "internalType": "uint8",
          "name": "version",
          "type": "uint8"
        }
      ],
      "name": "Initialized",
      "type": "event"
    },
    {
      "anonymous": false,
      "inputs": [
        {
          "indexed": true,
          "internalType": "address",
          "name": "seller",
          "type": "address"
        },
        {
          "indexed": true,
          "internalType": "address",
          "name": "nft",
          "type": "address"
        },
        {
          "indexed": true,
          "internalType": "uint256",
          "name": "auctionId",
          "type": "uint256"
        },
        {
          "indexed": false,
          "internalType": "uint256",
          "name": "tokenId",
          "type": "uint256"
        },
        {
          "indexed": false,
          "internalType": "uint256",
          "name": "amount",
          "type": "uint256"
        },
        {
          "indexed": false,
          "internalType": "uint256",
          "name": "floorPrice",
          "type": "uint256"
        },
        {
          "indexed": false,
          "internalType": "uint256",
          "name": "startPeriod",
          "type": "uint256"
        },
        {
          "indexed": false,
          "internalType": "uint256",
          "name": "endPeriod",
          "type": "uint256"
        },
        {
          "indexed": false,
          "internalType": "enum RC3_Auction.TokenType",
          "name": "tokenType",
          "type": "uint8"
        }
      ],
      "name": "NewAuction",
      "type": "event"
    },
    {
      "anonymous": false,
      "inputs": [
        {
          "indexed": true,
          "internalType": "address",
          "name": "bidder",
          "type": "address"
        },
        {
          "indexed": true,
          "internalType": "address",
          "name": "nft",
          "type": "address"
        },
        {
          "indexed": true,
          "internalType": "uint256",
          "name": "auctionId",
          "type": "uint256"
        },
        {
          "indexed": false,
          "internalType": "uint256",
          "name": "tokenId",
          "type": "uint256"
        },
        {
          "indexed": false,
          "internalType": "uint256",
          "name": "price",
          "type": "uint256"
        }
      ],
      "name": "NewBid",
      "type": "event"
    },
    {
      "inputs": [],
      "name": "auctionId",
      "outputs": [
        {
          "internalType": "uint256",
          "name": "_value",
          "type": "uint256"
        }
      ],
      "stateMutability": "view",
      "type": "function"
    },
    {
      "inputs": [],
      "name": "auctionsClosed",
      "outputs": [
        {
          "internalType": "uint256",
          "name": "_value",
          "type": "uint256"
        }
      ],
      "stateMutability": "view",
      "type": "function"
    },
    {
      "inputs": [
        {
          "internalType": "uint256",
          "name": "_auctionId",
          "type": "uint256"
        },
        {
          "internalType": "uint256",
          "name": "_bidAmount",
          "type": "uint256"
        }
      ],
      "name": "bid",
      "outputs": [
        {
          "internalType": "bool",
          "name": "bidded",
          "type": "bool"
        }
      ],
      "stateMutability": "nonpayable",
      "type": "function"
    },
    {
      "inputs": [
        {
          "internalType": "uint256",
          "name": "_auctionId",
          "type": "uint256"
        }
      ],
      "name": "bidTimeRemaining",
      "outputs": [
        {
          "internalType": "uint256",
          "name": "startsIn",
          "type": "uint256"
        },
        {
          "internalType": "uint256",
          "name": "endsIn",
          "type": "uint256"
        }
      ],
      "stateMutability": "view",
      "type": "function"
    },
    {
      "inputs": [
        {
          "internalType": "uint256",
          "name": "_auctionId",
          "type": "uint256"
        }
      ],
      "name": "closeBid",
      "outputs": [
        {
          "internalType": "enum RC3_Auction.State",
          "name": "status",
          "type": "uint8"
        }
      ],
      "stateMutability": "nonpayable",
      "type": "function"
    },
    {
      "inputs": [],
      "name": "feePercentage",
      "outputs": [
        {
          "internalType": "uint96",
          "name": "",
          "type": "uint96"
        }
      ],
      "stateMutability": "view",
      "type": "function"
    },
    {
      "inputs": [],
      "name": "feeRecipient",
      "outputs": [
        {
          "internalType": "address payable",
          "name": "",
          "type": "address"
        }
      ],
      "stateMutability": "view",
      "type": "function"
    },
    {
      "inputs": [
        {
          "internalType": "uint256",
          "name": "_auctionId",
          "type": "uint256"
        }
      ],
      "name": "getAuction",
      "outputs": [
        {
          "components": [
            {
              "internalType": "address payable",
              "name": "seller",
              "type": "address"
            },
            {
              "internalType": "address payable",
              "name": "highestBidder",
              "type": "address"
            },
            {
              "internalType": "address",
              "name": "nifty",
              "type": "address"
            },
            {
              "internalType": "uint256",
              "name": "tokenId",
              "type": "uint256"
            },
            {
              "internalType": "uint256",
              "name": "tokenAmount",
              "type": "uint256"
            },
            {
              "internalType": "uint256",
              "name": "initialBidAmount",
              "type": "uint256"
            },
            {
              "internalType": "uint256",
              "name": "highestBidAmount",
              "type": "uint256"
            },
            {
              "internalType": "uint256",
              "name": "startPeriod",
              "type": "uint256"
            },
            {
              "internalType": "uint256",
              "name": "endPeriod",
              "type": "uint256"
            },
            {
              "internalType": "uint256",
              "name": "bidCount",
              "type": "uint256"
            },
            {
              "internalType": "enum RC3_Auction.TokenType",
              "name": "tokenType",
              "type": "uint8"
            },
            {
              "internalType": "enum RC3_Auction.State",
              "name": "state",
              "type": "uint8"
            }
          ],
          "internalType": "struct RC3_Auction.Auction",
          "name": "auction_",
          "type": "tuple"
        }
      ],
      "stateMutability": "view",
      "type": "function"
    },
    {
      "inputs": [
        {
          "internalType": "address",
          "name": "nifty",
          "type": "address"
        },
        {
          "internalType": "uint256",
          "name": "_tokenId",
          "type": "uint256"
        },
        {
          "internalType": "uint256",
          "name": "amount",
          "type": "uint256"
        },
        {
          "internalType": "uint256",
          "name": "_startsIn",
          "type": "uint256"
        },
        {
          "internalType": "uint256",
          "name": "_lastsFor",
          "type": "uint256"
        },
        {
          "internalType": "uint256",
          "name": "_initialBidAmount",
          "type": "uint256"
        },
        {
          "internalType": "enum RC3_Auction.TokenType",
          "name": "_type",
          "type": "uint8"
        }
      ],
      "name": "listAuction",
      "outputs": [
        {
          "internalType": "uint256",
          "name": "auctionId_",
          "type": "uint256"
        }
      ],
      "stateMutability": "nonpayable",
      "type": "function"
    },
    {
      "inputs": [
        {
          "internalType": "uint256",
          "name": "_auctionId",
          "type": "uint256"
        }
      ],
      "name": "nextBidAmount",
      "outputs": [
        {
          "internalType": "uint256",
          "name": "amount",
          "type": "uint256"
        }
      ],
      "stateMutability": "view",
      "type": "function"
    },
    {
      "inputs": [
        {
          "internalType": "address",
          "name": "",
          "type": "address"
        },
        {
          "internalType": "address",
          "name": "",
          "type": "address"
        },
        {
          "internalType": "uint256[]",
          "name": "",
          "type": "uint256[]"
        },
        {
          "internalType": "uint256[]",
          "name": "",
          "type": "uint256[]"
        },
        {
          "internalType": "bytes",
          "name": "",
          "type": "bytes"
        }
      ],
      "name": "onERC1155BatchReceived",
      "outputs": [
        {
          "internalType": "bytes4",
          "name": "",
          "type": "bytes4"
        }
      ],
      "stateMutability": "nonpayable",
      "type": "function"
    },
    {
      "inputs": [
        {
          "internalType": "address",
          "name": "",
          "type": "address"
        },
        {
          "internalType": "address",
          "name": "",
          "type": "address"
        },
        {
          "internalType": "uint256",
          "name": "",
          "type": "uint256"
        },
        {
          "internalType": "uint256",
          "name": "",
          "type": "uint256"
        },
        {
          "internalType": "bytes",
          "name": "",
          "type": "bytes"
        }
      ],
      "name": "onERC1155Received",
      "outputs": [
        {
          "internalType": "bytes4",
          "name": "",
          "type": "bytes4"
        }
      ],
      "stateMutability": "nonpayable",
      "type": "function"
    },
    {
      "inputs": [
        {
          "internalType": "address",
          "name": "",
          "type": "address"
        },
        {
          "internalType": "address",
          "name": "",
          "type": "address"
        },
        {
          "internalType": "uint256",
          "name": "",
          "type": "uint256"
        },
        {
          "internalType": "bytes",
          "name": "",
          "type": "bytes"
        }
      ],
      "name": "onERC721Received",
      "outputs": [
        {
          "internalType": "bytes4",
          "name": "",
          "type": "bytes4"
        }
      ],
      "stateMutability": "nonpayable",
      "type": "function"
    },
    {
      "inputs": [
        {
          "internalType": "bytes4",
          "name": "interfaceId",
          "type": "bytes4"
        }
      ],
      "name": "supportsInterface",
      "outputs": [
        {
          "internalType": "bool",
          "name": "",
          "type": "bool"
        }
      ],
      "stateMutability": "view",
      "type": "function"
    }
  ],
  "bytecode": "0x608060405234801561001057600080fd5b50611d06806100206000396000f3fe608060405234801561001057600080fd5b50600436106100ba5760003560e01c806301ffc9a7146100bf57806310782f8f146100e7578063150b7a02146100ff5780634690484014610136578063575ffe7a14610161578063598647f8146101745780636cc031241461018757806378bd793514610191578063a001ecdd146101b1578063bc197c81146101e3578063bd4b04d414610202578063d846349e14610215578063f23a6e611461023d578063f6a898101461025c575b600080fd5b6100d26100cd366004611916565b61027c565b60405190151581526020015b60405180910390f35b60fb546100f19081565b6040519081526020016100de565b61011d61010d3660046117b4565b630a85bd0160e11b949350505050565b6040516001600160e01b031990911681526020016100de565b60fe54610149906001600160a01b031681565b6040516001600160a01b0390911681526020016100de565b6100f161016f366004611940565b6102b3565b6100d2610182366004611959565b6102be565b60fc546100f19081565b6101a461019f366004611940565b6104ca565b6040516100de9190611ad4565b60fd546101cb90600160a01b90046001600160601b031681565b6040516001600160601b0390911681526020016100de565b61011d6101f1366004611707565b63bc197c8160e01b95945050505050565b6100f1610210366004611887565b6105d2565b610228610223366004611940565b610800565b604080519283526020830191909152016100de565b61011d61024b36600461181f565b63f23a6e6160e01b95945050505050565b61026f61026a366004611940565b610816565b6040516100de9190611a30565b60006001600160e01b03198216630271189760e51b14806102ad57506301ffc9a760e01b6001600160e01b03198316145b92915050565b60006102ad82610c91565b6000600260c95414156102ec5760405162461bcd60e51b81526004016102e390611a9d565b60405180910390fd5b600260c95582826102fd8282610dec565b600085815260ff6020526040902060fd54610323906001600160a01b0316333088611052565b600981015415610352576001810154600682015460fd54610352926001600160a01b03918216929116906110aa565b6001810180546001600160a01b031916331790556006810185905560098101805490600061037f83611c84565b909155505060028101546003820154604080519182526020820188905288926001600160a01b03169133917f911d834cc781bcb7a08922b9dd1f1d175c0a0467d9705194c2e200f8ce2786bb910160405180910390a460006103e0876110df565b915050610e108110156104b757610e106103fc82610258611be8565b111561042c5761040e81610e10611c41565b8260080160008282546104219190611be8565b925050819055610449565b6102588260080160008282546104429190611be8565b9250508190555b506000610455886110df565b600285015460038601549193508a92506001600160a01b03169033907ff3f8c69115d9f33b41d0ae7a8f88fb8cde222311d82702dc55025079d0eca53a9061049d8642611be8565b6040805192835260208301919091520160405180910390a4505b6001945050505050600160c95592915050565b6104d2611576565b600082815260ff602081815260409283902083516101808101855281546001600160a01b039081168252600180840154821694830194909452600283015416948101949094526003810154606085015260048101546080850152600581015460a0850152600681015460c0850152600781015460e085015260088101546101008501526009810154610120850152600a810154909261014085019291169081111561057f5761057f611cb5565b600181111561059057610590611cb5565b8152602001600a820160019054906101000a900460ff1660028111156105b8576105b8611cb5565b60028111156105c9576105c9611cb5565b90525092915050565b60006105e260fb80546001019055565b5060fb54836106265760405162461bcd60e51b815260206004820152601060248201526f24a72b20a624a22fa22aa920aa24a7a760811b60448201526064016102e3565b600082600181111561063a5761063a611cb5565b141561073b576040516331a9108f60e11b81526004810188905288906000906001600160a01b03831690636352211e9060240160206040518083038186803b15801561068557600080fd5b505afa158015610699573d6000803e3d6000fd5b505050506040513d601f19601f820116820180604052508101906106bd91906116ea565b604051632142170760e11b81529091506001600160a01b038316906342842e0e906106f090849030908e906004016119c8565b600060405180830381600087803b15801561070a57600080fd5b505af115801561071e573d6000803e3d6000fd5b505050506107348a848b60018b8b8b600061122e565b50506107f5565b6000861161077c5760405162461bcd60e51b815260206004820152600e60248201526d1253959053125117d05353d5539560921b60448201526064016102e3565b604051637921219560e11b815288906001600160a01b0382169063f242432a906107b090339030908d908d906004016119ec565b600060405180830381600087803b1580156107ca57600080fd5b505af11580156107de573d6000803e3d6000fd5b505050506107f389838a8a8a8a8a600161122e565b505b979650505050505050565b60008061080c836110df565b9094909350915050565b6000600260c954141561083b5760405162461bcd60e51b81526004016102e390611a9d565b600260c955600082815260ff6020526040812090600a820154610100900460ff16600281111561086d5761086d611cb5565b1461088a5760405162461bcd60e51b81526004016102e390611a71565b600080610896856110df565b915091508160001480156108a8575080155b6108e35760405162461bcd60e51b815260206004820152600c60248201526b494e56414c49445f54494d4560a01b60448201526064016102e3565b600683015480610a59576000600a85015460ff16600181111561090857610908611cb5565b1461098857600284015484546003860154600480880154604051637921219560e11b81526001600160a01b039586169563f242432a9561095195309591909216939192016119ec565b600060405180830381600087803b15801561096b57600080fd5b505af115801561097f573d6000803e3d6000fd5b505050506109f9565b600284015484546003860154604051632142170760e11b81526001600160a01b03938416936342842e0e936109c693309392909116916004016119c8565b600060405180830381600087803b1580156109e057600080fd5b505af11580156109f4573d6000803e3d6000fd5b505050505b600a8401805461ff00191661010017905560028401546003850154604080519182525188926001600160a01b03169133917f57bfd08a841d5d478e4fef268a8b041c65e389dddfa00f8c4a88a9d4fd9bc8249181900360200190a4610c69565b60fd54600090620186a090610a7f908490600160a01b90046001600160601b0316611c22565b610a899190611c00565b600186015460fe5460fd549293506001600160a01b0391821692610ab2929081169116846110aa565b8554610ade906001600160a01b0316610acb8486611c41565b60fd546001600160a01b031691906110aa565b6000600a87015460ff166001811115610af957610af9611cb5565b14610b745760028601546003870154600480890154604051637921219560e11b81526001600160a01b039094169363f242432a93610b3d93309388939091016119ec565b600060405180830381600087803b158015610b5757600080fd5b505af1158015610b6b573d6000803e3d6000fd5b50505050610be0565b60028601546003870154604051632142170760e11b81526001600160a01b03909216916342842e0e91610bad91309186916004016119c8565b600060405180830381600087803b158015610bc757600080fd5b505af1158015610bdb573d6000803e3d6000fd5b505050505b600a8601805461ff0019166102001790556002860154865460038801546004890154604080516001600160a01b038781168252602082018f9052818301949094526060810192909252608082018890525193821693919092169133917f31c8601b5dd4c4e31751f64d3545cc33889c92681a65811a7f4575b3ae26d5569181900360a00190a450505b610c7760fc80546001019055565b505050600a0154600160c955610100900460ff1692915050565b600081815260ff6020818152604080842081516101808101835281546001600160a01b039081168252600180840154821695830195909552600283015416928101929092526003810154606083015260048101546080830152600581015460a0830152600681015460c0830152600781015460e083015260088101546101008301526009810154610120830152600a810154859492939192610140850192911690811115610d4157610d41611cb5565b6001811115610d5257610d52611cb5565b8152602001600a820160019054906101000a900460ff166002811115610d7a57610d7a611cb5565b6002811115610d8b57610d8b611cb5565b90525080519091506001600160a01b031615610de35760c081015180610db6575060a0015192915050565b80620186a0610dc782612710611c22565b610dd19190611c00565b610ddb9190611be8565b949350505050565b50600092915050565b600082815260ff6020818152604080842081516101808101835281546001600160a01b039081168252600180840154821695830195909552600283015416928101929092526003810154606083015260048101546080830152600581015460a0830152600681015460c0830152600781015460e083015260088101546101008301526009810154610120830152600a8101549193909261014085019290911690811115610e9b57610e9b611cb5565b6001811115610eac57610eac611cb5565b8152602001600a820160019054906101000a900460ff166002811115610ed457610ed4611cb5565b6002811115610ee557610ee5611cb5565b90525061010081015190915060008261016001516002811115610f0a57610f0a611cb5565b14610f275760405162461bcd60e51b81526004016102e390611a71565b81516001600160a01b0316331415610f745760405162461bcd60e51b815260206004820152601060248201526f13d5d3915497d0d0539393d517d0925160821b60448201526064016102e3565b428260e001511115610fbe5760405162461bcd60e51b8152602060048201526013602482015272105550d51253d397d393d517d4d51054951151606a1b60448201526064016102e3565b428111610ffd5760405162461bcd60e51b815260206004820152600d60248201526c105550d51253d397d153911151609a1b60448201526064016102e3565b61100684610c91565b83101561104c5760405162461bcd60e51b81526020600482015260146024820152731253959053125117d25394155517d05353d5539560621b60448201526064016102e3565b50505050565b61104c846323b872dd60e01b858585604051602401611073939291906119c8565b60408051601f198184030181529190526020810180516001600160e01b03166001600160e01b031990931692909217909152611331565b6040516001600160a01b0383166024820152604481018290526110da90849063a9059cbb60e01b90606401611073565b505050565b600081815260ff6020818152604080842081516101808101835281546001600160a01b039081168252600180840154821695830195909552600283015416928101929092526003810154606083015260048101546080830152600581015460a0830152600681015460c0830152600781015460e083015260088101546101008301526009810154610120830152600a810154859485946101408501929091169081111561118e5761118e611cb5565b600181111561119f5761119f611cb5565b8152602001600a820160019054906101000a900460ff1660028111156111c7576111c7611cb5565b60028111156111d8576111d8611cb5565b815250509050428160e00151116111f0576000611200565b428160e001516112009190611c41565b92504281610100015111611215576000611226565b428161010001516112269190611c41565b915050915091565b600087815260ff60205260408120906112478642611be8565b905060006112558683611be8565b6002840180546001600160a01b038e166001600160a01b031991821617909155600385018b905560078501849055600885018290558454163317845560058401869055600a84018054919250859160ff1916600183818111156112ba576112ba611cb5565b021790555060048301889055600a8301805461ff00191690556040518a906001600160a01b038d169033907f199f73ece82f19f692dcb7db8f91f2527bd3158ffae28e226d7ef02df70435349061131c908e908e908c908a908a908e90611b88565b60405180910390a45050505050505050505050565b6000611386826040518060400160405280602081526020017f5361666545524332303a206c6f772d6c6576656c2063616c6c206661696c6564815250856001600160a01b03166114039092919063ffffffff16565b8051909150156110da57808060200190518101906113a491906118f4565b6110da5760405162461bcd60e51b815260206004820152602a60248201527f5361666545524332303a204552433230206f7065726174696f6e20646964206e6044820152691bdd081cdd58d8d9595960b21b60648201526084016102e3565b6060611412848460008561141c565b90505b9392505050565b60608247101561147d5760405162461bcd60e51b815260206004820152602660248201527f416464726573733a20696e73756666696369656e742062616c616e636520666f6044820152651c8818d85b1b60d21b60648201526084016102e3565b6001600160a01b0385163b6114d45760405162461bcd60e51b815260206004820152601d60248201527f416464726573733a2063616c6c20746f206e6f6e2d636f6e747261637400000060448201526064016102e3565b600080866001600160a01b031685876040516114f091906119ac565b60006040518083038185875af1925050503d806000811461152d576040519150601f19603f3d011682016040523d82523d6000602084013e611532565b606091505b50915091506107f58282866060831561154c575081611415565b82511561155c5782518084602001fd5b8160405162461bcd60e51b81526004016102e39190611a3e565b60405180610180016040528060006001600160a01b0316815260200160006001600160a01b0316815260200160006001600160a01b0316815260200160008152602001600081526020016000815260200160008152602001600081526020016000815260200160008152602001600060018111156115f6576115f6611cb5565b81526020016000905290565b600082601f83011261161357600080fd5b813560206001600160401b0382111561162e5761162e611ccb565b8160051b61163d828201611bb8565b83815282810190868401838801850189101561165857600080fd5b600093505b858410156107f357803583526001939093019291840191840161165d565b600082601f83011261168c57600080fd5b81356001600160401b038111156116a5576116a5611ccb565b6116b8601f8201601f1916602001611bb8565b8181528460208386010111156116cd57600080fd5b816020850160208301376000918101602001919091529392505050565b6000602082840312156116fc57600080fd5b815161141581611ce1565b600080600080600060a0868803121561171f57600080fd5b853561172a81611ce1565b9450602086013561173a81611ce1565b935060408601356001600160401b038082111561175657600080fd5b61176289838a01611602565b9450606088013591508082111561177857600080fd5b61178489838a01611602565b9350608088013591508082111561179a57600080fd5b506117a78882890161167b565b9150509295509295909350565b600080600080608085870312156117ca57600080fd5b84356117d581611ce1565b935060208501356117e581611ce1565b92506040850135915060608501356001600160401b0381111561180757600080fd5b6118138782880161167b565b91505092959194509250565b600080600080600060a0868803121561183757600080fd5b853561184281611ce1565b9450602086013561185281611ce1565b9350604086013592506060860135915060808601356001600160401b0381111561187b57600080fd5b6117a78882890161167b565b600080600080600080600060e0888a0312156118a257600080fd5b87356118ad81611ce1565b96506020880135955060408801359450606088013593506080880135925060a0880135915060c0880135600281106118e457600080fd5b8091505092959891949750929550565b60006020828403121561190657600080fd5b8151801515811461141557600080fd5b60006020828403121561192857600080fd5b81356001600160e01b03198116811461141557600080fd5b60006020828403121561195257600080fd5b5035919050565b6000806040838503121561196c57600080fd5b50508035926020909101359150565b6001600160a01b03169052565b6003811061199857611998611cb5565b9052565b6002811061199857611998611cb5565b600082516119be818460208701611c58565b9190910192915050565b6001600160a01b039384168152919092166020820152604081019190915260600190565b6001600160a01b0394851681529290931660208301526040820152606081019190915260a0608082018190526003908201526203078360ec1b60c082015260e00190565b602081016102ad8284611988565b6020815260008251806020840152611a5d816040850160208701611c58565b601f01601f19169190910160400192915050565b602080825260129082015271105550d51253d397d393d517d31254d5115160721b604082015260600190565b6020808252601f908201527f5265656e7472616e637947756172643a207265656e7472616e742063616c6c00604082015260600190565b600061018082019050611ae882845161197b565b6020830151611afa602084018261197b565b506040830151611b0d604084018261197b565b50606083015160608301526080830151608083015260a083015160a083015260c083015160c083015260e083015160e083015261010080840151818401525061012080840151818401525061014080840151611b6b8285018261199c565b505061016080840151611b8082850182611988565b505092915050565b600060c0820190508782528660208301528560408301528460608301528360808301526107f560a083018461199c565b604051601f8201601f191681016001600160401b0381118282101715611be057611be0611ccb565b604052919050565b60008219821115611bfb57611bfb611c9f565b500190565b600082611c1d57634e487b7160e01b600052601260045260246000fd5b500490565b6000816000190483118215151615611c3c57611c3c611c9f565b500290565b600082821015611c5357611c53611c9f565b500390565b60005b83811015611c73578181015183820152602001611c5b565b8381111561104c5750506000910152565b6000600019821415611c9857611c98611c9f565b5060010190565b634e487b7160e01b600052601160045260246000fd5b634e487b7160e01b600052602160045260246000fd5b634e487b7160e01b600052604160045260246000fd5b6001600160a01b0381168114611cf657600080fd5b5056fea164736f6c6343000806000a",
  "linkReferences": {},
  "deployedLinkReferences": {}
}