{
  "_format": "hh-sol-artifact-1",
  "contractName": "RC3_Auction",
  "sourceName": "contracts/RC3_Auction.sol",
  "abi": [
    {
      "inputs": [
        {
          "internalType": "address",
          "name": "_rc3",
          "type": "address"
        },
        {
          "internalType": "address",
          "name": "_rcdy",
          "type": "address"
        },
        {
          "internalType": "address",
          "name": "_feeReceipient",
          "type": "address"
        },
        {
          "internalType": "uint256",
          "name": "_fee",
          "type": "uint256"
        }
      ],
      "stateMutability": "nonpayable",
      "type": "constructor"
    },
    {
      "anonymous": false,
      "inputs": [
        {
          "indexed": true,
          "internalType": "uint256",
          "name": "tokenID",
          "type": "uint256"
        }
      ],
      "name": "AuctionCancelled",
      "type": "event"
    },
    {
      "anonymous": false,
      "inputs": [
        {
          "indexed": true,
          "internalType": "address",
          "name": "highestBidder",
          "type": "address"
        },
        {
          "indexed": true,
          "internalType": "uint256",
          "name": "tokenId",
          "type": "uint256"
        },
        {
          "indexed": false,
          "internalType": "uint256",
          "name": "highestBidAmount",
          "type": "uint256"
        }
      ],
      "name": "AuctionResulted",
      "type": "event"
    },
    {
      "anonymous": false,
      "inputs": [
        {
          "indexed": true,
          "internalType": "uint256",
          "name": "_tokenId",
          "type": "uint256"
        },
        {
          "indexed": false,
          "internalType": "uint256",
          "name": "newEndPeriod",
          "type": "uint256"
        }
      ],
      "name": "AuctionUpdated",
      "type": "event"
    },
    {
      "anonymous": false,
      "inputs": [
        {
          "indexed": true,
          "internalType": "address",
          "name": "creator",
          "type": "address"
        },
        {
          "indexed": true,
          "internalType": "uint256",
          "name": "tokenId",
          "type": "uint256"
        },
        {
          "indexed": false,
          "internalType": "uint256",
          "name": "newEndTime",
          "type": "uint256"
        }
      ],
      "name": "EndTimeUpdated",
      "type": "event"
    },
    {
      "anonymous": false,
      "inputs": [
        {
          "indexed": true,
          "internalType": "address",
          "name": "sender",
          "type": "address"
        },
        {
          "indexed": false,
          "internalType": "uint256",
          "name": "feePercentage",
          "type": "uint256"
        }
      ],
      "name": "FeePercentageSet",
      "type": "event"
    },
    {
      "anonymous": false,
      "inputs": [
        {
          "indexed": true,
          "internalType": "address",
          "name": "sender",
          "type": "address"
        },
        {
          "indexed": false,
          "internalType": "address",
          "name": "feeReceipient",
          "type": "address"
        }
      ],
      "name": "FeeReceipientSet",
      "type": "event"
    },
    {
      "anonymous": false,
      "inputs": [
        {
          "indexed": true,
          "internalType": "uint256",
          "name": "tokenId",
          "type": "uint256"
        },
        {
          "indexed": false,
          "internalType": "uint256",
          "name": "price",
          "type": "uint256"
        },
        {
          "indexed": false,
          "internalType": "uint256",
          "name": "startPeriod",
          "type": "uint256"
        },
        {
          "indexed": false,
          "internalType": "uint256",
          "name": "endPeriod",
          "type": "uint256"
        },
        {
          "indexed": true,
          "internalType": "address",
          "name": "seller",
          "type": "address"
        }
      ],
      "name": "NewAuction",
      "type": "event"
    },
    {
      "anonymous": false,
      "inputs": [
        {
          "indexed": true,
          "internalType": "address",
          "name": "bidder",
          "type": "address"
        },
        {
          "indexed": true,
          "internalType": "uint256",
          "name": "tokenId",
          "type": "uint256"
        },
        {
          "indexed": false,
          "internalType": "uint256",
          "name": "price",
          "type": "uint256"
        }
      ],
      "name": "NewBid",
      "type": "event"
    },
    {
      "anonymous": false,
      "inputs": [
        {
          "indexed": true,
          "internalType": "address",
          "name": "previousOwner",
          "type": "address"
        },
        {
          "indexed": true,
          "internalType": "address",
          "name": "newOwner",
          "type": "address"
        }
      ],
      "name": "OwnershipTransferred",
      "type": "event"
    },
    {
      "inputs": [
        {
          "internalType": "uint256",
          "name": "_tokenId",
          "type": "uint256"
        },
        {
          "internalType": "uint256",
          "name": "_bidAmount",
          "type": "uint256"
        }
      ],
      "name": "bid",
      "outputs": [
        {
          "internalType": "bool",
          "name": "bidded",
          "type": "bool"
        }
      ],
      "stateMutability": "nonpayable",
      "type": "function"
    },
    {
      "inputs": [
        {
          "internalType": "uint256",
          "name": "_tokenId",
          "type": "uint256"
        }
      ],
      "name": "bidTimeRemaining",
      "outputs": [
        {
          "internalType": "uint256",
          "name": "startsIn",
          "type": "uint256"
        },
        {
          "internalType": "uint256",
          "name": "endsIn",
          "type": "uint256"
        }
      ],
      "stateMutability": "view",
      "type": "function"
    },
    {
      "inputs": [
        {
          "internalType": "uint256",
          "name": "_tokenId",
          "type": "uint256"
        }
      ],
      "name": "closeBid",
      "outputs": [
        {
          "internalType": "bool",
          "name": "closed",
          "type": "bool"
        }
      ],
      "stateMutability": "nonpayable",
      "type": "function"
    },
    {
      "inputs": [],
      "name": "feePercentage",
      "outputs": [
        {
          "internalType": "uint256",
          "name": "",
          "type": "uint256"
        }
      ],
      "stateMutability": "view",
      "type": "function"
    },
    {
      "inputs": [],
      "name": "feeReceipient",
      "outputs": [
        {
          "internalType": "address",
          "name": "",
          "type": "address"
        }
      ],
      "stateMutability": "view",
      "type": "function"
    },
    {
      "inputs": [
        {
          "internalType": "uint256",
          "name": "_tokenId",
          "type": "uint256"
        }
      ],
      "name": "getAuction",
      "outputs": [
        {
          "components": [
            {
              "internalType": "address",
              "name": "creator",
              "type": "address"
            },
            {
              "internalType": "address",
              "name": "seller",
              "type": "address"
            },
            {
              "internalType": "address",
              "name": "highestBidder",
              "type": "address"
            },
            {
              "internalType": "uint256",
              "name": "initialBidAmount",
              "type": "uint256"
            },
            {
              "internalType": "uint256",
              "name": "highestBidAmount",
              "type": "uint256"
            },
            {
              "internalType": "uint256",
              "name": "startPeriod",
              "type": "uint256"
            },
            {
              "internalType": "uint256",
              "name": "endPeriod",
              "type": "uint256"
            },
            {
              "internalType": "uint256",
              "name": "bidCount",
              "type": "uint256"
            },
            {
              "internalType": "bool",
              "name": "started",
              "type": "bool"
            }
          ],
          "internalType": "struct RC3_Auction.Auction",
          "name": "",
          "type": "tuple"
        }
      ],
      "stateMutability": "view",
      "type": "function"
    },
    {
      "inputs": [
        {
          "internalType": "uint256",
          "name": "_tokenId",
          "type": "uint256"
        },
        {
          "internalType": "uint256",
          "name": "_startsIn",
          "type": "uint256"
        },
        {
          "internalType": "uint256",
          "name": "_lastsFor",
          "type": "uint256"
        },
        {
          "internalType": "uint256",
          "name": "_initialBidAmount",
          "type": "uint256"
        }
      ],
      "name": "newAuction",
      "outputs": [
        {
          "internalType": "bool",
          "name": "created",
          "type": "bool"
        }
      ],
      "stateMutability": "nonpayable",
      "type": "function"
    },
    {
      "inputs": [
        {
          "internalType": "uint256",
          "name": "_tokenId",
          "type": "uint256"
        }
      ],
      "name": "nextBidAmount",
      "outputs": [
        {
          "internalType": "uint256",
          "name": "amount",
          "type": "uint256"
        }
      ],
      "stateMutability": "view",
      "type": "function"
    },
    {
      "inputs": [
        {
          "internalType": "address",
          "name": "",
          "type": "address"
        },
        {
          "internalType": "address",
          "name": "",
          "type": "address"
        },
        {
          "internalType": "uint256",
          "name": "",
          "type": "uint256"
        },
        {
          "internalType": "bytes",
          "name": "",
          "type": "bytes"
        }
      ],
      "name": "onERC721Received",
      "outputs": [
        {
          "internalType": "bytes4",
          "name": "",
          "type": "bytes4"
        }
      ],
      "stateMutability": "nonpayable",
      "type": "function"
    },
    {
      "inputs": [],
      "name": "owner",
      "outputs": [
        {
          "internalType": "address",
          "name": "",
          "type": "address"
        }
      ],
      "stateMutability": "view",
      "type": "function"
    },
    {
      "inputs": [],
      "name": "renounceOwnership",
      "outputs": [],
      "stateMutability": "nonpayable",
      "type": "function"
    },
    {
      "inputs": [
        {
          "internalType": "uint256",
          "name": "_newFeePercentage",
          "type": "uint256"
        }
      ],
      "name": "setFeePercentage",
      "outputs": [
        {
          "internalType": "bool",
          "name": "feePercentageSet",
          "type": "bool"
        }
      ],
      "stateMutability": "nonpayable",
      "type": "function"
    },
    {
      "inputs": [
        {
          "internalType": "address",
          "name": "_newFeeReceipient",
          "type": "address"
        }
      ],
      "name": "setFeeReceipient",
      "outputs": [
        {
          "internalType": "bool",
          "name": "feeReceipientSet",
          "type": "bool"
        }
      ],
      "stateMutability": "nonpayable",
      "type": "function"
    },
    {
      "inputs": [
        {
          "internalType": "address",
          "name": "newOwner",
          "type": "address"
        }
      ],
      "name": "transferOwnership",
      "outputs": [],
      "stateMutability": "nonpayable",
      "type": "function"
    },
    {
      "inputs": [
        {
          "internalType": "uint256",
          "name": "_tokenId",
          "type": "uint256"
        },
        {
          "internalType": "uint256",
          "name": "_endsIn",
          "type": "uint256"
        }
      ],
      "name": "updateEndTime",
      "outputs": [
        {
          "internalType": "bool",
          "name": "updated",
          "type": "bool"
        }
      ],
      "stateMutability": "nonpayable",
      "type": "function"
    }
  ],
  "bytecode": "0x60a06040523480156200001157600080fd5b5060405162001ec038038062001ec08339810160408190526200003491620001d5565b6200003f3362000094565b600180556200004e82620000e4565b62000059816200016a565b5050600280546001600160a01b039384166001600160a01b03199182161790915560038054929093169116179055620186a060805262000227565b600080546001600160a01b038381166001600160a01b0319831681178455604051919092169283917f8be0079c531659141344cd1fd0a4f28419497f9722a3daafe3b4186f6b6457e09190a35050565b6005546001600160a01b0382811691161415620001485760405162461bcd60e51b815260206004820152601960248201527f4572726f723a20616c72656164792072656365697069656e740000000000000060448201526064015b60405180910390fd5b600580546001600160a01b0319166001600160a01b0392909216919091179055565b600454811415620001b35760405162461bcd60e51b8152602060048201526012602482015271115c9c9bdc8e88185b1c9958591e481cd95d60721b60448201526064016200013f565b600455565b80516001600160a01b0381168114620001d057600080fd5b919050565b60008060008060808587031215620001ec57600080fd5b620001f785620001b8565b93506200020760208601620001b8565b92506200021760408601620001b8565b6060959095015193969295505050565b608051611c766200024a6000396000818161140c01526117ae0152611c766000f3fe608060405234801561001057600080fd5b50600436106100f55760003560e01c80638da5cb5b11610097578063d846349e11610066578063d846349e14610253578063e44542df1461027b578063f2fde38b1461028e578063f6a89810146102a157600080fd5b80638da5cb5b14610213578063a001ecdd14610224578063ae06c1b71461022d578063d45eb1b21461024057600080fd5b8063575ffe7a116100d3578063575ffe7a146101b5578063598647f8146101d6578063715018a6146101e957806378bd7935146101f357600080fd5b8063150b7a02146100fa5780633740ebb3146101675780634b48f20d14610192575b600080fd5b6101316101083660046119b9565b7f150b7a0200000000000000000000000000000000000000000000000000000000949350505050565b6040517fffffffff0000000000000000000000000000000000000000000000000000000090911681526020015b60405180910390f35b60055461017a906001600160a01b031681565b6040516001600160a01b03909116815260200161015e565b6101a56101a0366004611978565b6102b4565b604051901515815260200161015e565b6101c86101c3366004611abb565b610364565b60405190815260200161015e565b6101a56101e4366004611ad4565b610375565b6101f1610895565b005b610206610201366004611abb565b6108fb565b60405161015e9190611b28565b6000546001600160a01b031661017a565b6101c860045481565b6101a561023b366004611abb565b6109f4565b6101a561024e366004611af6565b610a8a565b610266610261366004611abb565b610e64565b6040805192835260208301919091520161015e565b6101a5610289366004611ad4565b610e79565b6101f161029c366004611978565b611081565b6101a56102af366004611abb565b611163565b600080546001600160a01b031633146103145760405162461bcd60e51b815260206004820181905260248201527f4f776e61626c653a2063616c6c6572206973206e6f7420746865206f776e657260448201526064015b60405180910390fd5b61031d8261168c565b6040516001600160a01b038316815233907f09c5c63a1cac0bbadee1a6db15d14ffec5fdb4437fce5e61d61a5790d03590b1906020015b60405180910390a2506001919050565b600061036f8261170c565b92915050565b6000600260015414156103ca5760405162461bcd60e51b815260206004820152601f60248201527f5265656e7472616e637947756172643a207265656e7472616e742063616c6c00604482015260640161030b565b6002600181815560008581526006602081815260409283902083516101208101855281546001600160a01b03908116825295820154861692810183905295810154909416928501929092526003830154606085015260048301546080850152600583015460a085015282015460c08401819052600783015460e085015260089092015460ff161515610100840152859291903314156104ab5760405162461bcd60e51b815260206004820152601d60248201527f4572726f723a2063616e6e6f7420626964206f776e2061756374696f6e000000604482015260640161030b565b806104f85760405162461bcd60e51b815260206004820152601d60248201527f4572726f723a2061756374696f6e20646f6573206e6f74206578697374000000604482015260640161030b565b428260a00151111561054c5760405162461bcd60e51b815260206004820152601e60248201527f4572726f723a2061756374696f6e20686173206e6f7420737461727465640000604482015260640161030b565b42811161059b5760405162461bcd60e51b815260206004820152601860248201527f4572726f723a2061756374696f6e2068617320656e6465640000000000000000604482015260640161030b565b600086815260066020526040902085158015906105bf57506105bc8761170c565b86145b6106315760405162461bcd60e51b815260206004820152603460248201527f4572726f723a206d7573742062696420776974682076616c696420696e70757460448201527f2e20736565206e657874426964416d6f756e742e000000000000000000000000606482015260840161030b565b6003546040516323b872dd60e01b8152336004820152306024820152604481018890526001600160a01b03909116906323b872dd90606401602060405180830381600087803b15801561068357600080fd5b505af1158015610697573d6000803e3d6000fd5b505050506040513d601f19601f820116820180604052508101906106bb9190611a99565b5060078101541561075857600354600282015460048084015460405163a9059cbb60e01b81526001600160a01b0393841692810192909252602482015291169063a9059cbb90604401602060405180830381600087803b15801561071e57600080fd5b505af1158015610732573d6000803e3d6000fd5b505050506040513d601f19601f820116820180604052508101906107569190611a99565b505b6002810180546001600160a01b031916331790556004810186905560078101805490600061078583611c0d565b9091555050604051868152879033907f87f5b2fe112bf269d30fb8ca9dc0bde0afd0cc39258e13fafd75fe794795bf0e9060200160405180910390a360006107cc886117fe565b915050610e1081101561088457610e106107e882610258611b9d565b1115610818576107fa81610e10611bf6565b82600601600082825461080d9190611b9d565b925050819055610835565b61025882600601600082825461082e9190611b9d565b9250508190555b506000610841896117fe565b91508990507f95f83d4dfba2e4f3f99527a8e8a18980457125d95df460c1601811c0c961528f6108718342611b9d565b60405190815260200160405180910390a2505b505060018080559695505050505050565b6000546001600160a01b031633146108ef5760405162461bcd60e51b815260206004820181905260248201527f4f776e61626c653a2063616c6c6572206973206e6f7420746865206f776e6572604482015260640161030b565b6108f960006118d1565b565b61096760405180610120016040528060006001600160a01b0316815260200160006001600160a01b0316815260200160006001600160a01b0316815260200160008152602001600081526020016000815260200160008152602001600081526020016000151581525090565b5060009081526006602081815260409283902083516101208101855281546001600160a01b03908116825260018301548116938201939093526002820154909216938201939093526003830154606082015260048301546080820152600583015460a08201529082015460c0820152600782015460e082015260089091015460ff16151561010082015290565b600080546001600160a01b03163314610a4f5760405162461bcd60e51b815260206004820181905260248201527f4f776e61626c653a2063616c6c6572206973206e6f7420746865206f776e6572604482015260640161030b565b610a5882611921565b60405182815233907f59ac1250f26f38c2e2e4fee3c4131335122f06eda9f550b7fcf3f04171a69fec90602001610354565b600084815260066020526040812060018101546001600160a01b031615610af35760405162461bcd60e51b815260206004820152601c60248201527f4572726f723a2061756374696f6e20616c726561647920657869737400000000604482015260640161030b565b83610b665760405162461bcd60e51b815260206004820152602860248201527f4572726f723a206d757374206c61737420666f72206d6f7265207468616e203060448201527f207365636f6e6473000000000000000000000000000000000000000000000000606482015260840161030b565b6002546040517f6352211e000000000000000000000000000000000000000000000000000000008152600481018890526000916001600160a01b031690636352211e9060240160206040518083038186803b158015610bc457600080fd5b505afa158015610bd8573d6000803e3d6000fd5b505050506040513d601f19601f82011682018060405250810190610bfc919061199c565b600883015490915060ff16610cf45733610c1e6000546001600160a01b031690565b6001600160a01b031614610c745760405162461bcd60e51b815260206004820152601a60248201527f4572726f723a206f6e6c792061646d696e2063616e2063616c6c000000000000604482015260640161030b565b600254604051632142170760e11b81526001600160a01b038381166004830152306024830152604482018a9052909116906342842e0e90606401600060405180830381600087803b158015610cc857600080fd5b505af1158015610cdc573d6000803e3d6000fd5b50505060088301805460ff1916600117905550610db7565b6001600160a01b0381163314610d4c5760405162461bcd60e51b815260206004820152601e60248201527f4572726f723a206f6e6c79204e4654206f776e65722063616e2063616c6c0000604482015260640161030b565b600254604051632142170760e11b8152336004820152306024820152604481018990526001600160a01b03909116906342842e0e90606401600060405180830381600087803b158015610d9e57600080fd5b505af1158015610db2573d6000803e3d6000fd5b505050505b6000610dc38742611b9d565b90506000610dd18783611b9d565b84546001600160a01b03199081163317865560058601849055600686018290556001860180546001600160a01b038716921682179055600386018890556040805189815260208101869052908101839052919250908a907f32f975887e27eb5343e9117a9026eb543a09765921318c63621c11da8030ba3a9060600160405180910390a350600198975050505050505050565b600080610e70836117fe565b91509150915091565b600082815260066020818152604080842081516101208101835281546001600160a01b039081168083526001840154821695830195909552600283015416928101929092526003810154606083015260048101546080830152600581015460a08301529283015460c0820152600783015460e082015260089092015460ff1615156101008301528491903314610f515760405162461bcd60e51b815260206004820152601c60248201527f4572726f723a206f6e6c792063726561746f722063616e2063616c6c00000000604482015260640161030b565b60008581526006602081815260409283902083516101208101855281546001600160a01b03908116825260018301548116938201939093526002820154909216938201939093526003830154606082015260048301546080820152600583015460a082018190529183015460c0820152600783015460e082015260089092015460ff16151561010083015242101561102b5760405162461bcd60e51b815260206004820152601e60248201527f4572726f723a2061756374696f6e20686173206e6f7420737461727465640000604482015260640161030b565b6110358542611b9d565b60c08201819052604051908152869033907f39c13a0923e5548f177e24d52956a5dab00b14834b468b1b198d4d69d1656b0d9060200160405180910390a360019350505b505092915050565b6000546001600160a01b031633146110db5760405162461bcd60e51b815260206004820181905260248201527f4f776e61626c653a2063616c6c6572206973206e6f7420746865206f776e6572604482015260640161030b565b6001600160a01b0381166111575760405162461bcd60e51b815260206004820152602660248201527f4f776e61626c653a206e6577206f776e657220697320746865207a65726f206160448201527f6464726573730000000000000000000000000000000000000000000000000000606482015260840161030b565b611160816118d1565b50565b6000600260015414156111b85760405162461bcd60e51b815260206004820152601f60248201527f5265656e7472616e637947756172643a207265656e7472616e742063616c6c00604482015260640161030b565b6002600181815560008481526006602081815260409283902083516101208101855281546001600160a01b039081168083529683015481169382019390935295810154909116928501929092526003820154606085015260048201546080850152600582015460a085015281015460c0840152600781015460e08401526008015460ff16151561010083015283919033146112955760405162461bcd60e51b815260206004820152601c60248201527f4572726f723a206f6e6c792063726561746f722063616e2063616c6c00000000604482015260640161030b565b600084815260066020526040812090806112ae876117fe565b91509150816000146113025760405162461bcd60e51b815260206004820152601e60248201527f4572726f723a2061756374696f6e20686173206e6f7420737461727465640000604482015260640161030b565b80156113505760405162461bcd60e51b815260206004820152601c60248201527f4572726f723a2061756374696f6e20686173206e6f7420656e64656400000000604482015260640161030b565b600483015460028401546001600160a01b0316816114085760025460018601546040516323b872dd60e01b81523060048201526001600160a01b039182166024820152604481018c90529116906323b872dd90606401600060405180830381600087803b1580156113c057600080fd5b505af11580156113d4573d6000803e3d6000fd5b50506040518b92507f2809c7e17bf978fbc7194c0a694b638c4215e9140cacc6c38ca36010b45697df9150600090a261163c565b60007f0000000000000000000000000000000000000000000000000000000000000000836004546114399190611bd7565b6114439190611bb5565b60035460055460405163a9059cbb60e01b81526001600160a01b03918216600482015260248101849052929350169063a9059cbb90604401602060405180830381600087803b15801561149557600080fd5b505af11580156114a9573d6000803e3d6000fd5b505050506040513d601f19601f820116820180604052508101906114cd9190611a99565b5060035460018701546001600160a01b039182169163a9059cbb91166114f38487611bf6565b6040517fffffffff0000000000000000000000000000000000000000000000000000000060e085901b1681526001600160a01b0390921660048301526024820152604401602060405180830381600087803b15801561155157600080fd5b505af1158015611565573d6000803e3d6000fd5b505050506040513d601f19601f820116820180604052508101906115899190611a99565b506002546040516323b872dd60e01b81523060048201526001600160a01b038481166024830152604482018d9052909116906323b872dd90606401600060405180830381600087803b1580156115de57600080fd5b505af11580156115f2573d6000803e3d6000fd5b5050505089826001600160a01b03167fbf12861e2530ddae85c28e28e7d0ee1f43b75d6e7727a9440b30dfac4b1daf368560405161163291815260200190565b60405180910390a3505b50505050600181810180546001600160a01b031990811690915560028301805490911690556000600483018190556005830181905560068301819055600790920191909155808055949350505050565b6005546001600160a01b03828116911614156116ea5760405162461bcd60e51b815260206004820152601960248201527f4572726f723a20616c72656164792072656365697069656e7400000000000000604482015260640161030b565b600580546001600160a01b0319166001600160a01b0392909216919091179055565b600081815260066020818152604080842081516101208101835281546001600160a01b03908116825260018301548116948201859052600283015416928101929092526003810154606083015260048101546080830152600581015460a08301529283015460c0820152600783015460e082015260089092015460ff161515610100830152156117f5576080810151806117ab57506060015192915050565b807f00000000000000000000000000000000000000000000000000000000000000006117d982612710611bd7565b6117e39190611bb5565b6117ed9190611b9d565b949350505050565b50600092915050565b600081815260066020818152604080842081516101208101835281546001600160a01b03908116825260018301548116948201949094526002820154909316918301919091526003810154606083015260048101546080830152600581015460a083018190529281015460c0830152600781015460e08301526008015460ff161515610100820152829142106118955760006118a5565b428160a001516118a59190611bf6565b9250428160c00151116118b95760006118c9565b428160c001516118c99190611bf6565b915050915091565b600080546001600160a01b038381166001600160a01b0319831681178455604051919092169283917f8be0079c531659141344cd1fd0a4f28419497f9722a3daafe3b4186f6b6457e09190a35050565b6004548114156119735760405162461bcd60e51b815260206004820152601260248201527f4572726f723a20616c7265616479207365740000000000000000000000000000604482015260640161030b565b600455565b60006020828403121561198a57600080fd5b813561199581611c54565b9392505050565b6000602082840312156119ae57600080fd5b815161199581611c54565b600080600080608085870312156119cf57600080fd5b84356119da81611c54565b935060208501356119ea81611c54565b925060408501359150606085013567ffffffffffffffff80821115611a0e57600080fd5b818701915087601f830112611a2257600080fd5b813581811115611a3457611a34611c3e565b604051601f8201601f19908116603f01168101908382118183101715611a5c57611a5c611c3e565b816040528281528a6020848701011115611a7557600080fd5b82602086016020830137600060208483010152809550505050505092959194509250565b600060208284031215611aab57600080fd5b8151801515811461199557600080fd5b600060208284031215611acd57600080fd5b5035919050565b60008060408385031215611ae757600080fd5b50508035926020909101359150565b60008060008060808587031215611b0c57600080fd5b5050823594602084013594506040840135936060013592509050565b81516001600160a01b0390811682526020808401518216908301526040808401519182169083015261012082019050606083015160608301526080830151608083015260a083015160a083015260c083015160c083015260e083015160e0830152610100808401516110798285018215159052565b60008219821115611bb057611bb0611c28565b500190565b600082611bd257634e487b7160e01b600052601260045260246000fd5b500490565b6000816000190483118215151615611bf157611bf1611c28565b500290565b600082821015611c0857611c08611c28565b500390565b6000600019821415611c2157611c21611c28565b5060010190565b634e487b7160e01b600052601160045260246000fd5b634e487b7160e01b600052604160045260246000fd5b6001600160a01b038116811461116057600080fdfea164736f6c6343000806000a",
  "linkReferences": {},
  "deployedLinkReferences": {}
}