{
  "_format": "hh-sol-artifact-1",
  "contractName": "RC3_Auction",
  "sourceName": "contracts/RC3_Auction.sol",
  "abi": [
    {
      "inputs": [
        {
          "internalType": "address",
          "name": "_rcdy",
          "type": "address"
        }
      ],
      "stateMutability": "nonpayable",
      "type": "constructor"
    },
    {
      "anonymous": false,
      "inputs": [
        {
          "indexed": true,
          "internalType": "address",
          "name": "caller",
          "type": "address"
        },
        {
          "indexed": true,
          "internalType": "address",
          "name": "nft",
          "type": "address"
        },
        {
          "indexed": true,
          "internalType": "uint256",
          "name": "auctionId",
          "type": "uint256"
        },
        {
          "indexed": false,
          "internalType": "uint256",
          "name": "tokenID",
          "type": "uint256"
        }
      ],
      "name": "AuctionCancelled",
      "type": "event"
    },
    {
      "anonymous": false,
      "inputs": [
        {
          "indexed": true,
          "internalType": "address",
          "name": "caller",
          "type": "address"
        },
        {
          "indexed": false,
          "internalType": "address",
          "name": "seller",
          "type": "address"
        },
        {
          "indexed": false,
          "internalType": "address",
          "name": "highestBidder",
          "type": "address"
        },
        {
          "indexed": true,
          "internalType": "address",
          "name": "nft",
          "type": "address"
        },
        {
          "indexed": true,
          "internalType": "uint256",
          "name": "auctionId",
          "type": "uint256"
        },
        {
          "indexed": false,
          "internalType": "uint256",
          "name": "tokenId",
          "type": "uint256"
        },
        {
          "indexed": false,
          "internalType": "uint256",
          "name": "amount",
          "type": "uint256"
        },
        {
          "indexed": false,
          "internalType": "uint256",
          "name": "winPrice",
          "type": "uint256"
        }
      ],
      "name": "AuctionResulted",
      "type": "event"
    },
    {
      "anonymous": false,
      "inputs": [
        {
          "indexed": true,
          "internalType": "address",
          "name": "bidder",
          "type": "address"
        },
        {
          "indexed": true,
          "internalType": "address",
          "name": "nft",
          "type": "address"
        },
        {
          "indexed": true,
          "internalType": "uint256",
          "name": "auctionId",
          "type": "uint256"
        },
        {
          "indexed": false,
          "internalType": "uint256",
          "name": "_tokenId",
          "type": "uint256"
        },
        {
          "indexed": false,
          "internalType": "uint256",
          "name": "newEndPeriod",
          "type": "uint256"
        }
      ],
      "name": "AuctionUpdated",
      "type": "event"
    },
    {
      "anonymous": false,
      "inputs": [
        {
          "indexed": true,
          "internalType": "address",
          "name": "seller",
          "type": "address"
        },
        {
          "indexed": true,
          "internalType": "address",
          "name": "nft",
          "type": "address"
        },
        {
          "indexed": true,
          "internalType": "uint256",
          "name": "auctionId",
          "type": "uint256"
        },
        {
          "indexed": false,
          "internalType": "uint256",
          "name": "tokenId",
          "type": "uint256"
        },
        {
          "indexed": false,
          "internalType": "uint256",
          "name": "amount",
          "type": "uint256"
        },
        {
          "indexed": false,
          "internalType": "uint256",
          "name": "floorPrice",
          "type": "uint256"
        },
        {
          "indexed": false,
          "internalType": "uint256",
          "name": "startPeriod",
          "type": "uint256"
        },
        {
          "indexed": false,
          "internalType": "uint256",
          "name": "endPeriod",
          "type": "uint256"
        },
        {
          "indexed": false,
          "internalType": "enum RC3_Auction.TokenType",
          "name": "tokenType",
          "type": "uint8"
        }
      ],
      "name": "NewAuction",
      "type": "event"
    },
    {
      "anonymous": false,
      "inputs": [
        {
          "indexed": true,
          "internalType": "address",
          "name": "bidder",
          "type": "address"
        },
        {
          "indexed": true,
          "internalType": "address",
          "name": "nft",
          "type": "address"
        },
        {
          "indexed": true,
          "internalType": "uint256",
          "name": "auctionId",
          "type": "uint256"
        },
        {
          "indexed": false,
          "internalType": "uint256",
          "name": "tokenId",
          "type": "uint256"
        },
        {
          "indexed": false,
          "internalType": "uint256",
          "name": "price",
          "type": "uint256"
        }
      ],
      "name": "NewBid",
      "type": "event"
    },
    {
      "inputs": [],
      "name": "auctionId",
      "outputs": [
        {
          "internalType": "uint256",
          "name": "_value",
          "type": "uint256"
        }
      ],
      "stateMutability": "view",
      "type": "function"
    },
    {
      "inputs": [],
      "name": "auctionsClosed",
      "outputs": [
        {
          "internalType": "uint256",
          "name": "_value",
          "type": "uint256"
        }
      ],
      "stateMutability": "view",
      "type": "function"
    },
    {
      "inputs": [
        {
          "internalType": "uint256",
          "name": "_auctionId",
          "type": "uint256"
        },
        {
          "internalType": "uint256",
          "name": "_bidAmount",
          "type": "uint256"
        }
      ],
      "name": "bid",
      "outputs": [
        {
          "internalType": "bool",
          "name": "bidded",
          "type": "bool"
        }
      ],
      "stateMutability": "nonpayable",
      "type": "function"
    },
    {
      "inputs": [
        {
          "internalType": "uint256",
          "name": "_auctionId",
          "type": "uint256"
        }
      ],
      "name": "bidTimeRemaining",
      "outputs": [
        {
          "internalType": "uint256",
          "name": "startsIn",
          "type": "uint256"
        },
        {
          "internalType": "uint256",
          "name": "endsIn",
          "type": "uint256"
        }
      ],
      "stateMutability": "view",
      "type": "function"
    },
    {
      "inputs": [
        {
          "internalType": "uint256",
          "name": "_auctionId",
          "type": "uint256"
        }
      ],
      "name": "closeBid",
      "outputs": [
        {
          "internalType": "enum RC3_Auction.State",
          "name": "status",
          "type": "uint8"
        }
      ],
      "stateMutability": "nonpayable",
      "type": "function"
    },
    {
      "inputs": [],
      "name": "feePercentage",
      "outputs": [
        {
          "internalType": "uint96",
          "name": "",
          "type": "uint96"
        }
      ],
      "stateMutability": "view",
      "type": "function"
    },
    {
      "inputs": [],
      "name": "feeRecipient",
      "outputs": [
        {
          "internalType": "address payable",
          "name": "",
          "type": "address"
        }
      ],
      "stateMutability": "view",
      "type": "function"
    },
    {
      "inputs": [
        {
          "internalType": "uint256",
          "name": "_auctionId",
          "type": "uint256"
        }
      ],
      "name": "getAuction",
      "outputs": [
        {
          "components": [
            {
              "internalType": "address payable",
              "name": "seller",
              "type": "address"
            },
            {
              "internalType": "address payable",
              "name": "highestBidder",
              "type": "address"
            },
            {
              "internalType": "address",
              "name": "nifty",
              "type": "address"
            },
            {
              "internalType": "uint256",
              "name": "tokenId",
              "type": "uint256"
            },
            {
              "internalType": "uint256",
              "name": "tokenAmount",
              "type": "uint256"
            },
            {
              "internalType": "uint256",
              "name": "initialBidAmount",
              "type": "uint256"
            },
            {
              "internalType": "uint256",
              "name": "highestBidAmount",
              "type": "uint256"
            },
            {
              "internalType": "uint256",
              "name": "startPeriod",
              "type": "uint256"
            },
            {
              "internalType": "uint256",
              "name": "endPeriod",
              "type": "uint256"
            },
            {
              "internalType": "uint256",
              "name": "bidCount",
              "type": "uint256"
            },
            {
              "internalType": "enum RC3_Auction.TokenType",
              "name": "tokenType",
              "type": "uint8"
            },
            {
              "internalType": "enum RC3_Auction.State",
              "name": "state",
              "type": "uint8"
            }
          ],
          "internalType": "struct RC3_Auction.Auction",
          "name": "auction_",
          "type": "tuple"
        }
      ],
      "stateMutability": "view",
      "type": "function"
    },
    {
      "inputs": [
        {
          "internalType": "address",
          "name": "nifty",
          "type": "address"
        },
        {
          "internalType": "uint256",
          "name": "_tokenId",
          "type": "uint256"
        },
        {
          "internalType": "uint256",
          "name": "amount",
          "type": "uint256"
        },
        {
          "internalType": "uint256",
          "name": "_startsIn",
          "type": "uint256"
        },
        {
          "internalType": "uint256",
          "name": "_lastsFor",
          "type": "uint256"
        },
        {
          "internalType": "uint256",
          "name": "_initialBidAmount",
          "type": "uint256"
        },
        {
          "internalType": "enum RC3_Auction.TokenType",
          "name": "_type",
          "type": "uint8"
        }
      ],
      "name": "listAuction",
      "outputs": [
        {
          "internalType": "uint256",
          "name": "auctionId_",
          "type": "uint256"
        }
      ],
      "stateMutability": "nonpayable",
      "type": "function"
    },
    {
      "inputs": [
        {
          "internalType": "uint256",
          "name": "_auctionId",
          "type": "uint256"
        }
      ],
      "name": "nextBidAmount",
      "outputs": [
        {
          "internalType": "uint256",
          "name": "amount",
          "type": "uint256"
        }
      ],
      "stateMutability": "view",
      "type": "function"
    },
    {
      "inputs": [
        {
          "internalType": "address",
          "name": "",
          "type": "address"
        },
        {
          "internalType": "address",
          "name": "",
          "type": "address"
        },
        {
          "internalType": "uint256[]",
          "name": "",
          "type": "uint256[]"
        },
        {
          "internalType": "uint256[]",
          "name": "",
          "type": "uint256[]"
        },
        {
          "internalType": "bytes",
          "name": "",
          "type": "bytes"
        }
      ],
      "name": "onERC1155BatchReceived",
      "outputs": [
        {
          "internalType": "bytes4",
          "name": "",
          "type": "bytes4"
        }
      ],
      "stateMutability": "nonpayable",
      "type": "function"
    },
    {
      "inputs": [
        {
          "internalType": "address",
          "name": "",
          "type": "address"
        },
        {
          "internalType": "address",
          "name": "",
          "type": "address"
        },
        {
          "internalType": "uint256",
          "name": "",
          "type": "uint256"
        },
        {
          "internalType": "uint256",
          "name": "",
          "type": "uint256"
        },
        {
          "internalType": "bytes",
          "name": "",
          "type": "bytes"
        }
      ],
      "name": "onERC1155Received",
      "outputs": [
        {
          "internalType": "bytes4",
          "name": "",
          "type": "bytes4"
        }
      ],
      "stateMutability": "nonpayable",
      "type": "function"
    },
    {
      "inputs": [
        {
          "internalType": "address",
          "name": "",
          "type": "address"
        },
        {
          "internalType": "address",
          "name": "",
          "type": "address"
        },
        {
          "internalType": "uint256",
          "name": "",
          "type": "uint256"
        },
        {
          "internalType": "bytes",
          "name": "",
          "type": "bytes"
        }
      ],
      "name": "onERC721Received",
      "outputs": [
        {
          "internalType": "bytes4",
          "name": "",
          "type": "bytes4"
        }
      ],
      "stateMutability": "nonpayable",
      "type": "function"
    },
    {
      "inputs": [
        {
          "internalType": "bytes4",
          "name": "interfaceId",
          "type": "bytes4"
        }
      ],
      "name": "supportsInterface",
      "outputs": [
        {
          "internalType": "bool",
          "name": "",
          "type": "bool"
        }
      ],
      "stateMutability": "view",
      "type": "function"
    }
  ],
  "bytecode": "0x60a060405234801561001057600080fd5b50604051611e50380380611e5083398101604081905261002f91610049565b600160005560601b6001600160601b031916608052610079565b60006020828403121561005b57600080fd5b81516001600160a01b038116811461007257600080fd5b9392505050565b60805160601c611da46100ac600039600081816103180152818161036201528181610afc0152610b4f0152611da46000f3fe608060405234801561001057600080fd5b50600436106100ba5760003560e01c806301ffc9a7146100bf57806310782f8f146100e7578063150b7a02146100ff5780634690484014610136578063575ffe7a14610168578063598647f81461017b5780636cc031241461018e57806378bd793514610198578063a001ecdd146101b8578063bc197c81146101e3578063bd4b04d414610202578063d846349e14610215578063f23a6e611461023d578063f6a898101461025c575b600080fd5b6100d26100cd366004611987565b61027c565b60405190151581526020015b60405180910390f35b6001546100f19081565b6040519081526020016100de565b61011d61010d366004611825565b630a85bd0160e11b949350505050565b6040516001600160e01b031990911681526020016100de565b60035461015090600160601b90046001600160a01b031681565b6040516001600160a01b0390911681526020016100de565b6100f16101763660046119b1565b6102b3565b6100d26101893660046119ca565b6102be565b6002546100f19081565b6101ab6101a63660046119b1565b610504565b6040516100de9190611b72565b6003546101cb906001600160601b031681565b6040516001600160601b0390911681526020016100de565b61011d6101f1366004611778565b63bc197c8160e01b95945050505050565b6100f16102103660046118f8565b61060c565b6102286102233660046119b1565b61083a565b604080519283526020830191909152016100de565b61011d61024b366004611890565b63f23a6e6160e01b95945050505050565b61026f61026a3660046119b1565b610850565b6040516100de9190611aa1565b60006001600160e01b03198216630271189760e51b14806102ad57506301ffc9a760e01b6001600160e01b03198316145b92915050565b60006102ad82610d29565b6000600260005414156102ec5760405162461bcd60e51b81526004016102e390611b3b565b60405180910390fd5b600260005582826102fd8282610e82565b60008581526004602052604090206103406001600160a01b037f0000000000000000000000000000000000000000000000000000000000000000163330886110c0565b60098101541561038c576001810154600682015461038c916001600160a01b037f0000000000000000000000000000000000000000000000000000000000000000811692911690611118565b6001810180546001600160a01b03191633179055600681018590556009810180549060006103b983611d22565b909155505060028101546003820154604080519182526020820188905288926001600160a01b03169133917f911d834cc781bcb7a08922b9dd1f1d175c0a0467d9705194c2e200f8ce2786bb910160405180910390a4600061041a8761114d565b915050610e108110156104f157610e1061043682610258611c86565b11156104665761044881610e10611cdf565b82600801600082825461045b9190611c86565b925050819055610483565b61025882600801600082825461047c9190611c86565b9250508190555b50600061048f8861114d565b600285015460038601549193508a92506001600160a01b03169033907ff3f8c69115d9f33b41d0ae7a8f88fb8cde222311d82702dc55025079d0eca53a906104d78642611c86565b6040805192835260208301919091520160405180910390a4505b6001945050505050600160005592915050565b61050c6115e7565b60008281526004602081815260409283902083516101808101855281546001600160a01b0390811682526001808401548216948301949094526002830154169481019490945260038101546060850152918201546080840152600582015460a0840152600682015460c0840152600782015460e084015260088201546101008401526009820154610120840152600a82015461014084019160ff909116908111156105b9576105b9611d53565b60018111156105ca576105ca611d53565b8152602001600a820160019054906101000a900460ff1660028111156105f2576105f2611d53565b600281111561060357610603611d53565b90525092915050565b600061061c600180546001019055565b50600154836106605760405162461bcd60e51b815260206004820152601060248201526f24a72b20a624a22fa22aa920aa24a7a760811b60448201526064016102e3565b600082600181111561067457610674611d53565b1415610775576040516331a9108f60e11b81526004810188905288906000906001600160a01b03831690636352211e9060240160206040518083038186803b1580156106bf57600080fd5b505afa1580156106d3573d6000803e3d6000fd5b505050506040513d601f19601f820116820180604052508101906106f7919061175b565b604051632142170760e11b81529091506001600160a01b038316906342842e0e9061072a90849030908e90600401611a39565b600060405180830381600087803b15801561074457600080fd5b505af1158015610758573d6000803e3d6000fd5b5050505061076e8a848b60018b8b8b600061129f565b505061082f565b600086116107b65760405162461bcd60e51b815260206004820152600e60248201526d1253959053125117d05353d5539560921b60448201526064016102e3565b604051637921219560e11b815288906001600160a01b0382169063f242432a906107ea90339030908d908d90600401611a5d565b600060405180830381600087803b15801561080457600080fd5b505af1158015610818573d6000803e3d6000fd5b5050505061082d89838a8a8a8a8a600161129f565b505b979650505050505050565b6000806108468361114d565b9094909350915050565b6000600260005414156108755760405162461bcd60e51b81526004016102e390611b3b565b6002600090815582815260046020526040812090600a820154610100900460ff1660028111156108a7576108a7611d53565b146108c45760405162461bcd60e51b81526004016102e390611ae2565b6000806108d08561114d565b915091508160001480156108e2575080155b6108fe5760405162461bcd60e51b81526004016102e390611b0e565b80156109405760405162461bcd60e51b8152602060048201526011602482015270105550d51253d397d393d517d153911151607a1b60448201526064016102e3565b600683015480610ab6576000600a85015460ff16600181111561096557610965611d53565b146109e557600284015484546003860154600480880154604051637921219560e11b81526001600160a01b039586169563f242432a956109ae9530959190921693919201611a5d565b600060405180830381600087803b1580156109c857600080fd5b505af11580156109dc573d6000803e3d6000fd5b50505050610a56565b600284015484546003860154604051632142170760e11b81526001600160a01b03938416936342842e0e93610a239330939290911691600401611a39565b600060405180830381600087803b158015610a3d57600080fd5b505af1158015610a51573d6000803e3d6000fd5b505050505b600a8401805461ff00191661010017905560028401546003850154604080519182525188926001600160a01b03169133917f57bfd08a841d5d478e4fef268a8b041c65e389dddfa00f8c4a88a9d4fd9bc8249181900360200190a4610d01565b600354600090620186a090610ad59084906001600160601b0316611cc0565b610adf9190611c9e565b60018601546003549192506001600160a01b0390811691610b2c917f0000000000000000000000000000000000000000000000000000000000000000811691600160601b90041684611118565b8554610b76906001600160a01b0316610b458486611cdf565b6001600160a01b037f0000000000000000000000000000000000000000000000000000000000000000169190611118565b6000600a87015460ff166001811115610b9157610b91611d53565b14610c0c5760028601546003870154600480890154604051637921219560e11b81526001600160a01b039094169363f242432a93610bd59330938893909101611a5d565b600060405180830381600087803b158015610bef57600080fd5b505af1158015610c03573d6000803e3d6000fd5b50505050610c78565b60028601546003870154604051632142170760e11b81526001600160a01b03909216916342842e0e91610c459130918691600401611a39565b600060405180830381600087803b158015610c5f57600080fd5b505af1158015610c73573d6000803e3d6000fd5b505050505b600a8601805461020061ff00199091161790556002860154865460038801546004890154604080516001600160a01b0394851681528685166020820152908101929092526060820152608081018690528a92919091169033907f31c8601b5dd4c4e31751f64d3545cc33889c92681a65811a7f4575b3ae26d5569060a00160405180910390a450505b610d0f600280546001019055565b505050600a01546001600055610100900460ff1692915050565b600081815260046020818152604080842081516101808101835281546001600160a01b0390811682526001808401548216958301959095526002830154169281019290925260038101546060830152928301546080820152600583015460a0820152600683015460c0820152600783015460e082015260088301546101008201526009830154610120820152600a8301548493919261014084019160ff1690811115610dd757610dd7611d53565b6001811115610de857610de8611d53565b8152602001600a820160019054906101000a900460ff166002811115610e1057610e10611d53565b6002811115610e2157610e21611d53565b90525080519091506001600160a01b031615610e795760c081015180610e4c575060a0015192915050565b80620186a0610e5d82612710611cc0565b610e679190611c9e565b610e719190611c86565b949350505050565b50600092915050565b600082815260046020818152604080842081516101808101835281546001600160a01b0390811682526001808401548216958301959095526002830154169281019290925260038101546060830152928301546080820152600583015460a0820152600683015460c0820152600783015460e082015260088301546101008201526009830154610120820152600a83015490929161014084019160ff1690811115610f2f57610f2f611d53565b6001811115610f4057610f40611d53565b8152602001600a820160019054906101000a900460ff166002811115610f6857610f68611d53565b6002811115610f7957610f79611d53565b90525061010081015190915060008261016001516002811115610f9e57610f9e611d53565b14610fbb5760405162461bcd60e51b81526004016102e390611ae2565b81516001600160a01b03163314156110085760405162461bcd60e51b815260206004820152601060248201526f13d5d3915497d0d0539393d517d0925160821b60448201526064016102e3565b428260e00151111561102c5760405162461bcd60e51b81526004016102e390611b0e565b42811161106b5760405162461bcd60e51b815260206004820152600d60248201526c105550d51253d397d153911151609a1b60448201526064016102e3565b61107484610d29565b8310156110ba5760405162461bcd60e51b81526020600482015260146024820152731253959053125117d25394155517d05353d5539560621b60448201526064016102e3565b50505050565b6110ba846323b872dd60e01b8585856040516024016110e193929190611a39565b60408051601f198184030181529190526020810180516001600160e01b03166001600160e01b0319909316929092179091526113a2565b6040516001600160a01b03831660248201526044810182905261114890849063a9059cbb60e01b906064016110e1565b505050565b600081815260046020818152604080842081516101808101835281546001600160a01b0390811682526001808401548216958301959095526002830154169281019290925260038101546060830152928301546080820152600583015460a0820152600683015460c0820152600783015460e082015260088301546101008201526009830154610120820152600a83015484938493909161014084019160ff909116908111156111ff576111ff611d53565b600181111561121057611210611d53565b8152602001600a820160019054906101000a900460ff16600281111561123857611238611d53565b600281111561124957611249611d53565b815250509050428160e0015111611261576000611271565b428160e001516112719190611cdf565b92504281610100015111611286576000611297565b428161010001516112979190611cdf565b915050915091565b6000878152600460205260408120906112b88642611c86565b905060006112c68683611c86565b6002840180546001600160a01b038e166001600160a01b031991821617909155600385018b905560078501849055600885018290558454163317845560058401869055600a84018054919250859160ff19166001838181111561132b5761132b611d53565b021790555060048301889055600a8301805461ff00191690556040518a906001600160a01b038d169033907f199f73ece82f19f692dcb7db8f91f2527bd3158ffae28e226d7ef02df70435349061138d908e908e908c908a908a908e90611c26565b60405180910390a45050505050505050505050565b60006113f7826040518060400160405280602081526020017f5361666545524332303a206c6f772d6c6576656c2063616c6c206661696c6564815250856001600160a01b03166114749092919063ffffffff16565b80519091501561114857808060200190518101906114159190611965565b6111485760405162461bcd60e51b815260206004820152602a60248201527f5361666545524332303a204552433230206f7065726174696f6e20646964206e6044820152691bdd081cdd58d8d9595960b21b60648201526084016102e3565b6060611483848460008561148d565b90505b9392505050565b6060824710156114ee5760405162461bcd60e51b815260206004820152602660248201527f416464726573733a20696e73756666696369656e742062616c616e636520666f6044820152651c8818d85b1b60d21b60648201526084016102e3565b6001600160a01b0385163b6115455760405162461bcd60e51b815260206004820152601d60248201527f416464726573733a2063616c6c20746f206e6f6e2d636f6e747261637400000060448201526064016102e3565b600080866001600160a01b031685876040516115619190611a1d565b60006040518083038185875af1925050503d806000811461159e576040519150601f19603f3d011682016040523d82523d6000602084013e6115a3565b606091505b509150915061082f828286606083156115bd575081611486565b8251156115cd5782518084602001fd5b8160405162461bcd60e51b81526004016102e39190611aaf565b60405180610180016040528060006001600160a01b0316815260200160006001600160a01b0316815260200160006001600160a01b03168152602001600081526020016000815260200160008152602001600081526020016000815260200160008152602001600081526020016000600181111561166757611667611d53565b81526020016000905290565b600082601f83011261168457600080fd5b813560206001600160401b0382111561169f5761169f611d69565b8160051b6116ae828201611c56565b8381528281019086840183880185018910156116c957600080fd5b600093505b8584101561082d5780358352600193909301929184019184016116ce565b600082601f8301126116fd57600080fd5b81356001600160401b0381111561171657611716611d69565b611729601f8201601f1916602001611c56565b81815284602083860101111561173e57600080fd5b816020850160208301376000918101602001919091529392505050565b60006020828403121561176d57600080fd5b815161148681611d7f565b600080600080600060a0868803121561179057600080fd5b853561179b81611d7f565b945060208601356117ab81611d7f565b935060408601356001600160401b03808211156117c757600080fd5b6117d389838a01611673565b945060608801359150808211156117e957600080fd5b6117f589838a01611673565b9350608088013591508082111561180b57600080fd5b50611818888289016116ec565b9150509295509295909350565b6000806000806080858703121561183b57600080fd5b843561184681611d7f565b9350602085013561185681611d7f565b92506040850135915060608501356001600160401b0381111561187857600080fd5b611884878288016116ec565b91505092959194509250565b600080600080600060a086880312156118a857600080fd5b85356118b381611d7f565b945060208601356118c381611d7f565b9350604086013592506060860135915060808601356001600160401b038111156118ec57600080fd5b611818888289016116ec565b600080600080600080600060e0888a03121561191357600080fd5b873561191e81611d7f565b96506020880135955060408801359450606088013593506080880135925060a0880135915060c08801356002811061195557600080fd5b8091505092959891949750929550565b60006020828403121561197757600080fd5b8151801515811461148657600080fd5b60006020828403121561199957600080fd5b81356001600160e01b03198116811461148657600080fd5b6000602082840312156119c357600080fd5b5035919050565b600080604083850312156119dd57600080fd5b50508035926020909101359150565b6001600160a01b03169052565b60038110611a0957611a09611d53565b9052565b60028110611a0957611a09611d53565b60008251611a2f818460208701611cf6565b9190910192915050565b6001600160a01b039384168152919092166020820152604081019190915260600190565b6001600160a01b0394851681529290931660208301526040820152606081019190915260a0608082018190526003908201526203078360ec1b60c082015260e00190565b602081016102ad82846119f9565b6020815260008251806020840152611ace816040850160208701611cf6565b601f01601f19169190910160400192915050565b602080825260129082015271105550d51253d397d393d517d31254d5115160721b604082015260600190565b602080825260139082015272105550d51253d397d393d517d4d51054951151606a1b604082015260600190565b6020808252601f908201527f5265656e7472616e637947756172643a207265656e7472616e742063616c6c00604082015260600190565b600061018082019050611b868284516119ec565b6020830151611b9860208401826119ec565b506040830151611bab60408401826119ec565b50606083015160608301526080830151608083015260a083015160a083015260c083015160c083015260e083015160e083015261010080840151818401525061012080840151818401525061014080840151611c0982850182611a0d565b505061016080840151611c1e828501826119f9565b505092915050565b600060c08201905087825286602083015285604083015284606083015283608083015261082f60a0830184611a0d565b604051601f8201601f191681016001600160401b0381118282101715611c7e57611c7e611d69565b604052919050565b60008219821115611c9957611c99611d3d565b500190565b600082611cbb57634e487b7160e01b600052601260045260246000fd5b500490565b6000816000190483118215151615611cda57611cda611d3d565b500290565b600082821015611cf157611cf1611d3d565b500390565b60005b83811015611d11578181015183820152602001611cf9565b838111156110ba5750506000910152565b6000600019821415611d3657611d36611d3d565b5060010190565b634e487b7160e01b600052601160045260246000fd5b634e487b7160e01b600052602160045260246000fd5b634e487b7160e01b600052604160045260246000fd5b6001600160a01b0381168114611d9457600080fd5b5056fea164736f6c6343000806000a",
  "linkReferences": {},
  "deployedLinkReferences": {}
}