{
  "contractName": "Marketplace",
  "abi": [
    {
      "inputs": [],
      "stateMutability": "nonpayable",
      "type": "constructor"
    },
    {
      "anonymous": false,
      "inputs": [
        {
          "indexed": true,
          "internalType": "uint256",
          "name": "itemId",
          "type": "uint256"
        },
        {
          "indexed": true,
          "internalType": "address",
          "name": "nftContract",
          "type": "address"
        },
        {
          "indexed": true,
          "internalType": "uint256",
          "name": "tokenId",
          "type": "uint256"
        },
        {
          "indexed": false,
          "internalType": "address",
          "name": "seller",
          "type": "address"
        },
        {
          "indexed": false,
          "internalType": "address",
          "name": "owner",
          "type": "address"
        },
        {
          "indexed": false,
          "internalType": "uint256",
          "name": "price",
          "type": "uint256"
        }
      ],
      "name": "MarketItemCreated",
      "type": "event"
    },
    {
      "anonymous": false,
      "inputs": [
        {
          "indexed": true,
          "internalType": "uint256",
          "name": "itemId",
          "type": "uint256"
        },
        {
          "indexed": true,
          "internalType": "address",
          "name": "nftContract",
          "type": "address"
        },
        {
          "indexed": true,
          "internalType": "uint256",
          "name": "tokenId",
          "type": "uint256"
        },
        {
          "indexed": false,
          "internalType": "address",
          "name": "buyer",
          "type": "address"
        },
        {
          "indexed": false,
          "internalType": "address",
          "name": "seller",
          "type": "address"
        },
        {
          "indexed": false,
          "internalType": "uint256",
          "name": "price",
          "type": "uint256"
        }
      ],
      "name": "MarketSale",
      "type": "event"
    },
    {
      "inputs": [
        {
          "internalType": "address",
          "name": "_nftContract",
          "type": "address"
        },
        {
          "internalType": "uint256",
          "name": "_tokenId",
          "type": "uint256"
        },
        {
          "internalType": "uint256",
          "name": "_price",
          "type": "uint256"
        }
      ],
      "name": "createMarketItem",
      "outputs": [
        {
          "internalType": "bool",
          "name": "marketItemCreated",
          "type": "bool"
        }
      ],
      "stateMutability": "payable",
      "type": "function"
    },
    {
      "inputs": [
        {
          "internalType": "address",
          "name": "_nftContract",
          "type": "address"
        },
        {
          "internalType": "uint256",
          "name": "_itemId",
          "type": "uint256"
        }
      ],
      "name": "createMarketSale",
      "outputs": [
        {
          "internalType": "bool",
          "name": "bought",
          "type": "bool"
        }
      ],
      "stateMutability": "payable",
      "type": "function"
    },
    {
      "inputs": [
        {
          "internalType": "uint256",
          "name": "_marketItemId",
          "type": "uint256"
        }
      ],
      "name": "getMarketItem",
      "outputs": [
        {
          "components": [
            {
              "internalType": "uint256",
              "name": "itemId",
              "type": "uint256"
            },
            {
              "internalType": "address",
              "name": "nftContract",
              "type": "address"
            },
            {
              "internalType": "uint256",
              "name": "tokenId",
              "type": "uint256"
            },
            {
              "internalType": "address payable",
              "name": "seller",
              "type": "address"
            },
            {
              "internalType": "address payable",
              "name": "owner",
              "type": "address"
            },
            {
              "internalType": "uint256",
              "name": "price",
              "type": "uint256"
            }
          ],
          "internalType": "struct Marketplace.MarketItem",
          "name": "",
          "type": "tuple"
        }
      ],
      "stateMutability": "view",
      "type": "function"
    },
    {
      "inputs": [],
      "name": "getMarketItems",
      "outputs": [
        {
          "components": [
            {
              "internalType": "uint256",
              "name": "itemId",
              "type": "uint256"
            },
            {
              "internalType": "address",
              "name": "nftContract",
              "type": "address"
            },
            {
              "internalType": "uint256",
              "name": "tokenId",
              "type": "uint256"
            },
            {
              "internalType": "address payable",
              "name": "seller",
              "type": "address"
            },
            {
              "internalType": "address payable",
              "name": "owner",
              "type": "address"
            },
            {
              "internalType": "uint256",
              "name": "price",
              "type": "uint256"
            }
          ],
          "internalType": "struct Marketplace.MarketItem[]",
          "name": "marketItems",
          "type": "tuple[]"
        }
      ],
      "stateMutability": "view",
      "type": "function"
    },
    {
      "inputs": [],
      "name": "getMyNFTs",
      "outputs": [
        {
          "components": [
            {
              "internalType": "uint256",
              "name": "itemId",
              "type": "uint256"
            },
            {
              "internalType": "address",
              "name": "nftContract",
              "type": "address"
            },
            {
              "internalType": "uint256",
              "name": "tokenId",
              "type": "uint256"
            },
            {
              "internalType": "address payable",
              "name": "seller",
              "type": "address"
            },
            {
              "internalType": "address payable",
              "name": "owner",
              "type": "address"
            },
            {
              "internalType": "uint256",
              "name": "price",
              "type": "uint256"
            }
          ],
          "internalType": "struct Marketplace.MarketItem[]",
          "name": "myNfts",
          "type": "tuple[]"
        }
      ],
      "stateMutability": "view",
      "type": "function"
    }
  ],
  "bytecode": "0x608060405267016345785d8a000060025534801561001c57600080fd5b5033600360006101000a81548173ffffffffffffffffffffffffffffffffffffffff021916908373ffffffffffffffffffffffffffffffffffffffff1602179055506116508061006d6000396000f3fe60806040526004361061004a5760003560e01c806329aa3a421461004f57806358eb2df51461007a578063629cb2e4146100aa578063c23b139e146100d5578063c7be7a4914610105575b600080fd5b34801561005b57600080fd5b50610064610142565b604051610071919061127a565b60405180910390f35b610094600480360381019061008f9190610f4e565b610406565b6040516100a1919061129c565b60405180910390f35b3480156100b657600080fd5b506100bf6106ef565b6040516100cc919061127a565b60405180910390f35b6100ef60048036038101906100ea9190610f0e565b610a36565b6040516100fc919061129c565b60405180910390f35b34801561011157600080fd5b5061012c60048036038101906101279190610fa1565b610cfb565b6040516101399190611317565b60405180910390f35b606060006101506000610e48565b9050600061015e6001610e48565b6101686000610e48565b61017291906113d2565b90506000808267ffffffffffffffff8111156101915761019061153d565b5b6040519080825280602002602001820160405280156101ca57816020015b6101b7610e6c565b8152602001906001900390816101af5790505b50905060005b848110156103fb57600073ffffffffffffffffffffffffffffffffffffffff1660046000600184610201919061137c565b815260200190815260200160002060040160009054906101000a900473ffffffffffffffffffffffffffffffffffffffff1673ffffffffffffffffffffffffffffffffffffffff1614156103e857600060046000600184610262919061137c565b81526020019081526020016000206000015490506000600460008381526020019081526020016000209050806040518060c0016040529081600082015481526020016001820160009054906101000a900473ffffffffffffffffffffffffffffffffffffffff1673ffffffffffffffffffffffffffffffffffffffff1673ffffffffffffffffffffffffffffffffffffffff168152602001600282015481526020016003820160009054906101000a900473ffffffffffffffffffffffffffffffffffffffff1673ffffffffffffffffffffffffffffffffffffffff1673ffffffffffffffffffffffffffffffffffffffff1681526020016004820160009054906101000a900473ffffffffffffffffffffffffffffffffffffffff1673ffffffffffffffffffffffffffffffffffffffff1673ffffffffffffffffffffffffffffffffffffffff1681526020016005820154815250508486815181106103cc576103cb61150e565b5b602002602001018190525084806103e290611496565b95505050505b80806103f390611496565b9150506101d0565b508094505050505090565b600080821161044a576040517f08c379a0000000000000000000000000000000000000000000000000000000008152600401610441906112d7565b60405180910390fd5b600254341461048e576040517f08c379a0000000000000000000000000000000000000000000000000000000008152600401610485906112f7565b60405180910390fd5b8373ffffffffffffffffffffffffffffffffffffffff166323b872dd3330866040518463ffffffff1660e01b81526004016104cb93929190611243565b600060405180830381600087803b1580156104e557600080fd5b505af11580156104f9573d6000803e3d6000fd5b505050506105076000610e56565b60006105136000610e48565b90506040518060c001604052808281526020018673ffffffffffffffffffffffffffffffffffffffff1681526020018581526020013373ffffffffffffffffffffffffffffffffffffffff168152602001600073ffffffffffffffffffffffffffffffffffffffff16815260200184815250600460008381526020019081526020016000206000820151816000015560208201518160010160006101000a81548173ffffffffffffffffffffffffffffffffffffffff021916908373ffffffffffffffffffffffffffffffffffffffff1602179055506040820151816002015560608201518160030160006101000a81548173ffffffffffffffffffffffffffffffffffffffff021916908373ffffffffffffffffffffffffffffffffffffffff16021790555060808201518160040160006101000a81548173ffffffffffffffffffffffffffffffffffffffff021916908373ffffffffffffffffffffffffffffffffffffffff16021790555060a08201518160050155905050838573ffffffffffffffffffffffffffffffffffffffff16827f2ad024d53a0dc50c130967f8d4941927ee087ea31394cebb2b9599d3706c9c00336000886040516106db93929190611243565b60405180910390a460019150509392505050565b606060006106fd6000610e48565b905060008060005b838110156107a5573373ffffffffffffffffffffffffffffffffffffffff1660046000600184610735919061137c565b815260200190815260200160002060040160009054906101000a900473ffffffffffffffffffffffffffffffffffffffff1673ffffffffffffffffffffffffffffffffffffffff16141561079257828061078e90611496565b9350505b808061079d90611496565b915050610705565b5060008267ffffffffffffffff8111156107c2576107c161153d565b5b6040519080825280602002602001820160405280156107fb57816020015b6107e8610e6c565b8152602001906001900390816107e05790505b50905060005b84811015610a2b573373ffffffffffffffffffffffffffffffffffffffff1660046000600184610831919061137c565b815260200190815260200160002060040160009054906101000a900473ffffffffffffffffffffffffffffffffffffffff1673ffffffffffffffffffffffffffffffffffffffff161415610a1857600060046000600184610892919061137c565b81526020019081526020016000206000015490506000600460008381526020019081526020016000209050806040518060c0016040529081600082015481526020016001820160009054906101000a900473ffffffffffffffffffffffffffffffffffffffff1673ffffffffffffffffffffffffffffffffffffffff1673ffffffffffffffffffffffffffffffffffffffff168152602001600282015481526020016003820160009054906101000a900473ffffffffffffffffffffffffffffffffffffffff1673ffffffffffffffffffffffffffffffffffffffff1673ffffffffffffffffffffffffffffffffffffffff1681526020016004820160009054906101000a900473ffffffffffffffffffffffffffffffffffffffff1673ffffffffffffffffffffffffffffffffffffffff1673ffffffffffffffffffffffffffffffffffffffff1681526020016005820154815250508486815181106109fc576109fb61150e565b5b60200260200101819052508480610a1290611496565b95505050505b8080610a2390611496565b915050610801565b508094505050505090565b60008060046000848152602001908152602001600020600501549050600060046000858152602001908152602001600020600201549050813414610aaf576040517f08c379a0000000000000000000000000000000000000000000000000000000008152600401610aa6906112b7565b60405180910390fd5b6004600085815260200190815260200160002060030160009054906101000a900473ffffffffffffffffffffffffffffffffffffffff1673ffffffffffffffffffffffffffffffffffffffff166108fc349081150290604051600060405180830381858888f19350505050158015610b2b573d6000803e3d6000fd5b50600360009054906101000a900473ffffffffffffffffffffffffffffffffffffffff1673ffffffffffffffffffffffffffffffffffffffff166108fc6002549081150290604051600060405180830381858888f19350505050158015610b96573d6000803e3d6000fd5b50336004600086815260200190815260200160002060040160006101000a81548173ffffffffffffffffffffffffffffffffffffffff021916908373ffffffffffffffffffffffffffffffffffffffff1602179055508473ffffffffffffffffffffffffffffffffffffffff166323b872dd3033846040518463ffffffff1660e01b8152600401610c2993929190611243565b600060405180830381600087803b158015610c4357600080fd5b505af1158015610c57573d6000803e3d6000fd5b50505050610c656001610e56565b808573ffffffffffffffffffffffffffffffffffffffff16857fd86c7b830e26a0346c001a0b7ac1bc02839162bd641fb1cc3ef56e21a17e742533600460008a815260200190815260200160002060030160009054906101000a900473ffffffffffffffffffffffffffffffffffffffff1687604051610ce79392919061120c565b60405180910390a460019250505092915050565b610d03610e6c565b600460008381526020019081526020016000206040518060c0016040529081600082015481526020016001820160009054906101000a900473ffffffffffffffffffffffffffffffffffffffff1673ffffffffffffffffffffffffffffffffffffffff1673ffffffffffffffffffffffffffffffffffffffff168152602001600282015481526020016003820160009054906101000a900473ffffffffffffffffffffffffffffffffffffffff1673ffffffffffffffffffffffffffffffffffffffff1673ffffffffffffffffffffffffffffffffffffffff1681526020016004820160009054906101000a900473ffffffffffffffffffffffffffffffffffffffff1673ffffffffffffffffffffffffffffffffffffffff1673ffffffffffffffffffffffffffffffffffffffff1681526020016005820154815250509050919050565b600081600001549050919050565b6001816000016000828254019250508190555050565b6040518060c0016040528060008152602001600073ffffffffffffffffffffffffffffffffffffffff16815260200160008152602001600073ffffffffffffffffffffffffffffffffffffffff168152602001600073ffffffffffffffffffffffffffffffffffffffff168152602001600081525090565b600081359050610ef3816115ec565b92915050565b600081359050610f0881611603565b92915050565b60008060408385031215610f2557610f2461156c565b5b6000610f3385828601610ee4565b9250506020610f4485828601610ef9565b9150509250929050565b600080600060608486031215610f6757610f6661156c565b5b6000610f7586828701610ee4565b9350506020610f8686828701610ef9565b9250506040610f9786828701610ef9565b9150509250925092565b600060208284031215610fb757610fb661156c565b5b6000610fc584828501610ef9565b91505092915050565b6000610fda83836110f8565b60c08301905092915050565b610fef81611460565b82525050565b610ffe81611418565b82525050565b61100d81611406565b82525050565b61101c81611406565b82525050565b600061102d82611342565b611037818561135a565b935061104283611332565b8060005b8381101561107357815161105a8882610fce565b97506110658361134d565b925050600181019050611046565b5085935050505092915050565b6110898161142a565b82525050565b600061109c601a8361136b565b91506110a782611571565b602082019050919050565b60006110bf60198361136b565b91506110ca8261159a565b602082019050919050565b60006110e260208361136b565b91506110ed826115c3565b602082019050919050565b60c08201600082015161110e60008501826111ee565b5060208201516111216020850182611004565b50604082015161113460408501826111ee565b5060608201516111476060850182610ff5565b50608082015161115a6080850182610ff5565b5060a082015161116d60a08501826111ee565b50505050565b60c08201600082015161118960008501826111ee565b50602082015161119c6020850182611004565b5060408201516111af60408501826111ee565b5060608201516111c26060850182610ff5565b5060808201516111d56080850182610ff5565b5060a08201516111e860a08501826111ee565b50505050565b6111f781611456565b82525050565b61120681611456565b82525050565b60006060820190506112216000830186611013565b61122e6020830185610fe6565b61123b60408301846111fd565b949350505050565b60006060820190506112586000830186611013565b6112656020830185611013565b61127260408301846111fd565b949350505050565b600060208201905081810360008301526112948184611022565b905092915050565b60006020820190506112b16000830184611080565b92915050565b600060208201905081810360008301526112d08161108f565b9050919050565b600060208201905081810360008301526112f0816110b2565b9050919050565b60006020820190508181036000830152611310816110d5565b9050919050565b600060c08201905061132c6000830184611173565b92915050565b6000819050602082019050919050565b600081519050919050565b6000602082019050919050565b600082825260208201905092915050565b600082825260208201905092915050565b600061138782611456565b915061139283611456565b9250827fffffffffffffffffffffffffffffffffffffffffffffffffffffffffffffffff038211156113c7576113c66114df565b5b828201905092915050565b60006113dd82611456565b91506113e883611456565b9250828210156113fb576113fa6114df565b5b828203905092915050565b600061141182611436565b9050919050565b600061142382611436565b9050919050565b60008115159050919050565b600073ffffffffffffffffffffffffffffffffffffffff82169050919050565b6000819050919050565b600061146b82611472565b9050919050565b600061147d82611484565b9050919050565b600061148f82611436565b9050919050565b60006114a182611456565b91507fffffffffffffffffffffffffffffffffffffffffffffffffffffffffffffffff8214156114d4576114d36114df565b5b600182019050919050565b7f4e487b7100000000000000000000000000000000000000000000000000000000600052601160045260246000fd5b7f4e487b7100000000000000000000000000000000000000000000000000000000600052603260045260246000fd5b7f4e487b7100000000000000000000000000000000000000000000000000000000600052604160045260246000fd5b600080fd5b7f4d7573742073656e64207468652061736b696e67207072696365000000000000600082015250565b7f5072696365206d757374206265206d6f7265207468616e203000000000000000600082015250565b7f466565206d75737420626520657175616c20746f206c697374696e6720666565600082015250565b6115f581611406565b811461160057600080fd5b50565b61160c81611456565b811461161757600080fd5b5056fea2646970667358221220854ff159074f33d222a075ef72bc5652a3d09a8f2d04e72de373f034047352ba64736f6c63430008060033",
  "immutableReferences": {},
  "source": "// SPDX-License-Identifier: MIT OR Apache-2.0\npragma solidity 0.8.6;\n\nimport \"@openzeppelin/contracts/utils/Counters.sol\";\nimport \"@openzeppelin/contracts/token/ERC721/ERC721.sol\";\n\ncontract Marketplace {\n  using Counters for Counters.Counter;\n  \n  Counters.Counter private _itemIds;\n  Counters.Counter private _itemsSold;\n\n  uint listingFee = 0.1 ether;\n  address payable admin;\n\n  constructor(\n    ) {\n    admin = payable(msg.sender);\n  }\n\n  struct MarketItem {\n    uint itemId;\n    address nftContract;\n    uint tokenId;\n    address payable seller;\n    address payable owner;\n    uint price;\n  }\n\n  mapping(uint => MarketItem) private idToMarketItem;\n\n  event MarketItemCreated (\n    uint indexed itemId,\n    address indexed nftContract,\n    uint indexed tokenId,\n    address seller,\n    address owner,\n    uint price\n  );\n\n  event MarketSale(\n      uint indexed itemId,\n      address indexed nftContract,\n      uint indexed tokenId,\n      address buyer,\n      address seller,\n      uint price\n  );\n\n  function createMarketItem(\n    address _nftContract,\n    uint _tokenId,\n    uint _price\n    ) external payable returns(bool marketItemCreated) {\n    require(\n      _price > 0, \n      \"Price must be more than 0\"\n    );\n    require(\n      msg.value == listingFee, \n      \"Fee must be equal to listing fee\"\n    );\n\n    IERC721(_nftContract).transferFrom(\n      msg.sender, \n      address(this), \n      _tokenId\n    );\n\n    _itemIds.increment();\n    uint itemId = _itemIds.current();\n\n    idToMarketItem[itemId] =  MarketItem(\n      itemId,\n      _nftContract,\n      _tokenId,\n      payable(msg.sender),\n      payable(address(0)),\n      _price\n    );\n\n    emit MarketItemCreated(\n      itemId,\n      _nftContract,\n      _tokenId,\n      msg.sender,\n      address(0),\n      _price\n    );\n\n    return true;\n  }\n\n  function createMarketSale(\n    address _nftContract,\n    uint256 _itemId\n    ) external payable returns(bool bought) {\n    \n    uint price = idToMarketItem[_itemId].price;\n    uint tokenId = idToMarketItem[_itemId].tokenId;\n    \n    require(\n      msg.value == price, \n      \"Must send the asking price\"\n    );\n\n    idToMarketItem[_itemId].seller.transfer(msg.value);\n    payable(admin).transfer(listingFee);\n\n    idToMarketItem[_itemId].owner = payable(msg.sender);\n    IERC721(_nftContract).transferFrom(\n      address(this), \n      msg.sender, \n      tokenId\n    );\n    _itemsSold.increment();\n    \n    emit MarketSale(\n      _itemId,\n      _nftContract,\n      tokenId,\n      msg.sender,\n      idToMarketItem[_itemId].seller,\n      price\n    );\n\n    return true;\n  }\n\n  function getMarketItem(\n    uint _marketItemId\n    ) external view returns(MarketItem memory) {\n\n    return idToMarketItem[_marketItemId];\n  }\n\n  function getMarketItems(\n    ) external view returns(MarketItem[] memory marketItems) {\n    \n    uint itemCount = _itemIds.current();\n    uint unsoldItemCount = _itemIds.current() - _itemsSold.current();\n    uint currentIndex;\n\n    MarketItem[] memory items = new MarketItem[](unsoldItemCount);\n    \n    for (uint i = 0; i < itemCount; i++) {\n      \n      if (idToMarketItem[i + 1].owner == address(0)) {\n        \n        uint currentId = idToMarketItem[i + 1].itemId;\n        MarketItem storage currentItem = idToMarketItem[currentId];\n        items[currentIndex] = currentItem;\n        currentIndex++;\n      }\n    }\n    return items;\n  }\n\n  function getMyNFTs(\n    ) external view returns(MarketItem[] memory myNfts) {\n\n    uint totalItemCount = _itemIds.current();\n    uint itemCount;\n    uint currentIndex;\n\n    for (uint i = 0; i < totalItemCount; i++) {\n      \n      if (idToMarketItem[i + 1].owner == msg.sender) {\n        \n        itemCount++;\n      }\n    }\n\n    MarketItem[] memory items = new MarketItem[](itemCount);\n    \n    for (uint i = 0; i < totalItemCount; i++) {\n      \n      if (idToMarketItem[i + 1].owner == msg.sender) {\n        \n        uint currentId = idToMarketItem[i + 1].itemId;\n        MarketItem storage currentItem = idToMarketItem[currentId];\n        items[currentIndex] = currentItem;\n        currentIndex++;\n      }\n    }\n    return items;\n  }\n}",
  "sourcePath": "/Users/hendobox/Desktop/THE GRIND/Blockchain Dev/gitrepo/RC3-NFT/contracts/RC3Market.sol",
  "compiler": {
    "name": "solc",
    "version": "0.8.6+commit.11564f7e.Emscripten.clang"
  },
  "schemaVersion": "3.3.3",
  "updatedAt": "2021-07-13T09:49:09.496Z",
  "devdoc": {
    "kind": "dev",
    "methods": {},
    "version": 1
  },
  "userdoc": {
    "kind": "user",
    "methods": {},
    "version": 1
  }
}