{
  "contractName": "Marketplace",
  "abi": [
    {
      "inputs": [
        {
          "internalType": "address",
          "name": "_uniswapV2RouterAddress",
          "type": "address"
        },
        {
          "internalType": "address",
          "name": "_rcdy",
          "type": "address"
        },
        {
          "internalType": "address",
          "name": "_feeCollector",
          "type": "address"
        },
        {
          "internalType": "uint256",
          "name": "_listingFee",
          "type": "uint256"
        }
      ],
      "stateMutability": "nonpayable",
      "type": "constructor"
    },
    {
      "anonymous": false,
      "inputs": [
        {
          "indexed": true,
          "internalType": "address",
          "name": "user",
          "type": "address"
        },
        {
          "indexed": false,
          "internalType": "uint256",
          "name": "ethSpent",
          "type": "uint256"
        },
        {
          "indexed": false,
          "internalType": "uint256",
          "name": "tokenReceived",
          "type": "uint256"
        }
      ],
      "name": "EthToTokenSwap",
      "type": "event"
    },
    {
      "anonymous": false,
      "inputs": [
        {
          "indexed": true,
          "internalType": "uint256",
          "name": "itemId",
          "type": "uint256"
        },
        {
          "indexed": true,
          "internalType": "address",
          "name": "nftContract",
          "type": "address"
        },
        {
          "indexed": true,
          "internalType": "uint256",
          "name": "tokenId",
          "type": "uint256"
        },
        {
          "indexed": false,
          "internalType": "address",
          "name": "seller",
          "type": "address"
        },
        {
          "indexed": false,
          "internalType": "address",
          "name": "owner",
          "type": "address"
        },
        {
          "indexed": false,
          "internalType": "uint256",
          "name": "price",
          "type": "uint256"
        }
      ],
      "name": "MarketItemCreated",
      "type": "event"
    },
    {
      "anonymous": false,
      "inputs": [
        {
          "indexed": true,
          "internalType": "uint256",
          "name": "itemId",
          "type": "uint256"
        },
        {
          "indexed": true,
          "internalType": "address",
          "name": "nftContract",
          "type": "address"
        },
        {
          "indexed": true,
          "internalType": "uint256",
          "name": "tokenId",
          "type": "uint256"
        },
        {
          "indexed": false,
          "internalType": "address",
          "name": "buyer",
          "type": "address"
        },
        {
          "indexed": false,
          "internalType": "address",
          "name": "seller",
          "type": "address"
        },
        {
          "indexed": false,
          "internalType": "uint256",
          "name": "price",
          "type": "uint256"
        }
      ],
      "name": "MarketSale",
      "type": "event"
    },
    {
      "anonymous": false,
      "inputs": [
        {
          "indexed": true,
          "internalType": "address",
          "name": "previousOwner",
          "type": "address"
        },
        {
          "indexed": true,
          "internalType": "address",
          "name": "newOwner",
          "type": "address"
        }
      ],
      "name": "OwnershipTransferred",
      "type": "event"
    },
    {
      "anonymous": false,
      "inputs": [
        {
          "indexed": true,
          "internalType": "address",
          "name": "user",
          "type": "address"
        },
        {
          "indexed": false,
          "internalType": "uint256",
          "name": "tokenSpent",
          "type": "uint256"
        },
        {
          "indexed": false,
          "internalType": "uint256",
          "name": "ethReceived",
          "type": "uint256"
        }
      ],
      "name": "TokenToEthSwap",
      "type": "event"
    },
    {
      "anonymous": false,
      "inputs": [
        {
          "indexed": true,
          "internalType": "address",
          "name": "user",
          "type": "address"
        },
        {
          "indexed": false,
          "internalType": "address",
          "name": "tokenA",
          "type": "address"
        },
        {
          "indexed": false,
          "internalType": "address",
          "name": "tokenB",
          "type": "address"
        },
        {
          "indexed": false,
          "internalType": "uint256",
          "name": "tokenSpent",
          "type": "uint256"
        },
        {
          "indexed": false,
          "internalType": "uint256",
          "name": "tokenReceived",
          "type": "uint256"
        }
      ],
      "name": "TokenToTokenSwap",
      "type": "event"
    },
    {
      "inputs": [],
      "name": "feeCollector",
      "outputs": [
        {
          "internalType": "address",
          "name": "",
          "type": "address"
        }
      ],
      "stateMutability": "view",
      "type": "function"
    },
    {
      "inputs": [],
      "name": "listingFee",
      "outputs": [
        {
          "internalType": "uint256",
          "name": "",
          "type": "uint256"
        }
      ],
      "stateMutability": "view",
      "type": "function"
    },
    {
      "inputs": [],
      "name": "owner",
      "outputs": [
        {
          "internalType": "address",
          "name": "",
          "type": "address"
        }
      ],
      "stateMutability": "view",
      "type": "function"
    },
    {
      "inputs": [],
      "name": "renounceOwnership",
      "outputs": [],
      "stateMutability": "nonpayable",
      "type": "function"
    },
    {
      "inputs": [
        {
          "internalType": "uint256",
          "name": "_amountOutMin",
          "type": "uint256"
        }
      ],
      "name": "swapETHForRCDY",
      "outputs": [],
      "stateMutability": "payable",
      "type": "function"
    },
    {
      "inputs": [
        {
          "internalType": "address",
          "name": "_tokenIn",
          "type": "address"
        },
        {
          "internalType": "uint256",
          "name": "_amountIn",
          "type": "uint256"
        },
        {
          "internalType": "uint256",
          "name": "_amountOutMin",
          "type": "uint256"
        }
      ],
      "name": "swapTokensForRCDY",
      "outputs": [],
      "stateMutability": "nonpayable",
      "type": "function"
    },
    {
      "inputs": [],
      "name": "swappingFee",
      "outputs": [
        {
          "internalType": "uint256",
          "name": "",
          "type": "uint256"
        }
      ],
      "stateMutability": "view",
      "type": "function"
    },
    {
      "inputs": [
        {
          "internalType": "address",
          "name": "newOwner",
          "type": "address"
        }
      ],
      "name": "transferOwnership",
      "outputs": [],
      "stateMutability": "nonpayable",
      "type": "function"
    },
    {
      "inputs": [
        {
          "internalType": "address",
          "name": "_nftContract",
          "type": "address"
        },
        {
          "internalType": "uint256",
          "name": "_tokenId",
          "type": "uint256"
        },
        {
          "internalType": "uint256",
          "name": "_price",
          "type": "uint256"
        }
      ],
      "name": "createMarketItem",
      "outputs": [
        {
          "internalType": "bool",
          "name": "marketItemCreated",
          "type": "bool"
        }
      ],
      "stateMutability": "nonpayable",
      "type": "function"
    },
    {
      "inputs": [
        {
          "internalType": "uint256",
          "name": "_itemId",
          "type": "uint256"
        }
      ],
      "name": "buyMarketItem",
      "outputs": [
        {
          "internalType": "bool",
          "name": "bought",
          "type": "bool"
        }
      ],
      "stateMutability": "nonpayable",
      "type": "function"
    },
    {
      "inputs": [
        {
          "internalType": "uint256",
          "name": "_marketItemId",
          "type": "uint256"
        }
      ],
      "name": "getMarketItem",
      "outputs": [
        {
          "components": [
            {
              "internalType": "uint256",
              "name": "itemId",
              "type": "uint256"
            },
            {
              "internalType": "address",
              "name": "nftContract",
              "type": "address"
            },
            {
              "internalType": "uint256",
              "name": "tokenId",
              "type": "uint256"
            },
            {
              "internalType": "address",
              "name": "seller",
              "type": "address"
            },
            {
              "internalType": "address",
              "name": "owner",
              "type": "address"
            },
            {
              "internalType": "uint256",
              "name": "price",
              "type": "uint256"
            }
          ],
          "internalType": "struct Marketplace.MarketItem",
          "name": "",
          "type": "tuple"
        }
      ],
      "stateMutability": "view",
      "type": "function"
    },
    {
      "inputs": [],
      "name": "getMarketItems",
      "outputs": [
        {
          "components": [
            {
              "internalType": "uint256",
              "name": "itemId",
              "type": "uint256"
            },
            {
              "internalType": "address",
              "name": "nftContract",
              "type": "address"
            },
            {
              "internalType": "uint256",
              "name": "tokenId",
              "type": "uint256"
            },
            {
              "internalType": "address",
              "name": "seller",
              "type": "address"
            },
            {
              "internalType": "address",
              "name": "owner",
              "type": "address"
            },
            {
              "internalType": "uint256",
              "name": "price",
              "type": "uint256"
            }
          ],
          "internalType": "struct Marketplace.MarketItem[]",
          "name": "marketItems",
          "type": "tuple[]"
        }
      ],
      "stateMutability": "view",
      "type": "function"
    },
    {
      "inputs": [],
      "name": "getMyNFTs",
      "outputs": [
        {
          "components": [
            {
              "internalType": "uint256",
              "name": "itemId",
              "type": "uint256"
            },
            {
              "internalType": "address",
              "name": "nftContract",
              "type": "address"
            },
            {
              "internalType": "uint256",
              "name": "tokenId",
              "type": "uint256"
            },
            {
              "internalType": "address",
              "name": "seller",
              "type": "address"
            },
            {
              "internalType": "address",
              "name": "owner",
              "type": "address"
            },
            {
              "internalType": "uint256",
              "name": "price",
              "type": "uint256"
            }
          ],
          "internalType": "struct Marketplace.MarketItem[]",
          "name": "myNfts",
          "type": "tuple[]"
        }
      ],
      "stateMutability": "view",
      "type": "function"
    }
  ],
  "bytecode": "0x60806040523480156200001157600080fd5b5060405162002d3038038062002d3083398181016040528101906200003791906200022c565b83838382600160006101000a81548173ffffffffffffffffffffffffffffffffffffffff021916908373ffffffffffffffffffffffffffffffffffffffff160217905550816000806101000a81548173ffffffffffffffffffffffffffffffffffffffff021916908373ffffffffffffffffffffffffffffffffffffffff16021790555080600260006101000a81548173ffffffffffffffffffffffffffffffffffffffff021916908373ffffffffffffffffffffffffffffffffffffffff1602179055505050506200011f620001136200013060201b60201c565b6200013860201b60201c565b806007819055505050505062000315565b600033905090565b6000600460009054906101000a900473ffffffffffffffffffffffffffffffffffffffff16905081600460006101000a81548173ffffffffffffffffffffffffffffffffffffffff021916908373ffffffffffffffffffffffffffffffffffffffff1602179055508173ffffffffffffffffffffffffffffffffffffffff168173ffffffffffffffffffffffffffffffffffffffff167f8be0079c531659141344cd1fd0a4f28419497f9722a3daafe3b4186f6b6457e060405160405180910390a35050565b6000815190506200020f81620002e1565b92915050565b6000815190506200022681620002fb565b92915050565b60008060008060808587031215620002495762000248620002dc565b5b60006200025987828801620001fe565b94505060206200026c87828801620001fe565b93505060406200027f87828801620001fe565b9250506060620002928782880162000215565b91505092959194509250565b6000620002ab82620002b2565b9050919050565b600073ffffffffffffffffffffffffffffffffffffffff82169050919050565b6000819050919050565b600080fd5b620002ec816200029e565b8114620002f857600080fd5b50565b6200030681620002d2565b81146200031257600080fd5b50565b612a0b80620003256000396000f3fe6080604052600436106100c25760003560e01c8063715018a61161007f578063c415b95c11610059578063c415b95c1461024b578063c7be7a4914610276578063deadd1fb146102b3578063f2fde38b146102dc576100c2565b8063715018a6146101ed5780638da5cb5b1461020457806394d050511461022f576100c2565b80630803b3d7146100c757806329aa3a42146100f2578063351901c31461011d57806358eb2df51461015a578063629cb2e4146101975780636a1b7ecc146101c2575b600080fd5b3480156100d357600080fd5b506100dc610305565b6040516100e99190612440565b60405180910390f35b3480156100fe57600080fd5b5061010761030b565b60405161011491906122e8565b60405180910390f35b34801561012957600080fd5b50610144600480360381019061013f9190611e60565b6105cf565b604051610151919061230a565b60405180910390f35b34801561016657600080fd5b50610181600480360381019061017c9190611d97565b610961565b60405161018e919061230a565b60405180910390f35b3480156101a357600080fd5b506101ac610cf6565b6040516101b991906122e8565b60405180910390f35b3480156101ce57600080fd5b506101d761103d565b6040516101e49190612440565b60405180910390f35b3480156101f957600080fd5b50610202611043565b005b34801561021057600080fd5b506102196110cb565b60405161022691906121ff565b60405180910390f35b61024960048036038101906102449190611e60565b6110f5565b005b34801561025757600080fd5b5061026061142b565b60405161026d91906121ff565b60405180910390f35b34801561028257600080fd5b5061029d60048036038101906102989190611e60565b611451565b6040516102aa9190612425565b60405180910390f35b3480156102bf57600080fd5b506102da60048036038101906102d59190611d97565b61159e565b005b3480156102e857600080fd5b5061030360048036038101906102fe9190611d3d565b6119d4565b005b60035481565b606060006103196005611acc565b905060006103276006611acc565b6103316005611acc565b61033b9190612654565b90506000808267ffffffffffffffff81111561035a576103596127a8565b5b60405190808252806020026020018201604052801561039357816020015b610380611bbe565b8152602001906001900390816103785790505b50905060005b848110156105c457600073ffffffffffffffffffffffffffffffffffffffff16600860006001846103ca91906125fe565b815260200190815260200160002060040160009054906101000a900473ffffffffffffffffffffffffffffffffffffffff1673ffffffffffffffffffffffffffffffffffffffff1614156105b15760006008600060018461042b91906125fe565b81526020019081526020016000206000015490506000600860008381526020019081526020016000206040518060c0016040529081600082015481526020016001820160009054906101000a900473ffffffffffffffffffffffffffffffffffffffff1673ffffffffffffffffffffffffffffffffffffffff1673ffffffffffffffffffffffffffffffffffffffff168152602001600282015481526020016003820160009054906101000a900473ffffffffffffffffffffffffffffffffffffffff1673ffffffffffffffffffffffffffffffffffffffff1673ffffffffffffffffffffffffffffffffffffffff1681526020016004820160009054906101000a900473ffffffffffffffffffffffffffffffffffffffff1673ffffffffffffffffffffffffffffffffffffffff1673ffffffffffffffffffffffffffffffffffffffff16815260200160058201548152505090508084868151811061059557610594612779565b5b602002602001018190525084806105ab90612701565b95505050505b80806105bc90612701565b915050610399565b508094505050505090565b60008060086000848152602001908152602001600020905060008054906101000a900473ffffffffffffffffffffffffffffffffffffffff1673ffffffffffffffffffffffffffffffffffffffff166323b872dd338360030160009054906101000a900473ffffffffffffffffffffffffffffffffffffffff1684600501546040518463ffffffff1660e01b815260040161066c93929190612243565b602060405180830381600087803b15801561068657600080fd5b505af115801561069a573d6000803e3d6000fd5b505050506040513d601f19601f820116820180604052508101906106be9190611e33565b6106fd576040517f08c379a00000000000000000000000000000000000000000000000000000000081526004016106f490612405565b60405180910390fd5b60008054906101000a900473ffffffffffffffffffffffffffffffffffffffff1673ffffffffffffffffffffffffffffffffffffffff1663a9059cbb600260009054906101000a900473ffffffffffffffffffffffffffffffffffffffff166007546040518363ffffffff1660e01b815260040161077c9291906122bf565b602060405180830381600087803b15801561079657600080fd5b505af11580156107aa573d6000803e3d6000fd5b505050506040513d601f19601f820116820180604052508101906107ce9190611e33565b50338160040160006101000a81548173ffffffffffffffffffffffffffffffffffffffff021916908373ffffffffffffffffffffffffffffffffffffffff1602179055508060010160009054906101000a900473ffffffffffffffffffffffffffffffffffffffff1673ffffffffffffffffffffffffffffffffffffffff166323b872dd303384600201546040518463ffffffff1660e01b815260040161087793929190612243565b600060405180830381600087803b15801561089157600080fd5b505af11580156108a5573d6000803e3d6000fd5b505050506108b36006611ada565b80600201548160010160009054906101000a900473ffffffffffffffffffffffffffffffffffffffff1673ffffffffffffffffffffffffffffffffffffffff16847fd86c7b830e26a0346c001a0b7ac1bc02839162bd641fb1cc3ef56e21a17e7425338560030160009054906101000a900473ffffffffffffffffffffffffffffffffffffffff16866005015460405161094f93929190612243565b60405180910390a46001915050919050565b60008082116109a5576040517f08c379a000000000000000000000000000000000000000000000000000000000815260040161099c90612345565b60405180910390fd5b60008054906101000a900473ffffffffffffffffffffffffffffffffffffffff1673ffffffffffffffffffffffffffffffffffffffff166323b872dd33306007546040518463ffffffff1660e01b8152600401610a0493929190612243565b602060405180830381600087803b158015610a1e57600080fd5b505af1158015610a32573d6000803e3d6000fd5b505050506040513d601f19601f82011682018060405250810190610a569190611e33565b610a95576040517f08c379a0000000000000000000000000000000000000000000000000000000008152600401610a8c90612365565b60405180910390fd5b8373ffffffffffffffffffffffffffffffffffffffff166323b872dd3330866040518463ffffffff1660e01b8152600401610ad293929190612243565b600060405180830381600087803b158015610aec57600080fd5b505af1158015610b00573d6000803e3d6000fd5b50505050610b0e6005611ada565b6000610b1a6005611acc565b90506040518060c001604052808281526020018673ffffffffffffffffffffffffffffffffffffffff1681526020018581526020013373ffffffffffffffffffffffffffffffffffffffff168152602001600073ffffffffffffffffffffffffffffffffffffffff16815260200184815250600860008381526020019081526020016000206000820151816000015560208201518160010160006101000a81548173ffffffffffffffffffffffffffffffffffffffff021916908373ffffffffffffffffffffffffffffffffffffffff1602179055506040820151816002015560608201518160030160006101000a81548173ffffffffffffffffffffffffffffffffffffffff021916908373ffffffffffffffffffffffffffffffffffffffff16021790555060808201518160040160006101000a81548173ffffffffffffffffffffffffffffffffffffffff021916908373ffffffffffffffffffffffffffffffffffffffff16021790555060a08201518160050155905050838573ffffffffffffffffffffffffffffffffffffffff16827f2ad024d53a0dc50c130967f8d4941927ee087ea31394cebb2b9599d3706c9c0033600088604051610ce293929190612243565b60405180910390a460019150509392505050565b60606000610d046005611acc565b905060008060005b83811015610dac573373ffffffffffffffffffffffffffffffffffffffff1660086000600184610d3c91906125fe565b815260200190815260200160002060040160009054906101000a900473ffffffffffffffffffffffffffffffffffffffff1673ffffffffffffffffffffffffffffffffffffffff161415610d99578280610d9590612701565b9350505b8080610da490612701565b915050610d0c565b5060008267ffffffffffffffff811115610dc957610dc86127a8565b5b604051908082528060200260200182016040528015610e0257816020015b610def611bbe565b815260200190600190039081610de75790505b50905060005b84811015611032573373ffffffffffffffffffffffffffffffffffffffff1660086000600184610e3891906125fe565b815260200190815260200160002060040160009054906101000a900473ffffffffffffffffffffffffffffffffffffffff1673ffffffffffffffffffffffffffffffffffffffff16141561101f57600060086000600184610e9991906125fe565b81526020019081526020016000206000015490506000600860008381526020019081526020016000206040518060c0016040529081600082015481526020016001820160009054906101000a900473ffffffffffffffffffffffffffffffffffffffff1673ffffffffffffffffffffffffffffffffffffffff1673ffffffffffffffffffffffffffffffffffffffff168152602001600282015481526020016003820160009054906101000a900473ffffffffffffffffffffffffffffffffffffffff1673ffffffffffffffffffffffffffffffffffffffff1673ffffffffffffffffffffffffffffffffffffffff1681526020016004820160009054906101000a900473ffffffffffffffffffffffffffffffffffffffff1673ffffffffffffffffffffffffffffffffffffffff1673ffffffffffffffffffffffffffffffffffffffff16815260200160058201548152505090508084868151811061100357611002612779565b5b6020026020010181905250848061101990612701565b95505050505b808061102a90612701565b915050610e08565b508094505050505090565b60075481565b61104b611af0565b73ffffffffffffffffffffffffffffffffffffffff166110696110cb565b73ffffffffffffffffffffffffffffffffffffffff16146110bf576040517f08c379a00000000000000000000000000000000000000000000000000000000081526004016110b6906123c5565b60405180910390fd5b6110c96000611af8565b565b6000600460009054906101000a900473ffffffffffffffffffffffffffffffffffffffff16905090565b60003411611138576040517f08c379a000000000000000000000000000000000000000000000000000000000815260040161112f906123e5565b60405180910390fd5b6000600267ffffffffffffffff811115611155576111546127a8565b5b6040519080825280602002602001820160405280156111835781602001602082028036833780820191505090505b509050600160009054906101000a900473ffffffffffffffffffffffffffffffffffffffff1673ffffffffffffffffffffffffffffffffffffffff1663ad5c46486040518163ffffffff1660e01b815260040160206040518083038186803b1580156111ee57600080fd5b505afa158015611202573d6000803e3d6000fd5b505050506040513d601f19601f820116820180604052508101906112269190611d6a565b8160008151811061123a57611239612779565b5b602002602001019073ffffffffffffffffffffffffffffffffffffffff16908173ffffffffffffffffffffffffffffffffffffffff168152505060008054906101000a900473ffffffffffffffffffffffffffffffffffffffff16816001815181106112a9576112a8612779565b5b602002602001019073ffffffffffffffffffffffffffffffffffffffff16908173ffffffffffffffffffffffffffffffffffffffff16815250506000600160009054906101000a900473ffffffffffffffffffffffffffffffffffffffff1673ffffffffffffffffffffffffffffffffffffffff16637ff36ab534858533426040518663ffffffff1660e01b8152600401611347949392919061245b565b6000604051808303818588803b15801561136057600080fd5b505af1158015611374573d6000803e3d6000fd5b50505050506040513d6000823e3d601f19601f8201168201806040525081019061139e9190611dea565b90503373ffffffffffffffffffffffffffffffffffffffff167f6d4870e9281c01ea54a4420c8684ac713b77f0c590b40c4b1fbf4c6ba892ccea826000815181106113ec576113eb612779565b5b60200260200101518360018151811061140857611407612779565b5b602002602001015160405161141e9291906124a7565b60405180910390a2505050565b600260009054906101000a900473ffffffffffffffffffffffffffffffffffffffff1681565b611459611bbe565b600860008381526020019081526020016000206040518060c0016040529081600082015481526020016001820160009054906101000a900473ffffffffffffffffffffffffffffffffffffffff1673ffffffffffffffffffffffffffffffffffffffff1673ffffffffffffffffffffffffffffffffffffffff168152602001600282015481526020016003820160009054906101000a900473ffffffffffffffffffffffffffffffffffffffff1673ffffffffffffffffffffffffffffffffffffffff1673ffffffffffffffffffffffffffffffffffffffff1681526020016004820160009054906101000a900473ffffffffffffffffffffffffffffffffffffffff1673ffffffffffffffffffffffffffffffffffffffff1673ffffffffffffffffffffffffffffffffffffffff1681526020016005820154815250509050919050565b818373ffffffffffffffffffffffffffffffffffffffff1663dd62ed3e33306040518363ffffffff1660e01b81526004016115da92919061221a565b60206040518083038186803b1580156115f257600080fd5b505afa158015611606573d6000803e3d6000fd5b505050506040513d601f19601f8201168201806040525081019061162a9190611e8d565b101561166b576040517f08c379a000000000000000000000000000000000000000000000000000000000815260040161166290612385565b60405180910390fd5b8273ffffffffffffffffffffffffffffffffffffffff1663095ea7b3600160009054906101000a900473ffffffffffffffffffffffffffffffffffffffff16846040518363ffffffff1660e01b81526004016116c89291906122bf565b602060405180830381600087803b1580156116e257600080fd5b505af11580156116f6573d6000803e3d6000fd5b505050506040513d601f19601f8201168201806040525081019061171a9190611e33565b611759576040517f08c379a0000000000000000000000000000000000000000000000000000000008152600401611750906123a5565b60405180910390fd5b6000600267ffffffffffffffff811115611776576117756127a8565b5b6040519080825280602002602001820160405280156117a45781602001602082028036833780820191505090505b50905083816000815181106117bc576117bb612779565b5b602002602001019073ffffffffffffffffffffffffffffffffffffffff16908173ffffffffffffffffffffffffffffffffffffffff168152505060008054906101000a900473ffffffffffffffffffffffffffffffffffffffff168160018151811061182b5761182a612779565b5b602002602001019073ffffffffffffffffffffffffffffffffffffffff16908173ffffffffffffffffffffffffffffffffffffffff16815250506000600160009054906101000a900473ffffffffffffffffffffffffffffffffffffffff1673ffffffffffffffffffffffffffffffffffffffff166338ed173985858533426040518663ffffffff1660e01b81526004016118ca9594939291906124d0565b600060405180830381600087803b1580156118e457600080fd5b505af11580156118f8573d6000803e3d6000fd5b505050506040513d6000823e3d601f19601f820116820180604052508101906119219190611dea565b90503373ffffffffffffffffffffffffffffffffffffffff167f15c82f4e673e9ecb8026aa0a314ff3ea2ca394b291a9f3960edf9e4fa06c17a78660008054906101000a900473ffffffffffffffffffffffffffffffffffffffff168460008151811061199157611990612779565b5b6020026020010151856001815181106119ad576119ac612779565b5b60200260200101516040516119c5949392919061227a565b60405180910390a25050505050565b6119dc611af0565b73ffffffffffffffffffffffffffffffffffffffff166119fa6110cb565b73ffffffffffffffffffffffffffffffffffffffff1614611a50576040517f08c379a0000000000000000000000000000000000000000000000000000000008152600401611a47906123c5565b60405180910390fd5b600073ffffffffffffffffffffffffffffffffffffffff168173ffffffffffffffffffffffffffffffffffffffff161415611ac0576040517f08c379a0000000000000000000000000000000000000000000000000000000008152600401611ab790612325565b60405180910390fd5b611ac981611af8565b50565b600081600001549050919050565b6001816000016000828254019250508190555050565b600033905090565b6000600460009054906101000a900473ffffffffffffffffffffffffffffffffffffffff16905081600460006101000a81548173ffffffffffffffffffffffffffffffffffffffff021916908373ffffffffffffffffffffffffffffffffffffffff1602179055508173ffffffffffffffffffffffffffffffffffffffff168173ffffffffffffffffffffffffffffffffffffffff167f8be0079c531659141344cd1fd0a4f28419497f9722a3daafe3b4186f6b6457e060405160405180910390a35050565b6040518060c0016040528060008152602001600073ffffffffffffffffffffffffffffffffffffffff16815260200160008152602001600073ffffffffffffffffffffffffffffffffffffffff168152602001600073ffffffffffffffffffffffffffffffffffffffff168152602001600081525090565b6000611c49611c448461254f565b61252a565b90508083825260208201905082856020860282011115611c6c57611c6b6127dc565b5b60005b85811015611c9c5781611c828882611d28565b845260208401935060208301925050600181019050611c6f565b5050509392505050565b600081359050611cb581612990565b92915050565b600081519050611cca81612990565b92915050565b600082601f830112611ce557611ce46127d7565b5b8151611cf5848260208601611c36565b91505092915050565b600081519050611d0d816129a7565b92915050565b600081359050611d22816129be565b92915050565b600081519050611d37816129be565b92915050565b600060208284031215611d5357611d526127e6565b5b6000611d6184828501611ca6565b91505092915050565b600060208284031215611d8057611d7f6127e6565b5b6000611d8e84828501611cbb565b91505092915050565b600080600060608486031215611db057611daf6127e6565b5b6000611dbe86828701611ca6565b9350506020611dcf86828701611d13565b9250506040611de086828701611d13565b9150509250925092565b600060208284031215611e0057611dff6127e6565b5b600082015167ffffffffffffffff811115611e1e57611e1d6127e1565b5b611e2a84828501611cd0565b91505092915050565b600060208284031215611e4957611e486127e6565b5b6000611e5784828501611cfe565b91505092915050565b600060208284031215611e7657611e756127e6565b5b6000611e8484828501611d13565b91505092915050565b600060208284031215611ea357611ea26127e6565b5b6000611eb184828501611d28565b91505092915050565b6000611ec68383611eea565b60208301905092915050565b6000611ede83836120eb565b60c08301905092915050565b611ef381612688565b82525050565b611f0281612688565b82525050565b6000611f138261259b565b611f1d81856125cb565b9350611f288361257b565b8060005b83811015611f59578151611f408882611eba565b9750611f4b836125b1565b925050600181019050611f2c565b5085935050505092915050565b6000611f71826125a6565b611f7b81856125dc565b9350611f868361258b565b8060005b83811015611fb7578151611f9e8882611ed2565b9750611fa9836125be565b925050600181019050611f8a565b5085935050505092915050565b611fcd8161269a565b82525050565b6000611fe06026836125ed565b9150611feb826127fc565b604082019050919050565b60006120036019836125ed565b915061200e8261284b565b602082019050919050565b6000612026601d836125ed565b915061203182612874565b602082019050919050565b60006120496015836125ed565b91506120548261289d565b602082019050919050565b600061206c600e836125ed565b9150612077826128c6565b602082019050919050565b600061208f6020836125ed565b915061209a826128ef565b602082019050919050565b60006120b26014836125ed565b91506120bd82612918565b602082019050919050565b60006120d56024836125ed565b91506120e082612941565b604082019050919050565b60c08201600082015161210160008501826121e1565b5060208201516121146020850182611eea565b50604082015161212760408501826121e1565b50606082015161213a6060850182611eea565b50608082015161214d6080850182611eea565b5060a082015161216060a08501826121e1565b50505050565b60c08201600082015161217c60008501826121e1565b50602082015161218f6020850182611eea565b5060408201516121a260408501826121e1565b5060608201516121b56060850182611eea565b5060808201516121c86080850182611eea565b5060a08201516121db60a08501826121e1565b50505050565b6121ea816126c6565b82525050565b6121f9816126c6565b82525050565b60006020820190506122146000830184611ef9565b92915050565b600060408201905061222f6000830185611ef9565b61223c6020830184611ef9565b9392505050565b60006060820190506122586000830186611ef9565b6122656020830185611ef9565b61227260408301846121f0565b949350505050565b600060808201905061228f6000830187611ef9565b61229c6020830186611ef9565b6122a960408301856121f0565b6122b660608301846121f0565b95945050505050565b60006040820190506122d46000830185611ef9565b6122e160208301846121f0565b9392505050565b600060208201905081810360008301526123028184611f66565b905092915050565b600060208201905061231f6000830184611fc4565b92915050565b6000602082019050818103600083015261233e81611fd3565b9050919050565b6000602082019050818103600083015261235e81611ff6565b9050919050565b6000602082019050818103600083015261237e81612019565b9050919050565b6000602082019050818103600083015261239e8161203c565b9050919050565b600060208201905081810360008301526123be8161205f565b9050919050565b600060208201905081810360008301526123de81612082565b9050919050565b600060208201905081810360008301526123fe816120a5565b9050919050565b6000602082019050818103600083015261241e816120c8565b9050919050565b600060c08201905061243a6000830184612166565b92915050565b600060208201905061245560008301846121f0565b92915050565b600060808201905061247060008301876121f0565b81810360208301526124828186611f08565b90506124916040830185611ef9565b61249e60608301846121f0565b95945050505050565b60006040820190506124bc60008301856121f0565b6124c960208301846121f0565b9392505050565b600060a0820190506124e560008301886121f0565b6124f260208301876121f0565b81810360408301526125048186611f08565b90506125136060830185611ef9565b61252060808301846121f0565b9695505050505050565b6000612534612545565b905061254082826126d0565b919050565b6000604051905090565b600067ffffffffffffffff82111561256a576125696127a8565b5b602082029050602081019050919050565b6000819050602082019050919050565b6000819050602082019050919050565b600081519050919050565b600081519050919050565b6000602082019050919050565b6000602082019050919050565b600082825260208201905092915050565b600082825260208201905092915050565b600082825260208201905092915050565b6000612609826126c6565b9150612614836126c6565b9250827fffffffffffffffffffffffffffffffffffffffffffffffffffffffffffffffff038211156126495761264861274a565b5b828201905092915050565b600061265f826126c6565b915061266a836126c6565b92508282101561267d5761267c61274a565b5b828203905092915050565b6000612693826126a6565b9050919050565b60008115159050919050565b600073ffffffffffffffffffffffffffffffffffffffff82169050919050565b6000819050919050565b6126d9826127eb565b810181811067ffffffffffffffff821117156126f8576126f76127a8565b5b80604052505050565b600061270c826126c6565b91507fffffffffffffffffffffffffffffffffffffffffffffffffffffffffffffffff82141561273f5761273e61274a565b5b600182019050919050565b7f4e487b7100000000000000000000000000000000000000000000000000000000600052601160045260246000fd5b7f4e487b7100000000000000000000000000000000000000000000000000000000600052603260045260246000fd5b7f4e487b7100000000000000000000000000000000000000000000000000000000600052604160045260246000fd5b600080fd5b600080fd5b600080fd5b600080fd5b6000601f19601f8301169050919050565b7f4f776e61626c653a206e6577206f776e657220697320746865207a65726f206160008201527f6464726573730000000000000000000000000000000000000000000000000000602082015250565b7f5072696365206d757374206265206d6f7265207468616e203000000000000000600082015250565b7f4661696c656420746f20636f6c6c656374206c697374696e6720666565000000600082015250565b7f6d75737420617070726f766520636f6e74726163740000000000000000000000600082015250565b7f617070726f7665206661696c6564000000000000000000000000000000000000600082015250565b7f4f776e61626c653a2063616c6c6572206973206e6f7420746865206f776e6572600082015250565b7f496e73756666696369656e742042616c616e6365000000000000000000000000600082015250565b7f4572726f7220696e20636f6c6c656374696e67207468652061736b696e67207060008201527f7269636500000000000000000000000000000000000000000000000000000000602082015250565b61299981612688565b81146129a457600080fd5b50565b6129b08161269a565b81146129bb57600080fd5b50565b6129c7816126c6565b81146129d257600080fd5b5056fea26469706673582212207736454ecb6e277e898752057d0efd694c590f76ea6cabb247a6ba323bf28ffe64736f6c63430008060033",
  "immutableReferences": {},
  "source": "//\"SPDX-License-Identifier: MIT\"\npragma solidity 0.8.6;\n\nimport \"@openzeppelin/contracts/utils/Counters.sol\";\nimport \"@openzeppelin/contracts/token/ERC721/ERC721.sol\";\nimport \"@openzeppelin/contracts/token/ERC721/IERC721.sol\";\nimport \"@openzeppelin/contracts/access/Ownable.sol\";\nimport \"./RCDYRouter.sol\";\n\ncontract Marketplace is RCDYRouter, Ownable {\n  using Counters for Counters.Counter;\n  \n  Counters.Counter private _itemIds;\n  Counters.Counter private _itemsSold;\n\n  uint public listingFee;\n\n  constructor(\n    address _uniswapV2RouterAddress,\n    address _rcdy,\n    address _feeCollector,\n    uint _listingFee) \n    \n    RCDYRouter(\n      _uniswapV2RouterAddress,\n      _rcdy,\n      _feeCollector) {\n\n    listingFee = _listingFee;\n  }\n\n  struct MarketItem {\n    uint itemId;\n    address nftContract;\n    uint tokenId;\n    address seller;\n    address owner;\n    uint price;\n  }\n\n  mapping(uint => MarketItem) private idToMarketItem;\n\n  event MarketItemCreated (\n    uint indexed itemId,\n    address indexed nftContract,\n    uint indexed tokenId,\n    address seller,\n    address owner,\n    uint price\n  );\n\n  event MarketSale(\n      uint indexed itemId,\n      address indexed nftContract,\n      uint indexed tokenId,\n      address buyer,\n      address seller,\n      uint price\n  );\n\n  function createMarketItem(\n    address _nftContract,\n    uint _tokenId,\n    uint _price) \n    external returns(bool marketItemCreated) {\n    \n    require(\n      _price > 0, \n      \"Price must be more than 0\"\n    );\n\n    require(\n      rcdy.transferFrom(\n        msg.sender,\n        address(this),\n        listingFee\n      ), \n      \"Failed to collect listing fee\"\n    );\n\n    IERC721(_nftContract).transferFrom(\n      msg.sender, \n      address(this), \n      _tokenId\n    );\n\n    _itemIds.increment();\n    uint itemId = _itemIds.current();\n\n    idToMarketItem[itemId] =  MarketItem(\n      itemId,\n      _nftContract,\n      _tokenId,\n      msg.sender,\n      address(0),\n      _price\n    );\n\n    emit MarketItemCreated(\n      itemId,\n      _nftContract,\n      _tokenId,\n      msg.sender,\n      address(0),\n      _price\n    );\n\n    return true;\n  }\n\n  function buyMarketItem(\n    uint256 _itemId\n    ) external returns(bool bought) {\n    \n    MarketItem storage item = idToMarketItem[_itemId];\n    \n    require(\n      rcdy.transferFrom(\n        msg.sender,\n        item.seller,\n        item.price\n      ), \n      \"Error in collecting the asking price\"\n    );\n    \n    rcdy.transfer(feeCollector, listingFee);\n\n    item.owner = msg.sender;\n    IERC721(item.nftContract).transferFrom(\n      address(this), \n      msg.sender, \n      item.tokenId\n    );\n    _itemsSold.increment();\n    \n    emit MarketSale(\n      _itemId,\n      item.nftContract,\n      item.tokenId,\n      msg.sender,\n      item.seller,\n      item.price\n    );\n\n    return true;\n  }\n\n  function getMarketItem(\n    uint _marketItemId\n    ) external view returns(MarketItem memory) {\n\n    return idToMarketItem[_marketItemId];\n  }\n\n  function getMarketItems(\n    ) external view returns(MarketItem[] memory marketItems) {\n    \n    uint itemCount = _itemIds.current();\n    uint unsoldItemCount = _itemIds.current() - _itemsSold.current();\n    uint currentIndex;\n\n    MarketItem[] memory items = new MarketItem[](unsoldItemCount);\n    \n    for (uint i = 0; i < itemCount; i++) {\n      \n      if (idToMarketItem[i + 1].owner == address(0)) {\n        \n        uint currentId = idToMarketItem[i + 1].itemId;\n        MarketItem memory currentItem = idToMarketItem[currentId];\n        items[currentIndex] = currentItem;\n        currentIndex++;\n      }\n    }\n    return items;\n  }\n\n  function getMyNFTs(\n    ) external view returns(MarketItem[] memory myNfts) {\n\n    uint totalItemCount = _itemIds.current();\n    uint itemCount;\n    uint currentIndex;\n\n    for (uint i = 0; i < totalItemCount; i++) {\n      if (idToMarketItem[i + 1].owner == msg.sender) itemCount++;\n    }\n\n    MarketItem[] memory items = new MarketItem[](itemCount);\n    \n    for (uint i = 0; i < totalItemCount; i++) {\n      \n      if (idToMarketItem[i + 1].owner == msg.sender) {\n        \n        uint currentId = idToMarketItem[i + 1].itemId;\n        MarketItem memory currentItem = idToMarketItem[currentId];\n        items[currentIndex] = currentItem;\n        currentIndex++;\n      }\n    }\n    return items;\n  }\n}",
  "sourcePath": "/Users/hendobox/Desktop/THE GRIND/Blockchain Dev/gitrepo/RC3-NFT/contracts/Marketplace.sol",
  "compiler": {
    "name": "solc",
    "version": "0.8.6+commit.11564f7e.Emscripten.clang"
  },
  "schemaVersion": "3.3.3",
  "updatedAt": "2021-11-21T18:16:42.322Z",
  "devdoc": {
    "kind": "dev",
    "methods": {
      "owner()": {
        "details": "Returns the address of the current owner."
      },
      "renounceOwnership()": {
        "details": "Leaves the contract without owner. It will not be possible to call `onlyOwner` functions anymore. Can only be called by the current owner. NOTE: Renouncing ownership will leave the contract without an owner, thereby removing any functionality that is only available to the owner."
      },
      "transferOwnership(address)": {
        "details": "Transfers ownership of the contract to a new account (`newOwner`). Can only be called by the current owner."
      }
    },
    "version": 1
  },
  "userdoc": {
    "kind": "user",
    "methods": {},
    "version": 1
  }
}