{
  "contractName": "RarecandyMall",
  "abi": [
    {
      "inputs": [
        {
          "internalType": "address",
          "name": "_uniswapV2RouterAddress",
          "type": "address"
        },
        {
          "internalType": "address",
          "name": "_rcdy",
          "type": "address"
        },
        {
          "internalType": "address",
          "name": "_rc3",
          "type": "address"
        },
        {
          "internalType": "address",
          "name": "_feeCollector",
          "type": "address"
        },
        {
          "internalType": "uint256",
          "name": "_listingFee",
          "type": "uint256"
        },
        {
          "internalType": "uint256",
          "name": "_swapFee",
          "type": "uint256"
        }
      ],
      "stateMutability": "nonpayable",
      "type": "constructor"
    },
    {
      "anonymous": false,
      "inputs": [
        {
          "indexed": true,
          "internalType": "address",
          "name": "receiver",
          "type": "address"
        },
        {
          "indexed": false,
          "internalType": "uint256",
          "name": "amount",
          "type": "uint256"
        }
      ],
      "name": "ClaimedFee",
      "type": "event"
    },
    {
      "anonymous": false,
      "inputs": [
        {
          "indexed": true,
          "internalType": "address",
          "name": "user",
          "type": "address"
        },
        {
          "indexed": false,
          "internalType": "uint256",
          "name": "ethSpent",
          "type": "uint256"
        },
        {
          "indexed": false,
          "internalType": "uint256",
          "name": "tokenReceived",
          "type": "uint256"
        }
      ],
      "name": "EthToTokenSwap",
      "type": "event"
    },
    {
      "anonymous": false,
      "inputs": [
        {
          "indexed": true,
          "internalType": "uint256",
          "name": "itemId",
          "type": "uint256"
        },
        {
          "indexed": true,
          "internalType": "uint256",
          "name": "tokenId",
          "type": "uint256"
        },
        {
          "indexed": false,
          "internalType": "address",
          "name": "seller",
          "type": "address"
        },
        {
          "indexed": false,
          "internalType": "address",
          "name": "owner",
          "type": "address"
        },
        {
          "indexed": false,
          "internalType": "uint256",
          "name": "price",
          "type": "uint256"
        }
      ],
      "name": "MarketItemCreated",
      "type": "event"
    },
    {
      "anonymous": false,
      "inputs": [
        {
          "indexed": true,
          "internalType": "uint256",
          "name": "itemId",
          "type": "uint256"
        },
        {
          "indexed": true,
          "internalType": "uint256",
          "name": "tokenId",
          "type": "uint256"
        },
        {
          "indexed": false,
          "internalType": "address",
          "name": "buyer",
          "type": "address"
        },
        {
          "indexed": false,
          "internalType": "address",
          "name": "seller",
          "type": "address"
        },
        {
          "indexed": false,
          "internalType": "uint256",
          "name": "price",
          "type": "uint256"
        }
      ],
      "name": "MarketSale",
      "type": "event"
    },
    {
      "anonymous": false,
      "inputs": [
        {
          "indexed": true,
          "internalType": "address",
          "name": "previousOwner",
          "type": "address"
        },
        {
          "indexed": true,
          "internalType": "address",
          "name": "newOwner",
          "type": "address"
        }
      ],
      "name": "OwnershipTransferred",
      "type": "event"
    },
    {
      "anonymous": false,
      "inputs": [
        {
          "indexed": true,
          "internalType": "address",
          "name": "user",
          "type": "address"
        },
        {
          "indexed": false,
          "internalType": "address",
          "name": "tokenA",
          "type": "address"
        },
        {
          "indexed": false,
          "internalType": "address",
          "name": "tokenB",
          "type": "address"
        },
        {
          "indexed": false,
          "internalType": "uint256",
          "name": "tokenSpent",
          "type": "uint256"
        },
        {
          "indexed": false,
          "internalType": "uint256",
          "name": "tokenReceived",
          "type": "uint256"
        }
      ],
      "name": "TokenToTokenSwap",
      "type": "event"
    },
    {
      "inputs": [
        {
          "internalType": "address",
          "name": "_user",
          "type": "address"
        }
      ],
      "name": "checkEthBalance",
      "outputs": [
        {
          "internalType": "uint256",
          "name": "balance",
          "type": "uint256"
        }
      ],
      "stateMutability": "view",
      "type": "function"
    },
    {
      "inputs": [
        {
          "internalType": "address",
          "name": "_token",
          "type": "address"
        },
        {
          "internalType": "address",
          "name": "_user",
          "type": "address"
        }
      ],
      "name": "checkTokenBalance",
      "outputs": [
        {
          "internalType": "uint256",
          "name": "balance",
          "type": "uint256"
        }
      ],
      "stateMutability": "view",
      "type": "function"
    },
    {
      "inputs": [
        {
          "internalType": "address",
          "name": "_receiver",
          "type": "address"
        },
        {
          "internalType": "uint256",
          "name": "_amount",
          "type": "uint256"
        }
      ],
      "name": "claimFee",
      "outputs": [
        {
          "internalType": "bool",
          "name": "success",
          "type": "bool"
        }
      ],
      "stateMutability": "nonpayable",
      "type": "function"
    },
    {
      "inputs": [],
      "name": "claimableFee",
      "outputs": [
        {
          "internalType": "uint256",
          "name": "",
          "type": "uint256"
        }
      ],
      "stateMutability": "view",
      "type": "function"
    },
    {
      "inputs": [],
      "name": "feeCollector",
      "outputs": [
        {
          "internalType": "address",
          "name": "",
          "type": "address"
        }
      ],
      "stateMutability": "view",
      "type": "function"
    },
    {
      "inputs": [],
      "name": "listingFee",
      "outputs": [
        {
          "internalType": "uint256",
          "name": "",
          "type": "uint256"
        }
      ],
      "stateMutability": "view",
      "type": "function"
    },
    {
      "inputs": [],
      "name": "owner",
      "outputs": [
        {
          "internalType": "address",
          "name": "",
          "type": "address"
        }
      ],
      "stateMutability": "view",
      "type": "function"
    },
    {
      "inputs": [],
      "name": "renounceOwnership",
      "outputs": [],
      "stateMutability": "nonpayable",
      "type": "function"
    },
    {
      "inputs": [
        {
          "internalType": "uint256",
          "name": "_amountOutMin",
          "type": "uint256"
        }
      ],
      "name": "swapETHForRCDY",
      "outputs": [],
      "stateMutability": "payable",
      "type": "function"
    },
    {
      "inputs": [
        {
          "internalType": "address",
          "name": "_tokenIn",
          "type": "address"
        },
        {
          "internalType": "uint256",
          "name": "_amountIn",
          "type": "uint256"
        },
        {
          "internalType": "uint256",
          "name": "_amountOutMin",
          "type": "uint256"
        }
      ],
      "name": "swapTokensForRCDY",
      "outputs": [],
      "stateMutability": "nonpayable",
      "type": "function"
    },
    {
      "inputs": [],
      "name": "swapfee",
      "outputs": [
        {
          "internalType": "uint256",
          "name": "",
          "type": "uint256"
        }
      ],
      "stateMutability": "view",
      "type": "function"
    },
    {
      "inputs": [
        {
          "internalType": "address",
          "name": "newOwner",
          "type": "address"
        }
      ],
      "name": "transferOwnership",
      "outputs": [],
      "stateMutability": "nonpayable",
      "type": "function"
    },
    {
      "inputs": [
        {
          "internalType": "uint256",
          "name": "_tokenId",
          "type": "uint256"
        },
        {
          "internalType": "uint256",
          "name": "_price",
          "type": "uint256"
        }
      ],
      "name": "createMarketItem",
      "outputs": [
        {
          "internalType": "bool",
          "name": "marketItemCreated",
          "type": "bool"
        }
      ],
      "stateMutability": "nonpayable",
      "type": "function"
    },
    {
      "inputs": [
        {
          "internalType": "uint256",
          "name": "_itemId",
          "type": "uint256"
        }
      ],
      "name": "buyMarketItem",
      "outputs": [
        {
          "internalType": "bool",
          "name": "bought",
          "type": "bool"
        }
      ],
      "stateMutability": "nonpayable",
      "type": "function"
    },
    {
      "inputs": [
        {
          "internalType": "uint256",
          "name": "_marketItemId",
          "type": "uint256"
        }
      ],
      "name": "getMarketItem",
      "outputs": [
        {
          "components": [
            {
              "internalType": "uint256",
              "name": "itemId",
              "type": "uint256"
            },
            {
              "internalType": "uint256",
              "name": "tokenId",
              "type": "uint256"
            },
            {
              "internalType": "address",
              "name": "seller",
              "type": "address"
            },
            {
              "internalType": "address",
              "name": "owner",
              "type": "address"
            },
            {
              "internalType": "uint256",
              "name": "price",
              "type": "uint256"
            }
          ],
          "internalType": "struct RarecandyMall.MarketItem",
          "name": "",
          "type": "tuple"
        }
      ],
      "stateMutability": "view",
      "type": "function"
    },
    {
      "inputs": [],
      "name": "getMarketItems",
      "outputs": [
        {
          "components": [
            {
              "internalType": "uint256",
              "name": "itemId",
              "type": "uint256"
            },
            {
              "internalType": "uint256",
              "name": "tokenId",
              "type": "uint256"
            },
            {
              "internalType": "address",
              "name": "seller",
              "type": "address"
            },
            {
              "internalType": "address",
              "name": "owner",
              "type": "address"
            },
            {
              "internalType": "uint256",
              "name": "price",
              "type": "uint256"
            }
          ],
          "internalType": "struct RarecandyMall.MarketItem[]",
          "name": "marketItems",
          "type": "tuple[]"
        }
      ],
      "stateMutability": "view",
      "type": "function"
    },
    {
      "inputs": [],
      "name": "getMyNFTs",
      "outputs": [
        {
          "components": [
            {
              "internalType": "uint256",
              "name": "itemId",
              "type": "uint256"
            },
            {
              "internalType": "uint256",
              "name": "tokenId",
              "type": "uint256"
            },
            {
              "internalType": "address",
              "name": "seller",
              "type": "address"
            },
            {
              "internalType": "address",
              "name": "owner",
              "type": "address"
            },
            {
              "internalType": "uint256",
              "name": "price",
              "type": "uint256"
            }
          ],
          "internalType": "struct RarecandyMall.MarketItem[]",
          "name": "myNfts",
          "type": "tuple[]"
        }
      ],
      "stateMutability": "view",
      "type": "function"
    }
  ],
  "bytecode": "0x60806040523480156200001157600080fd5b506040516200340338038062003403833981810160405281019062000037919062000275565b8585826200005a6200004e6200017b60201b60201c565b6200018360201b60201c565b82600260006101000a81548173ffffffffffffffffffffffffffffffffffffffff021916908373ffffffffffffffffffffffffffffffffffffffff16021790555081600160006101000a81548173ffffffffffffffffffffffffffffffffffffffff021916908373ffffffffffffffffffffffffffffffffffffffff1602179055508060038190555050505083600760006101000a81548173ffffffffffffffffffffffffffffffffffffffff021916908373ffffffffffffffffffffffffffffffffffffffff1602179055508160088190555082600960006101000a81548173ffffffffffffffffffffffffffffffffffffffff021916908373ffffffffffffffffffffffffffffffffffffffff16021790555050505050505062000388565b600033905090565b60008060009054906101000a900473ffffffffffffffffffffffffffffffffffffffff169050816000806101000a81548173ffffffffffffffffffffffffffffffffffffffff021916908373ffffffffffffffffffffffffffffffffffffffff1602179055508173ffffffffffffffffffffffffffffffffffffffff168173ffffffffffffffffffffffffffffffffffffffff167f8be0079c531659141344cd1fd0a4f28419497f9722a3daafe3b4186f6b6457e060405160405180910390a35050565b600081519050620002588162000354565b92915050565b6000815190506200026f816200036e565b92915050565b60008060008060008060c087890312156200029557620002946200034f565b5b6000620002a589828a0162000247565b9650506020620002b889828a0162000247565b9550506040620002cb89828a0162000247565b9450506060620002de89828a0162000247565b9350506080620002f189828a016200025e565b92505060a06200030489828a016200025e565b9150509295509295509295565b60006200031e8262000325565b9050919050565b600073ffffffffffffffffffffffffffffffffffffffff82169050919050565b6000819050919050565b600080fd5b6200035f8162000311565b81146200036b57600080fd5b50565b620003798162000345565b81146200038557600080fd5b50565b61306b80620003986000396000f3fe6080604052600436106100fe5760003560e01c8063719d41f411610095578063c415b95c11610064578063c415b95c1461032c578063c7be7a4914610357578063dda4079714610394578063deadd1fb146103d1578063f2fde38b146103fa576100fe565b8063719d41f41461027d5780638da5cb5b146102a857806394d05051146102d35780639a9a5cdb146102ef576100fe565b8063361c1995116100d1578063361c1995146101d3578063629cb2e4146102105780636a1b7ecc1461023b578063715018a614610266576100fe565b80630784e3501461010357806329aa3a421461012e57806334f9149914610159578063351901c314610196575b600080fd5b34801561010f57600080fd5b50610118610423565b6040516101259190612994565b60405180910390f35b34801561013a57600080fd5b50610143610429565b60405161015091906127fc565b60405180910390f35b34801561016557600080fd5b50610180600480360381019061017b91906121cb565b610697565b60405161018d9190612994565b60405180910390f35b3480156101a257600080fd5b506101bd60048036038101906101b89190612314565b61072a565b6040516101ca919061281e565b60405180910390f35b3480156101df57600080fd5b506101fa60048036038101906101f5919061236e565b610af1565b604051610207919061281e565b60405180910390f35b34801561021c57600080fd5b50610225610d3d565b60405161023291906127fc565b60405180910390f35b34801561024757600080fd5b5061025061102e565b60405161025d9190612994565b60405180910390f35b34801561027257600080fd5b5061027b611034565b005b34801561028957600080fd5b506102926110bc565b60405161029f9190612994565b60405180910390f35b3480156102b457600080fd5b506102bd6110c2565b6040516102ca9190612713565b60405180910390f35b6102ed60048036038101906102e89190612314565b6110eb565b005b3480156102fb57600080fd5b5061031660048036038101906103119190612171565b611558565b6040516103239190612994565b60405180910390f35b34801561033857600080fd5b50610341611579565b60405161034e9190612713565b60405180910390f35b34801561036357600080fd5b5061037e60048036038101906103799190612314565b61159f565b60405161038b9190612979565b60405180910390f35b3480156103a057600080fd5b506103bb60048036038101906103b6919061220b565b611696565b6040516103c8919061281e565b60405180910390f35b3480156103dd57600080fd5b506103f860048036038101906103f3919061224b565b6118b8565b005b34801561040657600080fd5b50610421600480360381019061041c9190612171565b611e27565b005b60035481565b606060006104376005611f1f565b905060006104456006611f1f565b61044f6005611f1f565b6104599190612c33565b90506000808267ffffffffffffffff81111561047857610477612db6565b5b6040519080825280602002602001820160405280156104b157816020015b61049e61200f565b8152602001906001900390816104965790505b50905060005b8481101561068c57600073ffffffffffffffffffffffffffffffffffffffff16600a60006001846104e89190612b52565b815260200190815260200160002060030160009054906101000a900473ffffffffffffffffffffffffffffffffffffffff1673ffffffffffffffffffffffffffffffffffffffff161415610679576000600a60006001846105499190612b52565b81526020019081526020016000206000015490506000600a60008381526020019081526020016000206040518060a001604052908160008201548152602001600182015481526020016002820160009054906101000a900473ffffffffffffffffffffffffffffffffffffffff1673ffffffffffffffffffffffffffffffffffffffff1673ffffffffffffffffffffffffffffffffffffffff1681526020016003820160009054906101000a900473ffffffffffffffffffffffffffffffffffffffff1673ffffffffffffffffffffffffffffffffffffffff1673ffffffffffffffffffffffffffffffffffffffff16815260200160048201548152505090508084868151811061065d5761065c612d87565b5b6020026020010181905250848061067390612ce0565b95505050505b808061068490612ce0565b9150506104b7565b508094505050505090565b60008273ffffffffffffffffffffffffffffffffffffffff166370a08231836040518263ffffffff1660e01b81526004016106d29190612713565b60206040518083038186803b1580156106ea57600080fd5b505afa1580156106fe573d6000803e3d6000fd5b505050506040513d601f19601f820116820180604052508101906107229190612341565b905092915050565b600080600a600084815260200190815260200160002090506000620186a0826004015460085461075a9190612bd9565b6107649190612ba8565b9050600160009054906101000a900473ffffffffffffffffffffffffffffffffffffffff1673ffffffffffffffffffffffffffffffffffffffff166323b872dd33600960009054906101000a900473ffffffffffffffffffffffffffffffffffffffff16846040518463ffffffff1660e01b81526004016107e793929190612757565b602060405180830381600087803b15801561080157600080fd5b505af1158015610815573d6000803e3d6000fd5b505050506040513d601f19601f8201168201806040525081019061083991906122e7565b610878576040517f08c379a000000000000000000000000000000000000000000000000000000000815260040161086f90612879565b60405180910390fd5b600160009054906101000a900473ffffffffffffffffffffffffffffffffffffffff1673ffffffffffffffffffffffffffffffffffffffff166323b872dd338460020160009054906101000a900473ffffffffffffffffffffffffffffffffffffffff168486600401546108ec9190612c33565b6040518463ffffffff1660e01b815260040161090a93929190612757565b602060405180830381600087803b15801561092457600080fd5b505af1158015610938573d6000803e3d6000fd5b505050506040513d601f19601f8201168201806040525081019061095c91906122e7565b61099b576040517f08c379a000000000000000000000000000000000000000000000000000000000815260040161099290612959565b60405180910390fd5b338260030160006101000a81548173ffffffffffffffffffffffffffffffffffffffff021916908373ffffffffffffffffffffffffffffffffffffffff160217905550600760009054906101000a900473ffffffffffffffffffffffffffffffffffffffff1673ffffffffffffffffffffffffffffffffffffffff166323b872dd303385600101546040518463ffffffff1660e01b8152600401610a4193929190612757565b600060405180830381600087803b158015610a5b57600080fd5b505af1158015610a6f573d6000803e3d6000fd5b50505050610a7d6006611f2d565b8160010154847fbdfe9eef0b65e6eba957e3152b9dd3438703867d0dac94e7e933fa29560071aa338560020160009054906101000a900473ffffffffffffffffffffffffffffffffffffffff168660040154604051610ade93929190612757565b60405180910390a3600192505050919050565b6000808211610b35576040517f08c379a0000000000000000000000000000000000000000000000000000000008152600401610b2c90612859565b60405180910390fd5b600760009054906101000a900473ffffffffffffffffffffffffffffffffffffffff1673ffffffffffffffffffffffffffffffffffffffff166323b872dd3330866040518463ffffffff1660e01b8152600401610b9493929190612757565b600060405180830381600087803b158015610bae57600080fd5b505af1158015610bc2573d6000803e3d6000fd5b50505050610bd06005611f2d565b6000610bdc6005611f1f565b90506040518060a001604052808281526020018581526020013373ffffffffffffffffffffffffffffffffffffffff168152602001600073ffffffffffffffffffffffffffffffffffffffff16815260200184815250600a6000838152602001908152602001600020600082015181600001556020820151816001015560408201518160020160006101000a81548173ffffffffffffffffffffffffffffffffffffffff021916908373ffffffffffffffffffffffffffffffffffffffff16021790555060608201518160030160006101000a81548173ffffffffffffffffffffffffffffffffffffffff021916908373ffffffffffffffffffffffffffffffffffffffff1602179055506080820151816004015590505083817f38690a554ffbc44eb6a75016e47d517d0db8e6c37494adc68d6d0b2c66f0ab2133600087604051610d2a93929190612757565b60405180910390a3600191505092915050565b60606000610d4b6005611f1f565b905060008060005b83811015610df3573373ffffffffffffffffffffffffffffffffffffffff16600a6000600184610d839190612b52565b815260200190815260200160002060030160009054906101000a900473ffffffffffffffffffffffffffffffffffffffff1673ffffffffffffffffffffffffffffffffffffffff161415610de0578280610ddc90612ce0565b9350505b8080610deb90612ce0565b915050610d53565b5060008267ffffffffffffffff811115610e1057610e0f612db6565b5b604051908082528060200260200182016040528015610e4957816020015b610e3661200f565b815260200190600190039081610e2e5790505b50905060005b84811015611023573373ffffffffffffffffffffffffffffffffffffffff16600a6000600184610e7f9190612b52565b815260200190815260200160002060030160009054906101000a900473ffffffffffffffffffffffffffffffffffffffff1673ffffffffffffffffffffffffffffffffffffffff161415611010576000600a6000600184610ee09190612b52565b81526020019081526020016000206000015490506000600a60008381526020019081526020016000206040518060a001604052908160008201548152602001600182015481526020016002820160009054906101000a900473ffffffffffffffffffffffffffffffffffffffff1673ffffffffffffffffffffffffffffffffffffffff1673ffffffffffffffffffffffffffffffffffffffff1681526020016003820160009054906101000a900473ffffffffffffffffffffffffffffffffffffffff1673ffffffffffffffffffffffffffffffffffffffff1673ffffffffffffffffffffffffffffffffffffffff168152602001600482015481525050905080848681518110610ff457610ff3612d87565b5b6020026020010181905250848061100a90612ce0565b95505050505b808061101b90612ce0565b915050610e4f565b508094505050505090565b60085481565b61103c611f43565b73ffffffffffffffffffffffffffffffffffffffff1661105a6110c2565b73ffffffffffffffffffffffffffffffffffffffff16146110b0576040517f08c379a00000000000000000000000000000000000000000000000000000000081526004016110a7906128d9565b60405180910390fd5b6110ba6000611f4b565b565b60045481565b60008060009054906101000a900473ffffffffffffffffffffffffffffffffffffffff16905090565b6000341161112e576040517f08c379a0000000000000000000000000000000000000000000000000000000008152600401611125906128f9565b60405180910390fd5b6000600267ffffffffffffffff81111561114b5761114a612db6565b5b6040519080825280602002602001820160405280156111795781602001602082028036833780820191505090505b509050600260009054906101000a900473ffffffffffffffffffffffffffffffffffffffff1673ffffffffffffffffffffffffffffffffffffffff1663ad5c46486040518163ffffffff1660e01b815260040160206040518083038186803b1580156111e457600080fd5b505afa1580156111f8573d6000803e3d6000fd5b505050506040513d601f19601f8201168201806040525081019061121c919061219e565b816000815181106112305761122f612d87565b5b602002602001019073ffffffffffffffffffffffffffffffffffffffff16908173ffffffffffffffffffffffffffffffffffffffff1681525050600160009054906101000a900473ffffffffffffffffffffffffffffffffffffffff16816001815181106112a1576112a0612d87565b5b602002602001019073ffffffffffffffffffffffffffffffffffffffff16908173ffffffffffffffffffffffffffffffffffffffff16815250506000600260009054906101000a900473ffffffffffffffffffffffffffffffffffffffff1673ffffffffffffffffffffffffffffffffffffffff16637ff36ab534858530426040518663ffffffff1660e01b815260040161133f94939291906129af565b6000604051808303818588803b15801561135857600080fd5b505af115801561136c573d6000803e3d6000fd5b50505050506040513d6000823e3d601f19601f82011682018060405250810190611396919061229e565b90506000612710826001815181106113b1576113b0612d87565b5b60200260200101516003546113c69190612bd9565b6113d09190612ba8565b9050600160009054906101000a900473ffffffffffffffffffffffffffffffffffffffff1673ffffffffffffffffffffffffffffffffffffffff1663a9059cbb33838560018151811061142657611425612d87565b5b60200260200101516114389190612c33565b6040518363ffffffff1660e01b81526004016114559291906127d3565b602060405180830381600087803b15801561146f57600080fd5b505af1158015611483573d6000803e3d6000fd5b505050506040513d601f19601f820116820180604052508101906114a791906122e7565b5080600460008282546114ba9190612b52565b925050819055503373ffffffffffffffffffffffffffffffffffffffff167f6d4870e9281c01ea54a4420c8684ac713b77f0c590b40c4b1fbf4c6ba892ccea8360008151811061150d5761150c612d87565b5b6020026020010151838560018151811061152a57611529612d87565b5b602002602001015161153c9190612c33565b60405161154a9291906129fb565b60405180910390a250505050565b60008173ffffffffffffffffffffffffffffffffffffffff16319050919050565b600960009054906101000a900473ffffffffffffffffffffffffffffffffffffffff1681565b6115a761200f565b600a60008381526020019081526020016000206040518060a001604052908160008201548152602001600182015481526020016002820160009054906101000a900473ffffffffffffffffffffffffffffffffffffffff1673ffffffffffffffffffffffffffffffffffffffff1673ffffffffffffffffffffffffffffffffffffffff1681526020016003820160009054906101000a900473ffffffffffffffffffffffffffffffffffffffff1673ffffffffffffffffffffffffffffffffffffffff1673ffffffffffffffffffffffffffffffffffffffff1681526020016004820154815250509050919050565b60006116a0611f43565b73ffffffffffffffffffffffffffffffffffffffff166116be6110c2565b73ffffffffffffffffffffffffffffffffffffffff1614611714576040517f08c379a000000000000000000000000000000000000000000000000000000000815260040161170b906128d9565b60405180910390fd5b600454821115611759576040517f08c379a000000000000000000000000000000000000000000000000000000000815260040161175090612939565b60405180910390fd5b816004600082825461176b9190612c33565b92505081905550600160009054906101000a900473ffffffffffffffffffffffffffffffffffffffff1673ffffffffffffffffffffffffffffffffffffffff1663a9059cbb84846040518363ffffffff1660e01b81526004016117cf9291906127d3565b602060405180830381600087803b1580156117e957600080fd5b505af11580156117fd573d6000803e3d6000fd5b505050506040513d601f19601f8201168201806040525081019061182191906122e7565b611860576040517f08c379a000000000000000000000000000000000000000000000000000000000815260040161185790612899565b60405180910390fd5b8273ffffffffffffffffffffffffffffffffffffffff167f09ee811ed78195b9f7dde27d29bdfb9fc6f9eba3032a585b0f20dbf927ba032a836040516118a69190612994565b60405180910390a26001905092915050565b818373ffffffffffffffffffffffffffffffffffffffff1663dd62ed3e33306040518363ffffffff1660e01b81526004016118f492919061272e565b60206040518083038186803b15801561190c57600080fd5b505afa158015611920573d6000803e3d6000fd5b505050506040513d601f19601f820116820180604052508101906119449190612341565b1015611985576040517f08c379a000000000000000000000000000000000000000000000000000000000815260040161197c90612919565b60405180910390fd5b8273ffffffffffffffffffffffffffffffffffffffff1663095ea7b3600260009054906101000a900473ffffffffffffffffffffffffffffffffffffffff16846040518363ffffffff1660e01b81526004016119e29291906127d3565b602060405180830381600087803b1580156119fc57600080fd5b505af1158015611a10573d6000803e3d6000fd5b505050506040513d601f19601f82011682018060405250810190611a3491906122e7565b611a73576040517f08c379a0000000000000000000000000000000000000000000000000000000008152600401611a6a906128b9565b60405180910390fd5b6000600267ffffffffffffffff811115611a9057611a8f612db6565b5b604051908082528060200260200182016040528015611abe5781602001602082028036833780820191505090505b5090508381600081518110611ad657611ad5612d87565b5b602002602001019073ffffffffffffffffffffffffffffffffffffffff16908173ffffffffffffffffffffffffffffffffffffffff1681525050600160009054906101000a900473ffffffffffffffffffffffffffffffffffffffff1681600181518110611b4757611b46612d87565b5b602002602001019073ffffffffffffffffffffffffffffffffffffffff16908173ffffffffffffffffffffffffffffffffffffffff16815250506000600260009054906101000a900473ffffffffffffffffffffffffffffffffffffffff1673ffffffffffffffffffffffffffffffffffffffff166338ed173985858530426040518663ffffffff1660e01b8152600401611be6959493929190612a24565b600060405180830381600087803b158015611c0057600080fd5b505af1158015611c14573d6000803e3d6000fd5b505050506040513d6000823e3d601f19601f82011682018060405250810190611c3d919061229e565b9050600061271082600181518110611c5857611c57612d87565b5b6020026020010151600354611c6d9190612bd9565b611c779190612ba8565b9050600160009054906101000a900473ffffffffffffffffffffffffffffffffffffffff1673ffffffffffffffffffffffffffffffffffffffff1663a9059cbb338385600181518110611ccd57611ccc612d87565b5b6020026020010151611cdf9190612c33565b6040518363ffffffff1660e01b8152600401611cfc9291906127d3565b602060405180830381600087803b158015611d1657600080fd5b505af1158015611d2a573d6000803e3d6000fd5b505050506040513d601f19601f82011682018060405250810190611d4e91906122e7565b508060046000828254611d619190612b52565b925050819055503373ffffffffffffffffffffffffffffffffffffffff167f15c82f4e673e9ecb8026aa0a314ff3ea2ca394b291a9f3960edf9e4fa06c17a787600160009054906101000a900473ffffffffffffffffffffffffffffffffffffffff1685600081518110611dd857611dd7612d87565b5b60200260200101518587600181518110611df557611df4612d87565b5b6020026020010151611e079190612c33565b604051611e17949392919061278e565b60405180910390a2505050505050565b611e2f611f43565b73ffffffffffffffffffffffffffffffffffffffff16611e4d6110c2565b73ffffffffffffffffffffffffffffffffffffffff1614611ea3576040517f08c379a0000000000000000000000000000000000000000000000000000000008152600401611e9a906128d9565b60405180910390fd5b600073ffffffffffffffffffffffffffffffffffffffff168173ffffffffffffffffffffffffffffffffffffffff161415611f13576040517f08c379a0000000000000000000000000000000000000000000000000000000008152600401611f0a90612839565b60405180910390fd5b611f1c81611f4b565b50565b600081600001549050919050565b6001816000016000828254019250508190555050565b600033905090565b60008060009054906101000a900473ffffffffffffffffffffffffffffffffffffffff169050816000806101000a81548173ffffffffffffffffffffffffffffffffffffffff021916908373ffffffffffffffffffffffffffffffffffffffff1602179055508173ffffffffffffffffffffffffffffffffffffffff168173ffffffffffffffffffffffffffffffffffffffff167f8be0079c531659141344cd1fd0a4f28419497f9722a3daafe3b4186f6b6457e060405160405180910390a35050565b6040518060a001604052806000815260200160008152602001600073ffffffffffffffffffffffffffffffffffffffff168152602001600073ffffffffffffffffffffffffffffffffffffffff168152602001600081525090565b600061207d61207884612aa3565b612a7e565b905080838252602082019050828560208602820111156120a05761209f612dea565b5b60005b858110156120d057816120b6888261215c565b8452602084019350602083019250506001810190506120a3565b5050509392505050565b6000813590506120e981612ff0565b92915050565b6000815190506120fe81612ff0565b92915050565b600082601f83011261211957612118612de5565b5b815161212984826020860161206a565b91505092915050565b60008151905061214181613007565b92915050565b6000813590506121568161301e565b92915050565b60008151905061216b8161301e565b92915050565b60006020828403121561218757612186612df4565b5b6000612195848285016120da565b91505092915050565b6000602082840312156121b4576121b3612df4565b5b60006121c2848285016120ef565b91505092915050565b600080604083850312156121e2576121e1612df4565b5b60006121f0858286016120da565b9250506020612201858286016120da565b9150509250929050565b6000806040838503121561222257612221612df4565b5b6000612230858286016120da565b925050602061224185828601612147565b9150509250929050565b60008060006060848603121561226457612263612df4565b5b6000612272868287016120da565b935050602061228386828701612147565b925050604061229486828701612147565b9150509250925092565b6000602082840312156122b4576122b3612df4565b5b600082015167ffffffffffffffff8111156122d2576122d1612def565b5b6122de84828501612104565b91505092915050565b6000602082840312156122fd576122fc612df4565b5b600061230b84828501612132565b91505092915050565b60006020828403121561232a57612329612df4565b5b600061233884828501612147565b91505092915050565b60006020828403121561235757612356612df4565b5b60006123658482850161215c565b91505092915050565b6000806040838503121561238557612384612df4565b5b600061239385828601612147565b92505060206123a485828601612147565b9150509250929050565b60006123ba83836123de565b60208301905092915050565b60006123d28383612625565b60a08301905092915050565b6123e781612c67565b82525050565b6123f681612c67565b82525050565b600061240782612aef565b6124118185612b1f565b935061241c83612acf565b8060005b8381101561244d57815161243488826123ae565b975061243f83612b05565b925050600181019050612420565b5085935050505092915050565b600061246582612afa565b61246f8185612b30565b935061247a83612adf565b8060005b838110156124ab57815161249288826123c6565b975061249d83612b12565b92505060018101905061247e565b5085935050505092915050565b6124c181612c79565b82525050565b60006124d4602683612b41565b91506124df82612e0a565b604082019050919050565b60006124f7601983612b41565b915061250282612e59565b602082019050919050565b600061251a601b83612b41565b915061252582612e82565b602082019050919050565b600061253d601783612b41565b915061254882612eab565b602082019050919050565b6000612560600f83612b41565b915061256b82612ed4565b602082019050919050565b6000612583602083612b41565b915061258e82612efd565b602082019050919050565b60006125a6601483612b41565b91506125b182612f26565b602082019050919050565b60006125c9601583612b41565b91506125d482612f4f565b602082019050919050565b60006125ec601483612b41565b91506125f782612f78565b602082019050919050565b600061260f602483612b41565b915061261a82612fa1565b604082019050919050565b60a08201600082015161263b60008501826126f5565b50602082015161264e60208501826126f5565b50604082015161266160408501826123de565b50606082015161267460608501826123de565b50608082015161268760808501826126f5565b50505050565b60a0820160008201516126a360008501826126f5565b5060208201516126b660208501826126f5565b5060408201516126c960408501826123de565b5060608201516126dc60608501826123de565b5060808201516126ef60808501826126f5565b50505050565b6126fe81612ca5565b82525050565b61270d81612ca5565b82525050565b600060208201905061272860008301846123ed565b92915050565b600060408201905061274360008301856123ed565b61275060208301846123ed565b9392505050565b600060608201905061276c60008301866123ed565b61277960208301856123ed565b6127866040830184612704565b949350505050565b60006080820190506127a360008301876123ed565b6127b060208301866123ed565b6127bd6040830185612704565b6127ca6060830184612704565b95945050505050565b60006040820190506127e860008301856123ed565b6127f56020830184612704565b9392505050565b60006020820190508181036000830152612816818461245a565b905092915050565b600060208201905061283360008301846124b8565b92915050565b60006020820190508181036000830152612852816124c7565b9050919050565b60006020820190508181036000830152612872816124ea565b9050919050565b600060208201905081810360008301526128928161250d565b9050919050565b600060208201905081810360008301526128b281612530565b9050919050565b600060208201905081810360008301526128d281612553565b9050919050565b600060208201905081810360008301526128f281612576565b9050919050565b6000602082019050818103600083015261291281612599565b9050919050565b60006020820190508181036000830152612932816125bc565b9050919050565b60006020820190508181036000830152612952816125df565b9050919050565b6000602082019050818103600083015261297281612602565b9050919050565b600060a08201905061298e600083018461268d565b92915050565b60006020820190506129a96000830184612704565b92915050565b60006080820190506129c46000830187612704565b81810360208301526129d681866123fc565b90506129e560408301856123ed565b6129f26060830184612704565b95945050505050565b6000604082019050612a106000830185612704565b612a1d6020830184612704565b9392505050565b600060a082019050612a396000830188612704565b612a466020830187612704565b8181036040830152612a5881866123fc565b9050612a6760608301856123ed565b612a746080830184612704565b9695505050505050565b6000612a88612a99565b9050612a948282612caf565b919050565b6000604051905090565b600067ffffffffffffffff821115612abe57612abd612db6565b5b602082029050602081019050919050565b6000819050602082019050919050565b6000819050602082019050919050565b600081519050919050565b600081519050919050565b6000602082019050919050565b6000602082019050919050565b600082825260208201905092915050565b600082825260208201905092915050565b600082825260208201905092915050565b6000612b5d82612ca5565b9150612b6883612ca5565b9250827fffffffffffffffffffffffffffffffffffffffffffffffffffffffffffffffff03821115612b9d57612b9c612d29565b5b828201905092915050565b6000612bb382612ca5565b9150612bbe83612ca5565b925082612bce57612bcd612d58565b5b828204905092915050565b6000612be482612ca5565b9150612bef83612ca5565b9250817fffffffffffffffffffffffffffffffffffffffffffffffffffffffffffffffff0483118215151615612c2857612c27612d29565b5b828202905092915050565b6000612c3e82612ca5565b9150612c4983612ca5565b925082821015612c5c57612c5b612d29565b5b828203905092915050565b6000612c7282612c85565b9050919050565b60008115159050919050565b600073ffffffffffffffffffffffffffffffffffffffff82169050919050565b6000819050919050565b612cb882612df9565b810181811067ffffffffffffffff82111715612cd757612cd6612db6565b5b80604052505050565b6000612ceb82612ca5565b91507fffffffffffffffffffffffffffffffffffffffffffffffffffffffffffffffff821415612d1e57612d1d612d29565b5b600182019050919050565b7f4e487b7100000000000000000000000000000000000000000000000000000000600052601160045260246000fd5b7f4e487b7100000000000000000000000000000000000000000000000000000000600052601260045260246000fd5b7f4e487b7100000000000000000000000000000000000000000000000000000000600052603260045260246000fd5b7f4e487b7100000000000000000000000000000000000000000000000000000000600052604160045260246000fd5b600080fd5b600080fd5b600080fd5b600080fd5b6000601f19601f8301169050919050565b7f4f776e61626c653a206e6577206f776e657220697320746865207a65726f206160008201527f6464726573730000000000000000000000000000000000000000000000000000602082015250565b7f5072696365206d757374206265206d6f7265207468616e203000000000000000600082015250565b7f4572726f7220696e20636f6c6c656374696e6720746865206665650000000000600082015250565b7f4572726f7220696e2073656e64696e6720746f6b656e73000000000000000000600082015250565b7f417070726f76616c206661696c65640000000000000000000000000000000000600082015250565b7f4f776e61626c653a2063616c6c6572206973206e6f7420746865206f776e6572600082015250565b7f496e73756666696369656e742042616c616e6365000000000000000000000000600082015250565b7f4d75737420617070726f766520636f6e74726163740000000000000000000000600082015250565b7f4e6f7420656e6f75676820617661696c61626c65000000000000000000000000600082015250565b7f4572726f7220696e20636f6c6c656374696e67207468652061736b696e67207060008201527f7269636500000000000000000000000000000000000000000000000000000000602082015250565b612ff981612c67565b811461300457600080fd5b50565b61301081612c79565b811461301b57600080fd5b50565b61302781612ca5565b811461303257600080fd5b5056fea26469706673582212201c63c2f356e8b3154170d409ee0277f4c9ef7bb0780f0b8c480b11dd3139655264736f6c63430008060033",
  "immutableReferences": {},
  "source": "//\"SPDX-License-Identifier: MIT\"\npragma solidity 0.8.6;\n\nimport \"@openzeppelin/contracts/utils/Counters.sol\";\nimport \"@openzeppelin/contracts/token/ERC721/ERC721.sol\";\nimport \"@openzeppelin/contracts/token/ERC721/IERC721.sol\";\nimport \"./RCDYRouter.sol\";\n\ncontract RarecandyMall is RCDYRouter {\n  using Counters for Counters.Counter;\n  \n  Counters.Counter private _itemIds;\n  Counters.Counter private _itemsSold;\n\n  IERC721 private rc3;\n  uint public listingFee;               //1000 = 1%\n  address public feeCollector;\n\n  constructor(\n    address _uniswapV2RouterAddress,\n    address _rcdy,\n    address _rc3,\n    address _feeCollector,\n    uint _listingFee,\n    uint _swapFee) \n    \n    RCDYRouter(\n      _uniswapV2RouterAddress,\n      _rcdy,\n      _swapFee\n    ) {\n      \n    rc3 = IERC721(_rc3);\n    listingFee = _listingFee;\n    feeCollector = _feeCollector;\n  }\n\n  struct MarketItem {\n    uint itemId;\n    uint tokenId;\n    address seller;\n    address owner;                      //buyer\n    uint price;                         //in RCDY\n  }\n\n  mapping(uint => MarketItem) private idToMarketItem;\n\n  event MarketItemCreated (\n    uint indexed itemId,\n    uint indexed tokenId,\n    address seller,\n    address owner,\n    uint price\n  );\n\n  event MarketSale(\n      uint indexed itemId,\n      uint indexed tokenId,\n      address buyer,\n      address seller,\n      uint price\n  );\n\n  function createMarketItem(\n    uint _tokenId,\n    uint _price) \n    external returns(bool marketItemCreated) {\n    \n    require(\n      _price > 0, \n      \"Price must be more than 0\"\n    );\n\n    rc3.transferFrom(\n      msg.sender, \n      address(this), \n      _tokenId\n    );\n\n    _itemIds.increment();\n    uint itemId = _itemIds.current();\n\n    idToMarketItem[itemId] =  MarketItem(\n      itemId,\n      _tokenId,\n      msg.sender,\n      address(0),\n      _price\n    );\n\n    emit MarketItemCreated(\n      itemId,\n      _tokenId,\n      msg.sender,\n      address(0),\n      _price\n    );\n\n    return true;\n  }\n\n  function buyMarketItem(\n    uint256 _itemId\n    ) external returns(bool bought) {\n    \n    MarketItem storage item = idToMarketItem[_itemId];\n    uint fee = (listingFee * item.price) / 100000;\n    require(\n      rcdy.transferFrom(\n        msg.sender,\n        feeCollector,\n        fee\n      ), \n      \"Error in collecting the fee\"\n    );\n\n    require(\n      rcdy.transferFrom(\n        msg.sender,\n        item.seller,\n        item.price - fee\n      ), \n      \"Error in collecting the asking price\"\n    );\n\n    item.owner = msg.sender;\n    rc3.transferFrom(\n      address(this), \n      msg.sender, \n      item.tokenId\n    );\n    \n    _itemsSold.increment();\n    \n    \n    emit MarketSale(\n      _itemId,\n      item.tokenId,\n      msg.sender,\n      item.seller,\n      item.price\n    );\n\n    return true;\n  }\n\n  function getMarketItem(\n    uint _marketItemId\n    ) external view returns(MarketItem memory) {\n\n    return idToMarketItem[_marketItemId];\n  }\n\n  function getMarketItems(\n    ) external view returns(MarketItem[] memory marketItems) {\n    \n    uint itemCount = _itemIds.current();\n    uint unsoldItemCount = _itemIds.current() - _itemsSold.current();\n    uint currentIndex;\n\n    MarketItem[] memory items = new MarketItem[](unsoldItemCount);\n    \n    for (uint i = 0; i < itemCount; i++) {\n      \n      if (idToMarketItem[i + 1].owner == address(0)) {\n        \n        uint currentId = idToMarketItem[i + 1].itemId;\n        MarketItem memory currentItem = idToMarketItem[currentId];\n        items[currentIndex] = currentItem;\n        currentIndex++;\n      }\n    }\n    return items;\n  }\n\n  function getMyNFTs(\n    ) external view returns(MarketItem[] memory myNfts) {\n\n    uint totalItemCount = _itemIds.current();\n    uint itemCount;\n    uint currentIndex;\n\n    for (uint i = 0; i < totalItemCount; i++) {\n      if (idToMarketItem[i + 1].owner == msg.sender) itemCount++;\n    }\n\n    MarketItem[] memory items = new MarketItem[](itemCount);\n    \n    for (uint i = 0; i < totalItemCount; i++) {\n      \n      if (idToMarketItem[i + 1].owner == msg.sender) {\n        \n        uint currentId = idToMarketItem[i + 1].itemId;\n        MarketItem memory currentItem = idToMarketItem[currentId];\n        items[currentIndex] = currentItem;\n        currentIndex++;\n      }\n    }\n    return items;\n  }\n\n}",
  "sourcePath": "/Users/hendobox/Desktop/THE GRIND/Blockchain Dev/gitrepo/RC3-NFT/contracts/RarecandyMall.sol",
  "compiler": {
    "name": "solc",
    "version": "0.8.6+commit.11564f7e.Emscripten.clang"
  },
  "schemaVersion": "3.3.3",
  "updatedAt": "2022-01-03T12:04:07.146Z",
  "devdoc": {
    "kind": "dev",
    "methods": {
      "owner()": {
        "details": "Returns the address of the current owner."
      },
      "renounceOwnership()": {
        "details": "Leaves the contract without owner. It will not be possible to call `onlyOwner` functions anymore. Can only be called by the current owner. NOTE: Renouncing ownership will leave the contract without an owner, thereby removing any functionality that is only available to the owner."
      },
      "transferOwnership(address)": {
        "details": "Transfers ownership of the contract to a new account (`newOwner`). Can only be called by the current owner."
      }
    },
    "version": 1
  },
  "userdoc": {
    "kind": "user",
    "methods": {},
    "version": 1
  }
}