{
  "contractName": "RCDYStaking",
  "abi": [
    {
      "inputs": [
        {
          "internalType": "address",
          "name": "_rcdy",
          "type": "address"
        },
        {
          "internalType": "uint256",
          "name": "_ratePerDay",
          "type": "uint256"
        }
      ],
      "stateMutability": "nonpayable",
      "type": "constructor"
    },
    {
      "anonymous": false,
      "inputs": [
        {
          "indexed": true,
          "internalType": "address",
          "name": "user",
          "type": "address"
        },
        {
          "indexed": false,
          "internalType": "uint256",
          "name": "amount",
          "type": "uint256"
        }
      ],
      "name": "NewClaim",
      "type": "event"
    },
    {
      "anonymous": false,
      "inputs": [
        {
          "indexed": true,
          "internalType": "address",
          "name": "user",
          "type": "address"
        },
        {
          "indexed": false,
          "internalType": "uint256",
          "name": "amount",
          "type": "uint256"
        },
        {
          "indexed": false,
          "internalType": "uint256",
          "name": "timestamp",
          "type": "uint256"
        }
      ],
      "name": "NewStake",
      "type": "event"
    },
    {
      "anonymous": false,
      "inputs": [
        {
          "indexed": true,
          "internalType": "address",
          "name": "user",
          "type": "address"
        },
        {
          "indexed": false,
          "internalType": "uint256",
          "name": "amount",
          "type": "uint256"
        },
        {
          "indexed": false,
          "internalType": "uint256",
          "name": "timestamp",
          "type": "uint256"
        }
      ],
      "name": "NewUnstake",
      "type": "event"
    },
    {
      "anonymous": false,
      "inputs": [
        {
          "indexed": true,
          "internalType": "address",
          "name": "previousOwner",
          "type": "address"
        },
        {
          "indexed": true,
          "internalType": "address",
          "name": "newOwner",
          "type": "address"
        }
      ],
      "name": "OwnershipTransferred",
      "type": "event"
    },
    {
      "inputs": [],
      "name": "BLOCKS_PER_DAY",
      "outputs": [
        {
          "internalType": "uint256",
          "name": "",
          "type": "uint256"
        }
      ],
      "stateMutability": "view",
      "type": "function"
    },
    {
      "inputs": [],
      "name": "owner",
      "outputs": [
        {
          "internalType": "address",
          "name": "",
          "type": "address"
        }
      ],
      "stateMutability": "view",
      "type": "function"
    },
    {
      "inputs": [],
      "name": "ratePerDay",
      "outputs": [
        {
          "internalType": "uint256",
          "name": "",
          "type": "uint256"
        }
      ],
      "stateMutability": "view",
      "type": "function"
    },
    {
      "inputs": [],
      "name": "renounceOwnership",
      "outputs": [],
      "stateMutability": "nonpayable",
      "type": "function"
    },
    {
      "inputs": [],
      "name": "totalStakes",
      "outputs": [
        {
          "internalType": "uint256",
          "name": "",
          "type": "uint256"
        }
      ],
      "stateMutability": "view",
      "type": "function"
    },
    {
      "inputs": [
        {
          "internalType": "address",
          "name": "newOwner",
          "type": "address"
        }
      ],
      "name": "transferOwnership",
      "outputs": [],
      "stateMutability": "nonpayable",
      "type": "function"
    },
    {
      "inputs": [
        {
          "internalType": "uint256",
          "name": "amount",
          "type": "uint256"
        }
      ],
      "name": "stakeRCDY",
      "outputs": [
        {
          "internalType": "bool",
          "name": "staked",
          "type": "bool"
        }
      ],
      "stateMutability": "nonpayable",
      "type": "function"
    },
    {
      "inputs": [
        {
          "internalType": "uint256",
          "name": "amount",
          "type": "uint256"
        }
      ],
      "name": "unstakeRCDY",
      "outputs": [
        {
          "internalType": "bool",
          "name": "unstaked",
          "type": "bool"
        }
      ],
      "stateMutability": "nonpayable",
      "type": "function"
    },
    {
      "inputs": [],
      "name": "claim",
      "outputs": [
        {
          "internalType": "bool",
          "name": "claimed",
          "type": "bool"
        }
      ],
      "stateMutability": "nonpayable",
      "type": "function"
    },
    {
      "inputs": [
        {
          "internalType": "address",
          "name": "_user",
          "type": "address"
        }
      ],
      "name": "claimableRewards",
      "outputs": [
        {
          "internalType": "uint256",
          "name": "rewards",
          "type": "uint256"
        }
      ],
      "stateMutability": "view",
      "type": "function"
    },
    {
      "inputs": [
        {
          "internalType": "address",
          "name": "_user",
          "type": "address"
        }
      ],
      "name": "getUserInfo",
      "outputs": [
        {
          "components": [
            {
              "internalType": "uint256",
              "name": "stakes",
              "type": "uint256"
            },
            {
              "internalType": "uint256",
              "name": "checkpoint",
              "type": "uint256"
            },
            {
              "internalType": "uint256",
              "name": "claimed",
              "type": "uint256"
            }
          ],
          "internalType": "struct RCDYStaking.User",
          "name": "userInfo",
          "type": "tuple"
        }
      ],
      "stateMutability": "view",
      "type": "function"
    }
  ],
  "bytecode": "0x60a06040523480156200001157600080fd5b5060405162001a0e38038062001a0e8339818101604052810190620000379190620001a1565b60016000819055506200005f62000053620000a560201b60201c565b620000ad60201b60201c565b8173ffffffffffffffffffffffffffffffffffffffff1660808173ffffffffffffffffffffffffffffffffffffffff1660601b815250508060028190555050506200025f565b600033905090565b6000600160009054906101000a900473ffffffffffffffffffffffffffffffffffffffff16905081600160006101000a81548173ffffffffffffffffffffffffffffffffffffffff021916908373ffffffffffffffffffffffffffffffffffffffff1602179055508173ffffffffffffffffffffffffffffffffffffffff168173ffffffffffffffffffffffffffffffffffffffff167f8be0079c531659141344cd1fd0a4f28419497f9722a3daafe3b4186f6b6457e060405160405180910390a35050565b60008151905062000184816200022b565b92915050565b6000815190506200019b8162000245565b92915050565b60008060408385031215620001bb57620001ba62000226565b5b6000620001cb8582860162000173565b9250506020620001de858286016200018a565b9150509250929050565b6000620001f582620001fc565b9050919050565b600073ffffffffffffffffffffffffffffffffffffffff82169050919050565b6000819050919050565b600080fd5b6200023681620001e8565b81146200024257600080fd5b50565b62000250816200021c565b81146200025c57600080fd5b50565b60805160601c6117826200028c600039600081816103cc015281816106e6015261092001526117826000f3fe608060405234801561001057600080fd5b50600436106100a95760003560e01c80638da5cb5b116100715780638da5cb5b14610142578063bf9befb114610160578063d17655a31461017e578063dc01f60d146101ae578063e7bc9846146101de578063f2fde38b1461020e576100a9565b80634e71d92d146100ae5780635cddf0f6146100cc5780636386c1c7146100ea5780636bb987fe1461011a578063715018a614610138575b600080fd5b6100b661022a565b6040516100c3919061117b565b60405180910390f35b6100d4610287565b6040516100e191906112d3565b60405180910390f35b61010460048036038101906100ff9190610e62565b61028d565b60405161011191906112b8565b60405180910390f35b610122610304565b60405161012f91906112d3565b60405180910390f35b61014061030a565b005b61014a610392565b6040516101579190611100565b60405180910390f35b6101686103bc565b60405161017591906112d3565b60405180910390f35b61019860048036038101906101939190610ebc565b6103c2565b6040516101a5919061117b565b60405180910390f35b6101c860048036038101906101c39190610e62565b6104ee565b6040516101d591906112d3565b60405180910390f35b6101f860048036038101906101f39190610ebc565b6105bb565b604051610205919061117b565b60405180910390f35b61022860048036038101906102239190610e62565b6107a4565b005b600080610236336104ee565b1015610277576040517f08c379a000000000000000000000000000000000000000000000000000000000815260040161026e906111d8565b60405180910390fd5b6102803361089c565b6001905090565b60025481565b610295610e02565b600460008373ffffffffffffffffffffffffffffffffffffffff1673ffffffffffffffffffffffffffffffffffffffff16815260200190815260200160002060405180606001604052908160008201548152602001600182015481526020016002820154815250509050919050565b61168081565b6103126109b8565b73ffffffffffffffffffffffffffffffffffffffff16610330610392565b73ffffffffffffffffffffffffffffffffffffffff1614610386576040517f08c379a000000000000000000000000000000000000000000000000000000000815260040161037d90611218565b60405180910390fd5b61039060006109c0565b565b6000600160009054906101000a900473ffffffffffffffffffffffffffffffffffffffff16905090565b60035481565b60006104113330847f000000000000000000000000000000000000000000000000000000000000000073ffffffffffffffffffffffffffffffffffffffff16610a86909392919063ffffffff16565b6000600460003373ffffffffffffffffffffffffffffffffffffffff1673ffffffffffffffffffffffffffffffffffffffff168152602001908152602001600020905060008160010154141561046f57438160010181905550610479565b6104783361089c565b5b8281600001600082825461048d9190611349565b925050819055503373ffffffffffffffffffffffffffffffffffffffff167f55595f34fd936311e65eca0a752ee70068b8992fdf64918aff1b6345689c84e484426040516104dc9291906112ee565b60405180910390a26001915050919050565b600080600460008473ffffffffffffffffffffffffffffffffffffffff1673ffffffffffffffffffffffffffffffffffffffff16815260200190815260200160002060405180606001604052908160008201548152602001600182015481526020016002820154815250509050600081602001514361056d919061142a565b90506103e8606461168061058191906113d0565b61058b91906113d0565b82600001516002548361059e91906113d0565b6105a891906113d0565b6105b2919061139f565b92505050919050565b600060026000541415610603576040517f08c379a00000000000000000000000000000000000000000000000000000000081526004016105fa90611278565b60405180910390fd5b60026000819055506000600460003373ffffffffffffffffffffffffffffffffffffffff1673ffffffffffffffffffffffffffffffffffffffff16815260200190815260200160002090508281600001541015610695576040517f08c379a000000000000000000000000000000000000000000000000000000000815260040161068c90611298565b60405180910390fd5b80600101544311156106ab576106aa3361089c565b5b82600360008282546106bd919061142a565b92505081905550828160000160008282546106d8919061142a565b9250508190555061072a33847f000000000000000000000000000000000000000000000000000000000000000073ffffffffffffffffffffffffffffffffffffffff16610b0f9092919063ffffffff16565b60008160000154141561074257600081600101819055505b3373ffffffffffffffffffffffffffffffffffffffff167fd6954c073268a41234627942b1c88cbf53c8bdc07009b12907400074e65d3e9b844260405161078a9291906112ee565b60405180910390a260019150506001600081905550919050565b6107ac6109b8565b73ffffffffffffffffffffffffffffffffffffffff166107ca610392565b73ffffffffffffffffffffffffffffffffffffffff1614610820576040517f08c379a000000000000000000000000000000000000000000000000000000000815260040161081790611218565b60405180910390fd5b600073ffffffffffffffffffffffffffffffffffffffff168173ffffffffffffffffffffffffffffffffffffffff161415610890576040517f08c379a0000000000000000000000000000000000000000000000000000000008152600401610887906111b8565b60405180910390fd5b610899816109c0565b50565b6000600460008373ffffffffffffffffffffffffffffffffffffffff1673ffffffffffffffffffffffffffffffffffffffff168152602001908152602001600020905060006108ea836104ee565b905060008111156109b357438260010181905550808260020160008282546109129190611349565b9250508190555061096483827f000000000000000000000000000000000000000000000000000000000000000073ffffffffffffffffffffffffffffffffffffffff16610b0f9092919063ffffffff16565b3373ffffffffffffffffffffffffffffffffffffffff167f081144d27d70f1f67f67a65289dde411e1a9511c916d13ee3ff9bf22f169cd9a826040516109aa91906112d3565b60405180910390a25b505050565b600033905090565b6000600160009054906101000a900473ffffffffffffffffffffffffffffffffffffffff16905081600160006101000a81548173ffffffffffffffffffffffffffffffffffffffff021916908373ffffffffffffffffffffffffffffffffffffffff1602179055508173ffffffffffffffffffffffffffffffffffffffff168173ffffffffffffffffffffffffffffffffffffffff167f8be0079c531659141344cd1fd0a4f28419497f9722a3daafe3b4186f6b6457e060405160405180910390a35050565b610b09846323b872dd60e01b858585604051602401610aa79392919061111b565b604051602081830303815290604052907bffffffffffffffffffffffffffffffffffffffffffffffffffffffff19166020820180517bffffffffffffffffffffffffffffffffffffffffffffffffffffffff8381831617835250505050610b95565b50505050565b610b908363a9059cbb60e01b8484604051602401610b2e929190611152565b604051602081830303815290604052907bffffffffffffffffffffffffffffffffffffffffffffffffffffffff19166020820180517bffffffffffffffffffffffffffffffffffffffffffffffffffffffff8381831617835250505050610b95565b505050565b6000610bf7826040518060400160405280602081526020017f5361666545524332303a206c6f772d6c6576656c2063616c6c206661696c65648152508573ffffffffffffffffffffffffffffffffffffffff16610c5c9092919063ffffffff16565b9050600081511115610c575780806020019051810190610c179190610e8f565b610c56576040517f08c379a0000000000000000000000000000000000000000000000000000000008152600401610c4d90611258565b60405180910390fd5b5b505050565b6060610c6b8484600085610c74565b90509392505050565b606082471015610cb9576040517f08c379a0000000000000000000000000000000000000000000000000000000008152600401610cb0906111f8565b60405180910390fd5b610cc285610d88565b610d01576040517f08c379a0000000000000000000000000000000000000000000000000000000008152600401610cf890611238565b60405180910390fd5b6000808673ffffffffffffffffffffffffffffffffffffffff168587604051610d2a91906110e9565b60006040518083038185875af1925050503d8060008114610d67576040519150601f19603f3d011682016040523d82523d6000602084013e610d6c565b606091505b5091509150610d7c828286610d9b565b92505050949350505050565b600080823b905060008111915050919050565b60608315610dab57829050610dfb565b600083511115610dbe5782518084602001fd5b816040517f08c379a0000000000000000000000000000000000000000000000000000000008152600401610df29190611196565b60405180910390fd5b9392505050565b60405180606001604052806000815260200160008152602001600081525090565b600081359050610e3281611707565b92915050565b600081519050610e478161171e565b92915050565b600081359050610e5c81611735565b92915050565b600060208284031215610e7857610e77611537565b5b6000610e8684828501610e23565b91505092915050565b600060208284031215610ea557610ea4611537565b5b6000610eb384828501610e38565b91505092915050565b600060208284031215610ed257610ed1611537565b5b6000610ee084828501610e4d565b91505092915050565b610ef28161145e565b82525050565b610f0181611470565b82525050565b6000610f1282611317565b610f1c818561132d565b9350610f2c8185602086016114a6565b80840191505092915050565b6000610f4382611322565b610f4d8185611338565b9350610f5d8185602086016114a6565b610f668161153c565b840191505092915050565b6000610f7e602683611338565b9150610f898261154d565b604082019050919050565b6000610fa1601a83611338565b9150610fac8261159c565b602082019050919050565b6000610fc4602683611338565b9150610fcf826115c5565b604082019050919050565b6000610fe7602083611338565b9150610ff282611614565b602082019050919050565b600061100a601d83611338565b91506110158261163d565b602082019050919050565b600061102d602a83611338565b915061103882611666565b604082019050919050565b6000611050601f83611338565b915061105b826116b5565b602082019050919050565b6000611073601d83611338565b915061107e826116de565b602082019050919050565b60608201600082015161109f60008501826110cb565b5060208201516110b260208501826110cb565b5060408201516110c560408501826110cb565b50505050565b6110d48161149c565b82525050565b6110e38161149c565b82525050565b60006110f58284610f07565b915081905092915050565b60006020820190506111156000830184610ee9565b92915050565b60006060820190506111306000830186610ee9565b61113d6020830185610ee9565b61114a60408301846110da565b949350505050565b60006040820190506111676000830185610ee9565b61117460208301846110da565b9392505050565b60006020820190506111906000830184610ef8565b92915050565b600060208201905081810360008301526111b08184610f38565b905092915050565b600060208201905081810360008301526111d181610f71565b9050919050565b600060208201905081810360008301526111f181610f94565b9050919050565b6000602082019050818103600083015261121181610fb7565b9050919050565b6000602082019050818103600083015261123181610fda565b9050919050565b6000602082019050818103600083015261125181610ffd565b9050919050565b6000602082019050818103600083015261127181611020565b9050919050565b6000602082019050818103600083015261129181611043565b9050919050565b600060208201905081810360008301526112b181611066565b9050919050565b60006060820190506112cd6000830184611089565b92915050565b60006020820190506112e860008301846110da565b92915050565b600060408201905061130360008301856110da565b61131060208301846110da565b9392505050565b600081519050919050565b600081519050919050565b600081905092915050565b600082825260208201905092915050565b60006113548261149c565b915061135f8361149c565b9250827fffffffffffffffffffffffffffffffffffffffffffffffffffffffffffffffff03821115611394576113936114d9565b5b828201905092915050565b60006113aa8261149c565b91506113b58361149c565b9250826113c5576113c4611508565b5b828204905092915050565b60006113db8261149c565b91506113e68361149c565b9250817fffffffffffffffffffffffffffffffffffffffffffffffffffffffffffffffff048311821515161561141f5761141e6114d9565b5b828202905092915050565b60006114358261149c565b91506114408361149c565b925082821015611453576114526114d9565b5b828203905092915050565b60006114698261147c565b9050919050565b60008115159050919050565b600073ffffffffffffffffffffffffffffffffffffffff82169050919050565b6000819050919050565b60005b838110156114c45780820151818401526020810190506114a9565b838111156114d3576000848401525b50505050565b7f4e487b7100000000000000000000000000000000000000000000000000000000600052601160045260246000fd5b7f4e487b7100000000000000000000000000000000000000000000000000000000600052601260045260246000fd5b600080fd5b6000601f19601f8301169050919050565b7f4f776e61626c653a206e6577206f776e657220697320746865207a65726f206160008201527f6464726573730000000000000000000000000000000000000000000000000000602082015250565b7f596f7520646f206e6f74206861766520616e79207374616b6573000000000000600082015250565b7f416464726573733a20696e73756666696369656e742062616c616e636520666f60008201527f722063616c6c0000000000000000000000000000000000000000000000000000602082015250565b7f4f776e61626c653a2063616c6c6572206973206e6f7420746865206f776e6572600082015250565b7f416464726573733a2063616c6c20746f206e6f6e2d636f6e7472616374000000600082015250565b7f5361666545524332303a204552433230206f7065726174696f6e20646964206e60008201527f6f74207375636365656400000000000000000000000000000000000000000000602082015250565b7f5265656e7472616e637947756172643a207265656e7472616e742063616c6c00600082015250565b7f596f7520646f206e6f74206861766520656e6f756768207374616b6573000000600082015250565b6117108161145e565b811461171b57600080fd5b50565b61172781611470565b811461173257600080fd5b50565b61173e8161149c565b811461174957600080fd5b5056fea26469706673582212207e16f025e664654202a2eed1319aa82eb3b58f70ff88a4f89cb5cd4f4da747ea64736f6c63430008060033",
  "immutableReferences": {
    "1785": [
      {
        "length": 32,
        "start": 972
      },
      {
        "length": 32,
        "start": 1766
      },
      {
        "length": 32,
        "start": 2336
      }
    ]
  },
  "source": "//\"SPDX-License-Identifier: MIT\"\npragma solidity 0.8.6;\n\nimport \"@openzeppelin/contracts/token/ERC20/IERC20.sol\";\nimport \"@openzeppelin/contracts/token/ERC20/utils/SafeERC20.sol\";\nimport \"@openzeppelin/contracts/access/Ownable.sol\";\nimport \"@openzeppelin/contracts/security/ReentrancyGuard.sol\";\n\n/**\n * @dev Staking contract for RCDY\n */\ncontract RCDYStaking is ReentrancyGuard, Ownable {\n    using SafeERC20 for IERC20;\n    IERC20 private immutable rcdy;\n\n    uint256 public ratePerDay; //1000 = 1%\n    uint256 public totalStakes;\n    uint256 public constant BLOCKS_PER_DAY = 1 days / 15; //5760;\n\n    struct User {\n        uint256 stakes;\n        uint256 checkpoint;\n        uint256 claimed;\n    }\n\n    mapping(address => User) private users;\n\n    /**\n     * @dev Emitted when RCDY is staked\n     */\n    event NewStake(address indexed user, uint256 amount, uint256 timestamp);\n\n    /**\n     * @dev Emitted when RCDY is unstaked\n     */\n    event NewUnstake(address indexed user, uint256 amount, uint256 timestamp);\n\n    /**\n     * @dev Emitted when rewards are distributed\n     */\n    event NewClaim(address indexed user, uint256 amount);\n\n    constructor(address _rcdy, uint256 _ratePerDay) {\n        rcdy = IERC20(_rcdy);\n        ratePerDay = _ratePerDay;\n    }\n\n    /**\n     * @dev Stakes RCDY to contract\n     */\n    function stakeRCDY(uint256 amount) external returns (bool staked) {\n        rcdy.safeTransferFrom(msg.sender, address(this), amount);\n\n        User storage user = users[msg.sender];\n\n        if (user.checkpoint == 0) user.checkpoint = block.number;\n        else _distribute(msg.sender);\n\n        user.stakes += amount;\n\n        emit NewStake(msg.sender, amount, block.timestamp);\n\n        return true;\n    }\n\n    /**\n     * @dev Unstakes RCDY from contract\n     */\n    function unstakeRCDY(uint256 amount)\n        external\n        nonReentrant\n        returns (bool unstaked)\n    {\n        User storage user = users[msg.sender];\n\n        require(user.stakes >= amount, \"You do not have enough stakes\");\n\n        if (block.number > user.checkpoint) _distribute(msg.sender);\n\n        totalStakes -= amount;\n        user.stakes -= amount;\n\n        rcdy.safeTransfer(msg.sender, amount);\n\n        if (user.stakes == 0) user.checkpoint = 0;\n\n        emit NewUnstake(msg.sender, amount, block.timestamp);\n        return true;\n    }\n\n    /**\n     * @dev Claim rewards\n     */\n    function claim() external returns (bool claimed) {\n        require(\n            claimableRewards(msg.sender) >= 0,\n            \"You do not have any stakes\"\n        );\n\n        _distribute(msg.sender);\n        return true;\n    }\n\n    /**\n     * @dev Returns the rewards claimable by a staker\n     */\n    function claimableRewards(address _user)\n        public\n        view\n        returns (uint256 rewards)\n    {\n        User memory user = users[_user];\n\n        uint256 blocks = block.number - user.checkpoint;\n        rewards = ((blocks * ratePerDay * user.stakes) /\n            (BLOCKS_PER_DAY * 100 * 1000));\n    }\n\n    function getUserInfo(address _user)\n        external\n        view\n        returns (User memory userInfo)\n    {\n        return users[_user];\n    }\n\n    function _distribute(address _user) private {\n        User storage user = users[_user];\n\n        uint256 rewards = claimableRewards(_user);\n\n        if (rewards > 0) {\n            user.checkpoint = block.number;\n            user.claimed += rewards;\n            rcdy.safeTransfer(_user, rewards);\n            emit NewClaim(msg.sender, rewards);\n        }\n    }\n}\n",
  "sourcePath": "/Users/raneetdebnath/Desktop/RC3-NFT/contracts/RCDYStaking.sol",
  "compiler": {
    "name": "solc",
    "version": "0.8.6+commit.11564f7e.Emscripten.clang"
  },
  "schemaVersion": "3.4.1",
  "updatedAt": "2022-01-12T09:57:43.630Z",
  "devdoc": {
    "details": "Staking contract for RCDY",
    "events": {
      "NewClaim(address,uint256)": {
        "details": "Emitted when rewards are distributed"
      },
      "NewStake(address,uint256,uint256)": {
        "details": "Emitted when RCDY is staked"
      },
      "NewUnstake(address,uint256,uint256)": {
        "details": "Emitted when RCDY is unstaked"
      }
    },
    "kind": "dev",
    "methods": {
      "claim()": {
        "details": "Claim rewards"
      },
      "claimableRewards(address)": {
        "details": "Returns the rewards claimable by a staker"
      },
      "owner()": {
        "details": "Returns the address of the current owner."
      },
      "renounceOwnership()": {
        "details": "Leaves the contract without owner. It will not be possible to call `onlyOwner` functions anymore. Can only be called by the current owner. NOTE: Renouncing ownership will leave the contract without an owner, thereby removing any functionality that is only available to the owner."
      },
      "stakeRCDY(uint256)": {
        "details": "Stakes RCDY to contract"
      },
      "transferOwnership(address)": {
        "details": "Transfers ownership of the contract to a new account (`newOwner`). Can only be called by the current owner."
      },
      "unstakeRCDY(uint256)": {
        "details": "Unstakes RCDY from contract"
      }
    },
    "version": 1
  },
  "userdoc": {
    "kind": "user",
    "methods": {},
    "version": 1
  }
}