{
  "contractName": "RCDYStaking",
  "abi": [
    {
      "inputs": [
        {
          "internalType": "address",
          "name": "_rcdy",
          "type": "address"
        },
        {
          "internalType": "uint256",
          "name": "_ratePerDay",
          "type": "uint256"
        }
      ],
      "stateMutability": "nonpayable",
      "type": "constructor"
    },
    {
      "anonymous": false,
      "inputs": [
        {
          "indexed": true,
          "internalType": "address",
          "name": "user",
          "type": "address"
        },
        {
          "indexed": false,
          "internalType": "uint256",
          "name": "amount",
          "type": "uint256"
        }
      ],
      "name": "NewClaim",
      "type": "event"
    },
    {
      "anonymous": false,
      "inputs": [
        {
          "indexed": true,
          "internalType": "address",
          "name": "user",
          "type": "address"
        },
        {
          "indexed": false,
          "internalType": "uint256",
          "name": "amount",
          "type": "uint256"
        },
        {
          "indexed": false,
          "internalType": "uint256",
          "name": "timestamp",
          "type": "uint256"
        }
      ],
      "name": "NewStake",
      "type": "event"
    },
    {
      "anonymous": false,
      "inputs": [
        {
          "indexed": true,
          "internalType": "address",
          "name": "user",
          "type": "address"
        },
        {
          "indexed": false,
          "internalType": "uint256",
          "name": "amount",
          "type": "uint256"
        },
        {
          "indexed": false,
          "internalType": "uint256",
          "name": "timestamp",
          "type": "uint256"
        }
      ],
      "name": "NewUnstake",
      "type": "event"
    },
    {
      "anonymous": false,
      "inputs": [
        {
          "indexed": true,
          "internalType": "address",
          "name": "previousOwner",
          "type": "address"
        },
        {
          "indexed": true,
          "internalType": "address",
          "name": "newOwner",
          "type": "address"
        }
      ],
      "name": "OwnershipTransferred",
      "type": "event"
    },
    {
      "inputs": [],
      "name": "BLOCKS_PER_DAY",
      "outputs": [
        {
          "internalType": "uint256",
          "name": "",
          "type": "uint256"
        }
      ],
      "stateMutability": "view",
      "type": "function"
    },
    {
      "inputs": [],
      "name": "owner",
      "outputs": [
        {
          "internalType": "address",
          "name": "",
          "type": "address"
        }
      ],
      "stateMutability": "view",
      "type": "function"
    },
    {
      "inputs": [],
      "name": "ratePerDay",
      "outputs": [
        {
          "internalType": "uint256",
          "name": "",
          "type": "uint256"
        }
      ],
      "stateMutability": "view",
      "type": "function"
    },
    {
      "inputs": [],
      "name": "renounceOwnership",
      "outputs": [],
      "stateMutability": "nonpayable",
      "type": "function"
    },
    {
      "inputs": [],
      "name": "totalStakes",
      "outputs": [
        {
          "internalType": "uint256",
          "name": "",
          "type": "uint256"
        }
      ],
      "stateMutability": "view",
      "type": "function"
    },
    {
      "inputs": [
        {
          "internalType": "address",
          "name": "newOwner",
          "type": "address"
        }
      ],
      "name": "transferOwnership",
      "outputs": [],
      "stateMutability": "nonpayable",
      "type": "function"
    },
    {
      "inputs": [
        {
          "internalType": "uint256",
          "name": "amount",
          "type": "uint256"
        }
      ],
      "name": "stakeRCDY",
      "outputs": [
        {
          "internalType": "bool",
          "name": "staked",
          "type": "bool"
        }
      ],
      "stateMutability": "nonpayable",
      "type": "function"
    },
    {
      "inputs": [
        {
          "internalType": "uint256",
          "name": "amount",
          "type": "uint256"
        }
      ],
      "name": "unstakeRCDY",
      "outputs": [
        {
          "internalType": "bool",
          "name": "unstaked",
          "type": "bool"
        }
      ],
      "stateMutability": "nonpayable",
      "type": "function"
    },
    {
      "inputs": [],
      "name": "claim",
      "outputs": [
        {
          "internalType": "bool",
          "name": "claimed",
          "type": "bool"
        }
      ],
      "stateMutability": "nonpayable",
      "type": "function"
    },
    {
      "inputs": [
        {
          "internalType": "address",
          "name": "_user",
          "type": "address"
        }
      ],
      "name": "claimableRewards",
      "outputs": [
        {
          "internalType": "uint256",
          "name": "rewards",
          "type": "uint256"
        }
      ],
      "stateMutability": "view",
      "type": "function"
    },
    {
      "inputs": [
        {
          "internalType": "address",
          "name": "_user",
          "type": "address"
        }
      ],
      "name": "getUserInfo",
      "outputs": [
        {
          "components": [
            {
              "internalType": "uint256",
              "name": "stakes",
              "type": "uint256"
            },
            {
              "internalType": "uint256",
              "name": "checkpoint",
              "type": "uint256"
            },
            {
              "internalType": "uint256",
              "name": "claimed",
              "type": "uint256"
            }
          ],
          "internalType": "struct RCDYStaking.User",
          "name": "userInfo",
          "type": "tuple"
        }
      ],
      "stateMutability": "view",
      "type": "function"
    }
  ],
  "bytecode": "0x60806040523480156200001157600080fd5b5060405162001691380380620016918339818101604052810190620000379190620001ab565b60016000819055506200005f62000053620000af60201b60201c565b620000b760201b60201c565b81600260006101000a81548173ffffffffffffffffffffffffffffffffffffffff021916908373ffffffffffffffffffffffffffffffffffffffff16021790555080600381905550505062000269565b600033905090565b6000600160009054906101000a900473ffffffffffffffffffffffffffffffffffffffff16905081600160006101000a81548173ffffffffffffffffffffffffffffffffffffffff021916908373ffffffffffffffffffffffffffffffffffffffff1602179055508173ffffffffffffffffffffffffffffffffffffffff168173ffffffffffffffffffffffffffffffffffffffff167f8be0079c531659141344cd1fd0a4f28419497f9722a3daafe3b4186f6b6457e060405160405180910390a35050565b6000815190506200018e8162000235565b92915050565b600081519050620001a5816200024f565b92915050565b60008060408385031215620001c557620001c462000230565b5b6000620001d5858286016200017d565b9250506020620001e88582860162000194565b9150509250929050565b6000620001ff8262000206565b9050919050565b600073ffffffffffffffffffffffffffffffffffffffff82169050919050565b6000819050919050565b600080fd5b6200024081620001f2565b81146200024c57600080fd5b50565b6200025a8162000226565b81146200026657600080fd5b50565b61141880620002796000396000f3fe608060405234801561001057600080fd5b50600436106100a95760003560e01c80638da5cb5b116100715780638da5cb5b14610142578063bf9befb114610160578063d17655a31461017e578063dc01f60d146101ae578063e7bc9846146101de578063f2fde38b1461020e576100a9565b80634e71d92d146100ae5780635cddf0f6146100cc5780636386c1c7146100ea5780636bb987fe1461011a578063715018a614610138575b600080fd5b6100b661022a565b6040516100c39190610f07565b60405180910390f35b6100d4610287565b6040516100e1919061101d565b60405180910390f35b61010460048036038101906100ff9190610c92565b61028d565b6040516101119190611002565b60405180910390f35b610122610304565b60405161012f919061101d565b60405180910390f35b61014061030a565b005b61014a610392565b6040516101579190610e8c565b60405180910390f35b6101686103bc565b604051610175919061101d565b60405180910390f35b61019860048036038101906101939190610cec565b6103c2565b6040516101a59190610f07565b60405180910390f35b6101c860048036038101906101c39190610c92565b6105aa565b6040516101d5919061101d565b60405180910390f35b6101f860048036038101906101f39190610cec565b610677565b6040516102059190610f07565b60405180910390f35b61022860048036038101906102239190610c92565b6108eb565b005b600080610236336105aa565b1015610277576040517f08c379a000000000000000000000000000000000000000000000000000000000815260040161026e90610f62565b60405180910390fd5b610280336109e3565b6001905090565b60035481565b610295610c32565b600560008373ffffffffffffffffffffffffffffffffffffffff1673ffffffffffffffffffffffffffffffffffffffff16815260200190815260200160002060405180606001604052908160008201548152602001600182015481526020016002820154815250509050919050565b61168081565b610312610b64565b73ffffffffffffffffffffffffffffffffffffffff16610330610392565b73ffffffffffffffffffffffffffffffffffffffff1614610386576040517f08c379a000000000000000000000000000000000000000000000000000000000815260040161037d90610fa2565b60405180910390fd5b6103906000610b6c565b565b6000600160009054906101000a900473ffffffffffffffffffffffffffffffffffffffff16905090565b60045481565b6000600260009054906101000a900473ffffffffffffffffffffffffffffffffffffffff1673ffffffffffffffffffffffffffffffffffffffff166323b872dd3330856040518463ffffffff1660e01b815260040161042393929190610ea7565b602060405180830381600087803b15801561043d57600080fd5b505af1158015610451573d6000803e3d6000fd5b505050506040513d601f19601f820116820180604052508101906104759190610cbf565b6104b4576040517f08c379a00000000000000000000000000000000000000000000000000000000081526004016104ab90610f42565b60405180910390fd5b81600460008282546104c69190611072565b925050819055506000600560003373ffffffffffffffffffffffffffffffffffffffff1673ffffffffffffffffffffffffffffffffffffffff168152602001908152602001600020905060008160010154141561052b57438160010181905550610535565b610534336109e3565b5b828160000160008282546105499190611072565b925050819055503373ffffffffffffffffffffffffffffffffffffffff167f55595f34fd936311e65eca0a752ee70068b8992fdf64918aff1b6345689c84e48442604051610598929190611038565b60405180910390a26001915050919050565b600080600560008473ffffffffffffffffffffffffffffffffffffffff1673ffffffffffffffffffffffffffffffffffffffff1681526020019081526020016000206040518060600160405290816000820154815260200160018201548152602001600282015481525050905060008160200151436106299190611153565b90506103e8606461168061063d91906110f9565b61064791906110f9565b82600001516003548361065a91906110f9565b61066491906110f9565b61066e91906110c8565b92505050919050565b6000600260005414156106bf576040517f08c379a00000000000000000000000000000000000000000000000000000000081526004016106b690610fc2565b60405180910390fd5b60026000819055506000600560003373ffffffffffffffffffffffffffffffffffffffff1673ffffffffffffffffffffffffffffffffffffffff16815260200190815260200160002090508281600001541015610751576040517f08c379a000000000000000000000000000000000000000000000000000000000815260040161074890610fe2565b60405180910390fd5b806001015443111561076757610766336109e3565b5b82600460008282546107799190611153565b92505081905550828160000160008282546107949190611153565b92505081905550600260009054906101000a900473ffffffffffffffffffffffffffffffffffffffff1673ffffffffffffffffffffffffffffffffffffffff1663a9059cbb33856040518363ffffffff1660e01b81526004016107f8929190610ede565b602060405180830381600087803b15801561081257600080fd5b505af1158015610826573d6000803e3d6000fd5b505050506040513d601f19601f8201168201806040525081019061084a9190610cbf565b610889576040517f08c379a000000000000000000000000000000000000000000000000000000000815260040161088090610f82565b60405180910390fd5b3373ffffffffffffffffffffffffffffffffffffffff167fd6954c073268a41234627942b1c88cbf53c8bdc07009b12907400074e65d3e9b84426040516108d1929190611038565b60405180910390a260019150506001600081905550919050565b6108f3610b64565b73ffffffffffffffffffffffffffffffffffffffff16610911610392565b73ffffffffffffffffffffffffffffffffffffffff1614610967576040517f08c379a000000000000000000000000000000000000000000000000000000000815260040161095e90610fa2565b60405180910390fd5b600073ffffffffffffffffffffffffffffffffffffffff168173ffffffffffffffffffffffffffffffffffffffff1614156109d7576040517f08c379a00000000000000000000000000000000000000000000000000000000081526004016109ce90610f22565b60405180910390fd5b6109e081610b6c565b50565b6000600560008373ffffffffffffffffffffffffffffffffffffffff1673ffffffffffffffffffffffffffffffffffffffff16815260200190815260200160002090506000610a31836105aa565b90506000811115610b5f5743826001018190555080826002016000828254610a599190611072565b92505081905550600260009054906101000a900473ffffffffffffffffffffffffffffffffffffffff1673ffffffffffffffffffffffffffffffffffffffff1663a9059cbb84836040518363ffffffff1660e01b8152600401610abd929190610ede565b602060405180830381600087803b158015610ad757600080fd5b505af1158015610aeb573d6000803e3d6000fd5b505050506040513d601f19601f82011682018060405250810190610b0f9190610cbf565b503373ffffffffffffffffffffffffffffffffffffffff167f081144d27d70f1f67f67a65289dde411e1a9511c916d13ee3ff9bf22f169cd9a82604051610b56919061101d565b60405180910390a25b505050565b600033905090565b6000600160009054906101000a900473ffffffffffffffffffffffffffffffffffffffff16905081600160006101000a81548173ffffffffffffffffffffffffffffffffffffffff021916908373ffffffffffffffffffffffffffffffffffffffff1602179055508173ffffffffffffffffffffffffffffffffffffffff168173ffffffffffffffffffffffffffffffffffffffff167f8be0079c531659141344cd1fd0a4f28419497f9722a3daafe3b4186f6b6457e060405160405180910390a35050565b60405180606001604052806000815260200160008152602001600081525090565b600081359050610c628161139d565b92915050565b600081519050610c77816113b4565b92915050565b600081359050610c8c816113cb565b92915050565b600060208284031215610ca857610ca761122d565b5b6000610cb684828501610c53565b91505092915050565b600060208284031215610cd557610cd461122d565b5b6000610ce384828501610c68565b91505092915050565b600060208284031215610d0257610d0161122d565b5b6000610d1084828501610c7d565b91505092915050565b610d2281611187565b82525050565b610d3181611199565b82525050565b6000610d44602683611061565b9150610d4f82611232565b604082019050919050565b6000610d67602783611061565b9150610d7282611281565b604082019050919050565b6000610d8a601a83611061565b9150610d95826112d0565b602082019050919050565b6000610dad601f83611061565b9150610db8826112f9565b602082019050919050565b6000610dd0602083611061565b9150610ddb82611322565b602082019050919050565b6000610df3601f83611061565b9150610dfe8261134b565b602082019050919050565b6000610e16601d83611061565b9150610e2182611374565b602082019050919050565b606082016000820151610e426000850182610e6e565b506020820151610e556020850182610e6e565b506040820151610e686040850182610e6e565b50505050565b610e77816111c5565b82525050565b610e86816111c5565b82525050565b6000602082019050610ea16000830184610d19565b92915050565b6000606082019050610ebc6000830186610d19565b610ec96020830185610d19565b610ed66040830184610e7d565b949350505050565b6000604082019050610ef36000830185610d19565b610f006020830184610e7d565b9392505050565b6000602082019050610f1c6000830184610d28565b92915050565b60006020820190508181036000830152610f3b81610d37565b9050919050565b60006020820190508181036000830152610f5b81610d5a565b9050919050565b60006020820190508181036000830152610f7b81610d7d565b9050919050565b60006020820190508181036000830152610f9b81610da0565b9050919050565b60006020820190508181036000830152610fbb81610dc3565b9050919050565b60006020820190508181036000830152610fdb81610de6565b9050919050565b60006020820190508181036000830152610ffb81610e09565b9050919050565b60006060820190506110176000830184610e2c565b92915050565b60006020820190506110326000830184610e7d565b92915050565b600060408201905061104d6000830185610e7d565b61105a6020830184610e7d565b9392505050565b600082825260208201905092915050565b600061107d826111c5565b9150611088836111c5565b9250827fffffffffffffffffffffffffffffffffffffffffffffffffffffffffffffffff038211156110bd576110bc6111cf565b5b828201905092915050565b60006110d3826111c5565b91506110de836111c5565b9250826110ee576110ed6111fe565b5b828204905092915050565b6000611104826111c5565b915061110f836111c5565b9250817fffffffffffffffffffffffffffffffffffffffffffffffffffffffffffffffff0483118215151615611148576111476111cf565b5b828202905092915050565b600061115e826111c5565b9150611169836111c5565b92508282101561117c5761117b6111cf565b5b828203905092915050565b6000611192826111a5565b9050919050565b60008115159050919050565b600073ffffffffffffffffffffffffffffffffffffffff82169050919050565b6000819050919050565b7f4e487b7100000000000000000000000000000000000000000000000000000000600052601160045260246000fd5b7f4e487b7100000000000000000000000000000000000000000000000000000000600052601260045260246000fd5b600080fd5b7f4f776e61626c653a206e6577206f776e657220697320746865207a65726f206160008201527f6464726573730000000000000000000000000000000000000000000000000000602082015250565b7f4572726f7220696e207769746864726177696e6720746f6b656e7320746f206360008201527f6f6e747261637400000000000000000000000000000000000000000000000000602082015250565b7f596f7520646f206e6f74206861766520616e79207374616b6573000000000000600082015250565b7f4572726f7220696e2073656e64696e6720746f6b656e7320746f207573657200600082015250565b7f4f776e61626c653a2063616c6c6572206973206e6f7420746865206f776e6572600082015250565b7f5265656e7472616e637947756172643a207265656e7472616e742063616c6c00600082015250565b7f596f7520646f206e6f74206861766520656e6f756768207374616b6573000000600082015250565b6113a681611187565b81146113b157600080fd5b50565b6113bd81611199565b81146113c857600080fd5b50565b6113d4816111c5565b81146113df57600080fd5b5056fea264697066735822122083a9d61f4643883025b87d201c225a22752413d6e973d071efb4662013f5333164736f6c63430008060033",
  "immutableReferences": {},
  "source": "//\"SPDX-License-Identifier: MIT\"\npragma solidity 0.8.6;\n\nimport \"@openzeppelin/contracts/token/ERC20/IERC20.sol\";\nimport \"@openzeppelin/contracts/access/Ownable.sol\";\nimport \"@openzeppelin/contracts/security/ReentrancyGuard.sol\";\n\ncontract RCDYStaking is ReentrancyGuard, Ownable {\n\n    IERC20 private rcdy;\n\n    uint public ratePerDay;                      //1000 = 1%\n    uint public totalStakes;\n    uint public constant BLOCKS_PER_DAY = 1 days / 15; //5760;\n\n    struct User {\n        uint stakes;\n        uint checkpoint;\n        uint claimed;\n    }\n\n    mapping(address => User) private users;\n\n    event NewStake(\n        address indexed user,\n        uint amount,\n        uint timestamp\n    );\n\n    event NewUnstake(\n        address indexed user,\n        uint amount,\n        uint timestamp\n    );\n\n    event NewClaim(\n        address indexed user,\n        uint amount\n    );\n\n    constructor(\n        address _rcdy,\n        uint _ratePerDay) {\n        \n        rcdy = IERC20(_rcdy);\n        ratePerDay = _ratePerDay;\n    }\n    \n    function stakeRCDY(\n        uint amount)\n        external returns(bool staked) {\n\n        require(\n            rcdy.transferFrom(\n                msg.sender, \n                address(this), \n                amount\n            ),\n            \"Error in withdrawing tokens to contract\"\n        );\n\n        totalStakes += amount;\n        User storage user = users[msg.sender];\n\n        if (user.checkpoint == 0) user.checkpoint = block.number;\n        else _distribute(msg.sender);\n\n        user.stakes += amount;\n        \n        emit NewStake(\n            msg.sender,\n            amount,\n            block.timestamp\n        );\n\n        return true;\n    }\n\n    function unstakeRCDY(\n        uint amount)\n        external nonReentrant returns(bool unstaked) {\n\n        User storage user = users[msg.sender];\n\n        require(\n            user.stakes >= amount,\n            \"You do not have enough stakes\"\n        );\n\n        if (block.number > user.checkpoint) _distribute(msg.sender);\n        \n        totalStakes -= amount;\n        user.stakes -= amount;\n\n        require(\n            rcdy.transfer(\n                msg.sender, \n                amount\n            ),\n            \"Error in sending tokens to user\"\n        );\n\n        if (user.stakes == 0) user.checkpoint == 0;\n\n        emit NewUnstake(\n            msg.sender,\n            amount,\n            block.timestamp\n        );\n        return true;\n    }\n\n    function claim(\n        ) external returns(bool claimed) {\n\n        require(\n            claimableRewards(msg.sender) >= 0,\n            \"You do not have any stakes\"\n        );\n\n        _distribute(msg.sender);\n        return true;\n    }\n\n    function claimableRewards(\n        address _user)\n        public view returns(uint rewards) {\n\n        User memory user = users[_user];\n\n        uint blocks = block.number - user.checkpoint;\n        rewards = (\n            (blocks * ratePerDay * user.stakes) \n            / (BLOCKS_PER_DAY * 100 * 1000)\n        );\n    }\n\n    function getUserInfo(\n        address _user)\n        external view returns(User memory userInfo) {\n        \n        return users[_user];\n    }\n\n    function _distribute(\n        address _user) \n        private {\n        \n        User storage user = users[_user];\n        \n        uint rewards = claimableRewards(_user);\n\n        if (rewards > 0) {\n            user.checkpoint = block.number;\n            user.claimed += rewards;\n            rcdy.transfer(_user, rewards);\n            emit NewClaim(msg.sender, rewards);\n        }\n    }\n}\n",
  "sourcePath": "/Users/hendobox/Desktop/THE GRIND/Blockchain Dev/gitrepo/RC3-NFT/contracts/RCDYStaking.sol",
  "compiler": {
    "name": "solc",
    "version": "0.8.6+commit.11564f7e.Emscripten.clang"
  },
  "schemaVersion": "3.3.3",
  "updatedAt": "2022-01-03T12:04:07.135Z",
  "devdoc": {
    "kind": "dev",
    "methods": {
      "owner()": {
        "details": "Returns the address of the current owner."
      },
      "renounceOwnership()": {
        "details": "Leaves the contract without owner. It will not be possible to call `onlyOwner` functions anymore. Can only be called by the current owner. NOTE: Renouncing ownership will leave the contract without an owner, thereby removing any functionality that is only available to the owner."
      },
      "transferOwnership(address)": {
        "details": "Transfers ownership of the contract to a new account (`newOwner`). Can only be called by the current owner."
      }
    },
    "version": 1
  },
  "userdoc": {
    "kind": "user",
    "methods": {},
    "version": 1
  }
}