{
  "contractName": "RCDYRouter",
  "abi": [
    {
      "inputs": [
        {
          "internalType": "address",
          "name": "_uniswapV2RouterAddress",
          "type": "address"
        },
        {
          "internalType": "address",
          "name": "_rcdy",
          "type": "address"
        },
        {
          "internalType": "address",
          "name": "_feeCollector",
          "type": "address"
        }
      ],
      "stateMutability": "nonpayable",
      "type": "constructor"
    },
    {
      "anonymous": false,
      "inputs": [
        {
          "indexed": true,
          "internalType": "address",
          "name": "user",
          "type": "address"
        },
        {
          "indexed": false,
          "internalType": "uint256",
          "name": "ethSpent",
          "type": "uint256"
        },
        {
          "indexed": false,
          "internalType": "uint256",
          "name": "tokenReceived",
          "type": "uint256"
        }
      ],
      "name": "EthToTokenSwap",
      "type": "event"
    },
    {
      "anonymous": false,
      "inputs": [
        {
          "indexed": true,
          "internalType": "address",
          "name": "user",
          "type": "address"
        },
        {
          "indexed": false,
          "internalType": "uint256",
          "name": "tokenSpent",
          "type": "uint256"
        },
        {
          "indexed": false,
          "internalType": "uint256",
          "name": "ethReceived",
          "type": "uint256"
        }
      ],
      "name": "TokenToEthSwap",
      "type": "event"
    },
    {
      "anonymous": false,
      "inputs": [
        {
          "indexed": true,
          "internalType": "address",
          "name": "user",
          "type": "address"
        },
        {
          "indexed": false,
          "internalType": "address",
          "name": "tokenA",
          "type": "address"
        },
        {
          "indexed": false,
          "internalType": "address",
          "name": "tokenB",
          "type": "address"
        },
        {
          "indexed": false,
          "internalType": "uint256",
          "name": "tokenSpent",
          "type": "uint256"
        },
        {
          "indexed": false,
          "internalType": "uint256",
          "name": "tokenReceived",
          "type": "uint256"
        }
      ],
      "name": "TokenToTokenSwap",
      "type": "event"
    },
    {
      "inputs": [],
      "name": "feeCollector",
      "outputs": [
        {
          "internalType": "address",
          "name": "",
          "type": "address"
        }
      ],
      "stateMutability": "view",
      "type": "function"
    },
    {
      "inputs": [],
      "name": "swappingFee",
      "outputs": [
        {
          "internalType": "uint256",
          "name": "",
          "type": "uint256"
        }
      ],
      "stateMutability": "view",
      "type": "function"
    },
    {
      "inputs": [
        {
          "internalType": "uint256",
          "name": "_amountOutMin",
          "type": "uint256"
        }
      ],
      "name": "swapETHForRCDY",
      "outputs": [],
      "stateMutability": "payable",
      "type": "function"
    },
    {
      "inputs": [
        {
          "internalType": "address",
          "name": "_tokenIn",
          "type": "address"
        },
        {
          "internalType": "uint256",
          "name": "_amountIn",
          "type": "uint256"
        },
        {
          "internalType": "uint256",
          "name": "_amountOutMin",
          "type": "uint256"
        }
      ],
      "name": "swapTokensForRCDY",
      "outputs": [],
      "stateMutability": "nonpayable",
      "type": "function"
    }
  ],
  "bytecode": "0x60806040523480156200001157600080fd5b506040516200123b3803806200123b833981810160405281019062000037919062000119565b82600160006101000a81548173ffffffffffffffffffffffffffffffffffffffff021916908373ffffffffffffffffffffffffffffffffffffffff160217905550816000806101000a81548173ffffffffffffffffffffffffffffffffffffffff021916908373ffffffffffffffffffffffffffffffffffffffff16021790555080600260006101000a81548173ffffffffffffffffffffffffffffffffffffffff021916908373ffffffffffffffffffffffffffffffffffffffff160217905550505050620001c8565b6000815190506200011381620001ae565b92915050565b600080600060608486031215620001355762000134620001a9565b5b6000620001458682870162000102565b9350506020620001588682870162000102565b92505060406200016b8682870162000102565b9150509250925092565b6000620001828262000189565b9050919050565b600073ffffffffffffffffffffffffffffffffffffffff82169050919050565b600080fd5b620001b98162000175565b8114620001c557600080fd5b50565b61106380620001d86000396000f3fe60806040526004361061003f5760003560e01c80630803b3d71461004457806394d050511461006f578063c415b95c1461008b578063deadd1fb146100b6575b600080fd5b34801561005057600080fd5b506100596100df565b6040516100669190610cec565b60405180910390f35b61008960048036038101906100849190610a74565b6100e5565b005b34801561009757600080fd5b506100a061041b565b6040516100ad9190610bda565b60405180910390f35b3480156100c257600080fd5b506100dd60048036038101906100d891906109ab565b610441565b005b60035481565b60003411610128576040517f08c379a000000000000000000000000000000000000000000000000000000000815260040161011f90610ccc565b60405180910390fd5b6000600267ffffffffffffffff81111561014557610144610f19565b5b6040519080825280602002602001820160405280156101735781602001602082028036833780820191505090505b509050600160009054906101000a900473ffffffffffffffffffffffffffffffffffffffff1673ffffffffffffffffffffffffffffffffffffffff1663ad5c46486040518163ffffffff1660e01b815260040160206040518083038186803b1580156101de57600080fd5b505afa1580156101f2573d6000803e3d6000fd5b505050506040513d601f19601f82011682018060405250810190610216919061097e565b8160008151811061022a57610229610eea565b5b602002602001019073ffffffffffffffffffffffffffffffffffffffff16908173ffffffffffffffffffffffffffffffffffffffff168152505060008054906101000a900473ffffffffffffffffffffffffffffffffffffffff168160018151811061029957610298610eea565b5b602002602001019073ffffffffffffffffffffffffffffffffffffffff16908173ffffffffffffffffffffffffffffffffffffffff16815250506000600160009054906101000a900473ffffffffffffffffffffffffffffffffffffffff1673ffffffffffffffffffffffffffffffffffffffff16637ff36ab534858533426040518663ffffffff1660e01b81526004016103379493929190610d07565b6000604051808303818588803b15801561035057600080fd5b505af1158015610364573d6000803e3d6000fd5b50505050506040513d6000823e3d601f19601f8201168201806040525081019061038e91906109fe565b90503373ffffffffffffffffffffffffffffffffffffffff167f6d4870e9281c01ea54a4420c8684ac713b77f0c590b40c4b1fbf4c6ba892ccea826000815181106103dc576103db610eea565b5b6020026020010151836001815181106103f8576103f7610eea565b5b602002602001015160405161040e929190610d53565b60405180910390a2505050565b600260009054906101000a900473ffffffffffffffffffffffffffffffffffffffff1681565b818373ffffffffffffffffffffffffffffffffffffffff1663dd62ed3e33306040518363ffffffff1660e01b815260040161047d929190610bf5565b60206040518083038186803b15801561049557600080fd5b505afa1580156104a9573d6000803e3d6000fd5b505050506040513d601f19601f820116820180604052508101906104cd9190610aa1565b101561050e576040517f08c379a000000000000000000000000000000000000000000000000000000000815260040161050590610c8c565b60405180910390fd5b8273ffffffffffffffffffffffffffffffffffffffff1663095ea7b3600160009054906101000a900473ffffffffffffffffffffffffffffffffffffffff16846040518363ffffffff1660e01b815260040161056b929190610c63565b602060405180830381600087803b15801561058557600080fd5b505af1158015610599573d6000803e3d6000fd5b505050506040513d601f19601f820116820180604052508101906105bd9190610a47565b6105fc576040517f08c379a00000000000000000000000000000000000000000000000000000000081526004016105f390610cac565b60405180910390fd5b6000600267ffffffffffffffff81111561061957610618610f19565b5b6040519080825280602002602001820160405280156106475781602001602082028036833780820191505090505b509050838160008151811061065f5761065e610eea565b5b602002602001019073ffffffffffffffffffffffffffffffffffffffff16908173ffffffffffffffffffffffffffffffffffffffff168152505060008054906101000a900473ffffffffffffffffffffffffffffffffffffffff16816001815181106106ce576106cd610eea565b5b602002602001019073ffffffffffffffffffffffffffffffffffffffff16908173ffffffffffffffffffffffffffffffffffffffff16815250506000600160009054906101000a900473ffffffffffffffffffffffffffffffffffffffff1673ffffffffffffffffffffffffffffffffffffffff166338ed173985858533426040518663ffffffff1660e01b815260040161076d959493929190610d7c565b600060405180830381600087803b15801561078757600080fd5b505af115801561079b573d6000803e3d6000fd5b505050506040513d6000823e3d601f19601f820116820180604052508101906107c491906109fe565b90503373ffffffffffffffffffffffffffffffffffffffff167f15c82f4e673e9ecb8026aa0a314ff3ea2ca394b291a9f3960edf9e4fa06c17a78660008054906101000a900473ffffffffffffffffffffffffffffffffffffffff168460008151811061083457610833610eea565b5b6020026020010151856001815181106108505761084f610eea565b5b60200260200101516040516108689493929190610c1e565b60405180910390a25050505050565b600061088a61088584610dfb565b610dd6565b905080838252602082019050828560208602820111156108ad576108ac610f4d565b5b60005b858110156108dd57816108c38882610969565b8452602084019350602083019250506001810190506108b0565b5050509392505050565b6000813590506108f681610fe8565b92915050565b60008151905061090b81610fe8565b92915050565b600082601f83011261092657610925610f48565b5b8151610936848260208601610877565b91505092915050565b60008151905061094e81610fff565b92915050565b60008135905061096381611016565b92915050565b60008151905061097881611016565b92915050565b60006020828403121561099457610993610f57565b5b60006109a2848285016108fc565b91505092915050565b6000806000606084860312156109c4576109c3610f57565b5b60006109d2868287016108e7565b93505060206109e386828701610954565b92505060406109f486828701610954565b9150509250925092565b600060208284031215610a1457610a13610f57565b5b600082015167ffffffffffffffff811115610a3257610a31610f52565b5b610a3e84828501610911565b91505092915050565b600060208284031215610a5d57610a5c610f57565b5b6000610a6b8482850161093f565b91505092915050565b600060208284031215610a8a57610a89610f57565b5b6000610a9884828501610954565b91505092915050565b600060208284031215610ab757610ab6610f57565b5b6000610ac584828501610969565b91505092915050565b6000610ada8383610ae6565b60208301905092915050565b610aef81610e71565b82525050565b610afe81610e71565b82525050565b6000610b0f82610e37565b610b198185610e4f565b9350610b2483610e27565b8060005b83811015610b55578151610b3c8882610ace565b9750610b4783610e42565b925050600181019050610b28565b5085935050505092915050565b6000610b6f601583610e60565b9150610b7a82610f6d565b602082019050919050565b6000610b92600e83610e60565b9150610b9d82610f96565b602082019050919050565b6000610bb5601483610e60565b9150610bc082610fbf565b602082019050919050565b610bd481610eaf565b82525050565b6000602082019050610bef6000830184610af5565b92915050565b6000604082019050610c0a6000830185610af5565b610c176020830184610af5565b9392505050565b6000608082019050610c336000830187610af5565b610c406020830186610af5565b610c4d6040830185610bcb565b610c5a6060830184610bcb565b95945050505050565b6000604082019050610c786000830185610af5565b610c856020830184610bcb565b9392505050565b60006020820190508181036000830152610ca581610b62565b9050919050565b60006020820190508181036000830152610cc581610b85565b9050919050565b60006020820190508181036000830152610ce581610ba8565b9050919050565b6000602082019050610d016000830184610bcb565b92915050565b6000608082019050610d1c6000830187610bcb565b8181036020830152610d2e8186610b04565b9050610d3d6040830185610af5565b610d4a6060830184610bcb565b95945050505050565b6000604082019050610d686000830185610bcb565b610d756020830184610bcb565b9392505050565b600060a082019050610d916000830188610bcb565b610d9e6020830187610bcb565b8181036040830152610db08186610b04565b9050610dbf6060830185610af5565b610dcc6080830184610bcb565b9695505050505050565b6000610de0610df1565b9050610dec8282610eb9565b919050565b6000604051905090565b600067ffffffffffffffff821115610e1657610e15610f19565b5b602082029050602081019050919050565b6000819050602082019050919050565b600081519050919050565b6000602082019050919050565b600082825260208201905092915050565b600082825260208201905092915050565b6000610e7c82610e8f565b9050919050565b60008115159050919050565b600073ffffffffffffffffffffffffffffffffffffffff82169050919050565b6000819050919050565b610ec282610f5c565b810181811067ffffffffffffffff82111715610ee157610ee0610f19565b5b80604052505050565b7f4e487b7100000000000000000000000000000000000000000000000000000000600052603260045260246000fd5b7f4e487b7100000000000000000000000000000000000000000000000000000000600052604160045260246000fd5b600080fd5b600080fd5b600080fd5b600080fd5b6000601f19601f8301169050919050565b7f6d75737420617070726f766520636f6e74726163740000000000000000000000600082015250565b7f617070726f7665206661696c6564000000000000000000000000000000000000600082015250565b7f496e73756666696369656e742042616c616e6365000000000000000000000000600082015250565b610ff181610e71565b8114610ffc57600080fd5b50565b61100881610e83565b811461101357600080fd5b50565b61101f81610eaf565b811461102a57600080fd5b5056fea26469706673582212209841e87476e2fd1d34a19ca8d32595a631089740ab8c09c4104d18414e4a628d64736f6c63430008060033",
  "immutableReferences": {},
  "source": "//\"SPDX-License-Identifier: MIT\"\n\npragma solidity 0.8.6;\n\nimport \"@openzeppelin/contracts/token/ERC20/IERC20.sol\";\n\ninterface IUniswapV2Router01 {\n    function WETH() external pure returns (address);\n\n    function swapExactTokensForTokens(\n        uint amountIn,\n        uint amountOutMin,\n        address[] calldata path,\n        address to,\n        uint deadline\n    ) external returns (uint[] memory amounts);\n    \n    function swapExactETHForTokens(\n        uint amountOutMin, \n        address[] calldata path, \n        address to, \n        uint deadline\n    ) external payable returns (uint[] memory amounts);\n    \n    function swapExactTokensForETH(\n        uint amountIn, \n        uint amountOutMin, \n        address[] calldata path, \n        address to, \n        uint deadline\n        ) external returns (uint[] memory amounts);\n}\n\ncontract RCDYRouter {\n    \n    IERC20 internal rcdy;\n    IUniswapV2Router01 private _iUni;\n    \n    address public feeCollector;\n    uint public swappingFee;\n    \n    event EthToTokenSwap(\n        address indexed user, \n        uint ethSpent, \n        uint tokenReceived\n    );\n\n    event TokenToEthSwap(\n        address indexed user, \n        uint tokenSpent, \n        uint ethReceived\n    );\n\n    event TokenToTokenSwap(\n        address indexed user,\n        address tokenA,\n        address tokenB,\n        uint tokenSpent, \n        uint tokenReceived\n    );\n    \n    constructor(\n        address _uniswapV2RouterAddress,\n        address _rcdy,\n        address _feeCollector)  {\n        //0x7a250d5630B4cF539739dF2C5dAcb4c659F2488D ropsten address\n        _iUni = IUniswapV2Router01(_uniswapV2RouterAddress);\n        rcdy = IERC20(_rcdy);\n        feeCollector = _feeCollector;\n    }\n    \n    function swapETHForRCDY(\n        uint _amountOutMin\n        ) external payable {\n        \n        require(\n            msg.value > 0, \n            \"Insufficient Balance\"\n        );\n\n        address[] memory path = new address[](2);\n        path[0] = _iUni.WETH();\n        path[1] = address(rcdy);\n\n        uint[] memory amounts = _iUni.swapExactETHForTokens{ value: msg.value }(\n            _amountOutMin, \n            path, \n            msg.sender, \n            block.timestamp\n        );\n\n        emit EthToTokenSwap(\n            msg.sender, \n            amounts[0], \n            amounts[1]\n        );\n    }\n    \n    function swapTokensForRCDY(\n        address _tokenIn, \n        uint _amountIn, \n        uint _amountOutMin) \n        external {\n\n        require(\n            IERC20(_tokenIn).allowance(\n                msg.sender, \n                address(this) \n            ) >= _amountIn, \n            \"must approve contract\"\n        );\n\n        require(\n            IERC20(_tokenIn).approve(\n                address(_iUni), \n                _amountIn\n            ), \n            \"approve failed\"\n        );\n\n        address[] memory path = new address[](2);\n        path[0] = _tokenIn;\n        path[1] = address(rcdy);\n        \n        uint[] memory amounts = _iUni.swapExactTokensForTokens(\n            _amountIn, \n            _amountOutMin, \n            path, \n            msg.sender, \n            block.timestamp\n        );\n\n        emit TokenToTokenSwap(\n            msg.sender, \n            _tokenIn, \n            address(rcdy), \n            amounts[0], \n            amounts[1]\n        );\n    }\n}\n\n\n",
  "sourcePath": "/Users/hendobox/Desktop/THE GRIND/Blockchain Dev/gitrepo/RC3-NFT/contracts/RCDYRouter.sol",
  "compiler": {
    "name": "solc",
    "version": "0.8.6+commit.11564f7e.Emscripten.clang"
  },
  "schemaVersion": "3.3.3",
  "updatedAt": "2021-11-21T18:16:42.334Z",
  "devdoc": {
    "kind": "dev",
    "methods": {},
    "version": 1
  },
  "userdoc": {
    "kind": "user",
    "methods": {},
    "version": 1
  }
}