{
  "contractName": "RCDYStaking",
  "abi": [
    {
      "inputs": [
        {
          "internalType": "address",
          "name": "_rcdy",
          "type": "address"
        },
        {
          "internalType": "uint256",
          "name": "_ratePerDay",
          "type": "uint256"
        }
      ],
      "stateMutability": "nonpayable",
      "type": "constructor"
    },
    {
      "anonymous": false,
      "inputs": [
        {
          "indexed": true,
          "internalType": "address",
          "name": "user",
          "type": "address"
        },
        {
          "indexed": false,
          "internalType": "uint256",
          "name": "amount",
          "type": "uint256"
        }
      ],
      "name": "NewClaim",
      "type": "event"
    },
    {
      "anonymous": false,
      "inputs": [
        {
          "indexed": true,
          "internalType": "address",
          "name": "user",
          "type": "address"
        },
        {
          "indexed": false,
          "internalType": "uint256",
          "name": "amount",
          "type": "uint256"
        },
        {
          "indexed": false,
          "internalType": "uint256",
          "name": "timestamp",
          "type": "uint256"
        }
      ],
      "name": "NewStake",
      "type": "event"
    },
    {
      "anonymous": false,
      "inputs": [
        {
          "indexed": true,
          "internalType": "address",
          "name": "user",
          "type": "address"
        },
        {
          "indexed": false,
          "internalType": "uint256",
          "name": "amount",
          "type": "uint256"
        },
        {
          "indexed": false,
          "internalType": "uint256",
          "name": "timestamp",
          "type": "uint256"
        }
      ],
      "name": "NewUnstake",
      "type": "event"
    },
    {
      "anonymous": false,
      "inputs": [
        {
          "indexed": true,
          "internalType": "address",
          "name": "previousOwner",
          "type": "address"
        },
        {
          "indexed": true,
          "internalType": "address",
          "name": "newOwner",
          "type": "address"
        }
      ],
      "name": "OwnershipTransferred",
      "type": "event"
    },
    {
      "inputs": [],
      "name": "BLOCKS_PER_DAY",
      "outputs": [
        {
          "internalType": "uint256",
          "name": "",
          "type": "uint256"
        }
      ],
      "stateMutability": "view",
      "type": "function"
    },
    {
      "inputs": [],
      "name": "owner",
      "outputs": [
        {
          "internalType": "address",
          "name": "",
          "type": "address"
        }
      ],
      "stateMutability": "view",
      "type": "function"
    },
    {
      "inputs": [],
      "name": "ratePerDay",
      "outputs": [
        {
          "internalType": "uint256",
          "name": "",
          "type": "uint256"
        }
      ],
      "stateMutability": "view",
      "type": "function"
    },
    {
      "inputs": [],
      "name": "renounceOwnership",
      "outputs": [],
      "stateMutability": "nonpayable",
      "type": "function"
    },
    {
      "inputs": [
        {
          "internalType": "address",
          "name": "newOwner",
          "type": "address"
        }
      ],
      "name": "transferOwnership",
      "outputs": [],
      "stateMutability": "nonpayable",
      "type": "function"
    },
    {
      "inputs": [
        {
          "internalType": "address",
          "name": "",
          "type": "address"
        }
      ],
      "name": "users",
      "outputs": [
        {
          "internalType": "uint256",
          "name": "stakes",
          "type": "uint256"
        },
        {
          "internalType": "uint256",
          "name": "checkpoint",
          "type": "uint256"
        },
        {
          "internalType": "uint256",
          "name": "claimed",
          "type": "uint256"
        }
      ],
      "stateMutability": "view",
      "type": "function"
    },
    {
      "inputs": [
        {
          "internalType": "uint256",
          "name": "amount",
          "type": "uint256"
        }
      ],
      "name": "stakeRCDY",
      "outputs": [
        {
          "internalType": "bool",
          "name": "staked",
          "type": "bool"
        }
      ],
      "stateMutability": "nonpayable",
      "type": "function"
    },
    {
      "inputs": [
        {
          "internalType": "uint256",
          "name": "amount",
          "type": "uint256"
        }
      ],
      "name": "unstakeRCDY",
      "outputs": [
        {
          "internalType": "bool",
          "name": "unstaked",
          "type": "bool"
        }
      ],
      "stateMutability": "nonpayable",
      "type": "function"
    },
    {
      "inputs": [],
      "name": "claim",
      "outputs": [
        {
          "internalType": "bool",
          "name": "success",
          "type": "bool"
        }
      ],
      "stateMutability": "nonpayable",
      "type": "function"
    },
    {
      "inputs": [
        {
          "internalType": "address",
          "name": "_user",
          "type": "address"
        }
      ],
      "name": "claimableRewards",
      "outputs": [
        {
          "internalType": "uint256",
          "name": "rewards",
          "type": "uint256"
        }
      ],
      "stateMutability": "view",
      "type": "function"
    }
  ],
  "bytecode": "0x60806040523480156200001157600080fd5b506040516200158f3803806200158f8339818101604052810190620000379190620001ab565b60016000819055506200005f62000053620000af60201b60201c565b620000b760201b60201c565b81600260006101000a81548173ffffffffffffffffffffffffffffffffffffffff021916908373ffffffffffffffffffffffffffffffffffffffff16021790555080600381905550505062000269565b600033905090565b6000600160009054906101000a900473ffffffffffffffffffffffffffffffffffffffff16905081600160006101000a81548173ffffffffffffffffffffffffffffffffffffffff021916908373ffffffffffffffffffffffffffffffffffffffff1602179055508173ffffffffffffffffffffffffffffffffffffffff168173ffffffffffffffffffffffffffffffffffffffff167f8be0079c531659141344cd1fd0a4f28419497f9722a3daafe3b4186f6b6457e060405160405180910390a35050565b6000815190506200018e8162000235565b92915050565b600081519050620001a5816200024f565b92915050565b60008060408385031215620001c557620001c462000230565b5b6000620001d5858286016200017d565b9250506020620001e88582860162000194565b9150509250929050565b6000620001ff8262000206565b9050919050565b600073ffffffffffffffffffffffffffffffffffffffff82169050919050565b6000819050919050565b600080fd5b6200024081620001f2565b81146200024c57600080fd5b50565b6200025a8162000226565b81146200026657600080fd5b50565b61131680620002796000396000f3fe608060405234801561001057600080fd5b506004361061009e5760003560e01c8063a87430ba11610066578063a87430ba14610125578063d17655a314610157578063dc01f60d14610187578063e7bc9846146101b7578063f2fde38b146101e75761009e565b80634e71d92d146100a35780635cddf0f6146100c15780636bb987fe146100df578063715018a6146100fd5780638da5cb5b14610107575b600080fd5b6100ab610203565b6040516100b89190610de9565b60405180910390f35b6100c9610260565b6040516100d69190610ee4565b60405180910390f35b6100e7610266565b6040516100f49190610ee4565b60405180910390f35b61010561026c565b005b61010f6102f4565b60405161011c9190610d6e565b60405180910390f35b61013f600480360381019061013a9190610bc5565b61031e565b60405161014e93929190610f28565b60405180910390f35b610171600480360381019061016c9190610c1f565b610348565b60405161017e9190610de9565b60405180910390f35b6101a1600480360381019061019c9190610bc5565b610517565b6040516101ae9190610ee4565b60405180910390f35b6101d160048036038101906101cc9190610c1f565b6105e4565b6040516101de9190610de9565b60405180910390f35b61020160048036038101906101fc9190610bc5565b61083f565b005b60008061020f33610517565b1015610250576040517f08c379a000000000000000000000000000000000000000000000000000000000815260040161024790610e44565b60405180910390fd5b61025933610937565b6001905090565b60035481565b61168081565b610274610ab8565b73ffffffffffffffffffffffffffffffffffffffff166102926102f4565b73ffffffffffffffffffffffffffffffffffffffff16146102e8576040517f08c379a00000000000000000000000000000000000000000000000000000000081526004016102df90610e84565b60405180910390fd5b6102f26000610ac0565b565b6000600160009054906101000a900473ffffffffffffffffffffffffffffffffffffffff16905090565b60046020528060005260406000206000915090508060000154908060010154908060020154905083565b6000600260009054906101000a900473ffffffffffffffffffffffffffffffffffffffff1673ffffffffffffffffffffffffffffffffffffffff166323b872dd3330856040518463ffffffff1660e01b81526004016103a993929190610d89565b602060405180830381600087803b1580156103c357600080fd5b505af11580156103d7573d6000803e3d6000fd5b505050506040513d601f19601f820116820180604052508101906103fb9190610bf2565b61043a576040517f08c379a000000000000000000000000000000000000000000000000000000000815260040161043190610e24565b60405180910390fd5b6000600460003373ffffffffffffffffffffffffffffffffffffffff1673ffffffffffffffffffffffffffffffffffffffff1681526020019081526020016000209050600081600101541415610498574381600101819055506104a2565b6104a133610937565b5b828160000160008282546104b69190610f70565b925050819055503373ffffffffffffffffffffffffffffffffffffffff167f55595f34fd936311e65eca0a752ee70068b8992fdf64918aff1b6345689c84e48442604051610505929190610eff565b60405180910390a26001915050919050565b600080600460008473ffffffffffffffffffffffffffffffffffffffff1673ffffffffffffffffffffffffffffffffffffffff1681526020019081526020016000206040518060600160405290816000820154815260200160018201548152602001600282015481525050905060008160200151436105969190611051565b90506103e860646116806105aa9190610ff7565b6105b49190610ff7565b8260000151600354836105c79190610ff7565b6105d19190610ff7565b6105db9190610fc6565b92505050919050565b60006002600054141561062c576040517f08c379a000000000000000000000000000000000000000000000000000000000815260040161062390610ea4565b60405180910390fd5b60026000819055506000600460003373ffffffffffffffffffffffffffffffffffffffff1673ffffffffffffffffffffffffffffffffffffffff168152602001908152602001600020905082816000015410156106be576040517f08c379a00000000000000000000000000000000000000000000000000000000081526004016106b590610ec4565b60405180910390fd5b80600101544311156106d4576106d333610937565b5b828160000160008282546106e89190611051565b92505081905550600260009054906101000a900473ffffffffffffffffffffffffffffffffffffffff1673ffffffffffffffffffffffffffffffffffffffff1663a9059cbb33856040518363ffffffff1660e01b815260040161074c929190610dc0565b602060405180830381600087803b15801561076657600080fd5b505af115801561077a573d6000803e3d6000fd5b505050506040513d601f19601f8201168201806040525081019061079e9190610bf2565b6107dd576040517f08c379a00000000000000000000000000000000000000000000000000000000081526004016107d490610e64565b60405180910390fd5b3373ffffffffffffffffffffffffffffffffffffffff167fd6954c073268a41234627942b1c88cbf53c8bdc07009b12907400074e65d3e9b8442604051610825929190610eff565b60405180910390a260019150506001600081905550919050565b610847610ab8565b73ffffffffffffffffffffffffffffffffffffffff166108656102f4565b73ffffffffffffffffffffffffffffffffffffffff16146108bb576040517f08c379a00000000000000000000000000000000000000000000000000000000081526004016108b290610e84565b60405180910390fd5b600073ffffffffffffffffffffffffffffffffffffffff168173ffffffffffffffffffffffffffffffffffffffff16141561092b576040517f08c379a000000000000000000000000000000000000000000000000000000000815260040161092290610e04565b60405180910390fd5b61093481610ac0565b50565b6000600460008373ffffffffffffffffffffffffffffffffffffffff1673ffffffffffffffffffffffffffffffffffffffff1681526020019081526020016000209050600061098583610517565b90506000811115610ab357438260010181905550808260020160008282546109ad9190610f70565b92505081905550600260009054906101000a900473ffffffffffffffffffffffffffffffffffffffff1673ffffffffffffffffffffffffffffffffffffffff1663a9059cbb84836040518363ffffffff1660e01b8152600401610a11929190610dc0565b602060405180830381600087803b158015610a2b57600080fd5b505af1158015610a3f573d6000803e3d6000fd5b505050506040513d601f19601f82011682018060405250810190610a639190610bf2565b503373ffffffffffffffffffffffffffffffffffffffff167f081144d27d70f1f67f67a65289dde411e1a9511c916d13ee3ff9bf22f169cd9a82604051610aaa9190610ee4565b60405180910390a25b505050565b600033905090565b6000600160009054906101000a900473ffffffffffffffffffffffffffffffffffffffff16905081600160006101000a81548173ffffffffffffffffffffffffffffffffffffffff021916908373ffffffffffffffffffffffffffffffffffffffff1602179055508173ffffffffffffffffffffffffffffffffffffffff168173ffffffffffffffffffffffffffffffffffffffff167f8be0079c531659141344cd1fd0a4f28419497f9722a3daafe3b4186f6b6457e060405160405180910390a35050565b600081359050610b958161129b565b92915050565b600081519050610baa816112b2565b92915050565b600081359050610bbf816112c9565b92915050565b600060208284031215610bdb57610bda61112b565b5b6000610be984828501610b86565b91505092915050565b600060208284031215610c0857610c0761112b565b5b6000610c1684828501610b9b565b91505092915050565b600060208284031215610c3557610c3461112b565b5b6000610c4384828501610bb0565b91505092915050565b610c5581611085565b82525050565b610c6481611097565b82525050565b6000610c77602683610f5f565b9150610c8282611130565b604082019050919050565b6000610c9a602783610f5f565b9150610ca58261117f565b604082019050919050565b6000610cbd601a83610f5f565b9150610cc8826111ce565b602082019050919050565b6000610ce0601f83610f5f565b9150610ceb826111f7565b602082019050919050565b6000610d03602083610f5f565b9150610d0e82611220565b602082019050919050565b6000610d26601f83610f5f565b9150610d3182611249565b602082019050919050565b6000610d49601d83610f5f565b9150610d5482611272565b602082019050919050565b610d68816110c3565b82525050565b6000602082019050610d836000830184610c4c565b92915050565b6000606082019050610d9e6000830186610c4c565b610dab6020830185610c4c565b610db86040830184610d5f565b949350505050565b6000604082019050610dd56000830185610c4c565b610de26020830184610d5f565b9392505050565b6000602082019050610dfe6000830184610c5b565b92915050565b60006020820190508181036000830152610e1d81610c6a565b9050919050565b60006020820190508181036000830152610e3d81610c8d565b9050919050565b60006020820190508181036000830152610e5d81610cb0565b9050919050565b60006020820190508181036000830152610e7d81610cd3565b9050919050565b60006020820190508181036000830152610e9d81610cf6565b9050919050565b60006020820190508181036000830152610ebd81610d19565b9050919050565b60006020820190508181036000830152610edd81610d3c565b9050919050565b6000602082019050610ef96000830184610d5f565b92915050565b6000604082019050610f146000830185610d5f565b610f216020830184610d5f565b9392505050565b6000606082019050610f3d6000830186610d5f565b610f4a6020830185610d5f565b610f576040830184610d5f565b949350505050565b600082825260208201905092915050565b6000610f7b826110c3565b9150610f86836110c3565b9250827fffffffffffffffffffffffffffffffffffffffffffffffffffffffffffffffff03821115610fbb57610fba6110cd565b5b828201905092915050565b6000610fd1826110c3565b9150610fdc836110c3565b925082610fec57610feb6110fc565b5b828204905092915050565b6000611002826110c3565b915061100d836110c3565b9250817fffffffffffffffffffffffffffffffffffffffffffffffffffffffffffffffff0483118215151615611046576110456110cd565b5b828202905092915050565b600061105c826110c3565b9150611067836110c3565b92508282101561107a576110796110cd565b5b828203905092915050565b6000611090826110a3565b9050919050565b60008115159050919050565b600073ffffffffffffffffffffffffffffffffffffffff82169050919050565b6000819050919050565b7f4e487b7100000000000000000000000000000000000000000000000000000000600052601160045260246000fd5b7f4e487b7100000000000000000000000000000000000000000000000000000000600052601260045260246000fd5b600080fd5b7f4f776e61626c653a206e6577206f776e657220697320746865207a65726f206160008201527f6464726573730000000000000000000000000000000000000000000000000000602082015250565b7f4572726f7220696e207769746864726177696e6720746f6b656e7320746f206360008201527f6f6e747261637400000000000000000000000000000000000000000000000000602082015250565b7f596f7520646f206e6f74206861766520616e79207374616b6573000000000000600082015250565b7f4572726f7220696e2073656e64696e6720746f6b656e7320746f207573657200600082015250565b7f4f776e61626c653a2063616c6c6572206973206e6f7420746865206f776e6572600082015250565b7f5265656e7472616e637947756172643a207265656e7472616e742063616c6c00600082015250565b7f596f7520646f206e6f74206861766520656e6f756768207374616b6573000000600082015250565b6112a481611085565b81146112af57600080fd5b50565b6112bb81611097565b81146112c657600080fd5b50565b6112d2816110c3565b81146112dd57600080fd5b5056fea26469706673582212205166d64d0517f0777590c530105e035a1a4754b81e7c1a4d3402f0ff0b710af864736f6c63430008060033",
  "immutableReferences": {},
  "source": "//\"SPDX-License-Identifier: MIT\"\npragma solidity 0.8.6;\n\nimport \"@openzeppelin/contracts/token/ERC20/IERC20.sol\";\nimport \"@openzeppelin/contracts/access/Ownable.sol\";\nimport \"@openzeppelin/contracts/security/ReentrancyGuard.sol\";\n\ncontract RCDYStaking is ReentrancyGuard, Ownable {\n\n    IERC20 private rcdy;\n\n    uint public ratePerDay;                      //1000 = 1%\n    uint public constant BLOCKS_PER_DAY = 5760;\n\n    struct User {\n        uint stakes;\n        uint checkpoint;\n        uint claimed;\n    }\n\n    mapping(address => User) public users;\n\n    event NewStake(\n        address indexed user,\n        uint amount,\n        uint timestamp\n    );\n\n    event NewUnstake(\n        address indexed user,\n        uint amount,\n        uint timestamp\n    );\n\n    event NewClaim(\n        address indexed user,\n        uint amount\n    );\n\n    constructor(\n        address _rcdy,\n        uint _ratePerDay) {\n        \n        rcdy = IERC20(_rcdy);\n        ratePerDay = _ratePerDay;\n    }\n    \n    function stakeRCDY(\n        uint amount)\n        external returns(bool staked) {\n\n        require(\n            rcdy.transferFrom(\n                msg.sender, \n                address(this), \n                amount\n            ),\n            \"Error in withdrawing tokens to contract\"\n        );\n\n        User storage user = users[msg.sender];\n\n        if (user.checkpoint == 0) user.checkpoint = block.number;\n        else _distribute(msg.sender);\n\n        user.stakes += amount;\n        \n        emit NewStake(\n            msg.sender,\n            amount,\n            block.timestamp\n        );\n\n        return true;\n    }\n\n    function unstakeRCDY(\n        uint amount)\n        external nonReentrant returns(bool unstaked) {\n\n        User storage user = users[msg.sender];\n\n        require(\n            user.stakes >= amount,\n            \"You do not have enough stakes\"\n        );\n\n        if (block.number > user.checkpoint) _distribute(msg.sender);\n         \n        user.stakes -= amount;\n\n        require(\n            rcdy.transfer(\n                msg.sender, \n                amount\n            ),\n            \"Error in sending tokens to user\"\n        );\n\n        if (user.stakes == 0) user.checkpoint == 0;\n\n        emit NewUnstake(\n            msg.sender,\n            amount,\n            block.timestamp\n        );\n        return true;\n    }\n\n    function claim(\n        ) external returns(bool success) {\n\n        require(\n            claimableRewards(msg.sender) >= 0,\n            \"You do not have any stakes\"\n        );\n\n        _distribute(msg.sender);\n        return true;\n    }\n\n    function claimableRewards(\n        address _user)\n        public view returns(uint rewards) {\n\n        User memory user = users[_user];\n\n        uint blocks = block.number - user.checkpoint;\n        rewards = (\n            (blocks * ratePerDay * user.stakes) \n            / (BLOCKS_PER_DAY * 100 * 1000)\n        );\n    }\n\n    function _distribute(\n        address _user) \n        private {\n        \n        User storage user = users[_user];\n        \n        (uint rewards) = claimableRewards(_user);\n\n        if (rewards > 0) {\n            user.checkpoint = block.number;\n            user.claimed += rewards;\n            rcdy.transfer(_user, rewards);\n            emit NewClaim(msg.sender, rewards);\n        }\n    }\n}\n",
  "sourcePath": "/Users/hendobox/Desktop/THE GRIND/Blockchain Dev/gitrepo/RC3-NFT/contracts/RCDYStaking.sol",
  "compiler": {
    "name": "solc",
    "version": "0.8.6+commit.11564f7e.Emscripten.clang"
  },
  "schemaVersion": "3.3.3",
  "updatedAt": "2021-11-21T18:11:20.817Z",
  "devdoc": {
    "kind": "dev",
    "methods": {
      "owner()": {
        "details": "Returns the address of the current owner."
      },
      "renounceOwnership()": {
        "details": "Leaves the contract without owner. It will not be possible to call `onlyOwner` functions anymore. Can only be called by the current owner. NOTE: Renouncing ownership will leave the contract without an owner, thereby removing any functionality that is only available to the owner."
      },
      "transferOwnership(address)": {
        "details": "Transfers ownership of the contract to a new account (`newOwner`). Can only be called by the current owner."
      }
    },
    "version": 1
  },
  "userdoc": {
    "kind": "user",
    "methods": {},
    "version": 1
  }
}