{
  "contractName": "RCDYRouter",
  "abi": [
    {
      "inputs": [
        {
          "internalType": "address",
          "name": "_uniswapV2RouterAddress",
          "type": "address"
        },
        {
          "internalType": "address",
          "name": "_rcdy",
          "type": "address"
        },
        {
          "internalType": "uint256",
          "name": "_swapfee",
          "type": "uint256"
        }
      ],
      "stateMutability": "nonpayable",
      "type": "constructor"
    },
    {
      "anonymous": false,
      "inputs": [
        {
          "indexed": true,
          "internalType": "address",
          "name": "receiver",
          "type": "address"
        },
        {
          "indexed": false,
          "internalType": "uint256",
          "name": "amount",
          "type": "uint256"
        }
      ],
      "name": "ClaimedFee",
      "type": "event"
    },
    {
      "anonymous": false,
      "inputs": [
        {
          "indexed": true,
          "internalType": "address",
          "name": "user",
          "type": "address"
        },
        {
          "indexed": false,
          "internalType": "uint256",
          "name": "ethSpent",
          "type": "uint256"
        },
        {
          "indexed": false,
          "internalType": "uint256",
          "name": "tokenReceived",
          "type": "uint256"
        }
      ],
      "name": "EthToTokenSwap",
      "type": "event"
    },
    {
      "anonymous": false,
      "inputs": [
        {
          "indexed": true,
          "internalType": "address",
          "name": "previousOwner",
          "type": "address"
        },
        {
          "indexed": true,
          "internalType": "address",
          "name": "newOwner",
          "type": "address"
        }
      ],
      "name": "OwnershipTransferred",
      "type": "event"
    },
    {
      "anonymous": false,
      "inputs": [
        {
          "indexed": true,
          "internalType": "address",
          "name": "user",
          "type": "address"
        },
        {
          "indexed": false,
          "internalType": "address",
          "name": "tokenA",
          "type": "address"
        },
        {
          "indexed": false,
          "internalType": "address",
          "name": "tokenB",
          "type": "address"
        },
        {
          "indexed": false,
          "internalType": "uint256",
          "name": "tokenSpent",
          "type": "uint256"
        },
        {
          "indexed": false,
          "internalType": "uint256",
          "name": "tokenReceived",
          "type": "uint256"
        }
      ],
      "name": "TokenToTokenSwap",
      "type": "event"
    },
    {
      "inputs": [],
      "name": "claimableFee",
      "outputs": [
        {
          "internalType": "uint256",
          "name": "",
          "type": "uint256"
        }
      ],
      "stateMutability": "view",
      "type": "function"
    },
    {
      "inputs": [],
      "name": "owner",
      "outputs": [
        {
          "internalType": "address",
          "name": "",
          "type": "address"
        }
      ],
      "stateMutability": "view",
      "type": "function"
    },
    {
      "inputs": [],
      "name": "renounceOwnership",
      "outputs": [],
      "stateMutability": "nonpayable",
      "type": "function"
    },
    {
      "inputs": [],
      "name": "swapfee",
      "outputs": [
        {
          "internalType": "uint256",
          "name": "",
          "type": "uint256"
        }
      ],
      "stateMutability": "view",
      "type": "function"
    },
    {
      "inputs": [
        {
          "internalType": "address",
          "name": "newOwner",
          "type": "address"
        }
      ],
      "name": "transferOwnership",
      "outputs": [],
      "stateMutability": "nonpayable",
      "type": "function"
    },
    {
      "inputs": [
        {
          "internalType": "address",
          "name": "_token",
          "type": "address"
        },
        {
          "internalType": "address",
          "name": "_user",
          "type": "address"
        }
      ],
      "name": "checkTokenBalance",
      "outputs": [
        {
          "internalType": "uint256",
          "name": "balance",
          "type": "uint256"
        }
      ],
      "stateMutability": "view",
      "type": "function"
    },
    {
      "inputs": [
        {
          "internalType": "address",
          "name": "_user",
          "type": "address"
        }
      ],
      "name": "checkEthBalance",
      "outputs": [
        {
          "internalType": "uint256",
          "name": "balance",
          "type": "uint256"
        }
      ],
      "stateMutability": "view",
      "type": "function"
    },
    {
      "inputs": [
        {
          "internalType": "uint256",
          "name": "_amountOutMin",
          "type": "uint256"
        }
      ],
      "name": "swapETHForRCDY",
      "outputs": [],
      "stateMutability": "payable",
      "type": "function"
    },
    {
      "inputs": [
        {
          "internalType": "address",
          "name": "_tokenIn",
          "type": "address"
        },
        {
          "internalType": "uint256",
          "name": "_amountIn",
          "type": "uint256"
        },
        {
          "internalType": "uint256",
          "name": "_amountOutMin",
          "type": "uint256"
        }
      ],
      "name": "swapTokensForRCDY",
      "outputs": [],
      "stateMutability": "nonpayable",
      "type": "function"
    },
    {
      "inputs": [
        {
          "internalType": "address",
          "name": "_receiver",
          "type": "address"
        },
        {
          "internalType": "uint256",
          "name": "_amount",
          "type": "uint256"
        }
      ],
      "name": "claimFee",
      "outputs": [
        {
          "internalType": "bool",
          "name": "success",
          "type": "bool"
        }
      ],
      "stateMutability": "nonpayable",
      "type": "function"
    }
  ],
  "bytecode": "0x60806040523480156200001157600080fd5b5060405162002058380380620020588339818101604052810190620000379190620001e3565b620000576200004b620000e960201b60201c565b620000f160201b60201c565b82600260006101000a81548173ffffffffffffffffffffffffffffffffffffffff021916908373ffffffffffffffffffffffffffffffffffffffff16021790555081600160006101000a81548173ffffffffffffffffffffffffffffffffffffffff021916908373ffffffffffffffffffffffffffffffffffffffff16021790555080600381905550505050620002b6565b600033905090565b60008060009054906101000a900473ffffffffffffffffffffffffffffffffffffffff169050816000806101000a81548173ffffffffffffffffffffffffffffffffffffffff021916908373ffffffffffffffffffffffffffffffffffffffff1602179055508173ffffffffffffffffffffffffffffffffffffffff168173ffffffffffffffffffffffffffffffffffffffff167f8be0079c531659141344cd1fd0a4f28419497f9722a3daafe3b4186f6b6457e060405160405180910390a35050565b600081519050620001c68162000282565b92915050565b600081519050620001dd816200029c565b92915050565b600080600060608486031215620001ff57620001fe6200027d565b5b60006200020f86828701620001b5565b93505060206200022286828701620001b5565b92505060406200023586828701620001cc565b9150509250925092565b60006200024c8262000253565b9050919050565b600073ffffffffffffffffffffffffffffffffffffffff82169050919050565b6000819050919050565b600080fd5b6200028d816200023f565b81146200029957600080fd5b50565b620002a78162000273565b8114620002b357600080fd5b50565b611d9280620002c66000396000f3fe6080604052600436106100915760003560e01c806394d050511161005957806394d050511461016b5780639a9a5cdb14610187578063dda40797146101c4578063deadd1fb14610201578063f2fde38b1461022a57610091565b80630784e3501461009657806334f91499146100c1578063715018a6146100fe578063719d41f4146101155780638da5cb5b14610140575b600080fd5b3480156100a257600080fd5b506100ab610253565b6040516100b891906117de565b60405180910390f35b3480156100cd57600080fd5b506100e860048036038101906100e391906112e7565b610259565b6040516100f591906117de565b60405180910390f35b34801561010a57600080fd5b506101136102ec565b005b34801561012157600080fd5b5061012a610374565b60405161013791906117de565b60405180910390f35b34801561014c57600080fd5b5061015561037a565b6040516101629190611631565b60405180910390f35b61018560048036038101906101809190611430565b6103a3565b005b34801561019357600080fd5b506101ae60048036038101906101a9919061128d565b610810565b6040516101bb91906117de565b60405180910390f35b3480156101d057600080fd5b506101eb60048036038101906101e69190611327565b610831565b6040516101f891906116e3565b60405180910390f35b34801561020d57600080fd5b5061022860048036038101906102239190611367565b610a53565b005b34801561023657600080fd5b50610251600480360381019061024c919061128d565b610fc2565b005b60035481565b60008273ffffffffffffffffffffffffffffffffffffffff166370a08231836040518263ffffffff1660e01b81526004016102949190611631565b60206040518083038186803b1580156102ac57600080fd5b505afa1580156102c0573d6000803e3d6000fd5b505050506040513d601f19601f820116820180604052508101906102e4919061145d565b905092915050565b6102f46110ba565b73ffffffffffffffffffffffffffffffffffffffff1661031261037a565b73ffffffffffffffffffffffffffffffffffffffff1614610368576040517f08c379a000000000000000000000000000000000000000000000000000000000815260040161035f9061175e565b60405180910390fd5b61037260006110c2565b565b60045481565b60008060009054906101000a900473ffffffffffffffffffffffffffffffffffffffff16905090565b600034116103e6576040517f08c379a00000000000000000000000000000000000000000000000000000000081526004016103dd9061177e565b60405180910390fd5b6000600267ffffffffffffffff81111561040357610402611b7e565b5b6040519080825280602002602001820160405280156104315781602001602082028036833780820191505090505b509050600260009054906101000a900473ffffffffffffffffffffffffffffffffffffffff1673ffffffffffffffffffffffffffffffffffffffff1663ad5c46486040518163ffffffff1660e01b815260040160206040518083038186803b15801561049c57600080fd5b505afa1580156104b0573d6000803e3d6000fd5b505050506040513d601f19601f820116820180604052508101906104d491906112ba565b816000815181106104e8576104e7611b4f565b5b602002602001019073ffffffffffffffffffffffffffffffffffffffff16908173ffffffffffffffffffffffffffffffffffffffff1681525050600160009054906101000a900473ffffffffffffffffffffffffffffffffffffffff168160018151811061055957610558611b4f565b5b602002602001019073ffffffffffffffffffffffffffffffffffffffff16908173ffffffffffffffffffffffffffffffffffffffff16815250506000600260009054906101000a900473ffffffffffffffffffffffffffffffffffffffff1673ffffffffffffffffffffffffffffffffffffffff16637ff36ab534858530426040518663ffffffff1660e01b81526004016105f794939291906117f9565b6000604051808303818588803b15801561061057600080fd5b505af1158015610624573d6000803e3d6000fd5b50505050506040513d6000823e3d601f19601f8201168201806040525081019061064e91906113ba565b905060006127108260018151811061066957610668611b4f565b5b602002602001015160035461067e91906119ea565b61068891906119b9565b9050600160009054906101000a900473ffffffffffffffffffffffffffffffffffffffff1673ffffffffffffffffffffffffffffffffffffffff1663a9059cbb3383856001815181106106de576106dd611b4f565b5b60200260200101516106f09190611a44565b6040518363ffffffff1660e01b815260040161070d9291906116ba565b602060405180830381600087803b15801561072757600080fd5b505af115801561073b573d6000803e3d6000fd5b505050506040513d601f19601f8201168201806040525081019061075f9190611403565b5080600460008282546107729190611963565b925050819055503373ffffffffffffffffffffffffffffffffffffffff167f6d4870e9281c01ea54a4420c8684ac713b77f0c590b40c4b1fbf4c6ba892ccea836000815181106107c5576107c4611b4f565b5b602002602001015183856001815181106107e2576107e1611b4f565b5b60200260200101516107f49190611a44565b604051610802929190611845565b60405180910390a250505050565b60008173ffffffffffffffffffffffffffffffffffffffff16319050919050565b600061083b6110ba565b73ffffffffffffffffffffffffffffffffffffffff1661085961037a565b73ffffffffffffffffffffffffffffffffffffffff16146108af576040517f08c379a00000000000000000000000000000000000000000000000000000000081526004016108a69061175e565b60405180910390fd5b6004548211156108f4576040517f08c379a00000000000000000000000000000000000000000000000000000000081526004016108eb906117be565b60405180910390fd5b81600460008282546109069190611a44565b92505081905550600160009054906101000a900473ffffffffffffffffffffffffffffffffffffffff1673ffffffffffffffffffffffffffffffffffffffff1663a9059cbb84846040518363ffffffff1660e01b815260040161096a9291906116ba565b602060405180830381600087803b15801561098457600080fd5b505af1158015610998573d6000803e3d6000fd5b505050506040513d601f19601f820116820180604052508101906109bc9190611403565b6109fb576040517f08c379a00000000000000000000000000000000000000000000000000000000081526004016109f29061171e565b60405180910390fd5b8273ffffffffffffffffffffffffffffffffffffffff167f09ee811ed78195b9f7dde27d29bdfb9fc6f9eba3032a585b0f20dbf927ba032a83604051610a4191906117de565b60405180910390a26001905092915050565b818373ffffffffffffffffffffffffffffffffffffffff1663dd62ed3e33306040518363ffffffff1660e01b8152600401610a8f92919061164c565b60206040518083038186803b158015610aa757600080fd5b505afa158015610abb573d6000803e3d6000fd5b505050506040513d601f19601f82011682018060405250810190610adf919061145d565b1015610b20576040517f08c379a0000000000000000000000000000000000000000000000000000000008152600401610b179061179e565b60405180910390fd5b8273ffffffffffffffffffffffffffffffffffffffff1663095ea7b3600260009054906101000a900473ffffffffffffffffffffffffffffffffffffffff16846040518363ffffffff1660e01b8152600401610b7d9291906116ba565b602060405180830381600087803b158015610b9757600080fd5b505af1158015610bab573d6000803e3d6000fd5b505050506040513d601f19601f82011682018060405250810190610bcf9190611403565b610c0e576040517f08c379a0000000000000000000000000000000000000000000000000000000008152600401610c059061173e565b60405180910390fd5b6000600267ffffffffffffffff811115610c2b57610c2a611b7e565b5b604051908082528060200260200182016040528015610c595781602001602082028036833780820191505090505b5090508381600081518110610c7157610c70611b4f565b5b602002602001019073ffffffffffffffffffffffffffffffffffffffff16908173ffffffffffffffffffffffffffffffffffffffff1681525050600160009054906101000a900473ffffffffffffffffffffffffffffffffffffffff1681600181518110610ce257610ce1611b4f565b5b602002602001019073ffffffffffffffffffffffffffffffffffffffff16908173ffffffffffffffffffffffffffffffffffffffff16815250506000600260009054906101000a900473ffffffffffffffffffffffffffffffffffffffff1673ffffffffffffffffffffffffffffffffffffffff166338ed173985858530426040518663ffffffff1660e01b8152600401610d8195949392919061186e565b600060405180830381600087803b158015610d9b57600080fd5b505af1158015610daf573d6000803e3d6000fd5b505050506040513d6000823e3d601f19601f82011682018060405250810190610dd891906113ba565b9050600061271082600181518110610df357610df2611b4f565b5b6020026020010151600354610e0891906119ea565b610e1291906119b9565b9050600160009054906101000a900473ffffffffffffffffffffffffffffffffffffffff1673ffffffffffffffffffffffffffffffffffffffff1663a9059cbb338385600181518110610e6857610e67611b4f565b5b6020026020010151610e7a9190611a44565b6040518363ffffffff1660e01b8152600401610e979291906116ba565b602060405180830381600087803b158015610eb157600080fd5b505af1158015610ec5573d6000803e3d6000fd5b505050506040513d601f19601f82011682018060405250810190610ee99190611403565b508060046000828254610efc9190611963565b925050819055503373ffffffffffffffffffffffffffffffffffffffff167f15c82f4e673e9ecb8026aa0a314ff3ea2ca394b291a9f3960edf9e4fa06c17a787600160009054906101000a900473ffffffffffffffffffffffffffffffffffffffff1685600081518110610f7357610f72611b4f565b5b60200260200101518587600181518110610f9057610f8f611b4f565b5b6020026020010151610fa29190611a44565b604051610fb29493929190611675565b60405180910390a2505050505050565b610fca6110ba565b73ffffffffffffffffffffffffffffffffffffffff16610fe861037a565b73ffffffffffffffffffffffffffffffffffffffff161461103e576040517f08c379a00000000000000000000000000000000000000000000000000000000081526004016110359061175e565b60405180910390fd5b600073ffffffffffffffffffffffffffffffffffffffff168173ffffffffffffffffffffffffffffffffffffffff1614156110ae576040517f08c379a00000000000000000000000000000000000000000000000000000000081526004016110a5906116fe565b60405180910390fd5b6110b7816110c2565b50565b600033905090565b60008060009054906101000a900473ffffffffffffffffffffffffffffffffffffffff169050816000806101000a81548173ffffffffffffffffffffffffffffffffffffffff021916908373ffffffffffffffffffffffffffffffffffffffff1602179055508173ffffffffffffffffffffffffffffffffffffffff168173ffffffffffffffffffffffffffffffffffffffff167f8be0079c531659141344cd1fd0a4f28419497f9722a3daafe3b4186f6b6457e060405160405180910390a35050565b6000611199611194846118ed565b6118c8565b905080838252602082019050828560208602820111156111bc576111bb611bb2565b5b60005b858110156111ec57816111d28882611278565b8452602084019350602083019250506001810190506111bf565b5050509392505050565b60008135905061120581611d17565b92915050565b60008151905061121a81611d17565b92915050565b600082601f83011261123557611234611bad565b5b8151611245848260208601611186565b91505092915050565b60008151905061125d81611d2e565b92915050565b60008135905061127281611d45565b92915050565b60008151905061128781611d45565b92915050565b6000602082840312156112a3576112a2611bbc565b5b60006112b1848285016111f6565b91505092915050565b6000602082840312156112d0576112cf611bbc565b5b60006112de8482850161120b565b91505092915050565b600080604083850312156112fe576112fd611bbc565b5b600061130c858286016111f6565b925050602061131d858286016111f6565b9150509250929050565b6000806040838503121561133e5761133d611bbc565b5b600061134c858286016111f6565b925050602061135d85828601611263565b9150509250929050565b6000806000606084860312156113805761137f611bbc565b5b600061138e868287016111f6565b935050602061139f86828701611263565b92505060406113b086828701611263565b9150509250925092565b6000602082840312156113d0576113cf611bbc565b5b600082015167ffffffffffffffff8111156113ee576113ed611bb7565b5b6113fa84828501611220565b91505092915050565b60006020828403121561141957611418611bbc565b5b60006114278482850161124e565b91505092915050565b60006020828403121561144657611445611bbc565b5b600061145484828501611263565b91505092915050565b60006020828403121561147357611472611bbc565b5b600061148184828501611278565b91505092915050565b600061149683836114a2565b60208301905092915050565b6114ab81611a78565b82525050565b6114ba81611a78565b82525050565b60006114cb82611929565b6114d58185611941565b93506114e083611919565b8060005b838110156115115781516114f8888261148a565b975061150383611934565b9250506001810190506114e4565b5085935050505092915050565b61152781611a8a565b82525050565b600061153a602683611952565b915061154582611bd2565b604082019050919050565b600061155d601783611952565b915061156882611c21565b602082019050919050565b6000611580600f83611952565b915061158b82611c4a565b602082019050919050565b60006115a3602083611952565b91506115ae82611c73565b602082019050919050565b60006115c6601483611952565b91506115d182611c9c565b602082019050919050565b60006115e9601583611952565b91506115f482611cc5565b602082019050919050565b600061160c601483611952565b915061161782611cee565b602082019050919050565b61162b81611ab6565b82525050565b600060208201905061164660008301846114b1565b92915050565b600060408201905061166160008301856114b1565b61166e60208301846114b1565b9392505050565b600060808201905061168a60008301876114b1565b61169760208301866114b1565b6116a46040830185611622565b6116b16060830184611622565b95945050505050565b60006040820190506116cf60008301856114b1565b6116dc6020830184611622565b9392505050565b60006020820190506116f8600083018461151e565b92915050565b600060208201905081810360008301526117178161152d565b9050919050565b6000602082019050818103600083015261173781611550565b9050919050565b6000602082019050818103600083015261175781611573565b9050919050565b6000602082019050818103600083015261177781611596565b9050919050565b60006020820190508181036000830152611797816115b9565b9050919050565b600060208201905081810360008301526117b7816115dc565b9050919050565b600060208201905081810360008301526117d7816115ff565b9050919050565b60006020820190506117f36000830184611622565b92915050565b600060808201905061180e6000830187611622565b818103602083015261182081866114c0565b905061182f60408301856114b1565b61183c6060830184611622565b95945050505050565b600060408201905061185a6000830185611622565b6118676020830184611622565b9392505050565b600060a0820190506118836000830188611622565b6118906020830187611622565b81810360408301526118a281866114c0565b90506118b160608301856114b1565b6118be6080830184611622565b9695505050505050565b60006118d26118e3565b90506118de8282611ac0565b919050565b6000604051905090565b600067ffffffffffffffff82111561190857611907611b7e565b5b602082029050602081019050919050565b6000819050602082019050919050565b600081519050919050565b6000602082019050919050565b600082825260208201905092915050565b600082825260208201905092915050565b600061196e82611ab6565b915061197983611ab6565b9250827fffffffffffffffffffffffffffffffffffffffffffffffffffffffffffffffff038211156119ae576119ad611af1565b5b828201905092915050565b60006119c482611ab6565b91506119cf83611ab6565b9250826119df576119de611b20565b5b828204905092915050565b60006119f582611ab6565b9150611a0083611ab6565b9250817fffffffffffffffffffffffffffffffffffffffffffffffffffffffffffffffff0483118215151615611a3957611a38611af1565b5b828202905092915050565b6000611a4f82611ab6565b9150611a5a83611ab6565b925082821015611a6d57611a6c611af1565b5b828203905092915050565b6000611a8382611a96565b9050919050565b60008115159050919050565b600073ffffffffffffffffffffffffffffffffffffffff82169050919050565b6000819050919050565b611ac982611bc1565b810181811067ffffffffffffffff82111715611ae857611ae7611b7e565b5b80604052505050565b7f4e487b7100000000000000000000000000000000000000000000000000000000600052601160045260246000fd5b7f4e487b7100000000000000000000000000000000000000000000000000000000600052601260045260246000fd5b7f4e487b7100000000000000000000000000000000000000000000000000000000600052603260045260246000fd5b7f4e487b7100000000000000000000000000000000000000000000000000000000600052604160045260246000fd5b600080fd5b600080fd5b600080fd5b600080fd5b6000601f19601f8301169050919050565b7f4f776e61626c653a206e6577206f776e657220697320746865207a65726f206160008201527f6464726573730000000000000000000000000000000000000000000000000000602082015250565b7f4572726f7220696e2073656e64696e6720746f6b656e73000000000000000000600082015250565b7f417070726f76616c206661696c65640000000000000000000000000000000000600082015250565b7f4f776e61626c653a2063616c6c6572206973206e6f7420746865206f776e6572600082015250565b7f496e73756666696369656e742042616c616e6365000000000000000000000000600082015250565b7f4d75737420617070726f766520636f6e74726163740000000000000000000000600082015250565b7f4e6f7420656e6f75676820617661696c61626c65000000000000000000000000600082015250565b611d2081611a78565b8114611d2b57600080fd5b50565b611d3781611a8a565b8114611d4257600080fd5b50565b611d4e81611ab6565b8114611d5957600080fd5b5056fea2646970667358221220a4b20575e7b0c1d44b6b8dc402fd74205de0b5ea4a8068c14fea4dbb6e48ee4064736f6c63430008060033",
  "immutableReferences": {},
  "source": "//\"SPDX-License-Identifier: MIT\"\n\npragma solidity 0.8.6;\n\nimport \"@openzeppelin/contracts/token/ERC20/IERC20.sol\";\nimport \"@openzeppelin/contracts/access/Ownable.sol\";\n\ninterface IUniswapV2Router01 {\n    function WETH() external pure returns (address);\n\n    function swapExactTokensForTokens(\n        uint256 amountIn,\n        uint256 amountOutMin,\n        address[] calldata path,\n        address to,\n        uint256 deadline\n    ) external returns (uint256[] memory amounts);\n\n    function swapExactETHForTokens(\n        uint256 amountOutMin,\n        address[] calldata path,\n        address to,\n        uint256 deadline\n    ) external payable returns (uint256[] memory amounts);\n\n    function swapExactTokensForETH(\n        uint256 amountIn,\n        uint256 amountOutMin,\n        address[] calldata path,\n        address to,\n        uint256 deadline\n    ) external returns (uint256[] memory amounts);\n}\n\ncontract RCDYRouter is Ownable {\n    IERC20 internal rcdy;\n    IUniswapV2Router01 private _iUni;\n\n    uint256 public swapfee; //100 = 1%\n    uint256 public claimableFee;\n\n    event EthToTokenSwap(\n        address indexed user,\n        uint256 ethSpent,\n        uint256 tokenReceived\n    );\n\n    event ClaimedFee(address indexed receiver, uint256 amount);\n\n    event TokenToTokenSwap(\n        address indexed user,\n        address tokenA,\n        address tokenB,\n        uint256 tokenSpent,\n        uint256 tokenReceived\n    );\n\n    constructor(\n        address _uniswapV2RouterAddress,\n        address _rcdy,\n        uint256 _swapfee\n    ) {\n        //0x7a250d5630B4cF539739dF2C5dAcb4c659F2488D ropsten address\n        _iUni = IUniswapV2Router01(_uniswapV2RouterAddress);\n        rcdy = IERC20(_rcdy);\n        swapfee = _swapfee;\n    }\n\n    function checkTokenBalance(address _token, address _user)\n        external\n        view\n        returns (uint256 balance)\n    {\n        balance = IERC20(_token).balanceOf(_user);\n    }\n\n    function checkEthBalance(address _user)\n        external\n        view\n        returns (uint256 balance)\n    {\n        balance = _user.balance;\n    }\n\n    function swapETHForRCDY(uint256 _amountOutMin) external payable {\n        require(msg.value > 0, \"Insufficient Balance\");\n\n        address[] memory path = new address[](2);\n        path[0] = _iUni.WETH();\n        path[1] = address(rcdy);\n\n        uint256[] memory amounts = _iUni.swapExactETHForTokens{\n            value: msg.value\n        }(_amountOutMin, path, address(this), block.timestamp);\n\n        uint256 fee = (swapfee * amounts[1]) / 10000;\n        rcdy.transfer(msg.sender, amounts[1] - fee);\n        claimableFee += fee;\n\n        emit EthToTokenSwap(msg.sender, amounts[0], amounts[1] - fee);\n    }\n\n    function swapTokensForRCDY(\n        address _tokenIn,\n        uint256 _amountIn,\n        uint256 _amountOutMin\n    ) external {\n        require(\n            IERC20(_tokenIn).allowance(msg.sender, address(this)) >= _amountIn,\n            \"Must approve contract\"\n        );\n\n        require(\n            IERC20(_tokenIn).approve(address(_iUni), _amountIn),\n            \"Approval failed\"\n        );\n\n        address[] memory path = new address[](2);\n        path[0] = _tokenIn;\n        path[1] = address(rcdy);\n\n        uint256[] memory amounts = _iUni.swapExactTokensForTokens(\n            _amountIn,\n            _amountOutMin,\n            path,\n            address(this),\n            block.timestamp\n        );\n\n        uint256 fee = (swapfee * amounts[1]) / 10000;\n        rcdy.transfer(msg.sender, amounts[1] - fee);\n        claimableFee += fee;\n\n        emit TokenToTokenSwap(\n            msg.sender,\n            _tokenIn,\n            address(rcdy),\n            amounts[0],\n            amounts[1] - fee\n        );\n    }\n\n    function claimFee(address _receiver, uint256 _amount)\n        external\n        onlyOwner\n        returns (bool success)\n    {\n        require(_amount <= claimableFee, \"Not enough available\");\n\n        claimableFee -= _amount;\n        require(rcdy.transfer(_receiver, _amount), \"Error in sending tokens\");\n\n        emit ClaimedFee(_receiver, _amount);\n\n        return true;\n    }\n}\n",
  "sourcePath": "/Users/raneetdebnath/Desktop/RC3-NFT/contracts/RCDYRouter.sol",
  "compiler": {
    "name": "solc",
    "version": "0.8.6+commit.11564f7e.Emscripten.clang"
  },
  "schemaVersion": "3.4.1",
  "updatedAt": "2022-01-12T09:57:43.608Z",
  "devdoc": {
    "kind": "dev",
    "methods": {
      "owner()": {
        "details": "Returns the address of the current owner."
      },
      "renounceOwnership()": {
        "details": "Leaves the contract without owner. It will not be possible to call `onlyOwner` functions anymore. Can only be called by the current owner. NOTE: Renouncing ownership will leave the contract without an owner, thereby removing any functionality that is only available to the owner."
      },
      "transferOwnership(address)": {
        "details": "Transfers ownership of the contract to a new account (`newOwner`). Can only be called by the current owner."
      }
    },
    "version": 1
  },
  "userdoc": {
    "kind": "user",
    "methods": {},
    "version": 1
  }
}