{
  "_format": "hh-sol-artifact-1",
  "contractName": "RC3Auction",
  "sourceName": "contracts/RC3Auction.sol",
  "abi": [
    {
      "inputs": [
        {
          "internalType": "address",
          "name": "_rc3",
          "type": "address"
        },
        {
          "internalType": "address",
          "name": "_feeReceipient",
          "type": "address"
        },
        {
          "internalType": "uint256",
          "name": "_fee",
          "type": "uint256"
        }
      ],
      "stateMutability": "nonpayable",
      "type": "constructor"
    },
    {
      "anonymous": false,
      "inputs": [
        {
          "indexed": true,
          "internalType": "uint256",
          "name": "tokenID",
          "type": "uint256"
        }
      ],
      "name": "AuctionCancelled",
      "type": "event"
    },
    {
      "anonymous": false,
      "inputs": [
        {
          "indexed": true,
          "internalType": "address",
          "name": "highestBidder",
          "type": "address"
        },
        {
          "indexed": true,
          "internalType": "uint256",
          "name": "tokenId",
          "type": "uint256"
        },
        {
          "indexed": false,
          "internalType": "uint256",
          "name": "highestBidAmount",
          "type": "uint256"
        }
      ],
      "name": "AuctionResulted",
      "type": "event"
    },
    {
      "anonymous": false,
      "inputs": [
        {
          "indexed": true,
          "internalType": "uint256",
          "name": "_tokenId",
          "type": "uint256"
        },
        {
          "indexed": false,
          "internalType": "uint256",
          "name": "newEndPeriod",
          "type": "uint256"
        }
      ],
      "name": "AuctionUpdated",
      "type": "event"
    },
    {
      "anonymous": false,
      "inputs": [
        {
          "indexed": true,
          "internalType": "address",
          "name": "creator",
          "type": "address"
        },
        {
          "indexed": true,
          "internalType": "uint256",
          "name": "tokenId",
          "type": "uint256"
        },
        {
          "indexed": false,
          "internalType": "uint256",
          "name": "newEndTime",
          "type": "uint256"
        }
      ],
      "name": "EndTimeUpdated",
      "type": "event"
    },
    {
      "anonymous": false,
      "inputs": [
        {
          "indexed": true,
          "internalType": "address",
          "name": "sender",
          "type": "address"
        },
        {
          "indexed": false,
          "internalType": "uint256",
          "name": "feePercentage",
          "type": "uint256"
        }
      ],
      "name": "FeePercentageSet",
      "type": "event"
    },
    {
      "anonymous": false,
      "inputs": [
        {
          "indexed": true,
          "internalType": "address",
          "name": "sender",
          "type": "address"
        },
        {
          "indexed": false,
          "internalType": "address",
          "name": "feeReceipient",
          "type": "address"
        }
      ],
      "name": "FeeReceipientSet",
      "type": "event"
    },
    {
      "anonymous": false,
      "inputs": [
        {
          "indexed": true,
          "internalType": "uint256",
          "name": "tokenId",
          "type": "uint256"
        },
        {
          "indexed": false,
          "internalType": "uint256",
          "name": "price",
          "type": "uint256"
        },
        {
          "indexed": false,
          "internalType": "uint256",
          "name": "startPeriod",
          "type": "uint256"
        },
        {
          "indexed": false,
          "internalType": "uint256",
          "name": "endPeriod",
          "type": "uint256"
        },
        {
          "indexed": true,
          "internalType": "address",
          "name": "seller",
          "type": "address"
        }
      ],
      "name": "NewAuction",
      "type": "event"
    },
    {
      "anonymous": false,
      "inputs": [
        {
          "indexed": true,
          "internalType": "address",
          "name": "bidder",
          "type": "address"
        },
        {
          "indexed": true,
          "internalType": "uint256",
          "name": "tokenId",
          "type": "uint256"
        },
        {
          "indexed": false,
          "internalType": "uint256",
          "name": "price",
          "type": "uint256"
        }
      ],
      "name": "NewBid",
      "type": "event"
    },
    {
      "anonymous": false,
      "inputs": [
        {
          "indexed": true,
          "internalType": "address",
          "name": "previousOwner",
          "type": "address"
        },
        {
          "indexed": true,
          "internalType": "address",
          "name": "newOwner",
          "type": "address"
        }
      ],
      "name": "OwnershipTransferred",
      "type": "event"
    },
    {
      "inputs": [
        {
          "internalType": "uint256",
          "name": "_tokenId",
          "type": "uint256"
        },
        {
          "internalType": "uint256",
          "name": "_bidAmount",
          "type": "uint256"
        }
      ],
      "name": "bid",
      "outputs": [
        {
          "internalType": "bool",
          "name": "bidded",
          "type": "bool"
        }
      ],
      "stateMutability": "nonpayable",
      "type": "function"
    },
    {
      "inputs": [
        {
          "internalType": "uint256",
          "name": "_tokenId",
          "type": "uint256"
        }
      ],
      "name": "bidTimeRemaining",
      "outputs": [
        {
          "internalType": "uint256",
          "name": "startsIn",
          "type": "uint256"
        },
        {
          "internalType": "uint256",
          "name": "endsIn",
          "type": "uint256"
        }
      ],
      "stateMutability": "view",
      "type": "function"
    },
    {
      "inputs": [
        {
          "internalType": "uint256",
          "name": "_tokenId",
          "type": "uint256"
        }
      ],
      "name": "closeBid",
      "outputs": [
        {
          "internalType": "bool",
          "name": "closed",
          "type": "bool"
        }
      ],
      "stateMutability": "nonpayable",
      "type": "function"
    },
    {
      "inputs": [],
      "name": "feePercentage",
      "outputs": [
        {
          "internalType": "uint256",
          "name": "",
          "type": "uint256"
        }
      ],
      "stateMutability": "view",
      "type": "function"
    },
    {
      "inputs": [],
      "name": "feeReceipient",
      "outputs": [
        {
          "internalType": "address",
          "name": "",
          "type": "address"
        }
      ],
      "stateMutability": "view",
      "type": "function"
    },
    {
      "inputs": [
        {
          "internalType": "uint256",
          "name": "_tokenId",
          "type": "uint256"
        }
      ],
      "name": "getAuction",
      "outputs": [
        {
          "components": [
            {
              "internalType": "address",
              "name": "seller",
              "type": "address"
            },
            {
              "internalType": "address",
              "name": "highestBidder",
              "type": "address"
            },
            {
              "internalType": "uint256",
              "name": "initialBidAmount",
              "type": "uint256"
            },
            {
              "internalType": "uint256",
              "name": "highestBidAmount",
              "type": "uint256"
            },
            {
              "internalType": "uint256",
              "name": "startPeriod",
              "type": "uint256"
            },
            {
              "internalType": "uint256",
              "name": "endPeriod",
              "type": "uint256"
            },
            {
              "internalType": "uint256",
              "name": "bidCount",
              "type": "uint256"
            },
            {
              "internalType": "bool",
              "name": "started",
              "type": "bool"
            }
          ],
          "internalType": "struct RC3Auction.Auction",
          "name": "",
          "type": "tuple"
        }
      ],
      "stateMutability": "view",
      "type": "function"
    },
    {
      "inputs": [
        {
          "internalType": "uint256",
          "name": "_tokenId",
          "type": "uint256"
        },
        {
          "internalType": "uint256",
          "name": "_startsIn",
          "type": "uint256"
        },
        {
          "internalType": "uint256",
          "name": "_lastsFor",
          "type": "uint256"
        },
        {
          "internalType": "uint256",
          "name": "_initialBidAmount",
          "type": "uint256"
        }
      ],
      "name": "newAuction",
      "outputs": [
        {
          "internalType": "bool",
          "name": "created",
          "type": "bool"
        }
      ],
      "stateMutability": "nonpayable",
      "type": "function"
    },
    {
      "inputs": [
        {
          "internalType": "uint256",
          "name": "_tokenId",
          "type": "uint256"
        }
      ],
      "name": "nextBidAmount",
      "outputs": [
        {
          "internalType": "uint256",
          "name": "amount",
          "type": "uint256"
        }
      ],
      "stateMutability": "view",
      "type": "function"
    },
    {
      "inputs": [
        {
          "internalType": "address",
          "name": "",
          "type": "address"
        },
        {
          "internalType": "address",
          "name": "",
          "type": "address"
        },
        {
          "internalType": "uint256",
          "name": "",
          "type": "uint256"
        },
        {
          "internalType": "bytes",
          "name": "",
          "type": "bytes"
        }
      ],
      "name": "onERC721Received",
      "outputs": [
        {
          "internalType": "bytes4",
          "name": "",
          "type": "bytes4"
        }
      ],
      "stateMutability": "nonpayable",
      "type": "function"
    },
    {
      "inputs": [],
      "name": "owner",
      "outputs": [
        {
          "internalType": "address",
          "name": "",
          "type": "address"
        }
      ],
      "stateMutability": "view",
      "type": "function"
    },
    {
      "inputs": [],
      "name": "renounceOwnership",
      "outputs": [],
      "stateMutability": "nonpayable",
      "type": "function"
    },
    {
      "inputs": [
        {
          "internalType": "uint256",
          "name": "_newFeePercentage",
          "type": "uint256"
        }
      ],
      "name": "setFeePercentage",
      "outputs": [
        {
          "internalType": "bool",
          "name": "feePercentageSet",
          "type": "bool"
        }
      ],
      "stateMutability": "nonpayable",
      "type": "function"
    },
    {
      "inputs": [
        {
          "internalType": "address",
          "name": "_newFeeReceipient",
          "type": "address"
        }
      ],
      "name": "setFeeReceipient",
      "outputs": [
        {
          "internalType": "bool",
          "name": "feeReceipientSet",
          "type": "bool"
        }
      ],
      "stateMutability": "nonpayable",
      "type": "function"
    },
    {
      "inputs": [
        {
          "internalType": "address",
          "name": "newOwner",
          "type": "address"
        }
      ],
      "name": "transferOwnership",
      "outputs": [],
      "stateMutability": "nonpayable",
      "type": "function"
    },
    {
      "inputs": [
        {
          "internalType": "uint256",
          "name": "_tokenId",
          "type": "uint256"
        },
        {
          "internalType": "uint256",
          "name": "_endsIn",
          "type": "uint256"
        }
      ],
      "name": "updateEndTime",
      "outputs": [
        {
          "internalType": "bool",
          "name": "updated",
          "type": "bool"
        }
      ],
      "stateMutability": "nonpayable",
      "type": "function"
    }
  ],
  "bytecode": "0x60806040523480156200001157600080fd5b5060405162003612380380620036128339818101604052810190620000379190620002f8565b620000576200004b620000d460201b60201c565b620000dc60201b60201c565b600180819055506200006f82620001a060201b60201c565b62000080816200027860201b60201c565b82600260006101000a81548173ffffffffffffffffffffffffffffffffffffffff021916908373ffffffffffffffffffffffffffffffffffffffff160217905550620186a0600581905550505050620004c0565b600033905090565b60008060009054906101000a900473ffffffffffffffffffffffffffffffffffffffff169050816000806101000a81548173ffffffffffffffffffffffffffffffffffffffff021916908373ffffffffffffffffffffffffffffffffffffffff1602179055508173ffffffffffffffffffffffffffffffffffffffff168173ffffffffffffffffffffffffffffffffffffffff167f8be0079c531659141344cd1fd0a4f28419497f9722a3daafe3b4186f6b6457e060405160405180910390a35050565b600660009054906101000a900473ffffffffffffffffffffffffffffffffffffffff1673ffffffffffffffffffffffffffffffffffffffff168173ffffffffffffffffffffffffffffffffffffffff16141562000234576040517f08c379a00000000000000000000000000000000000000000000000000000000081526004016200022b90620003a2565b60405180910390fd5b80600660006101000a81548173ffffffffffffffffffffffffffffffffffffffff021916908373ffffffffffffffffffffffffffffffffffffffff16021790555050565b600454811415620002c0576040517f08c379a0000000000000000000000000000000000000000000000000000000008152600401620002b790620003c4565b60405180910390fd5b8060048190555050565b600081519050620002db816200048c565b92915050565b600081519050620002f281620004a6565b92915050565b60008060006060848603121562000314576200031362000435565b5b60006200032486828701620002ca565b93505060206200033786828701620002ca565b92505060406200034a86828701620002e1565b9150509250925092565b600062000363601983620003e6565b915062000370826200043a565b602082019050919050565b60006200038a601283620003e6565b9150620003978262000463565b602082019050919050565b60006020820190508181036000830152620003bd8162000354565b9050919050565b60006020820190508181036000830152620003df816200037b565b9050919050565b600082825260208201905092915050565b600062000404826200040b565b9050919050565b600073ffffffffffffffffffffffffffffffffffffffff82169050919050565b6000819050919050565b600080fd5b7f4572726f723a20616c72656164792072656365697069656e7400000000000000600082015250565b7f4572726f723a20616c7265616479207365740000000000000000000000000000600082015250565b6200049781620003f7565b8114620004a357600080fd5b50565b620004b1816200042b565b8114620004bd57600080fd5b50565b61314280620004d06000396000f3fe608060405234801561001057600080fd5b50600436106100f55760003560e01c80638da5cb5b11610097578063d846349e11610066578063d846349e146102ae578063e44542df146102df578063f2fde38b1461030f578063f6a898101461032b576100f5565b80638da5cb5b14610212578063a001ecdd14610230578063ae06c1b71461024e578063d45eb1b21461027e576100f5565b8063575ffe7a116100d3578063575ffe7a14610178578063598647f8146101a8578063715018a6146101d857806378bd7935146101e2576100f5565b8063150b7a02146100fa5780633740ebb31461012a5780634b48f20d14610148575b600080fd5b610114600480360381019061010f91906122ff565b61035b565b6040516101219190612831565b60405180910390f35b61013261036f565b60405161013f919061279b565b60405180910390f35b610162600480360381019061015d91906122a5565b610395565b60405161016f9190612816565b60405180910390f35b610192600480360381019061018d91906123af565b610473565b60405161019f9190612a48565b60405180910390f35b6101c260048036038101906101bd91906123dc565b610485565b6040516101cf9190612816565b60405180910390f35b6101e0610ad6565b005b6101fc60048036038101906101f791906123af565b610b5e565b6040516102099190612a2c565b60405180910390f35b61021a610c85565b604051610227919061279b565b60405180910390f35b610238610cae565b6040516102459190612a48565b60405180910390f35b610268600480360381019061026391906123af565b610cb4565b6040516102759190612816565b60405180910390f35b6102986004803603810190610293919061241c565b610d92565b6040516102a59190612816565b60405180910390f35b6102c860048036038101906102c391906123af565b61124f565b6040516102d6929190612a63565b60405180910390f35b6102f960048036038101906102f491906123dc565b611264565b6040516103069190612816565b60405180910390f35b610329600480360381019061032491906122a5565b6114b8565b005b610345600480360381019061034091906123af565b6115b0565b6040516103529190612816565b60405180910390f35b600063150b7a0260e01b9050949350505050565b600660009054906101000a900473ffffffffffffffffffffffffffffffffffffffff1681565b600061039f611c56565b73ffffffffffffffffffffffffffffffffffffffff166103bd610c85565b73ffffffffffffffffffffffffffffffffffffffff1614610413576040517f08c379a000000000000000000000000000000000000000000000000000000000815260040161040a9061298c565b60405180910390fd5b61041c82611c5e565b3373ffffffffffffffffffffffffffffffffffffffff167f09c5c63a1cac0bbadee1a6db15d14ffec5fdb4437fce5e61d61a5790d03590b183604051610462919061279b565b60405180910390a260019050919050565b600061047e82611d33565b9050919050565b6000600260015414156104cd576040517f08c379a00000000000000000000000000000000000000000000000000000000081526004016104c490612a0c565b60405180910390fd5b600260018190555082600060076000838152602001908152602001600020604051806101000160405290816000820160009054906101000a900473ffffffffffffffffffffffffffffffffffffffff1673ffffffffffffffffffffffffffffffffffffffff1673ffffffffffffffffffffffffffffffffffffffff1681526020016001820160009054906101000a900473ffffffffffffffffffffffffffffffffffffffff1673ffffffffffffffffffffffffffffffffffffffff1673ffffffffffffffffffffffffffffffffffffffff16815260200160028201548152602001600382015481526020016004820154815260200160058201548152602001600682015481526020016007820160009054906101000a900460ff161515151581525050905060008160a0015190503373ffffffffffffffffffffffffffffffffffffffff16826000015173ffffffffffffffffffffffffffffffffffffffff16141561066e576040517f08c379a00000000000000000000000000000000000000000000000000000000081526004016106659061290c565b60405180910390fd5b60008114156106b2576040517f08c379a00000000000000000000000000000000000000000000000000000000081526004016106a99061294c565b60405180910390fd5b42826080015111156106f9576040517f08c379a00000000000000000000000000000000000000000000000000000000081526004016106f0906128ac565b60405180910390fd5b42811161073b576040517f08c379a0000000000000000000000000000000000000000000000000000000008152600401610732906129ec565b60405180910390fd5b6000600760008881526020019081526020016000209050600086118015610769575061076687611d33565b86145b6107a8576040517f08c379a000000000000000000000000000000000000000000000000000000000815260040161079f9061292c565b60405180910390fd5b600360009054906101000a900473ffffffffffffffffffffffffffffffffffffffff1673ffffffffffffffffffffffffffffffffffffffff166323b872dd3330896040518463ffffffff1660e01b8152600401610807939291906127b6565b602060405180830381600087803b15801561082157600080fd5b505af1158015610835573d6000803e3d6000fd5b505050506040513d601f19601f820116820180604052508101906108599190612382565b50600081600601541461093f57600360009054906101000a900473ffffffffffffffffffffffffffffffffffffffff1673ffffffffffffffffffffffffffffffffffffffff1663a9059cbb8260010160009054906101000a900473ffffffffffffffffffffffffffffffffffffffff1683600301546040518363ffffffff1660e01b81526004016108eb9291906127ed565b602060405180830381600087803b15801561090557600080fd5b505af1158015610919573d6000803e3d6000fd5b505050506040513d601f19601f8201168201806040525081019061093d9190612382565b505b338160010160006101000a81548173ffffffffffffffffffffffffffffffffffffffff021916908373ffffffffffffffffffffffffffffffffffffffff1602179055508581600301819055508060060160008154809291906109a090612cf3565b9190505550863373ffffffffffffffffffffffffffffffffffffffff167f87f5b2fe112bf269d30fb8ca9dc0bde0afd0cc39258e13fafd75fe794795bf0e886040516109ec9190612a48565b60405180910390a360006109ff88611ee2565b915050610e10811015610ac057610e1061025882610a1d9190612b2a565b1115610a4f5780610e10610a319190612c0b565b826005016000828254610a449190612b2a565b925050819055610a6c565b610258826005016000828254610a659190612b2a565b9250508190555b506000610a7889611ee2565b915050887f95f83d4dfba2e4f3f99527a8e8a18980457125d95df460c1601811c0c961528f8242610aa99190612b2a565b604051610ab69190612a48565b60405180910390a2505b6001955050505050506001808190555092915050565b610ade611c56565b73ffffffffffffffffffffffffffffffffffffffff16610afc610c85565b73ffffffffffffffffffffffffffffffffffffffff1614610b52576040517f08c379a0000000000000000000000000000000000000000000000000000000008152600401610b499061298c565b60405180910390fd5b610b5c600061205b565b565b610b6661216e565b60076000838152602001908152602001600020604051806101000160405290816000820160009054906101000a900473ffffffffffffffffffffffffffffffffffffffff1673ffffffffffffffffffffffffffffffffffffffff1673ffffffffffffffffffffffffffffffffffffffff1681526020016001820160009054906101000a900473ffffffffffffffffffffffffffffffffffffffff1673ffffffffffffffffffffffffffffffffffffffff1673ffffffffffffffffffffffffffffffffffffffff16815260200160028201548152602001600382015481526020016004820154815260200160058201548152602001600682015481526020016007820160009054906101000a900460ff1615151515815250509050919050565b60008060009054906101000a900473ffffffffffffffffffffffffffffffffffffffff16905090565b60045481565b6000610cbe611c56565b73ffffffffffffffffffffffffffffffffffffffff16610cdc610c85565b73ffffffffffffffffffffffffffffffffffffffff1614610d32576040517f08c379a0000000000000000000000000000000000000000000000000000000008152600401610d299061298c565b60405180910390fd5b610d3b8261211f565b3373ffffffffffffffffffffffffffffffffffffffff167f59ac1250f26f38c2e2e4fee3c4131335122f06eda9f550b7fcf3f04171a69fec83604051610d819190612a48565b60405180910390a260019050919050565b600080600760008781526020019081526020016000209050600073ffffffffffffffffffffffffffffffffffffffff168160000160009054906101000a900473ffffffffffffffffffffffffffffffffffffffff1673ffffffffffffffffffffffffffffffffffffffff1614610e3d576040517f08c379a0000000000000000000000000000000000000000000000000000000008152600401610e34906129cc565b60405180910390fd5b6000841415610e81576040517f08c379a0000000000000000000000000000000000000000000000000000000008152600401610e789061296c565b60405180910390fd5b6000600260009054906101000a900473ffffffffffffffffffffffffffffffffffffffff1673ffffffffffffffffffffffffffffffffffffffff16636352211e886040518263ffffffff1660e01b8152600401610ede9190612a48565b60206040518083038186803b158015610ef657600080fd5b505afa158015610f0a573d6000803e3d6000fd5b505050506040513d601f19601f82011682018060405250810190610f2e91906122d2565b90508160070160009054906101000a900460ff1661106e573373ffffffffffffffffffffffffffffffffffffffff16610f65610c85565b73ffffffffffffffffffffffffffffffffffffffff1614610fbb576040517f08c379a0000000000000000000000000000000000000000000000000000000008152600401610fb29061286c565b60405180910390fd5b600260009054906101000a900473ffffffffffffffffffffffffffffffffffffffff1673ffffffffffffffffffffffffffffffffffffffff166342842e0e82308a6040518463ffffffff1660e01b815260040161101a939291906127b6565b600060405180830381600087803b15801561103457600080fd5b505af1158015611048573d6000803e3d6000fd5b5050505060018260070160006101000a81548160ff02191690831515021790555061116e565b3373ffffffffffffffffffffffffffffffffffffffff168173ffffffffffffffffffffffffffffffffffffffff16146110dc576040517f08c379a00000000000000000000000000000000000000000000000000000000081526004016110d3906129ac565b60405180910390fd5b600260009054906101000a900473ffffffffffffffffffffffffffffffffffffffff1673ffffffffffffffffffffffffffffffffffffffff166342842e0e33308a6040518463ffffffff1660e01b815260040161113b939291906127b6565b600060405180830381600087803b15801561115557600080fd5b505af1158015611169573d6000803e3d6000fd5b505050505b6000864261117c9190612b2a565b90506000868261118c9190612b2a565b9050818460040181905550808460050181905550828460000160006101000a81548173ffffffffffffffffffffffffffffffffffffffff021916908373ffffffffffffffffffffffffffffffffffffffff1602179055508584600201819055508273ffffffffffffffffffffffffffffffffffffffff16897f32f975887e27eb5343e9117a9026eb543a09765921318c63621c11da8030ba3a88858560405161123793929190612a8c565b60405180910390a36001945050505050949350505050565b60008061125b83611ee2565b91509150915091565b600061126e611c56565b73ffffffffffffffffffffffffffffffffffffffff1661128c610c85565b73ffffffffffffffffffffffffffffffffffffffff16146112e2576040517f08c379a00000000000000000000000000000000000000000000000000000000081526004016112d99061298c565b60405180910390fd5b600060076000858152602001908152602001600020604051806101000160405290816000820160009054906101000a900473ffffffffffffffffffffffffffffffffffffffff1673ffffffffffffffffffffffffffffffffffffffff1673ffffffffffffffffffffffffffffffffffffffff1681526020016001820160009054906101000a900473ffffffffffffffffffffffffffffffffffffffff1673ffffffffffffffffffffffffffffffffffffffff1673ffffffffffffffffffffffffffffffffffffffff16815260200160028201548152602001600382015481526020016004820154815260200160058201548152602001600682015481526020016007820160009054906101000a900460ff16151515158152505090504281608001511115611445576040517f08c379a000000000000000000000000000000000000000000000000000000000815260040161143c906128ac565b60405180910390fd5b82426114519190612b2a565b8160a0018181525050833373ffffffffffffffffffffffffffffffffffffffff167f39c13a0923e5548f177e24d52956a5dab00b14834b468b1b198d4d69d1656b0d8360a001516040516114a59190612a48565b60405180910390a3600191505092915050565b6114c0611c56565b73ffffffffffffffffffffffffffffffffffffffff166114de610c85565b73ffffffffffffffffffffffffffffffffffffffff1614611534576040517f08c379a000000000000000000000000000000000000000000000000000000000815260040161152b9061298c565b60405180910390fd5b600073ffffffffffffffffffffffffffffffffffffffff168173ffffffffffffffffffffffffffffffffffffffff1614156115a4576040517f08c379a000000000000000000000000000000000000000000000000000000000815260040161159b9061284c565b60405180910390fd5b6115ad8161205b565b50565b6000600260015414156115f8576040517f08c379a00000000000000000000000000000000000000000000000000000000081526004016115ef90612a0c565b60405180910390fd5b6002600181905550611608611c56565b73ffffffffffffffffffffffffffffffffffffffff16611626610c85565b73ffffffffffffffffffffffffffffffffffffffff161461167c576040517f08c379a00000000000000000000000000000000000000000000000000000000081526004016116739061298c565b60405180910390fd5b6000600760008481526020019081526020016000209050600073ffffffffffffffffffffffffffffffffffffffff168160000160009054906101000a900473ffffffffffffffffffffffffffffffffffffffff1673ffffffffffffffffffffffffffffffffffffffff161415611727576040517f08c379a000000000000000000000000000000000000000000000000000000000815260040161171e9061294c565b60405180910390fd5b60008061173385611ee2565b915091506000821461177a576040517f08c379a0000000000000000000000000000000000000000000000000000000008152600401611771906128ac565b60405180910390fd5b600081146117bd576040517f08c379a00000000000000000000000000000000000000000000000000000000081526004016117b4906128ec565b60405180910390fd5b60008360030154905060008460010160009054906101000a900473ffffffffffffffffffffffffffffffffffffffff16905060008214156118df57600260009054906101000a900473ffffffffffffffffffffffffffffffffffffffff1673ffffffffffffffffffffffffffffffffffffffff166323b872dd308760000160009054906101000a900473ffffffffffffffffffffffffffffffffffffffff168a6040518463ffffffff1660e01b815260040161187b939291906127b6565b600060405180830381600087803b15801561189557600080fd5b505af11580156118a9573d6000803e3d6000fd5b50505050867f2809c7e17bf978fbc7194c0a694b638c4215e9140cacc6c38ca36010b45697df60405160405180910390a2611b91565b6000600554836004546118f29190612bb1565b6118fc9190612b80565b9050600360009054906101000a900473ffffffffffffffffffffffffffffffffffffffff1673ffffffffffffffffffffffffffffffffffffffff1663a9059cbb600660009054906101000a900473ffffffffffffffffffffffffffffffffffffffff16836040518363ffffffff1660e01b815260040161197d9291906127ed565b602060405180830381600087803b15801561199757600080fd5b505af11580156119ab573d6000803e3d6000fd5b505050506040513d601f19601f820116820180604052508101906119cf9190612382565b50600360009054906101000a900473ffffffffffffffffffffffffffffffffffffffff1673ffffffffffffffffffffffffffffffffffffffff1663a9059cbb8760000160009054906101000a900473ffffffffffffffffffffffffffffffffffffffff168386611a3f9190612c0b565b6040518363ffffffff1660e01b8152600401611a5c9291906127ed565b602060405180830381600087803b158015611a7657600080fd5b505af1158015611a8a573d6000803e3d6000fd5b505050506040513d601f19601f82011682018060405250810190611aae9190612382565b50600260009054906101000a900473ffffffffffffffffffffffffffffffffffffffff1673ffffffffffffffffffffffffffffffffffffffff166323b872dd30848b6040518463ffffffff1660e01b8152600401611b0e939291906127b6565b600060405180830381600087803b158015611b2857600080fd5b505af1158015611b3c573d6000803e3d6000fd5b50505050878273ffffffffffffffffffffffffffffffffffffffff167fbf12861e2530ddae85c28e28e7d0ee1f43b75d6e7727a9440b30dfac4b1daf3685604051611b879190612a48565b60405180910390a3505b60008560000160006101000a81548173ffffffffffffffffffffffffffffffffffffffff021916908373ffffffffffffffffffffffffffffffffffffffff16021790555060008560010160006101000a81548173ffffffffffffffffffffffffffffffffffffffff021916908373ffffffffffffffffffffffffffffffffffffffff1602179055506000856003018190555060008560040181905550600085600501819055506000856006018190555060019550505050505060018081905550919050565b600033905090565b600660009054906101000a900473ffffffffffffffffffffffffffffffffffffffff1673ffffffffffffffffffffffffffffffffffffffff168173ffffffffffffffffffffffffffffffffffffffff161415611cef576040517f08c379a0000000000000000000000000000000000000000000000000000000008152600401611ce69061288c565b60405180910390fd5b80600660006101000a81548173ffffffffffffffffffffffffffffffffffffffff021916908373ffffffffffffffffffffffffffffffffffffffff16021790555050565b60008060076000848152602001908152602001600020604051806101000160405290816000820160009054906101000a900473ffffffffffffffffffffffffffffffffffffffff1673ffffffffffffffffffffffffffffffffffffffff1673ffffffffffffffffffffffffffffffffffffffff1681526020016001820160009054906101000a900473ffffffffffffffffffffffffffffffffffffffff1673ffffffffffffffffffffffffffffffffffffffff1673ffffffffffffffffffffffffffffffffffffffff16815260200160028201548152602001600382015481526020016004820154815260200160058201548152602001600682015481526020016007820160009054906101000a900460ff1615151515815250509050600073ffffffffffffffffffffffffffffffffffffffff16816000015173ffffffffffffffffffffffffffffffffffffffff1614611ed7576000816060015190506000811415611ea857816040015192505050611edd565b8060055461271083611eba9190612bb1565b611ec49190612b80565b611ece9190612b2a565b92505050611edd565b60009150505b919050565b600080600060076000858152602001908152602001600020604051806101000160405290816000820160009054906101000a900473ffffffffffffffffffffffffffffffffffffffff1673ffffffffffffffffffffffffffffffffffffffff1673ffffffffffffffffffffffffffffffffffffffff1681526020016001820160009054906101000a900473ffffffffffffffffffffffffffffffffffffffff1673ffffffffffffffffffffffffffffffffffffffff1673ffffffffffffffffffffffffffffffffffffffff16815260200160028201548152602001600382015481526020016004820154815260200160058201548152602001600682015481526020016007820160009054906101000a900460ff16151515158152505090504281608001511161201657600092508261202a565b4281608001516120269190612c0b565b9250825b50428160a0015111612040576000915081612054565b428160a001516120509190612c0b565b9150815b5050915091565b60008060009054906101000a900473ffffffffffffffffffffffffffffffffffffffff169050816000806101000a81548173ffffffffffffffffffffffffffffffffffffffff021916908373ffffffffffffffffffffffffffffffffffffffff1602179055508173ffffffffffffffffffffffffffffffffffffffff168173ffffffffffffffffffffffffffffffffffffffff167f8be0079c531659141344cd1fd0a4f28419497f9722a3daafe3b4186f6b6457e060405160405180910390a35050565b600454811415612164576040517f08c379a000000000000000000000000000000000000000000000000000000000815260040161215b906128cc565b60405180910390fd5b8060048190555050565b604051806101000160405280600073ffffffffffffffffffffffffffffffffffffffff168152602001600073ffffffffffffffffffffffffffffffffffffffff16815260200160008152602001600081526020016000815260200160008152602001600081526020016000151581525090565b60006121f46121ef84612ae8565b612ac3565b9050828152602081018484840111156122105761220f612dce565b5b61221b848285612cb3565b509392505050565b600081359050612232816130c7565b92915050565b600081519050612247816130c7565b92915050565b60008151905061225c816130de565b92915050565b600082601f83011261227757612276612dc9565b5b81356122878482602086016121e1565b91505092915050565b60008135905061229f816130f5565b92915050565b6000602082840312156122bb576122ba612dd8565b5b60006122c984828501612223565b91505092915050565b6000602082840312156122e8576122e7612dd8565b5b60006122f684828501612238565b91505092915050565b6000806000806080858703121561231957612318612dd8565b5b600061232787828801612223565b945050602061233887828801612223565b935050604061234987828801612290565b925050606085013567ffffffffffffffff81111561236a57612369612dd3565b5b61237687828801612262565b91505092959194509250565b60006020828403121561239857612397612dd8565b5b60006123a68482850161224d565b91505092915050565b6000602082840312156123c5576123c4612dd8565b5b60006123d384828501612290565b91505092915050565b600080604083850312156123f3576123f2612dd8565b5b600061240185828601612290565b925050602061241285828601612290565b9150509250929050565b6000806000806080858703121561243657612435612dd8565b5b600061244487828801612290565b945050602061245587828801612290565b935050604061246687828801612290565b925050606061247787828801612290565b91505092959194509250565b61248c81612c3f565b82525050565b61249b81612c3f565b82525050565b6124aa81612c51565b82525050565b6124b981612c51565b82525050565b6124c881612c5d565b82525050565b60006124db602683612b19565b91506124e682612dee565b604082019050919050565b60006124fe601a83612b19565b915061250982612e3d565b602082019050919050565b6000612521601983612b19565b915061252c82612e66565b602082019050919050565b6000612544601e83612b19565b915061254f82612e8f565b602082019050919050565b6000612567601283612b19565b915061257282612eb8565b602082019050919050565b600061258a601c83612b19565b915061259582612ee1565b602082019050919050565b60006125ad601d83612b19565b91506125b882612f0a565b602082019050919050565b60006125d0603483612b19565b91506125db82612f33565b604082019050919050565b60006125f3601d83612b19565b91506125fe82612f82565b602082019050919050565b6000612616602883612b19565b915061262182612fab565b604082019050919050565b6000612639602083612b19565b915061264482612ffa565b602082019050919050565b600061265c601e83612b19565b915061266782613023565b602082019050919050565b600061267f601c83612b19565b915061268a8261304c565b602082019050919050565b60006126a2601883612b19565b91506126ad82613075565b602082019050919050565b60006126c5601f83612b19565b91506126d08261309e565b602082019050919050565b610100820160008201516126f26000850182612483565b5060208201516127056020850182612483565b506040820151612718604085018261277d565b50606082015161272b606085018261277d565b50608082015161273e608085018261277d565b5060a082015161275160a085018261277d565b5060c082015161276460c085018261277d565b5060e082015161277760e08501826124a1565b50505050565b61278681612ca9565b82525050565b61279581612ca9565b82525050565b60006020820190506127b06000830184612492565b92915050565b60006060820190506127cb6000830186612492565b6127d86020830185612492565b6127e5604083018461278c565b949350505050565b60006040820190506128026000830185612492565b61280f602083018461278c565b9392505050565b600060208201905061282b60008301846124b0565b92915050565b600060208201905061284660008301846124bf565b92915050565b60006020820190508181036000830152612865816124ce565b9050919050565b60006020820190508181036000830152612885816124f1565b9050919050565b600060208201905081810360008301526128a581612514565b9050919050565b600060208201905081810360008301526128c581612537565b9050919050565b600060208201905081810360008301526128e58161255a565b9050919050565b600060208201905081810360008301526129058161257d565b9050919050565b60006020820190508181036000830152612925816125a0565b9050919050565b60006020820190508181036000830152612945816125c3565b9050919050565b60006020820190508181036000830152612965816125e6565b9050919050565b6000602082019050818103600083015261298581612609565b9050919050565b600060208201905081810360008301526129a58161262c565b9050919050565b600060208201905081810360008301526129c58161264f565b9050919050565b600060208201905081810360008301526129e581612672565b9050919050565b60006020820190508181036000830152612a0581612695565b9050919050565b60006020820190508181036000830152612a25816126b8565b9050919050565b600061010082019050612a4260008301846126db565b92915050565b6000602082019050612a5d600083018461278c565b92915050565b6000604082019050612a78600083018561278c565b612a85602083018461278c565b9392505050565b6000606082019050612aa1600083018661278c565b612aae602083018561278c565b612abb604083018461278c565b949350505050565b6000612acd612ade565b9050612ad98282612cc2565b919050565b6000604051905090565b600067ffffffffffffffff821115612b0357612b02612d9a565b5b612b0c82612ddd565b9050602081019050919050565b600082825260208201905092915050565b6000612b3582612ca9565b9150612b4083612ca9565b9250827fffffffffffffffffffffffffffffffffffffffffffffffffffffffffffffffff03821115612b7557612b74612d3c565b5b828201905092915050565b6000612b8b82612ca9565b9150612b9683612ca9565b925082612ba657612ba5612d6b565b5b828204905092915050565b6000612bbc82612ca9565b9150612bc783612ca9565b9250817fffffffffffffffffffffffffffffffffffffffffffffffffffffffffffffffff0483118215151615612c0057612bff612d3c565b5b828202905092915050565b6000612c1682612ca9565b9150612c2183612ca9565b925082821015612c3457612c33612d3c565b5b828203905092915050565b6000612c4a82612c89565b9050919050565b60008115159050919050565b60007fffffffff0000000000000000000000000000000000000000000000000000000082169050919050565b600073ffffffffffffffffffffffffffffffffffffffff82169050919050565b6000819050919050565b82818337600083830152505050565b612ccb82612ddd565b810181811067ffffffffffffffff82111715612cea57612ce9612d9a565b5b80604052505050565b6000612cfe82612ca9565b91507fffffffffffffffffffffffffffffffffffffffffffffffffffffffffffffffff821415612d3157612d30612d3c565b5b600182019050919050565b7f4e487b7100000000000000000000000000000000000000000000000000000000600052601160045260246000fd5b7f4e487b7100000000000000000000000000000000000000000000000000000000600052601260045260246000fd5b7f4e487b7100000000000000000000000000000000000000000000000000000000600052604160045260246000fd5b600080fd5b600080fd5b600080fd5b600080fd5b6000601f19601f8301169050919050565b7f4f776e61626c653a206e6577206f776e657220697320746865207a65726f206160008201527f6464726573730000000000000000000000000000000000000000000000000000602082015250565b7f4572726f723a206f6e6c792061646d696e2063616e2063616c6c000000000000600082015250565b7f4572726f723a20616c72656164792072656365697069656e7400000000000000600082015250565b7f4572726f723a2061756374696f6e20686173206e6f7420737461727465640000600082015250565b7f4572726f723a20616c7265616479207365740000000000000000000000000000600082015250565b7f4572726f723a2061756374696f6e20686173206e6f7420656e64656400000000600082015250565b7f4572726f723a2063616e6e6f7420626964206f776e2061756374696f6e000000600082015250565b7f4572726f723a206d7573742062696420776974682076616c696420696e70757460008201527f2e20736565206e657874426964416d6f756e742e000000000000000000000000602082015250565b7f4572726f723a2061756374696f6e20646f6573206e6f74206578697374000000600082015250565b7f4572726f723a206d757374206c61737420666f72206d6f7265207468616e203060008201527f207365636f6e6473000000000000000000000000000000000000000000000000602082015250565b7f4f776e61626c653a2063616c6c6572206973206e6f7420746865206f776e6572600082015250565b7f4572726f723a206f6e6c79204e4654206f776e65722063616e2063616c6c0000600082015250565b7f4572726f723a2061756374696f6e20616c726561647920657869737400000000600082015250565b7f4572726f723a2061756374696f6e2068617320656e6465640000000000000000600082015250565b7f5265656e7472616e637947756172643a207265656e7472616e742063616c6c00600082015250565b6130d081612c3f565b81146130db57600080fd5b50565b6130e781612c51565b81146130f257600080fd5b50565b6130fe81612ca9565b811461310957600080fd5b5056fea26469706673582212207a81377eb35b3864233e62be5cc689482857e6c3f47032572f674baeab4443d064736f6c63430008060033",
  "linkReferences": {},
  "deployedLinkReferences": {}
}