{
  "_format": "hh-sol-artifact-1",
  "contractName": "RC3_Mall",
  "sourceName": "contracts/RC3_Mall.sol",
  "abi": [
    {
      "inputs": [
        {
          "internalType": "address",
          "name": "_owner",
          "type": "address"
        },
        {
          "internalType": "address",
          "name": "_rcdy",
          "type": "address"
        },
        {
          "internalType": "address payable",
          "name": "_feeReceipient",
          "type": "address"
        },
        {
          "internalType": "uint96",
          "name": "_feeRCDY",
          "type": "uint96"
        },
        {
          "internalType": "uint96",
          "name": "_ethFee",
          "type": "uint96"
        }
      ],
      "stateMutability": "nonpayable",
      "type": "constructor"
    },
    {
      "anonymous": false,
      "inputs": [
        {
          "indexed": true,
          "internalType": "address",
          "name": "caller",
          "type": "address"
        },
        {
          "indexed": true,
          "internalType": "address",
          "name": "nft",
          "type": "address"
        },
        {
          "indexed": true,
          "internalType": "uint256",
          "name": "auctionId",
          "type": "uint256"
        },
        {
          "indexed": false,
          "internalType": "uint256",
          "name": "tokenID",
          "type": "uint256"
        }
      ],
      "name": "AuctionCancelled",
      "type": "event"
    },
    {
      "anonymous": false,
      "inputs": [
        {
          "indexed": true,
          "internalType": "address",
          "name": "caller",
          "type": "address"
        },
        {
          "indexed": false,
          "internalType": "address",
          "name": "seller",
          "type": "address"
        },
        {
          "indexed": false,
          "internalType": "address",
          "name": "highestBidder",
          "type": "address"
        },
        {
          "indexed": true,
          "internalType": "address",
          "name": "nft",
          "type": "address"
        },
        {
          "indexed": true,
          "internalType": "uint256",
          "name": "auctionId",
          "type": "uint256"
        },
        {
          "indexed": false,
          "internalType": "uint256",
          "name": "tokenId",
          "type": "uint256"
        },
        {
          "indexed": false,
          "internalType": "uint256",
          "name": "amount",
          "type": "uint256"
        },
        {
          "indexed": false,
          "internalType": "uint256",
          "name": "winPrice",
          "type": "uint256"
        }
      ],
      "name": "AuctionResulted",
      "type": "event"
    },
    {
      "anonymous": false,
      "inputs": [
        {
          "indexed": true,
          "internalType": "address",
          "name": "bidder",
          "type": "address"
        },
        {
          "indexed": true,
          "internalType": "address",
          "name": "nft",
          "type": "address"
        },
        {
          "indexed": true,
          "internalType": "uint256",
          "name": "auctionId",
          "type": "uint256"
        },
        {
          "indexed": false,
          "internalType": "uint256",
          "name": "_tokenId",
          "type": "uint256"
        },
        {
          "indexed": false,
          "internalType": "uint256",
          "name": "newEndPeriod",
          "type": "uint256"
        }
      ],
      "name": "AuctionUpdated",
      "type": "event"
    },
    {
      "anonymous": false,
      "inputs": [
        {
          "indexed": true,
          "internalType": "address",
          "name": "sender",
          "type": "address"
        },
        {
          "indexed": true,
          "internalType": "address",
          "name": "feeReceipient",
          "type": "address"
        }
      ],
      "name": "FeeRecipientSet",
      "type": "event"
    },
    {
      "anonymous": false,
      "inputs": [
        {
          "indexed": true,
          "internalType": "address",
          "name": "sender",
          "type": "address"
        },
        {
          "indexed": false,
          "internalType": "uint256",
          "name": "feePercentage",
          "type": "uint256"
        },
        {
          "indexed": true,
          "internalType": "enum RC3_Mall.Asset",
          "name": "asset",
          "type": "uint8"
        }
      ],
      "name": "FeeSet",
      "type": "event"
    },
    {
      "anonymous": false,
      "inputs": [
        {
          "indexed": true,
          "internalType": "address",
          "name": "caller",
          "type": "address"
        },
        {
          "indexed": true,
          "internalType": "address",
          "name": "nifty",
          "type": "address"
        },
        {
          "indexed": false,
          "internalType": "uint256",
          "name": "marketId",
          "type": "uint256"
        },
        {
          "indexed": false,
          "internalType": "uint256",
          "name": "tokenId",
          "type": "uint256"
        }
      ],
      "name": "MarketCancelled",
      "type": "event"
    },
    {
      "anonymous": false,
      "inputs": [
        {
          "indexed": true,
          "internalType": "address",
          "name": "caller",
          "type": "address"
        },
        {
          "indexed": true,
          "internalType": "address",
          "name": "nifty",
          "type": "address"
        },
        {
          "indexed": true,
          "internalType": "uint256",
          "name": "marketId",
          "type": "uint256"
        },
        {
          "indexed": false,
          "internalType": "uint256",
          "name": "tokenId",
          "type": "uint256"
        },
        {
          "indexed": false,
          "internalType": "uint256",
          "name": "price",
          "type": "uint256"
        },
        {
          "indexed": false,
          "internalType": "enum RC3_Mall.Asset",
          "name": "asset",
          "type": "uint8"
        }
      ],
      "name": "MarketSale",
      "type": "event"
    },
    {
      "anonymous": false,
      "inputs": [
        {
          "indexed": true,
          "internalType": "address",
          "name": "seller",
          "type": "address"
        },
        {
          "indexed": true,
          "internalType": "address",
          "name": "nft",
          "type": "address"
        },
        {
          "indexed": true,
          "internalType": "uint256",
          "name": "auctionId",
          "type": "uint256"
        },
        {
          "indexed": false,
          "internalType": "uint256",
          "name": "tokenId",
          "type": "uint256"
        },
        {
          "indexed": false,
          "internalType": "uint256",
          "name": "amount",
          "type": "uint256"
        },
        {
          "indexed": false,
          "internalType": "uint256",
          "name": "floorPrice",
          "type": "uint256"
        },
        {
          "indexed": false,
          "internalType": "uint256",
          "name": "startPeriod",
          "type": "uint256"
        },
        {
          "indexed": false,
          "internalType": "uint256",
          "name": "endPeriod",
          "type": "uint256"
        },
        {
          "indexed": false,
          "internalType": "enum RC3_Auction.TokenType",
          "name": "tokenType",
          "type": "uint8"
        }
      ],
      "name": "NewAuction",
      "type": "event"
    },
    {
      "anonymous": false,
      "inputs": [
        {
          "indexed": true,
          "internalType": "address",
          "name": "bidder",
          "type": "address"
        },
        {
          "indexed": true,
          "internalType": "address",
          "name": "nft",
          "type": "address"
        },
        {
          "indexed": true,
          "internalType": "uint256",
          "name": "auctionId",
          "type": "uint256"
        },
        {
          "indexed": false,
          "internalType": "uint256",
          "name": "tokenId",
          "type": "uint256"
        },
        {
          "indexed": false,
          "internalType": "uint256",
          "name": "price",
          "type": "uint256"
        }
      ],
      "name": "NewBid",
      "type": "event"
    },
    {
      "anonymous": false,
      "inputs": [
        {
          "indexed": true,
          "internalType": "address",
          "name": "caller",
          "type": "address"
        },
        {
          "indexed": true,
          "internalType": "address",
          "name": "nifty",
          "type": "address"
        },
        {
          "indexed": true,
          "internalType": "uint256",
          "name": "marketId",
          "type": "uint256"
        },
        {
          "indexed": false,
          "internalType": "uint256",
          "name": "tokenId",
          "type": "uint256"
        },
        {
          "indexed": false,
          "internalType": "uint256",
          "name": "amount",
          "type": "uint256"
        },
        {
          "indexed": false,
          "internalType": "uint256",
          "name": "price",
          "type": "uint256"
        },
        {
          "indexed": false,
          "internalType": "enum RC3_Auction.TokenType",
          "name": "tokenType",
          "type": "uint8"
        },
        {
          "indexed": false,
          "internalType": "enum RC3_Mall.Asset",
          "name": "asset",
          "type": "uint8"
        }
      ],
      "name": "NewMarket",
      "type": "event"
    },
    {
      "anonymous": false,
      "inputs": [
        {
          "indexed": true,
          "internalType": "address",
          "name": "previousOwner",
          "type": "address"
        },
        {
          "indexed": true,
          "internalType": "address",
          "name": "newOwner",
          "type": "address"
        }
      ],
      "name": "OwnershipTransferred",
      "type": "event"
    },
    {
      "inputs": [],
      "name": "auctionId",
      "outputs": [
        {
          "internalType": "uint256",
          "name": "_value",
          "type": "uint256"
        }
      ],
      "stateMutability": "view",
      "type": "function"
    },
    {
      "inputs": [],
      "name": "auctionsClosed",
      "outputs": [
        {
          "internalType": "uint256",
          "name": "_value",
          "type": "uint256"
        }
      ],
      "stateMutability": "view",
      "type": "function"
    },
    {
      "inputs": [
        {
          "internalType": "uint256",
          "name": "_auctionId",
          "type": "uint256"
        },
        {
          "internalType": "uint256",
          "name": "_bidAmount",
          "type": "uint256"
        }
      ],
      "name": "bid",
      "outputs": [
        {
          "internalType": "bool",
          "name": "bidded",
          "type": "bool"
        }
      ],
      "stateMutability": "nonpayable",
      "type": "function"
    },
    {
      "inputs": [
        {
          "internalType": "uint256",
          "name": "_auctionId",
          "type": "uint256"
        }
      ],
      "name": "bidTimeRemaining",
      "outputs": [
        {
          "internalType": "uint256",
          "name": "startsIn",
          "type": "uint256"
        },
        {
          "internalType": "uint256",
          "name": "endsIn",
          "type": "uint256"
        }
      ],
      "stateMutability": "view",
      "type": "function"
    },
    {
      "inputs": [
        {
          "internalType": "uint256",
          "name": "_marketId",
          "type": "uint256"
        }
      ],
      "name": "buyWithETH",
      "outputs": [
        {
          "internalType": "bool",
          "name": "bought",
          "type": "bool"
        }
      ],
      "stateMutability": "payable",
      "type": "function"
    },
    {
      "inputs": [
        {
          "internalType": "uint256",
          "name": "_marketId",
          "type": "uint256"
        }
      ],
      "name": "buyWithRCDY",
      "outputs": [
        {
          "internalType": "bool",
          "name": "bought",
          "type": "bool"
        }
      ],
      "stateMutability": "nonpayable",
      "type": "function"
    },
    {
      "inputs": [
        {
          "internalType": "uint256",
          "name": "_auctionId",
          "type": "uint256"
        }
      ],
      "name": "closeBid",
      "outputs": [
        {
          "internalType": "enum RC3_Auction.State",
          "name": "status",
          "type": "uint8"
        }
      ],
      "stateMutability": "nonpayable",
      "type": "function"
    },
    {
      "inputs": [
        {
          "internalType": "uint256",
          "name": "_marketId",
          "type": "uint256"
        }
      ],
      "name": "delistMarket",
      "outputs": [
        {
          "internalType": "enum RC3_Auction.State",
          "name": "status",
          "type": "uint8"
        }
      ],
      "stateMutability": "nonpayable",
      "type": "function"
    },
    {
      "inputs": [],
      "name": "ethFee",
      "outputs": [
        {
          "internalType": "uint96",
          "name": "",
          "type": "uint96"
        }
      ],
      "stateMutability": "view",
      "type": "function"
    },
    {
      "inputs": [],
      "name": "feePercentage",
      "outputs": [
        {
          "internalType": "uint96",
          "name": "",
          "type": "uint96"
        }
      ],
      "stateMutability": "view",
      "type": "function"
    },
    {
      "inputs": [],
      "name": "feeRecipient",
      "outputs": [
        {
          "internalType": "address payable",
          "name": "",
          "type": "address"
        }
      ],
      "stateMutability": "view",
      "type": "function"
    },
    {
      "inputs": [
        {
          "internalType": "uint256",
          "name": "_auctionId",
          "type": "uint256"
        }
      ],
      "name": "getAuction",
      "outputs": [
        {
          "components": [
            {
              "internalType": "address payable",
              "name": "seller",
              "type": "address"
            },
            {
              "internalType": "address payable",
              "name": "highestBidder",
              "type": "address"
            },
            {
              "internalType": "address",
              "name": "nifty",
              "type": "address"
            },
            {
              "internalType": "uint256",
              "name": "tokenId",
              "type": "uint256"
            },
            {
              "internalType": "uint256",
              "name": "tokenAmount",
              "type": "uint256"
            },
            {
              "internalType": "uint256",
              "name": "initialBidAmount",
              "type": "uint256"
            },
            {
              "internalType": "uint256",
              "name": "highestBidAmount",
              "type": "uint256"
            },
            {
              "internalType": "uint256",
              "name": "startPeriod",
              "type": "uint256"
            },
            {
              "internalType": "uint256",
              "name": "endPeriod",
              "type": "uint256"
            },
            {
              "internalType": "uint256",
              "name": "bidCount",
              "type": "uint256"
            },
            {
              "internalType": "enum RC3_Auction.TokenType",
              "name": "tokenType",
              "type": "uint8"
            },
            {
              "internalType": "enum RC3_Auction.State",
              "name": "state",
              "type": "uint8"
            }
          ],
          "internalType": "struct RC3_Auction.Auction",
          "name": "auction_",
          "type": "tuple"
        }
      ],
      "stateMutability": "view",
      "type": "function"
    },
    {
      "inputs": [],
      "name": "getListedMarkets",
      "outputs": [
        {
          "components": [
            {
              "internalType": "address payable",
              "name": "seller",
              "type": "address"
            },
            {
              "internalType": "enum RC3_Auction.TokenType",
              "name": "tokenType",
              "type": "uint8"
            },
            {
              "internalType": "address payable",
              "name": "buyer",
              "type": "address"
            },
            {
              "internalType": "enum RC3_Auction.State",
              "name": "state",
              "type": "uint8"
            },
            {
              "internalType": "address",
              "name": "nifty",
              "type": "address"
            },
            {
              "internalType": "enum RC3_Mall.Asset",
              "name": "asset",
              "type": "uint8"
            },
            {
              "internalType": "uint256",
              "name": "tokenId",
              "type": "uint256"
            },
            {
              "internalType": "uint256",
              "name": "tokenAmount",
              "type": "uint256"
            },
            {
              "internalType": "uint256",
              "name": "price",
              "type": "uint256"
            },
            {
              "internalType": "uint256",
              "name": "listTimestamp",
              "type": "uint256"
            }
          ],
          "internalType": "struct RC3_Mall.Market[]",
          "name": "marketItems",
          "type": "tuple[]"
        }
      ],
      "stateMutability": "view",
      "type": "function"
    },
    {
      "inputs": [
        {
          "internalType": "uint256",
          "name": "_marketId",
          "type": "uint256"
        }
      ],
      "name": "getMarket",
      "outputs": [
        {
          "components": [
            {
              "internalType": "address payable",
              "name": "seller",
              "type": "address"
            },
            {
              "internalType": "enum RC3_Auction.TokenType",
              "name": "tokenType",
              "type": "uint8"
            },
            {
              "internalType": "address payable",
              "name": "buyer",
              "type": "address"
            },
            {
              "internalType": "enum RC3_Auction.State",
              "name": "state",
              "type": "uint8"
            },
            {
              "internalType": "address",
              "name": "nifty",
              "type": "address"
            },
            {
              "internalType": "enum RC3_Mall.Asset",
              "name": "asset",
              "type": "uint8"
            },
            {
              "internalType": "uint256",
              "name": "tokenId",
              "type": "uint256"
            },
            {
              "internalType": "uint256",
              "name": "tokenAmount",
              "type": "uint256"
            },
            {
              "internalType": "uint256",
              "name": "price",
              "type": "uint256"
            },
            {
              "internalType": "uint256",
              "name": "listTimestamp",
              "type": "uint256"
            }
          ],
          "internalType": "struct RC3_Mall.Market",
          "name": "",
          "type": "tuple"
        }
      ],
      "stateMutability": "view",
      "type": "function"
    },
    {
      "inputs": [
        {
          "internalType": "address",
          "name": "nifty",
          "type": "address"
        },
        {
          "internalType": "uint256",
          "name": "_tokenId",
          "type": "uint256"
        },
        {
          "internalType": "uint256",
          "name": "amount",
          "type": "uint256"
        },
        {
          "internalType": "uint256",
          "name": "_startsIn",
          "type": "uint256"
        },
        {
          "internalType": "uint256",
          "name": "_lastsFor",
          "type": "uint256"
        },
        {
          "internalType": "uint256",
          "name": "_initialBidAmount",
          "type": "uint256"
        },
        {
          "internalType": "enum RC3_Auction.TokenType",
          "name": "_type",
          "type": "uint8"
        }
      ],
      "name": "listAuction",
      "outputs": [
        {
          "internalType": "uint256",
          "name": "auctionId_",
          "type": "uint256"
        }
      ],
      "stateMutability": "nonpayable",
      "type": "function"
    },
    {
      "inputs": [
        {
          "internalType": "address",
          "name": "nifty",
          "type": "address"
        },
        {
          "internalType": "uint256",
          "name": "_tokenId",
          "type": "uint256"
        },
        {
          "internalType": "uint256",
          "name": "amount",
          "type": "uint256"
        },
        {
          "internalType": "uint256",
          "name": "_price",
          "type": "uint256"
        },
        {
          "internalType": "enum RC3_Auction.TokenType",
          "name": "_type",
          "type": "uint8"
        },
        {
          "internalType": "enum RC3_Mall.Asset",
          "name": "_asset",
          "type": "uint8"
        }
      ],
      "name": "listMarket",
      "outputs": [
        {
          "internalType": "uint256",
          "name": "marketId_",
          "type": "uint256"
        }
      ],
      "stateMutability": "nonpayable",
      "type": "function"
    },
    {
      "inputs": [],
      "name": "marketId",
      "outputs": [
        {
          "internalType": "uint256",
          "name": "_value",
          "type": "uint256"
        }
      ],
      "stateMutability": "view",
      "type": "function"
    },
    {
      "inputs": [],
      "name": "marketsDelisted",
      "outputs": [
        {
          "internalType": "uint256",
          "name": "_value",
          "type": "uint256"
        }
      ],
      "stateMutability": "view",
      "type": "function"
    },
    {
      "inputs": [],
      "name": "marketsSold",
      "outputs": [
        {
          "internalType": "uint256",
          "name": "_value",
          "type": "uint256"
        }
      ],
      "stateMutability": "view",
      "type": "function"
    },
    {
      "inputs": [],
      "name": "myTradedNFTs",
      "outputs": [
        {
          "components": [
            {
              "internalType": "address payable",
              "name": "seller",
              "type": "address"
            },
            {
              "internalType": "enum RC3_Auction.TokenType",
              "name": "tokenType",
              "type": "uint8"
            },
            {
              "internalType": "address payable",
              "name": "buyer",
              "type": "address"
            },
            {
              "internalType": "enum RC3_Auction.State",
              "name": "state",
              "type": "uint8"
            },
            {
              "internalType": "address",
              "name": "nifty",
              "type": "address"
            },
            {
              "internalType": "enum RC3_Mall.Asset",
              "name": "asset",
              "type": "uint8"
            },
            {
              "internalType": "uint256",
              "name": "tokenId",
              "type": "uint256"
            },
            {
              "internalType": "uint256",
              "name": "tokenAmount",
              "type": "uint256"
            },
            {
              "internalType": "uint256",
              "name": "price",
              "type": "uint256"
            },
            {
              "internalType": "uint256",
              "name": "listTimestamp",
              "type": "uint256"
            }
          ],
          "internalType": "struct RC3_Mall.Market[]",
          "name": "myNfts",
          "type": "tuple[]"
        }
      ],
      "stateMutability": "view",
      "type": "function"
    },
    {
      "inputs": [
        {
          "internalType": "uint256",
          "name": "_auctionId",
          "type": "uint256"
        }
      ],
      "name": "nextBidAmount",
      "outputs": [
        {
          "internalType": "uint256",
          "name": "amount",
          "type": "uint256"
        }
      ],
      "stateMutability": "view",
      "type": "function"
    },
    {
      "inputs": [
        {
          "internalType": "address",
          "name": "",
          "type": "address"
        },
        {
          "internalType": "address",
          "name": "",
          "type": "address"
        },
        {
          "internalType": "uint256[]",
          "name": "",
          "type": "uint256[]"
        },
        {
          "internalType": "uint256[]",
          "name": "",
          "type": "uint256[]"
        },
        {
          "internalType": "bytes",
          "name": "",
          "type": "bytes"
        }
      ],
      "name": "onERC1155BatchReceived",
      "outputs": [
        {
          "internalType": "bytes4",
          "name": "",
          "type": "bytes4"
        }
      ],
      "stateMutability": "nonpayable",
      "type": "function"
    },
    {
      "inputs": [
        {
          "internalType": "address",
          "name": "",
          "type": "address"
        },
        {
          "internalType": "address",
          "name": "",
          "type": "address"
        },
        {
          "internalType": "uint256",
          "name": "",
          "type": "uint256"
        },
        {
          "internalType": "uint256",
          "name": "",
          "type": "uint256"
        },
        {
          "internalType": "bytes",
          "name": "",
          "type": "bytes"
        }
      ],
      "name": "onERC1155Received",
      "outputs": [
        {
          "internalType": "bytes4",
          "name": "",
          "type": "bytes4"
        }
      ],
      "stateMutability": "nonpayable",
      "type": "function"
    },
    {
      "inputs": [
        {
          "internalType": "address",
          "name": "",
          "type": "address"
        },
        {
          "internalType": "address",
          "name": "",
          "type": "address"
        },
        {
          "internalType": "uint256",
          "name": "",
          "type": "uint256"
        },
        {
          "internalType": "bytes",
          "name": "",
          "type": "bytes"
        }
      ],
      "name": "onERC721Received",
      "outputs": [
        {
          "internalType": "bytes4",
          "name": "",
          "type": "bytes4"
        }
      ],
      "stateMutability": "nonpayable",
      "type": "function"
    },
    {
      "inputs": [],
      "name": "owner",
      "outputs": [
        {
          "internalType": "address",
          "name": "",
          "type": "address"
        }
      ],
      "stateMutability": "view",
      "type": "function"
    },
    {
      "inputs": [],
      "name": "renounceOwnership",
      "outputs": [],
      "stateMutability": "nonpayable",
      "type": "function"
    },
    {
      "inputs": [
        {
          "internalType": "uint96",
          "name": "_newFee",
          "type": "uint96"
        }
      ],
      "name": "setFeeETH",
      "outputs": [],
      "stateMutability": "nonpayable",
      "type": "function"
    },
    {
      "inputs": [
        {
          "internalType": "uint96",
          "name": "_newFee",
          "type": "uint96"
        }
      ],
      "name": "setFeeRCDY",
      "outputs": [],
      "stateMutability": "nonpayable",
      "type": "function"
    },
    {
      "inputs": [
        {
          "internalType": "address payable",
          "name": "_newRecipient",
          "type": "address"
        }
      ],
      "name": "setFeeRecipient",
      "outputs": [],
      "stateMutability": "nonpayable",
      "type": "function"
    },
    {
      "inputs": [
        {
          "internalType": "bytes4",
          "name": "interfaceId",
          "type": "bytes4"
        }
      ],
      "name": "supportsInterface",
      "outputs": [
        {
          "internalType": "bool",
          "name": "",
          "type": "bool"
        }
      ],
      "stateMutability": "view",
      "type": "function"
    },
    {
      "inputs": [
        {
          "internalType": "address",
          "name": "newOwner",
          "type": "address"
        }
      ],
      "name": "transferOwnership",
      "outputs": [],
      "stateMutability": "nonpayable",
      "type": "function"
    },
    {
      "inputs": [],
      "name": "waitPeriod",
      "outputs": [
        {
          "internalType": "uint256",
          "name": "",
          "type": "uint256"
        }
      ],
      "stateMutability": "view",
      "type": "function"
    }
  ],
  "bytecode": "0x60a06040523480156200001157600080fd5b5060405162003fec38038062003fec8339810160408190526200003491620002ff565b6001600055606084901b6001600160601b03191660805262000056336200009d565b6200006183620000ef565b6200006c8262000197565b600980546001600160601b0319166001600160601b038316179055620000928562000211565b50505050506200038d565b600580546001600160a01b038381166001600160a01b0319831681179093556040519116919082907f8be0079c531659141344cd1fd0a4f28419497f9722a3daafe3b4186f6b6457e090600090a35050565b6003546001600160a01b036c010000000000000000000000009091048116908216811415620001655760405162461bcd60e51b815260206004820152601960248201527f4572726f723a20616c72656164792072656365697069656e740000000000000060448201526064015b60405180910390fd5b50600380546001600160a01b039092166c01000000000000000000000000026001600160601b03909216919091179055565b6003546001600160601b03908116908216811415620001ee5760405162461bcd60e51b8152602060048201526012602482015271115c9c9bdc8e88185b1c9958591e481cd95d60721b60448201526064016200015c565b50600380546001600160601b0319166001600160601b0392909216919091179055565b6005546001600160a01b031633146200026d5760405162461bcd60e51b815260206004820181905260248201527f4f776e61626c653a2063616c6c6572206973206e6f7420746865206f776e657260448201526064016200015c565b6001600160a01b038116620002d45760405162461bcd60e51b815260206004820152602660248201527f4f776e61626c653a206e6577206f776e657220697320746865207a65726f206160448201526564647265737360d01b60648201526084016200015c565b620002df816200009d565b50565b80516001600160601b0381168114620002fa57600080fd5b919050565b600080600080600060a086880312156200031857600080fd5b8551620003258162000377565b6020870151909550620003388162000377565b60408701519094506200034b8162000377565b92506200035b60608701620002e2565b91506200036b60808701620002e2565b90509295509295909350565b6001600160a01b0381168114620002df57600080fd5b60805160601c613c1d620003cf600039600081816109440152818161098e0152818161154c015281816115a301528181611e340152611e870152613c1d6000f3fe6080604052600436106101735760003560e01c806301ffc9a71461017857806304ad187e146101ad57806310782f8f146101cf578063150b7a02146101f457806346904840146102385780634cf1115d14610277578063575ffe7a146102a457806357b3f9d9146102c4578063598647f8146102e65780636cc03124146103065780636ed71ede1461031d578063715018a61461033457806378bd7935146103495780638da5cb5b146103765780638e26c09d1461038b578063932ba8c4146103a257806394dc9cf3146103b7578063a001ecdd146103ca578063ab600c59146103ea578063bc197c8114610401578063bd4b04d41461042d578063c00b6bc11461044d578063c2c34cae1461046d578063d846349e1461049a578063db77c20b146104c8578063e6084a26146104e8578063e74b981b146104ff578063eb44fdd31461051f578063f23a6e611461054c578063f2fde38b14610578578063f6a8981014610598578063fe7588ed146105b8575b600080fd5b34801561018457600080fd5b5061019861019336600461357f565b6105d8565b60405190151581526020015b60405180910390f35b3480156101b957600080fd5b506101c261060f565b6040516101a49190613754565b3480156101db57600080fd5b506001546101e69081565b6040519081526020016101a4565b34801561020057600080fd5b5061021f61020f3660046133ba565b630a85bd0160e11b949350505050565b6040516001600160e01b031990911681526020016101a4565b34801561024457600080fd5b5060035461025f90600160601b90046001600160a01b031681565b6040516001600160a01b0390911681526020016101a4565b34801561028357600080fd5b50600954610297906001600160601b031681565b6040516101a49190613a6b565b3480156102b057600080fd5b506101e66102bf3660046135a9565b610860565b3480156102d057600080fd5b506102e46102df3660046135e4565b61086b565b005b3480156102f257600080fd5b506101986103013660046135c2565b6108f3565b34801561031257600080fd5b506002546101e69081565b34801561032957600080fd5b506006546101e69081565b34801561034057600080fd5b506102e4610b2d565b34801561035557600080fd5b506103696103643660046135a9565b610b68565b6040516101a491906138fb565b34801561038257600080fd5b5061025f610c70565b34801561039757600080fd5b506101e66202a30081565b3480156103ae57600080fd5b506101c2610c7f565b6101986103c53660046135a9565b610edc565b3480156103d657600080fd5b50600354610297906001600160601b031681565b3480156103f657600080fd5b506007546101e69081565b34801561040d57600080fd5b5061021f61041c36600461330d565b63bc197c8160e01b95945050505050565b34801561043957600080fd5b506101e66104483660046134f4565b6111d5565b34801561045957600080fd5b506101986104683660046135a9565b6113e2565b34801561047957600080fd5b5061048d6104883660046135a9565b6115e0565b6040516101a491906137a3565b3480156104a657600080fd5b506104ba6104b53660046135a9565b61189d565b6040516101a49291906139be565b3480156104d457600080fd5b506102e46104e33660046135e4565b6118b3565b3480156104f457600080fd5b506008546101e69081565b34801561050b57600080fd5b506102e461051a3660046132d3565b611962565b34801561052b57600080fd5b5061053f61053a3660046135a9565b6119e6565b6040516101a491906139af565b34801561055857600080fd5b5061021f610567366004613425565b63f23a6e6160e01b95945050505050565b34801561058457600080fd5b506102e46105933660046132d3565b611b0b565b3480156105a457600080fd5b5061048d6105b33660046135a9565b611bab565b3480156105c457600080fd5b506101e66105d336600461348d565b612061565b60006001600160e01b03198216630271189760e51b148061060957506301ffc9a760e01b6001600160e01b03198316145b92915050565b6060600061061c60065490565b9050600061062960075490565b6008546106369084613b08565b6106409190613b08565b9050600080826001600160401b0381111561065d5761065d613ba8565b60405190808252806020026020018201604052801561069657816020015b61068361310b565b81526020019060019003908161067b5790505b50905060005b84811015610857576000600a60006106b5846001613aaf565b8152602081019190915260400160002060010154600160a01b900460ff1660028111156106e4576106e4613b7c565b1415610845576000600a816106fa846001613aaf565b815260208082019290925260409081016000208151610140810190925280546001600160a01b03811683529192909190830190600160a01b900460ff16600181111561074857610748613b7c565b600181111561075957610759613b7c565b815260018201546001600160a01b0381166020830152604090910190600160a01b900460ff16600281111561079057610790613b7c565b60028111156107a1576107a1613b7c565b815260028201546001600160a01b0381166020830152604090910190600160a01b900460ff1660018111156107d8576107d8613b7c565b60018111156107e9576107e9613b7c565b815260200160038201548152602001600482015481526020016005820154815260200160068201548152505090508083858151811061082a5761082a613b92565b6020026020010181905250838061084090613b4b565b945050505b8061084f81613b4b565b91505061069c565b50949350505050565b60006106098261226a565b33610874610c70565b6001600160a01b0316146108a35760405162461bcd60e51b815260040161089a9061383c565b60405180910390fd5b6001600160601b0381166108b657600080fd5b6108bf816123c3565b6001336001600160a01b0316600080516020613bf1833981519152836040516108e89190613a6b565b60405180910390a350565b6000600260005414156109185760405162461bcd60e51b815260040161089a906138c4565b600260005582826109298282612416565b600085815260046020526040902061096c6001600160a01b037f00000000000000000000000000000000000000000000000000000000000000001633308861267a565b6009810154156109b857600181015460068201546109b8916001600160a01b037f00000000000000000000000000000000000000000000000000000000000000008116929116906126d2565b6001810180546001600160a01b03191633179055600681018590556009810180549060006109e583613b4b565b90915550506002810154600382015460405188926001600160a01b03169133917f911d834cc781bcb7a08922b9dd1f1d175c0a0467d9705194c2e200f8ce2786bb91610a32918b906139be565b60405180910390a46000610a4587612707565b915050610e10811015610b1a57610e10610a6182610258613aaf565b1115610a9157610a7381610e10613b08565b826008016000828254610a869190613aaf565b925050819055610aae565b610258826008016000828254610aa79190613aaf565b9250508190555b506000610aba88612707565b600285015460038601549193508a92506001600160a01b03169033907ff3f8c69115d9f33b41d0ae7a8f88fb8cde222311d82702dc55025079d0eca53a90610b028642613aaf565b604051610b109291906139be565b60405180910390a4505b6001945050505050600160005592915050565b33610b36610c70565b6001600160a01b031614610b5c5760405162461bcd60e51b815260040161089a9061383c565b610b666000612859565b565b610b7061315f565b60008281526004602081815260409283902083516101808101855281546001600160a01b0390811682526001808401548216948301949094526002830154169481019490945260038101546060850152918201546080840152600582015460a0840152600682015460c0840152600782015460e084015260088201546101008401526009820154610120840152600a82015461014084019160ff90911690811115610c1d57610c1d613b7c565b6001811115610c2e57610c2e613b7c565b8152602001600a820160019054906101000a900460ff166002811115610c5657610c56613b7c565b6002811115610c6757610c67613b7c565b90525092915050565b6005546001600160a01b031690565b60606000610c8c60065490565b905060008060005b83811015610cef5733600a6000610cac846001613aaf565b81526020810191909152604001600020600101546001600160a01b03161415610cdd5782610cd981613b4b565b9350505b80610ce781613b4b565b915050610c94565b506000826001600160401b03811115610d0a57610d0a613ba8565b604051908082528060200260200182016040528015610d4357816020015b610d3061310b565b815260200190600190039081610d285790505b50905060005b84811015610857576000600a81610d61846001613aaf565b815260208082019290925260409081016000208151610140810190925280546001600160a01b03811683529192909190830190600160a01b900460ff166001811115610daf57610daf613b7c565b6001811115610dc057610dc0613b7c565b815260018201546001600160a01b0381166020830152604090910190600160a01b900460ff166002811115610df757610df7613b7c565b6002811115610e0857610e08613b7c565b815260028201546001600160a01b0381166020830152604090910190600160a01b900460ff166001811115610e3f57610e3f613b7c565b6001811115610e5057610e50613b7c565b81526020016003820154815260200160048201548152602001600582015481526020016006820154815250509050336001600160a01b031681604001516001600160a01b03161415610ec95780838581518110610eaf57610eaf613b92565b60200260200101819052508380610ec590613b4b565b9450505b5080610ed481613b4b565b915050610d49565b600081610ee8816128ab565b6000838152600a602090815260408083208151610140810190925280546001600160a01b03811683529192909190830190600160a01b900460ff166001811115610f3457610f34613b7c565b6001811115610f4557610f45613b7c565b815260018201546001600160a01b0381166020830152604090910190600160a01b900460ff166002811115610f7c57610f7c613b7c565b6002811115610f8d57610f8d613b7c565b815260028201546001600160a01b0381166020830152604090910190600160a01b900460ff166001811115610fc457610fc4613b7c565b6001811115610fd557610fd5613b7c565b81526003820154602082015260048201546040820152600582015460608201526006909101546080909101526009546101008201519192506001600160601b031690600090620186a0906110299084613ae9565b6110339190613ac7565b905082610100015134146110825760405162461bcd60e51b81526020600482015260166024820152751253959053125117d410565351539517d05353d5539560521b604482015260640161089a565b600354604051600091600160601b90046001600160a01b03169083908381818185875af1925050503d80600081146110d6576040519150601f19603f3d011682016040523d82523d6000602084013e6110db565b606091505b50509050600084600001516001600160a01b0316838661010001516111009190613b08565b604051600081818185875af1925050503d806000811461113c576040519150601f19603f3d011682016040523d82523d6000602084013e611141565b606091505b5050905081801561114f5750805b6111be5760405162461bcd60e51b815260206004820152603a60248201527f416464726573733a20756e61626c6520746f2073656e642076616c75652c20726044820152791958da5c1a595b9d081b585e481a185d99481c995d995c9d195960321b606482015260840161089a565b6111c788612a4c565b506001979650505050505050565b60006111e5600180546001019055565b50600154836112295760405162461bcd60e51b815260206004820152601060248201526f24a72b20a624a22fa22aa920aa24a7a760811b604482015260640161089a565b600082600181111561123d5761123d613b7c565b141561133e576040516331a9108f60e11b81526004810188905288906000906001600160a01b03831690636352211e9060240160206040518083038186803b15801561128857600080fd5b505afa15801561129c573d6000803e3d6000fd5b505050506040513d601f19601f820116820180604052508101906112c091906132f0565b604051632142170760e11b81529091506001600160a01b038316906342842e0e906112f390849030908e906004016136e8565b600060405180830381600087803b15801561130d57600080fd5b505af1158015611321573d6000803e3d6000fd5b505050506113378a848b60018b8b8b6000612c1d565b50506113d7565b6000861161135e5760405162461bcd60e51b815260040161089a9061389c565b604051637921219560e11b815288906001600160a01b0382169063f242432a9061139290339030908d908d9060040161370c565b600060405180830381600087803b1580156113ac57600080fd5b505af11580156113c0573d6000803e3d6000fd5b505050506113d589838a8a8a8a8a6001612c1d565b505b979650505050505050565b6000816113ee816128ab565b6000838152600a602090815260408083208151610140810190925280546001600160a01b03811683529192909190830190600160a01b900460ff16600181111561143a5761143a613b7c565b600181111561144b5761144b613b7c565b815260018201546001600160a01b0381166020830152604090910190600160a01b900460ff16600281111561148257611482613b7c565b600281111561149357611493613b7c565b815260028201546001600160a01b0381166020830152604090910190600160a01b900460ff1660018111156114ca576114ca613b7c565b60018111156114db576114db613b7c565b815260038281015460208301526004830154604083015260058301546060830152600690920154608090910152546101008201519192506001600160601b031690600090620186a09061152e9084613ae9565b6115389190613ac7565b60035490915061157f906001600160a01b037f00000000000000000000000000000000000000000000000000000000000000008116913391600160601b909104168461267a565b6115cb338460000151838661010001516115999190613b08565b6001600160a01b037f00000000000000000000000000000000000000000000000000000000000000001692919061267a565b6115d486612a4c565b50600195945050505050565b6000600260005414156116055760405162461bcd60e51b815260040161089a906138c4565b60026000818155838152600a6020526040902060018101549091600160a01b90910460ff169081111561163a5761163a613b7c565b156116575760405162461bcd60e51b815260040161089a90613871565b80546001600160a01b031633146116a65760405162461bcd60e51b81526020600482015260136024820152722aa720aaaa2427a924ad22a22fa1a0a62622a960691b604482015260640161089a565b6202a3008160060154426116ba9190613b08565b10156116fb5760405162461bcd60e51b815260206004820152601060248201526f10d3d3d317d113d5d397d411549253d160821b604482015260640161089a565b60008154600160a01b900460ff16600181111561171a5761171a613b7c565b1461179a57600281015481546003830154600480850154604051637921219560e11b81526001600160a01b039586169563f242432a95611763953095919092169391920161370c565b600060405180830381600087803b15801561177d57600080fd5b505af1158015611791573d6000803e3d6000fd5b5050505061180b565b600281015481546003830154604051632142170760e11b81526001600160a01b03938416936342842e0e936117d893309392909116916004016136e8565b600060405180830381600087803b1580156117f257600080fd5b505af1158015611806573d6000803e3d6000fd5b505050505b6001818101805460ff60a01b1916600160a01b830217905550611832600880546001019055565b600281015460038201546040516001600160a01b039092169133917f1b8533106988126be2d3db59ca29eb634d45d513b5e215053409141b26f8f42e9161187a9188916139be565b60405180910390a36001015460ff600160a01b9091041690506001600055919050565b6000806118a983612707565b9094909350915050565b336118bc610c70565b6001600160a01b0316146118e25760405162461bcd60e51b815260040161089a9061383c565b6009546001600160601b039081169082168114156119125760405162461bcd60e51b815260040161089a906137e4565b600980546001600160601b0319166001600160601b0384161790556000336001600160a01b0316600080516020613bf1833981519152846040516119569190613a6b565b60405180910390a35050565b3361196b610c70565b6001600160a01b0316146119915760405162461bcd60e51b815260040161089a9061383c565b6001600160a01b0381166119a457600080fd5b6119ad81612d20565b6040516001600160a01b0382169033907f15d80a013f22151bc7246e3bc132e12828cde19de98870475e3fa7084015272190600090a350565b6119ee61310b565b6000828152600a60209081526040918290208251610140810190935280546001600160a01b03811684529091830190600160a01b900460ff166001811115611a3857611a38613b7c565b6001811115611a4957611a49613b7c565b815260018201546001600160a01b0381166020830152604090910190600160a01b900460ff166002811115611a8057611a80613b7c565b6002811115611a9157611a91613b7c565b815260028201546001600160a01b0381166020830152604090910190600160a01b900460ff166001811115611ac857611ac8613b7c565b6001811115611ad957611ad9613b7c565b815260038201546020820152600482015460408201526005820154606082015260069091015460809091015292915050565b33611b14610c70565b6001600160a01b031614611b3a5760405162461bcd60e51b815260040161089a9061383c565b6001600160a01b038116611b9f5760405162461bcd60e51b815260206004820152602660248201527f4f776e61626c653a206e6577206f776e657220697320746865207a65726f206160448201526564647265737360d01b606482015260840161089a565b611ba881612859565b50565b600060026000541415611bd05760405162461bcd60e51b815260040161089a906138c4565b6002600090815582815260046020526040812090600a820154610100900460ff166002811115611c0257611c02613b7c565b14611c1f5760405162461bcd60e51b815260040161089a90613810565b600080611c2b85612707565b91509150816000148015611c3d575080155b611c785760405162461bcd60e51b815260206004820152600c60248201526b494e56414c49445f54494d4560a01b604482015260640161089a565b600683015480611dee576000600a85015460ff166001811115611c9d57611c9d613b7c565b14611d1d57600284015484546003860154600480880154604051637921219560e11b81526001600160a01b039586169563f242432a95611ce6953095919092169391920161370c565b600060405180830381600087803b158015611d0057600080fd5b505af1158015611d14573d6000803e3d6000fd5b50505050611d8e565b600284015484546003860154604051632142170760e11b81526001600160a01b03938416936342842e0e93611d5b93309392909116916004016136e8565b600060405180830381600087803b158015611d7557600080fd5b505af1158015611d89573d6000803e3d6000fd5b505050505b600a8401805461ff00191661010017905560028401546003850154604080519182525188926001600160a01b03169133917f57bfd08a841d5d478e4fef268a8b041c65e389dddfa00f8c4a88a9d4fd9bc8249181900360200190a4612039565b600354600090620186a090611e0d9084906001600160601b0316613ae9565b611e179190613ac7565b60018601546003549192506001600160a01b0390811691611e64917f0000000000000000000000000000000000000000000000000000000000000000811691600160601b900416846126d2565b8554611eae906001600160a01b0316611e7d8486613b08565b6001600160a01b037f00000000000000000000000000000000000000000000000000000000000000001691906126d2565b6000600a87015460ff166001811115611ec957611ec9613b7c565b14611f445760028601546003870154600480890154604051637921219560e11b81526001600160a01b039094169363f242432a93611f0d933093889390910161370c565b600060405180830381600087803b158015611f2757600080fd5b505af1158015611f3b573d6000803e3d6000fd5b50505050611fb0565b60028601546003870154604051632142170760e11b81526001600160a01b03909216916342842e0e91611f7d91309186916004016136e8565b600060405180830381600087803b158015611f9757600080fd5b505af1158015611fab573d6000803e3d6000fd5b505050505b600a8601805461020061ff00199091161790556002860154865460038801546004890154604080516001600160a01b0394851681528685166020820152908101929092526060820152608081018690528a92919091169033907f31c8601b5dd4c4e31751f64d3545cc33889c92681a65811a7f4575b3ae26d5569060a00160405180910390a450505b612047600280546001019055565b505050600a01546001600055610100900460ff1692915050565b60008084116120a25760405162461bcd60e51b815260206004820152600d60248201526c494e56414c49445f505249434560981b604482015260640161089a565b6120b0600680546001019055565b5060065460008360018111156120c8576120c8613b7c565b14156121c8576040516331a9108f60e11b81526004810187905287906000906001600160a01b03831690636352211e9060240160206040518083038186803b15801561211357600080fd5b505afa158015612127573d6000803e3d6000fd5b505050506040513d601f19601f8201168201806040525081019061214b91906132f0565b604051632142170760e11b81529091506001600160a01b038316906342842e0e9061217e90849030908d906004016136e8565b600060405180830381600087803b15801561219857600080fd5b505af11580156121ac573d6000803e3d6000fd5b505050506121c189848a60018a60008a612dac565b5050612260565b600085116121e85760405162461bcd60e51b815260040161089a9061389c565b604051637921219560e11b815287906001600160a01b0382169063f242432a9061221c90339030908c908c9060040161370c565b600060405180830381600087803b15801561223657600080fd5b505af115801561224a573d6000803e3d6000fd5b5050505061225e8883898989600189612dac565b505b9695505050505050565b600081815260046020818152604080842081516101808101835281546001600160a01b0390811682526001808401548216958301959095526002830154169281019290925260038101546060830152928301546080820152600583015460a0820152600683015460c0820152600783015460e082015260088301546101008201526009830154610120820152600a8301548493919261014084019160ff169081111561231857612318613b7c565b600181111561232957612329613b7c565b8152602001600a820160019054906101000a900460ff16600281111561235157612351613b7c565b600281111561236257612362613b7c565b90525080519091506001600160a01b0316156123ba5760c08101518061238d575060a0015192915050565b80620186a061239e82612710613ae9565b6123a89190613ac7565b6123b29190613aaf565b949350505050565b50600092915050565b6003546001600160601b039081169082168114156123f35760405162461bcd60e51b815260040161089a906137e4565b50600380546001600160601b0319166001600160601b0392909216919091179055565b600082815260046020818152604080842081516101808101835281546001600160a01b0390811682526001808401548216958301959095526002830154169281019290925260038101546060830152928301546080820152600583015460a0820152600683015460c0820152600783015460e082015260088301546101008201526009830154610120820152600a83015490929161014084019160ff16908111156124c3576124c3613b7c565b60018111156124d4576124d4613b7c565b8152602001600a820160019054906101000a900460ff1660028111156124fc576124fc613b7c565b600281111561250d5761250d613b7c565b9052506101008101519091506000826101600151600281111561253257612532613b7c565b1461254f5760405162461bcd60e51b815260040161089a90613810565b81516001600160a01b031633141561259c5760405162461bcd60e51b815260206004820152601060248201526f13d5d3915497d0d0539393d517d0925160821b604482015260640161089a565b428260e0015111156125e65760405162461bcd60e51b8152602060048201526013602482015272105550d51253d397d393d517d4d51054951151606a1b604482015260640161089a565b4281116126255760405162461bcd60e51b815260206004820152600d60248201526c105550d51253d397d153911151609a1b604482015260640161089a565b61262e8461226a565b8310156126745760405162461bcd60e51b81526020600482015260146024820152731253959053125117d25394155517d05353d5539560621b604482015260640161089a565b50505050565b612674846323b872dd60e01b85858560405160240161269b939291906136e8565b60408051601f198184030181529190526020810180516001600160e01b03166001600160e01b031990931692909217909152612ec6565b6040516001600160a01b03831660248201526044810182905261270290849063a9059cbb60e01b9060640161269b565b505050565b600081815260046020818152604080842081516101808101835281546001600160a01b0390811682526001808401548216958301959095526002830154169281019290925260038101546060830152928301546080820152600583015460a0820152600683015460c0820152600783015460e082015260088301546101008201526009830154610120820152600a83015484938493909161014084019160ff909116908111156127b9576127b9613b7c565b60018111156127ca576127ca613b7c565b8152602001600a820160019054906101000a900460ff1660028111156127f2576127f2613b7c565b600281111561280357612803613b7c565b815250509050428160e001511161281b57600061282b565b428160e0015161282b9190613b08565b92504281610100015111612840576000612851565b428161010001516128519190613b08565b915050915091565b600580546001600160a01b038381166001600160a01b0319831681179093556040519116919082907f8be0079c531659141344cd1fd0a4f28419497f9722a3daafe3b4186f6b6457e090600090a35050565b6000818152600a602090815260408083208151610140810190925280546001600160a01b03811683529192909190830190600160a01b900460ff1660018111156128f7576128f7613b7c565b600181111561290857612908613b7c565b815260018201546001600160a01b0381166020830152604090910190600160a01b900460ff16600281111561293f5761293f613b7c565b600281111561295057612950613b7c565b815260028201546001600160a01b0381166020830152604090910190600160a01b900460ff16600181111561298757612987613b7c565b600181111561299857612998613b7c565b815260038201546020820152600482015460408201526005820154606082015260069091015460809091015290506000816060015160028111156129de576129de613b7c565b146129fb5760405162461bcd60e51b815260040161089a90613871565b80516001600160a01b0316331415612a485760405162461bcd60e51b815260206004820152601060248201526f4f574e45525f43414e4e4f545f42555960801b604482015260640161089a565b5050565b60026000541415612a6f5760405162461bcd60e51b815260040161089a906138c4565b60026000908155818152600a6020526040902060018082018054600160a11b6001600160a81b031990911660ff60a01b1933161717905560078054909101905560008154600160a01b900460ff166001811115612ace57612ace613b7c565b14612b495760028101546003820154600480840154604051637921219560e11b81526001600160a01b039094169363f242432a93612b12933093339390910161370c565b600060405180830381600087803b158015612b2c57600080fd5b505af1158015612b40573d6000803e3d6000fd5b50505050612bb5565b60028101546003820154604051632142170760e11b81526001600160a01b03909216916342842e0e91612b8291309133916004016136e8565b600060405180830381600087803b158015612b9c57600080fd5b505af1158015612bb0573d6000803e3d6000fd5b505050505b60028101546003820154600583015460405185936001600160a01b0381169333937f25353c877f813e6c285649c847a980aebcdcc579c7d36bee87d6c2f0dfff0bd093612c0c93600160a01b900460ff16906139cc565b60405180910390a450506001600055565b600087815260046020526040812090612c368642613aaf565b90506000612c448683613aaf565b6002840180546001600160a01b038e166001600160a01b031991821617909155600385018b905560078501849055600885018290558454163317845560058401869055600a84018054919250859160ff191660018381811115612ca957612ca9613b7c565b021790555060048301889055600a8301805461ff00191690556040518a906001600160a01b038d169033907f199f73ece82f19f692dcb7db8f91f2527bd3158ffae28e226d7ef02df704353490612d0b908e908e908c908a908a908e90613a2e565b60405180910390a45050505050505050505050565b6003546001600160a01b03600160601b9091048116908216811415612d835760405162461bcd60e51b8152602060048201526019602482015278115c9c9bdc8e88185b1c9958591e481c9958d95a5c1a595b9d603a1b604482015260640161089a565b50600380546001600160a01b03909216600160601b026001600160601b03909216919091179055565b6000868152600a602052604081208054336001600160a01b03199182161782556002820180549091166001600160a01b038b1617905560038101879055600481018690556005810185905560018101805491929160ff60a01b1916600160a01b83021790555080548390829060ff60a01b1916600160a01b836001811115612e3657612e36613b7c565b021790555060028101805483919060ff60a01b1916600160a01b836001811115612e6257612e62613b7c565b021790555042600682015560405187906001600160a01b038a169033907f9d1dabeeddd19bb4a452fec325878c591ae8672c5fa5eecec875ba5aebdfdc4d90612eb4908b908b908b908b908b906139f1565b60405180910390a45050505050505050565b6000612f1b826040518060400160405280602081526020017f5361666545524332303a206c6f772d6c6576656c2063616c6c206661696c6564815250856001600160a01b0316612f989092919063ffffffff16565b8051909150156127025780806020019051810190612f39919061355d565b6127025760405162461bcd60e51b815260206004820152602a60248201527f5361666545524332303a204552433230206f7065726174696f6e20646964206e6044820152691bdd081cdd58d8d9595960b21b606482015260840161089a565b6060612fa78484600085612fb1565b90505b9392505050565b6060824710156130125760405162461bcd60e51b815260206004820152602660248201527f416464726573733a20696e73756666696369656e742062616c616e636520666f6044820152651c8818d85b1b60d21b606482015260840161089a565b6001600160a01b0385163b6130695760405162461bcd60e51b815260206004820152601d60248201527f416464726573733a2063616c6c20746f206e6f6e2d636f6e7472616374000000604482015260640161089a565b600080866001600160a01b0316858760405161308591906136cc565b60006040518083038185875af1925050503d80600081146130c2576040519150601f19603f3d011682016040523d82523d6000602084013e6130c7565b606091505b50915091506113d7828286606083156130e1575081612faa565b8251156130f15782518084602001fd5b8160405162461bcd60e51b815260040161089a91906137b1565b6040805161014081018252600080825260208201819052918101829052606081018290526080810182905260a0810182905260c0810182905260e08101829052610100810182905261012081019190915290565b60405180610180016040528060006001600160a01b0316815260200160006001600160a01b0316815260200160006001600160a01b0316815260200160008152602001600081526020016000815260200160008152602001600081526020016000815260200160008152602001600060018111156131df576131df613b7c565b81526020016000905290565b600082601f8301126131fc57600080fd5b813560206001600160401b0382111561321757613217613ba8565b8160051b613226828201613a7f565b83815282810190868401838801850189101561324157600080fd5b600093505b858410156113d5578035835260019390930192918401918401613246565b600082601f83011261327557600080fd5b81356001600160401b0381111561328e5761328e613ba8565b6132a1601f8201601f1916602001613a7f565b8181528460208386010111156132b657600080fd5b816020850160208301376000918101602001919091529392505050565b6000602082840312156132e557600080fd5b8135612faa81613bce565b60006020828403121561330257600080fd5b8151612faa81613bce565b600080600080600060a0868803121561332557600080fd5b853561333081613bce565b9450602086013561334081613bce565b935060408601356001600160401b038082111561335c57600080fd5b61336889838a016131eb565b9450606088013591508082111561337e57600080fd5b61338a89838a016131eb565b935060808801359150808211156133a057600080fd5b506133ad88828901613264565b9150509295509295909350565b600080600080608085870312156133d057600080fd5b84356133db81613bce565b935060208501356133eb81613bce565b92506040850135915060608501356001600160401b0381111561340d57600080fd5b61341987828801613264565b91505092959194509250565b600080600080600060a0868803121561343d57600080fd5b853561344881613bce565b9450602086013561345881613bce565b9350604086013592506060860135915060808601356001600160401b0381111561348157600080fd5b6133ad88828901613264565b60008060008060008060c087890312156134a657600080fd5b86356134b181613bce565b955060208701359450604087013593506060870135925060808701356134d681613be3565b915060a08701356134e681613be3565b809150509295509295509295565b600080600080600080600060e0888a03121561350f57600080fd5b873561351a81613bce565b96506020880135955060408801359450606088013593506080880135925060a0880135915060c088013561354d81613be3565b8091505092959891949750929550565b60006020828403121561356f57600080fd5b81518015158114612faa57600080fd5b60006020828403121561359157600080fd5b81356001600160e01b031981168114612faa57600080fd5b6000602082840312156135bb57600080fd5b5035919050565b600080604083850312156135d557600080fd5b50508035926020909101359150565b6000602082840312156135f657600080fd5b81356001600160601b0381168114612faa57600080fd5b6001600160a01b03169052565b61362381613bbe565b9052565b6003811061362357613623613b7c565b61364282825161360d565b6020810151613654602084018261361a565b506040810151613667604084018261360d565b50606081015161367a6060840182613627565b50608081015161368d608084018261360d565b5060a08101516136a060a084018261361a565b5060c0818101519083015260e08082015190830152610100808201519083015261012090810151910152565b600082516136de818460208701613b1f565b9190910192915050565b6001600160a01b039384168152919092166020820152604081019190915260600190565b6001600160a01b03858116825284166020820152604081018390526060810182905260a0608082018190526003908201526203078360ec1b60c0820152600060e08201612260565b6020808252825182820181905260009190848201906040850190845b8181101561379757613783838551613637565b928401926101409290920191600101613770565b50909695505050505050565b602081016106098284613627565b60208152600082518060208401526137d0816040850160208701613b1f565b601f01601f19169190910160400192915050565b602080825260129082015271115c9c9bdc8e88185b1c9958591e481cd95d60721b604082015260600190565b602080825260129082015271105550d51253d397d393d517d31254d5115160721b604082015260600190565b6020808252818101527f4f776e61626c653a2063616c6c6572206973206e6f7420746865206f776e6572604082015260600190565b60208082526011908201527013505492d15517d393d517d31254d51151607a1b604082015260600190565b6020808252600e908201526d1253959053125117d05353d5539560921b604082015260600190565b6020808252601f908201527f5265656e7472616e637947756172643a207265656e7472616e742063616c6c00604082015260600190565b60006101808201905061390f82845161360d565b6020830151613921602084018261360d565b506040830151613934604084018261360d565b50606083015160608301526080830151608083015260a083015160a083015260c083015160c083015260e083015160e0830152610100808401518184015250610120808401518184015250610140808401516139928285018261361a565b5050610160808401516139a782850182613627565b505092915050565b61014081016106098284613637565b918252602082015260400190565b83815260208101839052606081016139e383613bbe565b826040830152949350505050565b858152602081018590526040810184905260a08101613a0f84613bbe565b836060830152613a1e83613bbe565b8260808301529695505050505050565b600060c082019050878252866020830152856040830152846060830152836080830152613a5a83613bbe565b8260a0830152979650505050505050565b6001600160601b0391909116815260200190565b604051601f8201601f191681016001600160401b0381118282101715613aa757613aa7613ba8565b604052919050565b60008219821115613ac257613ac2613b66565b500190565b600082613ae457634e487b7160e01b600052601260045260246000fd5b500490565b6000816000190483118215151615613b0357613b03613b66565b500290565b600082821015613b1a57613b1a613b66565b500390565b60005b83811015613b3a578181015183820152602001613b22565b838111156126745750506000910152565b6000600019821415613b5f57613b5f613b66565b5060010190565b634e487b7160e01b600052601160045260246000fd5b634e487b7160e01b600052602160045260246000fd5b634e487b7160e01b600052603260045260246000fd5b634e487b7160e01b600052604160045260246000fd5b60028110611ba857611ba8613b7c565b6001600160a01b0381168114611ba857600080fd5b60028110611ba857600080fdfed31c57ccb8973d46b86c5908906595e79b95be6576719f38633833500aeb0729a164736f6c6343000806000a",
  "linkReferences": {},
  "deployedLinkReferences": {}
}