{
  "_format": "hh-sol-artifact-1",
  "contractName": "RC3_Mall",
  "sourceName": "contracts/RC3_Mall.sol",
  "abi": [
    {
      "anonymous": false,
      "inputs": [
        {
          "indexed": true,
          "internalType": "address",
          "name": "caller",
          "type": "address"
        },
        {
          "indexed": true,
          "internalType": "address",
          "name": "nft",
          "type": "address"
        },
        {
          "indexed": true,
          "internalType": "uint256",
          "name": "auctionId",
          "type": "uint256"
        },
        {
          "indexed": false,
          "internalType": "uint256",
          "name": "tokenID",
          "type": "uint256"
        }
      ],
      "name": "AuctionCancelled",
      "type": "event"
    },
    {
      "anonymous": false,
      "inputs": [
        {
          "indexed": true,
          "internalType": "address",
          "name": "caller",
          "type": "address"
        },
        {
          "indexed": true,
          "internalType": "address",
          "name": "seller",
          "type": "address"
        },
        {
          "indexed": false,
          "internalType": "address",
          "name": "highestBidder",
          "type": "address"
        },
        {
          "indexed": true,
          "internalType": "address",
          "name": "nft",
          "type": "address"
        },
        {
          "indexed": false,
          "internalType": "uint256",
          "name": "auctionId",
          "type": "uint256"
        },
        {
          "indexed": false,
          "internalType": "uint256",
          "name": "tokenId",
          "type": "uint256"
        },
        {
          "indexed": false,
          "internalType": "uint256",
          "name": "amount",
          "type": "uint256"
        },
        {
          "indexed": false,
          "internalType": "uint256",
          "name": "winPrice",
          "type": "uint256"
        }
      ],
      "name": "AuctionResulted",
      "type": "event"
    },
    {
      "anonymous": false,
      "inputs": [
        {
          "indexed": true,
          "internalType": "address",
          "name": "bidder",
          "type": "address"
        },
        {
          "indexed": true,
          "internalType": "address",
          "name": "nft",
          "type": "address"
        },
        {
          "indexed": true,
          "internalType": "uint256",
          "name": "auctionId",
          "type": "uint256"
        },
        {
          "indexed": false,
          "internalType": "uint256",
          "name": "_tokenId",
          "type": "uint256"
        },
        {
          "indexed": false,
          "internalType": "uint256",
          "name": "newEndPeriod",
          "type": "uint256"
        }
      ],
      "name": "AuctionUpdated",
      "type": "event"
    },
    {
      "anonymous": false,
      "inputs": [
        {
          "indexed": true,
          "internalType": "address",
          "name": "sender",
          "type": "address"
        },
        {
          "indexed": true,
          "internalType": "address",
          "name": "feeReceipient",
          "type": "address"
        }
      ],
      "name": "FeeRecipientSet",
      "type": "event"
    },
    {
      "anonymous": false,
      "inputs": [
        {
          "indexed": true,
          "internalType": "address",
          "name": "sender",
          "type": "address"
        },
        {
          "indexed": false,
          "internalType": "uint256",
          "name": "feePercentage",
          "type": "uint256"
        },
        {
          "indexed": true,
          "internalType": "enum RC3_Mall.Asset",
          "name": "asset",
          "type": "uint8"
        }
      ],
      "name": "FeeSet",
      "type": "event"
    },
    {
      "anonymous": false,
      "inputs": [
        {
          "indexed": false,
          "internalType": "uint8",
          "name": "version",
          "type": "uint8"
        }
      ],
      "name": "Initialized",
      "type": "event"
    },
    {
      "anonymous": false,
      "inputs": [
        {
          "indexed": true,
          "internalType": "address",
          "name": "caller",
          "type": "address"
        },
        {
          "indexed": true,
          "internalType": "address",
          "name": "nifty",
          "type": "address"
        },
        {
          "indexed": false,
          "internalType": "uint256",
          "name": "marketId",
          "type": "uint256"
        },
        {
          "indexed": false,
          "internalType": "uint256",
          "name": "tokenId",
          "type": "uint256"
        }
      ],
      "name": "MarketCancelled",
      "type": "event"
    },
    {
      "anonymous": false,
      "inputs": [
        {
          "indexed": true,
          "internalType": "address",
          "name": "caller",
          "type": "address"
        },
        {
          "indexed": true,
          "internalType": "address",
          "name": "seller",
          "type": "address"
        },
        {
          "indexed": true,
          "internalType": "address",
          "name": "nft",
          "type": "address"
        },
        {
          "indexed": false,
          "internalType": "uint256",
          "name": "marketId",
          "type": "uint256"
        },
        {
          "indexed": false,
          "internalType": "uint256",
          "name": "tokenId",
          "type": "uint256"
        },
        {
          "indexed": false,
          "internalType": "uint256",
          "name": "price",
          "type": "uint256"
        },
        {
          "indexed": false,
          "internalType": "enum RC3_Mall.Asset",
          "name": "asset",
          "type": "uint8"
        }
      ],
      "name": "MarketSale",
      "type": "event"
    },
    {
      "anonymous": false,
      "inputs": [
        {
          "indexed": true,
          "internalType": "address",
          "name": "seller",
          "type": "address"
        },
        {
          "indexed": true,
          "internalType": "address",
          "name": "nft",
          "type": "address"
        },
        {
          "indexed": true,
          "internalType": "uint256",
          "name": "auctionId",
          "type": "uint256"
        },
        {
          "indexed": false,
          "internalType": "uint256",
          "name": "tokenId",
          "type": "uint256"
        },
        {
          "indexed": false,
          "internalType": "uint256",
          "name": "amount",
          "type": "uint256"
        },
        {
          "indexed": false,
          "internalType": "uint256",
          "name": "floorPrice",
          "type": "uint256"
        },
        {
          "indexed": false,
          "internalType": "uint256",
          "name": "startPeriod",
          "type": "uint256"
        },
        {
          "indexed": false,
          "internalType": "uint256",
          "name": "endPeriod",
          "type": "uint256"
        },
        {
          "indexed": false,
          "internalType": "enum RC3_Auction.TokenType",
          "name": "tokenType",
          "type": "uint8"
        }
      ],
      "name": "NewAuction",
      "type": "event"
    },
    {
      "anonymous": false,
      "inputs": [
        {
          "indexed": true,
          "internalType": "address",
          "name": "bidder",
          "type": "address"
        },
        {
          "indexed": true,
          "internalType": "address",
          "name": "nft",
          "type": "address"
        },
        {
          "indexed": true,
          "internalType": "uint256",
          "name": "auctionId",
          "type": "uint256"
        },
        {
          "indexed": false,
          "internalType": "uint256",
          "name": "tokenId",
          "type": "uint256"
        },
        {
          "indexed": false,
          "internalType": "uint256",
          "name": "price",
          "type": "uint256"
        }
      ],
      "name": "NewBid",
      "type": "event"
    },
    {
      "anonymous": false,
      "inputs": [
        {
          "indexed": true,
          "internalType": "address",
          "name": "caller",
          "type": "address"
        },
        {
          "indexed": true,
          "internalType": "address",
          "name": "nifty",
          "type": "address"
        },
        {
          "indexed": true,
          "internalType": "uint256",
          "name": "marketId",
          "type": "uint256"
        },
        {
          "indexed": false,
          "internalType": "uint256",
          "name": "tokenId",
          "type": "uint256"
        },
        {
          "indexed": false,
          "internalType": "uint256",
          "name": "amount",
          "type": "uint256"
        },
        {
          "indexed": false,
          "internalType": "uint256",
          "name": "price",
          "type": "uint256"
        },
        {
          "indexed": false,
          "internalType": "enum RC3_Auction.TokenType",
          "name": "tokenType",
          "type": "uint8"
        },
        {
          "indexed": false,
          "internalType": "enum RC3_Mall.Asset",
          "name": "asset",
          "type": "uint8"
        }
      ],
      "name": "NewMarket",
      "type": "event"
    },
    {
      "anonymous": false,
      "inputs": [
        {
          "indexed": true,
          "internalType": "address",
          "name": "previousOwner",
          "type": "address"
        },
        {
          "indexed": true,
          "internalType": "address",
          "name": "newOwner",
          "type": "address"
        }
      ],
      "name": "OwnershipTransferred",
      "type": "event"
    },
    {
      "inputs": [],
      "name": "auctionId",
      "outputs": [
        {
          "internalType": "uint256",
          "name": "_value",
          "type": "uint256"
        }
      ],
      "stateMutability": "view",
      "type": "function"
    },
    {
      "inputs": [],
      "name": "auctionsClosed",
      "outputs": [
        {
          "internalType": "uint256",
          "name": "_value",
          "type": "uint256"
        }
      ],
      "stateMutability": "view",
      "type": "function"
    },
    {
      "inputs": [
        {
          "internalType": "uint256",
          "name": "_auctionId",
          "type": "uint256"
        },
        {
          "internalType": "uint256",
          "name": "_bidAmount",
          "type": "uint256"
        }
      ],
      "name": "bid",
      "outputs": [
        {
          "internalType": "bool",
          "name": "bidded",
          "type": "bool"
        }
      ],
      "stateMutability": "nonpayable",
      "type": "function"
    },
    {
      "inputs": [
        {
          "internalType": "uint256",
          "name": "_auctionId",
          "type": "uint256"
        }
      ],
      "name": "bidTimeRemaining",
      "outputs": [
        {
          "internalType": "uint256",
          "name": "startsIn",
          "type": "uint256"
        },
        {
          "internalType": "uint256",
          "name": "endsIn",
          "type": "uint256"
        }
      ],
      "stateMutability": "view",
      "type": "function"
    },
    {
      "inputs": [
        {
          "internalType": "uint256",
          "name": "_marketId",
          "type": "uint256"
        }
      ],
      "name": "buyWithETH",
      "outputs": [
        {
          "internalType": "bool",
          "name": "bought",
          "type": "bool"
        }
      ],
      "stateMutability": "payable",
      "type": "function"
    },
    {
      "inputs": [
        {
          "internalType": "uint256",
          "name": "_marketId",
          "type": "uint256"
        }
      ],
      "name": "buyWithRCDY",
      "outputs": [
        {
          "internalType": "bool",
          "name": "bought",
          "type": "bool"
        }
      ],
      "stateMutability": "nonpayable",
      "type": "function"
    },
    {
      "inputs": [
        {
          "internalType": "uint256",
          "name": "_auctionId",
          "type": "uint256"
        }
      ],
      "name": "closeBid",
      "outputs": [
        {
          "internalType": "enum RC3_Auction.State",
          "name": "status",
          "type": "uint8"
        }
      ],
      "stateMutability": "nonpayable",
      "type": "function"
    },
    {
      "inputs": [
        {
          "internalType": "uint256",
          "name": "_marketId",
          "type": "uint256"
        }
      ],
      "name": "delistMarket",
      "outputs": [
        {
          "internalType": "enum RC3_Auction.State",
          "name": "status",
          "type": "uint8"
        }
      ],
      "stateMutability": "nonpayable",
      "type": "function"
    },
    {
      "inputs": [],
      "name": "ethFee",
      "outputs": [
        {
          "internalType": "uint96",
          "name": "",
          "type": "uint96"
        }
      ],
      "stateMutability": "view",
      "type": "function"
    },
    {
      "inputs": [],
      "name": "feePercentage",
      "outputs": [
        {
          "internalType": "uint96",
          "name": "",
          "type": "uint96"
        }
      ],
      "stateMutability": "view",
      "type": "function"
    },
    {
      "inputs": [],
      "name": "feeRecipient",
      "outputs": [
        {
          "internalType": "address payable",
          "name": "",
          "type": "address"
        }
      ],
      "stateMutability": "view",
      "type": "function"
    },
    {
      "inputs": [
        {
          "internalType": "uint256",
          "name": "_auctionId",
          "type": "uint256"
        }
      ],
      "name": "getAuction",
      "outputs": [
        {
          "components": [
            {
              "internalType": "address payable",
              "name": "seller",
              "type": "address"
            },
            {
              "internalType": "address payable",
              "name": "highestBidder",
              "type": "address"
            },
            {
              "internalType": "address",
              "name": "nifty",
              "type": "address"
            },
            {
              "internalType": "uint256",
              "name": "tokenId",
              "type": "uint256"
            },
            {
              "internalType": "uint256",
              "name": "tokenAmount",
              "type": "uint256"
            },
            {
              "internalType": "uint256",
              "name": "initialBidAmount",
              "type": "uint256"
            },
            {
              "internalType": "uint256",
              "name": "highestBidAmount",
              "type": "uint256"
            },
            {
              "internalType": "uint256",
              "name": "startPeriod",
              "type": "uint256"
            },
            {
              "internalType": "uint256",
              "name": "endPeriod",
              "type": "uint256"
            },
            {
              "internalType": "uint256",
              "name": "bidCount",
              "type": "uint256"
            },
            {
              "internalType": "enum RC3_Auction.TokenType",
              "name": "tokenType",
              "type": "uint8"
            },
            {
              "internalType": "enum RC3_Auction.State",
              "name": "state",
              "type": "uint8"
            }
          ],
          "internalType": "struct RC3_Auction.Auction",
          "name": "auction_",
          "type": "tuple"
        }
      ],
      "stateMutability": "view",
      "type": "function"
    },
    {
      "inputs": [],
      "name": "getListedMarkets",
      "outputs": [
        {
          "components": [
            {
              "internalType": "address payable",
              "name": "seller",
              "type": "address"
            },
            {
              "internalType": "enum RC3_Auction.TokenType",
              "name": "tokenType",
              "type": "uint8"
            },
            {
              "internalType": "address payable",
              "name": "buyer",
              "type": "address"
            },
            {
              "internalType": "enum RC3_Auction.State",
              "name": "state",
              "type": "uint8"
            },
            {
              "internalType": "address",
              "name": "nifty",
              "type": "address"
            },
            {
              "internalType": "enum RC3_Mall.Asset",
              "name": "asset",
              "type": "uint8"
            },
            {
              "internalType": "uint256",
              "name": "tokenId",
              "type": "uint256"
            },
            {
              "internalType": "uint256",
              "name": "tokenAmount",
              "type": "uint256"
            },
            {
              "internalType": "uint256",
              "name": "price",
              "type": "uint256"
            },
            {
              "internalType": "uint256",
              "name": "listTimestamp",
              "type": "uint256"
            }
          ],
          "internalType": "struct RC3_Mall.Market[]",
          "name": "marketItems",
          "type": "tuple[]"
        }
      ],
      "stateMutability": "view",
      "type": "function"
    },
    {
      "inputs": [
        {
          "internalType": "uint256",
          "name": "_marketId",
          "type": "uint256"
        }
      ],
      "name": "getMarket",
      "outputs": [
        {
          "components": [
            {
              "internalType": "address payable",
              "name": "seller",
              "type": "address"
            },
            {
              "internalType": "enum RC3_Auction.TokenType",
              "name": "tokenType",
              "type": "uint8"
            },
            {
              "internalType": "address payable",
              "name": "buyer",
              "type": "address"
            },
            {
              "internalType": "enum RC3_Auction.State",
              "name": "state",
              "type": "uint8"
            },
            {
              "internalType": "address",
              "name": "nifty",
              "type": "address"
            },
            {
              "internalType": "enum RC3_Mall.Asset",
              "name": "asset",
              "type": "uint8"
            },
            {
              "internalType": "uint256",
              "name": "tokenId",
              "type": "uint256"
            },
            {
              "internalType": "uint256",
              "name": "tokenAmount",
              "type": "uint256"
            },
            {
              "internalType": "uint256",
              "name": "price",
              "type": "uint256"
            },
            {
              "internalType": "uint256",
              "name": "listTimestamp",
              "type": "uint256"
            }
          ],
          "internalType": "struct RC3_Mall.Market",
          "name": "",
          "type": "tuple"
        }
      ],
      "stateMutability": "view",
      "type": "function"
    },
    {
      "inputs": [
        {
          "internalType": "address",
          "name": "_owner",
          "type": "address"
        },
        {
          "internalType": "address",
          "name": "_rcdy",
          "type": "address"
        },
        {
          "internalType": "address payable",
          "name": "_feeReceipient",
          "type": "address"
        },
        {
          "internalType": "uint96",
          "name": "_feeRCDY",
          "type": "uint96"
        },
        {
          "internalType": "uint96",
          "name": "_ethFee",
          "type": "uint96"
        }
      ],
      "name": "initialize",
      "outputs": [],
      "stateMutability": "nonpayable",
      "type": "function"
    },
    {
      "inputs": [
        {
          "internalType": "address",
          "name": "nifty",
          "type": "address"
        },
        {
          "internalType": "uint256",
          "name": "_tokenId",
          "type": "uint256"
        },
        {
          "internalType": "uint256",
          "name": "amount",
          "type": "uint256"
        },
        {
          "internalType": "uint256",
          "name": "_startsIn",
          "type": "uint256"
        },
        {
          "internalType": "uint256",
          "name": "_lastsFor",
          "type": "uint256"
        },
        {
          "internalType": "uint256",
          "name": "_initialBidAmount",
          "type": "uint256"
        },
        {
          "internalType": "enum RC3_Auction.TokenType",
          "name": "_type",
          "type": "uint8"
        }
      ],
      "name": "listAuction",
      "outputs": [
        {
          "internalType": "uint256",
          "name": "auctionId_",
          "type": "uint256"
        }
      ],
      "stateMutability": "nonpayable",
      "type": "function"
    },
    {
      "inputs": [
        {
          "internalType": "address",
          "name": "nifty",
          "type": "address"
        },
        {
          "internalType": "uint256",
          "name": "_tokenId",
          "type": "uint256"
        },
        {
          "internalType": "uint256",
          "name": "amount",
          "type": "uint256"
        },
        {
          "internalType": "uint256",
          "name": "_price",
          "type": "uint256"
        },
        {
          "internalType": "enum RC3_Auction.TokenType",
          "name": "_type",
          "type": "uint8"
        },
        {
          "internalType": "enum RC3_Mall.Asset",
          "name": "_asset",
          "type": "uint8"
        }
      ],
      "name": "listMarket",
      "outputs": [
        {
          "internalType": "uint256",
          "name": "marketId_",
          "type": "uint256"
        }
      ],
      "stateMutability": "nonpayable",
      "type": "function"
    },
    {
      "inputs": [],
      "name": "marketId",
      "outputs": [
        {
          "internalType": "uint256",
          "name": "_value",
          "type": "uint256"
        }
      ],
      "stateMutability": "view",
      "type": "function"
    },
    {
      "inputs": [],
      "name": "marketsDelisted",
      "outputs": [
        {
          "internalType": "uint256",
          "name": "_value",
          "type": "uint256"
        }
      ],
      "stateMutability": "view",
      "type": "function"
    },
    {
      "inputs": [],
      "name": "marketsSold",
      "outputs": [
        {
          "internalType": "uint256",
          "name": "_value",
          "type": "uint256"
        }
      ],
      "stateMutability": "view",
      "type": "function"
    },
    {
      "inputs": [],
      "name": "myTradedNFTs",
      "outputs": [
        {
          "components": [
            {
              "internalType": "address payable",
              "name": "seller",
              "type": "address"
            },
            {
              "internalType": "enum RC3_Auction.TokenType",
              "name": "tokenType",
              "type": "uint8"
            },
            {
              "internalType": "address payable",
              "name": "buyer",
              "type": "address"
            },
            {
              "internalType": "enum RC3_Auction.State",
              "name": "state",
              "type": "uint8"
            },
            {
              "internalType": "address",
              "name": "nifty",
              "type": "address"
            },
            {
              "internalType": "enum RC3_Mall.Asset",
              "name": "asset",
              "type": "uint8"
            },
            {
              "internalType": "uint256",
              "name": "tokenId",
              "type": "uint256"
            },
            {
              "internalType": "uint256",
              "name": "tokenAmount",
              "type": "uint256"
            },
            {
              "internalType": "uint256",
              "name": "price",
              "type": "uint256"
            },
            {
              "internalType": "uint256",
              "name": "listTimestamp",
              "type": "uint256"
            }
          ],
          "internalType": "struct RC3_Mall.Market[]",
          "name": "myNfts",
          "type": "tuple[]"
        }
      ],
      "stateMutability": "view",
      "type": "function"
    },
    {
      "inputs": [
        {
          "internalType": "uint256",
          "name": "_auctionId",
          "type": "uint256"
        }
      ],
      "name": "nextBidAmount",
      "outputs": [
        {
          "internalType": "uint256",
          "name": "amount",
          "type": "uint256"
        }
      ],
      "stateMutability": "view",
      "type": "function"
    },
    {
      "inputs": [
        {
          "internalType": "address",
          "name": "",
          "type": "address"
        },
        {
          "internalType": "address",
          "name": "",
          "type": "address"
        },
        {
          "internalType": "uint256[]",
          "name": "",
          "type": "uint256[]"
        },
        {
          "internalType": "uint256[]",
          "name": "",
          "type": "uint256[]"
        },
        {
          "internalType": "bytes",
          "name": "",
          "type": "bytes"
        }
      ],
      "name": "onERC1155BatchReceived",
      "outputs": [
        {
          "internalType": "bytes4",
          "name": "",
          "type": "bytes4"
        }
      ],
      "stateMutability": "nonpayable",
      "type": "function"
    },
    {
      "inputs": [
        {
          "internalType": "address",
          "name": "",
          "type": "address"
        },
        {
          "internalType": "address",
          "name": "",
          "type": "address"
        },
        {
          "internalType": "uint256",
          "name": "",
          "type": "uint256"
        },
        {
          "internalType": "uint256",
          "name": "",
          "type": "uint256"
        },
        {
          "internalType": "bytes",
          "name": "",
          "type": "bytes"
        }
      ],
      "name": "onERC1155Received",
      "outputs": [
        {
          "internalType": "bytes4",
          "name": "",
          "type": "bytes4"
        }
      ],
      "stateMutability": "nonpayable",
      "type": "function"
    },
    {
      "inputs": [
        {
          "internalType": "address",
          "name": "",
          "type": "address"
        },
        {
          "internalType": "address",
          "name": "",
          "type": "address"
        },
        {
          "internalType": "uint256",
          "name": "",
          "type": "uint256"
        },
        {
          "internalType": "bytes",
          "name": "",
          "type": "bytes"
        }
      ],
      "name": "onERC721Received",
      "outputs": [
        {
          "internalType": "bytes4",
          "name": "",
          "type": "bytes4"
        }
      ],
      "stateMutability": "nonpayable",
      "type": "function"
    },
    {
      "inputs": [],
      "name": "owner",
      "outputs": [
        {
          "internalType": "address",
          "name": "",
          "type": "address"
        }
      ],
      "stateMutability": "view",
      "type": "function"
    },
    {
      "inputs": [],
      "name": "renounceOwnership",
      "outputs": [],
      "stateMutability": "nonpayable",
      "type": "function"
    },
    {
      "inputs": [
        {
          "internalType": "uint96",
          "name": "_newFee",
          "type": "uint96"
        }
      ],
      "name": "setFeeETH",
      "outputs": [],
      "stateMutability": "nonpayable",
      "type": "function"
    },
    {
      "inputs": [
        {
          "internalType": "uint96",
          "name": "_newFee",
          "type": "uint96"
        }
      ],
      "name": "setFeeRCDY",
      "outputs": [],
      "stateMutability": "nonpayable",
      "type": "function"
    },
    {
      "inputs": [
        {
          "internalType": "address payable",
          "name": "_newRecipient",
          "type": "address"
        }
      ],
      "name": "setFeeRecipient",
      "outputs": [],
      "stateMutability": "nonpayable",
      "type": "function"
    },
    {
      "inputs": [
        {
          "internalType": "bytes4",
          "name": "interfaceId",
          "type": "bytes4"
        }
      ],
      "name": "supportsInterface",
      "outputs": [
        {
          "internalType": "bool",
          "name": "",
          "type": "bool"
        }
      ],
      "stateMutability": "view",
      "type": "function"
    },
    {
      "inputs": [
        {
          "internalType": "address",
          "name": "newOwner",
          "type": "address"
        }
      ],
      "name": "transferOwnership",
      "outputs": [],
      "stateMutability": "nonpayable",
      "type": "function"
    },
    {
      "inputs": [],
      "name": "version",
      "outputs": [
        {
          "internalType": "uint256",
          "name": "",
          "type": "uint256"
        }
      ],
      "stateMutability": "pure",
      "type": "function"
    },
    {
      "inputs": [],
      "name": "waitPeriod",
      "outputs": [
        {
          "internalType": "uint256",
          "name": "",
          "type": "uint256"
        }
      ],
      "stateMutability": "view",
      "type": "function"
    }
  ],
  "bytecode": "0x608060405234801561001057600080fd5b50613e67806100206000396000f3fe6080604052600436106101895760003560e01c806301ffc9a71461018e57806304ad187e146101c357806310782f8f146101e5578063150b7a021461020a578063469048401461024e5780634cf1115d1461028657806354fd4d50146102b4578063575ffe7a146102c857806357b3f9d9146102e8578063598647f81461030a5780636cc031241461032a5780636ed71ede14610341578063715018a61461035957806378bd79351461036e5780638da5cb5b1461039b5780638e26c09d146103b0578063932ba8c4146103c757806394dc9cf3146103dc578063a001ecdd146103ef578063ab600c5914610416578063bc197c811461042e578063bd4b04d41461045a578063be5cbdac1461047a578063c00b6bc11461049a578063c2c34cae146104ba578063d846349e146104e7578063db77c20b14610515578063e6084a2614610535578063e74b981b1461054d578063eb44fdd31461056d578063f23a6e611461059a578063f2fde38b146105c6578063f6a89810146105e6578063fe7588ed14610606575b600080fd5b34801561019a57600080fd5b506101ae6101a93660046137b9565b610626565b60405190151581526020015b60405180910390f35b3480156101cf57600080fd5b506101d861065d565b6040516101ba9190613980565b3480156101f157600080fd5b5060fb546101fc9081565b6040519081526020016101ba565b34801561021657600080fd5b506102356102253660046135f4565b630a85bd0160e11b949350505050565b6040516001600160e01b031990911681526020016101ba565b34801561025a57600080fd5b5060fe5461026e906001600160a01b031681565b6040516001600160a01b0390911681526020016101ba565b34801561029257600080fd5b50610167546102a7906001600160601b031681565b6040516101ba9190613cb5565b3480156102c057600080fd5b5060026101fc565b3480156102d457600080fd5b506101fc6102e33660046137e3565b6108b3565b3480156102f457600080fd5b5061030861030336600461381e565b6108be565b005b34801561031657600080fd5b506101ae6103253660046137fc565b610916565b34801561033657600080fd5b5060fc546101fc9081565b34801561034d57600080fd5b50610164546101fc9081565b34801561036557600080fd5b50610308610b1f565b34801561037a57600080fd5b5061038e6103893660046137e3565b610b33565b6040516101ba9190613b3d565b3480156103a757600080fd5b5061026e610c3b565b3480156103bc57600080fd5b506101fc6202a30081565b3480156103d357600080fd5b506101d8610c4b565b6101ae6103ea3660046137e3565b610eab565b3480156103fb57600080fd5b5060fd546102a790600160a01b90046001600160601b031681565b34801561042257600080fd5b50610165546101fc9081565b34801561043a57600080fd5b50610235610449366004613547565b63bc197c8160e01b95945050505050565b34801561046657600080fd5b506101fc61047536600461372e565b61119f565b34801561048657600080fd5b506103086104953660046134dc565b6113ac565b3480156104a657600080fd5b506101ae6104b53660046137e3565b61159f565b3480156104c657600080fd5b506104da6104d53660046137e3565b611763565b6040516101ba91906139cf565b3480156104f357600080fd5b506105076105023660046137e3565b611a24565b6040516101ba929190613c00565b34801561052157600080fd5b5061030861053036600461381e565b611a3a565b34801561054157600080fd5b50610166546101fc9081565b34801561055957600080fd5b506103086105683660046134a2565b611ac4565b34801561057957600080fd5b5061058d6105883660046137e3565b611b21565b6040516101ba9190613bf1565b3480156105a657600080fd5b506102356105b536600461365f565b63f23a6e6160e01b95945050505050565b3480156105d257600080fd5b506103086105e13660046134a2565b611c47565b3480156105f257600080fd5b506104da6106013660046137e3565b611cc0565b34801561061257600080fd5b506101fc6106213660046136c7565b61213b565b60006001600160e01b03198216630271189760e51b148061065757506301ffc9a760e01b6001600160e01b03198316145b92915050565b6060600061066b6101645490565b905060006106796101655490565b610166546106879084613d52565b6106919190613d52565b9050600080826001600160401b038111156106ae576106ae613df2565b6040519080825280602002602001820160405280156106e757816020015b6106d46132be565b8152602001906001900390816106cc5790505b50905060005b848110156108aa5760006101686000610707846001613cf9565b8152602081019190915260400160002060010154600160a01b900460ff16600281111561073657610736613dc6565b14156108985760006101688161074d846001613cf9565b815260208082019290925260409081016000208151610140810190925280546001600160a01b03811683529192909190830190600160a01b900460ff16600181111561079b5761079b613dc6565b60018111156107ac576107ac613dc6565b815260018201546001600160a01b0381166020830152604090910190600160a01b900460ff1660028111156107e3576107e3613dc6565b60028111156107f4576107f4613dc6565b815260028201546001600160a01b0381166020830152604090910190600160a01b900460ff16600181111561082b5761082b613dc6565b600181111561083c5761083c613dc6565b815260200160038201548152602001600482015481526020016005820154815260200160068201548152505090508083858151811061087d5761087d613ddc565b6020026020010181905250838061089390613d95565b945050505b806108a281613d95565b9150506106ed565b50949350505050565b600061065782612346565b6108c66124a1565b6001600160601b0381166108d957600080fd5b6108e281612500565b6001336001600160a01b0316600080516020613e3b8339815191528360405161090b9190613cb5565b60405180910390a350565b6000600260c95414156109445760405162461bcd60e51b815260040161093b90613b06565b60405180910390fd5b600260c95582826109558282612560565b600085815260ff6020526040902060fd5461097b906001600160a01b03163330886127c6565b6009810154156109aa576001810154600682015460fd546109aa926001600160a01b039182169291169061281e565b6001810180546001600160a01b03191633179055600681018590556009810180549060006109d783613d95565b90915550506002810154600382015460405188926001600160a01b03169133917f911d834cc781bcb7a08922b9dd1f1d175c0a0467d9705194c2e200f8ce2786bb91610a24918b90613c00565b60405180910390a46000610a3787612853565b915050610e10811015610b0c57610e10610a5382610258613cf9565b1115610a8357610a6581610e10613d52565b826008016000828254610a789190613cf9565b925050819055610aa0565b610258826008016000828254610a999190613cf9565b9250508190555b506000610aac88612853565b600285015460038601549193508a92506001600160a01b03169033907ff3f8c69115d9f33b41d0ae7a8f88fb8cde222311d82702dc55025079d0eca53a90610af48642613cf9565b604051610b02929190613c00565b60405180910390a4505b6001945050505050600160c95592915050565b610b276124a1565b610b3160006129a2565b565b610b3b613312565b600082815260ff602081815260409283902083516101808101855281546001600160a01b039081168252600180840154821694830194909452600283015416948101949094526003810154606085015260048101546080850152600581015460a0850152600681015460c0850152600781015460e085015260088101546101008501526009810154610120850152600a8101549092610140850192911690811115610be857610be8613dc6565b6001811115610bf957610bf9613dc6565b8152602001600a820160019054906101000a900460ff166002811115610c2157610c21613dc6565b6002811115610c3257610c32613dc6565b90525092915050565b610132546001600160a01b031690565b60606000610c596101645490565b905060008060005b83811015610cbd57336101686000610c7a846001613cf9565b81526020810191909152604001600020600101546001600160a01b03161415610cab5782610ca781613d95565b9350505b80610cb581613d95565b915050610c61565b506000826001600160401b03811115610cd857610cd8613df2565b604051908082528060200260200182016040528015610d1157816020015b610cfe6132be565b815260200190600190039081610cf65790505b50905060005b848110156108aa57600061016881610d30846001613cf9565b815260208082019290925260409081016000208151610140810190925280546001600160a01b03811683529192909190830190600160a01b900460ff166001811115610d7e57610d7e613dc6565b6001811115610d8f57610d8f613dc6565b815260018201546001600160a01b0381166020830152604090910190600160a01b900460ff166002811115610dc657610dc6613dc6565b6002811115610dd757610dd7613dc6565b815260028201546001600160a01b0381166020830152604090910190600160a01b900460ff166001811115610e0e57610e0e613dc6565b6001811115610e1f57610e1f613dc6565b81526020016003820154815260200160048201548152602001600582015481526020016006820154815250509050336001600160a01b031681604001516001600160a01b03161415610e985780838581518110610e7e57610e7e613ddc565b60200260200101819052508380610e9490613d95565b9450505b5080610ea381613d95565b915050610d17565b600081610eb7816129f5565b6000838152610168602090815260408083208151610140810190925280546001600160a01b03811683529192909190830190600160a01b900460ff166001811115610f0457610f04613dc6565b6001811115610f1557610f15613dc6565b815260018201546001600160a01b0381166020830152604090910190600160a01b900460ff166002811115610f4c57610f4c613dc6565b6002811115610f5d57610f5d613dc6565b815260028201546001600160a01b0381166020830152604090910190600160a01b900460ff166001811115610f9457610f94613dc6565b6001811115610fa557610fa5613dc6565b8152600382015460208201526004820154604082015260058201546060820152600690910154608090910152610167546101008201519192506001600160601b031690600090620186a090610ffa9084613d33565b6110049190613d11565b905082610100015134146110535760405162461bcd60e51b81526020600482015260166024820152751253959053125117d410565351539517d05353d5539560521b604482015260640161093b565b60fe546040516000916001600160a01b03169083908381818185875af1925050503d80600081146110a0576040519150601f19603f3d011682016040523d82523d6000602084013e6110a5565b606091505b50509050600084600001516001600160a01b0316838661010001516110ca9190613d52565b604051600081818185875af1925050503d8060008114611106576040519150601f19603f3d011682016040523d82523d6000602084013e61110b565b606091505b505090508180156111195750805b6111885760405162461bcd60e51b815260206004820152603a60248201527f416464726573733a20756e61626c6520746f2073656e642076616c75652c20726044820152791958da5c1a595b9d081b585e481a185d99481c995d995c9d195960321b606482015260840161093b565b61119188612b97565b506001979650505050505050565b60006111af60fb80546001019055565b5060fb54836111f35760405162461bcd60e51b815260206004820152601060248201526f24a72b20a624a22fa22aa920aa24a7a760811b604482015260640161093b565b600082600181111561120757611207613dc6565b1415611308576040516331a9108f60e11b81526004810188905288906000906001600160a01b03831690636352211e9060240160206040518083038186803b15801561125257600080fd5b505afa158015611266573d6000803e3d6000fd5b505050506040513d601f19601f8201168201806040525081019061128a91906134bf565b604051632142170760e11b81529091506001600160a01b038316906342842e0e906112bd90849030908e90600401613914565b600060405180830381600087803b1580156112d757600080fd5b505af11580156112eb573d6000803e3d6000fd5b505050506113018a848b60018b8b8b6000612d70565b50506113a1565b600086116113285760405162461bcd60e51b815260040161093b90613ade565b604051637921219560e11b815288906001600160a01b0382169063f242432a9061135c90339030908d908d90600401613938565b600060405180830381600087803b15801561137657600080fd5b505af115801561138a573d6000803e3d6000fd5b5050505061139f89838a8a8a8a8a6001612d70565b505b979650505050505050565b600054610100900460ff16158080156113cc5750600054600160ff909116105b806113ed57506113db30612e73565b1580156113ed575060005460ff166001145b6114505760405162461bcd60e51b815260206004820152602e60248201527f496e697469616c697a61626c653a20636f6e747261637420697320616c72656160448201526d191e481a5b9a5d1a585b1a5e995960921b606482015260840161093b565b6000805460ff191660011790558015611473576000805461ff0019166101001790555b61016754600160601b900460ff16156114e35760405162461bcd60e51b815260206004820152602c60248201527f4572726f723a20636f6e74726163742068617320616c7265616479206265656e60448201526b081a5b9a5d1a585b1a5e995960a21b606482015260840161093b565b6114eb612e82565b6114f484612eb1565b6114fd83612500565b61016780546001600160601b0319166001600160601b03841617905560fd80546001600160a01b0319166001600160a01b03871617905561153d86611c47565b610167805460ff60601b1916600160601b1790558015611597576000805461ff0019169055604051600181527f7f26b83ff96e1f2b6a682f133852f6798a09c465da95921460cefb38474024989060200160405180910390a15b505050505050565b6000816115ab816129f5565b6000838152610168602090815260408083208151610140810190925280546001600160a01b03811683529192909190830190600160a01b900460ff1660018111156115f8576115f8613dc6565b600181111561160957611609613dc6565b815260018201546001600160a01b0381166020830152604090910190600160a01b900460ff16600281111561164057611640613dc6565b600281111561165157611651613dc6565b815260028201546001600160a01b0381166020830152604090910190600160a01b900460ff16600181111561168857611688613dc6565b600181111561169957611699613dc6565b815260038201546020820152600482015460408201526005820154606082015260069091015460809091015260fd54610100820151919250600160a01b90046001600160601b031690600090620186a0906116f49084613d33565b6116fe9190613d11565b60fe5460fd54919250611720916001600160a01b0390811691339116846127c6565b61174e3384600001518386610100015161173a9190613d52565b60fd546001600160a01b03169291906127c6565b61175786612b97565b50600195945050505050565b6000600260c95414156117885760405162461bcd60e51b815260040161093b90613b06565b600260c981905560008381526101686020526040902060018101549091600160a01b90910460ff16908111156117c0576117c0613dc6565b156117dd5760405162461bcd60e51b815260040161093b90613a68565b80546001600160a01b0316331461182c5760405162461bcd60e51b81526020600482015260136024820152722aa720aaaa2427a924ad22a22fa1a0a62622a960691b604482015260640161093b565b6202a3008160060154426118409190613d52565b10156118815760405162461bcd60e51b815260206004820152601060248201526f10d3d3d317d113d5d397d411549253d160821b604482015260640161093b565b60008154600160a01b900460ff1660018111156118a0576118a0613dc6565b1461192057600281015481546003830154600480850154604051637921219560e11b81526001600160a01b039586169563f242432a956118e99530959190921693919201613938565b600060405180830381600087803b15801561190357600080fd5b505af1158015611917573d6000803e3d6000fd5b50505050611991565b600281015481546003830154604051632142170760e11b81526001600160a01b03938416936342842e0e9361195e9330939290911691600401613914565b600060405180830381600087803b15801561197857600080fd5b505af115801561198c573d6000803e3d6000fd5b505050505b6001818101805460ff60a01b1916600160a01b8302179055506119b961016680546001019055565b600281015460038201546040516001600160a01b039092169133917f1b8533106988126be2d3db59ca29eb634d45d513b5e215053409141b26f8f42e91611a01918891613c00565b60405180910390a36001015460ff600160a01b909104169050600160c955919050565b600080611a3083612853565b9094909350915050565b611a426124a1565b610167546001600160601b03908116908216811415611a735760405162461bcd60e51b815260040161093b90613a10565b61016780546001600160601b0319166001600160601b0384161790556000336001600160a01b0316600080516020613e3b83398151915284604051611ab89190613cb5565b60405180910390a35050565b611acc6124a1565b6001600160a01b038116611adf57600080fd5b611ae881612eb1565b6040516001600160a01b0382169033907f15d80a013f22151bc7246e3bc132e12828cde19de98870475e3fa7084015272190600090a350565b611b296132be565b600082815261016860209081526040918290208251610140810190935280546001600160a01b03811684529091830190600160a01b900460ff166001811115611b7457611b74613dc6565b6001811115611b8557611b85613dc6565b815260018201546001600160a01b0381166020830152604090910190600160a01b900460ff166002811115611bbc57611bbc613dc6565b6002811115611bcd57611bcd613dc6565b815260028201546001600160a01b0381166020830152604090910190600160a01b900460ff166001811115611c0457611c04613dc6565b6001811115611c1557611c15613dc6565b815260038201546020820152600482015460408201526005820154606082015260069091015460809091015292915050565b611c4f6124a1565b6001600160a01b038116611cb45760405162461bcd60e51b815260206004820152602660248201527f4f776e61626c653a206e6577206f776e657220697320746865207a65726f206160448201526564647265737360d01b606482015260840161093b565b611cbd816129a2565b50565b6000600260c9541415611ce55760405162461bcd60e51b815260040161093b90613b06565b600260c955600082815260ff6020526040812090600a820154610100900460ff166002811115611d1757611d17613dc6565b14611d345760405162461bcd60e51b815260040161093b90613a3c565b600080611d4085612853565b91509150816000148015611d52575080155b611d8d5760405162461bcd60e51b815260206004820152600c60248201526b494e56414c49445f54494d4560a01b604482015260640161093b565b600683015480611f03576000600a85015460ff166001811115611db257611db2613dc6565b14611e3257600284015484546003860154600480880154604051637921219560e11b81526001600160a01b039586169563f242432a95611dfb9530959190921693919201613938565b600060405180830381600087803b158015611e1557600080fd5b505af1158015611e29573d6000803e3d6000fd5b50505050611ea3565b600284015484546003860154604051632142170760e11b81526001600160a01b03938416936342842e0e93611e709330939290911691600401613914565b600060405180830381600087803b158015611e8a57600080fd5b505af1158015611e9e573d6000803e3d6000fd5b505050505b600a8401805461ff00191661010017905560028401546003850154604080519182525188926001600160a01b03169133917f57bfd08a841d5d478e4fef268a8b041c65e389dddfa00f8c4a88a9d4fd9bc8249181900360200190a4612113565b60fd54600090620186a090611f29908490600160a01b90046001600160601b0316613d33565b611f339190613d11565b600186015460fe5460fd549293506001600160a01b0391821692611f5c9290811691168461281e565b8554611f88906001600160a01b0316611f758486613d52565b60fd546001600160a01b0316919061281e565b6000600a87015460ff166001811115611fa357611fa3613dc6565b1461201e5760028601546003870154600480890154604051637921219560e11b81526001600160a01b039094169363f242432a93611fe79330938893909101613938565b600060405180830381600087803b15801561200157600080fd5b505af1158015612015573d6000803e3d6000fd5b5050505061208a565b60028601546003870154604051632142170760e11b81526001600160a01b03909216916342842e0e916120579130918691600401613914565b600060405180830381600087803b15801561207157600080fd5b505af1158015612085573d6000803e3d6000fd5b505050505b600a8601805461ff0019166102001790556002860154865460038801546004890154604080516001600160a01b038781168252602082018f9052818301949094526060810192909252608082018890525193821693919092169133917f31c8601b5dd4c4e31751f64d3545cc33889c92681a65811a7f4575b3ae26d5569181900360a00190a450505b61212160fc80546001019055565b505050600a0154600160c955610100900460ff1692915050565b600080841161217c5760405162461bcd60e51b815260206004820152600d60248201526c494e56414c49445f505249434560981b604482015260640161093b565b61218b61016480546001019055565b506101645460008360018111156121a4576121a4613dc6565b14156122a4576040516331a9108f60e11b81526004810187905287906000906001600160a01b03831690636352211e9060240160206040518083038186803b1580156121ef57600080fd5b505afa158015612203573d6000803e3d6000fd5b505050506040513d601f19601f8201168201806040525081019061222791906134bf565b604051632142170760e11b81529091506001600160a01b038316906342842e0e9061225a90849030908d90600401613914565b600060405180830381600087803b15801561227457600080fd5b505af1158015612288573d6000803e3d6000fd5b5050505061229d89848a60018a60008a612f30565b505061233c565b600085116122c45760405162461bcd60e51b815260040161093b90613ade565b604051637921219560e11b815287906001600160a01b0382169063f242432a906122f890339030908c908c90600401613938565b600060405180830381600087803b15801561231257600080fd5b505af1158015612326573d6000803e3d6000fd5b5050505061233a8883898989600189612f30565b505b9695505050505050565b600081815260ff6020818152604080842081516101808101835281546001600160a01b039081168252600180840154821695830195909552600283015416928101929092526003810154606083015260048101546080830152600581015460a0830152600681015460c0830152600781015460e083015260088101546101008301526009810154610120830152600a8101548594929391926101408501929116908111156123f6576123f6613dc6565b600181111561240757612407613dc6565b8152602001600a820160019054906101000a900460ff16600281111561242f5761242f613dc6565b600281111561244057612440613dc6565b90525080519091506001600160a01b0316156124985760c08101518061246b575060a0015192915050565b80620186a061247c82612710613d33565b6124869190613d11565b6124909190613cf9565b949350505050565b50600092915050565b336124aa610c3b565b6001600160a01b031614610b315760405162461bcd60e51b815260206004820181905260248201527f4f776e61626c653a2063616c6c6572206973206e6f7420746865206f776e6572604482015260640161093b565b60fd546001600160601b03600160a01b90910481169082168114156125375760405162461bcd60e51b815260040161093b90613a10565b5060fd80546001600160601b03909216600160a01b026001600160a01b03909216919091179055565b600082815260ff6020818152604080842081516101808101835281546001600160a01b039081168252600180840154821695830195909552600283015416928101929092526003810154606083015260048101546080830152600581015460a0830152600681015460c0830152600781015460e083015260088101546101008301526009810154610120830152600a810154919390926101408501929091169081111561260f5761260f613dc6565b600181111561262057612620613dc6565b8152602001600a820160019054906101000a900460ff16600281111561264857612648613dc6565b600281111561265957612659613dc6565b9052506101008101519091506000826101600151600281111561267e5761267e613dc6565b1461269b5760405162461bcd60e51b815260040161093b90613a3c565b81516001600160a01b03163314156126e85760405162461bcd60e51b815260206004820152601060248201526f13d5d3915497d0d0539393d517d0925160821b604482015260640161093b565b428260e0015111156127325760405162461bcd60e51b8152602060048201526013602482015272105550d51253d397d393d517d4d51054951151606a1b604482015260640161093b565b4281116127715760405162461bcd60e51b815260206004820152600d60248201526c105550d51253d397d153911151609a1b604482015260640161093b565b61277a84612346565b8310156127c05760405162461bcd60e51b81526020600482015260146024820152731253959053125117d25394155517d05353d5539560621b604482015260640161093b565b50505050565b6127c0846323b872dd60e01b8585856040516024016127e793929190613914565b60408051601f198184030181529190526020810180516001600160e01b03166001600160e01b03199093169290921790915261304b565b6040516001600160a01b03831660248201526044810182905261284e90849063a9059cbb60e01b906064016127e7565b505050565b600081815260ff6020818152604080842081516101808101835281546001600160a01b039081168252600180840154821695830195909552600283015416928101929092526003810154606083015260048101546080830152600581015460a0830152600681015460c0830152600781015460e083015260088101546101008301526009810154610120830152600a810154859485946101408501929091169081111561290257612902613dc6565b600181111561291357612913613dc6565b8152602001600a820160019054906101000a900460ff16600281111561293b5761293b613dc6565b600281111561294c5761294c613dc6565b815250509050428160e0015111612964576000612974565b428160e001516129749190613d52565b9250428161010001511161298957600061299a565b4281610100015161299a9190613d52565b915050915091565b61013280546001600160a01b038381166001600160a01b0319831681179093556040519116919082907f8be0079c531659141344cd1fd0a4f28419497f9722a3daafe3b4186f6b6457e090600090a35050565b6000818152610168602090815260408083208151610140810190925280546001600160a01b03811683529192909190830190600160a01b900460ff166001811115612a4257612a42613dc6565b6001811115612a5357612a53613dc6565b815260018201546001600160a01b0381166020830152604090910190600160a01b900460ff166002811115612a8a57612a8a613dc6565b6002811115612a9b57612a9b613dc6565b815260028201546001600160a01b0381166020830152604090910190600160a01b900460ff166001811115612ad257612ad2613dc6565b6001811115612ae357612ae3613dc6565b81526003820154602082015260048201546040820152600582015460608201526006909101546080909101529050600081606001516002811115612b2957612b29613dc6565b14612b465760405162461bcd60e51b815260040161093b90613a68565b80516001600160a01b0316331415612b935760405162461bcd60e51b815260206004820152601060248201526f4f574e45525f43414e4e4f545f42555960801b604482015260640161093b565b5050565b600260c9541415612bba5760405162461bcd60e51b815260040161093b90613b06565b600260c95560008181526101686020526040902060018082018054600160a11b6001600160a81b031990911660ff60a01b193316171790556101658054909101905560008154600160a01b900460ff166001811115612c1b57612c1b613dc6565b14612c965760028101546003820154600480840154604051637921219560e11b81526001600160a01b039094169363f242432a93612c5f9330933393909101613938565b600060405180830381600087803b158015612c7957600080fd5b505af1158015612c8d573d6000803e3d6000fd5b50505050612d02565b60028101546003820154604051632142170760e11b81526001600160a01b03909216916342842e0e91612ccf9130913391600401613914565b600060405180830381600087803b158015612ce957600080fd5b505af1158015612cfd573d6000803e3d6000fd5b505050505b60028101548154600383015460058401546040516001600160a01b038086169594169333937f56b2a9b1ac94b28ddb26557831a4b6a6856e8393f07c912fea3b4b3226b28e7293612d5f938a93600160a01b900460ff1690613c0e565b60405180910390a45050600160c955565b600087815260ff6020526040812090612d898642613cf9565b90506000612d978683613cf9565b6002840180546001600160a01b038e166001600160a01b031991821617909155600385018b905560078501849055600885018290558454163317845560058401869055600a84018054919250859160ff191660018381811115612dfc57612dfc613dc6565b021790555060048301889055600a8301805461ff00191690556040518a906001600160a01b038d169033907f199f73ece82f19f692dcb7db8f91f2527bd3158ffae28e226d7ef02df704353490612e5e908e908e908c908a908a908e90613c78565b60405180910390a45050505050505050505050565b6001600160a01b03163b151590565b600054610100900460ff16612ea95760405162461bcd60e51b815260040161093b90613a93565b610b3161311d565b60fe546001600160a01b03908116908216811415612f0d5760405162461bcd60e51b8152602060048201526019602482015278115c9c9bdc8e88185b1c9958591e481c9958d95a5c1a595b9d603a1b604482015260640161093b565b5060fe80546001600160a01b0319166001600160a01b0392909216919091179055565b6000868152610168602052604081208054336001600160a01b03199182161782556002820180549091166001600160a01b038b1617905560038101879055600481018690556005810185905560018101805491929160ff60a01b1916600160a01b83021790555080548390829060ff60a01b1916600160a01b836001811115612fbb57612fbb613dc6565b021790555060028101805483919060ff60a01b1916600160a01b836001811115612fe757612fe7613dc6565b021790555042600682015560405187906001600160a01b038a169033907f9d1dabeeddd19bb4a452fec325878c591ae8672c5fa5eecec875ba5aebdfdc4d90613039908b908b908b908b908b90613c3b565b60405180910390a45050505050505050565b60006130a0826040518060400160405280602081526020017f5361666545524332303a206c6f772d6c6576656c2063616c6c206661696c6564815250856001600160a01b031661314d9092919063ffffffff16565b80519091501561284e57808060200190518101906130be9190613797565b61284e5760405162461bcd60e51b815260206004820152602a60248201527f5361666545524332303a204552433230206f7065726174696f6e20646964206e6044820152691bdd081cdd58d8d9595960b21b606482015260840161093b565b600054610100900460ff166131445760405162461bcd60e51b815260040161093b90613a93565b610b31336129a2565b606061315c8484600085613166565b90505b9392505050565b6060824710156131c75760405162461bcd60e51b815260206004820152602660248201527f416464726573733a20696e73756666696369656e742062616c616e636520666f6044820152651c8818d85b1b60d21b606482015260840161093b565b6131d085612e73565b61321c5760405162461bcd60e51b815260206004820152601d60248201527f416464726573733a2063616c6c20746f206e6f6e2d636f6e7472616374000000604482015260640161093b565b600080866001600160a01b0316858760405161323891906138f8565b60006040518083038185875af1925050503d8060008114613275576040519150601f19603f3d011682016040523d82523d6000602084013e61327a565b606091505b50915091506113a18282866060831561329457508161315f565b8251156132a45782518084602001fd5b8160405162461bcd60e51b815260040161093b91906139dd565b6040805161014081018252600080825260208201819052918101829052606081018290526080810182905260a0810182905260c0810182905260e08101829052610100810182905261012081019190915290565b60405180610180016040528060006001600160a01b0316815260200160006001600160a01b0316815260200160006001600160a01b03168152602001600081526020016000815260200160008152602001600081526020016000815260200160008152602001600081526020016000600181111561339257613392613dc6565b81526020016000905290565b600082601f8301126133af57600080fd5b813560206001600160401b038211156133ca576133ca613df2565b8160051b6133d9828201613cc9565b8381528281019086840183880185018910156133f457600080fd5b600093505b8584101561139f5780358352600193909301929184019184016133f9565b600082601f83011261342857600080fd5b81356001600160401b0381111561344157613441613df2565b613454601f8201601f1916602001613cc9565b81815284602083860101111561346957600080fd5b816020850160208301376000918101602001919091529392505050565b80356001600160601b038116811461349d57600080fd5b919050565b6000602082840312156134b457600080fd5b813561315f81613e18565b6000602082840312156134d157600080fd5b815161315f81613e18565b600080600080600060a086880312156134f457600080fd5b85356134ff81613e18565b9450602086013561350f81613e18565b9350604086013561351f81613e18565b925061352d60608701613486565b915061353b60808701613486565b90509295509295909350565b600080600080600060a0868803121561355f57600080fd5b853561356a81613e18565b9450602086013561357a81613e18565b935060408601356001600160401b038082111561359657600080fd5b6135a289838a0161339e565b945060608801359150808211156135b857600080fd5b6135c489838a0161339e565b935060808801359150808211156135da57600080fd5b506135e788828901613417565b9150509295509295909350565b6000806000806080858703121561360a57600080fd5b843561361581613e18565b9350602085013561362581613e18565b92506040850135915060608501356001600160401b0381111561364757600080fd5b61365387828801613417565b91505092959194509250565b600080600080600060a0868803121561367757600080fd5b853561368281613e18565b9450602086013561369281613e18565b9350604086013592506060860135915060808601356001600160401b038111156136bb57600080fd5b6135e788828901613417565b60008060008060008060c087890312156136e057600080fd5b86356136eb81613e18565b9550602087013594506040870135935060608701359250608087013561371081613e2d565b915060a087013561372081613e2d565b809150509295509295509295565b600080600080600080600060e0888a03121561374957600080fd5b873561375481613e18565b96506020880135955060408801359450606088013593506080880135925060a0880135915060c088013561378781613e2d565b8091505092959891949750929550565b6000602082840312156137a957600080fd5b8151801515811461315f57600080fd5b6000602082840312156137cb57600080fd5b81356001600160e01b03198116811461315f57600080fd5b6000602082840312156137f557600080fd5b5035919050565b6000806040838503121561380f57600080fd5b50508035926020909101359150565b60006020828403121561383057600080fd5b61315f82613486565b6001600160a01b03169052565b61384f81613e08565b9052565b6003811061384f5761384f613dc6565b61386e828251613839565b60208101516138806020840182613846565b5060408101516138936040840182613839565b5060608101516138a66060840182613853565b5060808101516138b96080840182613839565b5060a08101516138cc60a0840182613846565b5060c0818101519083015260e08082015190830152610100808201519083015261012090810151910152565b6000825161390a818460208701613d69565b9190910192915050565b6001600160a01b039384168152919092166020820152604081019190915260600190565b6001600160a01b03858116825284166020820152604081018390526060810182905260a0608082018190526003908201526203078360ec1b60c0820152600060e0820161233c565b6020808252825182820181905260009190848201906040850190845b818110156139c3576139af838551613863565b92840192610140929092019160010161399c565b50909695505050505050565b602081016106578284613853565b60208152600082518060208401526139fc816040850160208701613d69565b601f01601f19169190910160400192915050565b602080825260129082015271115c9c9bdc8e88185b1c9958591e481cd95d60721b604082015260600190565b602080825260129082015271105550d51253d397d393d517d31254d5115160721b604082015260600190565b60208082526011908201527013505492d15517d393d517d31254d51151607a1b604082015260600190565b6020808252602b908201527f496e697469616c697a61626c653a20636f6e7472616374206973206e6f74206960408201526a6e697469616c697a696e6760a81b606082015260800190565b6020808252600e908201526d1253959053125117d05353d5539560921b604082015260600190565b6020808252601f908201527f5265656e7472616e637947756172643a207265656e7472616e742063616c6c00604082015260600190565b600061018082019050613b51828451613839565b6020830151613b636020840182613839565b506040830151613b766040840182613839565b50606083015160608301526080830151608083015260a083015160a083015260c083015160c083015260e083015160e083015261010080840151818401525061012080840151818401525061014080840151613bd482850182613846565b505061016080840151613be982850182613853565b505092915050565b61014081016106578284613863565b918252602082015260400190565b848152602081018490526040810183905260808101613c2c83613e08565b82606083015295945050505050565b858152602081018590526040810184905260a08101613c5984613e08565b836060830152613c6883613e08565b8260808301529695505050505050565b600060c082019050878252866020830152856040830152846060830152836080830152613ca483613e08565b8260a0830152979650505050505050565b6001600160601b0391909116815260200190565b604051601f8201601f191681016001600160401b0381118282101715613cf157613cf1613df2565b604052919050565b60008219821115613d0c57613d0c613db0565b500190565b600082613d2e57634e487b7160e01b600052601260045260246000fd5b500490565b6000816000190483118215151615613d4d57613d4d613db0565b500290565b600082821015613d6457613d64613db0565b500390565b60005b83811015613d84578181015183820152602001613d6c565b838111156127c05750506000910152565b6000600019821415613da957613da9613db0565b5060010190565b634e487b7160e01b600052601160045260246000fd5b634e487b7160e01b600052602160045260246000fd5b634e487b7160e01b600052603260045260246000fd5b634e487b7160e01b600052604160045260246000fd5b60028110611cbd57611cbd613dc6565b6001600160a01b0381168114611cbd57600080fd5b60028110611cbd57600080fdfed31c57ccb8973d46b86c5908906595e79b95be6576719f38633833500aeb0729a164736f6c6343000806000a",
  "linkReferences": {},
  "deployedLinkReferences": {}
}