{
  "_format": "hh-sol-artifact-1",
  "contractName": "RC3_Mall",
  "sourceName": "contracts/RC3_Mall.sol",
  "abi": [
    {
      "inputs": [
        {
          "internalType": "address",
          "name": "_rcdy",
          "type": "address"
        },
        {
          "internalType": "address payable",
          "name": "_feeReceipient",
          "type": "address"
        },
        {
          "internalType": "uint96",
          "name": "_feeRCDY",
          "type": "uint96"
        },
        {
          "internalType": "uint96",
          "name": "_ethFee",
          "type": "uint96"
        }
      ],
      "stateMutability": "nonpayable",
      "type": "constructor"
    },
    {
      "anonymous": false,
      "inputs": [
        {
          "indexed": true,
          "internalType": "address",
          "name": "caller",
          "type": "address"
        },
        {
          "indexed": true,
          "internalType": "address",
          "name": "nft",
          "type": "address"
        },
        {
          "indexed": true,
          "internalType": "uint256",
          "name": "auctionId",
          "type": "uint256"
        },
        {
          "indexed": false,
          "internalType": "uint256",
          "name": "tokenID",
          "type": "uint256"
        }
      ],
      "name": "AuctionCancelled",
      "type": "event"
    },
    {
      "anonymous": false,
      "inputs": [
        {
          "indexed": true,
          "internalType": "address",
          "name": "caller",
          "type": "address"
        },
        {
          "indexed": false,
          "internalType": "address",
          "name": "seller",
          "type": "address"
        },
        {
          "indexed": false,
          "internalType": "address",
          "name": "highestBidder",
          "type": "address"
        },
        {
          "indexed": true,
          "internalType": "address",
          "name": "nft",
          "type": "address"
        },
        {
          "indexed": true,
          "internalType": "uint256",
          "name": "auctionId",
          "type": "uint256"
        },
        {
          "indexed": false,
          "internalType": "uint256",
          "name": "tokenId",
          "type": "uint256"
        },
        {
          "indexed": false,
          "internalType": "uint256",
          "name": "amount",
          "type": "uint256"
        },
        {
          "indexed": false,
          "internalType": "uint256",
          "name": "winPrice",
          "type": "uint256"
        }
      ],
      "name": "AuctionResulted",
      "type": "event"
    },
    {
      "anonymous": false,
      "inputs": [
        {
          "indexed": true,
          "internalType": "address",
          "name": "caller",
          "type": "address"
        },
        {
          "indexed": true,
          "internalType": "address",
          "name": "nft",
          "type": "address"
        },
        {
          "indexed": true,
          "internalType": "uint256",
          "name": "auctionId",
          "type": "uint256"
        },
        {
          "indexed": false,
          "internalType": "uint256",
          "name": "_tokenId",
          "type": "uint256"
        },
        {
          "indexed": false,
          "internalType": "uint256",
          "name": "newEndPeriod",
          "type": "uint256"
        }
      ],
      "name": "AuctionUpdated",
      "type": "event"
    },
    {
      "anonymous": false,
      "inputs": [
        {
          "indexed": true,
          "internalType": "address",
          "name": "creator",
          "type": "address"
        },
        {
          "indexed": false,
          "internalType": "address",
          "name": "token",
          "type": "address"
        },
        {
          "indexed": false,
          "internalType": "enum RC3_Auction.TokenType",
          "name": "tokenType",
          "type": "uint8"
        },
        {
          "indexed": false,
          "internalType": "uint256",
          "name": "royalty",
          "type": "uint256"
        }
      ],
      "name": "Created",
      "type": "event"
    },
    {
      "anonymous": false,
      "inputs": [
        {
          "indexed": true,
          "internalType": "address",
          "name": "creator",
          "type": "address"
        },
        {
          "indexed": true,
          "internalType": "address",
          "name": "nft",
          "type": "address"
        },
        {
          "indexed": true,
          "internalType": "uint256",
          "name": "auctionId",
          "type": "uint256"
        },
        {
          "indexed": false,
          "internalType": "uint256",
          "name": "tokenId",
          "type": "uint256"
        },
        {
          "indexed": false,
          "internalType": "uint256",
          "name": "newEndTime",
          "type": "uint256"
        }
      ],
      "name": "EndTimeUpdated",
      "type": "event"
    },
    {
      "anonymous": false,
      "inputs": [
        {
          "indexed": true,
          "internalType": "address",
          "name": "sender",
          "type": "address"
        },
        {
          "indexed": false,
          "internalType": "address",
          "name": "feeReceipient",
          "type": "address"
        }
      ],
      "name": "FeeReceipientSet",
      "type": "event"
    },
    {
      "anonymous": false,
      "inputs": [
        {
          "indexed": true,
          "internalType": "address",
          "name": "sender",
          "type": "address"
        },
        {
          "indexed": false,
          "internalType": "uint256",
          "name": "feePercentage",
          "type": "uint256"
        },
        {
          "indexed": false,
          "internalType": "enum RC3_Mall.Asset",
          "name": "asset",
          "type": "uint8"
        }
      ],
      "name": "FeeSet",
      "type": "event"
    },
    {
      "anonymous": false,
      "inputs": [
        {
          "indexed": true,
          "internalType": "address",
          "name": "caller",
          "type": "address"
        },
        {
          "indexed": true,
          "internalType": "address",
          "name": "nifty",
          "type": "address"
        },
        {
          "indexed": false,
          "internalType": "uint256",
          "name": "marketId",
          "type": "uint256"
        },
        {
          "indexed": false,
          "internalType": "uint256",
          "name": "tokenId",
          "type": "uint256"
        }
      ],
      "name": "MarketCancelled",
      "type": "event"
    },
    {
      "anonymous": false,
      "inputs": [
        {
          "indexed": true,
          "internalType": "address",
          "name": "caller",
          "type": "address"
        },
        {
          "indexed": true,
          "internalType": "address",
          "name": "nifty",
          "type": "address"
        },
        {
          "indexed": true,
          "internalType": "uint256",
          "name": "marketId",
          "type": "uint256"
        },
        {
          "indexed": false,
          "internalType": "uint256",
          "name": "tokenId",
          "type": "uint256"
        },
        {
          "indexed": false,
          "internalType": "uint256",
          "name": "price",
          "type": "uint256"
        },
        {
          "indexed": false,
          "internalType": "enum RC3_Mall.Asset",
          "name": "asset",
          "type": "uint8"
        }
      ],
      "name": "MarketSale",
      "type": "event"
    },
    {
      "anonymous": false,
      "inputs": [
        {
          "indexed": true,
          "internalType": "address",
          "name": "seller",
          "type": "address"
        },
        {
          "indexed": true,
          "internalType": "address",
          "name": "nft",
          "type": "address"
        },
        {
          "indexed": true,
          "internalType": "uint256",
          "name": "auctionId",
          "type": "uint256"
        },
        {
          "indexed": false,
          "internalType": "uint256",
          "name": "tokenId",
          "type": "uint256"
        },
        {
          "indexed": false,
          "internalType": "uint256",
          "name": "amount",
          "type": "uint256"
        },
        {
          "indexed": false,
          "internalType": "uint256",
          "name": "floorPrice",
          "type": "uint256"
        },
        {
          "indexed": false,
          "internalType": "uint256",
          "name": "startPeriod",
          "type": "uint256"
        },
        {
          "indexed": false,
          "internalType": "uint256",
          "name": "endPeriod",
          "type": "uint256"
        },
        {
          "indexed": false,
          "internalType": "enum RC3_Auction.TokenType",
          "name": "tokenType",
          "type": "uint8"
        }
      ],
      "name": "NewAuction",
      "type": "event"
    },
    {
      "anonymous": false,
      "inputs": [
        {
          "indexed": true,
          "internalType": "address",
          "name": "bidder",
          "type": "address"
        },
        {
          "indexed": true,
          "internalType": "address",
          "name": "nft",
          "type": "address"
        },
        {
          "indexed": true,
          "internalType": "uint256",
          "name": "auctionId",
          "type": "uint256"
        },
        {
          "indexed": false,
          "internalType": "uint256",
          "name": "tokenId",
          "type": "uint256"
        },
        {
          "indexed": false,
          "internalType": "uint256",
          "name": "price",
          "type": "uint256"
        }
      ],
      "name": "NewBid",
      "type": "event"
    },
    {
      "anonymous": false,
      "inputs": [
        {
          "indexed": true,
          "internalType": "address",
          "name": "caller",
          "type": "address"
        },
        {
          "indexed": true,
          "internalType": "address",
          "name": "nifty",
          "type": "address"
        },
        {
          "indexed": true,
          "internalType": "uint256",
          "name": "marketId",
          "type": "uint256"
        },
        {
          "indexed": false,
          "internalType": "uint256",
          "name": "tokenId",
          "type": "uint256"
        },
        {
          "indexed": false,
          "internalType": "uint256",
          "name": "amount",
          "type": "uint256"
        },
        {
          "indexed": false,
          "internalType": "uint256",
          "name": "price",
          "type": "uint256"
        },
        {
          "indexed": false,
          "internalType": "enum RC3_Auction.TokenType",
          "name": "tokenType",
          "type": "uint8"
        },
        {
          "indexed": false,
          "internalType": "enum RC3_Mall.Asset",
          "name": "asset",
          "type": "uint8"
        }
      ],
      "name": "NewMarket",
      "type": "event"
    },
    {
      "anonymous": false,
      "inputs": [
        {
          "indexed": true,
          "internalType": "address",
          "name": "previousOwner",
          "type": "address"
        },
        {
          "indexed": true,
          "internalType": "address",
          "name": "newOwner",
          "type": "address"
        }
      ],
      "name": "OwnershipTransferred",
      "type": "event"
    },
    {
      "inputs": [],
      "name": "auctionId",
      "outputs": [
        {
          "internalType": "uint256",
          "name": "_value",
          "type": "uint256"
        }
      ],
      "stateMutability": "view",
      "type": "function"
    },
    {
      "inputs": [],
      "name": "auctionsClosed",
      "outputs": [
        {
          "internalType": "uint256",
          "name": "_value",
          "type": "uint256"
        }
      ],
      "stateMutability": "view",
      "type": "function"
    },
    {
      "inputs": [
        {
          "internalType": "uint256",
          "name": "_auctionId",
          "type": "uint256"
        },
        {
          "internalType": "uint256",
          "name": "_bidAmount",
          "type": "uint256"
        }
      ],
      "name": "bid",
      "outputs": [
        {
          "internalType": "bool",
          "name": "bidded",
          "type": "bool"
        }
      ],
      "stateMutability": "nonpayable",
      "type": "function"
    },
    {
      "inputs": [
        {
          "internalType": "uint256",
          "name": "_auctionId",
          "type": "uint256"
        }
      ],
      "name": "bidTimeRemaining",
      "outputs": [
        {
          "internalType": "uint256",
          "name": "startsIn",
          "type": "uint256"
        },
        {
          "internalType": "uint256",
          "name": "endsIn",
          "type": "uint256"
        }
      ],
      "stateMutability": "view",
      "type": "function"
    },
    {
      "inputs": [
        {
          "internalType": "uint256",
          "name": "_marketId",
          "type": "uint256"
        }
      ],
      "name": "buyWithETH",
      "outputs": [
        {
          "internalType": "bool",
          "name": "bought",
          "type": "bool"
        }
      ],
      "stateMutability": "payable",
      "type": "function"
    },
    {
      "inputs": [
        {
          "internalType": "uint256",
          "name": "_marketId",
          "type": "uint256"
        }
      ],
      "name": "buyWithRCDY",
      "outputs": [
        {
          "internalType": "bool",
          "name": "bought",
          "type": "bool"
        }
      ],
      "stateMutability": "nonpayable",
      "type": "function"
    },
    {
      "inputs": [
        {
          "internalType": "uint256",
          "name": "_auctionId",
          "type": "uint256"
        }
      ],
      "name": "closeBid",
      "outputs": [
        {
          "internalType": "enum RC3_Auction.State",
          "name": "status",
          "type": "uint8"
        }
      ],
      "stateMutability": "nonpayable",
      "type": "function"
    },
    {
      "inputs": [
        {
          "internalType": "enum RC3_Auction.TokenType",
          "name": "_type",
          "type": "uint8"
        },
        {
          "internalType": "string",
          "name": "_name",
          "type": "string"
        },
        {
          "internalType": "string",
          "name": "_symbol",
          "type": "string"
        },
        {
          "internalType": "string",
          "name": "_uri",
          "type": "string"
        },
        {
          "internalType": "uint96",
          "name": "_royalty",
          "type": "uint96"
        }
      ],
      "name": "createNFT",
      "outputs": [
        {
          "internalType": "address",
          "name": "createdAddr",
          "type": "address"
        }
      ],
      "stateMutability": "nonpayable",
      "type": "function"
    },
    {
      "inputs": [
        {
          "internalType": "uint256",
          "name": "_marketId",
          "type": "uint256"
        }
      ],
      "name": "delistMarket",
      "outputs": [
        {
          "internalType": "enum RC3_Auction.State",
          "name": "status",
          "type": "uint8"
        }
      ],
      "stateMutability": "nonpayable",
      "type": "function"
    },
    {
      "inputs": [],
      "name": "ethFee",
      "outputs": [
        {
          "internalType": "uint96",
          "name": "",
          "type": "uint96"
        }
      ],
      "stateMutability": "view",
      "type": "function"
    },
    {
      "inputs": [],
      "name": "feePercentage",
      "outputs": [
        {
          "internalType": "uint96",
          "name": "",
          "type": "uint96"
        }
      ],
      "stateMutability": "view",
      "type": "function"
    },
    {
      "inputs": [],
      "name": "feeReceipient",
      "outputs": [
        {
          "internalType": "address payable",
          "name": "",
          "type": "address"
        }
      ],
      "stateMutability": "view",
      "type": "function"
    },
    {
      "inputs": [
        {
          "internalType": "uint256",
          "name": "_auctionId",
          "type": "uint256"
        }
      ],
      "name": "getAuction",
      "outputs": [
        {
          "components": [
            {
              "internalType": "address payable",
              "name": "seller",
              "type": "address"
            },
            {
              "internalType": "address payable",
              "name": "highestBidder",
              "type": "address"
            },
            {
              "internalType": "address",
              "name": "nifty",
              "type": "address"
            },
            {
              "internalType": "uint256",
              "name": "tokenId",
              "type": "uint256"
            },
            {
              "internalType": "uint256",
              "name": "tokenAmount",
              "type": "uint256"
            },
            {
              "internalType": "uint256",
              "name": "initialBidAmount",
              "type": "uint256"
            },
            {
              "internalType": "uint256",
              "name": "highestBidAmount",
              "type": "uint256"
            },
            {
              "internalType": "uint256",
              "name": "startPeriod",
              "type": "uint256"
            },
            {
              "internalType": "uint256",
              "name": "endPeriod",
              "type": "uint256"
            },
            {
              "internalType": "uint256",
              "name": "bidCount",
              "type": "uint256"
            },
            {
              "internalType": "enum RC3_Auction.TokenType",
              "name": "tokenType",
              "type": "uint8"
            },
            {
              "internalType": "enum RC3_Auction.State",
              "name": "state",
              "type": "uint8"
            }
          ],
          "internalType": "struct RC3_Auction.Auction",
          "name": "",
          "type": "tuple"
        }
      ],
      "stateMutability": "view",
      "type": "function"
    },
    {
      "inputs": [],
      "name": "getListLength",
      "outputs": [
        {
          "internalType": "uint256",
          "name": "",
          "type": "uint256"
        }
      ],
      "stateMutability": "view",
      "type": "function"
    },
    {
      "inputs": [],
      "name": "getListedMarkets",
      "outputs": [
        {
          "components": [
            {
              "internalType": "address payable",
              "name": "seller",
              "type": "address"
            },
            {
              "internalType": "address payable",
              "name": "buyer",
              "type": "address"
            },
            {
              "internalType": "address",
              "name": "nifty",
              "type": "address"
            },
            {
              "internalType": "uint256",
              "name": "tokenId",
              "type": "uint256"
            },
            {
              "internalType": "uint256",
              "name": "tokenAmount",
              "type": "uint256"
            },
            {
              "internalType": "uint256",
              "name": "price",
              "type": "uint256"
            },
            {
              "internalType": "enum RC3_Auction.TokenType",
              "name": "tokenType",
              "type": "uint8"
            },
            {
              "internalType": "enum RC3_Auction.State",
              "name": "state",
              "type": "uint8"
            },
            {
              "internalType": "enum RC3_Mall.Asset",
              "name": "asset",
              "type": "uint8"
            }
          ],
          "internalType": "struct RC3_Mall.Market[]",
          "name": "marketItems",
          "type": "tuple[]"
        }
      ],
      "stateMutability": "view",
      "type": "function"
    },
    {
      "inputs": [],
      "name": "getLists",
      "outputs": [
        {
          "internalType": "address[]",
          "name": "",
          "type": "address[]"
        }
      ],
      "stateMutability": "view",
      "type": "function"
    },
    {
      "inputs": [
        {
          "internalType": "uint256",
          "name": "_marketId",
          "type": "uint256"
        }
      ],
      "name": "getMarket",
      "outputs": [
        {
          "components": [
            {
              "internalType": "address payable",
              "name": "seller",
              "type": "address"
            },
            {
              "internalType": "address payable",
              "name": "buyer",
              "type": "address"
            },
            {
              "internalType": "address",
              "name": "nifty",
              "type": "address"
            },
            {
              "internalType": "uint256",
              "name": "tokenId",
              "type": "uint256"
            },
            {
              "internalType": "uint256",
              "name": "tokenAmount",
              "type": "uint256"
            },
            {
              "internalType": "uint256",
              "name": "price",
              "type": "uint256"
            },
            {
              "internalType": "enum RC3_Auction.TokenType",
              "name": "tokenType",
              "type": "uint8"
            },
            {
              "internalType": "enum RC3_Auction.State",
              "name": "state",
              "type": "uint8"
            },
            {
              "internalType": "enum RC3_Mall.Asset",
              "name": "asset",
              "type": "uint8"
            }
          ],
          "internalType": "struct RC3_Mall.Market",
          "name": "",
          "type": "tuple"
        }
      ],
      "stateMutability": "view",
      "type": "function"
    },
    {
      "inputs": [
        {
          "internalType": "address",
          "name": "nifty",
          "type": "address"
        },
        {
          "internalType": "uint256",
          "name": "_tokenId",
          "type": "uint256"
        },
        {
          "internalType": "uint256",
          "name": "amount",
          "type": "uint256"
        },
        {
          "internalType": "uint256",
          "name": "_startsIn",
          "type": "uint256"
        },
        {
          "internalType": "uint256",
          "name": "_lastsFor",
          "type": "uint256"
        },
        {
          "internalType": "uint256",
          "name": "_initialBidAmount",
          "type": "uint256"
        },
        {
          "internalType": "enum RC3_Auction.TokenType",
          "name": "_type",
          "type": "uint8"
        }
      ],
      "name": "listAuction",
      "outputs": [
        {
          "internalType": "uint256",
          "name": "auctionId_",
          "type": "uint256"
        }
      ],
      "stateMutability": "nonpayable",
      "type": "function"
    },
    {
      "inputs": [
        {
          "internalType": "address",
          "name": "nifty",
          "type": "address"
        },
        {
          "internalType": "uint256",
          "name": "_tokenId",
          "type": "uint256"
        },
        {
          "internalType": "uint256",
          "name": "amount",
          "type": "uint256"
        },
        {
          "internalType": "uint256",
          "name": "_price",
          "type": "uint256"
        },
        {
          "internalType": "enum RC3_Auction.TokenType",
          "name": "_type",
          "type": "uint8"
        },
        {
          "internalType": "enum RC3_Mall.Asset",
          "name": "_asset",
          "type": "uint8"
        }
      ],
      "name": "listMarket",
      "outputs": [
        {
          "internalType": "uint256",
          "name": "marketId_",
          "type": "uint256"
        }
      ],
      "stateMutability": "nonpayable",
      "type": "function"
    },
    {
      "inputs": [],
      "name": "marketId",
      "outputs": [
        {
          "internalType": "uint256",
          "name": "_value",
          "type": "uint256"
        }
      ],
      "stateMutability": "view",
      "type": "function"
    },
    {
      "inputs": [],
      "name": "marketsDelisted",
      "outputs": [
        {
          "internalType": "uint256",
          "name": "_value",
          "type": "uint256"
        }
      ],
      "stateMutability": "view",
      "type": "function"
    },
    {
      "inputs": [],
      "name": "marketsSold",
      "outputs": [
        {
          "internalType": "uint256",
          "name": "_value",
          "type": "uint256"
        }
      ],
      "stateMutability": "view",
      "type": "function"
    },
    {
      "inputs": [],
      "name": "myTradedNFTs",
      "outputs": [
        {
          "components": [
            {
              "internalType": "address payable",
              "name": "seller",
              "type": "address"
            },
            {
              "internalType": "address payable",
              "name": "buyer",
              "type": "address"
            },
            {
              "internalType": "address",
              "name": "nifty",
              "type": "address"
            },
            {
              "internalType": "uint256",
              "name": "tokenId",
              "type": "uint256"
            },
            {
              "internalType": "uint256",
              "name": "tokenAmount",
              "type": "uint256"
            },
            {
              "internalType": "uint256",
              "name": "price",
              "type": "uint256"
            },
            {
              "internalType": "enum RC3_Auction.TokenType",
              "name": "tokenType",
              "type": "uint8"
            },
            {
              "internalType": "enum RC3_Auction.State",
              "name": "state",
              "type": "uint8"
            },
            {
              "internalType": "enum RC3_Mall.Asset",
              "name": "asset",
              "type": "uint8"
            }
          ],
          "internalType": "struct RC3_Mall.Market[]",
          "name": "myNfts",
          "type": "tuple[]"
        }
      ],
      "stateMutability": "view",
      "type": "function"
    },
    {
      "inputs": [
        {
          "internalType": "uint256",
          "name": "_auctionId",
          "type": "uint256"
        }
      ],
      "name": "nextBidAmount",
      "outputs": [
        {
          "internalType": "uint256",
          "name": "amount",
          "type": "uint256"
        }
      ],
      "stateMutability": "view",
      "type": "function"
    },
    {
      "inputs": [],
      "name": "owner",
      "outputs": [
        {
          "internalType": "address",
          "name": "",
          "type": "address"
        }
      ],
      "stateMutability": "view",
      "type": "function"
    },
    {
      "inputs": [],
      "name": "renounceOwnership",
      "outputs": [],
      "stateMutability": "nonpayable",
      "type": "function"
    },
    {
      "inputs": [
        {
          "internalType": "uint96",
          "name": "_newFee",
          "type": "uint96"
        }
      ],
      "name": "setFeeETH",
      "outputs": [],
      "stateMutability": "nonpayable",
      "type": "function"
    },
    {
      "inputs": [
        {
          "internalType": "uint96",
          "name": "_newFee",
          "type": "uint96"
        }
      ],
      "name": "setFeeRCDY",
      "outputs": [],
      "stateMutability": "nonpayable",
      "type": "function"
    },
    {
      "inputs": [
        {
          "internalType": "address payable",
          "name": "_newReceipient",
          "type": "address"
        }
      ],
      "name": "setFeeReceipient",
      "outputs": [],
      "stateMutability": "nonpayable",
      "type": "function"
    },
    {
      "inputs": [
        {
          "internalType": "address",
          "name": "newOwner",
          "type": "address"
        }
      ],
      "name": "transferOwnership",
      "outputs": [],
      "stateMutability": "nonpayable",
      "type": "function"
    },
    {
      "inputs": [
        {
          "internalType": "uint256",
          "name": "_auctionId",
          "type": "uint256"
        },
        {
          "internalType": "uint256",
          "name": "_endsIn",
          "type": "uint256"
        }
      ],
      "name": "updateEndTime",
      "outputs": [
        {
          "internalType": "bool",
          "name": "updated",
          "type": "bool"
        }
      ],
      "stateMutability": "nonpayable",
      "type": "function"
    }
  ],
  "bytecode": "0x60a06040523480156200001157600080fd5b506040516200acba3803806200acba833981016040819052620000349162000314565b836200004033620000b4565b60018055600280546001600160a01b0319166001600160a01b038316179055610c3560a51b608052620000733362000104565b506200007f83620001d9565b6200008a826200027d565b600b80546001600160601b0319166001600160601b0392909216919091179055506200038c915050565b600080546001600160a01b038381166001600160a01b0319831681178455604051919092169283917f8be0079c531659141344cd1fd0a4f28419497f9722a3daafe3b4186f6b6457e09190a35050565b6000546001600160a01b03163314620001645760405162461bcd60e51b815260206004820181905260248201527f4f776e61626c653a2063616c6c6572206973206e6f7420746865206f776e657260448201526064015b60405180910390fd5b6001600160a01b038116620001cb5760405162461bcd60e51b815260206004820152602660248201527f4f776e61626c653a206e6577206f776e657220697320746865207a65726f206160448201526564647265737360d01b60648201526084016200015b565b620001d681620000b4565b50565b6005546001600160a01b036c0100000000000000000000000090910481169082168114156200024b5760405162461bcd60e51b815260206004820152601960248201527f4572726f723a20616c72656164792072656365697069656e740000000000000060448201526064016200015b565b50600580546001600160a01b039092166c01000000000000000000000000026001600160601b03909216919091179055565b6005546001600160601b03908116908216811415620002d45760405162461bcd60e51b8152602060048201526012602482015271115c9c9bdc8e88185b1c9958591e481cd95d60721b60448201526064016200015b565b50600580546001600160601b0319166001600160601b0392909216919091179055565b80516001600160601b03811681146200030f57600080fd5b919050565b600080600080608085870312156200032b57600080fd5b8451620003388162000376565b60208601519094506200034b8162000376565b92506200035b60408601620002f7565b91506200036b60608601620002f7565b905092959194509250565b6001600160a01b0381168114620001d657600080fd5b60805160a01c61a908620003b2600039600081816129b201526131b4015261a9086000f3fe608060405260043610620001885760003560e01c806304ad187e146200018d57806310782f8f14620001bd5780633740ebb314620001e55780634b48f20d146200021d5780634cf1115d1462000244578063575ffe7a146200027f57806357b3f9d914620002a4578063598647f814620002c95780636cc0312414620002ff5780636ed71ede1462000318578063715018a6146200033157806378bd793514620003495780638da5cb5b146200037d578063932ba8c41462000395578063943864c614620003ad57806394dc9cf314620003d2578063a001ecdd14620003e9578063ab600c59146200040b578063b65c531b1462000424578063bd4b04d4146200043b578063c00b6bc11462000460578063c2c34cae1462000485578063cb4b090914620004b9578063d846349e14620004e0578063db77c20b1462000515578063e44542df146200053a578063e6084a26146200055f578063eb44fdd31462000578578063f2fde38b14620005ac578063f6a8981014620005d1578063fe7588ed14620005f6575b600080fd5b3480156200019a57600080fd5b50620001a56200061b565b604051620001b4919062003e6f565b60405180910390f35b348015620001ca57600080fd5b50600354620001d69081565b604051908152602001620001b4565b348015620001f257600080fd5b506005546200020e90600160601b90046001600160a01b031681565b604051620001b4919062003d4c565b3480156200022a57600080fd5b50620002426200023c366004620039cf565b6200088e565b005b3480156200025157600080fd5b50600b5462000266906001600160601b031681565b6040516001600160601b039091168152602001620001b4565b3480156200028c57600080fd5b50620001d66200029e36600462003bcf565b6200091c565b348015620002b157600080fd5b5062000242620002c336600462003c26565b6200092f565b348015620002d657600080fd5b50620002ee620002e836600462003c03565b6200099b565b6040519015158152602001620001b4565b3480156200030c57600080fd5b50600454620001d69081565b3480156200032557600080fd5b50600754620001d69081565b3480156200033e57600080fd5b506200024262000f1d565b3480156200035657600080fd5b506200036e6200036836600462003bcf565b62000f5f565b604051620001b4919062004179565b3480156200038a57600080fd5b506200020e62001075565b348015620003a257600080fd5b50620001a562001084565b348015620003ba57600080fd5b506200020e620003cc36600462003b16565b620012fb565b620002ee620003e336600462003bcf565b6200149b565b348015620003f657600080fd5b5060055462000266906001600160601b031681565b3480156200041857600080fd5b50600854620001d69081565b3480156200043157600080fd5b50600a54620001d6565b3480156200044857600080fd5b50620001d66200045a36600462003a84565b620018ca565b3480156200046d57600080fd5b50620002ee6200047f36600462003bcf565b62001bc1565b3480156200049257600080fd5b50620004aa620004a436600462003bcf565b620020d3565b604051620001b4919062003eb6565b348015620004c657600080fd5b50620004d16200233d565b604051620001b4919062003e20565b348015620004ed57600080fd5b5062000505620004ff36600462003bcf565b620023a1565b604051620001b492919062004248565b3480156200052257600080fd5b50620002426200053436600462003c26565b620023b8565b3480156200054757600080fd5b50620002ee6200055936600462003c03565b6200246c565b3480156200056c57600080fd5b50600954620001d69081565b3480156200058557600080fd5b506200059d6200059736600462003bcf565b6200255a565b604051620001b4919062004237565b348015620005b957600080fd5b5062000242620005cb366004620039cf565b6200267c565b348015620005de57600080fd5b50620004aa620005f036600462003bcf565b62002725565b3480156200060357600080fd5b50620001d66200061536600462003a16565b62002ceb565b606060006200062960075490565b905060006200063760085490565b60095462000646908462004385565b62000652919062004385565b9050600080826001600160401b03811115620006725762000672620043ff565b604051908082528060200260200182016040528015620006af57816020015b6200069b62003828565b815260200190600190039081620006915790505b50905060005b8481101562000885576001600c6000620006d184600162004325565b8152602081019190915260400160002060060154610100900460ff166003811115620007015762000701620043d3565b141562000870576000600c816200071a84600162004325565b8152602080820192909252604090810160002081516101208101835281546001600160a01b039081168252600180840154821695830195909552600283015416928101929092526003810154606083015260048101546080830152600581015460a083015260068101549192909160c084019160ff90911690811115620007a557620007a5620043d3565b6001811115620007b957620007b9620043d3565b81526020016006820160019054906101000a900460ff166003811115620007e457620007e4620043d3565b6003811115620007f857620007f8620043d3565b81526020016006820160029054906101000a900460ff166001811115620008235762000823620043d3565b6001811115620008375762000837620043d3565b81525050905080838581518110620008535762000853620043e9565b602002602001018190525083806200086b906200439f565b945050505b806200087c816200439f565b915050620006b5565b50949350505050565b336200089962001075565b6001600160a01b031614620008cb5760405162461bcd60e51b8152600401620008c2906200408d565b60405180910390fd5b620008d68162002fea565b336001600160a01b03167f09c5c63a1cac0bbadee1a6db15d14ffec5fdb4437fce5e61d61a5790d03590b18260405162000911919062003d4c565b60405180910390a250565b6000620009298262003078565b92915050565b336200093a62001075565b6001600160a01b031614620009635760405162461bcd60e51b8152600401620008c2906200408d565b6200096e816200320b565b336001600160a01b03166000805160206200a89c83398151915282600160405162000911929190620042fd565b600060026001541415620009c35760405162461bcd60e51b8152600401620008c29062004142565b60026001818155600085815260066020818152604080842081516101808101835281546001600160a01b0390811682528288015481169482019490945296810154909216908601526003810154606086015260048101546080860152600581015460a08601529081015460c0850152600781015460e085015260088101546101008501526009810154610120850152600a8101548794929361014084019160ff169081111562000a775762000a77620043d3565b600181111562000a8b5762000a8b620043d3565b8152602001600a820160019054906101000a900460ff16600381111562000ab65762000ab6620043d3565b600381111562000aca5762000aca620043d3565b9052506101008101519091506001826101600151600381111562000af25762000af2620043d3565b1462000b125760405162461bcd60e51b8152600401620008c2906200400d565b81516001600160a01b031633141562000b615760405162461bcd60e51b815260206004820152601060248201526f13d5d3915497d0d0539393d517d0925160821b6044820152606401620008c2565b8062000ba45760405162461bcd60e51b8152602060048201526011602482015270105550d51253d397d393d517d1561254d5607a1b6044820152606401620008c2565b428260e00151111562000bcb5760405162461bcd60e51b8152600401620008c290620040ed565b42811162000c0c5760405162461bcd60e51b815260206004820152600d60248201526c105550d51253d397d153911151609a1b6044820152606401620008c2565b600086815260066020526040902062000c258762003078565b86101562000c665760405162461bcd60e51b815260206004820152600d60248201526c1253959053125117d253941555609a1b6044820152606401620008c2565b6002546040516323b872dd60e01b81526001600160a01b03909116906323b872dd9062000c9c90339030908b9060040162003d79565b602060405180830381600087803b15801562000cb757600080fd5b505af115801562000ccc573d6000803e3d6000fd5b505050506040513d601f19601f8201168201806040525081019062000cf2919062003af2565b5060098101541562000d93576002546001820154600683015460405163a9059cbb60e01b81526001600160a01b039384169363a9059cbb9362000d3b9391169160040162003d60565b602060405180830381600087803b15801562000d5657600080fd5b505af115801562000d6b573d6000803e3d6000fd5b505050506040513d601f19601f8201168201806040525081019062000d91919062003af2565b505b6001810180546001600160a01b031916331790556006810186905560098101805490600062000dc2836200439f565b90915550506002810154600382015460405189926001600160a01b03169133917f911d834cc781bcb7a08922b9dd1f1d175c0a0467d9705194c2e200f8ce2786bb9162000e11918c9062004248565b60405180910390a4600062000e268862003261565b915050610e1081101562000f0c57610e1062000e458261025862004325565b111562000e7b5762000e5a81610e1062004385565b82600801600082825462000e6f919062004325565b92505081905562000e9a565b61025882600801600082825462000e93919062004325565b9250508190555b50600062000ea88962003261565b600285015460038601549193508b92506001600160a01b03169033907ff3f8c69115d9f33b41d0ae7a8f88fb8cde222311d82702dc55025079d0eca53a9062000ef2864262004325565b60405162000f0292919062004248565b60405180910390a4505b505060018080559695505050505050565b3362000f2862001075565b6001600160a01b03161462000f515760405162461bcd60e51b8152600401620008c2906200408d565b62000f5d6000620033c7565b565b62000f6962003873565b60008281526006602081815260409283902083516101808101855281546001600160a01b039081168252600180840154821694830194909452600283015416948101949094526003810154606085015260048101546080850152600581015460a08501529182015460c0840152600782015460e084015260088201546101008401526009820154610120840152600a82015461014084019160ff90911690811115620010195762001019620043d3565b60018111156200102d576200102d620043d3565b8152602001600a820160019054906101000a900460ff166003811115620010585762001058620043d3565b60038111156200106c576200106c620043d3565b90525092915050565b6000546001600160a01b031690565b606060006200109260075490565b905060008060005b83811015620010fe5733600c6000620010b584600162004325565b81526020810191909152604001600020600101546001600160a01b03161415620010e95782620010e5816200439f565b9350505b80620010f5816200439f565b9150506200109a565b506000826001600160401b038111156200111c576200111c620043ff565b6040519080825280602002602001820160405280156200115957816020015b6200114562003828565b8152602001906001900390816200113b5790505b50905060005b8481101562000885576000600c816200117a84600162004325565b8152602080820192909252604090810160002081516101208101835281546001600160a01b039081168252600180840154821695830195909552600283015416928101929092526003810154606083015260048101546080830152600581015460a083015260068101549192909160c084019160ff90911690811115620012055762001205620043d3565b6001811115620012195762001219620043d3565b81526020016006820160019054906101000a900460ff166003811115620012445762001244620043d3565b6003811115620012585762001258620043d3565b81526020016006820160029054906101000a900460ff166001811115620012835762001283620043d3565b6001811115620012975762001297620043d3565b90525060208101519091506001600160a01b0316331415620012e55780838581518110620012c957620012c9620043e9565b60200260200101819052508380620012e1906200439f565b9450505b5080620012f2816200439f565b9150506200115f565b60006001866001811115620013145762001314620043d3565b1415620013d8576000858585856040516200132f9062003902565b6200133e949392919062003f31565b604051809103906000f0801580156200135b573d6000803e3d6000fd5b50600a80546001810182556000919091526000805160206200a8bc8339815191520180546001600160a01b0319166001600160a01b0383161790559150819050336001600160a01b03166000805160206200a8dc833981519152838986604051620013c99392919062003de6565b60405180910390a25062001492565b60008585853386604051620013ed9062003910565b620013fd95949392919062003ec6565b604051809103906000f0801580156200141a573d6000803e3d6000fd5b50600a80546001810182556000919091526000805160206200a8bc8339815191520180546001600160a01b0319166001600160a01b0383161790559150819050336001600160a01b03166000805160206200a8dc833981519152838986604051620014889392919062003de6565b60405180910390a2505b95945050505050565b6000818152600c60209081526040808320600681015482516101208101845282546001600160a01b039081168252600180850154821696830196909652600284015416938101939093526003820154606084015260048201546080840152600582015460a0840152859360ff62010000830481169487949093909260c085019290911690811115620015315762001531620043d3565b6001811115620015455762001545620043d3565b81526020016006820160019054906101000a900460ff166003811115620015705762001570620043d3565b6003811115620015845762001584620043d3565b81526020016006820160029054906101000a900460ff166001811115620015af57620015af620043d3565b6001811115620015c357620015c3620043d3565b905250905060018160e001516003811115620015e357620015e3620043d3565b14620016035760405162461bcd60e51b8152600401620008c290620040c2565b80516001600160a01b0316331415620016305760405162461bcd60e51b8152600401620008c29062004039565b816001811115620016455762001645620043d3565b81610100015160018111156200165f576200165f620043d3565b146200167f5760405162461bcd60e51b8152600401620008c29062003fb8565b6000858152600c6020908152604080832081516101208101835281546001600160a01b039081168252600180840154821695830195909552600283015416928101929092526003810154606083015260048101546080830152600581015460a083015260068101549192909160c084019160ff90911690811115620017085762001708620043d3565b60018111156200171c576200171c620043d3565b81526020016006820160019054906101000a900460ff166003811115620017475762001747620043d3565b60038111156200175b576200175b620043d3565b81526020016006820160029054906101000a900460ff166001811115620017865762001786620043d3565b60018111156200179a576200179a620043d3565b905250600b5460a08201519192506001600160601b031690600090620186a090620017c6908462004363565b620017d2919062004340565b90508260a001513414620018225760405162461bcd60e51b81526020600482015260166024820152751253959053125117d410565351539517d05353d5539560521b6044820152606401620008c2565b600554604051600160601b9091046001600160a01b0316906108fc8315029083906000818181858888f1935050505015801562001863573d6000803e3d6000fd5b5082600001516001600160a01b03166108fc828560a0015162001887919062004385565b6040518115909202916000818181858888f19350505050158015620018b0573d6000803e3d6000fd5b50620018bc8862003417565b506001979650505050505050565b6000620018db600380546001019055565b5060035483620019215760405162461bcd60e51b815260206004820152601060248201526f24a72b20a624a22fa22aa920aa24a7a760811b6044820152606401620008c2565b6000826001811115620019385762001938620043d3565b141562001a6f576040516331a9108f60e11b81526004810188905288906000906001600160a01b03831690636352211e9060240160206040518083038186803b1580156200198557600080fd5b505afa1580156200199a573d6000803e3d6000fd5b505050506040513d601f19601f82011682018060405250810190620019c09190620039f6565b90506001600160a01b0381163314620019ed5760405162461bcd60e51b8152600401620008c29062004063565b604051632142170760e11b81526001600160a01b038316906342842e0e9062001a1f90849030908e9060040162003d79565b600060405180830381600087803b15801562001a3a57600080fd5b505af115801562001a4f573d6000803e3d6000fd5b5050505062001a678a848b60018b8b8b600062003608565b505062001bb6565b6000861162001a925760405162461bcd60e51b8152600401620008c2906200411a565b604051627eeac760e11b8152889087906001600160a01b0383169062fdd58e9062001ac49033908d9060040162003d60565b60206040518083038186803b15801562001add57600080fd5b505afa15801562001af2573d6000803e3d6000fd5b505050506040513d601f19601f8201168201806040525081019062001b18919062003be9565b101562001b395760405162461bcd60e51b8152600401620008c29062003f8a565b604051637921219560e11b81526001600160a01b0382169063f242432a9062001b6d90339030908d908d9060040162003d9d565b600060405180830381600087803b15801562001b8857600080fd5b505af115801562001b9d573d6000803e3d6000fd5b5050505062001bb489838a8a8a8a8a600162003608565b505b979650505050505050565b6000818152600c60209081526040808320600681015482516101208101845282546001600160a01b039081168252600180850154821696830196909652600284015416938101939093526003820154606084015260048201546080840152600582015460a0840152859360ff62010000830481169487949093909260c08501929091169081111562001c575762001c57620043d3565b600181111562001c6b5762001c6b620043d3565b81526020016006820160019054906101000a900460ff16600381111562001c965762001c96620043d3565b600381111562001caa5762001caa620043d3565b81526020016006820160029054906101000a900460ff16600181111562001cd55762001cd5620043d3565b600181111562001ce95762001ce9620043d3565b905250905060018160e00151600381111562001d095762001d09620043d3565b1462001d295760405162461bcd60e51b8152600401620008c290620040c2565b80516001600160a01b031633141562001d565760405162461bcd60e51b8152600401620008c29062004039565b81600181111562001d6b5762001d6b620043d3565b816101000151600181111562001d855762001d85620043d3565b1462001da55760405162461bcd60e51b8152600401620008c29062003fb8565b6000858152600c6020908152604080832081516101208101835281546001600160a01b039081168252600180840154821695830195909552600283015416928101929092526003810154606083015260048101546080830152600581015460a083015260068101549192909160c084019160ff9091169081111562001e2e5762001e2e620043d3565b600181111562001e425762001e42620043d3565b81526020016006820160019054906101000a900460ff16600381111562001e6d5762001e6d620043d3565b600381111562001e815762001e81620043d3565b81526020016006820160029054906101000a900460ff16600181111562001eac5762001eac620043d3565b600181111562001ec05762001ec0620043d3565b90525060055460a08201519192506001600160601b031690600090620186a09062001eec908462004363565b62001ef8919062004340565b6002546005546040516323b872dd60e01b81529293506001600160a01b03918216926323b872dd9262001f3e923392600160601b90910490911690869060040162003d79565b602060405180830381600087803b15801562001f5957600080fd5b505af115801562001f6e573d6000803e3d6000fd5b505050506040513d601f19601f8201168201806040525081019062001f94919062003af2565b62001fd95760405162461bcd60e51b81526020600482015260146024820152732322a2afa1a7a62622a1aa24a7a72fa2a92927a960611b6044820152606401620008c2565b600254835160a08501516001600160a01b03909216916323b872dd9133916200200490869062004385565b6040518463ffffffff1660e01b8152600401620020249392919062003d79565b602060405180830381600087803b1580156200203f57600080fd5b505af115801562002054573d6000803e3d6000fd5b505050506040513d601f19601f820116820180604052508101906200207a919062003af2565b620020c85760405162461bcd60e51b815260206004820152601d60248201527f41534b494e475f50524943455f434f4c4c454354494f4e5f4552524f520000006044820152606401620008c2565b620018bc8862003417565b600060026001541415620020fb5760405162461bcd60e51b8152600401620008c29062004142565b60026001556000828152600c602052604090206006810154610100900460ff1660038111156200212f576200212f620043d3565b600114620021515760405162461bcd60e51b8152600401620008c290620040c2565b80546001600160a01b03163314620021a25760405162461bcd60e51b81526020600482015260136024820152722aa720aaaa2427a924ad22a22fa1a0a62622a960691b6044820152606401620008c2565b6000600682015460ff166001811115620021c057620021c0620043d3565b146200224657600281015481546003830154600480850154604051637921219560e11b81526001600160a01b039586169563f242432a956200220c953095919092169391920162003d9d565b600060405180830381600087803b1580156200222757600080fd5b505af11580156200223c573d6000803e3d6000fd5b50505050620022bb565b600281015481546003830154604051632142170760e11b81526001600160a01b03938416936342842e0e9362002286933093929091169160040162003d79565b600060405180830381600087803b158015620022a157600080fd5b505af1158015620022b6573d6000803e3d6000fd5b505050505b60068101805461ff001916610200179055600980546001019055600281015460038201546040516001600160a01b039092169133917f1b8533106988126be2d3db59ca29eb634d45d513b5e215053409141b26f8f42e916200231f91889162004248565b60405180910390a36006015460018055610100900460ff1692915050565b6060600a8054806020026020016040519081016040528092919081815260200182805480156200239757602002820191906000526020600020905b81546001600160a01b0316815260019091019060200180831162002378575b5050505050905090565b600080620023af8362003261565b91509150915091565b33620023c362001075565b6001600160a01b031614620023ec5760405162461bcd60e51b8152600401620008c2906200408d565b600b546001600160601b039081169082168114156200241f5760405162461bcd60e51b8152600401620008c29062003fe1565b600b80546001600160601b0319166001600160601b03841617905560405133906000805160206200a89c8339815191529062002460908590600090620042fd565b60405180910390a25050565b600082815260066020526040812080546001600160a01b03163314620024c35760405162461bcd60e51b815260206004820152600b60248201526a27a7262cafa9a2a62622a960a91b6044820152606401620008c2565b4281600701541115620024ea5760405162461bcd60e51b8152600401620008c290620040ed565b620024f6834262004325565b600882018190556002820154600383015460405187936001600160a01b039093169233927fef21c10270bf7c06ec6bdcbcb5a9b3eadf05a5426cfe77d674388eb1c05751499262002548929062004248565b60405180910390a45060019392505050565b6200256462003828565b6000828152600c602090815260409182902082516101208101845281546001600160a01b039081168252600180840154821694830194909452600283015416938101939093526003810154606084015260048101546080840152600581015460a08401526006810154909160c084019160ff1690811115620025ea57620025ea620043d3565b6001811115620025fe57620025fe620043d3565b81526020016006820160019054906101000a900460ff166003811115620026295762002629620043d3565b60038111156200263d576200263d620043d3565b81526020016006820160029054906101000a900460ff166001811115620026685762002668620043d3565b60018111156200106c576200106c620043d3565b336200268762001075565b6001600160a01b031614620026b05760405162461bcd60e51b8152600401620008c2906200408d565b6001600160a01b038116620027175760405162461bcd60e51b815260206004820152602660248201527f4f776e61626c653a206e6577206f776e657220697320746865207a65726f206160448201526564647265737360d01b6064820152608401620008c2565b6200272281620033c7565b50565b6000600260015414156200274d5760405162461bcd60e51b8152600401620008c29062004142565b60026001908155600083815260066020526040902090600a820154610100900460ff166003811115620027845762002784620043d3565b14620027a45760405162461bcd60e51b8152600401620008c2906200400d565b600080620027b28562003261565b9150915081600014620027d95760405162461bcd60e51b8152600401620008c290620040ed565b80156200281d5760405162461bcd60e51b8152602060048201526011602482015270105550d51253d397d393d517d153911151607a1b6044820152606401620008c2565b600683015480620029a2576000600a85015460ff166001811115620028465762002846620043d3565b14620028cc57600284015484546003860154600480880154604051637921219560e11b81526001600160a01b039586169563f242432a9562002892953095919092169391920162003d9d565b600060405180830381600087803b158015620028ad57600080fd5b505af1158015620028c2573d6000803e3d6000fd5b5050505062002941565b600284015484546003860154604051632142170760e11b81526001600160a01b03938416936342842e0e936200290c933093929091169160040162003d79565b600060405180830381600087803b1580156200292757600080fd5b505af11580156200293c573d6000803e3d6000fd5b505050505b600a8401805461ff00191661020017905560028401546003850154604080519182525188926001600160a01b03169133917f57bfd08a841d5d478e4fef268a8b041c65e389dddfa00f8c4a88a9d4fd9bc8249181900360200190a462002cc3565b6005546000906001600160601b037f0000000000000000000000000000000000000000000000000000000000000000811691620029e29185911662004363565b620029ee919062004340565b600186015460025460055460405163a9059cbb60e01b81529394506001600160a01b03928316939183169263a9059cbb9262002a3a92600160601b900490911690869060040162003d60565b602060405180830381600087803b15801562002a5557600080fd5b505af115801562002a6a573d6000803e3d6000fd5b505050506040513d601f19601f8201168201806040525081019062002a90919062003af2565b5060025486546001600160a01b039182169163a9059cbb911662002ab5858762004385565b6040518363ffffffff1660e01b815260040162002ad492919062003d60565b602060405180830381600087803b15801562002aef57600080fd5b505af115801562002b04573d6000803e3d6000fd5b505050506040513d601f19601f8201168201806040525081019062002b2a919062003af2565b506000600a87015460ff16600181111562002b495762002b49620043d3565b1462002bca5760028601546003870154600480890154604051637921219560e11b81526001600160a01b039094169363f242432a9362002b90933093889390910162003d9d565b600060405180830381600087803b15801562002bab57600080fd5b505af115801562002bc0573d6000803e3d6000fd5b5050505062002c3a565b60028601546003870154604051632142170760e11b81526001600160a01b03909216916342842e0e9162002c05913091869160040162003d79565b600060405180830381600087803b15801562002c2057600080fd5b505af115801562002c35573d6000803e3d6000fd5b505050505b600a8601805461030061ff00199091161790556002860154865460038801546004890154604080516001600160a01b0394851681528685166020820152908101929092526060820152608081018690528a92919091169033907f31c8601b5dd4c4e31751f64d3545cc33889c92681a65811a7f4575b3ae26d5569060a00160405180910390a450505b62002cd2600480546001019055565b505050600a015460018055610100900460ff1692915050565b600080841162002d3a5760405162461bcd60e51b815260206004820152601960248201527805072696365206d757374206265206d6f7265207468616e203603c1b6044820152606401620008c2565b62002d49600780546001019055565b50600754600083600181111562002d645762002d64620043d3565b141562002e9a576040516331a9108f60e11b81526004810187905287906000906001600160a01b03831690636352211e9060240160206040518083038186803b15801562002db157600080fd5b505afa15801562002dc6573d6000803e3d6000fd5b505050506040513d601f19601f8201168201806040525081019062002dec9190620039f6565b90506001600160a01b038116331462002e195760405162461bcd60e51b8152600401620008c29062004063565b604051632142170760e11b81526001600160a01b038316906342842e0e9062002e4b90849030908d9060040162003d79565b600060405180830381600087803b15801562002e6657600080fd5b505af115801562002e7b573d6000803e3d6000fd5b5050505062002e9289848a60018a60008a62003718565b505062002fe0565b6000851162002ebd5760405162461bcd60e51b8152600401620008c2906200411a565b604051627eeac760e11b8152879086906001600160a01b0383169062fdd58e9062002eef9033908c9060040162003d60565b60206040518083038186803b15801562002f0857600080fd5b505afa15801562002f1d573d6000803e3d6000fd5b505050506040513d601f19601f8201168201806040525081019062002f43919062003be9565b101562002f645760405162461bcd60e51b8152600401620008c29062003f8a565b604051637921219560e11b81526001600160a01b0382169063f242432a9062002f9890339030908c908c9060040162003d9d565b600060405180830381600087803b15801562002fb357600080fd5b505af115801562002fc8573d6000803e3d6000fd5b5050505062002fde888389898960018962003718565b505b9695505050505050565b6005546001600160a01b03600160601b90910481169082168114156200304f5760405162461bcd60e51b8152602060048201526019602482015278115c9c9bdc8e88185b1c9958591e481c9958d95a5c1a595b9d603a1b6044820152606401620008c2565b50600580546001600160a01b03909216600160601b026001600160601b03909216919091179055565b600081815260066020818152604080842081516101808101835281546001600160a01b039081168252600180840154821695830195909552600283015416928101929092526003810154606083015260048101546080830152600581015460a08301529283015460c0820152600783015460e082015260088301546101008201526009830154610120820152600a8301548493919261014084019160ff1690811115620031295762003129620043d3565b60018111156200313d576200313d620043d3565b8152602001600a820160019054906101000a900460ff166003811115620031685762003168620043d3565b60038111156200317c576200317c620043d3565b90525080519091506001600160a01b031615620032025760c081015180620031a9575060a0015192915050565b806001600160601b037f000000000000000000000000000000000000000000000000000000000000000016620031e28261271062004363565b620031ee919062004340565b620031fa919062004325565b949350505050565b50600092915050565b6005546001600160601b039081169082168114156200323e5760405162461bcd60e51b8152600401620008c29062003fe1565b50600580546001600160601b0319166001600160601b0392909216919091179055565b600081815260066020818152604080842081516101808101835281546001600160a01b039081168252600180840154821695830195909552600283015416928101929092526003810154606083015260048101546080830152600581015460a08301529283015460c0820152600783015460e082015260088301546101008201526009830154610120820152600a83015484938493909161014084019160ff90911690811115620033165762003316620043d3565b60018111156200332a576200332a620043d3565b8152602001600a820160019054906101000a900460ff166003811115620033555762003355620043d3565b6003811115620033695762003369620043d3565b815250509050428160e00151116200338357600062003395565b428160e0015162003395919062004385565b92504281610100015111620033ac576000620033bf565b42816101000151620033bf919062004385565b915050915091565b600080546001600160a01b038381166001600160a01b0319831681178455604051919092169283917f8be0079c531659141344cd1fd0a4f28419497f9722a3daafe3b4186f6b6457e09190a35050565b600260015414156200343d5760405162461bcd60e51b8152600401620008c29062004142565b600260019081556000828152600c6020526040902090810180546001600160a01b031916331790556006810180546003919061ff0019166101008302179055506200348c600880546001019055565b6000600682015460ff166001811115620034aa57620034aa620043d3565b146200352b5760028101546003820154600480840154604051637921219560e11b81526001600160a01b039094169363f242432a93620034f1933093339390910162003d9d565b600060405180830381600087803b1580156200350c57600080fd5b505af115801562003521573d6000803e3d6000fd5b505050506200359b565b60028101546003820154604051632142170760e11b81526001600160a01b03909216916342842e0e9162003566913091339160040162003d79565b600060405180830381600087803b1580156200358157600080fd5b505af115801562003596573d6000803e3d6000fd5b505050505b600281015460038201546005830154600684015460405186946001600160a01b03169333937f25353c877f813e6c285649c847a980aebcdcc579c7d36bee87d6c2f0dfff0bd093620035f8936201000090910460ff169062004256565b60405180910390a4505060018055565b60008781526006602052604081209062003623864262004325565b9050600062003633868362004325565b6002840180546001600160a01b038e166001600160a01b031991821617909155600385018b905560078501849055600885018290558454163317845560058401869055600a84018054919250859160ff1916600183818111156200369b576200369b620043d3565b021790555060048301889055600a8301805461ff0019166101001790556040518a906001600160a01b038d169033907f199f73ece82f19f692dcb7db8f91f2527bd3158ffae28e226d7ef02df70435349062003703908e908e908c908a908a908e90620042be565b60405180910390a45050505050505050505050565b6000868152600c602052604090208054336001600160a01b03199182161782556002820180549091166001600160a01b038a1617905560038101869055600481018590556005810184905560068101805461ff00198116610100908117835585929161ffff19161760018381811115620037965762003796620043d3565b021790555060068101805483919062ff0000191662010000836001811115620037c357620037c3620043d3565b021790555086886001600160a01b0316336001600160a01b03167f9d1dabeeddd19bb4a452fec325878c591ae8672c5fa5eecec875ba5aebdfdc4d8989898989604051620038169594939291906200427d565b60405180910390a45050505050505050565b6040805161012081018252600080825260208201819052918101829052606081018290526080810182905260a081018290529060c08201908152602001600081526020016000905290565b60405180610180016040528060006001600160a01b0316815260200160006001600160a01b0316815260200160006001600160a01b031681526020016000815260200160008152602001600081526020016000815260200160008152602001600081526020016000815260200160006001811115620038f657620038f6620043d3565b81526020016000905290565b613784806200444d83390190565b612ccb8062007bd183390190565b600082601f8301126200393057600080fd5b81356001600160401b03808211156200394d576200394d620043ff565b604051601f8301601f19908116603f01168101908282118183101715620039785762003978620043ff565b816040528381528660208588010111156200399257600080fd5b836020870160208301376000602085830101528094505050505092915050565b80356001600160601b0381168114620039ca57600080fd5b919050565b600060208284031215620039e257600080fd5b8135620039ef8162004428565b9392505050565b60006020828403121562003a0957600080fd5b8151620039ef8162004428565b60008060008060008060c0878903121562003a3057600080fd5b863562003a3d8162004428565b9550602087013594506040870135935060608701359250608087013562003a64816200443e565b915060a087013562003a76816200443e565b809150509295509295509295565b600080600080600080600060e0888a03121562003aa057600080fd5b873562003aad8162004428565b96506020880135955060408801359450606088013593506080880135925060a0880135915060c088013562003ae2816200443e565b8091505092959891949750929550565b60006020828403121562003b0557600080fd5b81518015158114620039ef57600080fd5b600080600080600060a0868803121562003b2f57600080fd5b853562003b3c816200443e565b945060208601356001600160401b038082111562003b5957600080fd5b62003b6789838a016200391e565b9550604088013591508082111562003b7e57600080fd5b62003b8c89838a016200391e565b9450606088013591508082111562003ba357600080fd5b5062003bb2888289016200391e565b92505062003bc360808701620039b2565b90509295509295909350565b60006020828403121562003be257600080fd5b5035919050565b60006020828403121562003bfc57600080fd5b5051919050565b6000806040838503121562003c1757600080fd5b50508035926020909101359150565b60006020828403121562003c3957600080fd5b620039ef82620039b2565b6001600160a01b03169052565b62003c5c8162004415565b9052565b6004811062003c5c5762003c5c620043d3565b6000815180845260005b8181101562003c9b5760208185018101518683018201520162003c7d565b8181111562003cae576000602083870101525b50601f01601f19169290920160200192915050565b60018060a01b0380825116835280602083015116602084015280604083015116604084015250606081015160608301526080810151608083015260a081015160a083015260c081015162003d1b60c084018262003c51565b5060e081015162003d3060e084018262003c60565b506101008082015162003d468285018262003c51565b50505050565b6001600160a01b0391909116815260200190565b6001600160a01b03929092168252602082015260400190565b6001600160a01b039384168152919092166020820152604081019190915260600190565b6001600160a01b03858116825284166020820152604081018390526060810182905260a0608082018190526003908201526203078360ec1b60c0820152600060e0820162002fe0565b6001600160a01b03841681526060810162003e018462004415565b60208201939093526001600160601b0391909116604090910152919050565b6020808252825182820181905260009190848201906040850190845b8181101562003e635783516001600160a01b03168352928401929184019160010162003e3c565b50909695505050505050565b6020808252825182820181905260009190848201906040850190845b8181101562003e635762003ea183855162003cc3565b92840192610120929092019160010162003e8b565b6020810162000929828462003c60565b60a08152600062003edb60a083018862003c73565b828103602084015262003eef818862003c73565b9050828103604084015262003f05818762003c73565b6001600160a01b0395909516606084015250506001600160601b03919091166080909101529392505050565b60808152600062003f46608083018762003c73565b828103602084015262003f5a818762003c73565b9050828103604084015262003f70818662003c73565b91505060018060601b038316606083015295945050505050565b602080825260149082015273494e53554646494349454e545f42414c414e434560601b604082015260600190565b6020808252600f908201526e15d493d391d7d0955657d054d4d155608a1b604082015260600190565b602080825260129082015271115c9c9bdc8e88185b1c9958591e481cd95d60721b604082015260600190565b602080825260129082015271105550d51253d397d393d517d31254d5115160721b604082015260600190565b60208082526010908201526f4f574e45525f43414e4e4f545f42555960801b604082015260600190565b60208082526010908201526f24a72b20a624a22fa7a822a920aa27a960811b604082015260600190565b6020808252818101527f4f776e61626c653a2063616c6c6572206973206e6f7420746865206f776e6572604082015260600190565b60208082526011908201527013505492d15517d393d517d31254d51151607a1b604082015260600190565b602080825260139082015272105550d51253d397d393d517d4d51054951151606a1b604082015260600190565b6020808252600e908201526d1253959053125117d05353d5539560921b604082015260600190565b6020808252601f908201527f5265656e7472616e637947756172643a207265656e7472616e742063616c6c00604082015260600190565b6000610180820190506200418f82845162003c44565b6020830151620041a3602084018262003c44565b506040830151620041b8604084018262003c44565b50606083015160608301526080830151608083015260a083015160a083015260c083015160c083015260e083015160e083015261010080840151818401525061012080840151818401525061014080840151620042188285018262003c51565b5050610160808401516200422f8285018262003c60565b505092915050565b610120810162000929828462003cc3565b918252602082015260400190565b83815260208101839052606081016200426f8362004415565b826040830152949350505050565b858152602081018590526040810184905260a081016200429d8462004415565b836060830152620042ae8362004415565b8260808301529695505050505050565b600060c082019050878252866020830152856040830152846060830152836080830152620042ec8362004415565b8260a0830152979650505050505050565b6001600160601b038316815260408101620043188362004415565b8260208301529392505050565b600082198211156200433b576200433b620043bd565b500190565b6000826200435e57634e487b7160e01b600052601260045260246000fd5b500490565b6000816000190483118215151615620043805762004380620043bd565b500290565b6000828210156200439a576200439a620043bd565b500390565b6000600019821415620043b657620043b6620043bd565b5060010190565b634e487b7160e01b600052601160045260246000fd5b634e487b7160e01b600052602160045260246000fd5b634e487b7160e01b600052603260045260246000fd5b634e487b7160e01b600052604160045260246000fd5b60028110620027225762002722620043d3565b6001600160a01b03811681146200272257600080fd5b600281106200272257600080fdfe60806040523480156200001157600080fd5b506040516200378438038062003784833981016040819052620000349162000377565b816200004081620000a6565b508351620000569060059060208701906200021a565b5082516200006c9060069060208601906200021a565b50600780546001600160601b0319166001600160601b0383161790556200009c6000620000963390565b620000bf565b505050506200047d565b8051620000bb9060049060208401906200021a565b5050565b620000bb8282620000dc82826200010860201b620012601760201c565b600082815260016020908152604090912062000103918390620012e4620001a8821b17901c565b505050565b6000828152602081815260408083206001600160a01b038516845290915290205460ff16620000bb576000828152602081815260408083206001600160a01b03851684529091529020805460ff19166001179055620001643390565b6001600160a01b0316816001600160a01b0316837f2f8788117e7eff1d82e926ec794901d17c78024a50270940304540a733656f0d60405160405180910390a45050565b6000620001bf836001600160a01b038416620001c8565b90505b92915050565b60008181526001830160205260408120546200021157508154600181810184556000848152602080822090930184905584548482528286019093526040902091909155620001c2565b506000620001c2565b82805462000228906200042a565b90600052602060002090601f0160209004810192826200024c576000855562000297565b82601f106200026757805160ff191683800117855562000297565b8280016001018555821562000297579182015b82811115620002975782518255916020019190600101906200027a565b50620002a5929150620002a9565b5090565b5b80821115620002a55760008155600101620002aa565b600082601f830112620002d257600080fd5b81516001600160401b0380821115620002ef57620002ef62000467565b604051601f8301601f19908116603f011681019082821181831017156200031a576200031a62000467565b816040528381526020925086838588010111156200033757600080fd5b600091505b838210156200035b57858201830151818301840152908201906200033c565b838211156200036d5760008385830101525b9695505050505050565b600080600080608085870312156200038e57600080fd5b84516001600160401b0380821115620003a657600080fd5b620003b488838901620002c0565b95506020870151915080821115620003cb57600080fd5b620003d988838901620002c0565b94506040870151915080821115620003f057600080fd5b50620003ff87828801620002c0565b606087015190935090506001600160601b03811681146200041f57600080fd5b939692955090935050565b600181811c908216806200043f57607f821691505b602082108114156200046157634e487b7160e01b600052602260045260246000fd5b50919050565b634e487b7160e01b600052604160045260246000fd5b6132f7806200048d6000396000f3fe608060405234801561001057600080fd5b506004361061018a5760003560e01c8062fdd58e1461018f57806301ffc9a7146101b557806302fe5305146101d857806306fdde03146101ed5780630e89341c146102025780631f7fdffa14610215578063248a9ca31461022857806329ee566c1461023b5780632a55205a146102665780632eb2c2d6146102985780632f2ff15d146102ab57806336568abe146102be57806336a100d5146102d15780633adf80b4146102e45780634e1273f4146102f75780634f558e79146103175780636b20c4541461032a578063731133e91461033d5780639010d07c1461035057806391d148541461037b57806395d89b411461038e578063a217fddf14610396578063a22cb4651461039e578063a28cf93c146103b1578063a2e69613146103c4578063bd85b039146103d7578063ca15c873146103f7578063cd53d08e1461040a578063d2a6b51a14610433578063d547741f14610446578063e985e9c514610459578063f242432a1461046c578063f5298aca1461047f575b600080fd5b6101a261019d3660046128eb565b610492565b6040519081526020015b60405180910390f35b6101c86101c3366004612b17565b61052e565b60405190151581526020016101ac565b6101eb6101e6366004612b51565b610539565b005b6101f561056c565b6040516101ac9190612d83565b6101f5610210366004612ab9565b6105fa565b6101eb610223366004612817565b6107b8565b6101a2610236366004612ab9565b6108da565b60075461024e906001600160601b031681565b6040516001600160601b0390911681526020016101ac565b610279610274366004612af5565b6108ef565b604080516001600160a01b0390931683526020830191909152016101ac565b6101eb6102a636600461264a565b61091d565b6101eb6102b9366004612ad2565b6109ad565b6101eb6102cc366004612ad2565b6109cf565b6101a26102df36600461299c565b610a4d565b6101eb6102f2366004612b8d565b610be4565b61030a6103053660046129f3565b610c67565b6040516101ac9190612d42565b6101c8610325366004612ab9565b610d90565b6101eb6103383660046127a4565b610da4565b6101eb61034b366004612948565b610e6f565b61036361035e366004612af5565b610edd565b6040516001600160a01b0390911681526020016101ac565b6101c8610389366004612ad2565b610ef5565b6101f5610f1e565b6101a2600081565b6101eb6103ac3660046128af565b610f2b565b6101eb6103bf3660046128af565b610f36565b6101a26103d2366004612ab9565b611005565b6101a26103e5366004612ab9565b60009081526008602052604090205490565b6101a2610405366004612ab9565b61102a565b610363610418366004612ab9565b600a602052600090815260409020546001600160a01b031681565b6101eb610441366004612757565b611041565b6101eb610454366004612ad2565b6110fa565b6101c8610467366004612617565b611117565b6101eb61047a3660046126f3565b61116e565b6101eb61048d366004612915565b6111f5565b60006001600160a01b0383166105035760405162461bcd60e51b815260206004820152602b60248201527f455243313135353a2062616c616e636520717565727920666f7220746865207a60448201526a65726f206164647265737360a81b60648201526084015b60405180910390fd5b5060008181526002602090815260408083206001600160a01b03861684529091529020545b92915050565b6000610528826112f9565b610544600033610ef5565b6105605760405162461bcd60e51b81526004016104fa90612ff8565b61056981611339565b50565b60058054610579906130fb565b80601f01602080910402602001604051908101604052809291908181526020018280546105a5906130fb565b80156105f25780601f106105c7576101008083540402835291602001916105f2565b820191906000526020600020905b8154815290600101906020018083116105d557829003601f168201915b505050505081565b606061060582610d90565b6106605760405162461bcd60e51b815260206004820152602660248201527f455243313135355472616461626c65237572693a204e4f4e4558495354454e546044820152652faa27a5a2a760d11b60648201526084016104fa565b6000828152600b602052604081208054610679906130fb565b80601f01602080910402602001604051908101604052809291908181526020018280546106a5906130fb565b80156106f25780601f106106c7576101008083540402835291602001916106f2565b820191906000526020600020905b8154815290600101906020018083116106d557829003601f168201915b505050505090506000815111156107a2576000838152600b60205260409020805461071c906130fb565b80601f0160208091040260200160405190810160405280929190818152602001828054610748906130fb565b80156107955780601f1061076a57610100808354040283529160200191610795565b820191906000526020600020905b81548152906001019060200180831161077857829003601f168201915b5050505050915050919050565b6107ab8361134c565b9392505050565b50919050565b825160005b818110156108c65760008582815181106107d9576107d96131a3565b6020908102919091018101516000818152600a9092526040909120549091506001600160a01b03163381146108685760405162461bcd60e51b815260206004820152602f60248201527f455243313135355472616461626c652362617463684d696e743a204f4e4c595f60448201526e10d491505513d497d0531313d5d151608a1b60648201526084016104fa565b600086848151811061087c5761087c6131a3565b60200260200101519050806008600085815260200190815260200160002060008282546108a99190613048565b9250508190555050505080806108be9061315c565b9150506107bd565b506108d3858585856113e0565b5050505050565b60009081526020819052604090206001015490565b6000828152600a602052604081205481906001600160a01b031661091284611005565b915091509250929050565b6001600160a01b03851633148061093957506109398533611117565b6109a05760405162461bcd60e51b815260206004820152603260248201527f455243313135353a207472616e736665722063616c6c6572206973206e6f74206044820152711bdddb995c881b9bdc88185c1c1c9bdd995960721b60648201526084016104fa565b6108d38585858585611529565b6109b6826108da565b6109c081336116c4565b6109ca8383611728565b505050565b6001600160a01b0381163314610a3f5760405162461bcd60e51b815260206004820152602f60248201527f416363657373436f6e74726f6c3a2063616e206f6e6c792072656e6f756e636560448201526e103937b632b9903337b91039b2b63360891b60648201526084016104fa565b610a49828261174a565b5050565b6000610a598133610ef5565b610a755760405162461bcd60e51b81526004016104fa90612ff8565b610a7e85610d90565b15610ac65760405162461bcd60e51b8152602060048201526018602482015277746f6b656e205f696420616c72656164792065786973747360401b60448201526064016104fa565b6000858152600a6020526040902080546001600160a01b03191633179055825115610b32576000858152600b602090815260409091208451610b0a92860190612478565b50846000805160206132cb83398151915284604051610b299190612d83565b60405180910390a25b8315610ba3576001600160a01b038616610b865760405162461bcd60e51b815260206004820152601560248201527424a72b20a624a22fa4a724aa24a0a62fa7aba722a960591b60448201526064016104fa565b6000858152600860205260409020849055610ba38686868561176c565b604051848152859033907fbc7d7d143abd25a4c46468a8dc71a9fc8c12d3f5969c388d86dce39f1507a8569060200160405180910390a35092949350505050565b6000828152600a602052604090205482906001600160a01b03163314610c1c5760405162461bcd60e51b81526004016104fa90612fa7565b6000838152600b602090815260409091208351610c3b92850190612478565b50826000805160206132cb83398151915283604051610c5a9190612d83565b60405180910390a2505050565b60608151835114610ccc5760405162461bcd60e51b815260206004820152602960248201527f455243313135353a206163636f756e747320616e6420696473206c656e677468604482015268040dad2e6dac2e8c6d60bb1b60648201526084016104fa565b600083516001600160401b03811115610ce757610ce76131b9565b604051908082528060200260200182016040528015610d10578160200160208202803683370190505b50905060005b8451811015610d8857610d5b858281518110610d3457610d346131a3565b6020026020010151858381518110610d4e57610d4e6131a3565b6020026020010151610492565b828281518110610d6d57610d6d6131a3565b6020908102919091010152610d818161315c565b9050610d16565b509392505050565b600090815260086020526040902054151590565b6001600160a01b038316331480610dc05750610dc08333611117565b610ddc5760405162461bcd60e51b81526004016104fa90612dde565b610de7838383611832565b815160005b818110156108d3576000848281518110610e0857610e086131a3565b602002602001015190506000848381518110610e2657610e266131a3565b6020026020010151905080600860008481526020019081526020016000206000828254610e5391906130a1565b9250508190555050508080610e679061315c565b915050610dec565b6000838152600a602052604090205483906001600160a01b03163314610ea75760405162461bcd60e51b81526004016104fa90612fa7565b610eb38585858561176c565b60008481526008602052604081208054859290610ed1908490613048565b90915550505050505050565b60008281526001602052604081206107ab90836119b1565b6000918252602082815260408084206001600160a01b0393909316845291905290205460ff1690565b60068054610579906130fb565b610a493383836119bd565b610f41600033610ef5565b610f5d5760405162461bcd60e51b81526004016104fa90612ff8565b6001600160a01b038216610fa25760405162461bcd60e51b815260206004820152600c60248201526b5a45524f5f4144445245535360a01b60448201526064016104fa565b6001600160a01b038216600081815260096020908152604091829020805460ff19168515159081179091558251338152918201527f9e2bd848ed96e551d65a5248c15480b97b14b10a342c4194fe315d1e8a24fe84910160405180910390a25050565b6007546000906001600160601b031661102061271084613060565b6105289190613082565b600081815260016020526040812061052890611a9e565b6001600160a01b0382166110ac5760405162461bcd60e51b815260206004820152602c60248201527f455243313135355472616461626c652373657443726561746f723a20494e564160448201526b2624a22fa0a2222922a9a99760a11b60648201526084016104fa565b805160005b818110156110f45760008382815181106110cd576110cd6131a3565b602002602001015190506110e18582611aa8565b50806110ec8161315c565b9150506110b1565b50505050565b611103826108da565b61110d81336116c4565b6109ca838361174a565b6001600160a01b03811660009081526009602052604081205460ff161561114057506001610528565b6001600160a01b0380841660009081526003602090815260408083209386168352929052205460ff166107ab565b6001600160a01b03851633148061118a575061118a8533611117565b6111e85760405162461bcd60e51b815260206004820152602960248201527f455243313135353a2063616c6c6572206973206e6f74206f776e6572206e6f7260448201526808185c1c1c9bdd995960ba1b60648201526084016104fa565b6108d38585858585611b0f565b6001600160a01b03831633148061121157506112118333611117565b61122d5760405162461bcd60e51b81526004016104fa90612dde565b611238838383611c1e565b600082815260086020526040812080548392906112569084906130a1565b9091555050505050565b61126a8282610ef5565b610a49576000828152602081815260408083206001600160a01b03851684529091529020805460ff191660011790556112a03390565b6001600160a01b0316816001600160a01b0316837f2f8788117e7eff1d82e926ec794901d17c78024a50270940304540a733656f0d60405160405180910390a45050565b60006107ab836001600160a01b038416611d11565b60006001600160e01b03198216636cdb3d1360e11b148061132a57506001600160e01b031982166303a24d0760e21b145b80610528575061052882611d60565b8051610a49906004906020840190612478565b60606004805461135b906130fb565b80601f0160208091040260200160405190810160405280929190818152602001828054611387906130fb565b80156113d45780601f106113a9576101008083540402835291602001916113d4565b820191906000526020600020905b8154815290600101906020018083116113b757829003601f168201915b50505050509050919050565b6001600160a01b0384166114065760405162461bcd60e51b81526004016104fa90612f66565b81518351146114275760405162461bcd60e51b81526004016104fa90612f1e565b3361143781600087878787611d85565b60005b84518110156114d357838181518110611455576114556131a3565b602002602001015160026000878481518110611473576114736131a3565b602002602001015181526020019081526020016000206000886001600160a01b03166001600160a01b0316815260200190815260200160002060008282546114bb9190613048565b909155508190506114cb8161315c565b91505061143a565b50846001600160a01b031660006001600160a01b0316826001600160a01b031660008051602061328b8339815191528787604051611512929190612d55565b60405180910390a46108d381600087878787611e91565b815183511461154a5760405162461bcd60e51b81526004016104fa90612f1e565b6001600160a01b0384166115705760405162461bcd60e51b81526004016104fa90612e4c565b3361157f818787878787611d85565b60005b845181101561166857600085828151811061159f5761159f6131a3565b6020026020010151905060008583815181106115bd576115bd6131a3565b60209081029190910181015160008481526002835260408082206001600160a01b038e16835290935291909120549091508181101561160e5760405162461bcd60e51b81526004016104fa90612ed4565b60008381526002602090815260408083206001600160a01b038e8116855292528083208585039055908b1682528120805484929061164d908490613048565b92505081905550505050806116619061315c565b9050611582565b50846001600160a01b0316866001600160a01b0316826001600160a01b031660008051602061328b83398151915287876040516116a6929190612d55565b60405180910390a46116bc818787878787611e91565b505050505050565b6116ce8282610ef5565b610a49576116e6816001600160a01b03166014611ffc565b6116f1836020611ffc565b604051602001611702929190612c30565b60408051601f198184030181529082905262461bcd60e51b82526104fa91600401612d83565b6117328282611260565b60008281526001602052604090206109ca90826112e4565b6117548282612197565b60008281526001602052604090206109ca90826121fc565b6001600160a01b0384166117925760405162461bcd60e51b81526004016104fa90612f66565b336117b2816000876117a388612211565b6117ac88612211565b87611d85565b60008481526002602090815260408083206001600160a01b0389168452909152812080548592906117e4908490613048565b909155505060408051858152602081018590526001600160a01b0380881692600092918516916000805160206132ab833981519152910160405180910390a46108d38160008787878761225c565b6001600160a01b0383166118585760405162461bcd60e51b81526004016104fa90612e91565b80518251146118795760405162461bcd60e51b81526004016104fa90612f1e565b600033905061189c81856000868660405180602001604052806000815250611d85565b60005b83518110156119645760008482815181106118bc576118bc6131a3565b6020026020010151905060008483815181106118da576118da6131a3565b60209081029190910181015160008481526002835260408082206001600160a01b038c16835290935291909120549091508181101561192b5760405162461bcd60e51b81526004016104fa90612e08565b60009283526002602090815260408085206001600160a01b038b168652909152909220910390558061195c8161315c565b91505061189f565b5060006001600160a01b0316846001600160a01b0316826001600160a01b031660008051602061328b83398151915286866040516119a3929190612d55565b60405180910390a450505050565b60006107ab8383612326565b816001600160a01b0316836001600160a01b03161415611a315760405162461bcd60e51b815260206004820152602960248201527f455243313135353a2073657474696e6720617070726f76616c20737461747573604482015268103337b91039b2b63360b91b60648201526084016104fa565b6001600160a01b03838116600081815260036020908152604080832094871680845294825291829020805460ff191686151590811790915591519182527f17307eab39ab6107e8899845ad3d59bd9653f200f220920489ca2b5937696c31910160405180910390a3505050565b6000610528825490565b6000818152600a602052604090205481906001600160a01b03163314611ae05760405162461bcd60e51b81526004016104fa90612fa7565b506000908152600a6020526040902080546001600160a01b0319166001600160a01b0392909216919091179055565b6001600160a01b038416611b355760405162461bcd60e51b81526004016104fa90612e4c565b33611b458187876117a388612211565b60008481526002602090815260408083206001600160a01b038a16845290915290205483811015611b885760405162461bcd60e51b81526004016104fa90612ed4565b60008581526002602090815260408083206001600160a01b038b8116855292528083208785039055908816825281208054869290611bc7908490613048565b909155505060408051868152602081018690526001600160a01b03808916928a821692918616916000805160206132ab833981519152910160405180910390a4611c1582888888888861225c565b50505050505050565b6001600160a01b038316611c445760405162461bcd60e51b81526004016104fa90612e91565b33611c7381856000611c5587612211565b611c5e87612211565b60405180602001604052806000815250611d85565b60008381526002602090815260408083206001600160a01b038816845290915290205482811015611cb65760405162461bcd60e51b81526004016104fa90612e08565b60008481526002602090815260408083206001600160a01b03898116808652918452828520888703905582518981529384018890529092908616916000805160206132ab833981519152910160405180910390a45050505050565b6000818152600183016020526040812054611d5857508154600181810184556000848152602080822090930184905584548482528286019093526040902091909155610528565b506000610528565b60006001600160e01b03198216635a05180f60e01b1480610528575061052882612350565b6001600160a01b038516611e0c5760005b8351811015611e0a57828181518110611db157611db16131a3565b602002602001015160086000868481518110611dcf57611dcf6131a3565b602002602001015181526020019081526020016000206000828254611df49190613048565b90915550611e0390508161315c565b9050611d96565b505b6001600160a01b0384166116bc5760005b8351811015611c1557828181518110611e3857611e386131a3565b602002602001015160086000868481518110611e5657611e566131a3565b602002602001015181526020019081526020016000206000828254611e7b91906130a1565b90915550611e8a90508161315c565b9050611e1d565b6001600160a01b0384163b156116bc5760405163bc197c8160e01b81526001600160a01b0385169063bc197c8190611ed59089908990889088908890600401612c9f565b602060405180830381600087803b158015611eef57600080fd5b505af1925050508015611f1f575060408051601f3d908101601f19168201909252611f1c91810190612b34565b60015b611fcc57611f2b6131cf565b806308c379a01415611f655750611f406131eb565b80611f4b5750611f67565b8060405162461bcd60e51b81526004016104fa9190612d83565b505b60405162461bcd60e51b815260206004820152603460248201527f455243313135353a207472616e7366657220746f206e6f6e20455243313135356044820152732932b1b2b4bb32b91034b6b83632b6b2b73a32b960611b60648201526084016104fa565b6001600160e01b0319811663bc197c8160e01b14611c155760405162461bcd60e51b81526004016104fa90612d96565b6060600061200b836002613082565b612016906002613048565b6001600160401b0381111561202d5761202d6131b9565b6040519080825280601f01601f191660200182016040528015612057576020820181803683370190505b509050600360fc1b81600081518110612072576120726131a3565b60200101906001600160f81b031916908160001a905350600f60fb1b816001815181106120a1576120a16131a3565b60200101906001600160f81b031916908160001a90535060006120c5846002613082565b6120d0906001613048565b90505b6001811115612148576f181899199a1a9b1b9c1cb0b131b232b360811b85600f1660108110612104576121046131a3565b1a60f81b82828151811061211a5761211a6131a3565b60200101906001600160f81b031916908160001a90535060049490941c93612141816130e4565b90506120d3565b5083156107ab5760405162461bcd60e51b815260206004820181905260248201527f537472696e67733a20686578206c656e67746820696e73756666696369656e7460448201526064016104fa565b6121a18282610ef5565b15610a49576000828152602081815260408083206001600160a01b0385168085529252808320805460ff1916905551339285917ff6391f5c32d9c69d2a47ea670b442974b53935d1edc7fd64eb21e047a839171b9190a45050565b60006107ab836001600160a01b038416612385565b6040805160018082528183019092526060916000919060208083019080368337019050509050828160008151811061224b5761224b6131a3565b602090810291909101015292915050565b6001600160a01b0384163b156116bc5760405163f23a6e6160e01b81526001600160a01b0385169063f23a6e61906122a09089908990889088908890600401612cfd565b602060405180830381600087803b1580156122ba57600080fd5b505af19250505080156122ea575060408051601f3d908101601f191682019092526122e791810190612b34565b60015b6122f657611f2b6131cf565b6001600160e01b0319811663f23a6e6160e01b14611c155760405162461bcd60e51b81526004016104fa90612d96565b600082600001828154811061233d5761233d6131a3565b9060005260206000200154905092915050565b60006001600160e01b03198216637965db0b60e01b148061052857506301ffc9a760e01b6001600160e01b0319831614610528565b6000818152600183016020526040812054801561246e5760006123a96001836130a1565b85549091506000906123bd906001906130a1565b90508181146124225760008660000182815481106123dd576123dd6131a3565b9060005260206000200154905080876000018481548110612400576124006131a3565b6000918252602080832090910192909255918252600188019052604090208390555b85548690806124335761243361318d565b600190038181906000526020600020016000905590558560010160008681526020019081526020016000206000905560019350505050610528565b6000915050610528565b828054612484906130fb565b90600052602060002090601f0160209004810192826124a657600085556124ec565b82601f106124bf57805160ff19168380011785556124ec565b828001600101855582156124ec579182015b828111156124ec5782518255916020019190600101906124d1565b506124f89291506124fc565b5090565b5b808211156124f857600081556001016124fd565b80356001600160a01b038116811461252857600080fd5b919050565b600082601f83011261253e57600080fd5b8135602061254b82613025565b6040516125588282613130565b8381528281019150858301600585901b8701840188101561257857600080fd5b60005b858110156125975781358452928401929084019060010161257b565b5090979650505050505050565b600082601f8301126125b557600080fd5b81356001600160401b038111156125ce576125ce6131b9565b6040516125e5601f8301601f191660200182613130565b8181528460208386010111156125fa57600080fd5b816020850160208301376000918101602001919091529392505050565b6000806040838503121561262a57600080fd5b61263383612511565b915061264160208401612511565b90509250929050565b600080600080600060a0868803121561266257600080fd5b61266b86612511565b945061267960208701612511565b935060408601356001600160401b038082111561269557600080fd5b6126a189838a0161252d565b945060608801359150808211156126b757600080fd5b6126c389838a0161252d565b935060808801359150808211156126d957600080fd5b506126e6888289016125a4565b9150509295509295909350565b600080600080600060a0868803121561270b57600080fd5b61271486612511565b945061272260208701612511565b9350604086013592506060860135915060808601356001600160401b0381111561274b57600080fd5b6126e6888289016125a4565b6000806040838503121561276a57600080fd5b61277383612511565b915060208301356001600160401b0381111561278e57600080fd5b61279a8582860161252d565b9150509250929050565b6000806000606084860312156127b957600080fd5b6127c284612511565b925060208401356001600160401b03808211156127de57600080fd5b6127ea8783880161252d565b9350604086013591508082111561280057600080fd5b5061280d8682870161252d565b9150509250925092565b6000806000806080858703121561282d57600080fd5b61283685612511565b935060208501356001600160401b038082111561285257600080fd5b61285e8883890161252d565b9450604087013591508082111561287457600080fd5b6128808883890161252d565b9350606087013591508082111561289657600080fd5b506128a3878288016125a4565b91505092959194509250565b600080604083850312156128c257600080fd5b6128cb83612511565b9150602083013580151581146128e057600080fd5b809150509250929050565b600080604083850312156128fe57600080fd5b61290783612511565b946020939093013593505050565b60008060006060848603121561292a57600080fd5b61293384612511565b95602085013595506040909401359392505050565b6000806000806080858703121561295e57600080fd5b61296785612511565b9350602085013592506040850135915060608501356001600160401b0381111561299057600080fd5b6128a3878288016125a4565b600080600080600060a086880312156129b457600080fd5b6129bd86612511565b9450602086013593506040860135925060608601356001600160401b03808211156129e757600080fd5b6126c389838a016125a4565b60008060408385031215612a0657600080fd5b82356001600160401b0380821115612a1d57600080fd5b818501915085601f830112612a3157600080fd5b81356020612a3e82613025565b604051612a4b8282613130565b8381528281019150858301600585901b870184018b1015612a6b57600080fd5b600096505b84871015612a9557612a8181612511565b835260019690960195918301918301612a70565b5096505086013592505080821115612aac57600080fd5b5061279a8582860161252d565b600060208284031215612acb57600080fd5b5035919050565b60008060408385031215612ae557600080fd5b8235915061264160208401612511565b60008060408385031215612b0857600080fd5b50508035926020909101359150565b600060208284031215612b2957600080fd5b81356107ab81613274565b600060208284031215612b4657600080fd5b81516107ab81613274565b600060208284031215612b6357600080fd5b81356001600160401b03811115612b7957600080fd5b612b85848285016125a4565b949350505050565b60008060408385031215612ba057600080fd5b8235915060208301356001600160401b03811115612bbd57600080fd5b61279a858286016125a4565b600081518084526020808501945080840160005b83811015612bf957815187529582019590820190600101612bdd565b509495945050505050565b60008151808452612c1c8160208601602086016130b8565b601f01601f19169290920160200192915050565b76020b1b1b2b9b9a1b7b73a3937b61d1030b1b1b7bab73a1604d1b815260008351612c628160178501602088016130b8565b7001034b99036b4b9b9b4b733903937b6329607d1b6017918401918201528351612c938160288401602088016130b8565b01602801949350505050565b6001600160a01b0386811682528516602082015260a060408201819052600090612ccb90830186612bc9565b8281036060840152612cdd8186612bc9565b90508281036080840152612cf18185612c04565b98975050505050505050565b6001600160a01b03868116825285166020820152604081018490526060810183905260a060808201819052600090612d3790830184612c04565b979650505050505050565b6020815260006107ab6020830184612bc9565b604081526000612d686040830185612bc9565b8281036020840152612d7a8185612bc9565b95945050505050565b6020815260006107ab6020830184612c04565b60208082526028908201527f455243313135353a204552433131353552656365697665722072656a656374656040820152676420746f6b656e7360c01b606082015260800190565b60208082526010908201526f11549497d393d517d054141493d5915160821b604082015260600190565b60208082526024908201527f455243313135353a206275726e20616d6f756e7420657863656564732062616c604082015263616e636560e01b606082015260800190565b60208082526025908201527f455243313135353a207472616e7366657220746f20746865207a65726f206164604082015264647265737360d81b606082015260800190565b60208082526023908201527f455243313135353a206275726e2066726f6d20746865207a65726f206164647260408201526265737360e81b606082015260800190565b6020808252602a908201527f455243313135353a20696e73756666696369656e742062616c616e636520666f60408201526939103a3930b739b332b960b11b606082015260800190565b60208082526028908201527f455243313135353a2069647320616e6420616d6f756e7473206c656e677468206040820152670dad2e6dac2e8c6d60c31b606082015260800190565b60208082526021908201527f455243313135353a206d696e7420746f20746865207a65726f206164647265736040820152607360f81b606082015260800190565b60208082526031908201527f455243313135355472616461626c652363726561746f724f6e6c793a204f4e4c6040820152701657d0d491505513d497d0531313d5d151607a1b606082015260800190565b6020808252601390820152722aa720aaaa2427a924ad22a22fa1a0a62622a960691b604082015260600190565b60006001600160401b0382111561303e5761303e6131b9565b5060051b60200190565b6000821982111561305b5761305b613177565b500190565b60008261307d57634e487b7160e01b600052601260045260246000fd5b500490565b600081600019048311821515161561309c5761309c613177565b500290565b6000828210156130b3576130b3613177565b500390565b60005b838110156130d35781810151838201526020016130bb565b838111156110f45750506000910152565b6000816130f3576130f3613177565b506000190190565b600181811c9082168061310f57607f821691505b602082108114156107b257634e487b7160e01b600052602260045260246000fd5b601f8201601f191681016001600160401b0381118282101715613155576131556131b9565b6040525050565b600060001982141561317057613170613177565b5060010190565b634e487b7160e01b600052601160045260246000fd5b634e487b7160e01b600052603160045260246000fd5b634e487b7160e01b600052603260045260246000fd5b634e487b7160e01b600052604160045260246000fd5b600060033d11156131e85760046000803e5060005160e01c5b90565b600060443d10156131f95790565b6040516003193d81016004833e81513d6001600160401b03808311602484018310171561322857505050505090565b82850191508151818111156132405750505050505090565b843d870101602082850101111561325a5750505050505090565b61326960208286010187613130565b509095945050505050565b6001600160e01b03198116811461056957600080fdfe4a39dc06d4c0dbc64b70af90fd698a233a518aa5d07e595d983b8c0526c8f7fbc3d58168c5ae7397731d063d5bbf3d657854427343f4c083240f7aacaa2d0f626bb7ff708619ba0610cba295a58592e0451dee2622938c8755667688daf3529ba164736f6c6343000806000a60806040523480156200001157600080fd5b5060405162002ccb38038062002ccb833981016040819052620000349162000393565b8451859085906200004d90600290602085019062000236565b5080516200006390600390602084019062000236565b505083516200007b9150600f90602086019062000236565b50601080546001600160a01b0319166001600160a01b038416179055600e80546001600160601b0319166001600160601b038316179055620000c66000620000c03390565b620000d1565b5050505050620004bc565b620000dd8282620000e1565b5050565b620000f882826200012460201b62000d961760201c565b60008281526001602090815260409091206200011f91839062000e1a620001c4821b17901c565b505050565b6000828152602081815260408083206001600160a01b038516845290915290205460ff16620000dd576000828152602081815260408083206001600160a01b03851684529091529020805460ff19166001179055620001803390565b6001600160a01b0316816001600160a01b0316837f2f8788117e7eff1d82e926ec794901d17c78024a50270940304540a733656f0d60405160405180910390a45050565b6000620001db836001600160a01b038416620001e4565b90505b92915050565b60008181526001830160205260408120546200022d57508154600181810184556000848152602080822090930184905584548482528286019093526040902091909155620001de565b506000620001de565b828054620002449062000469565b90600052602060002090601f016020900481019282620002685760008555620002b3565b82601f106200028357805160ff1916838001178555620002b3565b82800160010185558215620002b3579182015b82811115620002b357825182559160200191906001019062000296565b50620002c1929150620002c5565b5090565b5b80821115620002c15760008155600101620002c6565b600082601f830112620002ee57600080fd5b81516001600160401b03808211156200030b576200030b620004a6565b604051601f8301601f19908116603f01168101908282118183101715620003365762000336620004a6565b816040528381526020925086838588010111156200035357600080fd5b600091505b8382101562000377578582018301518183018401529082019062000358565b83821115620003895760008385830101525b9695505050505050565b600080600080600060a08688031215620003ac57600080fd5b85516001600160401b0380821115620003c457600080fd5b620003d289838a01620002dc565b96506020880151915080821115620003e957600080fd5b620003f789838a01620002dc565b955060408801519150808211156200040e57600080fd5b506200041d88828901620002dc565b606088015190945090506001600160a01b03811681146200043d57600080fd5b60808701519092506001600160601b03811681146200045b57600080fd5b809150509295509295909350565b600181811c908216806200047e57607f821691505b60208210811415620004a057634e487b7160e01b600052602260045260246000fd5b50919050565b634e487b7160e01b600052604160045260246000fd5b6127ff80620004cc6000396000f3fe608060405234801561001057600080fd5b50600436106101965760003560e01c806301ffc9a71461019b57806306fdde03146101c3578063081812fc146101d8578063095ea7b31461020357806318160ddd1461021857806323b872dd1461022a578063248a9ca31461023d57806329ee566c146102505780632f2ff15d1461027b5780632f745c591461028e57806336568abe146102a15780633adf80b4146102b457806340c10f19146102c757806342842e0e146102da57806342966c68146102ed5780634ec5908d146103005780634f6ccce7146103135780636352211e1461032657806370a08231146103395780639010d07c1461034c57806391d148541461035f57806395d89b4114610372578063a217fddf1461037a578063a22cb46514610382578063a28cf93c14610395578063a2e69613146103a8578063ac88108014610300578063b88d4fde146103bb578063c87b56dd146103ce578063ca15c873146103e1578063cef6d368146103f4578063d547741f14610426578063d547cfb714610439578063e985e9c514610441575b600080fd5b6101ae6101a93660046123ac565b610454565b60405190151581526020015b60405180910390f35b6101cb61047f565b6040516101ba9190612547565b6101eb6101e636600461234c565b610511565b6040516001600160a01b0390911681526020016101ba565b610216610211366004612320565b61059e565b005b600b545b6040519081526020016101ba565b61021661023836600461222d565b6106af565b61021c61024b36600461234c565b6106e1565b600e54610263906001600160601b031681565b6040516001600160601b0390911681526020016101ba565b610216610289366004612365565b6106f6565b61021c61029c366004612320565b610713565b6102166102af366004612365565b6107a9565b6102166102c23660046123e6565b610827565b6102166102d5366004612320565b610858565b6102166102e836600461222d565b610889565b6102166102fb36600461234c565b6108a4565b61021661030e3660046121d7565b61091e565b61021c61032136600461234c565b6109af565b6101eb61033436600461234c565b610a42565b61021c6103473660046121d7565b610ab9565b6101eb61035a36600461238a565b610b40565b6101ae61036d366004612365565b610b5f565b6101cb610b88565b61021c600081565b6102166103903660046122ed565b610b97565b6102166103a33660046122ed565b610ba2565b61021c6103b636600461234c565b610c71565b6102166103c936600461226e565b610c96565b6101cb6103dc36600461234c565b610cce565b61021c6103ef36600461234c565b610cd9565b61040761040236600461234c565b610cf0565b604080516001600160a01b0390931683526020830191909152016101ba565b610216610434366004612365565b610d13565b6101cb610d30565b6101ae61044f3660046121f4565b610d3f565b600063152a902d60e11b6001600160e01b031983161480610479575061047982610e2f565b92915050565b60606002805461048e906126cf565b80601f01602080910402602001604051908101604052809291908181526020018280546104ba906126cf565b80156105075780601f106104dc57610100808354040283529160200191610507565b820191906000526020600020905b8154815290600101906020018083116104ea57829003601f168201915b5050505050905090565b600061051c82610e54565b6105825760405162461bcd60e51b815260206004820152602c60248201527f4552433732313a20617070726f76656420717565727920666f72206e6f6e657860448201526b34b9ba32b73a103a37b5b2b760a11b60648201526084015b60405180910390fd5b506000908152600660205260409020546001600160a01b031690565b60006105a982610a42565b9050806001600160a01b0316836001600160a01b031614156106175760405162461bcd60e51b815260206004820152602160248201527f4552433732313a20617070726f76616c20746f2063757272656e74206f776e656044820152603960f91b6064820152608401610579565b336001600160a01b038216148061063357506106338133610d3f565b6106a05760405162461bcd60e51b815260206004820152603860248201527f4552433732313a20617070726f76652063616c6c6572206973206e6f74206f776044820152771b995c881b9bdc88185c1c1c9bdd995908199bdc88185b1b60421b6064820152608401610579565b6106aa8383610e71565b505050565b6106ba335b82610edf565b6106d65760405162461bcd60e51b8152600401610579906125ac565b6106aa838383610fa9565b60009081526020819052604090206001015490565b6106ff826106e1565b6107098133611142565b6106aa83836111a6565b600061071e83610ab9565b82106107805760405162461bcd60e51b815260206004820152602b60248201527f455243373231456e756d657261626c653a206f776e657220696e646578206f7560448201526a74206f6620626f756e647360a81b6064820152608401610579565b506001600160a01b03919091166000908152600960209081526040808320938352929052205490565b6001600160a01b03811633146108195760405162461bcd60e51b815260206004820152602f60248201527f416363657373436f6e74726f6c3a2063616e206f6e6c792072656e6f756e636560448201526e103937b632b9903337b91039b2b63360891b6064820152608401610579565b61082382826111c8565b5050565b610832600033610b5f565b61084e5760405162461bcd60e51b8152600401610579906125fd565b61082382826111ea565b610863600033610b5f565b61087f5760405162461bcd60e51b8152600401610579906125fd565b6108238282611275565b6106aa83838360405180602001604052806000815250610c96565b6108ad336106b4565b6109125760405162461bcd60e51b815260206004820152603060248201527f4552433732314275726e61626c653a2063616c6c6572206973206e6f74206f7760448201526f1b995c881b9bdc88185c1c1c9bdd995960821b6064820152608401610579565b61091b8161128f565b50565b610929600033610b5f565b6109455760405162461bcd60e51b8152600401610579906125fd565b6001600160a01b03811661098d5760405162461bcd60e51b815260206004820152600f60248201526e494e56414c49445f4144445245535360881b6044820152606401610579565b601080546001600160a01b0319166001600160a01b0392909216919091179055565b60006109ba600b5490565b8210610a1d5760405162461bcd60e51b815260206004820152602c60248201527f455243373231456e756d657261626c653a20676c6f62616c20696e646578206f60448201526b7574206f6620626f756e647360a01b6064820152608401610579565b600b8281548110610a3057610a3061277b565b90600052602060002001549050919050565b6000818152600460205260408120546001600160a01b0316806104795760405162461bcd60e51b815260206004820152602960248201527f4552433732313a206f776e657220717565727920666f72206e6f6e657869737460448201526832b73a103a37b5b2b760b91b6064820152608401610579565b60006001600160a01b038216610b245760405162461bcd60e51b815260206004820152602a60248201527f4552433732313a2062616c616e636520717565727920666f7220746865207a65604482015269726f206164647265737360b01b6064820152608401610579565b506001600160a01b031660009081526005602052604090205490565b6000828152600160205260408120610b589083611298565b9392505050565b6000918252602082815260408084206001600160a01b0393909316845291905290205460ff1690565b60606003805461048e906126cf565b6108233383836112a4565b610bad600033610b5f565b610bc95760405162461bcd60e51b8152600401610579906125fd565b6001600160a01b038216610c0e5760405162461bcd60e51b815260206004820152600c60248201526b5a45524f5f4144445245535360a01b6044820152606401610579565b6001600160a01b038216600081815260116020908152604091829020805460ff19168515159081179091558251338152918201527f9e2bd848ed96e551d65a5248c15480b97b14b10a342c4194fe315d1e8a24fe84910160405180910390a25050565b600e546000906001600160601b0316610c8c61271084612642565b6104799190612656565b610ca03383610edf565b610cbc5760405162461bcd60e51b8152600401610579906125ac565b610cc88484848461136f565b50505050565b6060610479826113a2565b600081815260016020526040812061047990611504565b60105460009081906001600160a01b0316610d0a84610c71565b91509150915091565b610d1c826106e1565b610d268133611142565b6106aa83836111c8565b6060610d3a61150e565b905090565b6001600160a01b03811660009081526011602052604081205460ff1615610d6857506001610479565b6001600160a01b0380841660009081526007602090815260408083209386168352929052205460ff16610b58565b610da08282610b5f565b610823576000828152602081815260408083206001600160a01b03851684529091529020805460ff19166001179055610dd63390565b6001600160a01b0316816001600160a01b0316837f2f8788117e7eff1d82e926ec794901d17c78024a50270940304540a733656f0d60405160405180910390a45050565b6000610b58836001600160a01b03841661151d565b60006001600160e01b0319821663780e9d6360e01b148061047957506104798261156c565b6000908152600460205260409020546001600160a01b0316151590565b600081815260066020526040902080546001600160a01b0319166001600160a01b0384169081179091558190610ea682610a42565b6001600160a01b03167f8c5be1e5ebec7d5bd14f71427d1e84f3dd0314c0f7b2291e5b200ac8c7c3b92560405160405180910390a45050565b6000610eea82610e54565b610f4b5760405162461bcd60e51b815260206004820152602c60248201527f4552433732313a206f70657261746f7220717565727920666f72206e6f6e657860448201526b34b9ba32b73a103a37b5b2b760a11b6064820152608401610579565b6000610f5683610a42565b9050806001600160a01b0316846001600160a01b03161480610f915750836001600160a01b0316610f8684610511565b6001600160a01b0316145b80610fa15750610fa18185610d3f565b949350505050565b826001600160a01b0316610fbc82610a42565b6001600160a01b0316146110245760405162461bcd60e51b815260206004820152602960248201527f4552433732313a207472616e73666572206f6620746f6b656e2074686174206960448201526839903737ba1037bbb760b91b6064820152608401610579565b6001600160a01b0382166110865760405162461bcd60e51b8152602060048201526024808201527f4552433732313a207472616e7366657220746f20746865207a65726f206164646044820152637265737360e01b6064820152608401610579565b6110918383836115ac565b61109c600082610e71565b6001600160a01b03831660009081526005602052604081208054600192906110c5908490612675565b90915550506001600160a01b03821660009081526005602052604081208054600192906110f390849061262a565b909155505060008181526004602052604080822080546001600160a01b0319166001600160a01b0386811691821790925591518493918716916000805160206127d383398151915291a4505050565b61114c8282610b5f565b61082357611164816001600160a01b031660146115b7565b61116f8360206115b7565b60405160200161118092919061249b565b60408051601f198184030181529082905262461bcd60e51b825261057991600401612547565b6111b08282610d96565b60008281526001602052604090206106aa9082610e1a565b6111d28282611752565b60008281526001602052604090206106aa90826117b7565b6111f382610e54565b6112565760405162461bcd60e51b815260206004820152602e60248201527f45524337323155524953746f726167653a2055524920736574206f66206e6f6e60448201526d32bc34b9ba32b73a103a37b5b2b760911b6064820152608401610579565b600082815260086020908152604090912082516106aa92840190612093565b6108238282604051806020016040528060008152506117cc565b61091b816117ff565b6000610b58838361183f565b816001600160a01b0316836001600160a01b031614156113025760405162461bcd60e51b815260206004820152601960248201527822a9219b99189d1030b8383937bb32903a379031b0b63632b960391b6044820152606401610579565b6001600160a01b03838116600081815260076020908152604080832094871680845294825291829020805460ff191686151590811790915591519182527f17307eab39ab6107e8899845ad3d59bd9653f200f220920489ca2b5937696c31910160405180910390a3505050565b61137a848484610fa9565b61138684848484611869565b610cc85760405162461bcd60e51b81526004016105799061255a565b60606113ad82610e54565b6114135760405162461bcd60e51b815260206004820152603160248201527f45524337323155524953746f726167653a2055524920717565727920666f72206044820152703737b732bc34b9ba32b73a103a37b5b2b760791b6064820152608401610579565b6000828152600860205260408120805461142c906126cf565b80601f0160208091040260200160405190810160405280929190818152602001828054611458906126cf565b80156114a55780601f1061147a576101008083540402835291602001916114a5565b820191906000526020600020905b81548152906001019060200180831161148857829003601f168201915b5050505050905060006114b661150e565b90508051600014156114c9575092915050565b8151156114fb5780826040516020016114e392919061246c565b60405160208183030381529060405292505050919050565b610fa184611976565b6000610479825490565b6060600f805461048e906126cf565b600081815260018301602052604081205461156457508154600181810184556000848152602080822090930184905584548482528286019093526040902091909155610479565b506000610479565b60006001600160e01b031982166380ac58cd60e01b148061159d57506001600160e01b03198216635b5e139f60e01b145b80610479575061047982611a40565b6106aa838383611a65565b606060006115c6836002612656565b6115d190600261262a565b6001600160401b038111156115e8576115e8612791565b6040519080825280601f01601f191660200182016040528015611612576020820181803683370190505b509050600360fc1b8160008151811061162d5761162d61277b565b60200101906001600160f81b031916908160001a905350600f60fb1b8160018151811061165c5761165c61277b565b60200101906001600160f81b031916908160001a9053506000611680846002612656565b61168b90600161262a565b90505b6001811115611703576f181899199a1a9b1b9c1cb0b131b232b360811b85600f16601081106116bf576116bf61277b565b1a60f81b8282815181106116d5576116d561277b565b60200101906001600160f81b031916908160001a90535060049490941c936116fc816126b8565b905061168e565b508315610b585760405162461bcd60e51b815260206004820181905260248201527f537472696e67733a20686578206c656e67746820696e73756666696369656e746044820152606401610579565b61175c8282610b5f565b15610823576000828152602081815260408083206001600160a01b0385168085529252808320805460ff1916905551339285917ff6391f5c32d9c69d2a47ea670b442974b53935d1edc7fd64eb21e047a839171b9190a45050565b6000610b58836001600160a01b038416611b1d565b6117d68383611c10565b6117e36000848484611869565b6106aa5760405162461bcd60e51b81526004016105799061255a565b61180881611d3c565b60008181526008602052604090208054611821906126cf565b15905061091b57600081815260086020526040812061091b91612117565b60008260000182815481106118565761185661277b565b9060005260206000200154905092915050565b60006001600160a01b0384163b1561196b57604051630a85bd0160e11b81526001600160a01b0385169063150b7a02906118ad90339089908890889060040161250a565b602060405180830381600087803b1580156118c757600080fd5b505af19250505080156118f7575060408051601f3d908101601f191682019092526118f4918101906123c9565b60015b611951573d808015611925576040519150601f19603f3d011682016040523d82523d6000602084013e61192a565b606091505b5080516119495760405162461bcd60e51b81526004016105799061255a565b805181602001fd5b6001600160e01b031916630a85bd0160e11b149050610fa1565b506001949350505050565b606061198182610e54565b6119e55760405162461bcd60e51b815260206004820152602f60248201527f4552433732314d657461646174613a2055524920717565727920666f72206e6f60448201526e3732bc34b9ba32b73a103a37b5b2b760891b6064820152608401610579565b60006119ef61150e565b90506000815111611a0f5760405180602001604052806000815250610b58565b80611a1984611dd1565b604051602001611a2a92919061246c565b6040516020818303038152906040529392505050565b60006001600160e01b03198216635a05180f60e01b1480610479575061047982611ece565b6001600160a01b038316611ac057611abb81600b80546000838152600c60205260408120829055600182018355919091527f0175b7a638427703f0dbe7bb9bbf987a2551717b34e79f33b5b1008d1fa01db90155565b611ae3565b816001600160a01b0316836001600160a01b031614611ae357611ae38382611f03565b6001600160a01b038216611afa576106aa81611fa0565b826001600160a01b0316826001600160a01b0316146106aa576106aa828261204f565b60008181526001830160205260408120548015611c06576000611b41600183612675565b8554909150600090611b5590600190612675565b9050818114611bba576000866000018281548110611b7557611b7561277b565b9060005260206000200154905080876000018481548110611b9857611b9861277b565b6000918252602080832090910192909255918252600188019052604090208390555b8554869080611bcb57611bcb612765565b600190038181906000526020600020016000905590558560010160008681526020019081526020016000206000905560019350505050610479565b6000915050610479565b6001600160a01b038216611c665760405162461bcd60e51b815260206004820181905260248201527f4552433732313a206d696e7420746f20746865207a65726f20616464726573736044820152606401610579565b611c6f81610e54565b15611cbb5760405162461bcd60e51b815260206004820152601c60248201527b115490cdcc8c4e881d1bdad95b88185b1c9958591e481b5a5b9d195960221b6044820152606401610579565b611cc7600083836115ac565b6001600160a01b0382166000908152600560205260408120805460019290611cf090849061262a565b909155505060008181526004602052604080822080546001600160a01b0319166001600160a01b03861690811790915590518392906000805160206127d3833981519152908290a45050565b6000611d4782610a42565b9050611d55816000846115ac565b611d60600083610e71565b6001600160a01b0381166000908152600560205260408120805460019290611d89908490612675565b909155505060008281526004602052604080822080546001600160a01b0319169055518391906001600160a01b038416906000805160206127d3833981519152908390a45050565b606081611df55750506040805180820190915260018152600360fc1b602082015290565b8160005b8115611e1f5780611e098161270a565b9150611e189050600a83612642565b9150611df9565b6000816001600160401b03811115611e3957611e39612791565b6040519080825280601f01601f191660200182016040528015611e63576020820181803683370190505b5090505b8415610fa157611e78600183612675565b9150611e85600a86612725565b611e9090603061262a565b60f81b818381518110611ea557611ea561277b565b60200101906001600160f81b031916908160001a905350611ec7600a86612642565b9450611e67565b60006001600160e01b03198216637965db0b60e01b148061047957506301ffc9a760e01b6001600160e01b0319831614610479565b60006001611f1084610ab9565b611f1a9190612675565b6000838152600a6020526040902054909150808214611f6d576001600160a01b03841660009081526009602090815260408083208584528252808320548484528184208190558352600a90915290208190555b506000918252600a602090815260408084208490556001600160a01b039094168352600981528383209183525290812055565b600b54600090611fb290600190612675565b6000838152600c6020526040812054600b8054939450909284908110611fda57611fda61277b565b9060005260206000200154905080600b8381548110611ffb57611ffb61277b565b6000918252602080832090910192909255828152600c9091526040808220849055858252812055600b80548061203357612033612765565b6001900381819060005260206000200160009055905550505050565b600061205a83610ab9565b6001600160a01b0390931660009081526009602090815260408083208684528252808320859055938252600a9052919091209190915550565b82805461209f906126cf565b90600052602060002090601f0160209004810192826120c15760008555612107565b82601f106120da57805160ff1916838001178555612107565b82800160010185558215612107579182015b828111156121075782518255916020019190600101906120ec565b5061211392915061214d565b5090565b508054612123906126cf565b6000825580601f10612133575050565b601f01602090049060005260206000209081019061091b91905b5b80821115612113576000815560010161214e565b60006001600160401b038084111561217c5761217c612791565b604051601f8501601f19908116603f011681019082821181831017156121a4576121a4612791565b816040528093508581528686860111156121bd57600080fd5b858560208301376000602087830101525050509392505050565b6000602082840312156121e957600080fd5b8135610b58816127a7565b6000806040838503121561220757600080fd5b8235612212816127a7565b91506020830135612222816127a7565b809150509250929050565b60008060006060848603121561224257600080fd5b833561224d816127a7565b9250602084013561225d816127a7565b929592945050506040919091013590565b6000806000806080858703121561228457600080fd5b843561228f816127a7565b9350602085013561229f816127a7565b92506040850135915060608501356001600160401b038111156122c157600080fd5b8501601f810187136122d257600080fd5b6122e187823560208401612162565b91505092959194509250565b6000806040838503121561230057600080fd5b823561230b816127a7565b91506020830135801515811461222257600080fd5b6000806040838503121561233357600080fd5b823561233e816127a7565b946020939093013593505050565b60006020828403121561235e57600080fd5b5035919050565b6000806040838503121561237857600080fd5b823591506020830135612222816127a7565b6000806040838503121561239d57600080fd5b50508035926020909101359150565b6000602082840312156123be57600080fd5b8135610b58816127bc565b6000602082840312156123db57600080fd5b8151610b58816127bc565b600080604083850312156123f957600080fd5b8235915060208301356001600160401b0381111561241657600080fd5b8301601f8101851361242757600080fd5b61243685823560208401612162565b9150509250929050565b6000815180845261245881602086016020860161268c565b601f01601f19169290920160200192915050565b6000835161247e81846020880161268c565b83519083019061249281836020880161268c565b01949350505050565b76020b1b1b2b9b9a1b7b73a3937b61d1030b1b1b7bab73a1604d1b8152600083516124cd81601785016020880161268c565b7001034b99036b4b9b9b4b733903937b6329607d1b60179184019182015283516124fe81602884016020880161268c565b01602801949350505050565b6001600160a01b038581168252841660208201526040810183905260806060820181905260009061253d90830184612440565b9695505050505050565b602081526000610b586020830184612440565b60208082526032908201527f4552433732313a207472616e7366657220746f206e6f6e20455243373231526560408201527131b2b4bb32b91034b6b83632b6b2b73a32b960711b606082015260800190565b60208082526031908201527f4552433732313a207472616e736665722063616c6c6572206973206e6f74206f6040820152701ddb995c881b9bdc88185c1c1c9bdd9959607a1b606082015260800190565b6020808252601390820152722aa720aaaa2427a924ad22a22fa1a0a62622a960691b604082015260600190565b6000821982111561263d5761263d612739565b500190565b6000826126515761265161274f565b500490565b600081600019048311821515161561267057612670612739565b500290565b60008282101561268757612687612739565b500390565b60005b838110156126a757818101518382015260200161268f565b83811115610cc85750506000910152565b6000816126c7576126c7612739565b506000190190565b600181811c908216806126e357607f821691505b6020821081141561270457634e487b7160e01b600052602260045260246000fd5b50919050565b600060001982141561271e5761271e612739565b5060010190565b6000826127345761273461274f565b500690565b634e487b7160e01b600052601160045260246000fd5b634e487b7160e01b600052601260045260246000fd5b634e487b7160e01b600052603160045260246000fd5b634e487b7160e01b600052603260045260246000fd5b634e487b7160e01b600052604160045260246000fd5b6001600160a01b038116811461091b57600080fd5b6001600160e01b03198116811461091b57600080fdfeddf252ad1be2c89b69c2b068fc378daa952ba7f163c4a11628f55a4df523b3efa164736f6c6343000806000ad31c57ccb8973d46b86c5908906595e79b95be6576719f38633833500aeb0729c65a7bb8d6351c1cf70c95a316cc6a92839c986682d98bc35f958f4883f9d2a869685874091342f6b343c85ecb1d822a41904ed1b1fd332bc56c614d8efebc3fa164736f6c6343000806000a",
  "linkReferences": {},
  "deployedLinkReferences": {}
}