{
  "_format": "hh-sol-artifact-1",
  "contractName": "RC3_Mall",
  "sourceName": "contracts/RC3_Mall.sol",
  "abi": [
    {
      "inputs": [
        {
          "internalType": "address",
          "name": "_rcdy",
          "type": "address"
        },
        {
          "internalType": "address payable",
          "name": "_feeReceipient",
          "type": "address"
        },
        {
          "internalType": "uint96",
          "name": "_feeRCDY",
          "type": "uint96"
        },
        {
          "internalType": "uint96",
          "name": "_ethFee",
          "type": "uint96"
        }
      ],
      "stateMutability": "nonpayable",
      "type": "constructor"
    },
    {
      "anonymous": false,
      "inputs": [
        {
          "indexed": true,
          "internalType": "address",
          "name": "caller",
          "type": "address"
        },
        {
          "indexed": true,
          "internalType": "address",
          "name": "nft",
          "type": "address"
        },
        {
          "indexed": true,
          "internalType": "uint256",
          "name": "auctionId",
          "type": "uint256"
        },
        {
          "indexed": false,
          "internalType": "uint256",
          "name": "tokenID",
          "type": "uint256"
        }
      ],
      "name": "AuctionCancelled",
      "type": "event"
    },
    {
      "anonymous": false,
      "inputs": [
        {
          "indexed": true,
          "internalType": "address",
          "name": "caller",
          "type": "address"
        },
        {
          "indexed": false,
          "internalType": "address",
          "name": "seller",
          "type": "address"
        },
        {
          "indexed": false,
          "internalType": "address",
          "name": "highestBidder",
          "type": "address"
        },
        {
          "indexed": true,
          "internalType": "address",
          "name": "nft",
          "type": "address"
        },
        {
          "indexed": true,
          "internalType": "uint256",
          "name": "auctionId",
          "type": "uint256"
        },
        {
          "indexed": false,
          "internalType": "uint256",
          "name": "tokenId",
          "type": "uint256"
        },
        {
          "indexed": false,
          "internalType": "uint256",
          "name": "amount",
          "type": "uint256"
        },
        {
          "indexed": false,
          "internalType": "uint256",
          "name": "winPrice",
          "type": "uint256"
        }
      ],
      "name": "AuctionResulted",
      "type": "event"
    },
    {
      "anonymous": false,
      "inputs": [
        {
          "indexed": true,
          "internalType": "address",
          "name": "bidder",
          "type": "address"
        },
        {
          "indexed": true,
          "internalType": "address",
          "name": "nft",
          "type": "address"
        },
        {
          "indexed": true,
          "internalType": "uint256",
          "name": "auctionId",
          "type": "uint256"
        },
        {
          "indexed": false,
          "internalType": "uint256",
          "name": "_tokenId",
          "type": "uint256"
        },
        {
          "indexed": false,
          "internalType": "uint256",
          "name": "newEndPeriod",
          "type": "uint256"
        }
      ],
      "name": "AuctionUpdated",
      "type": "event"
    },
    {
      "anonymous": false,
      "inputs": [
        {
          "indexed": true,
          "internalType": "address",
          "name": "creator",
          "type": "address"
        },
        {
          "indexed": true,
          "internalType": "address",
          "name": "nft",
          "type": "address"
        },
        {
          "indexed": true,
          "internalType": "uint256",
          "name": "auctionId",
          "type": "uint256"
        },
        {
          "indexed": false,
          "internalType": "uint256",
          "name": "tokenId",
          "type": "uint256"
        },
        {
          "indexed": false,
          "internalType": "uint256",
          "name": "newEndTime",
          "type": "uint256"
        }
      ],
      "name": "EndTimeUpdated",
      "type": "event"
    },
    {
      "anonymous": false,
      "inputs": [
        {
          "indexed": true,
          "internalType": "address",
          "name": "sender",
          "type": "address"
        },
        {
          "indexed": false,
          "internalType": "address",
          "name": "feeReceipient",
          "type": "address"
        }
      ],
      "name": "FeeRecipientSet",
      "type": "event"
    },
    {
      "anonymous": false,
      "inputs": [
        {
          "indexed": true,
          "internalType": "address",
          "name": "sender",
          "type": "address"
        },
        {
          "indexed": false,
          "internalType": "uint256",
          "name": "feePercentage",
          "type": "uint256"
        },
        {
          "indexed": false,
          "internalType": "enum RC3_Mall.Asset",
          "name": "asset",
          "type": "uint8"
        }
      ],
      "name": "FeeSet",
      "type": "event"
    },
    {
      "anonymous": false,
      "inputs": [
        {
          "indexed": true,
          "internalType": "address",
          "name": "caller",
          "type": "address"
        },
        {
          "indexed": true,
          "internalType": "address",
          "name": "nifty",
          "type": "address"
        },
        {
          "indexed": false,
          "internalType": "uint256",
          "name": "marketId",
          "type": "uint256"
        },
        {
          "indexed": false,
          "internalType": "uint256",
          "name": "tokenId",
          "type": "uint256"
        }
      ],
      "name": "MarketCancelled",
      "type": "event"
    },
    {
      "anonymous": false,
      "inputs": [
        {
          "indexed": true,
          "internalType": "address",
          "name": "caller",
          "type": "address"
        },
        {
          "indexed": true,
          "internalType": "address",
          "name": "nifty",
          "type": "address"
        },
        {
          "indexed": true,
          "internalType": "uint256",
          "name": "marketId",
          "type": "uint256"
        },
        {
          "indexed": false,
          "internalType": "uint256",
          "name": "tokenId",
          "type": "uint256"
        },
        {
          "indexed": false,
          "internalType": "uint256",
          "name": "price",
          "type": "uint256"
        },
        {
          "indexed": false,
          "internalType": "enum RC3_Mall.Asset",
          "name": "asset",
          "type": "uint8"
        }
      ],
      "name": "MarketSale",
      "type": "event"
    },
    {
      "anonymous": false,
      "inputs": [
        {
          "indexed": true,
          "internalType": "address",
          "name": "seller",
          "type": "address"
        },
        {
          "indexed": true,
          "internalType": "address",
          "name": "nft",
          "type": "address"
        },
        {
          "indexed": true,
          "internalType": "uint256",
          "name": "auctionId",
          "type": "uint256"
        },
        {
          "indexed": false,
          "internalType": "uint256",
          "name": "tokenId",
          "type": "uint256"
        },
        {
          "indexed": false,
          "internalType": "uint256",
          "name": "amount",
          "type": "uint256"
        },
        {
          "indexed": false,
          "internalType": "uint256",
          "name": "floorPrice",
          "type": "uint256"
        },
        {
          "indexed": false,
          "internalType": "uint256",
          "name": "startPeriod",
          "type": "uint256"
        },
        {
          "indexed": false,
          "internalType": "uint256",
          "name": "endPeriod",
          "type": "uint256"
        },
        {
          "indexed": false,
          "internalType": "enum RC3_Auction.TokenType",
          "name": "tokenType",
          "type": "uint8"
        }
      ],
      "name": "NewAuction",
      "type": "event"
    },
    {
      "anonymous": false,
      "inputs": [
        {
          "indexed": true,
          "internalType": "address",
          "name": "bidder",
          "type": "address"
        },
        {
          "indexed": true,
          "internalType": "address",
          "name": "nft",
          "type": "address"
        },
        {
          "indexed": true,
          "internalType": "uint256",
          "name": "auctionId",
          "type": "uint256"
        },
        {
          "indexed": false,
          "internalType": "uint256",
          "name": "tokenId",
          "type": "uint256"
        },
        {
          "indexed": false,
          "internalType": "uint256",
          "name": "price",
          "type": "uint256"
        }
      ],
      "name": "NewBid",
      "type": "event"
    },
    {
      "anonymous": false,
      "inputs": [
        {
          "indexed": true,
          "internalType": "address",
          "name": "caller",
          "type": "address"
        },
        {
          "indexed": true,
          "internalType": "address",
          "name": "nifty",
          "type": "address"
        },
        {
          "indexed": true,
          "internalType": "uint256",
          "name": "marketId",
          "type": "uint256"
        },
        {
          "indexed": false,
          "internalType": "uint256",
          "name": "tokenId",
          "type": "uint256"
        },
        {
          "indexed": false,
          "internalType": "uint256",
          "name": "amount",
          "type": "uint256"
        },
        {
          "indexed": false,
          "internalType": "uint256",
          "name": "price",
          "type": "uint256"
        },
        {
          "indexed": false,
          "internalType": "enum RC3_Auction.TokenType",
          "name": "tokenType",
          "type": "uint8"
        },
        {
          "indexed": false,
          "internalType": "enum RC3_Mall.Asset",
          "name": "asset",
          "type": "uint8"
        }
      ],
      "name": "NewMarket",
      "type": "event"
    },
    {
      "anonymous": false,
      "inputs": [
        {
          "indexed": true,
          "internalType": "address",
          "name": "previousOwner",
          "type": "address"
        },
        {
          "indexed": true,
          "internalType": "address",
          "name": "newOwner",
          "type": "address"
        }
      ],
      "name": "OwnershipTransferred",
      "type": "event"
    },
    {
      "inputs": [],
      "name": "auctionId",
      "outputs": [
        {
          "internalType": "uint256",
          "name": "_value",
          "type": "uint256"
        }
      ],
      "stateMutability": "view",
      "type": "function"
    },
    {
      "inputs": [],
      "name": "auctionsClosed",
      "outputs": [
        {
          "internalType": "uint256",
          "name": "_value",
          "type": "uint256"
        }
      ],
      "stateMutability": "view",
      "type": "function"
    },
    {
      "inputs": [
        {
          "internalType": "uint256",
          "name": "_auctionId",
          "type": "uint256"
        },
        {
          "internalType": "uint256",
          "name": "_bidAmount",
          "type": "uint256"
        }
      ],
      "name": "bid",
      "outputs": [
        {
          "internalType": "bool",
          "name": "bidded",
          "type": "bool"
        }
      ],
      "stateMutability": "nonpayable",
      "type": "function"
    },
    {
      "inputs": [
        {
          "internalType": "uint256",
          "name": "_auctionId",
          "type": "uint256"
        }
      ],
      "name": "bidTimeRemaining",
      "outputs": [
        {
          "internalType": "uint256",
          "name": "startsIn",
          "type": "uint256"
        },
        {
          "internalType": "uint256",
          "name": "endsIn",
          "type": "uint256"
        }
      ],
      "stateMutability": "view",
      "type": "function"
    },
    {
      "inputs": [
        {
          "internalType": "uint256",
          "name": "_marketId",
          "type": "uint256"
        }
      ],
      "name": "buyWithETH",
      "outputs": [
        {
          "internalType": "bool",
          "name": "bought",
          "type": "bool"
        }
      ],
      "stateMutability": "payable",
      "type": "function"
    },
    {
      "inputs": [
        {
          "internalType": "uint256",
          "name": "_marketId",
          "type": "uint256"
        }
      ],
      "name": "buyWithRCDY",
      "outputs": [
        {
          "internalType": "bool",
          "name": "bought",
          "type": "bool"
        }
      ],
      "stateMutability": "nonpayable",
      "type": "function"
    },
    {
      "inputs": [
        {
          "internalType": "uint256",
          "name": "_auctionId",
          "type": "uint256"
        }
      ],
      "name": "closeBid",
      "outputs": [
        {
          "internalType": "enum RC3_Auction.State",
          "name": "status",
          "type": "uint8"
        }
      ],
      "stateMutability": "nonpayable",
      "type": "function"
    },
    {
      "inputs": [
        {
          "internalType": "uint256",
          "name": "_marketId",
          "type": "uint256"
        }
      ],
      "name": "delistMarket",
      "outputs": [
        {
          "internalType": "enum RC3_Auction.State",
          "name": "status",
          "type": "uint8"
        }
      ],
      "stateMutability": "nonpayable",
      "type": "function"
    },
    {
      "inputs": [],
      "name": "ethFee",
      "outputs": [
        {
          "internalType": "uint96",
          "name": "",
          "type": "uint96"
        }
      ],
      "stateMutability": "view",
      "type": "function"
    },
    {
      "inputs": [],
      "name": "feePercentage",
      "outputs": [
        {
          "internalType": "uint96",
          "name": "",
          "type": "uint96"
        }
      ],
      "stateMutability": "view",
      "type": "function"
    },
    {
      "inputs": [],
      "name": "feeRecipient",
      "outputs": [
        {
          "internalType": "address payable",
          "name": "",
          "type": "address"
        }
      ],
      "stateMutability": "view",
      "type": "function"
    },
    {
      "inputs": [
        {
          "internalType": "uint256",
          "name": "_auctionId",
          "type": "uint256"
        }
      ],
      "name": "getAuction",
      "outputs": [
        {
          "components": [
            {
              "internalType": "address payable",
              "name": "seller",
              "type": "address"
            },
            {
              "internalType": "address payable",
              "name": "highestBidder",
              "type": "address"
            },
            {
              "internalType": "address",
              "name": "nifty",
              "type": "address"
            },
            {
              "internalType": "uint256",
              "name": "tokenId",
              "type": "uint256"
            },
            {
              "internalType": "uint256",
              "name": "tokenAmount",
              "type": "uint256"
            },
            {
              "internalType": "uint256",
              "name": "initialBidAmount",
              "type": "uint256"
            },
            {
              "internalType": "uint256",
              "name": "highestBidAmount",
              "type": "uint256"
            },
            {
              "internalType": "uint256",
              "name": "startPeriod",
              "type": "uint256"
            },
            {
              "internalType": "uint256",
              "name": "endPeriod",
              "type": "uint256"
            },
            {
              "internalType": "uint256",
              "name": "bidCount",
              "type": "uint256"
            },
            {
              "internalType": "enum RC3_Auction.TokenType",
              "name": "tokenType",
              "type": "uint8"
            },
            {
              "internalType": "enum RC3_Auction.State",
              "name": "state",
              "type": "uint8"
            }
          ],
          "internalType": "struct RC3_Auction.Auction",
          "name": "",
          "type": "tuple"
        }
      ],
      "stateMutability": "view",
      "type": "function"
    },
    {
      "inputs": [],
      "name": "getListedMarkets",
      "outputs": [
        {
          "components": [
            {
              "internalType": "address payable",
              "name": "seller",
              "type": "address"
            },
            {
              "internalType": "address payable",
              "name": "buyer",
              "type": "address"
            },
            {
              "internalType": "address",
              "name": "nifty",
              "type": "address"
            },
            {
              "internalType": "uint256",
              "name": "tokenId",
              "type": "uint256"
            },
            {
              "internalType": "uint256",
              "name": "tokenAmount",
              "type": "uint256"
            },
            {
              "internalType": "uint256",
              "name": "price",
              "type": "uint256"
            },
            {
              "internalType": "enum RC3_Auction.TokenType",
              "name": "tokenType",
              "type": "uint8"
            },
            {
              "internalType": "enum RC3_Auction.State",
              "name": "state",
              "type": "uint8"
            },
            {
              "internalType": "enum RC3_Mall.Asset",
              "name": "asset",
              "type": "uint8"
            }
          ],
          "internalType": "struct RC3_Mall.Market[]",
          "name": "marketItems",
          "type": "tuple[]"
        }
      ],
      "stateMutability": "view",
      "type": "function"
    },
    {
      "inputs": [
        {
          "internalType": "uint256",
          "name": "_marketId",
          "type": "uint256"
        }
      ],
      "name": "getMarket",
      "outputs": [
        {
          "components": [
            {
              "internalType": "address payable",
              "name": "seller",
              "type": "address"
            },
            {
              "internalType": "address payable",
              "name": "buyer",
              "type": "address"
            },
            {
              "internalType": "address",
              "name": "nifty",
              "type": "address"
            },
            {
              "internalType": "uint256",
              "name": "tokenId",
              "type": "uint256"
            },
            {
              "internalType": "uint256",
              "name": "tokenAmount",
              "type": "uint256"
            },
            {
              "internalType": "uint256",
              "name": "price",
              "type": "uint256"
            },
            {
              "internalType": "enum RC3_Auction.TokenType",
              "name": "tokenType",
              "type": "uint8"
            },
            {
              "internalType": "enum RC3_Auction.State",
              "name": "state",
              "type": "uint8"
            },
            {
              "internalType": "enum RC3_Mall.Asset",
              "name": "asset",
              "type": "uint8"
            }
          ],
          "internalType": "struct RC3_Mall.Market",
          "name": "",
          "type": "tuple"
        }
      ],
      "stateMutability": "view",
      "type": "function"
    },
    {
      "inputs": [
        {
          "internalType": "address",
          "name": "nifty",
          "type": "address"
        },
        {
          "internalType": "uint256",
          "name": "_tokenId",
          "type": "uint256"
        },
        {
          "internalType": "uint256",
          "name": "amount",
          "type": "uint256"
        },
        {
          "internalType": "uint256",
          "name": "_startsIn",
          "type": "uint256"
        },
        {
          "internalType": "uint256",
          "name": "_lastsFor",
          "type": "uint256"
        },
        {
          "internalType": "uint256",
          "name": "_initialBidAmount",
          "type": "uint256"
        },
        {
          "internalType": "enum RC3_Auction.TokenType",
          "name": "_type",
          "type": "uint8"
        }
      ],
      "name": "listAuction",
      "outputs": [
        {
          "internalType": "uint256",
          "name": "auctionId_",
          "type": "uint256"
        }
      ],
      "stateMutability": "nonpayable",
      "type": "function"
    },
    {
      "inputs": [
        {
          "internalType": "address",
          "name": "nifty",
          "type": "address"
        },
        {
          "internalType": "uint256",
          "name": "_tokenId",
          "type": "uint256"
        },
        {
          "internalType": "uint256",
          "name": "amount",
          "type": "uint256"
        },
        {
          "internalType": "uint256",
          "name": "_price",
          "type": "uint256"
        },
        {
          "internalType": "enum RC3_Auction.TokenType",
          "name": "_type",
          "type": "uint8"
        },
        {
          "internalType": "enum RC3_Mall.Asset",
          "name": "_asset",
          "type": "uint8"
        }
      ],
      "name": "listMarket",
      "outputs": [
        {
          "internalType": "uint256",
          "name": "marketId_",
          "type": "uint256"
        }
      ],
      "stateMutability": "nonpayable",
      "type": "function"
    },
    {
      "inputs": [],
      "name": "marketId",
      "outputs": [
        {
          "internalType": "uint256",
          "name": "_value",
          "type": "uint256"
        }
      ],
      "stateMutability": "view",
      "type": "function"
    },
    {
      "inputs": [],
      "name": "marketsDelisted",
      "outputs": [
        {
          "internalType": "uint256",
          "name": "_value",
          "type": "uint256"
        }
      ],
      "stateMutability": "view",
      "type": "function"
    },
    {
      "inputs": [],
      "name": "marketsSold",
      "outputs": [
        {
          "internalType": "uint256",
          "name": "_value",
          "type": "uint256"
        }
      ],
      "stateMutability": "view",
      "type": "function"
    },
    {
      "inputs": [],
      "name": "myTradedNFTs",
      "outputs": [
        {
          "components": [
            {
              "internalType": "address payable",
              "name": "seller",
              "type": "address"
            },
            {
              "internalType": "address payable",
              "name": "buyer",
              "type": "address"
            },
            {
              "internalType": "address",
              "name": "nifty",
              "type": "address"
            },
            {
              "internalType": "uint256",
              "name": "tokenId",
              "type": "uint256"
            },
            {
              "internalType": "uint256",
              "name": "tokenAmount",
              "type": "uint256"
            },
            {
              "internalType": "uint256",
              "name": "price",
              "type": "uint256"
            },
            {
              "internalType": "enum RC3_Auction.TokenType",
              "name": "tokenType",
              "type": "uint8"
            },
            {
              "internalType": "enum RC3_Auction.State",
              "name": "state",
              "type": "uint8"
            },
            {
              "internalType": "enum RC3_Mall.Asset",
              "name": "asset",
              "type": "uint8"
            }
          ],
          "internalType": "struct RC3_Mall.Market[]",
          "name": "myNfts",
          "type": "tuple[]"
        }
      ],
      "stateMutability": "view",
      "type": "function"
    },
    {
      "inputs": [
        {
          "internalType": "uint256",
          "name": "_auctionId",
          "type": "uint256"
        }
      ],
      "name": "nextBidAmount",
      "outputs": [
        {
          "internalType": "uint256",
          "name": "amount",
          "type": "uint256"
        }
      ],
      "stateMutability": "view",
      "type": "function"
    },
    {
      "inputs": [
        {
          "internalType": "address",
          "name": "",
          "type": "address"
        },
        {
          "internalType": "address",
          "name": "",
          "type": "address"
        },
        {
          "internalType": "uint256[]",
          "name": "",
          "type": "uint256[]"
        },
        {
          "internalType": "uint256[]",
          "name": "",
          "type": "uint256[]"
        },
        {
          "internalType": "bytes",
          "name": "",
          "type": "bytes"
        }
      ],
      "name": "onERC1155BatchReceived",
      "outputs": [
        {
          "internalType": "bytes4",
          "name": "",
          "type": "bytes4"
        }
      ],
      "stateMutability": "nonpayable",
      "type": "function"
    },
    {
      "inputs": [
        {
          "internalType": "address",
          "name": "",
          "type": "address"
        },
        {
          "internalType": "address",
          "name": "",
          "type": "address"
        },
        {
          "internalType": "uint256",
          "name": "",
          "type": "uint256"
        },
        {
          "internalType": "uint256",
          "name": "",
          "type": "uint256"
        },
        {
          "internalType": "bytes",
          "name": "",
          "type": "bytes"
        }
      ],
      "name": "onERC1155Received",
      "outputs": [
        {
          "internalType": "bytes4",
          "name": "",
          "type": "bytes4"
        }
      ],
      "stateMutability": "nonpayable",
      "type": "function"
    },
    {
      "inputs": [
        {
          "internalType": "address",
          "name": "",
          "type": "address"
        },
        {
          "internalType": "address",
          "name": "",
          "type": "address"
        },
        {
          "internalType": "uint256",
          "name": "",
          "type": "uint256"
        },
        {
          "internalType": "bytes",
          "name": "",
          "type": "bytes"
        }
      ],
      "name": "onERC721Received",
      "outputs": [
        {
          "internalType": "bytes4",
          "name": "",
          "type": "bytes4"
        }
      ],
      "stateMutability": "nonpayable",
      "type": "function"
    },
    {
      "inputs": [],
      "name": "owner",
      "outputs": [
        {
          "internalType": "address",
          "name": "",
          "type": "address"
        }
      ],
      "stateMutability": "view",
      "type": "function"
    },
    {
      "inputs": [],
      "name": "renounceOwnership",
      "outputs": [],
      "stateMutability": "nonpayable",
      "type": "function"
    },
    {
      "inputs": [
        {
          "internalType": "uint96",
          "name": "_newFee",
          "type": "uint96"
        }
      ],
      "name": "setFeeETH",
      "outputs": [],
      "stateMutability": "nonpayable",
      "type": "function"
    },
    {
      "inputs": [
        {
          "internalType": "uint96",
          "name": "_newFee",
          "type": "uint96"
        }
      ],
      "name": "setFeeRCDY",
      "outputs": [],
      "stateMutability": "nonpayable",
      "type": "function"
    },
    {
      "inputs": [
        {
          "internalType": "address payable",
          "name": "_newRecipient",
          "type": "address"
        }
      ],
      "name": "setFeeRecipient",
      "outputs": [],
      "stateMutability": "nonpayable",
      "type": "function"
    },
    {
      "inputs": [
        {
          "internalType": "bytes4",
          "name": "interfaceId",
          "type": "bytes4"
        }
      ],
      "name": "supportsInterface",
      "outputs": [
        {
          "internalType": "bool",
          "name": "",
          "type": "bool"
        }
      ],
      "stateMutability": "view",
      "type": "function"
    },
    {
      "inputs": [
        {
          "internalType": "address",
          "name": "newOwner",
          "type": "address"
        }
      ],
      "name": "transferOwnership",
      "outputs": [],
      "stateMutability": "nonpayable",
      "type": "function"
    },
    {
      "inputs": [
        {
          "internalType": "uint256",
          "name": "_auctionId",
          "type": "uint256"
        },
        {
          "internalType": "uint256",
          "name": "_endsIn",
          "type": "uint256"
        }
      ],
      "name": "updateEndTime",
      "outputs": [
        {
          "internalType": "bool",
          "name": "updated",
          "type": "bool"
        }
      ],
      "stateMutability": "nonpayable",
      "type": "function"
    }
  ],
  "bytecode": "0x60a06040523480156200001157600080fd5b5060405162003e0d38038062003e0d833981016040819052620000349162000317565b6001600081905580546001600160a01b0319166001600160a01b038616179055610c3560a51b6080526200006f620000693390565b620000b5565b6200007a8362000107565b6200008582620001af565b600a80546001600160601b0319166001600160601b038316179055620000ab3362000229565b505050506200038f565b600680546001600160a01b038381166001600160a01b0319831681179093556040519116919082907f8be0079c531659141344cd1fd0a4f28419497f9722a3daafe3b4186f6b6457e090600090a35050565b6004546001600160a01b036c0100000000000000000000000090910481169082168114156200017d5760405162461bcd60e51b815260206004820152601960248201527f4572726f723a20616c72656164792072656365697069656e740000000000000060448201526064015b60405180910390fd5b50600480546001600160a01b039092166c01000000000000000000000000026001600160601b03909216919091179055565b6004546001600160601b03908116908216811415620002065760405162461bcd60e51b8152602060048201526012602482015271115c9c9bdc8e88185b1c9958591e481cd95d60721b604482015260640162000174565b50600480546001600160601b0319166001600160601b0392909216919091179055565b6006546001600160a01b03163314620002855760405162461bcd60e51b815260206004820181905260248201527f4f776e61626c653a2063616c6c6572206973206e6f7420746865206f776e6572604482015260640162000174565b6001600160a01b038116620002ec5760405162461bcd60e51b815260206004820152602660248201527f4f776e61626c653a206e6577206f776e657220697320746865207a65726f206160448201526564647265737360d01b606482015260840162000174565b620002f781620000b5565b50565b80516001600160601b03811681146200031257600080fd5b919050565b600080600080608085870312156200032e57600080fd5b84516200033b8162000379565b60208601519094506200034e8162000379565b92506200035e60408601620002fa565b91506200036e60608601620002fa565b905092959194509250565b6001600160a01b0381168114620002f757600080fd5b60805160a01c613a58620003b560003960008181611e8b01526124dc0152613a586000f3fe6080604052600436106101735760003560e01c806301ffc9a71461017857806304ad187e146101ad57806310782f8f146101cf578063150b7a02146101f457806346904840146102385780634cf1115d1461026c578063575ffe7a146102a457806357b3f9d9146102c4578063598647f8146102e65780636cc03124146103065780636ed71ede1461031d578063715018a61461033457806378bd7935146103495780638da5cb5b14610376578063932ba8c41461038b57806394dc9cf3146103a0578063a001ecdd146103b3578063ab600c59146103d3578063bc197c81146103ea578063bd4b04d414610416578063c00b6bc114610436578063c2c34cae14610456578063d846349e14610483578063db77c20b146104b1578063e44542df146104d1578063e6084a26146104f1578063e74b981b14610508578063eb44fdd314610528578063f23a6e6114610555578063f2fde38b14610581578063f6a89810146105a1578063fe7588ed146105c1575b600080fd5b34801561018457600080fd5b506101986101933660046133e1565b6105e1565b60405190151581526020015b60405180910390f35b3480156101b957600080fd5b506101c2610618565b6040516101a491906135af565b3480156101db57600080fd5b506002546101e69081565b6040519081526020016101a4565b34801561020057600080fd5b5061021f61020f36600461321c565b630a85bd0160e11b949350505050565b6040516001600160e01b031990911681526020016101a4565b34801561024457600080fd5b5060045461025f90600160601b90046001600160a01b031681565b6040516101a49190613516565b34801561027857600080fd5b50600a5461028c906001600160601b031681565b6040516001600160601b0390911681526020016101a4565b3480156102b057600080fd5b506101e66102bf36600461340b565b61085b565b3480156102d057600080fd5b506102e46102df366004613446565b610866565b005b3480156102f257600080fd5b50610198610301366004613424565b6108dc565b34801561031257600080fd5b506003546101e69081565b34801561032957600080fd5b506007546101e69081565b34801561034057600080fd5b506102e4610bb6565b34801561035557600080fd5b5061036961036436600461340b565b610bf1565b6040516101a49190613750565b34801561038257600080fd5b5061025f610cf9565b34801561039757600080fd5b506101c2610d08565b6101986103ae36600461340b565b610f50565b3480156103bf57600080fd5b5060045461028c906001600160601b031681565b3480156103df57600080fd5b506008546101e69081565b3480156103f657600080fd5b5061021f61040536600461316f565b63bc197c8160e01b95945050505050565b34801561042257600080fd5b506101e6610431366004613356565b611187565b34801561044257600080fd5b5061019861045136600461340b565b611394565b34801561046257600080fd5b5061047661047136600461340b565b61160b565b6040516101a491906135fe565b34801561048f57600080fd5b506104a361049e36600461340b565b61185c565b6040516101a4929190613813565b3480156104bd57600080fd5b506102e46104cc366004613446565b611871565b3480156104dd57600080fd5b506101986104ec366004613424565b61191a565b3480156104fd57600080fd5b506009546101e69081565b34801561051457600080fd5b506102e461052336600461312e565b6119ff565b34801561053457600080fd5b5061054861054336600461340b565b611a70565b6040516101a49190613804565b34801561056157600080fd5b5061021f610570366004613287565b63f23a6e6160e01b95945050505050565b34801561058d57600080fd5b506102e461059c36600461312e565b611b7e565b3480156105ad57600080fd5b506104766105bc36600461340b565b611c1e565b3480156105cd57600080fd5b506101e66105dc3660046132ef565b6121a5565b60006001600160e01b03198216630271189760e51b148061061257506301ffc9a760e01b6001600160e01b03198316145b92915050565b6060600061062560075490565b9050600061063260085490565b60095461063f908461396f565b610649919061396f565b9050600080826001600160401b03811115610666576106666139e3565b60405190808252806020026020018201604052801561069f57816020015b61068c612f6f565b8152602001906001900390816106845790505b50905060005b84811015610852576001600b60006106be846001613916565b8152602081019190915260400160002060060154610100900460ff1660038111156106eb576106eb6139b7565b1415610840576000600b81610701846001613916565b8152602080820192909252604090810160002081516101208101835281546001600160a01b039081168252600180840154821695830195909552600283015416928101929092526003810154606083015260048101546080830152600581015460a083015260068101549192909160c084019160ff90911690811115610789576107896139b7565b600181111561079a5761079a6139b7565b81526020016006820160019054906101000a900460ff1660038111156107c2576107c26139b7565b60038111156107d3576107d36139b7565b81526020016006820160029054906101000a900460ff1660018111156107fb576107fb6139b7565b600181111561080c5761080c6139b7565b81525050905080838581518110610825576108256139cd565b6020026020010181905250838061083b90613986565b945050505b8061084a81613986565b9150506106a5565b50949350505050565b6000610612826123ae565b3361086f610cf9565b6001600160a01b03161461089e5760405162461bcd60e51b815260040161089590613664565b60405180910390fd5b6108a78161252d565b336001600160a01b0316600080516020613a2c8339815191528260016040516108d19291906138c0565b60405180910390a250565b6000600260005414156109015760405162461bcd60e51b815260040161089590613719565b600260005582826109128282612580565b6000858152600560205260409081902060015491516323b872dd60e01b815290916001600160a01b0316906323b872dd9061095590339030908a90600401613543565b602060405180830381600087803b15801561096f57600080fd5b505af1158015610983573d6000803e3d6000fd5b505050506040513d601f19601f820116820180604052508101906109a791906133bf565b50600981015415610a41576001805490820154600683015460405163a9059cbb60e01b81526001600160a01b039384169363a9059cbb936109ed9391169160040161352a565b602060405180830381600087803b158015610a0757600080fd5b505af1158015610a1b573d6000803e3d6000fd5b505050506040513d601f19601f82011682018060405250810190610a3f91906133bf565b505b6001810180546001600160a01b0319163317905560068101859055600981018054906000610a6e83613986565b90915550506002810154600382015460405188926001600160a01b03169133917f911d834cc781bcb7a08922b9dd1f1d175c0a0467d9705194c2e200f8ce2786bb91610abb918b90613813565b60405180910390a46000610ace876127be565b915050610e10811015610ba357610e10610aea82610258613916565b1115610b1a57610afc81610e1061396f565b826008016000828254610b0f9190613916565b925050819055610b37565b610258826008016000828254610b309190613916565b9250508190555b506000610b43886127be565b600285015460038601549193508a92506001600160a01b03169033907ff3f8c69115d9f33b41d0ae7a8f88fb8cde222311d82702dc55025079d0eca53a90610b8b8642613916565b604051610b99929190613813565b60405180910390a4505b6001945050505050600160005592915050565b33610bbf610cf9565b6001600160a01b031614610be55760405162461bcd60e51b815260040161089590613664565b610bef6000612910565b565b610bf9612fba565b60008281526005602081815260409283902083516101808101855281546001600160a01b0390811682526001808401548216948301949094526002830154169481019490945260038101546060850152600481015460808501529182015460a0840152600682015460c0840152600782015460e084015260088201546101008401526009820154610120840152600a82015461014084019160ff90911690811115610ca657610ca66139b7565b6001811115610cb757610cb76139b7565b8152602001600a820160019054906101000a900460ff166003811115610cdf57610cdf6139b7565b6003811115610cf057610cf06139b7565b90525092915050565b6006546001600160a01b031690565b60606000610d1560075490565b905060008060005b83811015610d785733600b6000610d35846001613916565b81526020810191909152604001600020600101546001600160a01b03161415610d665782610d6281613986565b9350505b80610d7081613986565b915050610d1d565b506000826001600160401b03811115610d9357610d936139e3565b604051908082528060200260200182016040528015610dcc57816020015b610db9612f6f565b815260200190600190039081610db15790505b50905060005b84811015610852576000600b81610dea846001613916565b8152602080820192909252604090810160002081516101208101835281546001600160a01b039081168252600180840154821695830195909552600283015416928101929092526003810154606083015260048101546080830152600581015460a083015260068101549192909160c084019160ff90911690811115610e7257610e726139b7565b6001811115610e8357610e836139b7565b81526020016006820160019054906101000a900460ff166003811115610eab57610eab6139b7565b6003811115610ebc57610ebc6139b7565b81526020016006820160029054906101000a900460ff166001811115610ee457610ee46139b7565b6001811115610ef557610ef56139b7565b90525060208101519091506001600160a01b0316331415610f3d5780838581518110610f2357610f236139cd565b60200260200101819052508380610f3990613986565b9450505b5080610f4881613986565b915050610dd2565b600081610f5c81612962565b6000838152600b6020908152604080832081516101208101835281546001600160a01b039081168252600180840154821695830195909552600283015416928101929092526003810154606083015260048101546080830152600581015460a083015260068101549192909160c084019160ff90911690811115610fe257610fe26139b7565b6001811115610ff357610ff36139b7565b81526020016006820160019054906101000a900460ff16600381111561101b5761101b6139b7565b600381111561102c5761102c6139b7565b81526020016006820160029054906101000a900460ff166001811115611054576110546139b7565b6001811115611065576110656139b7565b905250600a5460a08201519192506001600160601b031690600090620186a09061108f9084613950565b611099919061392e565b90508260a0015134146110e75760405162461bcd60e51b81526020600482015260166024820152751253959053125117d410565351539517d05353d5539560521b6044820152606401610895565b600454604051600160601b9091046001600160a01b0316906108fc8315029083906000818181858888f19350505050158015611127573d6000803e3d6000fd5b5082600001516001600160a01b03166108fc828560a00151611149919061396f565b6040518115909202916000818181858888f19350505050158015611171573d6000803e3d6000fd5b5061117b86612af6565b50600195945050505050565b6000611197600280546001019055565b50600254836111db5760405162461bcd60e51b815260206004820152601060248201526f24a72b20a624a22fa22aa920aa24a7a760811b6044820152606401610895565b60008260018111156111ef576111ef6139b7565b14156112f0576040516331a9108f60e11b81526004810188905288906000906001600160a01b03831690636352211e9060240160206040518083038186803b15801561123a57600080fd5b505afa15801561124e573d6000803e3d6000fd5b505050506040513d601f19601f820116820180604052508101906112729190613152565b604051632142170760e11b81529091506001600160a01b038316906342842e0e906112a590849030908e90600401613543565b600060405180830381600087803b1580156112bf57600080fd5b505af11580156112d3573d6000803e3d6000fd5b505050506112e98a848b60018b8b8b6000612cd4565b5050611389565b600086116113105760405162461bcd60e51b8152600401610895906136f1565b604051637921219560e11b815288906001600160a01b0382169063f242432a9061134490339030908d908d90600401613567565b600060405180830381600087803b15801561135e57600080fd5b505af1158015611372573d6000803e3d6000fd5b5050505061138789838a8a8a8a8a6001612cd4565b505b979650505050505050565b6000816113a081612962565b6000838152600b6020908152604080832081516101208101835281546001600160a01b039081168252600180840154821695830195909552600283015416928101929092526003810154606083015260048101546080830152600581015460a083015260068101549192909160c084019160ff90911690811115611426576114266139b7565b6001811115611437576114376139b7565b81526020016006820160019054906101000a900460ff16600381111561145f5761145f6139b7565b6003811115611470576114706139b7565b81526020016006820160029054906101000a900460ff166001811115611498576114986139b7565b60018111156114a9576114a96139b7565b90525060045460a08201519192506001600160601b031690600090620186a0906114d39084613950565b6114dd919061392e565b600154600480546040516323b872dd60e01b81529394506001600160a01b03928316936323b872dd9361151f933393600160601b900490911691879101613543565b602060405180830381600087803b15801561153957600080fd5b505af115801561154d573d6000803e3d6000fd5b505050506040513d601f19601f8201168201806040525081019061157191906133bf565b50600154835160a08501516001600160a01b03909216916323b872dd91339161159b90869061396f565b6040518463ffffffff1660e01b81526004016115b993929190613543565b602060405180830381600087803b1580156115d357600080fd5b505af11580156115e7573d6000803e3d6000fd5b505050506040513d601f19601f8201168201806040525081019061117191906133bf565b6000600260005414156116305760405162461bcd60e51b815260040161089590613719565b60026000908155828152600b602052604090206006810154610100900460ff166003811115611661576116616139b7565b6001146116805760405162461bcd60e51b815260040161089590613699565b80546001600160a01b031633146116cf5760405162461bcd60e51b81526020600482015260136024820152722aa720aaaa2427a924ad22a22fa1a0a62622a960691b6044820152606401610895565b6000600682015460ff1660018111156116ea576116ea6139b7565b1461176a57600281015481546003830154600480850154604051637921219560e11b81526001600160a01b039586169563f242432a956117339530959190921693919201613567565b600060405180830381600087803b15801561174d57600080fd5b505af1158015611761573d6000803e3d6000fd5b505050506117db565b600281015481546003830154604051632142170760e11b81526001600160a01b03938416936342842e0e936117a89330939290911691600401613543565b600060405180830381600087803b1580156117c257600080fd5b505af11580156117d6573d6000803e3d6000fd5b505050505b60068101805461ff001916610200179055600980546001019055600281015460038201546040516001600160a01b039092169133917f1b8533106988126be2d3db59ca29eb634d45d513b5e215053409141b26f8f42e9161183d918891613813565b60405180910390a3600601546001600055610100900460ff1692915050565b600080611868836127be565b91509150915091565b3361187a610cf9565b6001600160a01b0316146118a05760405162461bcd60e51b815260040161089590613664565b600a546001600160601b039081169082168114156118d05760405162461bcd60e51b81526004016108959061360c565b600a80546001600160601b0319166001600160601b0384161790556040513390600080516020613a2c8339815191529061190e9085906000906138c0565b60405180910390a25050565b600082815260056020526040812080546001600160a01b0316331461196f5760405162461bcd60e51b815260206004820152600b60248201526a27a7262cafa9a2a62622a960a91b6044820152606401610895565b42816007015411156119935760405162461bcd60e51b8152600401610895906136c4565b61199d8342613916565b600882018190556002820154600383015460405187936001600160a01b039093169233927fef21c10270bf7c06ec6bdcbcb5a9b3eadf05a5426cfe77d674388eb1c0575149926119ed9290613813565b60405180910390a45060019392505050565b33611a08610cf9565b6001600160a01b031614611a2e5760405162461bcd60e51b815260040161089590613664565b611a3781612ddb565b336001600160a01b03167f15d80a013f22151bc7246e3bc132e12828cde19de98870475e3fa70840152721826040516108d19190613516565b611a78612f6f565b6000828152600b602090815260409182902082516101208101845281546001600160a01b039081168252600180840154821694830194909452600283015416938101939093526003810154606084015260048101546080840152600581015460a08401526006810154909160c084019160ff1690811115611afb57611afb6139b7565b6001811115611b0c57611b0c6139b7565b81526020016006820160019054906101000a900460ff166003811115611b3457611b346139b7565b6003811115611b4557611b456139b7565b81526020016006820160029054906101000a900460ff166001811115611b6d57611b6d6139b7565b6001811115610cf057610cf06139b7565b33611b87610cf9565b6001600160a01b031614611bad5760405162461bcd60e51b815260040161089590613664565b6001600160a01b038116611c125760405162461bcd60e51b815260206004820152602660248201527f4f776e61626c653a206e6577206f776e657220697320746865207a65726f206160448201526564647265737360d01b6064820152608401610895565b611c1b81612910565b50565b600060026000541415611c435760405162461bcd60e51b815260040161089590613719565b600260009081558281526005602052604090206001600a820154610100900460ff166003811115611c7657611c766139b7565b14611c935760405162461bcd60e51b815260040161089590613638565b600080611c9f856127be565b9150915081600014611cc35760405162461bcd60e51b8152600401610895906136c4565b8015611d055760405162461bcd60e51b8152602060048201526011602482015270105550d51253d397d393d517d153911151607a1b6044820152606401610895565b600683015480611e7b576000600a85015460ff166001811115611d2a57611d2a6139b7565b14611daa57600284015484546003860154600480880154604051637921219560e11b81526001600160a01b039586169563f242432a95611d739530959190921693919201613567565b600060405180830381600087803b158015611d8d57600080fd5b505af1158015611da1573d6000803e3d6000fd5b50505050611e1b565b600284015484546003860154604051632142170760e11b81526001600160a01b03938416936342842e0e93611de89330939290911691600401613543565b600060405180830381600087803b158015611e0257600080fd5b505af1158015611e16573d6000803e3d6000fd5b505050505b600a8401805461ff00191661020017905560028401546003850154604080519182525188926001600160a01b03169133917f57bfd08a841d5d478e4fef268a8b041c65e389dddfa00f8c4a88a9d4fd9bc8249181900360200190a461217d565b6004546000906001600160601b037f0000000000000000000000000000000000000000000000000000000000000000811691611eb991859116613950565b611ec3919061392e565b60018087015490546004805460405163a9059cbb60e01b81529495506001600160a01b03938416949284169363a9059cbb93611f0d93600160601b9093049091169187910161352a565b602060405180830381600087803b158015611f2757600080fd5b505af1158015611f3b573d6000803e3d6000fd5b505050506040513d601f19601f82011682018060405250810190611f5f91906133bf565b5060015486546001600160a01b039182169163a9059cbb9116611f82858761396f565b6040518363ffffffff1660e01b8152600401611f9f92919061352a565b602060405180830381600087803b158015611fb957600080fd5b505af1158015611fcd573d6000803e3d6000fd5b505050506040513d601f19601f82011682018060405250810190611ff191906133bf565b506000600a87015460ff16600181111561200d5761200d6139b7565b146120885760028601546003870154600480890154604051637921219560e11b81526001600160a01b039094169363f242432a936120519330938893909101613567565b600060405180830381600087803b15801561206b57600080fd5b505af115801561207f573d6000803e3d6000fd5b505050506120f4565b60028601546003870154604051632142170760e11b81526001600160a01b03909216916342842e0e916120c19130918691600401613543565b600060405180830381600087803b1580156120db57600080fd5b505af11580156120ef573d6000803e3d6000fd5b505050505b600a8601805461030061ff00199091161790556002860154865460038801546004890154604080516001600160a01b0394851681528685166020820152908101929092526060820152608081018690528a92919091169033907f31c8601b5dd4c4e31751f64d3545cc33889c92681a65811a7f4575b3ae26d5569060a00160405180910390a450505b61218b600380546001019055565b505050600a01546001600055610100900460ff1692915050565b60008084116121e65760405162461bcd60e51b815260206004820152600d60248201526c494e56414c49445f505249434560981b6044820152606401610895565b6121f4600780546001019055565b50600754600083600181111561220c5761220c6139b7565b141561230c576040516331a9108f60e11b81526004810187905287906000906001600160a01b03831690636352211e9060240160206040518083038186803b15801561225757600080fd5b505afa15801561226b573d6000803e3d6000fd5b505050506040513d601f19601f8201168201806040525081019061228f9190613152565b604051632142170760e11b81529091506001600160a01b038316906342842e0e906122c290849030908d90600401613543565b600060405180830381600087803b1580156122dc57600080fd5b505af11580156122f0573d6000803e3d6000fd5b5050505061230589848a60018a60008a612e67565b50506123a4565b6000851161232c5760405162461bcd60e51b8152600401610895906136f1565b604051637921219560e11b815287906001600160a01b0382169063f242432a9061236090339030908c908c90600401613567565b600060405180830381600087803b15801561237a57600080fd5b505af115801561238e573d6000803e3d6000fd5b505050506123a28883898989600189612e67565b505b9695505050505050565b600081815260056020818152604080842081516101808101835281546001600160a01b0390811682526001808401548216958301959095526002830154169281019290925260038101546060830152600481015460808301529283015460a0820152600683015460c0820152600783015460e082015260088301546101008201526009830154610120820152600a8301548493919261014084019160ff169081111561245c5761245c6139b7565b600181111561246d5761246d6139b7565b8152602001600a820160019054906101000a900460ff166003811115612495576124956139b7565b60038111156124a6576124a66139b7565b90525080519091506001600160a01b0316156125245760c0810151806124d1575060a0015192915050565b806001600160601b037f00000000000000000000000000000000000000000000000000000000000000001661250882612710613950565b612512919061392e565b61251c9190613916565b949350505050565b50600092915050565b6004546001600160601b0390811690821681141561255d5760405162461bcd60e51b81526004016108959061360c565b50600480546001600160601b0319166001600160601b0392909216919091179055565b600082815260056020818152604080842081516101808101835281546001600160a01b0390811682526001808401548216958301959095526002830154169281019290925260038101546060830152600481015460808301529283015460a0820152600683015460c0820152600783015460e082015260088301546101008201526009830154610120820152600a83015490929161014084019160ff169081111561262d5761262d6139b7565b600181111561263e5761263e6139b7565b8152602001600a820160019054906101000a900460ff166003811115612666576126666139b7565b6003811115612677576126776139b7565b9052506101008101519091506001826101600151600381111561269c5761269c6139b7565b146126b95760405162461bcd60e51b815260040161089590613638565b81516001600160a01b03163314156127065760405162461bcd60e51b815260206004820152601060248201526f13d5d3915497d0d0539393d517d0925160821b6044820152606401610895565b428260e00151111561272a5760405162461bcd60e51b8152600401610895906136c4565b4281116127695760405162461bcd60e51b815260206004820152600d60248201526c105550d51253d397d153911151609a1b6044820152606401610895565b612772846123ae565b8310156127b85760405162461bcd60e51b81526020600482015260146024820152731253959053125117d25394155517d05353d5539560621b6044820152606401610895565b50505050565b600081815260056020818152604080842081516101808101835281546001600160a01b0390811682526001808401548216958301959095526002830154169281019290925260038101546060830152600481015460808301529283015460a0820152600683015460c0820152600783015460e082015260088301546101008201526009830154610120820152600a83015484938493909161014084019160ff90911690811115612870576128706139b7565b6001811115612881576128816139b7565b8152602001600a820160019054906101000a900460ff1660038111156128a9576128a96139b7565b60038111156128ba576128ba6139b7565b815250509050428160e00151116128d25760006128e2565b428160e001516128e2919061396f565b925042816101000151116128f7576000612908565b42816101000151612908919061396f565b915050915091565b600680546001600160a01b038381166001600160a01b0319831681179093556040519116919082907f8be0079c531659141344cd1fd0a4f28419497f9722a3daafe3b4186f6b6457e090600090a35050565b6000818152600b6020908152604080832081516101208101835281546001600160a01b039081168252600180840154821695830195909552600283015416928101929092526003810154606083015260048101546080830152600581015460a083015260068101549192909160c084019160ff909116908111156129e8576129e86139b7565b60018111156129f9576129f96139b7565b81526020016006820160019054906101000a900460ff166003811115612a2157612a216139b7565b6003811115612a3257612a326139b7565b81526020016006820160029054906101000a900460ff166001811115612a5a57612a5a6139b7565b6001811115612a6b57612a6b6139b7565b905250905060018160e001516003811115612a8857612a886139b7565b14612aa55760405162461bcd60e51b815260040161089590613699565b80516001600160a01b0316331415612af25760405162461bcd60e51b815260206004820152601060248201526f4f574e45525f43414e4e4f545f42555960801b6044820152606401610895565b5050565b60026000541415612b195760405162461bcd60e51b815260040161089590613719565b60026000908155818152600b602052604090206001810180546001600160a01b031916331790556006810180546003919061ff001916610100830217905550612b66600880546001019055565b6000600682015460ff166001811115612b8157612b816139b7565b14612bfc5760028101546003820154600480840154604051637921219560e11b81526001600160a01b039094169363f242432a93612bc59330933393909101613567565b600060405180830381600087803b158015612bdf57600080fd5b505af1158015612bf3573d6000803e3d6000fd5b50505050612c68565b60028101546003820154604051632142170760e11b81526001600160a01b03909216916342842e0e91612c359130913391600401613543565b600060405180830381600087803b158015612c4f57600080fd5b505af1158015612c63573d6000803e3d6000fd5b505050505b600281015460038201546005830154600684015460405186946001600160a01b03169333937f25353c877f813e6c285649c847a980aebcdcc579c7d36bee87d6c2f0dfff0bd093612cc3936201000090910460ff1690613821565b60405180910390a450506001600055565b600087815260056020526040812090612ced8642613916565b90506000612cfb8683613916565b6002840180546001600160a01b038e166001600160a01b031991821617909155600385018b905560078501849055600885018290558454163317845560058401869055600a84018054919250859160ff191660018381811115612d6057612d606139b7565b021790555060048301889055600a8301805461ff0019166101001790556040518a906001600160a01b038d169033907f199f73ece82f19f692dcb7db8f91f2527bd3158ffae28e226d7ef02df704353490612dc6908e908e908c908a908a908e90613883565b60405180910390a45050505050505050505050565b6004546001600160a01b03600160601b9091048116908216811415612e3e5760405162461bcd60e51b8152602060048201526019602482015278115c9c9bdc8e88185b1c9958591e481c9958d95a5c1a595b9d603a1b6044820152606401610895565b50600480546001600160a01b03909216600160601b026001600160601b03909216919091179055565b6000868152600b602052604090208054336001600160a01b03199182161782556002820180549091166001600160a01b038a1617905560038101869055600481018590556005810184905560068101805461ff00198116610100908117835585929161ffff19161760018381811115612ee257612ee26139b7565b021790555060068101805483919062ff0000191662010000836001811115612f0c57612f0c6139b7565b021790555086886001600160a01b0316336001600160a01b03167f9d1dabeeddd19bb4a452fec325878c591ae8672c5fa5eecec875ba5aebdfdc4d8989898989604051612f5d959493929190613846565b60405180910390a45050505050505050565b6040805161012081018252600080825260208201819052918101829052606081018290526080810182905260a081018290529060c08201908152602001600081526020016000905290565b60405180610180016040528060006001600160a01b0316815260200160006001600160a01b0316815260200160006001600160a01b03168152602001600081526020016000815260200160008152602001600081526020016000815260200160008152602001600081526020016000600181111561303a5761303a6139b7565b81526020016000905290565b600082601f83011261305757600080fd5b813560206001600160401b03821115613072576130726139e3565b8160051b6130818282016138e6565b83815282810190868401838801850189101561309c57600080fd5b600093505b858410156113875780358352600193909301929184019184016130a1565b600082601f8301126130d057600080fd5b81356001600160401b038111156130e9576130e96139e3565b6130fc601f8201601f19166020016138e6565b81815284602083860101111561311157600080fd5b816020850160208301376000918101602001919091529392505050565b60006020828403121561314057600080fd5b813561314b81613a09565b9392505050565b60006020828403121561316457600080fd5b815161314b81613a09565b600080600080600060a0868803121561318757600080fd5b853561319281613a09565b945060208601356131a281613a09565b935060408601356001600160401b03808211156131be57600080fd5b6131ca89838a01613046565b945060608801359150808211156131e057600080fd5b6131ec89838a01613046565b9350608088013591508082111561320257600080fd5b5061320f888289016130bf565b9150509295509295909350565b6000806000806080858703121561323257600080fd5b843561323d81613a09565b9350602085013561324d81613a09565b92506040850135915060608501356001600160401b0381111561326f57600080fd5b61327b878288016130bf565b91505092959194509250565b600080600080600060a0868803121561329f57600080fd5b85356132aa81613a09565b945060208601356132ba81613a09565b9350604086013592506060860135915060808601356001600160401b038111156132e357600080fd5b61320f888289016130bf565b60008060008060008060c0878903121561330857600080fd5b863561331381613a09565b9550602087013594506040870135935060608701359250608087013561333881613a1e565b915060a087013561334881613a1e565b809150509295509295509295565b600080600080600080600060e0888a03121561337157600080fd5b873561337c81613a09565b96506020880135955060408801359450606088013593506080880135925060a0880135915060c08801356133af81613a1e565b8091505092959891949750929550565b6000602082840312156133d157600080fd5b8151801515811461314b57600080fd5b6000602082840312156133f357600080fd5b81356001600160e01b03198116811461314b57600080fd5b60006020828403121561341d57600080fd5b5035919050565b6000806040838503121561343757600080fd5b50508035926020909101359150565b60006020828403121561345857600080fd5b81356001600160601b038116811461314b57600080fd5b6001600160a01b03169052565b613485816139f9565b9052565b60048110613485576134856139b7565b60018060a01b0380825116835280602083015116602084015280604083015116604084015250606081015160608301526080810151608083015260a081015160a083015260c08101516134ef60c084018261347c565b5060e081015161350260e0840182613489565b50610100808201516127b88285018261347c565b6001600160a01b0391909116815260200190565b6001600160a01b03929092168252602082015260400190565b6001600160a01b039384168152919092166020820152604081019190915260600190565b6001600160a01b03858116825284166020820152604081018390526060810182905260a0608082018190526003908201526203078360ec1b60c0820152600060e082016123a4565b6020808252825182820181905260009190848201906040850190845b818110156135f2576135de838551613499565b9284019261012092909201916001016135cb565b50909695505050505050565b602081016106128284613489565b602080825260129082015271115c9c9bdc8e88185b1c9958591e481cd95d60721b604082015260600190565b602080825260129082015271105550d51253d397d393d517d31254d5115160721b604082015260600190565b6020808252818101527f4f776e61626c653a2063616c6c6572206973206e6f7420746865206f776e6572604082015260600190565b60208082526011908201527013505492d15517d393d517d31254d51151607a1b604082015260600190565b602080825260139082015272105550d51253d397d393d517d4d51054951151606a1b604082015260600190565b6020808252600e908201526d1253959053125117d05353d5539560921b604082015260600190565b6020808252601f908201527f5265656e7472616e637947756172643a207265656e7472616e742063616c6c00604082015260600190565b60006101808201905061376482845161346f565b6020830151613776602084018261346f565b506040830151613789604084018261346f565b50606083015160608301526080830151608083015260a083015160a083015260c083015160c083015260e083015160e0830152610100808401518184015250610120808401518184015250610140808401516137e78285018261347c565b5050610160808401516137fc82850182613489565b505092915050565b61012081016106128284613499565b918252602082015260400190565b8381526020810183905260608101613838836139f9565b826040830152949350505050565b858152602081018590526040810184905260a08101613864846139f9565b836060830152613873836139f9565b8260808301529695505050505050565b600060c0820190508782528660208301528560408301528460608301528360808301526138af836139f9565b8260a0830152979650505050505050565b6001600160601b0383168152604081016138d9836139f9565b8260208301529392505050565b604051601f8201601f191681016001600160401b038111828210171561390e5761390e6139e3565b604052919050565b60008219821115613929576139296139a1565b500190565b60008261394b57634e487b7160e01b600052601260045260246000fd5b500490565b600081600019048311821515161561396a5761396a6139a1565b500290565b600082821015613981576139816139a1565b500390565b600060001982141561399a5761399a6139a1565b5060010190565b634e487b7160e01b600052601160045260246000fd5b634e487b7160e01b600052602160045260246000fd5b634e487b7160e01b600052603260045260246000fd5b634e487b7160e01b600052604160045260246000fd5b60028110611c1b57611c1b6139b7565b6001600160a01b0381168114611c1b57600080fd5b60028110611c1b57600080fdfed31c57ccb8973d46b86c5908906595e79b95be6576719f38633833500aeb0729a164736f6c6343000806000a",
  "linkReferences": {},
  "deployedLinkReferences": {}
}