{
  "_format": "hh-sol-artifact-1",
  "contractName": "RC3_Mall",
  "sourceName": "contracts/RC3_Mall.sol",
  "abi": [
    {
      "anonymous": false,
      "inputs": [
        {
          "indexed": true,
          "internalType": "address",
          "name": "caller",
          "type": "address"
        },
        {
          "indexed": true,
          "internalType": "address",
          "name": "nft",
          "type": "address"
        },
        {
          "indexed": true,
          "internalType": "uint256",
          "name": "auctionId",
          "type": "uint256"
        },
        {
          "indexed": false,
          "internalType": "uint256",
          "name": "tokenID",
          "type": "uint256"
        }
      ],
      "name": "AuctionCancelled",
      "type": "event"
    },
    {
      "anonymous": false,
      "inputs": [
        {
          "indexed": true,
          "internalType": "address",
          "name": "caller",
          "type": "address"
        },
        {
          "indexed": false,
          "internalType": "address",
          "name": "seller",
          "type": "address"
        },
        {
          "indexed": false,
          "internalType": "address",
          "name": "highestBidder",
          "type": "address"
        },
        {
          "indexed": true,
          "internalType": "address",
          "name": "nft",
          "type": "address"
        },
        {
          "indexed": true,
          "internalType": "uint256",
          "name": "auctionId",
          "type": "uint256"
        },
        {
          "indexed": false,
          "internalType": "uint256",
          "name": "tokenId",
          "type": "uint256"
        },
        {
          "indexed": false,
          "internalType": "uint256",
          "name": "amount",
          "type": "uint256"
        },
        {
          "indexed": false,
          "internalType": "uint256",
          "name": "winPrice",
          "type": "uint256"
        }
      ],
      "name": "AuctionResulted",
      "type": "event"
    },
    {
      "anonymous": false,
      "inputs": [
        {
          "indexed": true,
          "internalType": "address",
          "name": "bidder",
          "type": "address"
        },
        {
          "indexed": true,
          "internalType": "address",
          "name": "nft",
          "type": "address"
        },
        {
          "indexed": true,
          "internalType": "uint256",
          "name": "auctionId",
          "type": "uint256"
        },
        {
          "indexed": false,
          "internalType": "uint256",
          "name": "_tokenId",
          "type": "uint256"
        },
        {
          "indexed": false,
          "internalType": "uint256",
          "name": "newEndPeriod",
          "type": "uint256"
        }
      ],
      "name": "AuctionUpdated",
      "type": "event"
    },
    {
      "anonymous": false,
      "inputs": [
        {
          "indexed": true,
          "internalType": "address",
          "name": "sender",
          "type": "address"
        },
        {
          "indexed": true,
          "internalType": "address",
          "name": "feeReceipient",
          "type": "address"
        }
      ],
      "name": "FeeRecipientSet",
      "type": "event"
    },
    {
      "anonymous": false,
      "inputs": [
        {
          "indexed": true,
          "internalType": "address",
          "name": "sender",
          "type": "address"
        },
        {
          "indexed": false,
          "internalType": "uint256",
          "name": "feePercentage",
          "type": "uint256"
        },
        {
          "indexed": true,
          "internalType": "enum RC3_Mall.Asset",
          "name": "asset",
          "type": "uint8"
        }
      ],
      "name": "FeeSet",
      "type": "event"
    },
    {
      "anonymous": false,
      "inputs": [
        {
          "indexed": false,
          "internalType": "uint8",
          "name": "version",
          "type": "uint8"
        }
      ],
      "name": "Initialized",
      "type": "event"
    },
    {
      "anonymous": false,
      "inputs": [
        {
          "indexed": true,
          "internalType": "address",
          "name": "caller",
          "type": "address"
        },
        {
          "indexed": true,
          "internalType": "address",
          "name": "nifty",
          "type": "address"
        },
        {
          "indexed": false,
          "internalType": "uint256",
          "name": "marketId",
          "type": "uint256"
        },
        {
          "indexed": false,
          "internalType": "uint256",
          "name": "tokenId",
          "type": "uint256"
        }
      ],
      "name": "MarketCancelled",
      "type": "event"
    },
    {
      "anonymous": false,
      "inputs": [
        {
          "indexed": true,
          "internalType": "address",
          "name": "caller",
          "type": "address"
        },
        {
          "indexed": true,
          "internalType": "address",
          "name": "nifty",
          "type": "address"
        },
        {
          "indexed": true,
          "internalType": "uint256",
          "name": "marketId",
          "type": "uint256"
        },
        {
          "indexed": false,
          "internalType": "uint256",
          "name": "tokenId",
          "type": "uint256"
        },
        {
          "indexed": false,
          "internalType": "uint256",
          "name": "price",
          "type": "uint256"
        },
        {
          "indexed": false,
          "internalType": "enum RC3_Mall.Asset",
          "name": "asset",
          "type": "uint8"
        }
      ],
      "name": "MarketSale",
      "type": "event"
    },
    {
      "anonymous": false,
      "inputs": [
        {
          "indexed": true,
          "internalType": "address",
          "name": "seller",
          "type": "address"
        },
        {
          "indexed": true,
          "internalType": "address",
          "name": "nft",
          "type": "address"
        },
        {
          "indexed": true,
          "internalType": "uint256",
          "name": "auctionId",
          "type": "uint256"
        },
        {
          "indexed": false,
          "internalType": "uint256",
          "name": "tokenId",
          "type": "uint256"
        },
        {
          "indexed": false,
          "internalType": "uint256",
          "name": "amount",
          "type": "uint256"
        },
        {
          "indexed": false,
          "internalType": "uint256",
          "name": "floorPrice",
          "type": "uint256"
        },
        {
          "indexed": false,
          "internalType": "uint256",
          "name": "startPeriod",
          "type": "uint256"
        },
        {
          "indexed": false,
          "internalType": "uint256",
          "name": "endPeriod",
          "type": "uint256"
        },
        {
          "indexed": false,
          "internalType": "enum RC3_Auction.TokenType",
          "name": "tokenType",
          "type": "uint8"
        }
      ],
      "name": "NewAuction",
      "type": "event"
    },
    {
      "anonymous": false,
      "inputs": [
        {
          "indexed": true,
          "internalType": "address",
          "name": "bidder",
          "type": "address"
        },
        {
          "indexed": true,
          "internalType": "address",
          "name": "nft",
          "type": "address"
        },
        {
          "indexed": true,
          "internalType": "uint256",
          "name": "auctionId",
          "type": "uint256"
        },
        {
          "indexed": false,
          "internalType": "uint256",
          "name": "tokenId",
          "type": "uint256"
        },
        {
          "indexed": false,
          "internalType": "uint256",
          "name": "price",
          "type": "uint256"
        }
      ],
      "name": "NewBid",
      "type": "event"
    },
    {
      "anonymous": false,
      "inputs": [
        {
          "indexed": true,
          "internalType": "address",
          "name": "caller",
          "type": "address"
        },
        {
          "indexed": true,
          "internalType": "address",
          "name": "nifty",
          "type": "address"
        },
        {
          "indexed": true,
          "internalType": "uint256",
          "name": "marketId",
          "type": "uint256"
        },
        {
          "indexed": false,
          "internalType": "uint256",
          "name": "tokenId",
          "type": "uint256"
        },
        {
          "indexed": false,
          "internalType": "uint256",
          "name": "amount",
          "type": "uint256"
        },
        {
          "indexed": false,
          "internalType": "uint256",
          "name": "price",
          "type": "uint256"
        },
        {
          "indexed": false,
          "internalType": "enum RC3_Auction.TokenType",
          "name": "tokenType",
          "type": "uint8"
        },
        {
          "indexed": false,
          "internalType": "enum RC3_Mall.Asset",
          "name": "asset",
          "type": "uint8"
        }
      ],
      "name": "NewMarket",
      "type": "event"
    },
    {
      "anonymous": false,
      "inputs": [
        {
          "indexed": true,
          "internalType": "address",
          "name": "previousOwner",
          "type": "address"
        },
        {
          "indexed": true,
          "internalType": "address",
          "name": "newOwner",
          "type": "address"
        }
      ],
      "name": "OwnershipTransferred",
      "type": "event"
    },
    {
      "inputs": [],
      "name": "auctionId",
      "outputs": [
        {
          "internalType": "uint256",
          "name": "_value",
          "type": "uint256"
        }
      ],
      "stateMutability": "view",
      "type": "function"
    },
    {
      "inputs": [],
      "name": "auctionsClosed",
      "outputs": [
        {
          "internalType": "uint256",
          "name": "_value",
          "type": "uint256"
        }
      ],
      "stateMutability": "view",
      "type": "function"
    },
    {
      "inputs": [
        {
          "internalType": "uint256",
          "name": "_auctionId",
          "type": "uint256"
        },
        {
          "internalType": "uint256",
          "name": "_bidAmount",
          "type": "uint256"
        }
      ],
      "name": "bid",
      "outputs": [
        {
          "internalType": "bool",
          "name": "bidded",
          "type": "bool"
        }
      ],
      "stateMutability": "nonpayable",
      "type": "function"
    },
    {
      "inputs": [
        {
          "internalType": "uint256",
          "name": "_auctionId",
          "type": "uint256"
        }
      ],
      "name": "bidTimeRemaining",
      "outputs": [
        {
          "internalType": "uint256",
          "name": "startsIn",
          "type": "uint256"
        },
        {
          "internalType": "uint256",
          "name": "endsIn",
          "type": "uint256"
        }
      ],
      "stateMutability": "view",
      "type": "function"
    },
    {
      "inputs": [
        {
          "internalType": "uint256",
          "name": "_marketId",
          "type": "uint256"
        }
      ],
      "name": "buyWithETH",
      "outputs": [
        {
          "internalType": "bool",
          "name": "bought",
          "type": "bool"
        }
      ],
      "stateMutability": "payable",
      "type": "function"
    },
    {
      "inputs": [
        {
          "internalType": "uint256",
          "name": "_marketId",
          "type": "uint256"
        }
      ],
      "name": "buyWithRCDY",
      "outputs": [
        {
          "internalType": "bool",
          "name": "bought",
          "type": "bool"
        }
      ],
      "stateMutability": "nonpayable",
      "type": "function"
    },
    {
      "inputs": [
        {
          "internalType": "uint256",
          "name": "_auctionId",
          "type": "uint256"
        }
      ],
      "name": "closeBid",
      "outputs": [
        {
          "internalType": "enum RC3_Auction.State",
          "name": "status",
          "type": "uint8"
        }
      ],
      "stateMutability": "nonpayable",
      "type": "function"
    },
    {
      "inputs": [
        {
          "internalType": "uint256",
          "name": "_marketId",
          "type": "uint256"
        }
      ],
      "name": "delistMarket",
      "outputs": [
        {
          "internalType": "enum RC3_Auction.State",
          "name": "status",
          "type": "uint8"
        }
      ],
      "stateMutability": "nonpayable",
      "type": "function"
    },
    {
      "inputs": [],
      "name": "ethFee",
      "outputs": [
        {
          "internalType": "uint96",
          "name": "",
          "type": "uint96"
        }
      ],
      "stateMutability": "view",
      "type": "function"
    },
    {
      "inputs": [],
      "name": "feePercentage",
      "outputs": [
        {
          "internalType": "uint96",
          "name": "",
          "type": "uint96"
        }
      ],
      "stateMutability": "view",
      "type": "function"
    },
    {
      "inputs": [],
      "name": "feeRecipient",
      "outputs": [
        {
          "internalType": "address payable",
          "name": "",
          "type": "address"
        }
      ],
      "stateMutability": "view",
      "type": "function"
    },
    {
      "inputs": [
        {
          "internalType": "uint256",
          "name": "_auctionId",
          "type": "uint256"
        }
      ],
      "name": "getAuction",
      "outputs": [
        {
          "components": [
            {
              "internalType": "address payable",
              "name": "seller",
              "type": "address"
            },
            {
              "internalType": "address payable",
              "name": "highestBidder",
              "type": "address"
            },
            {
              "internalType": "address",
              "name": "nifty",
              "type": "address"
            },
            {
              "internalType": "uint256",
              "name": "tokenId",
              "type": "uint256"
            },
            {
              "internalType": "uint256",
              "name": "tokenAmount",
              "type": "uint256"
            },
            {
              "internalType": "uint256",
              "name": "initialBidAmount",
              "type": "uint256"
            },
            {
              "internalType": "uint256",
              "name": "highestBidAmount",
              "type": "uint256"
            },
            {
              "internalType": "uint256",
              "name": "startPeriod",
              "type": "uint256"
            },
            {
              "internalType": "uint256",
              "name": "endPeriod",
              "type": "uint256"
            },
            {
              "internalType": "uint256",
              "name": "bidCount",
              "type": "uint256"
            },
            {
              "internalType": "enum RC3_Auction.TokenType",
              "name": "tokenType",
              "type": "uint8"
            },
            {
              "internalType": "enum RC3_Auction.State",
              "name": "state",
              "type": "uint8"
            }
          ],
          "internalType": "struct RC3_Auction.Auction",
          "name": "auction_",
          "type": "tuple"
        }
      ],
      "stateMutability": "view",
      "type": "function"
    },
    {
      "inputs": [],
      "name": "getListedMarkets",
      "outputs": [
        {
          "components": [
            {
              "internalType": "address payable",
              "name": "seller",
              "type": "address"
            },
            {
              "internalType": "enum RC3_Auction.TokenType",
              "name": "tokenType",
              "type": "uint8"
            },
            {
              "internalType": "address payable",
              "name": "buyer",
              "type": "address"
            },
            {
              "internalType": "enum RC3_Auction.State",
              "name": "state",
              "type": "uint8"
            },
            {
              "internalType": "address",
              "name": "nifty",
              "type": "address"
            },
            {
              "internalType": "enum RC3_Mall.Asset",
              "name": "asset",
              "type": "uint8"
            },
            {
              "internalType": "uint256",
              "name": "tokenId",
              "type": "uint256"
            },
            {
              "internalType": "uint256",
              "name": "tokenAmount",
              "type": "uint256"
            },
            {
              "internalType": "uint256",
              "name": "price",
              "type": "uint256"
            },
            {
              "internalType": "uint256",
              "name": "listTimestamp",
              "type": "uint256"
            }
          ],
          "internalType": "struct RC3_Mall.Market[]",
          "name": "marketItems",
          "type": "tuple[]"
        }
      ],
      "stateMutability": "view",
      "type": "function"
    },
    {
      "inputs": [
        {
          "internalType": "uint256",
          "name": "_marketId",
          "type": "uint256"
        }
      ],
      "name": "getMarket",
      "outputs": [
        {
          "components": [
            {
              "internalType": "address payable",
              "name": "seller",
              "type": "address"
            },
            {
              "internalType": "enum RC3_Auction.TokenType",
              "name": "tokenType",
              "type": "uint8"
            },
            {
              "internalType": "address payable",
              "name": "buyer",
              "type": "address"
            },
            {
              "internalType": "enum RC3_Auction.State",
              "name": "state",
              "type": "uint8"
            },
            {
              "internalType": "address",
              "name": "nifty",
              "type": "address"
            },
            {
              "internalType": "enum RC3_Mall.Asset",
              "name": "asset",
              "type": "uint8"
            },
            {
              "internalType": "uint256",
              "name": "tokenId",
              "type": "uint256"
            },
            {
              "internalType": "uint256",
              "name": "tokenAmount",
              "type": "uint256"
            },
            {
              "internalType": "uint256",
              "name": "price",
              "type": "uint256"
            },
            {
              "internalType": "uint256",
              "name": "listTimestamp",
              "type": "uint256"
            }
          ],
          "internalType": "struct RC3_Mall.Market",
          "name": "",
          "type": "tuple"
        }
      ],
      "stateMutability": "view",
      "type": "function"
    },
    {
      "inputs": [
        {
          "internalType": "address",
          "name": "_owner",
          "type": "address"
        },
        {
          "internalType": "address",
          "name": "_rcdy",
          "type": "address"
        },
        {
          "internalType": "address payable",
          "name": "_feeReceipient",
          "type": "address"
        },
        {
          "internalType": "uint96",
          "name": "_feeRCDY",
          "type": "uint96"
        },
        {
          "internalType": "uint96",
          "name": "_ethFee",
          "type": "uint96"
        }
      ],
      "name": "initialize",
      "outputs": [],
      "stateMutability": "nonpayable",
      "type": "function"
    },
    {
      "inputs": [
        {
          "internalType": "address",
          "name": "nifty",
          "type": "address"
        },
        {
          "internalType": "uint256",
          "name": "_tokenId",
          "type": "uint256"
        },
        {
          "internalType": "uint256",
          "name": "amount",
          "type": "uint256"
        },
        {
          "internalType": "uint256",
          "name": "_startsIn",
          "type": "uint256"
        },
        {
          "internalType": "uint256",
          "name": "_lastsFor",
          "type": "uint256"
        },
        {
          "internalType": "uint256",
          "name": "_initialBidAmount",
          "type": "uint256"
        },
        {
          "internalType": "enum RC3_Auction.TokenType",
          "name": "_type",
          "type": "uint8"
        }
      ],
      "name": "listAuction",
      "outputs": [
        {
          "internalType": "uint256",
          "name": "auctionId_",
          "type": "uint256"
        }
      ],
      "stateMutability": "nonpayable",
      "type": "function"
    },
    {
      "inputs": [
        {
          "internalType": "address",
          "name": "nifty",
          "type": "address"
        },
        {
          "internalType": "uint256",
          "name": "_tokenId",
          "type": "uint256"
        },
        {
          "internalType": "uint256",
          "name": "amount",
          "type": "uint256"
        },
        {
          "internalType": "uint256",
          "name": "_price",
          "type": "uint256"
        },
        {
          "internalType": "enum RC3_Auction.TokenType",
          "name": "_type",
          "type": "uint8"
        },
        {
          "internalType": "enum RC3_Mall.Asset",
          "name": "_asset",
          "type": "uint8"
        }
      ],
      "name": "listMarket",
      "outputs": [
        {
          "internalType": "uint256",
          "name": "marketId_",
          "type": "uint256"
        }
      ],
      "stateMutability": "nonpayable",
      "type": "function"
    },
    {
      "inputs": [],
      "name": "marketId",
      "outputs": [
        {
          "internalType": "uint256",
          "name": "_value",
          "type": "uint256"
        }
      ],
      "stateMutability": "view",
      "type": "function"
    },
    {
      "inputs": [],
      "name": "marketsDelisted",
      "outputs": [
        {
          "internalType": "uint256",
          "name": "_value",
          "type": "uint256"
        }
      ],
      "stateMutability": "view",
      "type": "function"
    },
    {
      "inputs": [],
      "name": "marketsSold",
      "outputs": [
        {
          "internalType": "uint256",
          "name": "_value",
          "type": "uint256"
        }
      ],
      "stateMutability": "view",
      "type": "function"
    },
    {
      "inputs": [],
      "name": "myTradedNFTs",
      "outputs": [
        {
          "components": [
            {
              "internalType": "address payable",
              "name": "seller",
              "type": "address"
            },
            {
              "internalType": "enum RC3_Auction.TokenType",
              "name": "tokenType",
              "type": "uint8"
            },
            {
              "internalType": "address payable",
              "name": "buyer",
              "type": "address"
            },
            {
              "internalType": "enum RC3_Auction.State",
              "name": "state",
              "type": "uint8"
            },
            {
              "internalType": "address",
              "name": "nifty",
              "type": "address"
            },
            {
              "internalType": "enum RC3_Mall.Asset",
              "name": "asset",
              "type": "uint8"
            },
            {
              "internalType": "uint256",
              "name": "tokenId",
              "type": "uint256"
            },
            {
              "internalType": "uint256",
              "name": "tokenAmount",
              "type": "uint256"
            },
            {
              "internalType": "uint256",
              "name": "price",
              "type": "uint256"
            },
            {
              "internalType": "uint256",
              "name": "listTimestamp",
              "type": "uint256"
            }
          ],
          "internalType": "struct RC3_Mall.Market[]",
          "name": "myNfts",
          "type": "tuple[]"
        }
      ],
      "stateMutability": "view",
      "type": "function"
    },
    {
      "inputs": [
        {
          "internalType": "uint256",
          "name": "_auctionId",
          "type": "uint256"
        }
      ],
      "name": "nextBidAmount",
      "outputs": [
        {
          "internalType": "uint256",
          "name": "amount",
          "type": "uint256"
        }
      ],
      "stateMutability": "view",
      "type": "function"
    },
    {
      "inputs": [
        {
          "internalType": "address",
          "name": "",
          "type": "address"
        },
        {
          "internalType": "address",
          "name": "",
          "type": "address"
        },
        {
          "internalType": "uint256[]",
          "name": "",
          "type": "uint256[]"
        },
        {
          "internalType": "uint256[]",
          "name": "",
          "type": "uint256[]"
        },
        {
          "internalType": "bytes",
          "name": "",
          "type": "bytes"
        }
      ],
      "name": "onERC1155BatchReceived",
      "outputs": [
        {
          "internalType": "bytes4",
          "name": "",
          "type": "bytes4"
        }
      ],
      "stateMutability": "nonpayable",
      "type": "function"
    },
    {
      "inputs": [
        {
          "internalType": "address",
          "name": "",
          "type": "address"
        },
        {
          "internalType": "address",
          "name": "",
          "type": "address"
        },
        {
          "internalType": "uint256",
          "name": "",
          "type": "uint256"
        },
        {
          "internalType": "uint256",
          "name": "",
          "type": "uint256"
        },
        {
          "internalType": "bytes",
          "name": "",
          "type": "bytes"
        }
      ],
      "name": "onERC1155Received",
      "outputs": [
        {
          "internalType": "bytes4",
          "name": "",
          "type": "bytes4"
        }
      ],
      "stateMutability": "nonpayable",
      "type": "function"
    },
    {
      "inputs": [
        {
          "internalType": "address",
          "name": "",
          "type": "address"
        },
        {
          "internalType": "address",
          "name": "",
          "type": "address"
        },
        {
          "internalType": "uint256",
          "name": "",
          "type": "uint256"
        },
        {
          "internalType": "bytes",
          "name": "",
          "type": "bytes"
        }
      ],
      "name": "onERC721Received",
      "outputs": [
        {
          "internalType": "bytes4",
          "name": "",
          "type": "bytes4"
        }
      ],
      "stateMutability": "nonpayable",
      "type": "function"
    },
    {
      "inputs": [],
      "name": "owner",
      "outputs": [
        {
          "internalType": "address",
          "name": "",
          "type": "address"
        }
      ],
      "stateMutability": "view",
      "type": "function"
    },
    {
      "inputs": [],
      "name": "renounceOwnership",
      "outputs": [],
      "stateMutability": "nonpayable",
      "type": "function"
    },
    {
      "inputs": [
        {
          "internalType": "uint96",
          "name": "_newFee",
          "type": "uint96"
        }
      ],
      "name": "setFeeETH",
      "outputs": [],
      "stateMutability": "nonpayable",
      "type": "function"
    },
    {
      "inputs": [
        {
          "internalType": "uint96",
          "name": "_newFee",
          "type": "uint96"
        }
      ],
      "name": "setFeeRCDY",
      "outputs": [],
      "stateMutability": "nonpayable",
      "type": "function"
    },
    {
      "inputs": [
        {
          "internalType": "address payable",
          "name": "_newRecipient",
          "type": "address"
        }
      ],
      "name": "setFeeRecipient",
      "outputs": [],
      "stateMutability": "nonpayable",
      "type": "function"
    },
    {
      "inputs": [
        {
          "internalType": "bytes4",
          "name": "interfaceId",
          "type": "bytes4"
        }
      ],
      "name": "supportsInterface",
      "outputs": [
        {
          "internalType": "bool",
          "name": "",
          "type": "bool"
        }
      ],
      "stateMutability": "view",
      "type": "function"
    },
    {
      "inputs": [
        {
          "internalType": "address",
          "name": "newOwner",
          "type": "address"
        }
      ],
      "name": "transferOwnership",
      "outputs": [],
      "stateMutability": "nonpayable",
      "type": "function"
    },
    {
      "inputs": [],
      "name": "version",
      "outputs": [
        {
          "internalType": "uint256",
          "name": "",
          "type": "uint256"
        }
      ],
      "stateMutability": "pure",
      "type": "function"
    },
    {
      "inputs": [],
      "name": "waitPeriod",
      "outputs": [
        {
          "internalType": "uint256",
          "name": "",
          "type": "uint256"
        }
      ],
      "stateMutability": "view",
      "type": "function"
    }
  ],
  "bytecode": "0x608060405234801561001057600080fd5b50613dd5806100206000396000f3fe6080604052600436106101895760003560e01c806301ffc9a71461018e57806304ad187e146101c357806310782f8f146101e5578063150b7a021461020a578063469048401461024e5780634cf1115d1461028657806354fd4d50146102b4578063575ffe7a146102c857806357b3f9d9146102e8578063598647f81461030a5780636cc031241461032a5780636ed71ede14610341578063715018a61461035957806378bd79351461036e5780638da5cb5b1461039b5780638e26c09d146103b0578063932ba8c4146103c757806394dc9cf3146103dc578063a001ecdd146103ef578063ab600c5914610416578063bc197c811461042e578063bd4b04d41461045a578063be5cbdac1461047a578063c00b6bc11461049a578063c2c34cae146104ba578063d846349e146104e7578063db77c20b14610515578063e6084a2614610535578063e74b981b1461054d578063eb44fdd31461056d578063f23a6e611461059a578063f2fde38b146105c6578063f6a89810146105e6578063fe7588ed14610606575b600080fd5b34801561019a57600080fd5b506101ae6101a936600461372f565b610626565b60405190151581526020015b60405180910390f35b3480156101cf57600080fd5b506101d861065d565b6040516101ba91906138f6565b3480156101f157600080fd5b5060fb546101fc9081565b6040519081526020016101ba565b34801561021657600080fd5b5061023561022536600461356a565b630a85bd0160e11b949350505050565b6040516001600160e01b031990911681526020016101ba565b34801561025a57600080fd5b5060fe5461026e906001600160a01b031681565b6040516001600160a01b0390911681526020016101ba565b34801561029257600080fd5b50610167546102a7906001600160601b031681565b6040516101ba9190613c23565b3480156102c057600080fd5b5060026101fc565b3480156102d457600080fd5b506101fc6102e3366004613759565b6108b3565b3480156102f457600080fd5b50610308610303366004613794565b6108be565b005b34801561031657600080fd5b506101ae610325366004613772565b610916565b34801561033657600080fd5b5060fc546101fc9081565b34801561034d57600080fd5b50610164546101fc9081565b34801561036557600080fd5b50610308610b1f565b34801561037a57600080fd5b5061038e610389366004613759565b610b33565b6040516101ba9190613ab3565b3480156103a757600080fd5b5061026e610c3b565b3480156103bc57600080fd5b506101fc6202a30081565b3480156103d357600080fd5b506101d8610c4b565b6101ae6103ea366004613759565b610eab565b3480156103fb57600080fd5b5060fd546102a790600160a01b90046001600160601b031681565b34801561042257600080fd5b50610165546101fc9081565b34801561043a57600080fd5b506102356104493660046134bd565b63bc197c8160e01b95945050505050565b34801561046657600080fd5b506101fc6104753660046136a4565b61119f565b34801561048657600080fd5b50610308610495366004613452565b6113ac565b3480156104a657600080fd5b506101ae6104b5366004613759565b61151b565b3480156104c657600080fd5b506104da6104d5366004613759565b6116df565b6040516101ba9190613945565b3480156104f357600080fd5b50610507610502366004613759565b6119a0565b6040516101ba929190613b76565b34801561052157600080fd5b50610308610530366004613794565b6119b6565b34801561054157600080fd5b50610166546101fc9081565b34801561055957600080fd5b50610308610568366004613418565b611a40565b34801561057957600080fd5b5061058d610588366004613759565b611a9d565b6040516101ba9190613b67565b3480156105a657600080fd5b506102356105b53660046135d5565b63f23a6e6160e01b95945050505050565b3480156105d257600080fd5b506103086105e1366004613418565b611bc3565b3480156105f257600080fd5b506104da610601366004613759565b611c3c565b34801561061257600080fd5b506101fc61062136600461363d565b6120b7565b60006001600160e01b03198216630271189760e51b148061065757506301ffc9a760e01b6001600160e01b03198316145b92915050565b6060600061066b6101645490565b905060006106796101655490565b610166546106879084613cc0565b6106919190613cc0565b9050600080826001600160401b038111156106ae576106ae613d60565b6040519080825280602002602001820160405280156106e757816020015b6106d4613234565b8152602001906001900390816106cc5790505b50905060005b848110156108aa5760006101686000610707846001613c67565b8152602081019190915260400160002060010154600160a01b900460ff16600281111561073657610736613d34565b14156108985760006101688161074d846001613c67565b815260208082019290925260409081016000208151610140810190925280546001600160a01b03811683529192909190830190600160a01b900460ff16600181111561079b5761079b613d34565b60018111156107ac576107ac613d34565b815260018201546001600160a01b0381166020830152604090910190600160a01b900460ff1660028111156107e3576107e3613d34565b60028111156107f4576107f4613d34565b815260028201546001600160a01b0381166020830152604090910190600160a01b900460ff16600181111561082b5761082b613d34565b600181111561083c5761083c613d34565b815260200160038201548152602001600482015481526020016005820154815260200160068201548152505090508083858151811061087d5761087d613d4a565b6020026020010181905250838061089390613d03565b945050505b806108a281613d03565b9150506106ed565b50949350505050565b6000610657826122c2565b6108c661241d565b6001600160601b0381166108d957600080fd5b6108e28161247c565b6001336001600160a01b0316600080516020613da98339815191528360405161090b9190613c23565b60405180910390a350565b6000600260c95414156109445760405162461bcd60e51b815260040161093b90613a7c565b60405180910390fd5b600260c955828261095582826124dc565b600085815260ff6020526040902060fd5461097b906001600160a01b0316333088612742565b6009810154156109aa576001810154600682015460fd546109aa926001600160a01b039182169291169061279a565b6001810180546001600160a01b03191633179055600681018590556009810180549060006109d783613d03565b90915550506002810154600382015460405188926001600160a01b03169133917f911d834cc781bcb7a08922b9dd1f1d175c0a0467d9705194c2e200f8ce2786bb91610a24918b90613b76565b60405180910390a46000610a37876127cf565b915050610e10811015610b0c57610e10610a5382610258613c67565b1115610a8357610a6581610e10613cc0565b826008016000828254610a789190613c67565b925050819055610aa0565b610258826008016000828254610a999190613c67565b9250508190555b506000610aac886127cf565b600285015460038601549193508a92506001600160a01b03169033907ff3f8c69115d9f33b41d0ae7a8f88fb8cde222311d82702dc55025079d0eca53a90610af48642613c67565b604051610b02929190613b76565b60405180910390a4505b6001945050505050600160c95592915050565b610b2761241d565b610b31600061291e565b565b610b3b613288565b600082815260ff602081815260409283902083516101808101855281546001600160a01b039081168252600180840154821694830194909452600283015416948101949094526003810154606085015260048101546080850152600581015460a0850152600681015460c0850152600781015460e085015260088101546101008501526009810154610120850152600a8101549092610140850192911690811115610be857610be8613d34565b6001811115610bf957610bf9613d34565b8152602001600a820160019054906101000a900460ff166002811115610c2157610c21613d34565b6002811115610c3257610c32613d34565b90525092915050565b610132546001600160a01b031690565b60606000610c596101645490565b905060008060005b83811015610cbd57336101686000610c7a846001613c67565b81526020810191909152604001600020600101546001600160a01b03161415610cab5782610ca781613d03565b9350505b80610cb581613d03565b915050610c61565b506000826001600160401b03811115610cd857610cd8613d60565b604051908082528060200260200182016040528015610d1157816020015b610cfe613234565b815260200190600190039081610cf65790505b50905060005b848110156108aa57600061016881610d30846001613c67565b815260208082019290925260409081016000208151610140810190925280546001600160a01b03811683529192909190830190600160a01b900460ff166001811115610d7e57610d7e613d34565b6001811115610d8f57610d8f613d34565b815260018201546001600160a01b0381166020830152604090910190600160a01b900460ff166002811115610dc657610dc6613d34565b6002811115610dd757610dd7613d34565b815260028201546001600160a01b0381166020830152604090910190600160a01b900460ff166001811115610e0e57610e0e613d34565b6001811115610e1f57610e1f613d34565b81526020016003820154815260200160048201548152602001600582015481526020016006820154815250509050336001600160a01b031681604001516001600160a01b03161415610e985780838581518110610e7e57610e7e613d4a565b60200260200101819052508380610e9490613d03565b9450505b5080610ea381613d03565b915050610d17565b600081610eb781612971565b6000838152610168602090815260408083208151610140810190925280546001600160a01b03811683529192909190830190600160a01b900460ff166001811115610f0457610f04613d34565b6001811115610f1557610f15613d34565b815260018201546001600160a01b0381166020830152604090910190600160a01b900460ff166002811115610f4c57610f4c613d34565b6002811115610f5d57610f5d613d34565b815260028201546001600160a01b0381166020830152604090910190600160a01b900460ff166001811115610f9457610f94613d34565b6001811115610fa557610fa5613d34565b8152600382015460208201526004820154604082015260058201546060820152600690910154608090910152610167546101008201519192506001600160601b031690600090620186a090610ffa9084613ca1565b6110049190613c7f565b905082610100015134146110535760405162461bcd60e51b81526020600482015260166024820152751253959053125117d410565351539517d05353d5539560521b604482015260640161093b565b60fe546040516000916001600160a01b03169083908381818185875af1925050503d80600081146110a0576040519150601f19603f3d011682016040523d82523d6000602084013e6110a5565b606091505b50509050600084600001516001600160a01b0316838661010001516110ca9190613cc0565b604051600081818185875af1925050503d8060008114611106576040519150601f19603f3d011682016040523d82523d6000602084013e61110b565b606091505b505090508180156111195750805b6111885760405162461bcd60e51b815260206004820152603a60248201527f416464726573733a20756e61626c6520746f2073656e642076616c75652c20726044820152791958da5c1a595b9d081b585e481a185d99481c995d995c9d195960321b606482015260840161093b565b61119188612b13565b506001979650505050505050565b60006111af60fb80546001019055565b5060fb54836111f35760405162461bcd60e51b815260206004820152601060248201526f24a72b20a624a22fa22aa920aa24a7a760811b604482015260640161093b565b600082600181111561120757611207613d34565b1415611308576040516331a9108f60e11b81526004810188905288906000906001600160a01b03831690636352211e9060240160206040518083038186803b15801561125257600080fd5b505afa158015611266573d6000803e3d6000fd5b505050506040513d601f19601f8201168201806040525081019061128a9190613435565b604051632142170760e11b81529091506001600160a01b038316906342842e0e906112bd90849030908e9060040161388a565b600060405180830381600087803b1580156112d757600080fd5b505af11580156112eb573d6000803e3d6000fd5b505050506113018a848b60018b8b8b6000612ce6565b50506113a1565b600086116113285760405162461bcd60e51b815260040161093b90613a54565b604051637921219560e11b815288906001600160a01b0382169063f242432a9061135c90339030908d908d906004016138ae565b600060405180830381600087803b15801561137657600080fd5b505af115801561138a573d6000803e3d6000fd5b5050505061139f89838a8a8a8a8a6001612ce6565b505b979650505050505050565b600054610100900460ff16158080156113cc5750600054600160ff909116105b806113ed57506113db30612de9565b1580156113ed575060005460ff166001145b6114505760405162461bcd60e51b815260206004820152602e60248201527f496e697469616c697a61626c653a20636f6e747261637420697320616c72656160448201526d191e481a5b9a5d1a585b1a5e995960921b606482015260840161093b565b6000805460ff191660011790558015611473576000805461ff0019166101001790555b61147b612df8565b61148484612e27565b61148d8361247c565b61016780546001600160601b0319166001600160601b03841617905560fd80546001600160a01b0319166001600160a01b0387161790556114cd86611bc3565b8015611513576000805461ff0019169055604051600181527f7f26b83ff96e1f2b6a682f133852f6798a09c465da95921460cefb38474024989060200160405180910390a15b505050505050565b60008161152781612971565b6000838152610168602090815260408083208151610140810190925280546001600160a01b03811683529192909190830190600160a01b900460ff16600181111561157457611574613d34565b600181111561158557611585613d34565b815260018201546001600160a01b0381166020830152604090910190600160a01b900460ff1660028111156115bc576115bc613d34565b60028111156115cd576115cd613d34565b815260028201546001600160a01b0381166020830152604090910190600160a01b900460ff16600181111561160457611604613d34565b600181111561161557611615613d34565b815260038201546020820152600482015460408201526005820154606082015260069091015460809091015260fd54610100820151919250600160a01b90046001600160601b031690600090620186a0906116709084613ca1565b61167a9190613c7f565b60fe5460fd5491925061169c916001600160a01b039081169133911684612742565b6116ca338460000151838661010001516116b69190613cc0565b60fd546001600160a01b0316929190612742565b6116d386612b13565b50600195945050505050565b6000600260c95414156117045760405162461bcd60e51b815260040161093b90613a7c565b600260c981905560008381526101686020526040902060018101549091600160a01b90910460ff169081111561173c5761173c613d34565b156117595760405162461bcd60e51b815260040161093b906139de565b80546001600160a01b031633146117a85760405162461bcd60e51b81526020600482015260136024820152722aa720aaaa2427a924ad22a22fa1a0a62622a960691b604482015260640161093b565b6202a3008160060154426117bc9190613cc0565b10156117fd5760405162461bcd60e51b815260206004820152601060248201526f10d3d3d317d113d5d397d411549253d160821b604482015260640161093b565b60008154600160a01b900460ff16600181111561181c5761181c613d34565b1461189c57600281015481546003830154600480850154604051637921219560e11b81526001600160a01b039586169563f242432a9561186595309591909216939192016138ae565b600060405180830381600087803b15801561187f57600080fd5b505af1158015611893573d6000803e3d6000fd5b5050505061190d565b600281015481546003830154604051632142170760e11b81526001600160a01b03938416936342842e0e936118da933093929091169160040161388a565b600060405180830381600087803b1580156118f457600080fd5b505af1158015611908573d6000803e3d6000fd5b505050505b6001818101805460ff60a01b1916600160a01b83021790555061193561016680546001019055565b600281015460038201546040516001600160a01b039092169133917f1b8533106988126be2d3db59ca29eb634d45d513b5e215053409141b26f8f42e9161197d918891613b76565b60405180910390a36001015460ff600160a01b909104169050600160c955919050565b6000806119ac836127cf565b9094909350915050565b6119be61241d565b610167546001600160601b039081169082168114156119ef5760405162461bcd60e51b815260040161093b90613986565b61016780546001600160601b0319166001600160601b0384161790556000336001600160a01b0316600080516020613da983398151915284604051611a349190613c23565b60405180910390a35050565b611a4861241d565b6001600160a01b038116611a5b57600080fd5b611a6481612e27565b6040516001600160a01b0382169033907f15d80a013f22151bc7246e3bc132e12828cde19de98870475e3fa7084015272190600090a350565b611aa5613234565b600082815261016860209081526040918290208251610140810190935280546001600160a01b03811684529091830190600160a01b900460ff166001811115611af057611af0613d34565b6001811115611b0157611b01613d34565b815260018201546001600160a01b0381166020830152604090910190600160a01b900460ff166002811115611b3857611b38613d34565b6002811115611b4957611b49613d34565b815260028201546001600160a01b0381166020830152604090910190600160a01b900460ff166001811115611b8057611b80613d34565b6001811115611b9157611b91613d34565b815260038201546020820152600482015460408201526005820154606082015260069091015460809091015292915050565b611bcb61241d565b6001600160a01b038116611c305760405162461bcd60e51b815260206004820152602660248201527f4f776e61626c653a206e6577206f776e657220697320746865207a65726f206160448201526564647265737360d01b606482015260840161093b565b611c398161291e565b50565b6000600260c9541415611c615760405162461bcd60e51b815260040161093b90613a7c565b600260c955600082815260ff6020526040812090600a820154610100900460ff166002811115611c9357611c93613d34565b14611cb05760405162461bcd60e51b815260040161093b906139b2565b600080611cbc856127cf565b91509150816000148015611cce575080155b611d095760405162461bcd60e51b815260206004820152600c60248201526b494e56414c49445f54494d4560a01b604482015260640161093b565b600683015480611e7f576000600a85015460ff166001811115611d2e57611d2e613d34565b14611dae57600284015484546003860154600480880154604051637921219560e11b81526001600160a01b039586169563f242432a95611d7795309591909216939192016138ae565b600060405180830381600087803b158015611d9157600080fd5b505af1158015611da5573d6000803e3d6000fd5b50505050611e1f565b600284015484546003860154604051632142170760e11b81526001600160a01b03938416936342842e0e93611dec933093929091169160040161388a565b600060405180830381600087803b158015611e0657600080fd5b505af1158015611e1a573d6000803e3d6000fd5b505050505b600a8401805461ff00191661010017905560028401546003850154604080519182525188926001600160a01b03169133917f57bfd08a841d5d478e4fef268a8b041c65e389dddfa00f8c4a88a9d4fd9bc8249181900360200190a461208f565b60fd54600090620186a090611ea5908490600160a01b90046001600160601b0316613ca1565b611eaf9190613c7f565b600186015460fe5460fd549293506001600160a01b0391821692611ed89290811691168461279a565b8554611f04906001600160a01b0316611ef18486613cc0565b60fd546001600160a01b0316919061279a565b6000600a87015460ff166001811115611f1f57611f1f613d34565b14611f9a5760028601546003870154600480890154604051637921219560e11b81526001600160a01b039094169363f242432a93611f6393309388939091016138ae565b600060405180830381600087803b158015611f7d57600080fd5b505af1158015611f91573d6000803e3d6000fd5b50505050612006565b60028601546003870154604051632142170760e11b81526001600160a01b03909216916342842e0e91611fd3913091869160040161388a565b600060405180830381600087803b158015611fed57600080fd5b505af1158015612001573d6000803e3d6000fd5b505050505b600a8601805461020061ff00199091161790556002860154865460038801546004890154604080516001600160a01b0394851681528685166020820152908101929092526060820152608081018690528a92919091169033907f31c8601b5dd4c4e31751f64d3545cc33889c92681a65811a7f4575b3ae26d5569060a00160405180910390a450505b61209d60fc80546001019055565b505050600a0154600160c955610100900460ff1692915050565b60008084116120f85760405162461bcd60e51b815260206004820152600d60248201526c494e56414c49445f505249434560981b604482015260640161093b565b61210761016480546001019055565b5061016454600083600181111561212057612120613d34565b1415612220576040516331a9108f60e11b81526004810187905287906000906001600160a01b03831690636352211e9060240160206040518083038186803b15801561216b57600080fd5b505afa15801561217f573d6000803e3d6000fd5b505050506040513d601f19601f820116820180604052508101906121a39190613435565b604051632142170760e11b81529091506001600160a01b038316906342842e0e906121d690849030908d9060040161388a565b600060405180830381600087803b1580156121f057600080fd5b505af1158015612204573d6000803e3d6000fd5b5050505061221989848a60018a60008a612ea6565b50506122b8565b600085116122405760405162461bcd60e51b815260040161093b90613a54565b604051637921219560e11b815287906001600160a01b0382169063f242432a9061227490339030908c908c906004016138ae565b600060405180830381600087803b15801561228e57600080fd5b505af11580156122a2573d6000803e3d6000fd5b505050506122b68883898989600189612ea6565b505b9695505050505050565b600081815260ff6020818152604080842081516101808101835281546001600160a01b039081168252600180840154821695830195909552600283015416928101929092526003810154606083015260048101546080830152600581015460a0830152600681015460c0830152600781015460e083015260088101546101008301526009810154610120830152600a81015485949293919261014085019291169081111561237257612372613d34565b600181111561238357612383613d34565b8152602001600a820160019054906101000a900460ff1660028111156123ab576123ab613d34565b60028111156123bc576123bc613d34565b90525080519091506001600160a01b0316156124145760c0810151806123e7575060a0015192915050565b80620186a06123f882612710613ca1565b6124029190613c7f565b61240c9190613c67565b949350505050565b50600092915050565b33612426610c3b565b6001600160a01b031614610b315760405162461bcd60e51b815260206004820181905260248201527f4f776e61626c653a2063616c6c6572206973206e6f7420746865206f776e6572604482015260640161093b565b60fd546001600160601b03600160a01b90910481169082168114156124b35760405162461bcd60e51b815260040161093b90613986565b5060fd80546001600160601b03909216600160a01b026001600160a01b03909216919091179055565b600082815260ff6020818152604080842081516101808101835281546001600160a01b039081168252600180840154821695830195909552600283015416928101929092526003810154606083015260048101546080830152600581015460a0830152600681015460c0830152600781015460e083015260088101546101008301526009810154610120830152600a810154919390926101408501929091169081111561258b5761258b613d34565b600181111561259c5761259c613d34565b8152602001600a820160019054906101000a900460ff1660028111156125c4576125c4613d34565b60028111156125d5576125d5613d34565b905250610100810151909150600082610160015160028111156125fa576125fa613d34565b146126175760405162461bcd60e51b815260040161093b906139b2565b81516001600160a01b03163314156126645760405162461bcd60e51b815260206004820152601060248201526f13d5d3915497d0d0539393d517d0925160821b604482015260640161093b565b428260e0015111156126ae5760405162461bcd60e51b8152602060048201526013602482015272105550d51253d397d393d517d4d51054951151606a1b604482015260640161093b565b4281116126ed5760405162461bcd60e51b815260206004820152600d60248201526c105550d51253d397d153911151609a1b604482015260640161093b565b6126f6846122c2565b83101561273c5760405162461bcd60e51b81526020600482015260146024820152731253959053125117d25394155517d05353d5539560621b604482015260640161093b565b50505050565b61273c846323b872dd60e01b8585856040516024016127639392919061388a565b60408051601f198184030181529190526020810180516001600160e01b03166001600160e01b031990931692909217909152612fc1565b6040516001600160a01b0383166024820152604481018290526127ca90849063a9059cbb60e01b90606401612763565b505050565b600081815260ff6020818152604080842081516101808101835281546001600160a01b039081168252600180840154821695830195909552600283015416928101929092526003810154606083015260048101546080830152600581015460a0830152600681015460c0830152600781015460e083015260088101546101008301526009810154610120830152600a810154859485946101408501929091169081111561287e5761287e613d34565b600181111561288f5761288f613d34565b8152602001600a820160019054906101000a900460ff1660028111156128b7576128b7613d34565b60028111156128c8576128c8613d34565b815250509050428160e00151116128e05760006128f0565b428160e001516128f09190613cc0565b92504281610100015111612905576000612916565b428161010001516129169190613cc0565b915050915091565b61013280546001600160a01b038381166001600160a01b0319831681179093556040519116919082907f8be0079c531659141344cd1fd0a4f28419497f9722a3daafe3b4186f6b6457e090600090a35050565b6000818152610168602090815260408083208151610140810190925280546001600160a01b03811683529192909190830190600160a01b900460ff1660018111156129be576129be613d34565b60018111156129cf576129cf613d34565b815260018201546001600160a01b0381166020830152604090910190600160a01b900460ff166002811115612a0657612a06613d34565b6002811115612a1757612a17613d34565b815260028201546001600160a01b0381166020830152604090910190600160a01b900460ff166001811115612a4e57612a4e613d34565b6001811115612a5f57612a5f613d34565b81526003820154602082015260048201546040820152600582015460608201526006909101546080909101529050600081606001516002811115612aa557612aa5613d34565b14612ac25760405162461bcd60e51b815260040161093b906139de565b80516001600160a01b0316331415612b0f5760405162461bcd60e51b815260206004820152601060248201526f4f574e45525f43414e4e4f545f42555960801b604482015260640161093b565b5050565b600260c9541415612b365760405162461bcd60e51b815260040161093b90613a7c565b600260c95560008181526101686020526040902060018082018054600160a11b6001600160a81b031990911660ff60a01b193316171790556101658054909101905560008154600160a01b900460ff166001811115612b9757612b97613d34565b14612c125760028101546003820154600480840154604051637921219560e11b81526001600160a01b039094169363f242432a93612bdb93309333939091016138ae565b600060405180830381600087803b158015612bf557600080fd5b505af1158015612c09573d6000803e3d6000fd5b50505050612c7e565b60028101546003820154604051632142170760e11b81526001600160a01b03909216916342842e0e91612c4b913091339160040161388a565b600060405180830381600087803b158015612c6557600080fd5b505af1158015612c79573d6000803e3d6000fd5b505050505b60028101546003820154600583015460405185936001600160a01b0381169333937f25353c877f813e6c285649c847a980aebcdcc579c7d36bee87d6c2f0dfff0bd093612cd593600160a01b900460ff1690613b84565b60405180910390a45050600160c955565b600087815260ff6020526040812090612cff8642613c67565b90506000612d0d8683613c67565b6002840180546001600160a01b038e166001600160a01b031991821617909155600385018b905560078501849055600885018290558454163317845560058401869055600a84018054919250859160ff191660018381811115612d7257612d72613d34565b021790555060048301889055600a8301805461ff00191690556040518a906001600160a01b038d169033907f199f73ece82f19f692dcb7db8f91f2527bd3158ffae28e226d7ef02df704353490612dd4908e908e908c908a908a908e90613be6565b60405180910390a45050505050505050505050565b6001600160a01b03163b151590565b600054610100900460ff16612e1f5760405162461bcd60e51b815260040161093b90613a09565b610b31613093565b60fe546001600160a01b03908116908216811415612e835760405162461bcd60e51b8152602060048201526019602482015278115c9c9bdc8e88185b1c9958591e481c9958d95a5c1a595b9d603a1b604482015260640161093b565b5060fe80546001600160a01b0319166001600160a01b0392909216919091179055565b6000868152610168602052604081208054336001600160a01b03199182161782556002820180549091166001600160a01b038b1617905560038101879055600481018690556005810185905560018101805491929160ff60a01b1916600160a01b83021790555080548390829060ff60a01b1916600160a01b836001811115612f3157612f31613d34565b021790555060028101805483919060ff60a01b1916600160a01b836001811115612f5d57612f5d613d34565b021790555042600682015560405187906001600160a01b038a169033907f9d1dabeeddd19bb4a452fec325878c591ae8672c5fa5eecec875ba5aebdfdc4d90612faf908b908b908b908b908b90613ba9565b60405180910390a45050505050505050565b6000613016826040518060400160405280602081526020017f5361666545524332303a206c6f772d6c6576656c2063616c6c206661696c6564815250856001600160a01b03166130c39092919063ffffffff16565b8051909150156127ca5780806020019051810190613034919061370d565b6127ca5760405162461bcd60e51b815260206004820152602a60248201527f5361666545524332303a204552433230206f7065726174696f6e20646964206e6044820152691bdd081cdd58d8d9595960b21b606482015260840161093b565b600054610100900460ff166130ba5760405162461bcd60e51b815260040161093b90613a09565b610b313361291e565b60606130d284846000856130dc565b90505b9392505050565b60608247101561313d5760405162461bcd60e51b815260206004820152602660248201527f416464726573733a20696e73756666696369656e742062616c616e636520666f6044820152651c8818d85b1b60d21b606482015260840161093b565b61314685612de9565b6131925760405162461bcd60e51b815260206004820152601d60248201527f416464726573733a2063616c6c20746f206e6f6e2d636f6e7472616374000000604482015260640161093b565b600080866001600160a01b031685876040516131ae919061386e565b60006040518083038185875af1925050503d80600081146131eb576040519150601f19603f3d011682016040523d82523d6000602084013e6131f0565b606091505b50915091506113a18282866060831561320a5750816130d5565b82511561321a5782518084602001fd5b8160405162461bcd60e51b815260040161093b9190613953565b6040805161014081018252600080825260208201819052918101829052606081018290526080810182905260a0810182905260c0810182905260e08101829052610100810182905261012081019190915290565b60405180610180016040528060006001600160a01b0316815260200160006001600160a01b0316815260200160006001600160a01b03168152602001600081526020016000815260200160008152602001600081526020016000815260200160008152602001600081526020016000600181111561330857613308613d34565b81526020016000905290565b600082601f83011261332557600080fd5b813560206001600160401b0382111561334057613340613d60565b8160051b61334f828201613c37565b83815282810190868401838801850189101561336a57600080fd5b600093505b8584101561139f57803583526001939093019291840191840161336f565b600082601f83011261339e57600080fd5b81356001600160401b038111156133b7576133b7613d60565b6133ca601f8201601f1916602001613c37565b8181528460208386010111156133df57600080fd5b816020850160208301376000918101602001919091529392505050565b80356001600160601b038116811461341357600080fd5b919050565b60006020828403121561342a57600080fd5b81356130d581613d86565b60006020828403121561344757600080fd5b81516130d581613d86565b600080600080600060a0868803121561346a57600080fd5b853561347581613d86565b9450602086013561348581613d86565b9350604086013561349581613d86565b92506134a3606087016133fc565b91506134b1608087016133fc565b90509295509295909350565b600080600080600060a086880312156134d557600080fd5b85356134e081613d86565b945060208601356134f081613d86565b935060408601356001600160401b038082111561350c57600080fd5b61351889838a01613314565b9450606088013591508082111561352e57600080fd5b61353a89838a01613314565b9350608088013591508082111561355057600080fd5b5061355d8882890161338d565b9150509295509295909350565b6000806000806080858703121561358057600080fd5b843561358b81613d86565b9350602085013561359b81613d86565b92506040850135915060608501356001600160401b038111156135bd57600080fd5b6135c98782880161338d565b91505092959194509250565b600080600080600060a086880312156135ed57600080fd5b85356135f881613d86565b9450602086013561360881613d86565b9350604086013592506060860135915060808601356001600160401b0381111561363157600080fd5b61355d8882890161338d565b60008060008060008060c0878903121561365657600080fd5b863561366181613d86565b9550602087013594506040870135935060608701359250608087013561368681613d9b565b915060a087013561369681613d9b565b809150509295509295509295565b600080600080600080600060e0888a0312156136bf57600080fd5b87356136ca81613d86565b96506020880135955060408801359450606088013593506080880135925060a0880135915060c08801356136fd81613d9b565b8091505092959891949750929550565b60006020828403121561371f57600080fd5b815180151581146130d557600080fd5b60006020828403121561374157600080fd5b81356001600160e01b0319811681146130d557600080fd5b60006020828403121561376b57600080fd5b5035919050565b6000806040838503121561378557600080fd5b50508035926020909101359150565b6000602082840312156137a657600080fd5b6130d5826133fc565b6001600160a01b03169052565b6137c581613d76565b9052565b600381106137c5576137c5613d34565b6137e48282516137af565b60208101516137f660208401826137bc565b50604081015161380960408401826137af565b50606081015161381c60608401826137c9565b50608081015161382f60808401826137af565b5060a081015161384260a08401826137bc565b5060c0818101519083015260e08082015190830152610100808201519083015261012090810151910152565b60008251613880818460208701613cd7565b9190910192915050565b6001600160a01b039384168152919092166020820152604081019190915260600190565b6001600160a01b03858116825284166020820152604081018390526060810182905260a0608082018190526003908201526203078360ec1b60c0820152600060e082016122b8565b6020808252825182820181905260009190848201906040850190845b81811015613939576139258385516137d9565b928401926101409290920191600101613912565b50909695505050505050565b6020810161065782846137c9565b6020815260008251806020840152613972816040850160208701613cd7565b601f01601f19169190910160400192915050565b602080825260129082015271115c9c9bdc8e88185b1c9958591e481cd95d60721b604082015260600190565b602080825260129082015271105550d51253d397d393d517d31254d5115160721b604082015260600190565b60208082526011908201527013505492d15517d393d517d31254d51151607a1b604082015260600190565b6020808252602b908201527f496e697469616c697a61626c653a20636f6e7472616374206973206e6f74206960408201526a6e697469616c697a696e6760a81b606082015260800190565b6020808252600e908201526d1253959053125117d05353d5539560921b604082015260600190565b6020808252601f908201527f5265656e7472616e637947756172643a207265656e7472616e742063616c6c00604082015260600190565b600061018082019050613ac78284516137af565b6020830151613ad960208401826137af565b506040830151613aec60408401826137af565b50606083015160608301526080830151608083015260a083015160a083015260c083015160c083015260e083015160e083015261010080840151818401525061012080840151818401525061014080840151613b4a828501826137bc565b505061016080840151613b5f828501826137c9565b505092915050565b610140810161065782846137d9565b918252602082015260400190565b8381526020810183905260608101613b9b83613d76565b826040830152949350505050565b858152602081018590526040810184905260a08101613bc784613d76565b836060830152613bd683613d76565b8260808301529695505050505050565b600060c082019050878252866020830152856040830152846060830152836080830152613c1283613d76565b8260a0830152979650505050505050565b6001600160601b0391909116815260200190565b604051601f8201601f191681016001600160401b0381118282101715613c5f57613c5f613d60565b604052919050565b60008219821115613c7a57613c7a613d1e565b500190565b600082613c9c57634e487b7160e01b600052601260045260246000fd5b500490565b6000816000190483118215151615613cbb57613cbb613d1e565b500290565b600082821015613cd257613cd2613d1e565b500390565b60005b83811015613cf2578181015183820152602001613cda565b8381111561273c5750506000910152565b6000600019821415613d1757613d17613d1e565b5060010190565b634e487b7160e01b600052601160045260246000fd5b634e487b7160e01b600052602160045260246000fd5b634e487b7160e01b600052603260045260246000fd5b634e487b7160e01b600052604160045260246000fd5b60028110611c3957611c39613d34565b6001600160a01b0381168114611c3957600080fd5b60028110611c3957600080fdfed31c57ccb8973d46b86c5908906595e79b95be6576719f38633833500aeb0729a164736f6c6343000806000a",
  "linkReferences": {},
  "deployedLinkReferences": {}
}