{
  "_format": "hh-sol-artifact-1",
  "contractName": "RC3_Mall",
  "sourceName": "contracts/RC3_Mall.sol",
  "abi": [
    {
      "anonymous": false,
      "inputs": [
        {
          "indexed": true,
          "internalType": "address",
          "name": "caller",
          "type": "address"
        },
        {
          "indexed": true,
          "internalType": "address",
          "name": "nft",
          "type": "address"
        },
        {
          "indexed": true,
          "internalType": "uint256",
          "name": "auctionId",
          "type": "uint256"
        },
        {
          "indexed": false,
          "internalType": "uint256",
          "name": "tokenID",
          "type": "uint256"
        }
      ],
      "name": "AuctionCancelled",
      "type": "event"
    },
    {
      "anonymous": false,
      "inputs": [
        {
          "indexed": true,
          "internalType": "address",
          "name": "caller",
          "type": "address"
        },
        {
          "indexed": true,
          "internalType": "address",
          "name": "seller",
          "type": "address"
        },
        {
          "indexed": false,
          "internalType": "address",
          "name": "highestBidder",
          "type": "address"
        },
        {
          "indexed": true,
          "internalType": "address",
          "name": "nft",
          "type": "address"
        },
        {
          "indexed": false,
          "internalType": "uint256",
          "name": "auctionId",
          "type": "uint256"
        },
        {
          "indexed": false,
          "internalType": "uint256",
          "name": "tokenId",
          "type": "uint256"
        },
        {
          "indexed": false,
          "internalType": "uint256",
          "name": "amount",
          "type": "uint256"
        },
        {
          "indexed": false,
          "internalType": "uint256",
          "name": "winPrice",
          "type": "uint256"
        }
      ],
      "name": "AuctionResulted",
      "type": "event"
    },
    {
      "anonymous": false,
      "inputs": [
        {
          "indexed": true,
          "internalType": "address",
          "name": "bidder",
          "type": "address"
        },
        {
          "indexed": true,
          "internalType": "address",
          "name": "nft",
          "type": "address"
        },
        {
          "indexed": true,
          "internalType": "uint256",
          "name": "auctionId",
          "type": "uint256"
        },
        {
          "indexed": false,
          "internalType": "uint256",
          "name": "tokenId",
          "type": "uint256"
        },
        {
          "indexed": false,
          "internalType": "uint256",
          "name": "newEndPeriod",
          "type": "uint256"
        }
      ],
      "name": "AuctionUpdated",
      "type": "event"
    },
    {
      "anonymous": false,
      "inputs": [
        {
          "indexed": true,
          "internalType": "address",
          "name": "sender",
          "type": "address"
        },
        {
          "indexed": true,
          "internalType": "address",
          "name": "feeReceipient",
          "type": "address"
        }
      ],
      "name": "FeeRecipientSet",
      "type": "event"
    },
    {
      "anonymous": false,
      "inputs": [
        {
          "indexed": true,
          "internalType": "address",
          "name": "sender",
          "type": "address"
        },
        {
          "indexed": false,
          "internalType": "uint256",
          "name": "feePercentage",
          "type": "uint256"
        },
        {
          "indexed": true,
          "internalType": "enum RC3_Mall.Asset",
          "name": "asset",
          "type": "uint8"
        }
      ],
      "name": "FeeSet",
      "type": "event"
    },
    {
      "anonymous": false,
      "inputs": [
        {
          "indexed": false,
          "internalType": "uint8",
          "name": "version",
          "type": "uint8"
        }
      ],
      "name": "Initialized",
      "type": "event"
    },
    {
      "anonymous": false,
      "inputs": [
        {
          "indexed": true,
          "internalType": "address",
          "name": "caller",
          "type": "address"
        },
        {
          "indexed": true,
          "internalType": "address",
          "name": "nifty",
          "type": "address"
        },
        {
          "indexed": false,
          "internalType": "uint256",
          "name": "marketId",
          "type": "uint256"
        },
        {
          "indexed": false,
          "internalType": "uint256",
          "name": "tokenId",
          "type": "uint256"
        }
      ],
      "name": "MarketCancelled",
      "type": "event"
    },
    {
      "anonymous": false,
      "inputs": [
        {
          "indexed": true,
          "internalType": "address",
          "name": "caller",
          "type": "address"
        },
        {
          "indexed": true,
          "internalType": "address",
          "name": "seller",
          "type": "address"
        },
        {
          "indexed": true,
          "internalType": "address",
          "name": "nft",
          "type": "address"
        },
        {
          "indexed": false,
          "internalType": "uint256",
          "name": "marketId",
          "type": "uint256"
        },
        {
          "indexed": false,
          "internalType": "uint256",
          "name": "tokenId",
          "type": "uint256"
        },
        {
          "indexed": false,
          "internalType": "uint256",
          "name": "price",
          "type": "uint256"
        },
        {
          "indexed": false,
          "internalType": "enum RC3_Mall.Asset",
          "name": "asset",
          "type": "uint8"
        }
      ],
      "name": "MarketSale",
      "type": "event"
    },
    {
      "anonymous": false,
      "inputs": [
        {
          "indexed": true,
          "internalType": "address",
          "name": "seller",
          "type": "address"
        },
        {
          "indexed": true,
          "internalType": "address",
          "name": "nft",
          "type": "address"
        },
        {
          "indexed": true,
          "internalType": "uint256",
          "name": "auctionId",
          "type": "uint256"
        },
        {
          "indexed": false,
          "internalType": "uint256",
          "name": "tokenId",
          "type": "uint256"
        },
        {
          "indexed": false,
          "internalType": "uint256",
          "name": "amount",
          "type": "uint256"
        },
        {
          "indexed": false,
          "internalType": "uint256",
          "name": "floorPrice",
          "type": "uint256"
        },
        {
          "indexed": false,
          "internalType": "uint256",
          "name": "startPeriod",
          "type": "uint256"
        },
        {
          "indexed": false,
          "internalType": "uint256",
          "name": "endPeriod",
          "type": "uint256"
        },
        {
          "indexed": false,
          "internalType": "enum RC3_Auction.TokenType",
          "name": "tokenType",
          "type": "uint8"
        }
      ],
      "name": "NewAuction",
      "type": "event"
    },
    {
      "anonymous": false,
      "inputs": [
        {
          "indexed": true,
          "internalType": "address",
          "name": "bidder",
          "type": "address"
        },
        {
          "indexed": true,
          "internalType": "address",
          "name": "nft",
          "type": "address"
        },
        {
          "indexed": true,
          "internalType": "uint256",
          "name": "auctionId",
          "type": "uint256"
        },
        {
          "indexed": false,
          "internalType": "uint256",
          "name": "tokenId",
          "type": "uint256"
        },
        {
          "indexed": false,
          "internalType": "uint256",
          "name": "price",
          "type": "uint256"
        }
      ],
      "name": "NewBid",
      "type": "event"
    },
    {
      "anonymous": false,
      "inputs": [
        {
          "indexed": true,
          "internalType": "address",
          "name": "caller",
          "type": "address"
        },
        {
          "indexed": true,
          "internalType": "address",
          "name": "nifty",
          "type": "address"
        },
        {
          "indexed": true,
          "internalType": "uint256",
          "name": "marketId",
          "type": "uint256"
        },
        {
          "indexed": false,
          "internalType": "uint256",
          "name": "tokenId",
          "type": "uint256"
        },
        {
          "indexed": false,
          "internalType": "uint256",
          "name": "amount",
          "type": "uint256"
        },
        {
          "indexed": false,
          "internalType": "uint256",
          "name": "price",
          "type": "uint256"
        },
        {
          "indexed": false,
          "internalType": "enum RC3_Auction.TokenType",
          "name": "tokenType",
          "type": "uint8"
        },
        {
          "indexed": false,
          "internalType": "enum RC3_Mall.Asset",
          "name": "asset",
          "type": "uint8"
        }
      ],
      "name": "NewMarket",
      "type": "event"
    },
    {
      "anonymous": false,
      "inputs": [
        {
          "indexed": true,
          "internalType": "address",
          "name": "previousOwner",
          "type": "address"
        },
        {
          "indexed": true,
          "internalType": "address",
          "name": "newOwner",
          "type": "address"
        }
      ],
      "name": "OwnershipTransferred",
      "type": "event"
    },
    {
      "inputs": [],
      "name": "auctionId",
      "outputs": [
        {
          "internalType": "uint256",
          "name": "_value",
          "type": "uint256"
        }
      ],
      "stateMutability": "view",
      "type": "function"
    },
    {
      "inputs": [],
      "name": "auctionsClosed",
      "outputs": [
        {
          "internalType": "uint256",
          "name": "_value",
          "type": "uint256"
        }
      ],
      "stateMutability": "view",
      "type": "function"
    },
    {
      "inputs": [
        {
          "internalType": "uint256",
          "name": "_auctionId",
          "type": "uint256"
        },
        {
          "internalType": "uint256",
          "name": "_bidAmount",
          "type": "uint256"
        }
      ],
      "name": "bid",
      "outputs": [
        {
          "internalType": "bool",
          "name": "bidded",
          "type": "bool"
        }
      ],
      "stateMutability": "nonpayable",
      "type": "function"
    },
    {
      "inputs": [
        {
          "internalType": "uint256",
          "name": "_auctionId",
          "type": "uint256"
        }
      ],
      "name": "bidTimeRemaining",
      "outputs": [
        {
          "internalType": "uint256",
          "name": "startsIn",
          "type": "uint256"
        },
        {
          "internalType": "uint256",
          "name": "endsIn",
          "type": "uint256"
        }
      ],
      "stateMutability": "view",
      "type": "function"
    },
    {
      "inputs": [
        {
          "internalType": "uint256",
          "name": "_marketId",
          "type": "uint256"
        }
      ],
      "name": "buyWithETH",
      "outputs": [
        {
          "internalType": "bool",
          "name": "bought",
          "type": "bool"
        }
      ],
      "stateMutability": "payable",
      "type": "function"
    },
    {
      "inputs": [
        {
          "internalType": "uint256",
          "name": "_marketId",
          "type": "uint256"
        }
      ],
      "name": "buyWithRCDY",
      "outputs": [
        {
          "internalType": "bool",
          "name": "bought",
          "type": "bool"
        }
      ],
      "stateMutability": "nonpayable",
      "type": "function"
    },
    {
      "inputs": [
        {
          "internalType": "uint256",
          "name": "_auctionId",
          "type": "uint256"
        }
      ],
      "name": "closeBid",
      "outputs": [
        {
          "internalType": "enum RC3_Auction.State",
          "name": "status",
          "type": "uint8"
        }
      ],
      "stateMutability": "nonpayable",
      "type": "function"
    },
    {
      "inputs": [
        {
          "internalType": "uint256",
          "name": "_marketId",
          "type": "uint256"
        }
      ],
      "name": "delistMarket",
      "outputs": [
        {
          "internalType": "enum RC3_Auction.State",
          "name": "status",
          "type": "uint8"
        }
      ],
      "stateMutability": "nonpayable",
      "type": "function"
    },
    {
      "inputs": [],
      "name": "ethFee",
      "outputs": [
        {
          "internalType": "uint96",
          "name": "",
          "type": "uint96"
        }
      ],
      "stateMutability": "view",
      "type": "function"
    },
    {
      "inputs": [],
      "name": "feePercentage",
      "outputs": [
        {
          "internalType": "uint96",
          "name": "",
          "type": "uint96"
        }
      ],
      "stateMutability": "view",
      "type": "function"
    },
    {
      "inputs": [],
      "name": "feeRecipient",
      "outputs": [
        {
          "internalType": "address payable",
          "name": "",
          "type": "address"
        }
      ],
      "stateMutability": "view",
      "type": "function"
    },
    {
      "inputs": [
        {
          "internalType": "uint256",
          "name": "_auctionId",
          "type": "uint256"
        }
      ],
      "name": "getAuction",
      "outputs": [
        {
          "components": [
            {
              "internalType": "address payable",
              "name": "seller",
              "type": "address"
            },
            {
              "internalType": "address payable",
              "name": "highestBidder",
              "type": "address"
            },
            {
              "internalType": "address",
              "name": "nifty",
              "type": "address"
            },
            {
              "internalType": "uint256",
              "name": "tokenId",
              "type": "uint256"
            },
            {
              "internalType": "uint256",
              "name": "tokenAmount",
              "type": "uint256"
            },
            {
              "internalType": "uint256",
              "name": "initialBidAmount",
              "type": "uint256"
            },
            {
              "internalType": "uint256",
              "name": "highestBidAmount",
              "type": "uint256"
            },
            {
              "internalType": "uint256",
              "name": "startPeriod",
              "type": "uint256"
            },
            {
              "internalType": "uint256",
              "name": "endPeriod",
              "type": "uint256"
            },
            {
              "internalType": "uint256",
              "name": "bidCount",
              "type": "uint256"
            },
            {
              "internalType": "enum RC3_Auction.TokenType",
              "name": "tokenType",
              "type": "uint8"
            },
            {
              "internalType": "enum RC3_Auction.State",
              "name": "state",
              "type": "uint8"
            }
          ],
          "internalType": "struct RC3_Auction.Auction",
          "name": "auction_",
          "type": "tuple"
        }
      ],
      "stateMutability": "view",
      "type": "function"
    },
    {
      "inputs": [
        {
          "internalType": "uint256",
          "name": "_marketId",
          "type": "uint256"
        }
      ],
      "name": "getMarket",
      "outputs": [
        {
          "components": [
            {
              "internalType": "address payable",
              "name": "seller",
              "type": "address"
            },
            {
              "internalType": "enum RC3_Auction.TokenType",
              "name": "tokenType",
              "type": "uint8"
            },
            {
              "internalType": "address payable",
              "name": "buyer",
              "type": "address"
            },
            {
              "internalType": "enum RC3_Auction.State",
              "name": "state",
              "type": "uint8"
            },
            {
              "internalType": "address",
              "name": "nifty",
              "type": "address"
            },
            {
              "internalType": "enum RC3_Mall.Asset",
              "name": "asset",
              "type": "uint8"
            },
            {
              "internalType": "uint256",
              "name": "tokenId",
              "type": "uint256"
            },
            {
              "internalType": "uint256",
              "name": "tokenAmount",
              "type": "uint256"
            },
            {
              "internalType": "uint256",
              "name": "price",
              "type": "uint256"
            },
            {
              "internalType": "uint256",
              "name": "listTimestamp",
              "type": "uint256"
            }
          ],
          "internalType": "struct RC3_Mall.Market",
          "name": "",
          "type": "tuple"
        }
      ],
      "stateMutability": "view",
      "type": "function"
    },
    {
      "inputs": [
        {
          "internalType": "address",
          "name": "_owner",
          "type": "address"
        },
        {
          "internalType": "address",
          "name": "_rcdy",
          "type": "address"
        },
        {
          "internalType": "address payable",
          "name": "_feeReceipient",
          "type": "address"
        },
        {
          "internalType": "uint96",
          "name": "_feeRCDY",
          "type": "uint96"
        },
        {
          "internalType": "uint96",
          "name": "_ethFee",
          "type": "uint96"
        }
      ],
      "name": "initialize",
      "outputs": [],
      "stateMutability": "nonpayable",
      "type": "function"
    },
    {
      "inputs": [
        {
          "internalType": "address",
          "name": "nifty",
          "type": "address"
        },
        {
          "internalType": "uint256",
          "name": "_tokenId",
          "type": "uint256"
        },
        {
          "internalType": "uint256",
          "name": "amount",
          "type": "uint256"
        },
        {
          "internalType": "uint256",
          "name": "_startsIn",
          "type": "uint256"
        },
        {
          "internalType": "uint256",
          "name": "_lastsFor",
          "type": "uint256"
        },
        {
          "internalType": "uint256",
          "name": "_initialBidAmount",
          "type": "uint256"
        },
        {
          "internalType": "enum RC3_Auction.TokenType",
          "name": "_type",
          "type": "uint8"
        }
      ],
      "name": "listAuction",
      "outputs": [
        {
          "internalType": "uint256",
          "name": "auctionId_",
          "type": "uint256"
        }
      ],
      "stateMutability": "nonpayable",
      "type": "function"
    },
    {
      "inputs": [
        {
          "internalType": "address",
          "name": "nifty",
          "type": "address"
        },
        {
          "internalType": "uint256",
          "name": "_tokenId",
          "type": "uint256"
        },
        {
          "internalType": "uint256",
          "name": "amount",
          "type": "uint256"
        },
        {
          "internalType": "uint256",
          "name": "_price",
          "type": "uint256"
        },
        {
          "internalType": "enum RC3_Auction.TokenType",
          "name": "_type",
          "type": "uint8"
        },
        {
          "internalType": "enum RC3_Mall.Asset",
          "name": "_asset",
          "type": "uint8"
        }
      ],
      "name": "listMarket",
      "outputs": [
        {
          "internalType": "uint256",
          "name": "marketId_",
          "type": "uint256"
        }
      ],
      "stateMutability": "nonpayable",
      "type": "function"
    },
    {
      "inputs": [],
      "name": "marketId",
      "outputs": [
        {
          "internalType": "uint256",
          "name": "_value",
          "type": "uint256"
        }
      ],
      "stateMutability": "view",
      "type": "function"
    },
    {
      "inputs": [],
      "name": "marketsDelisted",
      "outputs": [
        {
          "internalType": "uint256",
          "name": "_value",
          "type": "uint256"
        }
      ],
      "stateMutability": "view",
      "type": "function"
    },
    {
      "inputs": [],
      "name": "marketsSold",
      "outputs": [
        {
          "internalType": "uint256",
          "name": "_value",
          "type": "uint256"
        }
      ],
      "stateMutability": "view",
      "type": "function"
    },
    {
      "inputs": [
        {
          "internalType": "uint256",
          "name": "_auctionId",
          "type": "uint256"
        }
      ],
      "name": "nextBidAmount",
      "outputs": [
        {
          "internalType": "uint256",
          "name": "amount",
          "type": "uint256"
        }
      ],
      "stateMutability": "view",
      "type": "function"
    },
    {
      "inputs": [
        {
          "internalType": "address",
          "name": "",
          "type": "address"
        },
        {
          "internalType": "address",
          "name": "",
          "type": "address"
        },
        {
          "internalType": "uint256[]",
          "name": "",
          "type": "uint256[]"
        },
        {
          "internalType": "uint256[]",
          "name": "",
          "type": "uint256[]"
        },
        {
          "internalType": "bytes",
          "name": "",
          "type": "bytes"
        }
      ],
      "name": "onERC1155BatchReceived",
      "outputs": [
        {
          "internalType": "bytes4",
          "name": "",
          "type": "bytes4"
        }
      ],
      "stateMutability": "nonpayable",
      "type": "function"
    },
    {
      "inputs": [
        {
          "internalType": "address",
          "name": "",
          "type": "address"
        },
        {
          "internalType": "address",
          "name": "",
          "type": "address"
        },
        {
          "internalType": "uint256",
          "name": "",
          "type": "uint256"
        },
        {
          "internalType": "uint256",
          "name": "",
          "type": "uint256"
        },
        {
          "internalType": "bytes",
          "name": "",
          "type": "bytes"
        }
      ],
      "name": "onERC1155Received",
      "outputs": [
        {
          "internalType": "bytes4",
          "name": "",
          "type": "bytes4"
        }
      ],
      "stateMutability": "nonpayable",
      "type": "function"
    },
    {
      "inputs": [
        {
          "internalType": "address",
          "name": "",
          "type": "address"
        },
        {
          "internalType": "address",
          "name": "",
          "type": "address"
        },
        {
          "internalType": "uint256",
          "name": "",
          "type": "uint256"
        },
        {
          "internalType": "bytes",
          "name": "",
          "type": "bytes"
        }
      ],
      "name": "onERC721Received",
      "outputs": [
        {
          "internalType": "bytes4",
          "name": "",
          "type": "bytes4"
        }
      ],
      "stateMutability": "nonpayable",
      "type": "function"
    },
    {
      "inputs": [],
      "name": "owner",
      "outputs": [
        {
          "internalType": "address",
          "name": "",
          "type": "address"
        }
      ],
      "stateMutability": "view",
      "type": "function"
    },
    {
      "inputs": [],
      "name": "renounceOwnership",
      "outputs": [],
      "stateMutability": "nonpayable",
      "type": "function"
    },
    {
      "inputs": [
        {
          "internalType": "uint96",
          "name": "_newFee",
          "type": "uint96"
        }
      ],
      "name": "setFeeETH",
      "outputs": [],
      "stateMutability": "nonpayable",
      "type": "function"
    },
    {
      "inputs": [
        {
          "internalType": "uint96",
          "name": "_newFee",
          "type": "uint96"
        }
      ],
      "name": "setFeeRCDY",
      "outputs": [],
      "stateMutability": "nonpayable",
      "type": "function"
    },
    {
      "inputs": [
        {
          "internalType": "address payable",
          "name": "_newRecipient",
          "type": "address"
        }
      ],
      "name": "setFeeRecipient",
      "outputs": [],
      "stateMutability": "nonpayable",
      "type": "function"
    },
    {
      "inputs": [
        {
          "internalType": "bytes4",
          "name": "interfaceId",
          "type": "bytes4"
        }
      ],
      "name": "supportsInterface",
      "outputs": [
        {
          "internalType": "bool",
          "name": "",
          "type": "bool"
        }
      ],
      "stateMutability": "view",
      "type": "function"
    },
    {
      "inputs": [
        {
          "internalType": "address",
          "name": "newOwner",
          "type": "address"
        }
      ],
      "name": "transferOwnership",
      "outputs": [],
      "stateMutability": "nonpayable",
      "type": "function"
    },
    {
      "inputs": [],
      "name": "waitPeriod",
      "outputs": [
        {
          "internalType": "uint256",
          "name": "",
          "type": "uint256"
        }
      ],
      "stateMutability": "view",
      "type": "function"
    }
  ],
  "bytecode": "0x608060405234801561001057600080fd5b506138c9806100206000396000f3fe6080604052600436106101685760003560e01c806301ffc9a71461016d57806310782f8f146101a2578063150b7a02146101c7578063469048401461020b5780634cf1115d14610243578063575ffe7a1461027157806357b3f9d914610291578063598647f8146102b35780636cc03124146102d35780636ed71ede146102ea578063715018a61461030257806378bd7935146103175780638da5cb5b146103445780638e26c09d1461035957806394dc9cf314610370578063a001ecdd14610383578063ab600c59146103aa578063bc197c81146103c2578063bd4b04d4146103ee578063be5cbdac1461040e578063c00b6bc11461042e578063c2c34cae1461044e578063d846349e1461047b578063db77c20b146104a9578063e6084a26146104c9578063e74b981b146104e1578063eb44fdd314610501578063f23a6e611461052e578063f2fde38b1461055a578063f6a898101461057a578063fe7588ed1461059a575b600080fd5b34801561017957600080fd5b5061018d61018836600461327f565b6105ba565b60405190151581526020015b60405180910390f35b3480156101ae57600080fd5b5060fb546101b99081565b604051908152602001610199565b3480156101d357600080fd5b506101f26101e23660046130ba565b630a85bd0160e11b949350505050565b6040516001600160e01b03199091168152602001610199565b34801561021757600080fd5b5060fe5461022b906001600160a01b031681565b6040516001600160a01b039091168152602001610199565b34801561024f57600080fd5b5061016754610264906001600160601b031681565b604051610199919061372d565b34801561027d57600080fd5b506101b961028c3660046132a9565b6105f1565b34801561029d57600080fd5b506102b16102ac3660046132e4565b6105fc565b005b3480156102bf57600080fd5b5061018d6102ce3660046132c2565b610654565b3480156102df57600080fd5b5060fc546101b99081565b3480156102f657600080fd5b50610164546101b99081565b34801561030e57600080fd5b506102b161085d565b34801561032357600080fd5b506103376103323660046132a9565b610871565b604051610199919061351f565b34801561035057600080fd5b5061022b610979565b34801561036557600080fd5b506101b96202a30081565b61018d61037e3660046132a9565b610989565b34801561038f57600080fd5b5060fd5461026490600160a01b90046001600160601b031681565b3480156103b657600080fd5b50610165546101b99081565b3480156103ce57600080fd5b506101f26103dd36600461300d565b63bc197c8160e01b95945050505050565b3480156103fa57600080fd5b506101b96104093660046131f4565b610c7d565b34801561041a57600080fd5b506102b1610429366004612fa2565b610e8a565b34801561043a57600080fd5b5061018d6104493660046132a9565b611070565b34801561045a57600080fd5b5061046e6104693660046132a9565b611234565b60405161019991906133b1565b34801561048757600080fd5b5061049b6104963660046132a9565b6114f5565b604051610199929190613678565b3480156104b557600080fd5b506102b16104c43660046132e4565b61150b565b3480156104d557600080fd5b50610166546101b99081565b3480156104ed57600080fd5b506102b16104fc366004612f68565b611595565b34801561050d57600080fd5b5061052161051c3660046132a9565b6115f2565b60405161019991906135d3565b34801561053a57600080fd5b506101f2610549366004613125565b63f23a6e6160e01b95945050505050565b34801561056657600080fd5b506102b1610575366004612f68565b611761565b34801561058657600080fd5b5061046e6105953660046132a9565b6117da565b3480156105a657600080fd5b506101b96105b536600461318d565b611c55565b60006001600160e01b03198216630271189760e51b14806105eb57506301ffc9a760e01b6001600160e01b03198316145b92915050565b60006105eb82611e60565b610604611fbb565b6001600160601b03811661061757600080fd5b6106208161201a565b6001336001600160a01b031660008051602061389d83398151915283604051610649919061372d565b60405180910390a350565b6000600260c95414156106825760405162461bcd60e51b8152600401610679906134e8565b60405180910390fd5b600260c9558282610693828261207a565b600085815260ff6020526040902060fd546106b9906001600160a01b03163330886122e0565b6009810154156106e8576001810154600682015460fd546106e8926001600160a01b0391821692911690612338565b6001810180546001600160a01b03191633179055600681018590556009810180549060006107158361380d565b90915550506002810154600382015460405188926001600160a01b03169133917f911d834cc781bcb7a08922b9dd1f1d175c0a0467d9705194c2e200f8ce2786bb91610762918b90613678565b60405180910390a460006107758761236d565b915050610e1081101561084a57610e1061079182610258613771565b11156107c1576107a381610e106137ca565b8260080160008282546107b69190613771565b9250508190556107de565b6102588260080160008282546107d79190613771565b9250508190555b5060006107ea8861236d565b600285015460038601549193508a92506001600160a01b03169033907ff3f8c69115d9f33b41d0ae7a8f88fb8cde222311d82702dc55025079d0eca53a906108328642613771565b604051610840929190613678565b60405180910390a4505b6001945050505050600160c95592915050565b610865611fbb565b61086f60006124bc565b565b610879612dd8565b600082815260ff602081815260409283902083516101808101855281546001600160a01b039081168252600180840154821694830194909452600283015416948101949094526003810154606085015260048101546080850152600581015460a0850152600681015460c0850152600781015460e085015260088101546101008501526009810154610120850152600a81015490926101408501929116908111156109265761092661383e565b60018111156109375761093761383e565b8152602001600a820160019054906101000a900460ff16600281111561095f5761095f61383e565b60028111156109705761097061383e565b90525092915050565b610132546001600160a01b031690565b6000816109958161250f565b6000838152610168602090815260408083208151610140810190925280546001600160a01b03811683529192909190830190600160a01b900460ff1660018111156109e2576109e261383e565b60018111156109f3576109f361383e565b815260018201546001600160a01b0381166020830152604090910190600160a01b900460ff166002811115610a2a57610a2a61383e565b6002811115610a3b57610a3b61383e565b815260028201546001600160a01b0381166020830152604090910190600160a01b900460ff166001811115610a7257610a7261383e565b6001811115610a8357610a8361383e565b8152600382015460208201526004820154604082015260058201546060820152600690910154608090910152610167546101008201519192506001600160601b031690600090620186a090610ad890846137ab565b610ae29190613789565b90508261010001513414610b315760405162461bcd60e51b81526020600482015260166024820152751253959053125117d410565351539517d05353d5539560521b6044820152606401610679565b60fe546040516000916001600160a01b03169083908381818185875af1925050503d8060008114610b7e576040519150601f19603f3d011682016040523d82523d6000602084013e610b83565b606091505b50509050600084600001516001600160a01b031683866101000151610ba891906137ca565b604051600081818185875af1925050503d8060008114610be4576040519150601f19603f3d011682016040523d82523d6000602084013e610be9565b606091505b50509050818015610bf75750805b610c665760405162461bcd60e51b815260206004820152603a60248201527f416464726573733a20756e61626c6520746f2073656e642076616c75652c20726044820152791958da5c1a595b9d081b585e481a185d99481c995d995c9d195960321b6064820152608401610679565b610c6f886126b1565b506001979650505050505050565b6000610c8d60fb80546001019055565b5060fb5483610cd15760405162461bcd60e51b815260206004820152601060248201526f24a72b20a624a22fa22aa920aa24a7a760811b6044820152606401610679565b6000826001811115610ce557610ce561383e565b1415610de6576040516331a9108f60e11b81526004810188905288906000906001600160a01b03831690636352211e9060240160206040518083038186803b158015610d3057600080fd5b505afa158015610d44573d6000803e3d6000fd5b505050506040513d601f19601f82011682018060405250810190610d689190612f85565b604051632142170760e11b81529091506001600160a01b038316906342842e0e90610d9b90849030908e90600401613345565b600060405180830381600087803b158015610db557600080fd5b505af1158015610dc9573d6000803e3d6000fd5b50505050610ddf8a848b60018b8b8b600061288a565b5050610e7f565b60008611610e065760405162461bcd60e51b8152600401610679906134c0565b604051637921219560e11b815288906001600160a01b0382169063f242432a90610e3a90339030908d908d90600401613369565b600060405180830381600087803b158015610e5457600080fd5b505af1158015610e68573d6000803e3d6000fd5b50505050610e7d89838a8a8a8a8a600161288a565b505b979650505050505050565b600054610100900460ff1615808015610eaa5750600054600160ff909116105b80610ecb5750610eb93061298d565b158015610ecb575060005460ff166001145b610f2e5760405162461bcd60e51b815260206004820152602e60248201527f496e697469616c697a61626c653a20636f6e747261637420697320616c72656160448201526d191e481a5b9a5d1a585b1a5e995960921b6064820152608401610679565b6000805460ff191660011790558015610f51576000805461ff0019166101001790555b6101695460ff1615610fba5760405162461bcd60e51b815260206004820152602c60248201527f4572726f723a20636f6e74726163742068617320616c7265616479206265656e60448201526b081a5b9a5d1a585b1a5e995960a21b6064820152608401610679565b610fc261299c565b610fcb846129cb565b610fd48361201a565b61016780546001600160601b0319166001600160601b03841617905560fd80546001600160a01b0319166001600160a01b03871617905561101486611761565b610169805460ff191660011790558015611068576000805461ff0019169055604051600181527f7f26b83ff96e1f2b6a682f133852f6798a09c465da95921460cefb38474024989060200160405180910390a15b505050505050565b60008161107c8161250f565b6000838152610168602090815260408083208151610140810190925280546001600160a01b03811683529192909190830190600160a01b900460ff1660018111156110c9576110c961383e565b60018111156110da576110da61383e565b815260018201546001600160a01b0381166020830152604090910190600160a01b900460ff1660028111156111115761111161383e565b60028111156111225761112261383e565b815260028201546001600160a01b0381166020830152604090910190600160a01b900460ff1660018111156111595761115961383e565b600181111561116a5761116a61383e565b815260038201546020820152600482015460408201526005820154606082015260069091015460809091015260fd54610100820151919250600160a01b90046001600160601b031690600090620186a0906111c590846137ab565b6111cf9190613789565b60fe5460fd549192506111f1916001600160a01b0390811691339116846122e0565b61121f3384600001518386610100015161120b91906137ca565b60fd546001600160a01b03169291906122e0565b611228866126b1565b50600195945050505050565b6000600260c95414156112595760405162461bcd60e51b8152600401610679906134e8565b600260c981905560008381526101686020526040902060018101549091600160a01b90910460ff16908111156112915761129161383e565b156112ae5760405162461bcd60e51b81526004016106799061344a565b80546001600160a01b031633146112fd5760405162461bcd60e51b81526020600482015260136024820152722aa720aaaa2427a924ad22a22fa1a0a62622a960691b6044820152606401610679565b6202a30081600601544261131191906137ca565b10156113525760405162461bcd60e51b815260206004820152601060248201526f10d3d3d317d113d5d397d411549253d160821b6044820152606401610679565b60008154600160a01b900460ff1660018111156113715761137161383e565b146113f157600281015481546003830154600480850154604051637921219560e11b81526001600160a01b039586169563f242432a956113ba9530959190921693919201613369565b600060405180830381600087803b1580156113d457600080fd5b505af11580156113e8573d6000803e3d6000fd5b50505050611462565b600281015481546003830154604051632142170760e11b81526001600160a01b03938416936342842e0e9361142f9330939290911691600401613345565b600060405180830381600087803b15801561144957600080fd5b505af115801561145d573d6000803e3d6000fd5b505050505b6001818101805460ff60a01b1916600160a01b83021790555061148a61016680546001019055565b600281015460038201546040516001600160a01b039092169133917f1b8533106988126be2d3db59ca29eb634d45d513b5e215053409141b26f8f42e916114d2918891613678565b60405180910390a36001015460ff600160a01b909104169050600160c955919050565b6000806115018361236d565b9094909350915050565b611513611fbb565b610167546001600160601b039081169082168114156115445760405162461bcd60e51b8152600401610679906133f2565b61016780546001600160601b0319166001600160601b0384161790556000336001600160a01b031660008051602061389d83398151915284604051611589919061372d565b60405180910390a35050565b61159d611fbb565b6001600160a01b0381166115b057600080fd5b6115b9816129cb565b6040516001600160a01b0382169033907f15d80a013f22151bc7246e3bc132e12828cde19de98870475e3fa7084015272190600090a350565b6040805161014081018252600080825260208201819052918101829052606081018290526080810182905260a0810182905260c0810182905260e081018290526101008101829052610120810191909152600082815261016860209081526040918290208251610140810190935280546001600160a01b03811684529091830190600160a01b900460ff16600181111561168e5761168e61383e565b600181111561169f5761169f61383e565b815260018201546001600160a01b0381166020830152604090910190600160a01b900460ff1660028111156116d6576116d661383e565b60028111156116e7576116e761383e565b815260028201546001600160a01b0381166020830152604090910190600160a01b900460ff16600181111561171e5761171e61383e565b600181111561172f5761172f61383e565b815260038201546020820152600482015460408201526005820154606082015260069091015460809091015292915050565b611769611fbb565b6001600160a01b0381166117ce5760405162461bcd60e51b815260206004820152602660248201527f4f776e61626c653a206e6577206f776e657220697320746865207a65726f206160448201526564647265737360d01b6064820152608401610679565b6117d7816124bc565b50565b6000600260c95414156117ff5760405162461bcd60e51b8152600401610679906134e8565b600260c955600082815260ff6020526040812090600a820154610100900460ff1660028111156118315761183161383e565b1461184e5760405162461bcd60e51b81526004016106799061341e565b60008061185a8561236d565b9150915081600014801561186c575080155b6118a75760405162461bcd60e51b815260206004820152600c60248201526b494e56414c49445f54494d4560a01b6044820152606401610679565b600683015480611a1d576000600a85015460ff1660018111156118cc576118cc61383e565b1461194c57600284015484546003860154600480880154604051637921219560e11b81526001600160a01b039586169563f242432a956119159530959190921693919201613369565b600060405180830381600087803b15801561192f57600080fd5b505af1158015611943573d6000803e3d6000fd5b505050506119bd565b600284015484546003860154604051632142170760e11b81526001600160a01b03938416936342842e0e9361198a9330939290911691600401613345565b600060405180830381600087803b1580156119a457600080fd5b505af11580156119b8573d6000803e3d6000fd5b505050505b600a8401805461ff00191661010017905560028401546003850154604080519182525188926001600160a01b03169133917f57bfd08a841d5d478e4fef268a8b041c65e389dddfa00f8c4a88a9d4fd9bc8249181900360200190a4611c2d565b60fd54600090620186a090611a43908490600160a01b90046001600160601b03166137ab565b611a4d9190613789565b600186015460fe5460fd549293506001600160a01b0391821692611a7692908116911684612338565b8554611aa2906001600160a01b0316611a8f84866137ca565b60fd546001600160a01b03169190612338565b6000600a87015460ff166001811115611abd57611abd61383e565b14611b385760028601546003870154600480890154604051637921219560e11b81526001600160a01b039094169363f242432a93611b019330938893909101613369565b600060405180830381600087803b158015611b1b57600080fd5b505af1158015611b2f573d6000803e3d6000fd5b50505050611ba4565b60028601546003870154604051632142170760e11b81526001600160a01b03909216916342842e0e91611b719130918691600401613345565b600060405180830381600087803b158015611b8b57600080fd5b505af1158015611b9f573d6000803e3d6000fd5b505050505b600a8601805461ff0019166102001790556002860154865460038801546004890154604080516001600160a01b038781168252602082018f9052818301949094526060810192909252608082018890525193821693919092169133917f31c8601b5dd4c4e31751f64d3545cc33889c92681a65811a7f4575b3ae26d5569181900360a00190a450505b611c3b60fc80546001019055565b505050600a0154600160c955610100900460ff1692915050565b6000808411611c965760405162461bcd60e51b815260206004820152600d60248201526c494e56414c49445f505249434560981b6044820152606401610679565b611ca561016480546001019055565b50610164546000836001811115611cbe57611cbe61383e565b1415611dbe576040516331a9108f60e11b81526004810187905287906000906001600160a01b03831690636352211e9060240160206040518083038186803b158015611d0957600080fd5b505afa158015611d1d573d6000803e3d6000fd5b505050506040513d601f19601f82011682018060405250810190611d419190612f85565b604051632142170760e11b81529091506001600160a01b038316906342842e0e90611d7490849030908d90600401613345565b600060405180830381600087803b158015611d8e57600080fd5b505af1158015611da2573d6000803e3d6000fd5b50505050611db789848a60018a60008a612a4a565b5050611e56565b60008511611dde5760405162461bcd60e51b8152600401610679906134c0565b604051637921219560e11b815287906001600160a01b0382169063f242432a90611e1290339030908c908c90600401613369565b600060405180830381600087803b158015611e2c57600080fd5b505af1158015611e40573d6000803e3d6000fd5b50505050611e548883898989600189612a4a565b505b9695505050505050565b600081815260ff6020818152604080842081516101808101835281546001600160a01b039081168252600180840154821695830195909552600283015416928101929092526003810154606083015260048101546080830152600581015460a0830152600681015460c0830152600781015460e083015260088101546101008301526009810154610120830152600a810154859492939192610140850192911690811115611f1057611f1061383e565b6001811115611f2157611f2161383e565b8152602001600a820160019054906101000a900460ff166002811115611f4957611f4961383e565b6002811115611f5a57611f5a61383e565b90525080519091506001600160a01b031615611fb25760c081015180611f85575060a0015192915050565b80620186a0611f96826127106137ab565b611fa09190613789565b611faa9190613771565b949350505050565b50600092915050565b33611fc4610979565b6001600160a01b03161461086f5760405162461bcd60e51b815260206004820181905260248201527f4f776e61626c653a2063616c6c6572206973206e6f7420746865206f776e65726044820152606401610679565b60fd546001600160601b03600160a01b90910481169082168114156120515760405162461bcd60e51b8152600401610679906133f2565b5060fd80546001600160601b03909216600160a01b026001600160a01b03909216919091179055565b600082815260ff6020818152604080842081516101808101835281546001600160a01b039081168252600180840154821695830195909552600283015416928101929092526003810154606083015260048101546080830152600581015460a0830152600681015460c0830152600781015460e083015260088101546101008301526009810154610120830152600a81015491939092610140850192909116908111156121295761212961383e565b600181111561213a5761213a61383e565b8152602001600a820160019054906101000a900460ff1660028111156121625761216261383e565b60028111156121735761217361383e565b905250610100810151909150600082610160015160028111156121985761219861383e565b146121b55760405162461bcd60e51b81526004016106799061341e565b81516001600160a01b03163314156122025760405162461bcd60e51b815260206004820152601060248201526f13d5d3915497d0d0539393d517d0925160821b6044820152606401610679565b428260e00151111561224c5760405162461bcd60e51b8152602060048201526013602482015272105550d51253d397d393d517d4d51054951151606a1b6044820152606401610679565b42811161228b5760405162461bcd60e51b815260206004820152600d60248201526c105550d51253d397d153911151609a1b6044820152606401610679565b61229484611e60565b8310156122da5760405162461bcd60e51b81526020600482015260146024820152731253959053125117d25394155517d05353d5539560621b6044820152606401610679565b50505050565b6122da846323b872dd60e01b85858560405160240161230193929190613345565b60408051601f198184030181529190526020810180516001600160e01b03166001600160e01b031990931692909217909152612b65565b6040516001600160a01b03831660248201526044810182905261236890849063a9059cbb60e01b90606401612301565b505050565b600081815260ff6020818152604080842081516101808101835281546001600160a01b039081168252600180840154821695830195909552600283015416928101929092526003810154606083015260048101546080830152600581015460a0830152600681015460c0830152600781015460e083015260088101546101008301526009810154610120830152600a810154859485946101408501929091169081111561241c5761241c61383e565b600181111561242d5761242d61383e565b8152602001600a820160019054906101000a900460ff1660028111156124555761245561383e565b60028111156124665761246661383e565b815250509050428160e001511161247e57600061248e565b428160e0015161248e91906137ca565b925042816101000151116124a35760006124b4565b428161010001516124b491906137ca565b915050915091565b61013280546001600160a01b038381166001600160a01b0319831681179093556040519116919082907f8be0079c531659141344cd1fd0a4f28419497f9722a3daafe3b4186f6b6457e090600090a35050565b6000818152610168602090815260408083208151610140810190925280546001600160a01b03811683529192909190830190600160a01b900460ff16600181111561255c5761255c61383e565b600181111561256d5761256d61383e565b815260018201546001600160a01b0381166020830152604090910190600160a01b900460ff1660028111156125a4576125a461383e565b60028111156125b5576125b561383e565b815260028201546001600160a01b0381166020830152604090910190600160a01b900460ff1660018111156125ec576125ec61383e565b60018111156125fd576125fd61383e565b815260038201546020820152600482015460408201526005820154606082015260069091015460809091015290506000816060015160028111156126435761264361383e565b146126605760405162461bcd60e51b81526004016106799061344a565b80516001600160a01b03163314156126ad5760405162461bcd60e51b815260206004820152601060248201526f4f574e45525f43414e4e4f545f42555960801b6044820152606401610679565b5050565b600260c95414156126d45760405162461bcd60e51b8152600401610679906134e8565b600260c95560008181526101686020526040902060018082018054600160a11b6001600160a81b031990911660ff60a01b193316171790556101658054909101905560008154600160a01b900460ff1660018111156127355761273561383e565b146127b05760028101546003820154600480840154604051637921219560e11b81526001600160a01b039094169363f242432a936127799330933393909101613369565b600060405180830381600087803b15801561279357600080fd5b505af11580156127a7573d6000803e3d6000fd5b5050505061281c565b60028101546003820154604051632142170760e11b81526001600160a01b03909216916342842e0e916127e99130913391600401613345565b600060405180830381600087803b15801561280357600080fd5b505af1158015612817573d6000803e3d6000fd5b505050505b60028101548154600383015460058401546040516001600160a01b038086169594169333937f56b2a9b1ac94b28ddb26557831a4b6a6856e8393f07c912fea3b4b3226b28e7293612879938a93600160a01b900460ff1690613686565b60405180910390a45050600160c955565b600087815260ff60205260408120906128a38642613771565b905060006128b18683613771565b6002840180546001600160a01b038e166001600160a01b031991821617909155600385018b905560078501849055600885018290558454163317845560058401869055600a84018054919250859160ff1916600183818111156129165761291661383e565b021790555060048301889055600a8301805461ff00191690556040518a906001600160a01b038d169033907f199f73ece82f19f692dcb7db8f91f2527bd3158ffae28e226d7ef02df704353490612978908e908e908c908a908a908e906136f0565b60405180910390a45050505050505050505050565b6001600160a01b03163b151590565b600054610100900460ff166129c35760405162461bcd60e51b815260040161067990613475565b61086f612c37565b60fe546001600160a01b03908116908216811415612a275760405162461bcd60e51b8152602060048201526019602482015278115c9c9bdc8e88185b1c9958591e481c9958d95a5c1a595b9d603a1b6044820152606401610679565b5060fe80546001600160a01b0319166001600160a01b0392909216919091179055565b6000868152610168602052604081208054336001600160a01b03199182161782556002820180549091166001600160a01b038b1617905560038101879055600481018690556005810185905560018101805491929160ff60a01b1916600160a01b83021790555080548390829060ff60a01b1916600160a01b836001811115612ad557612ad561383e565b021790555060028101805483919060ff60a01b1916600160a01b836001811115612b0157612b0161383e565b021790555042600682015560405187906001600160a01b038a169033907f9d1dabeeddd19bb4a452fec325878c591ae8672c5fa5eecec875ba5aebdfdc4d90612b53908b908b908b908b908b906136b3565b60405180910390a45050505050505050565b6000612bba826040518060400160405280602081526020017f5361666545524332303a206c6f772d6c6576656c2063616c6c206661696c6564815250856001600160a01b0316612c679092919063ffffffff16565b8051909150156123685780806020019051810190612bd8919061325d565b6123685760405162461bcd60e51b815260206004820152602a60248201527f5361666545524332303a204552433230206f7065726174696f6e20646964206e6044820152691bdd081cdd58d8d9595960b21b6064820152608401610679565b600054610100900460ff16612c5e5760405162461bcd60e51b815260040161067990613475565b61086f336124bc565b6060612c768484600085612c80565b90505b9392505050565b606082471015612ce15760405162461bcd60e51b815260206004820152602660248201527f416464726573733a20696e73756666696369656e742062616c616e636520666f6044820152651c8818d85b1b60d21b6064820152608401610679565b612cea8561298d565b612d365760405162461bcd60e51b815260206004820152601d60248201527f416464726573733a2063616c6c20746f206e6f6e2d636f6e74726163740000006044820152606401610679565b600080866001600160a01b03168587604051612d529190613329565b60006040518083038185875af1925050503d8060008114612d8f576040519150601f19603f3d011682016040523d82523d6000602084013e612d94565b606091505b5091509150610e7f82828660608315612dae575081612c79565b825115612dbe5782518084602001fd5b8160405162461bcd60e51b815260040161067991906133bf565b60405180610180016040528060006001600160a01b0316815260200160006001600160a01b0316815260200160006001600160a01b031681526020016000815260200160008152602001600081526020016000815260200160008152602001600081526020016000815260200160006001811115612e5857612e5861383e565b81526020016000905290565b600082601f830112612e7557600080fd5b813560206001600160401b03821115612e9057612e90613854565b8160051b612e9f828201613741565b838152828101908684018388018501891015612eba57600080fd5b600093505b85841015610e7d578035835260019390930192918401918401612ebf565b600082601f830112612eee57600080fd5b81356001600160401b03811115612f0757612f07613854565b612f1a601f8201601f1916602001613741565b818152846020838601011115612f2f57600080fd5b816020850160208301376000918101602001919091529392505050565b80356001600160601b0381168114612f6357600080fd5b919050565b600060208284031215612f7a57600080fd5b8135612c798161387a565b600060208284031215612f9757600080fd5b8151612c798161387a565b600080600080600060a08688031215612fba57600080fd5b8535612fc58161387a565b94506020860135612fd58161387a565b93506040860135612fe58161387a565b9250612ff360608701612f4c565b915061300160808701612f4c565b90509295509295909350565b600080600080600060a0868803121561302557600080fd5b85356130308161387a565b945060208601356130408161387a565b935060408601356001600160401b038082111561305c57600080fd5b61306889838a01612e64565b9450606088013591508082111561307e57600080fd5b61308a89838a01612e64565b935060808801359150808211156130a057600080fd5b506130ad88828901612edd565b9150509295509295909350565b600080600080608085870312156130d057600080fd5b84356130db8161387a565b935060208501356130eb8161387a565b92506040850135915060608501356001600160401b0381111561310d57600080fd5b61311987828801612edd565b91505092959194509250565b600080600080600060a0868803121561313d57600080fd5b85356131488161387a565b945060208601356131588161387a565b9350604086013592506060860135915060808601356001600160401b0381111561318157600080fd5b6130ad88828901612edd565b60008060008060008060c087890312156131a657600080fd5b86356131b18161387a565b955060208701359450604087013593506060870135925060808701356131d68161388f565b915060a08701356131e68161388f565b809150509295509295509295565b600080600080600080600060e0888a03121561320f57600080fd5b873561321a8161387a565b96506020880135955060408801359450606088013593506080880135925060a0880135915060c088013561324d8161388f565b8091505092959891949750929550565b60006020828403121561326f57600080fd5b81518015158114612c7957600080fd5b60006020828403121561329157600080fd5b81356001600160e01b031981168114612c7957600080fd5b6000602082840312156132bb57600080fd5b5035919050565b600080604083850312156132d557600080fd5b50508035926020909101359150565b6000602082840312156132f657600080fd5b612c7982612f4c565b6001600160a01b03169052565b6133158161386a565b9052565b600381106133155761331561383e565b6000825161333b8184602087016137e1565b9190910192915050565b6001600160a01b039384168152919092166020820152604081019190915260600190565b6001600160a01b03858116825284166020820152604081018390526060810182905260a0608082018190526003908201526203078360ec1b60c0820152600060e08201611e56565b602081016105eb8284613319565b60208152600082518060208401526133de8160408501602087016137e1565b601f01601f19169190910160400192915050565b602080825260129082015271115c9c9bdc8e88185b1c9958591e481cd95d60721b604082015260600190565b602080825260129082015271105550d51253d397d393d517d31254d5115160721b604082015260600190565b60208082526011908201527013505492d15517d393d517d31254d51151607a1b604082015260600190565b6020808252602b908201527f496e697469616c697a61626c653a20636f6e7472616374206973206e6f74206960408201526a6e697469616c697a696e6760a81b606082015260800190565b6020808252600e908201526d1253959053125117d05353d5539560921b604082015260600190565b6020808252601f908201527f5265656e7472616e637947756172643a207265656e7472616e742063616c6c00604082015260600190565b6000610180820190506135338284516132ff565b602083015161354560208401826132ff565b50604083015161355860408401826132ff565b50606083015160608301526080830151608083015260a083015160a083015260c083015160c083015260e083015160e0830152610100808401518184015250610120808401518184015250610140808401516135b68285018261330c565b5050610160808401516135cb82850182613319565b505092915050565b6000610140820190506135e78284516132ff565b60208301516135f9602084018261330c565b50604083015161360c60408401826132ff565b50606083015161361f6060840182613319565b50608083015161363260808401826132ff565b5060a083015161364560a084018261330c565b5060c083015160c083015260e083015160e083015261010080840151818401525061012080840151818401525092915050565b918252602082015260400190565b8481526020810184905260408101839052608081016136a48361386a565b82606083015295945050505050565b858152602081018590526040810184905260a081016136d18461386a565b8360608301526136e08361386a565b8260808301529695505050505050565b600060c08201905087825286602083015285604083015284606083015283608083015261371c8361386a565b8260a0830152979650505050505050565b6001600160601b0391909116815260200190565b604051601f8201601f191681016001600160401b038111828210171561376957613769613854565b604052919050565b6000821982111561378457613784613828565b500190565b6000826137a657634e487b7160e01b600052601260045260246000fd5b500490565b60008160001904831182151516156137c5576137c5613828565b500290565b6000828210156137dc576137dc613828565b500390565b60005b838110156137fc5781810151838201526020016137e4565b838111156122da5750506000910152565b600060001982141561382157613821613828565b5060010190565b634e487b7160e01b600052601160045260246000fd5b634e487b7160e01b600052602160045260246000fd5b634e487b7160e01b600052604160045260246000fd5b600281106117d7576117d761383e565b6001600160a01b03811681146117d757600080fd5b600281106117d757600080fdfed31c57ccb8973d46b86c5908906595e79b95be6576719f38633833500aeb0729a164736f6c6343000806000a",
  "linkReferences": {},
  "deployedLinkReferences": {}
}