{
  "_format": "hh-sol-artifact-1",
  "contractName": "RC3_Mall",
  "sourceName": "contracts/RC3_Mall.sol",
  "abi": [
    {
      "anonymous": false,
      "inputs": [
        {
          "indexed": true,
          "internalType": "address",
          "name": "caller",
          "type": "address"
        },
        {
          "indexed": true,
          "internalType": "address",
          "name": "nft",
          "type": "address"
        },
        {
          "indexed": true,
          "internalType": "uint256",
          "name": "auctionId",
          "type": "uint256"
        },
        {
          "indexed": false,
          "internalType": "uint256",
          "name": "tokenID",
          "type": "uint256"
        }
      ],
      "name": "AuctionCancelled",
      "type": "event"
    },
    {
      "anonymous": false,
      "inputs": [
        {
          "indexed": true,
          "internalType": "address",
          "name": "caller",
          "type": "address"
        },
        {
          "indexed": true,
          "internalType": "address",
          "name": "seller",
          "type": "address"
        },
        {
          "indexed": false,
          "internalType": "address",
          "name": "highestBidder",
          "type": "address"
        },
        {
          "indexed": true,
          "internalType": "address",
          "name": "nft",
          "type": "address"
        },
        {
          "indexed": false,
          "internalType": "uint256",
          "name": "auctionId",
          "type": "uint256"
        },
        {
          "indexed": false,
          "internalType": "uint256",
          "name": "tokenId",
          "type": "uint256"
        },
        {
          "indexed": false,
          "internalType": "uint256",
          "name": "amount",
          "type": "uint256"
        },
        {
          "indexed": false,
          "internalType": "uint256",
          "name": "winPrice",
          "type": "uint256"
        }
      ],
      "name": "AuctionResulted",
      "type": "event"
    },
    {
      "anonymous": false,
      "inputs": [
        {
          "indexed": true,
          "internalType": "address",
          "name": "bidder",
          "type": "address"
        },
        {
          "indexed": true,
          "internalType": "address",
          "name": "nft",
          "type": "address"
        },
        {
          "indexed": true,
          "internalType": "uint256",
          "name": "auctionId",
          "type": "uint256"
        },
        {
          "indexed": false,
          "internalType": "uint256",
          "name": "_tokenId",
          "type": "uint256"
        },
        {
          "indexed": false,
          "internalType": "uint256",
          "name": "newEndPeriod",
          "type": "uint256"
        }
      ],
      "name": "AuctionUpdated",
      "type": "event"
    },
    {
      "anonymous": false,
      "inputs": [
        {
          "indexed": true,
          "internalType": "address",
          "name": "sender",
          "type": "address"
        },
        {
          "indexed": true,
          "internalType": "address",
          "name": "feeReceipient",
          "type": "address"
        }
      ],
      "name": "FeeRecipientSet",
      "type": "event"
    },
    {
      "anonymous": false,
      "inputs": [
        {
          "indexed": true,
          "internalType": "address",
          "name": "sender",
          "type": "address"
        },
        {
          "indexed": false,
          "internalType": "uint256",
          "name": "feePercentage",
          "type": "uint256"
        },
        {
          "indexed": true,
          "internalType": "enum RC3_Mall.Asset",
          "name": "asset",
          "type": "uint8"
        }
      ],
      "name": "FeeSet",
      "type": "event"
    },
    {
      "anonymous": false,
      "inputs": [
        {
          "indexed": false,
          "internalType": "uint8",
          "name": "version",
          "type": "uint8"
        }
      ],
      "name": "Initialized",
      "type": "event"
    },
    {
      "anonymous": false,
      "inputs": [
        {
          "indexed": true,
          "internalType": "address",
          "name": "caller",
          "type": "address"
        },
        {
          "indexed": true,
          "internalType": "address",
          "name": "nifty",
          "type": "address"
        },
        {
          "indexed": false,
          "internalType": "uint256",
          "name": "marketId",
          "type": "uint256"
        },
        {
          "indexed": false,
          "internalType": "uint256",
          "name": "tokenId",
          "type": "uint256"
        }
      ],
      "name": "MarketCancelled",
      "type": "event"
    },
    {
      "anonymous": false,
      "inputs": [
        {
          "indexed": true,
          "internalType": "address",
          "name": "caller",
          "type": "address"
        },
        {
          "indexed": true,
          "internalType": "address",
          "name": "seller",
          "type": "address"
        },
        {
          "indexed": true,
          "internalType": "address",
          "name": "nft",
          "type": "address"
        },
        {
          "indexed": false,
          "internalType": "uint256",
          "name": "marketId",
          "type": "uint256"
        },
        {
          "indexed": false,
          "internalType": "uint256",
          "name": "tokenId",
          "type": "uint256"
        },
        {
          "indexed": false,
          "internalType": "uint256",
          "name": "price",
          "type": "uint256"
        },
        {
          "indexed": false,
          "internalType": "enum RC3_Mall.Asset",
          "name": "asset",
          "type": "uint8"
        }
      ],
      "name": "MarketSale",
      "type": "event"
    },
    {
      "anonymous": false,
      "inputs": [
        {
          "indexed": true,
          "internalType": "address",
          "name": "seller",
          "type": "address"
        },
        {
          "indexed": true,
          "internalType": "address",
          "name": "nft",
          "type": "address"
        },
        {
          "indexed": true,
          "internalType": "uint256",
          "name": "auctionId",
          "type": "uint256"
        },
        {
          "indexed": false,
          "internalType": "uint256",
          "name": "tokenId",
          "type": "uint256"
        },
        {
          "indexed": false,
          "internalType": "uint256",
          "name": "amount",
          "type": "uint256"
        },
        {
          "indexed": false,
          "internalType": "uint256",
          "name": "floorPrice",
          "type": "uint256"
        },
        {
          "indexed": false,
          "internalType": "uint256",
          "name": "startPeriod",
          "type": "uint256"
        },
        {
          "indexed": false,
          "internalType": "uint256",
          "name": "endPeriod",
          "type": "uint256"
        },
        {
          "indexed": false,
          "internalType": "enum RC3_Auction.TokenType",
          "name": "tokenType",
          "type": "uint8"
        }
      ],
      "name": "NewAuction",
      "type": "event"
    },
    {
      "anonymous": false,
      "inputs": [
        {
          "indexed": true,
          "internalType": "address",
          "name": "bidder",
          "type": "address"
        },
        {
          "indexed": true,
          "internalType": "address",
          "name": "nft",
          "type": "address"
        },
        {
          "indexed": true,
          "internalType": "uint256",
          "name": "auctionId",
          "type": "uint256"
        },
        {
          "indexed": false,
          "internalType": "uint256",
          "name": "tokenId",
          "type": "uint256"
        },
        {
          "indexed": false,
          "internalType": "uint256",
          "name": "price",
          "type": "uint256"
        }
      ],
      "name": "NewBid",
      "type": "event"
    },
    {
      "anonymous": false,
      "inputs": [
        {
          "indexed": true,
          "internalType": "address",
          "name": "caller",
          "type": "address"
        },
        {
          "indexed": true,
          "internalType": "address",
          "name": "nifty",
          "type": "address"
        },
        {
          "indexed": true,
          "internalType": "uint256",
          "name": "marketId",
          "type": "uint256"
        },
        {
          "indexed": false,
          "internalType": "uint256",
          "name": "tokenId",
          "type": "uint256"
        },
        {
          "indexed": false,
          "internalType": "uint256",
          "name": "amount",
          "type": "uint256"
        },
        {
          "indexed": false,
          "internalType": "uint256",
          "name": "price",
          "type": "uint256"
        },
        {
          "indexed": false,
          "internalType": "enum RC3_Auction.TokenType",
          "name": "tokenType",
          "type": "uint8"
        },
        {
          "indexed": false,
          "internalType": "enum RC3_Mall.Asset",
          "name": "asset",
          "type": "uint8"
        }
      ],
      "name": "NewMarket",
      "type": "event"
    },
    {
      "anonymous": false,
      "inputs": [
        {
          "indexed": true,
          "internalType": "address",
          "name": "previousOwner",
          "type": "address"
        },
        {
          "indexed": true,
          "internalType": "address",
          "name": "newOwner",
          "type": "address"
        }
      ],
      "name": "OwnershipTransferred",
      "type": "event"
    },
    {
      "inputs": [],
      "name": "auctionId",
      "outputs": [
        {
          "internalType": "uint256",
          "name": "_value",
          "type": "uint256"
        }
      ],
      "stateMutability": "view",
      "type": "function"
    },
    {
      "inputs": [],
      "name": "auctionsClosed",
      "outputs": [
        {
          "internalType": "uint256",
          "name": "_value",
          "type": "uint256"
        }
      ],
      "stateMutability": "view",
      "type": "function"
    },
    {
      "inputs": [
        {
          "internalType": "uint256",
          "name": "_auctionId",
          "type": "uint256"
        },
        {
          "internalType": "uint256",
          "name": "_bidAmount",
          "type": "uint256"
        }
      ],
      "name": "bid",
      "outputs": [
        {
          "internalType": "bool",
          "name": "bidded",
          "type": "bool"
        }
      ],
      "stateMutability": "nonpayable",
      "type": "function"
    },
    {
      "inputs": [
        {
          "internalType": "uint256",
          "name": "_auctionId",
          "type": "uint256"
        }
      ],
      "name": "bidTimeRemaining",
      "outputs": [
        {
          "internalType": "uint256",
          "name": "startsIn",
          "type": "uint256"
        },
        {
          "internalType": "uint256",
          "name": "endsIn",
          "type": "uint256"
        }
      ],
      "stateMutability": "view",
      "type": "function"
    },
    {
      "inputs": [
        {
          "internalType": "uint256",
          "name": "_marketId",
          "type": "uint256"
        }
      ],
      "name": "buyWithETH",
      "outputs": [
        {
          "internalType": "bool",
          "name": "bought",
          "type": "bool"
        }
      ],
      "stateMutability": "payable",
      "type": "function"
    },
    {
      "inputs": [
        {
          "internalType": "uint256",
          "name": "_marketId",
          "type": "uint256"
        }
      ],
      "name": "buyWithRCDY",
      "outputs": [
        {
          "internalType": "bool",
          "name": "bought",
          "type": "bool"
        }
      ],
      "stateMutability": "nonpayable",
      "type": "function"
    },
    {
      "inputs": [
        {
          "internalType": "uint256",
          "name": "_auctionId",
          "type": "uint256"
        }
      ],
      "name": "closeBid",
      "outputs": [
        {
          "internalType": "enum RC3_Auction.State",
          "name": "status",
          "type": "uint8"
        }
      ],
      "stateMutability": "nonpayable",
      "type": "function"
    },
    {
      "inputs": [
        {
          "internalType": "uint256",
          "name": "_marketId",
          "type": "uint256"
        }
      ],
      "name": "delistMarket",
      "outputs": [
        {
          "internalType": "enum RC3_Auction.State",
          "name": "status",
          "type": "uint8"
        }
      ],
      "stateMutability": "nonpayable",
      "type": "function"
    },
    {
      "inputs": [],
      "name": "ethFee",
      "outputs": [
        {
          "internalType": "uint96",
          "name": "",
          "type": "uint96"
        }
      ],
      "stateMutability": "view",
      "type": "function"
    },
    {
      "inputs": [],
      "name": "feePercentage",
      "outputs": [
        {
          "internalType": "uint96",
          "name": "",
          "type": "uint96"
        }
      ],
      "stateMutability": "view",
      "type": "function"
    },
    {
      "inputs": [],
      "name": "feeRecipient",
      "outputs": [
        {
          "internalType": "address payable",
          "name": "",
          "type": "address"
        }
      ],
      "stateMutability": "view",
      "type": "function"
    },
    {
      "inputs": [
        {
          "internalType": "uint256",
          "name": "_auctionId",
          "type": "uint256"
        }
      ],
      "name": "getAuction",
      "outputs": [
        {
          "components": [
            {
              "internalType": "address payable",
              "name": "seller",
              "type": "address"
            },
            {
              "internalType": "address payable",
              "name": "highestBidder",
              "type": "address"
            },
            {
              "internalType": "address",
              "name": "nifty",
              "type": "address"
            },
            {
              "internalType": "uint256",
              "name": "tokenId",
              "type": "uint256"
            },
            {
              "internalType": "uint256",
              "name": "tokenAmount",
              "type": "uint256"
            },
            {
              "internalType": "uint256",
              "name": "initialBidAmount",
              "type": "uint256"
            },
            {
              "internalType": "uint256",
              "name": "highestBidAmount",
              "type": "uint256"
            },
            {
              "internalType": "uint256",
              "name": "startPeriod",
              "type": "uint256"
            },
            {
              "internalType": "uint256",
              "name": "endPeriod",
              "type": "uint256"
            },
            {
              "internalType": "uint256",
              "name": "bidCount",
              "type": "uint256"
            },
            {
              "internalType": "enum RC3_Auction.TokenType",
              "name": "tokenType",
              "type": "uint8"
            },
            {
              "internalType": "enum RC3_Auction.State",
              "name": "state",
              "type": "uint8"
            }
          ],
          "internalType": "struct RC3_Auction.Auction",
          "name": "auction_",
          "type": "tuple"
        }
      ],
      "stateMutability": "view",
      "type": "function"
    },
    {
      "inputs": [],
      "name": "getListedMarkets",
      "outputs": [
        {
          "components": [
            {
              "internalType": "address payable",
              "name": "seller",
              "type": "address"
            },
            {
              "internalType": "enum RC3_Auction.TokenType",
              "name": "tokenType",
              "type": "uint8"
            },
            {
              "internalType": "address payable",
              "name": "buyer",
              "type": "address"
            },
            {
              "internalType": "enum RC3_Auction.State",
              "name": "state",
              "type": "uint8"
            },
            {
              "internalType": "address",
              "name": "nifty",
              "type": "address"
            },
            {
              "internalType": "enum RC3_Mall.Asset",
              "name": "asset",
              "type": "uint8"
            },
            {
              "internalType": "uint256",
              "name": "tokenId",
              "type": "uint256"
            },
            {
              "internalType": "uint256",
              "name": "tokenAmount",
              "type": "uint256"
            },
            {
              "internalType": "uint256",
              "name": "price",
              "type": "uint256"
            },
            {
              "internalType": "uint256",
              "name": "listTimestamp",
              "type": "uint256"
            }
          ],
          "internalType": "struct RC3_Mall.Market[]",
          "name": "marketItems",
          "type": "tuple[]"
        }
      ],
      "stateMutability": "view",
      "type": "function"
    },
    {
      "inputs": [
        {
          "internalType": "uint256",
          "name": "_marketId",
          "type": "uint256"
        }
      ],
      "name": "getMarket",
      "outputs": [
        {
          "components": [
            {
              "internalType": "address payable",
              "name": "seller",
              "type": "address"
            },
            {
              "internalType": "enum RC3_Auction.TokenType",
              "name": "tokenType",
              "type": "uint8"
            },
            {
              "internalType": "address payable",
              "name": "buyer",
              "type": "address"
            },
            {
              "internalType": "enum RC3_Auction.State",
              "name": "state",
              "type": "uint8"
            },
            {
              "internalType": "address",
              "name": "nifty",
              "type": "address"
            },
            {
              "internalType": "enum RC3_Mall.Asset",
              "name": "asset",
              "type": "uint8"
            },
            {
              "internalType": "uint256",
              "name": "tokenId",
              "type": "uint256"
            },
            {
              "internalType": "uint256",
              "name": "tokenAmount",
              "type": "uint256"
            },
            {
              "internalType": "uint256",
              "name": "price",
              "type": "uint256"
            },
            {
              "internalType": "uint256",
              "name": "listTimestamp",
              "type": "uint256"
            }
          ],
          "internalType": "struct RC3_Mall.Market",
          "name": "",
          "type": "tuple"
        }
      ],
      "stateMutability": "view",
      "type": "function"
    },
    {
      "inputs": [
        {
          "internalType": "address",
          "name": "_owner",
          "type": "address"
        },
        {
          "internalType": "address",
          "name": "_rcdy",
          "type": "address"
        },
        {
          "internalType": "address payable",
          "name": "_feeReceipient",
          "type": "address"
        },
        {
          "internalType": "uint96",
          "name": "_feeRCDY",
          "type": "uint96"
        },
        {
          "internalType": "uint96",
          "name": "_ethFee",
          "type": "uint96"
        }
      ],
      "name": "initialize",
      "outputs": [],
      "stateMutability": "nonpayable",
      "type": "function"
    },
    {
      "inputs": [
        {
          "internalType": "address",
          "name": "nifty",
          "type": "address"
        },
        {
          "internalType": "uint256",
          "name": "_tokenId",
          "type": "uint256"
        },
        {
          "internalType": "uint256",
          "name": "amount",
          "type": "uint256"
        },
        {
          "internalType": "uint256",
          "name": "_startsIn",
          "type": "uint256"
        },
        {
          "internalType": "uint256",
          "name": "_lastsFor",
          "type": "uint256"
        },
        {
          "internalType": "uint256",
          "name": "_initialBidAmount",
          "type": "uint256"
        },
        {
          "internalType": "enum RC3_Auction.TokenType",
          "name": "_type",
          "type": "uint8"
        }
      ],
      "name": "listAuction",
      "outputs": [
        {
          "internalType": "uint256",
          "name": "auctionId_",
          "type": "uint256"
        }
      ],
      "stateMutability": "nonpayable",
      "type": "function"
    },
    {
      "inputs": [
        {
          "internalType": "address",
          "name": "nifty",
          "type": "address"
        },
        {
          "internalType": "uint256",
          "name": "_tokenId",
          "type": "uint256"
        },
        {
          "internalType": "uint256",
          "name": "amount",
          "type": "uint256"
        },
        {
          "internalType": "uint256",
          "name": "_price",
          "type": "uint256"
        },
        {
          "internalType": "enum RC3_Auction.TokenType",
          "name": "_type",
          "type": "uint8"
        },
        {
          "internalType": "enum RC3_Mall.Asset",
          "name": "_asset",
          "type": "uint8"
        }
      ],
      "name": "listMarket",
      "outputs": [
        {
          "internalType": "uint256",
          "name": "marketId_",
          "type": "uint256"
        }
      ],
      "stateMutability": "nonpayable",
      "type": "function"
    },
    {
      "inputs": [],
      "name": "marketId",
      "outputs": [
        {
          "internalType": "uint256",
          "name": "_value",
          "type": "uint256"
        }
      ],
      "stateMutability": "view",
      "type": "function"
    },
    {
      "inputs": [],
      "name": "marketsDelisted",
      "outputs": [
        {
          "internalType": "uint256",
          "name": "_value",
          "type": "uint256"
        }
      ],
      "stateMutability": "view",
      "type": "function"
    },
    {
      "inputs": [],
      "name": "marketsSold",
      "outputs": [
        {
          "internalType": "uint256",
          "name": "_value",
          "type": "uint256"
        }
      ],
      "stateMutability": "view",
      "type": "function"
    },
    {
      "inputs": [],
      "name": "myTradedNFTs",
      "outputs": [
        {
          "components": [
            {
              "internalType": "address payable",
              "name": "seller",
              "type": "address"
            },
            {
              "internalType": "enum RC3_Auction.TokenType",
              "name": "tokenType",
              "type": "uint8"
            },
            {
              "internalType": "address payable",
              "name": "buyer",
              "type": "address"
            },
            {
              "internalType": "enum RC3_Auction.State",
              "name": "state",
              "type": "uint8"
            },
            {
              "internalType": "address",
              "name": "nifty",
              "type": "address"
            },
            {
              "internalType": "enum RC3_Mall.Asset",
              "name": "asset",
              "type": "uint8"
            },
            {
              "internalType": "uint256",
              "name": "tokenId",
              "type": "uint256"
            },
            {
              "internalType": "uint256",
              "name": "tokenAmount",
              "type": "uint256"
            },
            {
              "internalType": "uint256",
              "name": "price",
              "type": "uint256"
            },
            {
              "internalType": "uint256",
              "name": "listTimestamp",
              "type": "uint256"
            }
          ],
          "internalType": "struct RC3_Mall.Market[]",
          "name": "myNfts",
          "type": "tuple[]"
        }
      ],
      "stateMutability": "view",
      "type": "function"
    },
    {
      "inputs": [
        {
          "internalType": "uint256",
          "name": "_auctionId",
          "type": "uint256"
        }
      ],
      "name": "nextBidAmount",
      "outputs": [
        {
          "internalType": "uint256",
          "name": "amount",
          "type": "uint256"
        }
      ],
      "stateMutability": "view",
      "type": "function"
    },
    {
      "inputs": [
        {
          "internalType": "address",
          "name": "",
          "type": "address"
        },
        {
          "internalType": "address",
          "name": "",
          "type": "address"
        },
        {
          "internalType": "uint256[]",
          "name": "",
          "type": "uint256[]"
        },
        {
          "internalType": "uint256[]",
          "name": "",
          "type": "uint256[]"
        },
        {
          "internalType": "bytes",
          "name": "",
          "type": "bytes"
        }
      ],
      "name": "onERC1155BatchReceived",
      "outputs": [
        {
          "internalType": "bytes4",
          "name": "",
          "type": "bytes4"
        }
      ],
      "stateMutability": "nonpayable",
      "type": "function"
    },
    {
      "inputs": [
        {
          "internalType": "address",
          "name": "",
          "type": "address"
        },
        {
          "internalType": "address",
          "name": "",
          "type": "address"
        },
        {
          "internalType": "uint256",
          "name": "",
          "type": "uint256"
        },
        {
          "internalType": "uint256",
          "name": "",
          "type": "uint256"
        },
        {
          "internalType": "bytes",
          "name": "",
          "type": "bytes"
        }
      ],
      "name": "onERC1155Received",
      "outputs": [
        {
          "internalType": "bytes4",
          "name": "",
          "type": "bytes4"
        }
      ],
      "stateMutability": "nonpayable",
      "type": "function"
    },
    {
      "inputs": [
        {
          "internalType": "address",
          "name": "",
          "type": "address"
        },
        {
          "internalType": "address",
          "name": "",
          "type": "address"
        },
        {
          "internalType": "uint256",
          "name": "",
          "type": "uint256"
        },
        {
          "internalType": "bytes",
          "name": "",
          "type": "bytes"
        }
      ],
      "name": "onERC721Received",
      "outputs": [
        {
          "internalType": "bytes4",
          "name": "",
          "type": "bytes4"
        }
      ],
      "stateMutability": "nonpayable",
      "type": "function"
    },
    {
      "inputs": [],
      "name": "owner",
      "outputs": [
        {
          "internalType": "address",
          "name": "",
          "type": "address"
        }
      ],
      "stateMutability": "view",
      "type": "function"
    },
    {
      "inputs": [],
      "name": "renounceOwnership",
      "outputs": [],
      "stateMutability": "nonpayable",
      "type": "function"
    },
    {
      "inputs": [
        {
          "internalType": "uint96",
          "name": "_newFee",
          "type": "uint96"
        }
      ],
      "name": "setFeeETH",
      "outputs": [],
      "stateMutability": "nonpayable",
      "type": "function"
    },
    {
      "inputs": [
        {
          "internalType": "uint96",
          "name": "_newFee",
          "type": "uint96"
        }
      ],
      "name": "setFeeRCDY",
      "outputs": [],
      "stateMutability": "nonpayable",
      "type": "function"
    },
    {
      "inputs": [
        {
          "internalType": "address payable",
          "name": "_newRecipient",
          "type": "address"
        }
      ],
      "name": "setFeeRecipient",
      "outputs": [],
      "stateMutability": "nonpayable",
      "type": "function"
    },
    {
      "inputs": [
        {
          "internalType": "bytes4",
          "name": "interfaceId",
          "type": "bytes4"
        }
      ],
      "name": "supportsInterface",
      "outputs": [
        {
          "internalType": "bool",
          "name": "",
          "type": "bool"
        }
      ],
      "stateMutability": "view",
      "type": "function"
    },
    {
      "inputs": [
        {
          "internalType": "address",
          "name": "newOwner",
          "type": "address"
        }
      ],
      "name": "transferOwnership",
      "outputs": [],
      "stateMutability": "nonpayable",
      "type": "function"
    },
    {
      "inputs": [],
      "name": "waitPeriod",
      "outputs": [
        {
          "internalType": "uint256",
          "name": "",
          "type": "uint256"
        }
      ],
      "stateMutability": "view",
      "type": "function"
    }
  ],
  "bytecode": "0x608060405234801561001057600080fd5b50613e3b806100206000396000f3fe60806040526004361061017e5760003560e01c806301ffc9a71461018357806304ad187e146101b857806310782f8f146101da578063150b7a02146101ff57806346904840146102435780634cf1115d1461027b578063575ffe7a146102a957806357b3f9d9146102c9578063598647f8146102eb5780636cc031241461030b5780636ed71ede14610322578063715018a61461033a57806378bd79351461034f5780638da5cb5b1461037c5780638e26c09d14610391578063932ba8c4146103a857806394dc9cf3146103bd578063a001ecdd146103d0578063ab600c59146103f7578063bc197c811461040f578063bd4b04d41461043b578063be5cbdac1461045b578063c00b6bc11461047b578063c2c34cae1461049b578063d846349e146104c8578063db77c20b146104f6578063e6084a2614610516578063e74b981b1461052e578063eb44fdd31461054e578063f23a6e611461057b578063f2fde38b146105a7578063f6a89810146105c7578063fe7588ed146105e7575b600080fd5b34801561018f57600080fd5b506101a361019e36600461378d565b610607565b60405190151581526020015b60405180910390f35b3480156101c457600080fd5b506101cd61063e565b6040516101af9190613954565b3480156101e657600080fd5b5060fb546101f19081565b6040519081526020016101af565b34801561020b57600080fd5b5061022a61021a3660046135c8565b630a85bd0160e11b949350505050565b6040516001600160e01b031990911681526020016101af565b34801561024f57600080fd5b5060fe54610263906001600160a01b031681565b6040516001600160a01b0390911681526020016101af565b34801561028757600080fd5b506101675461029c906001600160601b031681565b6040516101af9190613c89565b3480156102b557600080fd5b506101f16102c43660046137b7565b610894565b3480156102d557600080fd5b506102e96102e43660046137f2565b61089f565b005b3480156102f757600080fd5b506101a36103063660046137d0565b6108f7565b34801561031757600080fd5b5060fc546101f19081565b34801561032e57600080fd5b50610164546101f19081565b34801561034657600080fd5b506102e9610b00565b34801561035b57600080fd5b5061036f61036a3660046137b7565b610b14565b6040516101af9190613b11565b34801561038857600080fd5b50610263610c1c565b34801561039d57600080fd5b506101f16202a30081565b3480156103b457600080fd5b506101cd610c2c565b6101a36103cb3660046137b7565b610e8c565b3480156103dc57600080fd5b5060fd5461029c90600160a01b90046001600160601b031681565b34801561040357600080fd5b50610165546101f19081565b34801561041b57600080fd5b5061022a61042a36600461351b565b63bc197c8160e01b95945050505050565b34801561044757600080fd5b506101f1610456366004613702565b611180565b34801561046757600080fd5b506102e96104763660046134b0565b61138d565b34801561048757600080fd5b506101a36104963660046137b7565b611573565b3480156104a757600080fd5b506104bb6104b63660046137b7565b611737565b6040516101af91906139a3565b3480156104d457600080fd5b506104e86104e33660046137b7565b6119f8565b6040516101af929190613bd4565b34801561050257600080fd5b506102e96105113660046137f2565b611a0e565b34801561052257600080fd5b50610166546101f19081565b34801561053a57600080fd5b506102e9610549366004613476565b611a98565b34801561055a57600080fd5b5061056e6105693660046137b7565b611af5565b6040516101af9190613bc5565b34801561058757600080fd5b5061022a610596366004613633565b63f23a6e6160e01b95945050505050565b3480156105b357600080fd5b506102e96105c2366004613476565b611c1b565b3480156105d357600080fd5b506104bb6105e23660046137b7565b611c94565b3480156105f357600080fd5b506101f161060236600461369b565b61210f565b60006001600160e01b03198216630271189760e51b148061063857506301ffc9a760e01b6001600160e01b03198316145b92915050565b6060600061064c6101645490565b9050600061065a6101655490565b610166546106689084613d26565b6106729190613d26565b9050600080826001600160401b0381111561068f5761068f613dc6565b6040519080825280602002602001820160405280156106c857816020015b6106b5613292565b8152602001906001900390816106ad5790505b50905060005b8481101561088b57600061016860006106e8846001613ccd565b8152602081019190915260400160002060010154600160a01b900460ff16600281111561071757610717613d9a565b14156108795760006101688161072e846001613ccd565b815260208082019290925260409081016000208151610140810190925280546001600160a01b03811683529192909190830190600160a01b900460ff16600181111561077c5761077c613d9a565b600181111561078d5761078d613d9a565b815260018201546001600160a01b0381166020830152604090910190600160a01b900460ff1660028111156107c4576107c4613d9a565b60028111156107d5576107d5613d9a565b815260028201546001600160a01b0381166020830152604090910190600160a01b900460ff16600181111561080c5761080c613d9a565b600181111561081d5761081d613d9a565b815260200160038201548152602001600482015481526020016005820154815260200160068201548152505090508083858151811061085e5761085e613db0565b6020026020010181905250838061087490613d69565b945050505b8061088381613d69565b9150506106ce565b50949350505050565b60006106388261231a565b6108a7612475565b6001600160601b0381166108ba57600080fd5b6108c3816124d4565b6001336001600160a01b0316600080516020613e0f833981519152836040516108ec9190613c89565b60405180910390a350565b6000600260c95414156109255760405162461bcd60e51b815260040161091c90613ada565b60405180910390fd5b600260c95582826109368282612534565b600085815260ff6020526040902060fd5461095c906001600160a01b031633308861279a565b60098101541561098b576001810154600682015460fd5461098b926001600160a01b03918216929116906127f2565b6001810180546001600160a01b03191633179055600681018590556009810180549060006109b883613d69565b90915550506002810154600382015460405188926001600160a01b03169133917f911d834cc781bcb7a08922b9dd1f1d175c0a0467d9705194c2e200f8ce2786bb91610a05918b90613bd4565b60405180910390a46000610a1887612827565b915050610e10811015610aed57610e10610a3482610258613ccd565b1115610a6457610a4681610e10613d26565b826008016000828254610a599190613ccd565b925050819055610a81565b610258826008016000828254610a7a9190613ccd565b9250508190555b506000610a8d88612827565b600285015460038601549193508a92506001600160a01b03169033907ff3f8c69115d9f33b41d0ae7a8f88fb8cde222311d82702dc55025079d0eca53a90610ad58642613ccd565b604051610ae3929190613bd4565b60405180910390a4505b6001945050505050600160c95592915050565b610b08612475565b610b126000612976565b565b610b1c6132e6565b600082815260ff602081815260409283902083516101808101855281546001600160a01b039081168252600180840154821694830194909452600283015416948101949094526003810154606085015260048101546080850152600581015460a0850152600681015460c0850152600781015460e085015260088101546101008501526009810154610120850152600a8101549092610140850192911690811115610bc957610bc9613d9a565b6001811115610bda57610bda613d9a565b8152602001600a820160019054906101000a900460ff166002811115610c0257610c02613d9a565b6002811115610c1357610c13613d9a565b90525092915050565b610132546001600160a01b031690565b60606000610c3a6101645490565b905060008060005b83811015610c9e57336101686000610c5b846001613ccd565b81526020810191909152604001600020600101546001600160a01b03161415610c8c5782610c8881613d69565b9350505b80610c9681613d69565b915050610c42565b506000826001600160401b03811115610cb957610cb9613dc6565b604051908082528060200260200182016040528015610cf257816020015b610cdf613292565b815260200190600190039081610cd75790505b50905060005b8481101561088b57600061016881610d11846001613ccd565b815260208082019290925260409081016000208151610140810190925280546001600160a01b03811683529192909190830190600160a01b900460ff166001811115610d5f57610d5f613d9a565b6001811115610d7057610d70613d9a565b815260018201546001600160a01b0381166020830152604090910190600160a01b900460ff166002811115610da757610da7613d9a565b6002811115610db857610db8613d9a565b815260028201546001600160a01b0381166020830152604090910190600160a01b900460ff166001811115610def57610def613d9a565b6001811115610e0057610e00613d9a565b81526020016003820154815260200160048201548152602001600582015481526020016006820154815250509050336001600160a01b031681604001516001600160a01b03161415610e795780838581518110610e5f57610e5f613db0565b60200260200101819052508380610e7590613d69565b9450505b5080610e8481613d69565b915050610cf8565b600081610e98816129c9565b6000838152610168602090815260408083208151610140810190925280546001600160a01b03811683529192909190830190600160a01b900460ff166001811115610ee557610ee5613d9a565b6001811115610ef657610ef6613d9a565b815260018201546001600160a01b0381166020830152604090910190600160a01b900460ff166002811115610f2d57610f2d613d9a565b6002811115610f3e57610f3e613d9a565b815260028201546001600160a01b0381166020830152604090910190600160a01b900460ff166001811115610f7557610f75613d9a565b6001811115610f8657610f86613d9a565b8152600382015460208201526004820154604082015260058201546060820152600690910154608090910152610167546101008201519192506001600160601b031690600090620186a090610fdb9084613d07565b610fe59190613ce5565b905082610100015134146110345760405162461bcd60e51b81526020600482015260166024820152751253959053125117d410565351539517d05353d5539560521b604482015260640161091c565b60fe546040516000916001600160a01b03169083908381818185875af1925050503d8060008114611081576040519150601f19603f3d011682016040523d82523d6000602084013e611086565b606091505b50509050600084600001516001600160a01b0316838661010001516110ab9190613d26565b604051600081818185875af1925050503d80600081146110e7576040519150601f19603f3d011682016040523d82523d6000602084013e6110ec565b606091505b505090508180156110fa5750805b6111695760405162461bcd60e51b815260206004820152603a60248201527f416464726573733a20756e61626c6520746f2073656e642076616c75652c20726044820152791958da5c1a595b9d081b585e481a185d99481c995d995c9d195960321b606482015260840161091c565b61117288612b6b565b506001979650505050505050565b600061119060fb80546001019055565b5060fb54836111d45760405162461bcd60e51b815260206004820152601060248201526f24a72b20a624a22fa22aa920aa24a7a760811b604482015260640161091c565b60008260018111156111e8576111e8613d9a565b14156112e9576040516331a9108f60e11b81526004810188905288906000906001600160a01b03831690636352211e9060240160206040518083038186803b15801561123357600080fd5b505afa158015611247573d6000803e3d6000fd5b505050506040513d601f19601f8201168201806040525081019061126b9190613493565b604051632142170760e11b81529091506001600160a01b038316906342842e0e9061129e90849030908e906004016138e8565b600060405180830381600087803b1580156112b857600080fd5b505af11580156112cc573d6000803e3d6000fd5b505050506112e28a848b60018b8b8b6000612d44565b5050611382565b600086116113095760405162461bcd60e51b815260040161091c90613ab2565b604051637921219560e11b815288906001600160a01b0382169063f242432a9061133d90339030908d908d9060040161390c565b600060405180830381600087803b15801561135757600080fd5b505af115801561136b573d6000803e3d6000fd5b5050505061138089838a8a8a8a8a6001612d44565b505b979650505050505050565b600054610100900460ff16158080156113ad5750600054600160ff909116105b806113ce57506113bc30612e47565b1580156113ce575060005460ff166001145b6114315760405162461bcd60e51b815260206004820152602e60248201527f496e697469616c697a61626c653a20636f6e747261637420697320616c72656160448201526d191e481a5b9a5d1a585b1a5e995960921b606482015260840161091c565b6000805460ff191660011790558015611454576000805461ff0019166101001790555b6101695460ff16156114bd5760405162461bcd60e51b815260206004820152602c60248201527f4572726f723a20636f6e74726163742068617320616c7265616479206265656e60448201526b081a5b9a5d1a585b1a5e995960a21b606482015260840161091c565b6114c5612e56565b6114ce84612e85565b6114d7836124d4565b61016780546001600160601b0319166001600160601b03841617905560fd80546001600160a01b0319166001600160a01b03871617905561151786611c1b565b610169805460ff19166001179055801561156b576000805461ff0019169055604051600181527f7f26b83ff96e1f2b6a682f133852f6798a09c465da95921460cefb38474024989060200160405180910390a15b505050505050565b60008161157f816129c9565b6000838152610168602090815260408083208151610140810190925280546001600160a01b03811683529192909190830190600160a01b900460ff1660018111156115cc576115cc613d9a565b60018111156115dd576115dd613d9a565b815260018201546001600160a01b0381166020830152604090910190600160a01b900460ff16600281111561161457611614613d9a565b600281111561162557611625613d9a565b815260028201546001600160a01b0381166020830152604090910190600160a01b900460ff16600181111561165c5761165c613d9a565b600181111561166d5761166d613d9a565b815260038201546020820152600482015460408201526005820154606082015260069091015460809091015260fd54610100820151919250600160a01b90046001600160601b031690600090620186a0906116c89084613d07565b6116d29190613ce5565b60fe5460fd549192506116f4916001600160a01b03908116913391168461279a565b6117223384600001518386610100015161170e9190613d26565b60fd546001600160a01b031692919061279a565b61172b86612b6b565b50600195945050505050565b6000600260c954141561175c5760405162461bcd60e51b815260040161091c90613ada565b600260c981905560008381526101686020526040902060018101549091600160a01b90910460ff169081111561179457611794613d9a565b156117b15760405162461bcd60e51b815260040161091c90613a3c565b80546001600160a01b031633146118005760405162461bcd60e51b81526020600482015260136024820152722aa720aaaa2427a924ad22a22fa1a0a62622a960691b604482015260640161091c565b6202a3008160060154426118149190613d26565b10156118555760405162461bcd60e51b815260206004820152601060248201526f10d3d3d317d113d5d397d411549253d160821b604482015260640161091c565b60008154600160a01b900460ff16600181111561187457611874613d9a565b146118f457600281015481546003830154600480850154604051637921219560e11b81526001600160a01b039586169563f242432a956118bd953095919092169391920161390c565b600060405180830381600087803b1580156118d757600080fd5b505af11580156118eb573d6000803e3d6000fd5b50505050611965565b600281015481546003830154604051632142170760e11b81526001600160a01b03938416936342842e0e9361193293309392909116916004016138e8565b600060405180830381600087803b15801561194c57600080fd5b505af1158015611960573d6000803e3d6000fd5b505050505b6001818101805460ff60a01b1916600160a01b83021790555061198d61016680546001019055565b600281015460038201546040516001600160a01b039092169133917f1b8533106988126be2d3db59ca29eb634d45d513b5e215053409141b26f8f42e916119d5918891613bd4565b60405180910390a36001015460ff600160a01b909104169050600160c955919050565b600080611a0483612827565b9094909350915050565b611a16612475565b610167546001600160601b03908116908216811415611a475760405162461bcd60e51b815260040161091c906139e4565b61016780546001600160601b0319166001600160601b0384161790556000336001600160a01b0316600080516020613e0f83398151915284604051611a8c9190613c89565b60405180910390a35050565b611aa0612475565b6001600160a01b038116611ab357600080fd5b611abc81612e85565b6040516001600160a01b0382169033907f15d80a013f22151bc7246e3bc132e12828cde19de98870475e3fa7084015272190600090a350565b611afd613292565b600082815261016860209081526040918290208251610140810190935280546001600160a01b03811684529091830190600160a01b900460ff166001811115611b4857611b48613d9a565b6001811115611b5957611b59613d9a565b815260018201546001600160a01b0381166020830152604090910190600160a01b900460ff166002811115611b9057611b90613d9a565b6002811115611ba157611ba1613d9a565b815260028201546001600160a01b0381166020830152604090910190600160a01b900460ff166001811115611bd857611bd8613d9a565b6001811115611be957611be9613d9a565b815260038201546020820152600482015460408201526005820154606082015260069091015460809091015292915050565b611c23612475565b6001600160a01b038116611c885760405162461bcd60e51b815260206004820152602660248201527f4f776e61626c653a206e6577206f776e657220697320746865207a65726f206160448201526564647265737360d01b606482015260840161091c565b611c9181612976565b50565b6000600260c9541415611cb95760405162461bcd60e51b815260040161091c90613ada565b600260c955600082815260ff6020526040812090600a820154610100900460ff166002811115611ceb57611ceb613d9a565b14611d085760405162461bcd60e51b815260040161091c90613a10565b600080611d1485612827565b91509150816000148015611d26575080155b611d615760405162461bcd60e51b815260206004820152600c60248201526b494e56414c49445f54494d4560a01b604482015260640161091c565b600683015480611ed7576000600a85015460ff166001811115611d8657611d86613d9a565b14611e0657600284015484546003860154600480880154604051637921219560e11b81526001600160a01b039586169563f242432a95611dcf953095919092169391920161390c565b600060405180830381600087803b158015611de957600080fd5b505af1158015611dfd573d6000803e3d6000fd5b50505050611e77565b600284015484546003860154604051632142170760e11b81526001600160a01b03938416936342842e0e93611e4493309392909116916004016138e8565b600060405180830381600087803b158015611e5e57600080fd5b505af1158015611e72573d6000803e3d6000fd5b505050505b600a8401805461ff00191661010017905560028401546003850154604080519182525188926001600160a01b03169133917f57bfd08a841d5d478e4fef268a8b041c65e389dddfa00f8c4a88a9d4fd9bc8249181900360200190a46120e7565b60fd54600090620186a090611efd908490600160a01b90046001600160601b0316613d07565b611f079190613ce5565b600186015460fe5460fd549293506001600160a01b0391821692611f30929081169116846127f2565b8554611f5c906001600160a01b0316611f498486613d26565b60fd546001600160a01b031691906127f2565b6000600a87015460ff166001811115611f7757611f77613d9a565b14611ff25760028601546003870154600480890154604051637921219560e11b81526001600160a01b039094169363f242432a93611fbb933093889390910161390c565b600060405180830381600087803b158015611fd557600080fd5b505af1158015611fe9573d6000803e3d6000fd5b5050505061205e565b60028601546003870154604051632142170760e11b81526001600160a01b03909216916342842e0e9161202b91309186916004016138e8565b600060405180830381600087803b15801561204557600080fd5b505af1158015612059573d6000803e3d6000fd5b505050505b600a8601805461ff0019166102001790556002860154865460038801546004890154604080516001600160a01b038781168252602082018f9052818301949094526060810192909252608082018890525193821693919092169133917f31c8601b5dd4c4e31751f64d3545cc33889c92681a65811a7f4575b3ae26d5569181900360a00190a450505b6120f560fc80546001019055565b505050600a0154600160c955610100900460ff1692915050565b60008084116121505760405162461bcd60e51b815260206004820152600d60248201526c494e56414c49445f505249434560981b604482015260640161091c565b61215f61016480546001019055565b5061016454600083600181111561217857612178613d9a565b1415612278576040516331a9108f60e11b81526004810187905287906000906001600160a01b03831690636352211e9060240160206040518083038186803b1580156121c357600080fd5b505afa1580156121d7573d6000803e3d6000fd5b505050506040513d601f19601f820116820180604052508101906121fb9190613493565b604051632142170760e11b81529091506001600160a01b038316906342842e0e9061222e90849030908d906004016138e8565b600060405180830381600087803b15801561224857600080fd5b505af115801561225c573d6000803e3d6000fd5b5050505061227189848a60018a60008a612f04565b5050612310565b600085116122985760405162461bcd60e51b815260040161091c90613ab2565b604051637921219560e11b815287906001600160a01b0382169063f242432a906122cc90339030908c908c9060040161390c565b600060405180830381600087803b1580156122e657600080fd5b505af11580156122fa573d6000803e3d6000fd5b5050505061230e8883898989600189612f04565b505b9695505050505050565b600081815260ff6020818152604080842081516101808101835281546001600160a01b039081168252600180840154821695830195909552600283015416928101929092526003810154606083015260048101546080830152600581015460a0830152600681015460c0830152600781015460e083015260088101546101008301526009810154610120830152600a8101548594929391926101408501929116908111156123ca576123ca613d9a565b60018111156123db576123db613d9a565b8152602001600a820160019054906101000a900460ff16600281111561240357612403613d9a565b600281111561241457612414613d9a565b90525080519091506001600160a01b03161561246c5760c08101518061243f575060a0015192915050565b80620186a061245082612710613d07565b61245a9190613ce5565b6124649190613ccd565b949350505050565b50600092915050565b3361247e610c1c565b6001600160a01b031614610b125760405162461bcd60e51b815260206004820181905260248201527f4f776e61626c653a2063616c6c6572206973206e6f7420746865206f776e6572604482015260640161091c565b60fd546001600160601b03600160a01b909104811690821681141561250b5760405162461bcd60e51b815260040161091c906139e4565b5060fd80546001600160601b03909216600160a01b026001600160a01b03909216919091179055565b600082815260ff6020818152604080842081516101808101835281546001600160a01b039081168252600180840154821695830195909552600283015416928101929092526003810154606083015260048101546080830152600581015460a0830152600681015460c0830152600781015460e083015260088101546101008301526009810154610120830152600a81015491939092610140850192909116908111156125e3576125e3613d9a565b60018111156125f4576125f4613d9a565b8152602001600a820160019054906101000a900460ff16600281111561261c5761261c613d9a565b600281111561262d5761262d613d9a565b9052506101008101519091506000826101600151600281111561265257612652613d9a565b1461266f5760405162461bcd60e51b815260040161091c90613a10565b81516001600160a01b03163314156126bc5760405162461bcd60e51b815260206004820152601060248201526f13d5d3915497d0d0539393d517d0925160821b604482015260640161091c565b428260e0015111156127065760405162461bcd60e51b8152602060048201526013602482015272105550d51253d397d393d517d4d51054951151606a1b604482015260640161091c565b4281116127455760405162461bcd60e51b815260206004820152600d60248201526c105550d51253d397d153911151609a1b604482015260640161091c565b61274e8461231a565b8310156127945760405162461bcd60e51b81526020600482015260146024820152731253959053125117d25394155517d05353d5539560621b604482015260640161091c565b50505050565b612794846323b872dd60e01b8585856040516024016127bb939291906138e8565b60408051601f198184030181529190526020810180516001600160e01b03166001600160e01b03199093169290921790915261301f565b6040516001600160a01b03831660248201526044810182905261282290849063a9059cbb60e01b906064016127bb565b505050565b600081815260ff6020818152604080842081516101808101835281546001600160a01b039081168252600180840154821695830195909552600283015416928101929092526003810154606083015260048101546080830152600581015460a0830152600681015460c0830152600781015460e083015260088101546101008301526009810154610120830152600a81015485948594610140850192909116908111156128d6576128d6613d9a565b60018111156128e7576128e7613d9a565b8152602001600a820160019054906101000a900460ff16600281111561290f5761290f613d9a565b600281111561292057612920613d9a565b815250509050428160e0015111612938576000612948565b428160e001516129489190613d26565b9250428161010001511161295d57600061296e565b4281610100015161296e9190613d26565b915050915091565b61013280546001600160a01b038381166001600160a01b0319831681179093556040519116919082907f8be0079c531659141344cd1fd0a4f28419497f9722a3daafe3b4186f6b6457e090600090a35050565b6000818152610168602090815260408083208151610140810190925280546001600160a01b03811683529192909190830190600160a01b900460ff166001811115612a1657612a16613d9a565b6001811115612a2757612a27613d9a565b815260018201546001600160a01b0381166020830152604090910190600160a01b900460ff166002811115612a5e57612a5e613d9a565b6002811115612a6f57612a6f613d9a565b815260028201546001600160a01b0381166020830152604090910190600160a01b900460ff166001811115612aa657612aa6613d9a565b6001811115612ab757612ab7613d9a565b81526003820154602082015260048201546040820152600582015460608201526006909101546080909101529050600081606001516002811115612afd57612afd613d9a565b14612b1a5760405162461bcd60e51b815260040161091c90613a3c565b80516001600160a01b0316331415612b675760405162461bcd60e51b815260206004820152601060248201526f4f574e45525f43414e4e4f545f42555960801b604482015260640161091c565b5050565b600260c9541415612b8e5760405162461bcd60e51b815260040161091c90613ada565b600260c95560008181526101686020526040902060018082018054600160a11b6001600160a81b031990911660ff60a01b193316171790556101658054909101905560008154600160a01b900460ff166001811115612bef57612bef613d9a565b14612c6a5760028101546003820154600480840154604051637921219560e11b81526001600160a01b039094169363f242432a93612c33933093339390910161390c565b600060405180830381600087803b158015612c4d57600080fd5b505af1158015612c61573d6000803e3d6000fd5b50505050612cd6565b60028101546003820154604051632142170760e11b81526001600160a01b03909216916342842e0e91612ca391309133916004016138e8565b600060405180830381600087803b158015612cbd57600080fd5b505af1158015612cd1573d6000803e3d6000fd5b505050505b60028101548154600383015460058401546040516001600160a01b038086169594169333937f56b2a9b1ac94b28ddb26557831a4b6a6856e8393f07c912fea3b4b3226b28e7293612d33938a93600160a01b900460ff1690613be2565b60405180910390a45050600160c955565b600087815260ff6020526040812090612d5d8642613ccd565b90506000612d6b8683613ccd565b6002840180546001600160a01b038e166001600160a01b031991821617909155600385018b905560078501849055600885018290558454163317845560058401869055600a84018054919250859160ff191660018381811115612dd057612dd0613d9a565b021790555060048301889055600a8301805461ff00191690556040518a906001600160a01b038d169033907f199f73ece82f19f692dcb7db8f91f2527bd3158ffae28e226d7ef02df704353490612e32908e908e908c908a908a908e90613c4c565b60405180910390a45050505050505050505050565b6001600160a01b03163b151590565b600054610100900460ff16612e7d5760405162461bcd60e51b815260040161091c90613a67565b610b126130f1565b60fe546001600160a01b03908116908216811415612ee15760405162461bcd60e51b8152602060048201526019602482015278115c9c9bdc8e88185b1c9958591e481c9958d95a5c1a595b9d603a1b604482015260640161091c565b5060fe80546001600160a01b0319166001600160a01b0392909216919091179055565b6000868152610168602052604081208054336001600160a01b03199182161782556002820180549091166001600160a01b038b1617905560038101879055600481018690556005810185905560018101805491929160ff60a01b1916600160a01b83021790555080548390829060ff60a01b1916600160a01b836001811115612f8f57612f8f613d9a565b021790555060028101805483919060ff60a01b1916600160a01b836001811115612fbb57612fbb613d9a565b021790555042600682015560405187906001600160a01b038a169033907f9d1dabeeddd19bb4a452fec325878c591ae8672c5fa5eecec875ba5aebdfdc4d9061300d908b908b908b908b908b90613c0f565b60405180910390a45050505050505050565b6000613074826040518060400160405280602081526020017f5361666545524332303a206c6f772d6c6576656c2063616c6c206661696c6564815250856001600160a01b03166131219092919063ffffffff16565b8051909150156128225780806020019051810190613092919061376b565b6128225760405162461bcd60e51b815260206004820152602a60248201527f5361666545524332303a204552433230206f7065726174696f6e20646964206e6044820152691bdd081cdd58d8d9595960b21b606482015260840161091c565b600054610100900460ff166131185760405162461bcd60e51b815260040161091c90613a67565b610b1233612976565b6060613130848460008561313a565b90505b9392505050565b60608247101561319b5760405162461bcd60e51b815260206004820152602660248201527f416464726573733a20696e73756666696369656e742062616c616e636520666f6044820152651c8818d85b1b60d21b606482015260840161091c565b6131a485612e47565b6131f05760405162461bcd60e51b815260206004820152601d60248201527f416464726573733a2063616c6c20746f206e6f6e2d636f6e7472616374000000604482015260640161091c565b600080866001600160a01b0316858760405161320c91906138cc565b60006040518083038185875af1925050503d8060008114613249576040519150601f19603f3d011682016040523d82523d6000602084013e61324e565b606091505b509150915061138282828660608315613268575081613133565b8251156132785782518084602001fd5b8160405162461bcd60e51b815260040161091c91906139b1565b6040805161014081018252600080825260208201819052918101829052606081018290526080810182905260a0810182905260c0810182905260e08101829052610100810182905261012081019190915290565b60405180610180016040528060006001600160a01b0316815260200160006001600160a01b0316815260200160006001600160a01b03168152602001600081526020016000815260200160008152602001600081526020016000815260200160008152602001600081526020016000600181111561336657613366613d9a565b81526020016000905290565b600082601f83011261338357600080fd5b813560206001600160401b0382111561339e5761339e613dc6565b8160051b6133ad828201613c9d565b8381528281019086840183880185018910156133c857600080fd5b600093505b858410156113805780358352600193909301929184019184016133cd565b600082601f8301126133fc57600080fd5b81356001600160401b0381111561341557613415613dc6565b613428601f8201601f1916602001613c9d565b81815284602083860101111561343d57600080fd5b816020850160208301376000918101602001919091529392505050565b80356001600160601b038116811461347157600080fd5b919050565b60006020828403121561348857600080fd5b813561313381613dec565b6000602082840312156134a557600080fd5b815161313381613dec565b600080600080600060a086880312156134c857600080fd5b85356134d381613dec565b945060208601356134e381613dec565b935060408601356134f381613dec565b92506135016060870161345a565b915061350f6080870161345a565b90509295509295909350565b600080600080600060a0868803121561353357600080fd5b853561353e81613dec565b9450602086013561354e81613dec565b935060408601356001600160401b038082111561356a57600080fd5b61357689838a01613372565b9450606088013591508082111561358c57600080fd5b61359889838a01613372565b935060808801359150808211156135ae57600080fd5b506135bb888289016133eb565b9150509295509295909350565b600080600080608085870312156135de57600080fd5b84356135e981613dec565b935060208501356135f981613dec565b92506040850135915060608501356001600160401b0381111561361b57600080fd5b613627878288016133eb565b91505092959194509250565b600080600080600060a0868803121561364b57600080fd5b853561365681613dec565b9450602086013561366681613dec565b9350604086013592506060860135915060808601356001600160401b0381111561368f57600080fd5b6135bb888289016133eb565b60008060008060008060c087890312156136b457600080fd5b86356136bf81613dec565b955060208701359450604087013593506060870135925060808701356136e481613e01565b915060a08701356136f481613e01565b809150509295509295509295565b600080600080600080600060e0888a03121561371d57600080fd5b873561372881613dec565b96506020880135955060408801359450606088013593506080880135925060a0880135915060c088013561375b81613e01565b8091505092959891949750929550565b60006020828403121561377d57600080fd5b8151801515811461313357600080fd5b60006020828403121561379f57600080fd5b81356001600160e01b03198116811461313357600080fd5b6000602082840312156137c957600080fd5b5035919050565b600080604083850312156137e357600080fd5b50508035926020909101359150565b60006020828403121561380457600080fd5b6131338261345a565b6001600160a01b03169052565b61382381613ddc565b9052565b6003811061382357613823613d9a565b61384282825161380d565b6020810151613854602084018261381a565b506040810151613867604084018261380d565b50606081015161387a6060840182613827565b50608081015161388d608084018261380d565b5060a08101516138a060a084018261381a565b5060c0818101519083015260e08082015190830152610100808201519083015261012090810151910152565b600082516138de818460208701613d3d565b9190910192915050565b6001600160a01b039384168152919092166020820152604081019190915260600190565b6001600160a01b03858116825284166020820152604081018390526060810182905260a0608082018190526003908201526203078360ec1b60c0820152600060e08201612310565b6020808252825182820181905260009190848201906040850190845b8181101561399757613983838551613837565b928401926101409290920191600101613970565b50909695505050505050565b602081016106388284613827565b60208152600082518060208401526139d0816040850160208701613d3d565b601f01601f19169190910160400192915050565b602080825260129082015271115c9c9bdc8e88185b1c9958591e481cd95d60721b604082015260600190565b602080825260129082015271105550d51253d397d393d517d31254d5115160721b604082015260600190565b60208082526011908201527013505492d15517d393d517d31254d51151607a1b604082015260600190565b6020808252602b908201527f496e697469616c697a61626c653a20636f6e7472616374206973206e6f74206960408201526a6e697469616c697a696e6760a81b606082015260800190565b6020808252600e908201526d1253959053125117d05353d5539560921b604082015260600190565b6020808252601f908201527f5265656e7472616e637947756172643a207265656e7472616e742063616c6c00604082015260600190565b600061018082019050613b2582845161380d565b6020830151613b37602084018261380d565b506040830151613b4a604084018261380d565b50606083015160608301526080830151608083015260a083015160a083015260c083015160c083015260e083015160e083015261010080840151818401525061012080840151818401525061014080840151613ba88285018261381a565b505061016080840151613bbd82850182613827565b505092915050565b61014081016106388284613837565b918252602082015260400190565b848152602081018490526040810183905260808101613c0083613ddc565b82606083015295945050505050565b858152602081018590526040810184905260a08101613c2d84613ddc565b836060830152613c3c83613ddc565b8260808301529695505050505050565b600060c082019050878252866020830152856040830152846060830152836080830152613c7883613ddc565b8260a0830152979650505050505050565b6001600160601b0391909116815260200190565b604051601f8201601f191681016001600160401b0381118282101715613cc557613cc5613dc6565b604052919050565b60008219821115613ce057613ce0613d84565b500190565b600082613d0257634e487b7160e01b600052601260045260246000fd5b500490565b6000816000190483118215151615613d2157613d21613d84565b500290565b600082821015613d3857613d38613d84565b500390565b60005b83811015613d58578181015183820152602001613d40565b838111156127945750506000910152565b6000600019821415613d7d57613d7d613d84565b5060010190565b634e487b7160e01b600052601160045260246000fd5b634e487b7160e01b600052602160045260246000fd5b634e487b7160e01b600052603260045260246000fd5b634e487b7160e01b600052604160045260246000fd5b60028110611c9157611c91613d9a565b6001600160a01b0381168114611c9157600080fd5b60028110611c9157600080fdfed31c57ccb8973d46b86c5908906595e79b95be6576719f38633833500aeb0729a164736f6c6343000806000a",
  "linkReferences": {},
  "deployedLinkReferences": {}
}