{
  "_format": "hh-sol-artifact-1",
  "contractName": "RC3_Mall",
  "sourceName": "contracts/RC3_Mall.sol",
  "abi": [
    {
      "inputs": [
        {
          "internalType": "address",
          "name": "_rcdy",
          "type": "address"
        },
        {
          "internalType": "address payable",
          "name": "_feeReceipient",
          "type": "address"
        },
        {
          "internalType": "uint96",
          "name": "_feeRCDY",
          "type": "uint96"
        },
        {
          "internalType": "uint96",
          "name": "_ethFee",
          "type": "uint96"
        }
      ],
      "stateMutability": "nonpayable",
      "type": "constructor"
    },
    {
      "anonymous": false,
      "inputs": [
        {
          "indexed": true,
          "internalType": "address",
          "name": "caller",
          "type": "address"
        },
        {
          "indexed": true,
          "internalType": "address",
          "name": "nft",
          "type": "address"
        },
        {
          "indexed": true,
          "internalType": "uint256",
          "name": "auctionId",
          "type": "uint256"
        },
        {
          "indexed": false,
          "internalType": "uint256",
          "name": "tokenID",
          "type": "uint256"
        }
      ],
      "name": "AuctionCancelled",
      "type": "event"
    },
    {
      "anonymous": false,
      "inputs": [
        {
          "indexed": true,
          "internalType": "address",
          "name": "caller",
          "type": "address"
        },
        {
          "indexed": false,
          "internalType": "address",
          "name": "seller",
          "type": "address"
        },
        {
          "indexed": false,
          "internalType": "address",
          "name": "highestBidder",
          "type": "address"
        },
        {
          "indexed": true,
          "internalType": "address",
          "name": "nft",
          "type": "address"
        },
        {
          "indexed": true,
          "internalType": "uint256",
          "name": "auctionId",
          "type": "uint256"
        },
        {
          "indexed": false,
          "internalType": "uint256",
          "name": "tokenId",
          "type": "uint256"
        },
        {
          "indexed": false,
          "internalType": "uint256",
          "name": "amount",
          "type": "uint256"
        },
        {
          "indexed": false,
          "internalType": "uint256",
          "name": "winPrice",
          "type": "uint256"
        }
      ],
      "name": "AuctionResulted",
      "type": "event"
    },
    {
      "anonymous": false,
      "inputs": [
        {
          "indexed": true,
          "internalType": "address",
          "name": "bidder",
          "type": "address"
        },
        {
          "indexed": true,
          "internalType": "address",
          "name": "nft",
          "type": "address"
        },
        {
          "indexed": true,
          "internalType": "uint256",
          "name": "auctionId",
          "type": "uint256"
        },
        {
          "indexed": false,
          "internalType": "uint256",
          "name": "_tokenId",
          "type": "uint256"
        },
        {
          "indexed": false,
          "internalType": "uint256",
          "name": "newEndPeriod",
          "type": "uint256"
        }
      ],
      "name": "AuctionUpdated",
      "type": "event"
    },
    {
      "anonymous": false,
      "inputs": [
        {
          "indexed": true,
          "internalType": "address",
          "name": "creator",
          "type": "address"
        },
        {
          "indexed": true,
          "internalType": "address",
          "name": "nft",
          "type": "address"
        },
        {
          "indexed": true,
          "internalType": "uint256",
          "name": "auctionId",
          "type": "uint256"
        },
        {
          "indexed": false,
          "internalType": "uint256",
          "name": "tokenId",
          "type": "uint256"
        },
        {
          "indexed": false,
          "internalType": "uint256",
          "name": "newEndTime",
          "type": "uint256"
        }
      ],
      "name": "EndTimeUpdated",
      "type": "event"
    },
    {
      "anonymous": false,
      "inputs": [
        {
          "indexed": true,
          "internalType": "address",
          "name": "sender",
          "type": "address"
        },
        {
          "indexed": false,
          "internalType": "address",
          "name": "feeReceipient",
          "type": "address"
        }
      ],
      "name": "FeeRecipientSet",
      "type": "event"
    },
    {
      "anonymous": false,
      "inputs": [
        {
          "indexed": true,
          "internalType": "address",
          "name": "sender",
          "type": "address"
        },
        {
          "indexed": false,
          "internalType": "uint256",
          "name": "feePercentage",
          "type": "uint256"
        },
        {
          "indexed": false,
          "internalType": "enum RC3_Mall.Asset",
          "name": "asset",
          "type": "uint8"
        }
      ],
      "name": "FeeSet",
      "type": "event"
    },
    {
      "anonymous": false,
      "inputs": [
        {
          "indexed": true,
          "internalType": "address",
          "name": "caller",
          "type": "address"
        },
        {
          "indexed": true,
          "internalType": "address",
          "name": "nifty",
          "type": "address"
        },
        {
          "indexed": false,
          "internalType": "uint256",
          "name": "marketId",
          "type": "uint256"
        },
        {
          "indexed": false,
          "internalType": "uint256",
          "name": "tokenId",
          "type": "uint256"
        }
      ],
      "name": "MarketCancelled",
      "type": "event"
    },
    {
      "anonymous": false,
      "inputs": [
        {
          "indexed": true,
          "internalType": "address",
          "name": "caller",
          "type": "address"
        },
        {
          "indexed": true,
          "internalType": "address",
          "name": "nifty",
          "type": "address"
        },
        {
          "indexed": true,
          "internalType": "uint256",
          "name": "marketId",
          "type": "uint256"
        },
        {
          "indexed": false,
          "internalType": "uint256",
          "name": "tokenId",
          "type": "uint256"
        },
        {
          "indexed": false,
          "internalType": "uint256",
          "name": "price",
          "type": "uint256"
        },
        {
          "indexed": false,
          "internalType": "enum RC3_Mall.Asset",
          "name": "asset",
          "type": "uint8"
        }
      ],
      "name": "MarketSale",
      "type": "event"
    },
    {
      "anonymous": false,
      "inputs": [
        {
          "indexed": true,
          "internalType": "address",
          "name": "seller",
          "type": "address"
        },
        {
          "indexed": true,
          "internalType": "address",
          "name": "nft",
          "type": "address"
        },
        {
          "indexed": true,
          "internalType": "uint256",
          "name": "auctionId",
          "type": "uint256"
        },
        {
          "indexed": false,
          "internalType": "uint256",
          "name": "tokenId",
          "type": "uint256"
        },
        {
          "indexed": false,
          "internalType": "uint256",
          "name": "amount",
          "type": "uint256"
        },
        {
          "indexed": false,
          "internalType": "uint256",
          "name": "floorPrice",
          "type": "uint256"
        },
        {
          "indexed": false,
          "internalType": "uint256",
          "name": "startPeriod",
          "type": "uint256"
        },
        {
          "indexed": false,
          "internalType": "uint256",
          "name": "endPeriod",
          "type": "uint256"
        },
        {
          "indexed": false,
          "internalType": "enum RC3_Auction.TokenType",
          "name": "tokenType",
          "type": "uint8"
        }
      ],
      "name": "NewAuction",
      "type": "event"
    },
    {
      "anonymous": false,
      "inputs": [
        {
          "indexed": true,
          "internalType": "address",
          "name": "bidder",
          "type": "address"
        },
        {
          "indexed": true,
          "internalType": "address",
          "name": "nft",
          "type": "address"
        },
        {
          "indexed": true,
          "internalType": "uint256",
          "name": "auctionId",
          "type": "uint256"
        },
        {
          "indexed": false,
          "internalType": "uint256",
          "name": "tokenId",
          "type": "uint256"
        },
        {
          "indexed": false,
          "internalType": "uint256",
          "name": "price",
          "type": "uint256"
        }
      ],
      "name": "NewBid",
      "type": "event"
    },
    {
      "anonymous": false,
      "inputs": [
        {
          "indexed": true,
          "internalType": "address",
          "name": "caller",
          "type": "address"
        },
        {
          "indexed": true,
          "internalType": "address",
          "name": "nifty",
          "type": "address"
        },
        {
          "indexed": true,
          "internalType": "uint256",
          "name": "marketId",
          "type": "uint256"
        },
        {
          "indexed": false,
          "internalType": "uint256",
          "name": "tokenId",
          "type": "uint256"
        },
        {
          "indexed": false,
          "internalType": "uint256",
          "name": "amount",
          "type": "uint256"
        },
        {
          "indexed": false,
          "internalType": "uint256",
          "name": "price",
          "type": "uint256"
        },
        {
          "indexed": false,
          "internalType": "enum RC3_Auction.TokenType",
          "name": "tokenType",
          "type": "uint8"
        },
        {
          "indexed": false,
          "internalType": "enum RC3_Mall.Asset",
          "name": "asset",
          "type": "uint8"
        }
      ],
      "name": "NewMarket",
      "type": "event"
    },
    {
      "anonymous": false,
      "inputs": [
        {
          "indexed": true,
          "internalType": "address",
          "name": "previousOwner",
          "type": "address"
        },
        {
          "indexed": true,
          "internalType": "address",
          "name": "newOwner",
          "type": "address"
        }
      ],
      "name": "OwnershipTransferred",
      "type": "event"
    },
    {
      "inputs": [],
      "name": "auctionId",
      "outputs": [
        {
          "internalType": "uint256",
          "name": "_value",
          "type": "uint256"
        }
      ],
      "stateMutability": "view",
      "type": "function"
    },
    {
      "inputs": [],
      "name": "auctionsClosed",
      "outputs": [
        {
          "internalType": "uint256",
          "name": "_value",
          "type": "uint256"
        }
      ],
      "stateMutability": "view",
      "type": "function"
    },
    {
      "inputs": [
        {
          "internalType": "uint256",
          "name": "_auctionId",
          "type": "uint256"
        },
        {
          "internalType": "uint256",
          "name": "_bidAmount",
          "type": "uint256"
        }
      ],
      "name": "bid",
      "outputs": [
        {
          "internalType": "bool",
          "name": "bidded",
          "type": "bool"
        }
      ],
      "stateMutability": "nonpayable",
      "type": "function"
    },
    {
      "inputs": [
        {
          "internalType": "uint256",
          "name": "_auctionId",
          "type": "uint256"
        }
      ],
      "name": "bidTimeRemaining",
      "outputs": [
        {
          "internalType": "uint256",
          "name": "startsIn",
          "type": "uint256"
        },
        {
          "internalType": "uint256",
          "name": "endsIn",
          "type": "uint256"
        }
      ],
      "stateMutability": "view",
      "type": "function"
    },
    {
      "inputs": [
        {
          "internalType": "uint256",
          "name": "_marketId",
          "type": "uint256"
        }
      ],
      "name": "buyWithETH",
      "outputs": [
        {
          "internalType": "bool",
          "name": "bought",
          "type": "bool"
        }
      ],
      "stateMutability": "payable",
      "type": "function"
    },
    {
      "inputs": [
        {
          "internalType": "uint256",
          "name": "_marketId",
          "type": "uint256"
        }
      ],
      "name": "buyWithRCDY",
      "outputs": [
        {
          "internalType": "bool",
          "name": "bought",
          "type": "bool"
        }
      ],
      "stateMutability": "nonpayable",
      "type": "function"
    },
    {
      "inputs": [
        {
          "internalType": "uint256",
          "name": "_auctionId",
          "type": "uint256"
        }
      ],
      "name": "closeBid",
      "outputs": [
        {
          "internalType": "enum RC3_Auction.State",
          "name": "status",
          "type": "uint8"
        }
      ],
      "stateMutability": "nonpayable",
      "type": "function"
    },
    {
      "inputs": [
        {
          "internalType": "uint256",
          "name": "_marketId",
          "type": "uint256"
        }
      ],
      "name": "delistMarket",
      "outputs": [
        {
          "internalType": "enum RC3_Auction.State",
          "name": "status",
          "type": "uint8"
        }
      ],
      "stateMutability": "nonpayable",
      "type": "function"
    },
    {
      "inputs": [],
      "name": "ethFee",
      "outputs": [
        {
          "internalType": "uint96",
          "name": "",
          "type": "uint96"
        }
      ],
      "stateMutability": "view",
      "type": "function"
    },
    {
      "inputs": [],
      "name": "feePercentage",
      "outputs": [
        {
          "internalType": "uint96",
          "name": "",
          "type": "uint96"
        }
      ],
      "stateMutability": "view",
      "type": "function"
    },
    {
      "inputs": [],
      "name": "feeRecipient",
      "outputs": [
        {
          "internalType": "address payable",
          "name": "",
          "type": "address"
        }
      ],
      "stateMutability": "view",
      "type": "function"
    },
    {
      "inputs": [
        {
          "internalType": "uint256",
          "name": "_auctionId",
          "type": "uint256"
        }
      ],
      "name": "getAuction",
      "outputs": [
        {
          "components": [
            {
              "internalType": "address payable",
              "name": "seller",
              "type": "address"
            },
            {
              "internalType": "address payable",
              "name": "highestBidder",
              "type": "address"
            },
            {
              "internalType": "address",
              "name": "nifty",
              "type": "address"
            },
            {
              "internalType": "uint256",
              "name": "tokenId",
              "type": "uint256"
            },
            {
              "internalType": "uint256",
              "name": "tokenAmount",
              "type": "uint256"
            },
            {
              "internalType": "uint256",
              "name": "initialBidAmount",
              "type": "uint256"
            },
            {
              "internalType": "uint256",
              "name": "highestBidAmount",
              "type": "uint256"
            },
            {
              "internalType": "uint256",
              "name": "startPeriod",
              "type": "uint256"
            },
            {
              "internalType": "uint256",
              "name": "endPeriod",
              "type": "uint256"
            },
            {
              "internalType": "uint256",
              "name": "bidCount",
              "type": "uint256"
            },
            {
              "internalType": "enum RC3_Auction.TokenType",
              "name": "tokenType",
              "type": "uint8"
            },
            {
              "internalType": "enum RC3_Auction.State",
              "name": "state",
              "type": "uint8"
            }
          ],
          "internalType": "struct RC3_Auction.Auction",
          "name": "",
          "type": "tuple"
        }
      ],
      "stateMutability": "view",
      "type": "function"
    },
    {
      "inputs": [],
      "name": "getListedMarkets",
      "outputs": [
        {
          "components": [
            {
              "internalType": "address payable",
              "name": "seller",
              "type": "address"
            },
            {
              "internalType": "address payable",
              "name": "buyer",
              "type": "address"
            },
            {
              "internalType": "address",
              "name": "nifty",
              "type": "address"
            },
            {
              "internalType": "uint256",
              "name": "tokenId",
              "type": "uint256"
            },
            {
              "internalType": "uint256",
              "name": "tokenAmount",
              "type": "uint256"
            },
            {
              "internalType": "uint256",
              "name": "price",
              "type": "uint256"
            },
            {
              "internalType": "enum RC3_Auction.TokenType",
              "name": "tokenType",
              "type": "uint8"
            },
            {
              "internalType": "enum RC3_Auction.State",
              "name": "state",
              "type": "uint8"
            },
            {
              "internalType": "enum RC3_Mall.Asset",
              "name": "asset",
              "type": "uint8"
            }
          ],
          "internalType": "struct RC3_Mall.Market[]",
          "name": "marketItems",
          "type": "tuple[]"
        }
      ],
      "stateMutability": "view",
      "type": "function"
    },
    {
      "inputs": [
        {
          "internalType": "uint256",
          "name": "_marketId",
          "type": "uint256"
        }
      ],
      "name": "getMarket",
      "outputs": [
        {
          "components": [
            {
              "internalType": "address payable",
              "name": "seller",
              "type": "address"
            },
            {
              "internalType": "address payable",
              "name": "buyer",
              "type": "address"
            },
            {
              "internalType": "address",
              "name": "nifty",
              "type": "address"
            },
            {
              "internalType": "uint256",
              "name": "tokenId",
              "type": "uint256"
            },
            {
              "internalType": "uint256",
              "name": "tokenAmount",
              "type": "uint256"
            },
            {
              "internalType": "uint256",
              "name": "price",
              "type": "uint256"
            },
            {
              "internalType": "enum RC3_Auction.TokenType",
              "name": "tokenType",
              "type": "uint8"
            },
            {
              "internalType": "enum RC3_Auction.State",
              "name": "state",
              "type": "uint8"
            },
            {
              "internalType": "enum RC3_Mall.Asset",
              "name": "asset",
              "type": "uint8"
            }
          ],
          "internalType": "struct RC3_Mall.Market",
          "name": "",
          "type": "tuple"
        }
      ],
      "stateMutability": "view",
      "type": "function"
    },
    {
      "inputs": [
        {
          "internalType": "address",
          "name": "nifty",
          "type": "address"
        },
        {
          "internalType": "uint256",
          "name": "_tokenId",
          "type": "uint256"
        },
        {
          "internalType": "uint256",
          "name": "amount",
          "type": "uint256"
        },
        {
          "internalType": "uint256",
          "name": "_startsIn",
          "type": "uint256"
        },
        {
          "internalType": "uint256",
          "name": "_lastsFor",
          "type": "uint256"
        },
        {
          "internalType": "uint256",
          "name": "_initialBidAmount",
          "type": "uint256"
        },
        {
          "internalType": "enum RC3_Auction.TokenType",
          "name": "_type",
          "type": "uint8"
        }
      ],
      "name": "listAuction",
      "outputs": [
        {
          "internalType": "uint256",
          "name": "auctionId_",
          "type": "uint256"
        }
      ],
      "stateMutability": "nonpayable",
      "type": "function"
    },
    {
      "inputs": [
        {
          "internalType": "address",
          "name": "nifty",
          "type": "address"
        },
        {
          "internalType": "uint256",
          "name": "_tokenId",
          "type": "uint256"
        },
        {
          "internalType": "uint256",
          "name": "amount",
          "type": "uint256"
        },
        {
          "internalType": "uint256",
          "name": "_price",
          "type": "uint256"
        },
        {
          "internalType": "enum RC3_Auction.TokenType",
          "name": "_type",
          "type": "uint8"
        },
        {
          "internalType": "enum RC3_Mall.Asset",
          "name": "_asset",
          "type": "uint8"
        }
      ],
      "name": "listMarket",
      "outputs": [
        {
          "internalType": "uint256",
          "name": "marketId_",
          "type": "uint256"
        }
      ],
      "stateMutability": "nonpayable",
      "type": "function"
    },
    {
      "inputs": [],
      "name": "marketId",
      "outputs": [
        {
          "internalType": "uint256",
          "name": "_value",
          "type": "uint256"
        }
      ],
      "stateMutability": "view",
      "type": "function"
    },
    {
      "inputs": [],
      "name": "marketsDelisted",
      "outputs": [
        {
          "internalType": "uint256",
          "name": "_value",
          "type": "uint256"
        }
      ],
      "stateMutability": "view",
      "type": "function"
    },
    {
      "inputs": [],
      "name": "marketsSold",
      "outputs": [
        {
          "internalType": "uint256",
          "name": "_value",
          "type": "uint256"
        }
      ],
      "stateMutability": "view",
      "type": "function"
    },
    {
      "inputs": [],
      "name": "myTradedNFTs",
      "outputs": [
        {
          "components": [
            {
              "internalType": "address payable",
              "name": "seller",
              "type": "address"
            },
            {
              "internalType": "address payable",
              "name": "buyer",
              "type": "address"
            },
            {
              "internalType": "address",
              "name": "nifty",
              "type": "address"
            },
            {
              "internalType": "uint256",
              "name": "tokenId",
              "type": "uint256"
            },
            {
              "internalType": "uint256",
              "name": "tokenAmount",
              "type": "uint256"
            },
            {
              "internalType": "uint256",
              "name": "price",
              "type": "uint256"
            },
            {
              "internalType": "enum RC3_Auction.TokenType",
              "name": "tokenType",
              "type": "uint8"
            },
            {
              "internalType": "enum RC3_Auction.State",
              "name": "state",
              "type": "uint8"
            },
            {
              "internalType": "enum RC3_Mall.Asset",
              "name": "asset",
              "type": "uint8"
            }
          ],
          "internalType": "struct RC3_Mall.Market[]",
          "name": "myNfts",
          "type": "tuple[]"
        }
      ],
      "stateMutability": "view",
      "type": "function"
    },
    {
      "inputs": [
        {
          "internalType": "uint256",
          "name": "_auctionId",
          "type": "uint256"
        }
      ],
      "name": "nextBidAmount",
      "outputs": [
        {
          "internalType": "uint256",
          "name": "amount",
          "type": "uint256"
        }
      ],
      "stateMutability": "view",
      "type": "function"
    },
    {
      "inputs": [
        {
          "internalType": "address",
          "name": "",
          "type": "address"
        },
        {
          "internalType": "address",
          "name": "",
          "type": "address"
        },
        {
          "internalType": "uint256[]",
          "name": "",
          "type": "uint256[]"
        },
        {
          "internalType": "uint256[]",
          "name": "",
          "type": "uint256[]"
        },
        {
          "internalType": "bytes",
          "name": "",
          "type": "bytes"
        }
      ],
      "name": "onERC1155BatchReceived",
      "outputs": [
        {
          "internalType": "bytes4",
          "name": "",
          "type": "bytes4"
        }
      ],
      "stateMutability": "nonpayable",
      "type": "function"
    },
    {
      "inputs": [
        {
          "internalType": "address",
          "name": "",
          "type": "address"
        },
        {
          "internalType": "address",
          "name": "",
          "type": "address"
        },
        {
          "internalType": "uint256",
          "name": "",
          "type": "uint256"
        },
        {
          "internalType": "uint256",
          "name": "",
          "type": "uint256"
        },
        {
          "internalType": "bytes",
          "name": "",
          "type": "bytes"
        }
      ],
      "name": "onERC1155Received",
      "outputs": [
        {
          "internalType": "bytes4",
          "name": "",
          "type": "bytes4"
        }
      ],
      "stateMutability": "nonpayable",
      "type": "function"
    },
    {
      "inputs": [
        {
          "internalType": "address",
          "name": "",
          "type": "address"
        },
        {
          "internalType": "address",
          "name": "",
          "type": "address"
        },
        {
          "internalType": "uint256",
          "name": "",
          "type": "uint256"
        },
        {
          "internalType": "bytes",
          "name": "",
          "type": "bytes"
        }
      ],
      "name": "onERC721Received",
      "outputs": [
        {
          "internalType": "bytes4",
          "name": "",
          "type": "bytes4"
        }
      ],
      "stateMutability": "nonpayable",
      "type": "function"
    },
    {
      "inputs": [],
      "name": "owner",
      "outputs": [
        {
          "internalType": "address",
          "name": "",
          "type": "address"
        }
      ],
      "stateMutability": "view",
      "type": "function"
    },
    {
      "inputs": [],
      "name": "renounceOwnership",
      "outputs": [],
      "stateMutability": "nonpayable",
      "type": "function"
    },
    {
      "inputs": [
        {
          "internalType": "uint96",
          "name": "_newFee",
          "type": "uint96"
        }
      ],
      "name": "setFeeETH",
      "outputs": [],
      "stateMutability": "nonpayable",
      "type": "function"
    },
    {
      "inputs": [
        {
          "internalType": "uint96",
          "name": "_newFee",
          "type": "uint96"
        }
      ],
      "name": "setFeeRCDY",
      "outputs": [],
      "stateMutability": "nonpayable",
      "type": "function"
    },
    {
      "inputs": [
        {
          "internalType": "address payable",
          "name": "_newRecipient",
          "type": "address"
        }
      ],
      "name": "setFeeRecipient",
      "outputs": [],
      "stateMutability": "nonpayable",
      "type": "function"
    },
    {
      "inputs": [
        {
          "internalType": "bytes4",
          "name": "interfaceId",
          "type": "bytes4"
        }
      ],
      "name": "supportsInterface",
      "outputs": [
        {
          "internalType": "bool",
          "name": "",
          "type": "bool"
        }
      ],
      "stateMutability": "view",
      "type": "function"
    },
    {
      "inputs": [
        {
          "internalType": "address",
          "name": "newOwner",
          "type": "address"
        }
      ],
      "name": "transferOwnership",
      "outputs": [],
      "stateMutability": "nonpayable",
      "type": "function"
    },
    {
      "inputs": [
        {
          "internalType": "uint256",
          "name": "_auctionId",
          "type": "uint256"
        },
        {
          "internalType": "uint256",
          "name": "_endsIn",
          "type": "uint256"
        }
      ],
      "name": "updateEndTime",
      "outputs": [
        {
          "internalType": "bool",
          "name": "updated",
          "type": "bool"
        }
      ],
      "stateMutability": "nonpayable",
      "type": "function"
    }
  ],
  "bytecode": "0x60a06040523480156200001157600080fd5b5060405162003e6f38038062003e6f8339810160408190526200003491620002fe565b6001600055606084901b6001600160601b03191660805262000056336200009c565b6200006183620000ee565b6200006c8262000196565b600980546001600160601b0319166001600160601b038316179055620000923362000210565b5050505062000376565b600580546001600160a01b038381166001600160a01b0319831681179093556040519116919082907f8be0079c531659141344cd1fd0a4f28419497f9722a3daafe3b4186f6b6457e090600090a35050565b6003546001600160a01b036c010000000000000000000000009091048116908216811415620001645760405162461bcd60e51b815260206004820152601960248201527f4572726f723a20616c72656164792072656365697069656e740000000000000060448201526064015b60405180910390fd5b50600380546001600160a01b039092166c01000000000000000000000000026001600160601b03909216919091179055565b6003546001600160601b03908116908216811415620001ed5760405162461bcd60e51b8152602060048201526012602482015271115c9c9bdc8e88185b1c9958591e481cd95d60721b60448201526064016200015b565b50600380546001600160601b0319166001600160601b0392909216919091179055565b6005546001600160a01b031633146200026c5760405162461bcd60e51b815260206004820181905260248201527f4f776e61626c653a2063616c6c6572206973206e6f7420746865206f776e657260448201526064016200015b565b6001600160a01b038116620002d35760405162461bcd60e51b815260206004820152602660248201527f4f776e61626c653a206e6577206f776e657220697320746865207a65726f206160448201526564647265737360d01b60648201526084016200015b565b620002de816200009c565b50565b80516001600160601b0381168114620002f957600080fd5b919050565b600080600080608085870312156200031557600080fd5b8451620003228162000360565b6020860151909450620003358162000360565b92506200034560408601620002e1565b91506200035560608601620002e1565b905092959194509250565b6001600160a01b0381168114620002de57600080fd5b60805160601c613ab7620003b86000396000818161093a015281816109ef01528181611536015281816115cd01528181611f3f0152611fe00152613ab76000f3fe6080604052600436106101735760003560e01c806301ffc9a71461017857806304ad187e146101ad57806310782f8f146101cf578063150b7a02146101f457806346904840146102385780634cf1115d1461026c578063575ffe7a146102a457806357b3f9d9146102c4578063598647f8146102e65780636cc03124146103065780636ed71ede1461031d578063715018a61461033457806378bd7935146103495780638da5cb5b14610376578063932ba8c41461038b57806394dc9cf3146103a0578063a001ecdd146103b3578063ab600c59146103d3578063bc197c81146103ea578063bd4b04d414610416578063c00b6bc114610436578063c2c34cae14610456578063d846349e14610483578063db77c20b146104b1578063e44542df146104d1578063e6084a26146104f1578063e74b981b14610508578063eb44fdd314610528578063f23a6e6114610555578063f2fde38b14610581578063f6a89810146105a1578063fe7588ed146105c1575b600080fd5b34801561018457600080fd5b50610198610193366004613440565b6105e1565b60405190151581526020015b60405180910390f35b3480156101b957600080fd5b506101c2610618565b6040516101a4919061360e565b3480156101db57600080fd5b506001546101e69081565b6040519081526020016101a4565b34801561020057600080fd5b5061021f61020f36600461327b565b630a85bd0160e11b949350505050565b6040516001600160e01b031990911681526020016101a4565b34801561024457600080fd5b5060035461025f90600160601b90046001600160a01b031681565b6040516101a49190613575565b34801561027857600080fd5b5060095461028c906001600160601b031681565b6040516001600160601b0390911681526020016101a4565b3480156102b057600080fd5b506101e66102bf36600461346a565b61085b565b3480156102d057600080fd5b506102e46102df3660046134a5565b610866565b005b3480156102f257600080fd5b50610198610301366004613483565b6108dc565b34801561031257600080fd5b506002546101e69081565b34801561032957600080fd5b506006546101e69081565b34801561034057600080fd5b506102e4610bf2565b34801561035557600080fd5b5061036961036436600461346a565b610c2d565b6040516101a491906137af565b34801561038257600080fd5b5061025f610d35565b34801561039757600080fd5b506101c2610d44565b6101986103ae36600461346a565b610f8c565b3480156103bf57600080fd5b5060035461028c906001600160601b031681565b3480156103df57600080fd5b506007546101e69081565b3480156103f657600080fd5b5061021f6104053660046131ce565b63bc197c8160e01b95945050505050565b34801561042257600080fd5b506101e66104313660046133b5565b6111c3565b34801561044257600080fd5b5061019861045136600461346a565b6113d0565b34801561046257600080fd5b5061047661047136600461346a565b611680565b6040516101a4919061365d565b34801561048f57600080fd5b506104a361049e36600461346a565b6118d1565b6040516101a4929190613872565b3480156104bd57600080fd5b506102e46104cc3660046134a5565b6118e7565b3480156104dd57600080fd5b506101986104ec366004613483565b611990565b3480156104fd57600080fd5b506008546101e69081565b34801561051457600080fd5b506102e461052336600461318d565b611a75565b34801561053457600080fd5b5061054861054336600461346a565b611ae6565b6040516101a49190613863565b34801561056157600080fd5b5061021f6105703660046132e6565b63f23a6e6160e01b95945050505050565b34801561058d57600080fd5b506102e461059c36600461318d565b611bf4565b3480156105ad57600080fd5b506104766105bc36600461346a565b611c94565b3480156105cd57600080fd5b506101e66105dc36600461334e565b612236565b60006001600160e01b03198216630271189760e51b148061061257506301ffc9a760e01b6001600160e01b03198316145b92915050565b6060600061062560065490565b9050600061063260075490565b60085461063f90846139ce565b61064991906139ce565b9050600080826001600160401b0381111561066657610666613a42565b60405190808252806020026020018201604052801561069f57816020015b61068c612fce565b8152602001906001900390816106845790505b50905060005b84811015610852576000600a60006106be846001613975565b8152602081019190915260400160002060060154610100900460ff1660028111156106eb576106eb613a16565b1415610840576000600a81610701846001613975565b8152602080820192909252604090810160002081516101208101835281546001600160a01b039081168252600180840154821695830195909552600283015416928101929092526003810154606083015260048101546080830152600581015460a083015260068101549192909160c084019160ff9091169081111561078957610789613a16565b600181111561079a5761079a613a16565b81526020016006820160019054906101000a900460ff1660028111156107c2576107c2613a16565b60028111156107d3576107d3613a16565b81526020016006820160029054906101000a900460ff1660018111156107fb576107fb613a16565b600181111561080c5761080c613a16565b8152505090508083858151811061082557610825613a2c565b6020026020010181905250838061083b906139e5565b945050505b8061084a816139e5565b9150506106a5565b50949350505050565b60006106128261243f565b3361086f610d35565b6001600160a01b03161461089e5760405162461bcd60e51b8152600401610895906136c3565b60405180910390fd5b6108a781612598565b336001600160a01b0316600080516020613a8b8339815191528260016040516108d192919061391f565b60405180910390a250565b6000600260005414156109015760405162461bcd60e51b815260040161089590613778565b6002600055828261091282826125eb565b60008581526004602081905260409182902091516323b872dd60e01b81526001600160a01b037f000000000000000000000000000000000000000000000000000000000000000016916323b872dd9161097191339130918b91016135a2565b602060405180830381600087803b15801561098b57600080fd5b505af115801561099f573d6000803e3d6000fd5b505050506040513d601f19601f820116820180604052508101906109c3919061341e565b50600981015415610a7d576001810154600682015460405163a9059cbb60e01b81526001600160a01b037f000000000000000000000000000000000000000000000000000000000000000081169363a9059cbb93610a2993919092169190600401613589565b602060405180830381600087803b158015610a4357600080fd5b505af1158015610a57573d6000803e3d6000fd5b505050506040513d601f19601f82011682018060405250810190610a7b919061341e565b505b6001810180546001600160a01b0319163317905560068101859055600981018054906000610aaa836139e5565b90915550506002810154600382015460405188926001600160a01b03169133917f911d834cc781bcb7a08922b9dd1f1d175c0a0467d9705194c2e200f8ce2786bb91610af7918b90613872565b60405180910390a46000610b0a87612829565b915050610e10811015610bdf57610e10610b2682610258613975565b1115610b5657610b3881610e106139ce565b826008016000828254610b4b9190613975565b925050819055610b73565b610258826008016000828254610b6c9190613975565b9250508190555b506000610b7f88612829565b600285015460038601549193508a92506001600160a01b03169033907ff3f8c69115d9f33b41d0ae7a8f88fb8cde222311d82702dc55025079d0eca53a90610bc78642613975565b604051610bd5929190613872565b60405180910390a4505b6001945050505050600160005592915050565b33610bfb610d35565b6001600160a01b031614610c215760405162461bcd60e51b8152600401610895906136c3565b610c2b600061297b565b565b610c35613019565b60008281526004602081815260409283902083516101808101855281546001600160a01b0390811682526001808401548216948301949094526002830154169481019490945260038101546060850152918201546080840152600582015460a0840152600682015460c0840152600782015460e084015260088201546101008401526009820154610120840152600a82015461014084019160ff90911690811115610ce257610ce2613a16565b6001811115610cf357610cf3613a16565b8152602001600a820160019054906101000a900460ff166002811115610d1b57610d1b613a16565b6002811115610d2c57610d2c613a16565b90525092915050565b6005546001600160a01b031690565b60606000610d5160065490565b905060008060005b83811015610db45733600a6000610d71846001613975565b81526020810191909152604001600020600101546001600160a01b03161415610da25782610d9e816139e5565b9350505b80610dac816139e5565b915050610d59565b506000826001600160401b03811115610dcf57610dcf613a42565b604051908082528060200260200182016040528015610e0857816020015b610df5612fce565b815260200190600190039081610ded5790505b50905060005b84811015610852576000600a81610e26846001613975565b8152602080820192909252604090810160002081516101208101835281546001600160a01b039081168252600180840154821695830195909552600283015416928101929092526003810154606083015260048101546080830152600581015460a083015260068101549192909160c084019160ff90911690811115610eae57610eae613a16565b6001811115610ebf57610ebf613a16565b81526020016006820160019054906101000a900460ff166002811115610ee757610ee7613a16565b6002811115610ef857610ef8613a16565b81526020016006820160029054906101000a900460ff166001811115610f2057610f20613a16565b6001811115610f3157610f31613a16565b90525060208101519091506001600160a01b0316331415610f795780838581518110610f5f57610f5f613a2c565b60200260200101819052508380610f75906139e5565b9450505b5080610f84816139e5565b915050610e0e565b600081610f98816129cd565b6000838152600a6020908152604080832081516101208101835281546001600160a01b039081168252600180840154821695830195909552600283015416928101929092526003810154606083015260048101546080830152600581015460a083015260068101549192909160c084019160ff9091169081111561101e5761101e613a16565b600181111561102f5761102f613a16565b81526020016006820160019054906101000a900460ff16600281111561105757611057613a16565b600281111561106857611068613a16565b81526020016006820160029054906101000a900460ff16600181111561109057611090613a16565b60018111156110a1576110a1613a16565b90525060095460a08201519192506001600160601b031690600090620186a0906110cb90846139af565b6110d5919061398d565b90508260a0015134146111235760405162461bcd60e51b81526020600482015260166024820152751253959053125117d410565351539517d05353d5539560521b6044820152606401610895565b600354604051600160601b9091046001600160a01b0316906108fc8315029083906000818181858888f19350505050158015611163573d6000803e3d6000fd5b5082600001516001600160a01b03166108fc828560a0015161118591906139ce565b6040518115909202916000818181858888f193505050501580156111ad573d6000803e3d6000fd5b506111b786612b61565b50600195945050505050565b60006111d3600180546001019055565b50600154836112175760405162461bcd60e51b815260206004820152601060248201526f24a72b20a624a22fa22aa920aa24a7a760811b6044820152606401610895565b600082600181111561122b5761122b613a16565b141561132c576040516331a9108f60e11b81526004810188905288906000906001600160a01b03831690636352211e9060240160206040518083038186803b15801561127657600080fd5b505afa15801561128a573d6000803e3d6000fd5b505050506040513d601f19601f820116820180604052508101906112ae91906131b1565b604051632142170760e11b81529091506001600160a01b038316906342842e0e906112e190849030908e906004016135a2565b600060405180830381600087803b1580156112fb57600080fd5b505af115801561130f573d6000803e3d6000fd5b505050506113258a848b60018b8b8b6000612d3e565b50506113c5565b6000861161134c5760405162461bcd60e51b815260040161089590613750565b604051637921219560e11b815288906001600160a01b0382169063f242432a9061138090339030908d908d906004016135c6565b600060405180830381600087803b15801561139a57600080fd5b505af11580156113ae573d6000803e3d6000fd5b505050506113c389838a8a8a8a8a6001612d3e565b505b979650505050505050565b6000816113dc816129cd565b6000838152600a6020908152604080832081516101208101835281546001600160a01b039081168252600180840154821695830195909552600283015416928101929092526003810154606083015260048101546080830152600581015460a083015260068101549192909160c084019160ff9091169081111561146257611462613a16565b600181111561147357611473613a16565b81526020016006820160019054906101000a900460ff16600281111561149b5761149b613a16565b60028111156114ac576114ac613a16565b81526020016006820160029054906101000a900460ff1660018111156114d4576114d4613a16565b60018111156114e5576114e5613a16565b90525060035460a08201519192506001600160601b031690600090620186a09061150f90846139af565b611519919061398d565b6003546040516323b872dd60e01b81529192506001600160a01b037f00000000000000000000000000000000000000000000000000000000000000008116926323b872dd92611578923392600160601b909204169086906004016135a2565b602060405180830381600087803b15801561159257600080fd5b505af11580156115a6573d6000803e3d6000fd5b505050506040513d601f19601f820116820180604052508101906115ca919061341e565b507f00000000000000000000000000000000000000000000000000000000000000006001600160a01b03166323b872dd338560000151848760a0015161161091906139ce565b6040518463ffffffff1660e01b815260040161162e939291906135a2565b602060405180830381600087803b15801561164857600080fd5b505af115801561165c573d6000803e3d6000fd5b505050506040513d601f19601f820116820180604052508101906111ad919061341e565b6000600260005414156116a55760405162461bcd60e51b815260040161089590613778565b60026000818155838152600a602052604090206006810154909161010090910460ff16908111156116d8576116d8613a16565b156116f55760405162461bcd60e51b8152600401610895906136f8565b80546001600160a01b031633146117445760405162461bcd60e51b81526020600482015260136024820152722aa720aaaa2427a924ad22a22fa1a0a62622a960691b6044820152606401610895565b6000600682015460ff16600181111561175f5761175f613a16565b146117df57600281015481546003830154600480850154604051637921219560e11b81526001600160a01b039586169563f242432a956117a895309591909216939192016135c6565b600060405180830381600087803b1580156117c257600080fd5b505af11580156117d6573d6000803e3d6000fd5b50505050611850565b600281015481546003830154604051632142170760e11b81526001600160a01b03938416936342842e0e9361181d93309392909116916004016135a2565b600060405180830381600087803b15801561183757600080fd5b505af115801561184b573d6000803e3d6000fd5b505050505b60068101805461ff001916610100179055600880546001019055600281015460038201546040516001600160a01b039092169133917f1b8533106988126be2d3db59ca29eb634d45d513b5e215053409141b26f8f42e916118b2918891613872565b60405180910390a3600601546001600055610100900460ff1692915050565b6000806118dd83612829565b9094909350915050565b336118f0610d35565b6001600160a01b0316146119165760405162461bcd60e51b8152600401610895906136c3565b6009546001600160601b039081169082168114156119465760405162461bcd60e51b81526004016108959061366b565b600980546001600160601b0319166001600160601b0384161790556040513390600080516020613a8b8339815191529061198490859060009061391f565b60405180910390a25050565b600082815260046020526040812080546001600160a01b031633146119e55760405162461bcd60e51b815260206004820152600b60248201526a27a7262cafa9a2a62622a960a91b6044820152606401610895565b4281600701541115611a095760405162461bcd60e51b815260040161089590613723565b611a138342613975565b600882018190556002820154600383015460405187936001600160a01b039093169233927fef21c10270bf7c06ec6bdcbcb5a9b3eadf05a5426cfe77d674388eb1c057514992611a639290613872565b60405180910390a45060019392505050565b33611a7e610d35565b6001600160a01b031614611aa45760405162461bcd60e51b8152600401610895906136c3565b611aad81612e41565b336001600160a01b03167f15d80a013f22151bc7246e3bc132e12828cde19de98870475e3fa70840152721826040516108d19190613575565b611aee612fce565b6000828152600a602090815260409182902082516101208101845281546001600160a01b039081168252600180840154821694830194909452600283015416938101939093526003810154606084015260048101546080840152600581015460a08401526006810154909160c084019160ff1690811115611b7157611b71613a16565b6001811115611b8257611b82613a16565b81526020016006820160019054906101000a900460ff166002811115611baa57611baa613a16565b6002811115611bbb57611bbb613a16565b81526020016006820160029054906101000a900460ff166001811115611be357611be3613a16565b6001811115610d2c57610d2c613a16565b33611bfd610d35565b6001600160a01b031614611c235760405162461bcd60e51b8152600401610895906136c3565b6001600160a01b038116611c885760405162461bcd60e51b815260206004820152602660248201527f4f776e61626c653a206e6577206f776e657220697320746865207a65726f206160448201526564647265737360d01b6064820152608401610895565b611c918161297b565b50565b600060026000541415611cb95760405162461bcd60e51b815260040161089590613778565b6002600090815582815260046020526040812090600a820154610100900460ff166002811115611ceb57611ceb613a16565b14611d085760405162461bcd60e51b815260040161089590613697565b600080611d1485612829565b9150915081600014611d385760405162461bcd60e51b815260040161089590613723565b8015611d7a5760405162461bcd60e51b8152602060048201526011602482015270105550d51253d397d393d517d153911151607a1b6044820152606401610895565b600683015480611ef0576000600a85015460ff166001811115611d9f57611d9f613a16565b14611e1f57600284015484546003860154600480880154604051637921219560e11b81526001600160a01b039586169563f242432a95611de895309591909216939192016135c6565b600060405180830381600087803b158015611e0257600080fd5b505af1158015611e16573d6000803e3d6000fd5b50505050611e90565b600284015484546003860154604051632142170760e11b81526001600160a01b03938416936342842e0e93611e5d93309392909116916004016135a2565b600060405180830381600087803b158015611e7757600080fd5b505af1158015611e8b573d6000803e3d6000fd5b505050505b600a8401805461ff00191661010017905560028401546003850154604080519182525188926001600160a01b03169133917f57bfd08a841d5d478e4fef268a8b041c65e389dddfa00f8c4a88a9d4fd9bc8249181900360200190a461220e565b600354600090620186a090611f0f9084906001600160601b03166139af565b611f19919061398d565b600186015460035460405163a9059cbb60e01b81529293506001600160a01b03918216927f000000000000000000000000000000000000000000000000000000000000000083169263a9059cbb92611f8192600160601b909104909116908690600401613589565b602060405180830381600087803b158015611f9b57600080fd5b505af1158015611faf573d6000803e3d6000fd5b505050506040513d601f19601f82011682018060405250810190611fd3919061341e565b5085546001600160a01b037f000000000000000000000000000000000000000000000000000000000000000081169163a9059cbb911661201385876139ce565b6040518363ffffffff1660e01b8152600401612030929190613589565b602060405180830381600087803b15801561204a57600080fd5b505af115801561205e573d6000803e3d6000fd5b505050506040513d601f19601f82011682018060405250810190612082919061341e565b506000600a87015460ff16600181111561209e5761209e613a16565b146121195760028601546003870154600480890154604051637921219560e11b81526001600160a01b039094169363f242432a936120e293309388939091016135c6565b600060405180830381600087803b1580156120fc57600080fd5b505af1158015612110573d6000803e3d6000fd5b50505050612185565b60028601546003870154604051632142170760e11b81526001600160a01b03909216916342842e0e9161215291309186916004016135a2565b600060405180830381600087803b15801561216c57600080fd5b505af1158015612180573d6000803e3d6000fd5b505050505b600a8601805461020061ff00199091161790556002860154865460038801546004890154604080516001600160a01b0394851681528685166020820152908101929092526060820152608081018690528a92919091169033907f31c8601b5dd4c4e31751f64d3545cc33889c92681a65811a7f4575b3ae26d5569060a00160405180910390a450505b61221c600280546001019055565b505050600a01546001600055610100900460ff1692915050565b60008084116122775760405162461bcd60e51b815260206004820152600d60248201526c494e56414c49445f505249434560981b6044820152606401610895565b612285600680546001019055565b50600654600083600181111561229d5761229d613a16565b141561239d576040516331a9108f60e11b81526004810187905287906000906001600160a01b03831690636352211e9060240160206040518083038186803b1580156122e857600080fd5b505afa1580156122fc573d6000803e3d6000fd5b505050506040513d601f19601f8201168201806040525081019061232091906131b1565b604051632142170760e11b81529091506001600160a01b038316906342842e0e9061235390849030908d906004016135a2565b600060405180830381600087803b15801561236d57600080fd5b505af1158015612381573d6000803e3d6000fd5b5050505061239689848a60018a60008a612ecd565b5050612435565b600085116123bd5760405162461bcd60e51b815260040161089590613750565b604051637921219560e11b815287906001600160a01b0382169063f242432a906123f190339030908c908c906004016135c6565b600060405180830381600087803b15801561240b57600080fd5b505af115801561241f573d6000803e3d6000fd5b505050506124338883898989600189612ecd565b505b9695505050505050565b600081815260046020818152604080842081516101808101835281546001600160a01b0390811682526001808401548216958301959095526002830154169281019290925260038101546060830152928301546080820152600583015460a0820152600683015460c0820152600783015460e082015260088301546101008201526009830154610120820152600a8301548493919261014084019160ff16908111156124ed576124ed613a16565b60018111156124fe576124fe613a16565b8152602001600a820160019054906101000a900460ff16600281111561252657612526613a16565b600281111561253757612537613a16565b90525080519091506001600160a01b03161561258f5760c081015180612562575060a0015192915050565b80620186a0612573826127106139af565b61257d919061398d565b6125879190613975565b949350505050565b50600092915050565b6003546001600160601b039081169082168114156125c85760405162461bcd60e51b81526004016108959061366b565b50600380546001600160601b0319166001600160601b0392909216919091179055565b600082815260046020818152604080842081516101808101835281546001600160a01b0390811682526001808401548216958301959095526002830154169281019290925260038101546060830152928301546080820152600583015460a0820152600683015460c0820152600783015460e082015260088301546101008201526009830154610120820152600a83015490929161014084019160ff169081111561269857612698613a16565b60018111156126a9576126a9613a16565b8152602001600a820160019054906101000a900460ff1660028111156126d1576126d1613a16565b60028111156126e2576126e2613a16565b9052506101008101519091506000826101600151600281111561270757612707613a16565b146127245760405162461bcd60e51b815260040161089590613697565b81516001600160a01b03163314156127715760405162461bcd60e51b815260206004820152601060248201526f13d5d3915497d0d0539393d517d0925160821b6044820152606401610895565b428260e0015111156127955760405162461bcd60e51b815260040161089590613723565b4281116127d45760405162461bcd60e51b815260206004820152600d60248201526c105550d51253d397d153911151609a1b6044820152606401610895565b6127dd8461243f565b8310156128235760405162461bcd60e51b81526020600482015260146024820152731253959053125117d25394155517d05353d5539560621b6044820152606401610895565b50505050565b600081815260046020818152604080842081516101808101835281546001600160a01b0390811682526001808401548216958301959095526002830154169281019290925260038101546060830152928301546080820152600583015460a0820152600683015460c0820152600783015460e082015260088301546101008201526009830154610120820152600a83015484938493909161014084019160ff909116908111156128db576128db613a16565b60018111156128ec576128ec613a16565b8152602001600a820160019054906101000a900460ff16600281111561291457612914613a16565b600281111561292557612925613a16565b815250509050428160e001511161293d57600061294d565b428160e0015161294d91906139ce565b92504281610100015111612962576000612973565b4281610100015161297391906139ce565b915050915091565b600580546001600160a01b038381166001600160a01b0319831681179093556040519116919082907f8be0079c531659141344cd1fd0a4f28419497f9722a3daafe3b4186f6b6457e090600090a35050565b6000818152600a6020908152604080832081516101208101835281546001600160a01b039081168252600180840154821695830195909552600283015416928101929092526003810154606083015260048101546080830152600581015460a083015260068101549192909160c084019160ff90911690811115612a5357612a53613a16565b6001811115612a6457612a64613a16565b81526020016006820160019054906101000a900460ff166002811115612a8c57612a8c613a16565b6002811115612a9d57612a9d613a16565b81526020016006820160029054906101000a900460ff166001811115612ac557612ac5613a16565b6001811115612ad657612ad6613a16565b905250905060008160e001516002811115612af357612af3613a16565b14612b105760405162461bcd60e51b8152600401610895906136f8565b80516001600160a01b0316331415612b5d5760405162461bcd60e51b815260206004820152601060248201526f4f574e45525f43414e4e4f545f42555960801b6044820152606401610895565b5050565b60026000541415612b845760405162461bcd60e51b815260040161089590613778565b60026000818155828152600a602052604090206001810180546001600160a01b0319163317905560068101805491929161ff001916610100830217905550612bd0600780546001019055565b6000600682015460ff166001811115612beb57612beb613a16565b14612c665760028101546003820154600480840154604051637921219560e11b81526001600160a01b039094169363f242432a93612c2f93309333939091016135c6565b600060405180830381600087803b158015612c4957600080fd5b505af1158015612c5d573d6000803e3d6000fd5b50505050612cd2565b60028101546003820154604051632142170760e11b81526001600160a01b03909216916342842e0e91612c9f91309133916004016135a2565b600060405180830381600087803b158015612cb957600080fd5b505af1158015612ccd573d6000803e3d6000fd5b505050505b600281015460038201546005830154600684015460405186946001600160a01b03169333937f25353c877f813e6c285649c847a980aebcdcc579c7d36bee87d6c2f0dfff0bd093612d2d936201000090910460ff1690613880565b60405180910390a450506001600055565b600087815260046020526040812090612d578642613975565b90506000612d658683613975565b6002840180546001600160a01b038e166001600160a01b031991821617909155600385018b905560078501849055600885018290558454163317845560058401869055600a84018054919250859160ff191660018381811115612dca57612dca613a16565b021790555060048301889055600a8301805461ff00191690556040518a906001600160a01b038d169033907f199f73ece82f19f692dcb7db8f91f2527bd3158ffae28e226d7ef02df704353490612e2c908e908e908c908a908a908e906138e2565b60405180910390a45050505050505050505050565b6003546001600160a01b03600160601b9091048116908216811415612ea45760405162461bcd60e51b8152602060048201526019602482015278115c9c9bdc8e88185b1c9958591e481c9958d95a5c1a595b9d603a1b6044820152606401610895565b50600380546001600160a01b03909216600160601b026001600160601b03909216919091179055565b6000868152600a602052604090208054336001600160a01b03199182161782556002820180549091166001600160a01b038a1617905560038101869055600481018590556005810184905560068101805461ff00198116825584919061ffff191660018381811115612f4157612f41613a16565b021790555060068101805483919062ff0000191662010000836001811115612f6b57612f6b613a16565b021790555086886001600160a01b0316336001600160a01b03167f9d1dabeeddd19bb4a452fec325878c591ae8672c5fa5eecec875ba5aebdfdc4d8989898989604051612fbc9594939291906138a5565b60405180910390a45050505050505050565b6040805161012081018252600080825260208201819052918101829052606081018290526080810182905260a081018290529060c08201908152602001600081526020016000905290565b60405180610180016040528060006001600160a01b0316815260200160006001600160a01b0316815260200160006001600160a01b03168152602001600081526020016000815260200160008152602001600081526020016000815260200160008152602001600081526020016000600181111561309957613099613a16565b81526020016000905290565b600082601f8301126130b657600080fd5b813560206001600160401b038211156130d1576130d1613a42565b8160051b6130e0828201613945565b8381528281019086840183880185018910156130fb57600080fd5b600093505b858410156113c3578035835260019390930192918401918401613100565b600082601f83011261312f57600080fd5b81356001600160401b0381111561314857613148613a42565b61315b601f8201601f1916602001613945565b81815284602083860101111561317057600080fd5b816020850160208301376000918101602001919091529392505050565b60006020828403121561319f57600080fd5b81356131aa81613a68565b9392505050565b6000602082840312156131c357600080fd5b81516131aa81613a68565b600080600080600060a086880312156131e657600080fd5b85356131f181613a68565b9450602086013561320181613a68565b935060408601356001600160401b038082111561321d57600080fd5b61322989838a016130a5565b9450606088013591508082111561323f57600080fd5b61324b89838a016130a5565b9350608088013591508082111561326157600080fd5b5061326e8882890161311e565b9150509295509295909350565b6000806000806080858703121561329157600080fd5b843561329c81613a68565b935060208501356132ac81613a68565b92506040850135915060608501356001600160401b038111156132ce57600080fd5b6132da8782880161311e565b91505092959194509250565b600080600080600060a086880312156132fe57600080fd5b853561330981613a68565b9450602086013561331981613a68565b9350604086013592506060860135915060808601356001600160401b0381111561334257600080fd5b61326e8882890161311e565b60008060008060008060c0878903121561336757600080fd5b863561337281613a68565b9550602087013594506040870135935060608701359250608087013561339781613a7d565b915060a08701356133a781613a7d565b809150509295509295509295565b600080600080600080600060e0888a0312156133d057600080fd5b87356133db81613a68565b96506020880135955060408801359450606088013593506080880135925060a0880135915060c088013561340e81613a7d565b8091505092959891949750929550565b60006020828403121561343057600080fd5b815180151581146131aa57600080fd5b60006020828403121561345257600080fd5b81356001600160e01b0319811681146131aa57600080fd5b60006020828403121561347c57600080fd5b5035919050565b6000806040838503121561349657600080fd5b50508035926020909101359150565b6000602082840312156134b757600080fd5b81356001600160601b03811681146131aa57600080fd5b6001600160a01b03169052565b6134e481613a58565b9052565b600381106134e4576134e4613a16565b60018060a01b0380825116835280602083015116602084015280604083015116604084015250606081015160608301526080810151608083015260a081015160a083015260c081015161354e60c08401826134db565b5060e081015161356160e08401826134e8565b5061010080820151612823828501826134db565b6001600160a01b0391909116815260200190565b6001600160a01b03929092168252602082015260400190565b6001600160a01b039384168152919092166020820152604081019190915260600190565b6001600160a01b03858116825284166020820152604081018390526060810182905260a0608082018190526003908201526203078360ec1b60c0820152600060e08201612435565b6020808252825182820181905260009190848201906040850190845b818110156136515761363d8385516134f8565b92840192610120929092019160010161362a565b50909695505050505050565b6020810161061282846134e8565b602080825260129082015271115c9c9bdc8e88185b1c9958591e481cd95d60721b604082015260600190565b602080825260129082015271105550d51253d397d393d517d31254d5115160721b604082015260600190565b6020808252818101527f4f776e61626c653a2063616c6c6572206973206e6f7420746865206f776e6572604082015260600190565b60208082526011908201527013505492d15517d393d517d31254d51151607a1b604082015260600190565b602080825260139082015272105550d51253d397d393d517d4d51054951151606a1b604082015260600190565b6020808252600e908201526d1253959053125117d05353d5539560921b604082015260600190565b6020808252601f908201527f5265656e7472616e637947756172643a207265656e7472616e742063616c6c00604082015260600190565b6000610180820190506137c38284516134ce565b60208301516137d560208401826134ce565b5060408301516137e860408401826134ce565b50606083015160608301526080830151608083015260a083015160a083015260c083015160c083015260e083015160e083015261010080840151818401525061012080840151818401525061014080840151613846828501826134db565b50506101608084015161385b828501826134e8565b505092915050565b610120810161061282846134f8565b918252602082015260400190565b838152602081018390526060810161389783613a58565b826040830152949350505050565b858152602081018590526040810184905260a081016138c384613a58565b8360608301526138d283613a58565b8260808301529695505050505050565b600060c08201905087825286602083015285604083015284606083015283608083015261390e83613a58565b8260a0830152979650505050505050565b6001600160601b03831681526040810161393883613a58565b8260208301529392505050565b604051601f8201601f191681016001600160401b038111828210171561396d5761396d613a42565b604052919050565b6000821982111561398857613988613a00565b500190565b6000826139aa57634e487b7160e01b600052601260045260246000fd5b500490565b60008160001904831182151516156139c9576139c9613a00565b500290565b6000828210156139e0576139e0613a00565b500390565b60006000198214156139f9576139f9613a00565b5060010190565b634e487b7160e01b600052601160045260246000fd5b634e487b7160e01b600052602160045260246000fd5b634e487b7160e01b600052603260045260246000fd5b634e487b7160e01b600052604160045260246000fd5b60028110611c9157611c91613a16565b6001600160a01b0381168114611c9157600080fd5b60028110611c9157600080fdfed31c57ccb8973d46b86c5908906595e79b95be6576719f38633833500aeb0729a164736f6c6343000806000a",
  "linkReferences": {},
  "deployedLinkReferences": {}
}